{"contracts/Permalink.sol":{"Permalink":{"abi":[{"inputs":[{"internalType":"address","name":"initialOwner","type":"address"}],"stateMutability":"nonpayable","type":"constructor"},{"inputs":[{"internalType":"address","name":"sender","type":"address"},{"internalType":"uint256","name":"balance","type":"uint256"},{"internalType":"uint256","name":"needed","type":"uint256"},{"internalType":"uint256","name":"tokenId","type":"uint256"}],"name":"ERC1155InsufficientBalance","type":"error"},{"inputs":[{"internalType":"address","name":"approver","type":"address"}],"name":"ERC1155InvalidApprover","type":"error"},{"inputs":[{"internalType":"uint256","name":"idsLength","type":"uint256"},{"internalType":"uint256","name":"valuesLength","type":"uint256"}],"name":"ERC1155InvalidArrayLength","type":"error"},{"inputs":[{"internalType":"address","name":"operator","type":"address"}],"name":"ERC1155InvalidOperator","type":"error"},{"inputs":[{"internalType":"address","name":"receiver","type":"address"}],"name":"ERC1155InvalidReceiver","type":"error"},{"inputs":[{"internalType":"address","name":"sender","type":"address"}],"name":"ERC1155InvalidSender","type":"error"},{"inputs":[{"internalType":"address","name":"operator","type":"address"},{"internalType":"address","name":"owner","type":"address"}],"name":"ERC1155MissingApprovalForAll","type":"error"},{"inputs":[],"name":"EnforcedPause","type":"error"},{"inputs":[],"name":"ExpectedPause","type":"error"},{"inputs":[{"internalType":"address","name":"owner","type":"address"}],"name":"OwnableInvalidOwner","type":"error"},{"inputs":[{"internalType":"address","name":"account","type":"address"}],"name":"OwnableUnauthorizedAccount","type":"error"},{"inputs":[],"name":"ReentrancyGuardReentrantCall","type":"error"},{"anonymous":false,"inputs":[{"indexed":true,"internalType":"address","name":"addr","type":"address"}],"name":"AddressRegisteredInterest","type":"event"},{"anonymous":false,"inputs":[{"indexed":true,"internalType":"address","name":"addr","type":"address"}],"name":"AddressRemovedFromWhitelist","type":"event"},{"anonymous":false,"inputs":[{"indexed":true,"internalType":"address","name":"addr","type":"address"}],"name":"AddressWhitelisted","type":"event"},{"anonymous":false,"inputs":[{"indexed":true,"internalType":"address","name":"admin","type":"address"},{"indexed":true,"internalType":"address","name":"addedBy","type":"address"}],"name":"AdminAdded","type":"event"},{"anonymous":false,"inputs":[{"indexed":true,"internalType":"address","name":"admin","type":"address"},{"indexed":true,"internalType":"address","name":"removedBy","type":"address"}],"name":"AdminRemoved","type":"event"},{"anonymous":false,"inputs":[{"indexed":true,"internalType":"address","name":"account","type":"address"},{"indexed":true,"internalType":"address","name":"operator","type":"address"},{"indexed":false,"internalType":"bool","name":"approved","type":"bool"}],"name":"ApprovalForAll","type":"event"},{"anonymous":false,"inputs":[{"indexed":true,"internalType":"address","name":"artist","type":"address"},{"indexed":false,"internalType":"string","name":"name","type":"string"},{"indexed":false,"internalType":"string","name":"bio","type":"string"},{"indexed":false,"internalType":"string","name":"avatarURI","type":"string"}],"name":"ArtistProfileUpdated","type":"event"},{"anonymous":false,"inputs":[{"indexed":true,"internalType":"uint256","name":"tokenId","type":"uint256"},{"indexed":true,"internalType":"address","name":"artist","type":"address"},{"indexed":false,"internalType":"string","name":"title","type":"string"},{"indexed":false,"internalType":"uint256","name":"price","type":"uint256"},{"indexed":false,"internalType":"uint256","name":"maxSupply","type":"uint256"},{"indexed":false,"internalType":"uint256","name":"imageSize","type":"uint256"}],"name":"ArtworkMinted","type":"event"},{"anonymous":false,"inputs":[{"indexed":true,"internalType":"uint256","name":"tokenId","type":"uint256"},{"indexed":true,"internalType":"address","name":"buyer","type":"address"},{"indexed":true,"internalType":"address","name":"artist","type":"address"},{"indexed":false,"internalType":"uint256","name":"amount","type":"uint256"},{"indexed":false,"internalType":"uint256","name":"price","type":"uint256"}],"name":"ArtworkPurchased","type":"event"},{"anonymous":false,"inputs":[{"indexed":true,"internalType":"address","name":"previousOwner","type":"address"},{"indexed":true,"internalType":"address","name":"newOwner","type":"address"}],"name":"OwnershipTransferred","type":"event"},{"anonymous":false,"inputs":[{"indexed":false,"internalType":"address","name":"account","type":"address"}],"name":"Paused","type":"event"},{"anonymous":false,"inputs":[{"indexed":false,"internalType":"uint256","name":"oldFee","type":"uint256"},{"indexed":false,"internalType":"uint256","name":"newFee","type":"uint256"}],"name":"PlatformFeeUpdated","type":"event"},{"anonymous":false,"inputs":[{"indexed":true,"internalType":"address","name":"operator","type":"address"},{"indexed":true,"internalType":"address","name":"from","type":"address"},{"indexed":true,"internalType":"address","name":"to","type":"address"},{"indexed":false,"internalType":"uint256[]","name":"ids","type":"uint256[]"},{"indexed":false,"internalType":"uint256[]","name":"values","type":"uint256[]"}],"name":"TransferBatch","type":"event"},{"anonymous":false,"inputs":[{"indexed":true,"internalType":"address","name":"operator","type":"address"},{"indexed":true,"internalType":"address","name":"from","type":"address"},{"indexed":true,"internalType":"address","name":"to","type":"address"},{"indexed":false,"internalType":"uint256","name":"id","type":"uint256"},{"indexed":false,"internalType":"uint256","name":"value","type":"uint256"}],"name":"TransferSingle","type":"event"},{"anonymous":false,"inputs":[{"indexed":false,"internalType":"string","name":"value","type":"string"},{"indexed":true,"internalType":"uint256","name":"id","type":"uint256"}],"name":"URI","type":"event"},{"anonymous":false,"inputs":[{"indexed":false,"internalType":"address","name":"account","type":"address"}],"name":"Unpaused","type":"event"},{"anonymous":false,"inputs":[{"indexed":false,"internalType":"bool","name":"enabled","type":"bool"},{"indexed":true,"internalType":"address","name":"toggledBy","type":"address"}],"name":"WhitelistToggled","type":"event"},{"inputs":[],"name":"ARTIST_ROYALTY_PERCENTAGE","outputs":[{"internalType":"uint256","name":"","type":"uint256"}],"stateMutability":"view","type":"function"},{"inputs":[],"name":"MAX_PLATFORM_FEE","outputs":[{"internalType":"uint256","name":"","type":"uint256"}],"stateMutability":"view","type":"function"},{"inputs":[{"internalType":"address","name":"addr","type":"address"}],"name":"addAdmin","outputs":[],"stateMutability":"nonpayable","type":"function"},{"inputs":[{"internalType":"uint256","name":"","type":"uint256"}],"name":"adminAddressList","outputs":[{"internalType":"address","name":"","type":"address"}],"stateMutability":"view","type":"function"},{"inputs":[{"internalType":"address","name":"","type":"address"}],"name":"adminAddresses","outputs":[{"internalType":"bool","name":"","type":"bool"}],"stateMutability":"view","type":"function"},{"inputs":[{"internalType":"address[]","name":"addresses","type":"address[]"}],"name":"approveAddresses","outputs":[],"stateMutability":"nonpayable","type":"function"},{"inputs":[{"internalType":"address","name":"","type":"address"}],"name":"artistProfiles","outputs":[{"internalType":"string","name":"name","type":"string"},{"internalType":"string","name":"bio","type":"string"},{"internalType":"string","name":"avatarURI","type":"string"},{"internalType":"uint256","name":"totalCreated","type":"uint256"},{"internalType":"uint256","name":"totalCollected","type":"uint256"},{"internalType":"bool","name":"isRegistered","type":"bool"}],"stateMutability":"view","type":"function"},{"inputs":[{"internalType":"address","name":"","type":"address"},{"internalType":"uint256","name":"","type":"uint256"}],"name":"artistTokens","outputs":[{"internalType":"uint256","name":"","type":"uint256"}],"stateMutability":"view","type":"function"},{"inputs":[{"internalType":"uint256","name":"","type":"uint256"}],"name":"artworks","outputs":[{"internalType":"uint256","name":"tokenId","type":"uint256"},{"internalType":"address","name":"artist","type":"address"},{"internalType":"string","name":"title","type":"string"},{"internalType":"string","name":"description","type":"string"},{"internalType":"bytes","name":"imageData","type":"bytes"},{"internalType":"string","name":"imageType","type":"string"},{"internalType":"uint256","name":"price","type":"uint256"},{"internalType":"uint256","name":"maxSupply","type":"uint256"},{"internalType":"uint256","name":"currentSupply","type":"uint256"},{"internalType":"bool","name":"isActive","type":"bool"},{"internalType":"uint256","name":"createdAt","type":"uint256"}],"stateMutability":"view","type":"function"},{"inputs":[{"internalType":"address","name":"account","type":"address"},{"internalType":"uint256","name":"id","type":"uint256"}],"name":"balanceOf","outputs":[{"internalType":"uint256","name":"","type":"uint256"}],"stateMutability":"view","type":"function"},{"inputs":[{"internalType":"address[]","name":"accounts","type":"address[]"},{"internalType":"uint256[]","name":"ids","type":"uint256[]"}],"name":"balanceOfBatch","outputs":[{"internalType":"uint256[]","name":"","type":"uint256[]"}],"stateMutability":"view","type":"function"},{"inputs":[{"internalType":"address","name":"","type":"address"},{"internalType":"uint256","name":"","type":"uint256"}],"name":"collectorTokens","outputs":[{"internalType":"uint256","name":"","type":"uint256"}],"stateMutability":"view","type":"function"},{"inputs":[{"internalType":"uint256","name":"id","type":"uint256"}],"name":"exists","outputs":[{"internalType":"bool","name":"","type":"bool"}],"stateMutability":"view","type":"function"},{"inputs":[],"name":"getAdminAddresses","outputs":[{"internalType":"address[]","name":"","type":"address[]"}],"stateMutability":"view","type":"function"},{"inputs":[{"internalType":"address","name":"artist","type":"address"}],"name":"getArtistProfile","outputs":[{"internalType":"string","name":"artistName","type":"string"},{"internalType":"string","name":"bio","type":"string"},{"internalType":"string","name":"avatarURI","type":"string"},{"internalType":"uint256","name":"totalCreated","type":"uint256"},{"internalType":"uint256","name":"totalCollected","type":"uint256"},{"internalType":"bool","name":"isRegistered","type":"bool"}],"stateMutability":"view","type":"function"},{"inputs":[{"internalType":"address","name":"artist","type":"address"}],"name":"getArtistTokens","outputs":[{"internalType":"uint256[]","name":"","type":"uint256[]"}],"stateMutability":"view","type":"function"},{"inputs":[{"internalType":"uint256","name":"tokenId","type":"uint256"}],"name":"getArtwork","outputs":[{"internalType":"address","name":"artist","type":"address"},{"internalType":"string","name":"title","type":"string"},{"internalType":"string","name":"description","type":"string"},{"internalType":"string","name":"imageType","type":"string"},{"internalType":"uint256","name":"imageSize","type":"uint256"},{"internalType":"uint256","name":"price","type":"uint256"},{"internalType":"uint256","name":"maxSupply","type":"uint256"},{"internalType":"uint256","name":"currentSupply","type":"uint256"},{"internalType":"bool","name":"isActive","type":"bool"},{"internalType":"uint256","name":"createdAt","type":"uint256"}],"stateMutability":"view","type":"function"},{"inputs":[{"internalType":"uint256","name":"tokenId","type":"uint256"}],"name":"getArtworkImageData","outputs":[{"internalType":"bytes","name":"imageData","type":"bytes"},{"internalType":"string","name":"imageType","type":"string"}],"stateMutability":"view","type":"function"},{"inputs":[{"internalType":"address","name":"collector","type":"address"}],"name":"getCollectorTokens","outputs":[{"internalType":"uint256[]","name":"","type":"uint256[]"}],"stateMutability":"view","type":"function"},{"inputs":[],"name":"getCurrentTokenId","outputs":[{"internalType":"uint256","name":"","type":"uint256"}],"stateMutability":"view","type":"function"},{"inputs":[],"name":"getInterestedAddresses","outputs":[{"internalType":"address[]","name":"","type":"address[]"}],"stateMutability":"view","type":"function"},{"inputs":[],"name":"getWhitelistedAddresses","outputs":[{"internalType":"address[]","name":"","type":"address[]"}],"stateMutability":"view","type":"function"},{"inputs":[{"internalType":"uint256","name":"","type":"uint256"}],"name":"interestedAddressList","outputs":[{"internalType":"address","name":"","type":"address"}],"stateMutability":"view","type":"function"},{"inputs":[{"internalType":"address","name":"","type":"address"}],"name":"interestedAddresses","outputs":[{"internalType":"bool","name":"","type":"bool"}],"stateMutability":"view","type":"function"},{"inputs":[{"internalType":"address","name":"addr","type":"address"}],"name":"isAdmin","outputs":[{"internalType":"bool","name":"","type":"bool"}],"stateMutability":"view","type":"function"},{"inputs":[{"internalType":"address","name":"account","type":"address"},{"internalType":"address","name":"operator","type":"address"}],"name":"isApprovedForAll","outputs":[{"internalType":"bool","name":"","type":"bool"}],"stateMutability":"view","type":"function"},{"inputs":[{"internalType":"address","name":"addr","type":"address"}],"name":"isInterested","outputs":[{"internalType":"bool","name":"","type":"bool"}],"stateMutability":"view","type":"function"},{"inputs":[],"name":"isWhitelistEnabled","outputs":[{"internalType":"bool","name":"","type":"bool"}],"stateMutability":"view","type":"function"},{"inputs":[{"internalType":"address","name":"addr","type":"address"}],"name":"isWhitelisted","outputs":[{"internalType":"bool","name":"","type":"bool"}],"stateMutability":"view","type":"function"},{"inputs":[{"internalType":"string","name":"_title","type":"string"},{"internalType":"string","name":"_description","type":"string"},{"internalType":"bytes","name":"_imageData","type":"bytes"},{"internalType":"string","name":"_imageType","type":"string"},{"internalType":"uint256","name":"_price","type":"uint256"},{"internalType":"uint256","name":"_maxSupply","type":"uint256"}],"name":"mintArtwork","outputs":[{"internalType":"uint256","name":"","type":"uint256"}],"stateMutability":"nonpayable","type":"function"},{"inputs":[],"name":"name","outputs":[{"internalType":"string","name":"","type":"string"}],"stateMutability":"view","type":"function"},{"inputs":[],"name":"owner","outputs":[{"internalType":"address","name":"","type":"address"}],"stateMutability":"view","type":"function"},{"inputs":[],"name":"pause","outputs":[],"stateMutability":"nonpayable","type":"function"},{"inputs":[],"name":"paused","outputs":[{"internalType":"bool","name":"","type":"bool"}],"stateMutability":"view","type":"function"},{"inputs":[],"name":"platformFeePercentage","outputs":[{"internalType":"uint256","name":"","type":"uint256"}],"stateMutability":"view","type":"function"},{"inputs":[{"internalType":"uint256","name":"tokenId","type":"uint256"},{"internalType":"uint256","name":"amount","type":"uint256"}],"name":"purchaseArtwork","outputs":[],"stateMutability":"payable","type":"function"},{"inputs":[],"name":"registerInterest","outputs":[],"stateMutability":"nonpayable","type":"function"},{"inputs":[{"internalType":"address","name":"addr","type":"address"}],"name":"removeAdmin","outputs":[],"stateMutability":"nonpayable","type":"function"},{"inputs":[{"internalType":"address","name":"addr","type":"address"}],"name":"removeFromWhitelist","outputs":[],"stateMutability":"nonpayable","type":"function"},{"inputs":[],"name":"renounceOwnership","outputs":[],"stateMutability":"nonpayable","type":"function"},{"inputs":[{"internalType":"address","name":"from","type":"address"},{"internalType":"address","name":"to","type":"address"},{"internalType":"uint256[]","name":"ids","type":"uint256[]"},{"internalType":"uint256[]","name":"values","type":"uint256[]"},{"internalType":"bytes","name":"data","type":"bytes"}],"name":"safeBatchTransferFrom","outputs":[],"stateMutability":"nonpayable","type":"function"},{"inputs":[{"internalType":"address","name":"from","type":"address"},{"internalType":"address","name":"to","type":"address"},{"internalType":"uint256","name":"id","type":"uint256"},{"internalType":"uint256","name":"value","type":"uint256"},{"internalType":"bytes","name":"data","type":"bytes"}],"name":"safeTransferFrom","outputs":[],"stateMutability":"nonpayable","type":"function"},{"inputs":[{"internalType":"address","name":"operator","type":"address"},{"internalType":"bool","name":"approved","type":"bool"}],"name":"setApprovalForAll","outputs":[],"stateMutability":"nonpayable","type":"function"},{"inputs":[{"internalType":"uint256","name":"_platformFeePercentage","type":"uint256"}],"name":"setPlatformFee","outputs":[],"stateMutability":"nonpayable","type":"function"},{"inputs":[{"internalType":"string","name":"newURI","type":"string"}],"name":"setURI","outputs":[],"stateMutability":"nonpayable","type":"function"},{"inputs":[{"internalType":"bytes4","name":"interfaceId","type":"bytes4"}],"name":"supportsInterface","outputs":[{"internalType":"bool","name":"","type":"bool"}],"stateMutability":"view","type":"function"},{"inputs":[],"name":"symbol","outputs":[{"internalType":"string","name":"","type":"string"}],"stateMutability":"view","type":"function"},{"inputs":[{"internalType":"uint256","name":"tokenId","type":"uint256"}],"name":"toggleArtworkStatus","outputs":[],"stateMutability":"nonpayable","type":"function"},{"inputs":[],"name":"toggleWhitelist","outputs":[],"stateMutability":"nonpayable","type":"function"},{"inputs":[{"internalType":"uint256","name":"","type":"uint256"}],"name":"tokenToArtist","outputs":[{"internalType":"address","name":"","type":"address"}],"stateMutability":"view","type":"function"},{"inputs":[],"name":"totalSupply","outputs":[{"internalType":"uint256","name":"","type":"uint256"}],"stateMutability":"view","type":"function"},{"inputs":[{"internalType":"uint256","name":"id","type":"uint256"}],"name":"totalSupply","outputs":[{"internalType":"uint256","name":"","type":"uint256"}],"stateMutability":"view","type":"function"},{"inputs":[{"internalType":"address","name":"newOwner","type":"address"}],"name":"transferOwnership","outputs":[],"stateMutability":"nonpayable","type":"function"},{"inputs":[],"name":"unpause","outputs":[],"stateMutability":"nonpayable","type":"function"},{"inputs":[{"internalType":"string","name":"_name","type":"string"},{"internalType":"string","name":"_bio","type":"string"},{"internalType":"string","name":"_avatarURI","type":"string"}],"name":"updateArtistProfile","outputs":[],"stateMutability":"nonpayable","type":"function"},{"inputs":[{"internalType":"uint256","name":"tokenId","type":"uint256"},{"internalType":"uint256","name":"newPrice","type":"uint256"}],"name":"updateArtworkPrice","outputs":[],"stateMutability":"nonpayable","type":"function"},{"inputs":[{"internalType":"uint256","name":"tokenId","type":"uint256"}],"name":"uri","outputs":[{"internalType":"string","name":"","type":"string"}],"stateMutability":"view","type":"function"},{"inputs":[],"name":"whitelistEnabled","outputs":[{"internalType":"bool","name":"","type":"bool"}],"stateMutability":"view","type":"function"},{"inputs":[{"internalType":"uint256","name":"","type":"uint256"}],"name":"whitelistedAddressList","outputs":[{"internalType":"address","name":"","type":"address"}],"stateMutability":"view","type":"function"},{"inputs":[{"internalType":"address","name":"","type":"address"}],"name":"whitelistedAddresses","outputs":[{"internalType":"bool","name":"","type":"bool"}],"stateMutability":"view","type":"function"},{"inputs":[],"name":"withdrawPlatformFees","outputs":[],"stateMutability":"nonpayable","type":"function"}],"evm":{"bytecode":{"linkReferences":{},"object":"6080346200030b57601f620054ba38819003918201601f1916830192916001600160401b03919082851184861017620002f557808492604096875283396020938491810103126200030b57516001600160a01b039283821692918390036200030b57845181810181811084821117620002f55786526200008460009182815262000366565b8315620002de57600580546001600160a01b0319808216871790925590958591167f8be0079c531659141344cd1fd0a4f28419497f9722a3daafe3b4186f6b6457e08380a360019283600655620000dd60085462000310565b601f8111620002bc575b507f5065726d616c696e6b00000000000000000000000000000000000000000000126008556009546200011a9062000310565b601f81116200029a575b50600a64504c494e4b60d81b0160095560fa600a5581600b5560ff19908482600c541617600c5587519060608201908282109082111762000286578852602c81527f68747470733a2f2f6170692e7065726d616c696e6b2e6172742f6d6574616461848201526b3a3097bdb4b23e973539b7b760a11b88820152620001a99062000366565b848252600f83528682208482825416179055600e83528387832091825416179055601254926801000000000000000093848110156200027257818101806012558110156200025e5760128352838320018587825416179055601154938410156200024a578301806011558310156200023657601181522001918254161790555161501f90816200049b8239f35b634e487b7160e01b81526032600452602490fd5b634e487b7160e01b82526041600452602482fd5b634e487b7160e01b83526032600452602483fd5b634e487b7160e01b83526041600452602483fd5b634e487b7160e01b84526041600452602484fd5b60098352838320620002b591601f0160051c8101906200034d565b3862000124565b60088352838320620002d791601f0160051c8101906200034d565b38620000e7565b602490865190631e4fbdf760e01b82526004820152fd5b634e487b7160e01b600052604160045260246000fd5b600080fd5b90600182811c9216801562000342575b60208310146200032c57565b634e487b7160e01b600052602260045260246000fd5b91607f169162000320565b81811062000359575050565b600081556001016200034d565b80519091906001600160401b038111620002f5576200038760025462000310565b601f81116200043b575b50602080601f8311600114620003d15750819293600092620003c5575b50508160011b916000199060031b1c191617600255565b015190503880620003ae565b90601f1983169460026000526020600020926000905b8782106200042257505083600195961062000408575b505050811b01600255565b015160001960f88460031b161c19169055388080620003fd565b80600185968294968601518155019501930190620003e7565b600260005262000488907f405787fa12a823e0f2b7631cc41b3ba8828b3321ca811111fa75cd3aa3bb5ace601f840160051c810191602085106200048f575b601f0160051c01906200034d565b3862000391565b90915081906200047a56fe6080604052600436101561001257600080fd5b60003560e01c8062fdd58e146103cd57806301ffc9a7146103c857806302fe5305146103c357806306c933d81461039157806306fdde03146103be5780630e89341c146103b957806312e8e2c3146103b4578063167ddf6e146103af578063171212d5146103aa5780631785f53c146103a557806318160ddd146103a0578063184d69ab1461035f57806324d7806c146103735780632eb2c2d61461039b57806335c2aab9146103965780633998a6811461037d5780633af32abf146103915780633b5221e21461038c5780633f4ba83a146103875780634b602673146103825780634bf56fd1146103415780634cf4bb061461037d5780634e1273f4146103785780634ed38faf146103735780634f558e791461036e5780635001257e146103695780635024fd8c1461036457806351fb012d1461035f578063552906ce1461035a57806356189236146103555780635b42a8fe146103505780635c975abb1461034b5780635f5fff4d1461034657806362afcf001461034157806363c770d81461033c57806364ddfa29146103375780636d028027146103325780636e9772231461032d5780637048027514610328578063715018a6146103235780637e15144b1461031e5780638456cb59146103195780638ab1d681146103145780638da5cb5b1461030f5780638dc8b4da1461030a57806392a05fe71461030557806395d89b4114610300578063a22cb465146102fb578063b23cd1a6146102f6578063b3b30640146102f1578063bd85b039146102ec578063c71959b4146102e7578063cc0ad6e7146102e2578063cdd78cfc146102dd578063d0b7830b146102d8578063e084ffda146102d3578063e0f8b313146102ce578063e985e9c5146102c9578063f0f4d0cb146102c4578063f242432a146102bf5763f2fde38b146102ba57600080fd5b612a59565b612934565b6127df565b612777565b6126fc565b6126a1565b61261e565b612600565b612585565b6124e5565b6124b9565b61240f565b612316565b612256565b6121ae565b612160565b6120dc565b6120b3565b611f74565b611f1a565b611e8f565b611e31565b611cfc565b611cb3565b611c41565b611bc3565b611b35565b611419565b611a53565b611a30565b6119d7565b6119b9565b6116ae565b610f07565b611652565b61158a565b61155c565b610f2a565b6114a0565b611144565b611385565b611295565b611186565b6106e9565b611110565b610fe3565b610ee9565b610d50565b610cd7565b610b4d565b610a46565b610a13565b61092a565b6105c8565b61044b565b6103e8565b6001600160a01b038116036103e357565b600080fd5b346103e35760403660031901126103e357602061043060043561040a816103d2565b6024356000526000835260406000209060018060a01b0316600052602052604060002090565b54604051908152f35b6001600160e01b03198116036103e357565b346103e35760203660031901126103e357602060043561046a81610439565b63ffffffff60e01b16636cdb3d1360e11b81149081156104a8575b8115610497575b506040519015158152f35b6301ffc9a760e01b1490503861048c565b6303a24d0760e21b81149150610485565b634e487b7160e01b600052604160045260246000fd5b60c081019081106001600160401b038211176104ea57604052565b6104b9565b604081019081106001600160401b038211176104ea57604052565b606081019081106001600160401b038211176104ea57604052565b90601f801991011681019081106001600160401b038211176104ea57604052565b6040519061016082018281106001600160401b038211176104ea57604052565b6001600160401b0381116104ea57601f01601f191660200190565b81601f820112156103e35780359061059882610566565b926105a66040519485610525565b828452602083830101116103e357816000926020809301838601378301015290565b346103e3576020806003193601126103e3576001600160401b036004358181116103e3576105fa903690600401610581565b91610603613c3c565b82519182116104ea576106208261061b60025461072b565b6134a3565b602090601f83116001146106625750819061065293600092610657575b50508160011b916000199060031b1c19161790565b600255005b01519050388061063d565b90601f1983169361069560026000527f405787fa12a823e0f2b7631cc41b3ba8828b3321ca811111fa75cd3aa3bb5ace90565b926000905b8682106106d157505083600195106106b8575b505050811b01600255005b015160001960f88460031b161c191690553880806106ad565b8060018596829496860151815501950193019061069a565b346103e35760203660031901126103e357600435610706816103d2565b60018060a01b0316600052600e602052602060ff604060002054166040519015158152f35b90600182811c9216801561075b575b602083101461074557565b634e487b7160e01b600052602260045260246000fd5b91607f169161073a565b60405190600082600254916107798361072b565b8083529260209060019081811690811561080757506001146107a6575b50506107a492500383610525565b565b91509260026000527f405787fa12a823e0f2b7631cc41b3ba8828b3321ca811111fa75cd3aa3bb5ace936000925b8284106107ef57506107a49450505081016020013880610796565b855488850183015294850194879450928101926107d4565b915050602092506107a494915060ff191682840152151560051b8201013880610796565b9060405191826000825461083e8161072b565b908184526020946001916001811690816000146108ac575060011461086d575b5050506107a492500383610525565b600090815285812095935091905b8183106108945750506107a4935082010138808061085e565b8554888401850152948501948794509183019161087b565b925050506107a494925060ff191682840152151560051b82010138808061085e565b60005b8381106108e15750506000910152565b81810151838201526020016108d1565b9060209161090a815180928185528580860191016108ce565b601f01601f1916010190565b9060206109279281815201906108f1565b90565b346103e357600080600319360112610a105760405190806008549061094e8261072b565b808552916020916001918281169081156109e3575060011461098b575b6109878661097b81880382610525565b60405191829182610916565b0390f35b9350600884527ff3f7a9fe364faab93b216da50a3214154f22a0a2b415b23a84c8169e8b636ee35b8385106109d05750505050810160200161097b826109873861096b565b80548686018401529382019381016109b3565b90508695506109879693506020925061097b94915060ff191682840152151560051b82010192933861096b565b80fd5b346103e35760203660031901126103e357610987610a32600435612b87565b6040519182916020835260208301906108f1565b346103e35760203660031901126103e357600435610a62613c3c565b6103e88111610aa857600a8054908290556040805191825260208201929092527fd347e206f25a89b917fc9482f1a2d294d749baa4dc9bde7fb495ee11fe4916439190a1005b60405162461bcd60e51b815260206004820152600c60248201526b08ccaca40e8dede40d0d2ced60a31b6044820152606490fd5b96939061012098959b9a999693610b10610b2c94610b1e936101409060018060a01b03168c528060208d01528b01906108f1565b9089820360408b01526108f1565b9087820360608901526108f1565b98608086015260a085015260c084015260e083015215156101008201520152565b346103e35760203660031901126103e357600435600b5481111580610c7f575b610b7690612c6c565b60005260146020526040600020610b8b610546565b8154815260018201546001600160a01b0316602082019081529091906109879061014090610bbb6002850161082b565b9360408601948552610bcf6003820161082b565b9560608101968752610be36004830161082b565b9260808201938452610bf76005840161082b565b9360a0830194855260068401549060c08401918252610c72610c5c60078701549460e087019586526008880154966101008101978852600a610c3d60098b015460ff1690565b151561012083019081529901549a018a9052516001600160a01b031690565b99519a5196519151519251935194519551151590565b956040519a8b9a8b610adc565b50801515610b6d565b949192610cb760a095989794610ca9610cc59460c08a5260c08a01906108f1565b9088820360208a01526108f1565b9086820360408801526108f1565b95606085015260808401521515910152565b346103e35760203660031901126103e357600435610cf4816103d2565b6001600160a01b03166000908152601360205260409020610d148161082b565b610987610d236001840161082b565b92610d306002820161082b565b90600381015460ff60056004840154930154169260405196879687610c88565b346103e35760203660031901126103e357600435610d6d816103d2565b600090338252600f60205260ff6040832054168015610ed5575b610d9090612cab565b6001600160a01b0381166000908152600f60205260409020610dbd90610db8905b5460ff1690565b612cab565b6005546001600160a01b0382811692610e1192610e0792610de19116851415612ce6565b610ded33851415612d32565b6001600160a01b03166000908152600f6020526040902090565b805460ff19169055565b815b6012549081811015610ece5782610e50610e44610e2f846115eb565b905460039190911b1c6001600160a01b031690565b6001600160a01b031690565b14610e5f576001915001610e13565b610e7f610e79610e2f610e74610e9d95612d9e565b6115eb565b916115eb565b90919060018060a01b038084549260031b9316831b921b1916179055565b610ea5612dce565b33907fdb9d5d31320daf5bc7181d565b6da4d12e30f0f4d5aa324a992426c14a1d19ce8380a380f35b5050610ea5565b506005546001600160a01b03163314610d87565b346103e35760003660031901126103e3576020600454604051908152f35b346103e35760003660031901126103e357602060ff600c54166040519015158152f35b346103e35760203660031901126103e357600435610f47816103d2565b60018060a01b0316600052600f602052602060ff604060002054166040519015158152f35b6001600160401b0381116104ea5760051b60200190565b9080601f830112156103e3576020908235610f9d81610f6c565b93610fab6040519586610525565b81855260208086019260051b8201019283116103e357602001905b828210610fd4575050505090565b81358152908301908301610fc6565b346103e35760a03660031901126103e35760048035611001816103d2565b60243561100d816103d2565b6001600160401b03906044358281116103e35761102d9036908601610f83565b906064358381116103e3576110459036908701610f83565b926084359081116103e35761105d9036908701610581565b936001600160a01b038082169033821415806110ec575b6110bf578316156110a757156110905761108e95506147fb565b005b604051626a0d4560e21b8152600081880152602490fd5b604051632bfa23e760e11b8152600081890152602490fd5b6040805163711bec9160e11b815233818b019081526001600160a01b038616602082015290918291010390fd5b50600082815260016020908152604080832033845290915290205460ff1615611074565b346103e35760203660031901126103e3576004356000526015602052602060018060a01b0360406000205416604051908152f35b346103e35760003660031901126103e35760206040516103e88152f35b9091611178610927936040845260408401906108f1565b9160208184039101526108f1565b346103e35760203660031901126103e357600435600b548111158061128c575b6111af90612c6c565b600052601460205260406000206111c4610546565b8154815260018201546111eb906001600160a01b03165b6001600160a01b03166020830152565b6111f76002830161082b565b60408201526112086003830161082b565b60608201526112196004830161082b565b9060808101918252610140600a6112326005860161082b565b9460a08401958652600681015460c0850152600781015460e0850152600881015461010085015261127461126a600983015460ff1690565b1515610120860152565b01549101525190519061098760405192839283611161565b508015156111a6565b346103e35760003660031901126103e3576112ae613c3c565b60075460ff8116156112ed5760ff19166007557f5db9ee0a495bf2e6ff9c91a7834c1ba4fdd244a5e8aa4e537bd38aeae4b073aa6020604051338152a1005b604051638dfc202b60e01b8152600490fd5b9794906113689461133e6101409b9895999e9d9c9961135a9561134c9460408e610160938493825260018060a01b0316602082015201528c01906108f1565b908a820360608c01526108f1565b9088820360808a01526108f1565b9086820360a08801526108f1565b9760c085015260e084015261010083015215156101208201520152565b346103e35760203660031901126103e3576004356000908152601460205260409020805460018201546001600160a01b031691610987906113c86002820161082b565b906113d56003820161082b565b6113e16004830161082b565b6113ed6005840161082b565b600684015490600785015492600886015494600a60ff600989015416970154976040519b8c9b8c6112ff565b346103e35760203660031901126103e357600435611436816103d2565b60018060a01b0316600052600d602052602060ff604060002054166040519015158152f35b90815180825260208080930193019160005b82811061147b575050505090565b83518552938101939281019260010161146d565b90602061092792818152019061145b565b346103e35760403660031901126103e3576004356001600160401b038082116103e357366023830112156103e35781600401356114dc81610f6c565b926114ea6040519485610525565b8184526020916024602086019160051b830101913683116103e357602401905b82821061154357856024358681116103e35761098791611531611537923690600401610f83565b90612ea0565b6040519182918261148f565b8380918335611551816103d2565b81520191019061150a565b346103e35760203660031901126103e357600435600052600360205260206040600020541515604051908152f35b346103e35760403660031901126103e35760043560009080825260156020526115c060018060a01b036040842054163314612f5f565b81526014602052602435600660408320015580f35b634e487b7160e01b600052603260045260246000fd5b601254811015611610576012600052600080516020614faa8339815191520190600090565b6115d5565b601154811015611610576011600052600080516020614fca8339815191520190600090565b80548210156116105760005260206000200190600090565b346103e35760403660031901126103e35760043561166f816103d2565b6001600160a01b03166000908152601760205260409020805460243591908210156103e3576020916116a09161163a565b90546040519160031b1c8152f35b60403660031901126103e3576024356004356116c86140e5565b6116d0614103565b60ff600c541661197e575b600b5481111580611975575b6116f090612c6c565b611704816000526014602052604060002090565b9161171b611716600985015460ff1690565b612fda565b61172681151561301e565b60088301916117456117398385546130cc565b600786015410156130d9565b600684019361175583865461315f565b61176181341015613172565b61179661177b611773600a548461315f565b612710900490565b61179161178a6117738561311a565b9184612dc1565b612dc1565b946117aa6117a26131b5565b868633614126565b6117b58582546130cc565b9055336000908152601360205260409020600490600581016117df6117db825460ff1690565b1590565b611957575b50016117f18582546130cc565b905560009460005b3360009081526017602052604090205481101561194c57336000908152601760205260409020859061183a9061183090849061163a565b90549060031b1c90565b14611847576001016117f9565b5090919293945060015b1561192d575b801580156118ef575b50508034116118bc575b506001015492546040805193845260208401919091526001600160a01b039093169233927f465c604f8dcf4d2dba83e76f95c4cb5876f0976ec008a9326b6d4b209142bb459190a461108e6001600655565b600080806118cb819434612dc1565b8181156118e6575b3390f1156118e1573861186a565b61320d565b506108fc6118d3565b6000808093819361190f610e44610e4460018b015460018060a01b031690565b908390611924575bf1156118e1573880611860565b506108fc611917565b3360009081526017602052604090206119479085906131d8565b611857565b509091929394611851565b805460ff1916600117905560006003820155600082820155386117e4565b508015156116e7565b33600052600e60205260ff6040600020541680156119a5575b6119a090612f9c565b6116db565b506005546001600160a01b03163314611997565b346103e35760003660031901126103e3576020600b54604051908152f35b346103e35760203660031901126103e3576004356000908082526015602052611a0d60018060a01b036040842054163314612f5f565b8152601460205260408120600901805460ff818116151660ff1990911617905580f35b346103e35760003660031901126103e357602060ff600754166040519015158152f35b346103e357600080600319360112610a1057338152600d60205260ff604082205416611af057336000908152600e60205260409020611a9e90611a99906117db90610db1565b613219565b336000908152600d60205260409020611abf905b805460ff19166001179055565b611ac83361325b565b337fd01371a65bc20da9af65aaf8149474fd747e562e207a3687cf65a809766a205a8280a280f35b60405162461bcd60e51b815260206004820152601b60248201527f416c7265616479207265676973746572656420696e74657265737400000000006044820152606490fd5b346103e35760203660031901126103e3576004356011548110156103e3576011600052600080516020614fca83398151915201546040516001600160a01b039091168152602090f35b602090602060408183019282815285518094520193019160005b828110611ba6575050505090565b83516001600160a01b031685529381019392810192600101611b98565b346103e35760003660031901126103e35760405180601254918281526020809101926012600052600080516020614faa833981519152916000905b828210611c215761098785611c1581890382610525565b60405191829182611b7e565b83546001600160a01b031686529485019460019384019390910190611bfe565b346103e35760003660031901126103e35760405180601154918281526020809101926011600052600080516020614fca833981519152916000905b828210611c935761098785611c1581890382610525565b83546001600160a01b031686529485019460019384019390910190611c7c565b346103e35760203660031901126103e3576004356012548110156103e3576012600052600080516020614faa83398151915201546040516001600160a01b039091168152602090f35b346103e35760203660031901126103e357600435611d19816103d2565b600090338252600f60205260ff6040832054168015611e1d575b611d3c90612cab565b6001600160a01b038116808352600f6020526040832054909190611d639060ff161561336c565b611d6e8215156133ab565b6001600160a01b0381166000908152600f60205260409020611d8f90611ab2565b611d98816132c2565b6001600160a01b0381166000908152600e60205260409020611dbd906117db90610db1565b611dec575b5033907fbf3f493c772c8c283fd124432c2d0f539ab343faa04258fe88e52912d36b102b8380a380f35b6001600160a01b0381166000908152600e60205260409020611e179190611e1290611ab2565b613317565b38611dc2565b506005546001600160a01b03163314611d33565b346103e357600080600319360112610a1057611e4b613c3c565b600580546001600160a01b0319811690915581906001600160a01b03167f8be0079c531659141344cd1fd0a4f28419497f9722a3daafe3b4186f6b6457e08280a380f35b346103e357600080600319360112610a1057338152600f60205260ff6040822054168015611f06575b611ec190612cab565b600c5460ff8082161516809160ff191617600c5560405190151581527f5f2930093a8ed3d18a75ec1318aa404a4cb74a9d542350560a7709642f444b5860203392a280f35b506005546001600160a01b03163314611eb8565b346103e35760003660031901126103e357611f33613c3c565b611f3b6140e5565b600160ff1960075416176007557f62e78cea01bee320cd4e420270b5ea74000d11b0c9f74754ebdbfc544b05a2586020604051338152a1005b346103e35760203660031901126103e357600435611f91816103d2565b600090338252600f60205260ff604083205416801561209f575b611fb490612cab565b6001600160a01b0381166000908152600e60205260409020611fde90611fd990610db1565b6133e9565b6005546001600160a01b038281169261201c92610e07926120029116851415613435565b6001600160a01b03166000908152600e6020526040902090565b815b6011549081811015612098578261203a610e44610e2f84611615565b1461204957600191500161201e565b610e7f612063610e2f61205e61206995612d9e565b611615565b91611615565b612071612e38565b7f535611fb62fa2a833988f283b779e417e996813e44046f521d76c17b5943b08c8280a280f35b5050612071565b506005546001600160a01b03163314611fab565b346103e35760003660031901126103e3576005546040516001600160a01b039091168152602090f35b346103e35760003660031901126103e357604051806010549182815260208091019260106000527f1b6847dc741a1b0cd08d278845f9d819d87b734759afb55fe2de5cb82a9ae672916000905b8282106121405761098785611c1581890382610525565b83546001600160a01b031686529485019460019384019390910190612129565b346103e35760403660031901126103e35760043561217d816103d2565b6001600160a01b03166000908152601660205260409020805460243591908210156103e3576020916116a09161163a565b346103e357600080600319360112610a10576040519080600954906121d28261072b565b808552916020916001918281169081156109e357506001146121fe576109878661097b81880382610525565b9350600984527f6e1540171b6c0c960b71a7020d9f60077f6af931a8bbf590da0223dacf75c7af5b8385106122435750505050810160200161097b826109873861096b565b8054868601840152938201938101612226565b346103e35760403660031901126103e357600435612273816103d2565b60243590811515908183036103e3576001600160a01b0381169283156122fe576122bf6122d09233600052600160205260406000209060018060a01b0316600052602052604060002090565b9060ff801983541691151516179055565b6040519081527f17307eab39ab6107e8899845ad3d59bd9653f200f220920489ca2b5937696c3160203392a3005b60405162ced3e160e81b815260006004820152602490fd5b346103e35760603660031901126103e3576001600160401b036004358181116103e357612347903690600401610581565b6024358281116103e35761235f903690600401610581565b916044359081116103e3576123997f39dfee1413bb413ba51702fe3cd693cd3b02628fbac61358818d502b7af50095913690600401610581565b60009333855260136020526123db826002604088206005810160ff815416156123f2575b506123c8888261353e565b6123d5856001830161353e565b0161353e565b6123ec604051928392339684613607565b0390a280f35b805460ff19166001179055886003820155886004820155386123bd565b346103e35760203660031901126103e35760043561242c816103d2565b60018060a01b03166000526013602052604060002060405161244d816104cf565b6124568261082b565b81526109876124676001840161082b565b916020810192835261247b6002850161082b565b93846040830152600381015480606084015260ff60056004840154938460808701520154161515928360a08201525194519560405196879687610c88565b346103e35760203660031901126103e35760043560005260036020526020604060002054604051908152f35b346103e35760c03660031901126103e3576001600160401b036004358181116103e357612516903690600401610581565b906024358181116103e35761252f903690600401610581565b6044358281116103e357612547903690600401610581565b926064359283116103e35761098793612567612575943690600401610581565b9060a435936084359361363e565b6040519081529081906020820190565b346103e3576020806003193601126103e3576004356125a3816103d2565b6001600160a01b0316600090815260166020908152604080832090518154808252918452828420928101949093905b8282106125e9576109878561153781890382610525565b8354865294850194600193840193909101906125d2565b346103e35760003660031901126103e3576020600a54604051908152f35b346103e357600080600319360112610a1057612638613c3c565b47801561266657600554829182918291829161265c906001600160a01b0316610e44565b82f1156118e15780f35b60405162461bcd60e51b81526020600482015260136024820152724e6f206665657320746f20776974686472617760681b6044820152606490fd5b346103e35760203660031901126103e3576004356010548110156103e35760106000527f1b6847dc741a1b0cd08d278845f9d819d87b734759afb55fe2de5cb82a9ae67201546040516001600160a01b039091168152602090f35b346103e3576020806003193601126103e35760043561271a816103d2565b6001600160a01b0316600090815260176020908152604080832090518154808252918452828420928101949093905b828210612760576109878561153781890382610525565b835486529485019460019384019390910190612749565b346103e35760403660031901126103e357602060ff6127d360043561279b816103d2565b602435906127a8826103d2565b60018060a01b03166000526001845260406000209060018060a01b0316600052602052604060002090565b54166040519015158152f35b346103e35760203660031901126103e3576004356001600160401b038082116103e357366023830112156103e35781600401359081116103e35760246005923660248460051b830101116103e357600093338552600f60205260ff6040862054168015612920575b61285090612cab565b845b84811061285d578580f35b8084600192841b85010135612871816103d2565b6001600160a01b0381166000908152600d6020526040902061289b9061289690610db1565b613bab565b6128c56128c06117db610db18460018060a01b0316600052600e602052604060002090565b613bf0565b6001600160a01b0381166000908152600e602052604090206128e690611ab2565b6128ef81613317565b828060a01b03167f4f783c179409b4127238bc9c990bc99b9a651666a0d20b51d6c42849eb88466d8880a201612852565b506005546001600160a01b03163314612847565b346103e35760a03660031901126103e357600435612951816103d2565b60243561295d816103d2565b6084356001600160401b0381116103e35761297c903690600401610581565b906001600160a01b03838116903382141580612a35575b612a0e578216156129f557156129dd5761108e926129d56064356044359160405192600184526020840152604083019160018352606084015260808301604052565b9290916147fb565b604051626a0d4560e21b815260006004820152602490fd5b604051632bfa23e760e11b815260006004820152602490fd5b60405163711bec9160e11b81523360048201526001600160a01b0386166024820152604490fd5b50600082815260016020908152604080832033845290915290205460ff1615612993565b346103e35760203660031901126103e357600435612a76816103d2565b612a7e613c3c565b6001600160a01b03908116908115612acd57600554826001600160601b0360a01b821617600555167f8be0079c531659141344cd1fd0a4f28419497f9722a3daafe3b4186f6b6457e0600080a3005b604051631e4fbdf760e01b815260006004820152602490fd5b90600a612af1610546565b8354815260018401546001600160a01b0316602082015292612b156002820161082b565b6040850152612b266003820161082b565b6060850152612b376004820161082b565b6080850152612b486005820161082b565b60a0850152600681015460c0850152600781015460e08501526008810154610100850152612b7d61126a600983015460ff1690565b0154610140830152565b600b5481111580612c63575b612ba1575b50610927610765565b8060005260146020526040600020612bb7610546565b815481526001820154612bd2906001600160a01b03166111db565b612bde6002830161082b565b6040820152612bef6003830161082b565b6060820152610140600a612c056004850161082b565b9360808401948552612c196005820161082b565b60a0850152600681015460c0850152600781015460e08501526008810154610100850152612c4e61126a600983015460ff1690565b0154910152515115612b985761092790613c7f565b50801515612b93565b15612c7357565b60405162461bcd60e51b815260206004820152601060248201526f125b9d985b1a59081d1bdad95b88125160821b6044820152606490fd5b15612cb257565b60405162461bcd60e51b815260206004820152600c60248201526b2737ba1030b71030b236b4b760a11b6044820152606490fd5b15612ced57565b60405162461bcd60e51b815260206004820152601e60248201527f43616e6e6f742072656d6f7665206f776e65722066726f6d2061646d696e00006044820152606490fd5b15612d3957565b60405162461bcd60e51b815260206004820152602160248201527f43616e6e6f742072656d6f766520796f757273656c662066726f6d2061646d696044820152603760f91b6064820152608490fd5b634e487b7160e01b600052601160045260246000fd5b600019810191908211612dad57565b612d88565b600119810191908211612dad57565b91908203918211612dad57565b6012548015612e225760001981019080821015611610577fbb8a6a4669ba250d26cd7a459eca9d215f8307e33aebe50379bc5a3617ec3443906012600052016001600160601b0360a01b8154169055601255565b634e487b7160e01b600052603160045260246000fd5b6011548015612e225760001981019080821015611610577f31ecc21a745e3968a04e9570e4425bc18fa8019c68028196b546d1669c200c67906011600052016001600160601b0360a01b8154169055601155565b80518210156116105760209160051b010190565b91909180518351808203612f3d575050805190612ed5612ebf83610f6c565b92612ecd6040519485610525565b808452610f6c565b60209190601f1901368484013760005b8151811015612f3557600581901b8281018401519087018401516000908152602081815260408083206001600160a01b039094168352929052205460019190612f2e8287612e8c565b5201612ee5565b509193505050565b604051635b05999160e01b815260048101919091526024810191909152604490fd5b15612f6657565b60405162461bcd60e51b815260206004820152600e60248201526d139bdd081d1a1948185c9d1a5cdd60921b6044820152606490fd5b15612fa357565b60405162461bcd60e51b815260206004820152600f60248201526e139bdd081dda1a5d195b1a5cdd1959608a1b6044820152606490fd5b15612fe157565b60405162461bcd60e51b8152602060048201526015602482015274417274776f726b206973206e6f742061637469766560581b6044820152606490fd5b1561302557565b60405162461bcd60e51b815260206004820152601d60248201527f416d6f756e74206d7573742062652067726561746572207468616e20300000006044820152606490fd5b9060028201809211612dad57565b9060038201809211612dad57565b9060018201809211612dad57565b6030019081603011612dad57565b90600c8201809211612dad57565b6002019081600211612dad57565b6003019081600311612dad57565b91908201809211612dad57565b156130e057565b60405162461bcd60e51b815260206004820152601260248201527145786365656473206d617820737570706c7960701b6044820152606490fd5b906103e891828102928184041490151715612dad57565b600281901b91906001600160fe1b03811603612dad57565b908160011b9180830460021490151715612dad57565b81810292918115918404141715612dad57565b1561317957565b60405162461bcd60e51b8152602060048201526014602482015273125b9cdd59999a58da595b9d081c185e5b595b9d60621b6044820152606490fd5b60405190602082018281106001600160401b038211176104ea5760405260008252565b8054600160401b8110156104ea576131f59160018201815561163a565b819291549060031b91821b91600019901b1916179055565b6040513d6000823e3d90fd5b1561322057565b60405162461bcd60e51b8152602060048201526013602482015272105b1c9958591e481dda1a5d195b1a5cdd1959606a1b6044820152606490fd5b60105490600160401b8210156104ea5760018201806010558210156116105760106000527f1b6847dc741a1b0cd08d278845f9d819d87b734759afb55fe2de5cb82a9ae67290910180546001600160a01b0319166001600160a01b03909216919091179055565b60125490600160401b8210156104ea576001820180601255821015611610576012600052600080516020614faa83398151915290910180546001600160a01b0319166001600160a01b03909216919091179055565b60115490600160401b8210156104ea576001820180601155821015611610576011600052600080516020614fca83398151915290910180546001600160a01b0319166001600160a01b03909216919091179055565b1561337357565b60405162461bcd60e51b815260206004820152601060248201526f20b63932b0b23c9030b71030b236b4b760811b6044820152606490fd5b156133b257565b60405162461bcd60e51b815260206004820152600f60248201526e496e76616c6964206164647265737360881b6044820152606490fd5b156133f057565b60405162461bcd60e51b815260206004820152601760248201527f41646472657373206e6f742077686974656c69737465640000000000000000006044820152606490fd5b1561343c57565b60405162461bcd60e51b815260206004820152602260248201527f43616e6e6f742072656d6f7665206f776e65722066726f6d2077686974656c696044820152611cdd60f21b6064820152608490fd5b818110613497575050565b6000815560010161348c565b90601f82116134b0575050565b6107a49160026000527f405787fa12a823e0f2b7631cc41b3ba8828b3321ca811111fa75cd3aa3bb5ace906020601f840160051c830193106134fa575b601f0160051c019061348c565b90915081906134ed565b9190601f811161351357505050565b6107a4926000526020600020906020601f840160051c830193106134fa57601f0160051c019061348c565b91909182516001600160401b0381116104ea576135658161355f845461072b565b84613504565b602080601f831160011461359c575081906135989394956000926106575750508160011b916000199060031b1c19161790565b9055565b90601f198316956135b285600052602060002090565b926000905b8882106135ef575050836001959697106135d6575b505050811b019055565b015160001960f88460031b161c191690553880806135cc565b806001859682949686015181550195019301906135b7565b916136309061362261092795936060865260608601906108f1565b9084820360208601526108f1565b9160408184039101526108f1565b936137ee7f4ddc8815460a355e3d190e794ec142559a99d61ae53cf57df333c9286e76c5489396929661366f6140e5565b613677614103565b60ff600c5416613813575b61368d84151561384e565b613699875115156138a4565b6136a5815115156138e8565b6136b461400082511115613934565b6136c086511515613980565b6136d16136cc8761429c565b6139cc565b6136e46136df600b54613a0d565b600b55565b613757600b549889976136f5610546565b898152336020820152918a6040840152606083015283608083015260a08201528460c08201528560e08201526000610100820152613737610120820160019052565b42610140820152613752886000526014602052604060002090565b613ac1565b61378e3361376f886000526015602052604060002090565b80546001600160a01b0319166001600160a01b03909216919091179055565b3360009081526016602052604090206137a89087906131d8565b336000908152601360205260409020600390600581016137cc6117db825460ff1690565b6137fb575b50016137dd8154613a0d565b905551604051938493339885613b83565b0390a36109276001600655565b805460ff1916600117905560006004820155386137d1565b33600052600e60205260ff60406000205416801561383a575b61383590612f9c565b613682565b506005546001600160a01b0316331461382c565b1561385557565b60405162461bcd60e51b815260206004820152602160248201527f4d617820737570706c79206d7573742062652067726561746572207468616e206044820152600360fc1b6064820152608490fd5b156138ab57565b60405162461bcd60e51b81526020600482015260156024820152745469746c652063616e6e6f7420626520656d70747960581b6044820152606490fd5b156138ef57565b60405162461bcd60e51b815260206004820152601a60248201527f496d61676520646174612063616e6e6f7420626520656d7074790000000000006044820152606490fd5b1561393b57565b60405162461bcd60e51b815260206004820152601a60248201527f496d61676520746f6f206c61726765202831364b42206d6178290000000000006044820152606490fd5b1561398757565b60405162461bcd60e51b815260206004820152601a60248201527f496d61676520747970652063616e6e6f7420626520656d7074790000000000006044820152606490fd5b156139d357565b60405162461bcd60e51b8152602060048201526012602482015271496e76616c696420696d616765207479706560701b6044820152606490fd5b6000198114612dad5760010190565b91909182516001600160401b0381116104ea57613a3d8161355f845461072b565b602080601f8311600114613a70575081906135989394956000926106575750508160011b916000199060031b1c19161790565b90601f19831695613a8685600052602060002090565b926000905b888210613aa9575050836001959697106135d657505050811b019055565b80600185968294968601518155019501930190613a8b565b8151815560208201516001820180546001600160a01b0319166001600160a01b0390921691909117905590600a9061014090613b0460408201516002860161353e565b613b1560608201516003860161353e565b613b26608082015160048601613a1c565b613b3760a08201516005860161353e565b60c0810151600685015560e081015160078501556101008101516008850155613b7c613b67610120830151151590565b600986019060ff801983541691151516179055565b0151910155565b9092613b9c6060939695946080845260808401906108f1565b95602083015260408201520152565b15613bb257565b60405162461bcd60e51b81526020600482015260166024820152751059191c995cdcc81b9bdd081a5b9d195c995cdd195960521b6044820152606490fd5b15613bf757565b60405162461bcd60e51b815260206004820152601b60248201527f4164647265737320616c72656164792077686974656c697374656400000000006044820152606490fd5b6005546001600160a01b03163303613c5057565b60405163118cdaa760e01b8152336004820152602490fd5b90613c7b602092828151948592016108ce565b0190565b613c93816000526014602052604060002090565b613c9c90612ae6565b60a0810191825160808301928351613cb39061445c565b6040516a646174613a696d6167652f60a81b602082015292839190602b8301613cdb91613c68565b670ed8985cd94d8d0b60c21b8152600801613cf591613c68565b0394601f19958681018452613d0a9084610525565b604082015193613d1990614653565b9460608301519360e0840151613d2e90614653565b610100850151613d3d90614653565b9160c0860151613d4c90614653565b935151613d5890614653565b94516020909601516001600160a01b0316613d729061471f565b604051683d913730b6b2911d1160b91b6020820152998a9991989160298b01613d9a91613c68565b61202360f01b8152600201613dae91613c68565b61088b60f21b81526002016e113232b9b1b934b83a34b7b7111d1160891b8152600f01613dda91613c68565b61088b60f21b8152600201681134b6b0b3b2911d1160b91b8152600901613e0091613c68565b61088b60f21b81526002016d2261747472696275746573223a5b60901b8152600e017f7b2274726169745f74797065223a22546f6b656e205374616e64617264222c228152721d985b1d59488e88915490cb4c4c4d4d489f4b606a1b60208201526033017f7b2274726169745f74797065223a2253746f72616765222c2276616c7565223a81526b0893db8b58da185a5b889f4b60a21b6020820152602c017f7b2274726169745f74797065223a224d617820537570706c79222c2276616c7581526232911d60e91b6020820152602301613eda91613c68565b611f4b60f21b81526002017f7b2274726169745f74797065223a2243757272656e7420537570706c79222c228152663b30b63ab2911d60c91b6020820152602701613f2491613c68565b611f4b60f21b81526002017f7b2274726169745f74797065223a225072696365202857656929222c2276616c8152633ab2911d60e11b6020820152602401613f6b91613c68565b611f4b60f21b81526002017f7b2274726169745f74797065223a2246696c652053697a65222c2276616c7565815261111d60f11b6020820152602201613fb091613c68565b611f4b60f21b81526002017f7b2274726169745f74797065223a2246696c652054797065222c2276616c7565815262111d1160e91b6020820152602301613ff691613c68565b62089f4b60ea1b81526003017f7b2274726169745f74797065223a2243726561746f72222c2276616c7565223a8152601160f91b602082015260210161403b91613c68565b61227d60f01b815260020161174b60f21b81526002017f2270726f70657274696573223a7b2263617465676f7279223a22696d616765228152617d7d60f01b60208201526022010382810182526140929082610525565b61409b9061445c565b6040517f646174613a6170706c69636174696f6e2f6a736f6e3b6261736536342c000000602082015291908290603d82016140d591613c68565b0390810182526109279082610525565b60ff600754166140f157565b60405163d93c066560e01b8152600490fd5b600260065414614114576002600655565b604051633ee5aeb560e01b8152600490fd5b93916001600160a01b038516156129f55761415e60405192600184526020840152604083019160018352606084015260808301604052565b909161416b828487614cd0565b600094855b84518710156141be576141b66001918860051b906141a4602080848a010151938a0101516000526003602052604060002090565b6141af8382546130cc565b90556130cc565b960195614170565b6141d89195949296506141d3906004546130cc565b600455565b80516001036141f657906020806107a4959301519101519133614c3f565b6107a49333614a45565b6040519061420d826104ef565b6003825262706e6760e81b6020830152565b6040519061422c826104ef565b600382526233b4b360e91b6020830152565b6040519061424b826104ef565b60048252630776562760e41b6020830152565b6040519061426b826104ef565b600382526273766760e81b6020830152565b6040519061428a826104ef565b600382526207a69760ec1b6020830152565b6142c26040516142ab816104ef565b60048152636a70656760e01b60208201528261492e565b908115614355575b8115614342575b811561432f575b811561431c575b8115614303575b81156142f0575090565b61092791506142fd61427d565b9061492e565b905061431661431061425e565b8261492e565b906142e6565b905061432961431061423e565b906142df565b905061433c61431061421f565b906142d8565b905061434f614310614200565b906142d1565b905061437c604051614366816104ef565b60038152626a706760e81b60208201528261492e565b906142ca565b6040519061438f8261050a565b604082527f6768696a6b6c6d6e6f707172737475767778797a303132333435363738392b2f6040837f4142434445464748494a4b4c4d4e4f505152535455565758595a61626364656660208201520152565b604051906143ee8261050a565b602a82526040366020840137565b9061440682610566565b6144136040519182610525565b8281528092614424601f1991610566565b0190602036910137565b8051156116105760200190565b8051600110156116105760210190565b908151811015611610570160200190565b80511561464a5761446b614382565b9061448861448361447c835161306a565b6003900490565b613131565b91614492836143fc565b91600094855b82518110156145ed57806145be6144be6144d86144d26144cc6144be6145dc978a61444b565b516001600160f81b03191690565b60f81c90565b60ff1690565b6144e184613086565b8751116000906000146145e7575061450a6144d26144cc6144be61450488613086565b8b61444b565b905b6145158561306a565b8851116000906000146145e1575061453e6144d26144cc6144be6145388961306a565b8c61444b565b915b60081b9060101b1717603f9061455e6144be838360121c168b61444b565b9b61457661456b82613a0d565b9d60001a918c61444b565b536145896144be8383600c1c168b61444b565b9b61459661456b82613a0d565b536145a96144be838360061c168b61444b565b9b6145b661456b82613a0d565b53168761444b565b976145d66145cb82613a0d565b9960001a918861444b565b53613078565b614498565b91614540565b9061450c565b50945060039150929192510660018114600014614631575061462d61462782603d61462161461b8296612d9e565b8761444b565b53612db2565b8361444b565b5390565b60021461463c575090565b61462d614627603d92612d9e565b506109276131b5565b80156146d5576000818181805b6146bd575061466e816143fc565b935b61467a5750505090565b61468390612d9e565b90600a906146a86146986144d2848406613094565b60f81b6001600160f81b03191690565b841a6146b4848761444b565b53049081614670565b91506146ca600a91613a0d565b910480849291614660565b506040516146e2816104ef565b60018152600360fc1b602082015290565b60405190614700826104ef565b601082526f181899199a1a9b1b9c1cb0b131b232b360811b6020830152565b6001600160a01b03166147306146f3565b6147386143e1565b9160306147448461442e565b5360786147508461443b565b5360009060005b60148110614766575050505090565b61476f816130a2565b9060209182811015611610576147936144be8592600f9384911a60041c168861444b565b6147b16147a76147a285613149565b6130b0565b91871a918961444b565b536147bb826130a2565b92831015611610576144be6147d691856001951a168761444b565b6147f46147ea6147e584613149565b6130be565b91861a918861444b565b5301614757565b9193929061480b82868386614e02565b6001600160a01b03838116156148ca575b81161580614869575b15614832575b5050505050565b84516001036148585760208061484e9601519201519233614c74565b388080808061482b565b61486494919233614b40565b61484e565b94936000939091845b86518610156148b2576001908660051b906148a3602080848a010151938b0101516000526003602052604060002090565b82815403905501950194614872565b6148c59193969792955060045403600455565b614825565b959192600094916000955b8751871015614911576149096001918860051b906141a4602080848c010151938d0101516000526003602052604060002090565b9601956148d5565b614929919396506141d39098929594986004546130cc565b61481c565b906040519160209261495c84828161494f81830196878151938492016108ce565b8101038084520182610525565b5190209161497c60405191828161494f81830196878151938492016108ce565b5190201490565b908160209103126103e3575161092781610439565b926149c761092795936149d59360018060a01b031686526000602087015260a0604087015260a086019061145b565b90848203606086015261145b565b9160808184039101526108f1565b939061092795936149c7916149d59460018060a01b03809216885216602087015260a0604087015260a086019061145b565b3d15614a40573d90614a2682610566565b91614a346040519384610525565b82523d6000602084013e565b606090565b9293919093843b614a57575050505050565b602091614a7a604051948593849363bc197c8160e01b9889865260048601614998565b038160006001600160a01b0388165af160009181614b0f575b50614ad25782614aa1614a15565b8051919082614acb57604051632bfa23e760e11b81526001600160a01b0383166004820152602490fd5b9050602001fd5b6001600160e01b03191603614aec5750388080808061482b565b604051632bfa23e760e11b81526001600160a01b03919091166004820152602490fd5b614b3291925060203d602011614b39575b614b2a8183610525565b810190614983565b9038614a93565b503d614b20565b939290949194853b614b55575b505050505050565b614b78602093604051958694859463bc197c8160e01b998a8752600487016149e3565b038160006001600160a01b0388165af160009181614bba575b50614b9f5782614aa1614a15565b6001600160e01b03191603614aec5750388080808080614b4d565b614bd491925060203d602011614b3957614b2a8183610525565b9038614b91565b909260a0926109279594600180861b03168352600060208401526040830152606082015281608082015201906108f1565b919261092795949160a094600180871b0380921685521660208401526040830152606082015281608082015201906108f1565b9293919093843b614c51575050505050565b602091614a7a604051948593849363f23a6e6160e01b9889865260048601614bdb565b939290949194853b614c8857505050505050565b614b78602093604051958694859463f23a6e6160e01b998a875260048701614c0c565b9091614cc26109279360408452604084019061145b565b91602081840391015261145b565b9190918251825190818103612f3d57505060005b8351811015614d6257600581901b84810160209081015191850101516001929184906001600160a01b038216614d1e575b50505001614ce4565b614d5891614d39614d50926000526000602052604060002090565b9060018060a01b0316600052602052604060002090565b9182546130cc565b9055388381614d15565b50916001815114600014614dc3576020908101519181015160408051938452918301526001600160a01b039092169160009133917fc3d58168c5ae7397731d063d5bbf3d657854427343f4c083240f7aacaa2d0f629190819081015b0390a4565b7f4a39dc06d4c0dbc64b70af90fd698a233a518aa5d07e595d983b8c0526c8f7fb614dbe6000939460405191829160018060a01b031696339583614cab565b9392918051835190818103612f3d57505060005b8151811015614f0457600581901b82810160209081015191860101516001600160a01b0392918590898516614e7e575b6001948216614e59575b50505001614e16565b614e7491614d39614d50926000526000602052604060002090565b9055388481614e50565b9192939050614e9b89614d39846000526000602052604060002090565b54838110614ecd5791869184600196959403614ec58c614d39856000526000602052604060002090565b559450614e46565b6040516303dee4c560e01b81526001600160a01b038b16600482015260248101919091526044810184905260648101839052608490fd5b508051939493919291600103614f66576020908101519181015160408051938452918301526001600160a01b03928316939092169133917fc3d58168c5ae7397731d063d5bbf3d657854427343f4c083240f7aacaa2d0f629181908101614dbe565b6040516001600160a01b03938416949093169233927f4a39dc06d4c0dbc64b70af90fd698a233a518aa5d07e595d983b8c0526c8f7fb928291614dbe9183614cab56febb8a6a4669ba250d26cd7a459eca9d215f8307e33aebe50379bc5a3617ec344431ecc21a745e3968a04e9570e4425bc18fa8019c68028196b546d1669c200c68a2646970667358221220e82de3225bfa9bfec618e58590581b8acbf27172597229bf6a8199079532ba0764736f6c63430008180033","opcodes":"PUSH1 0x80 CALLVALUE PUSH3 0x30B JUMPI PUSH1 0x1F PUSH3 0x54BA CODESIZE DUP2 SWAP1 SUB SWAP2 DUP3 ADD PUSH1 0x1F NOT AND DUP4 ADD SWAP3 SWAP2 PUSH1 0x1 PUSH1 0x1 PUSH1 0x40 SHL SUB SWAP2 SWAP1 DUP3 DUP6 GT DUP5 DUP7 LT OR PUSH3 0x2F5 JUMPI DUP1 DUP5 SWAP3 PUSH1 0x40 SWAP7 DUP8 MSTORE DUP4 CODECOPY PUSH1 0x20 SWAP4 DUP5 SWAP2 DUP2 ADD SUB SLT PUSH3 0x30B JUMPI MLOAD PUSH1 0x1 PUSH1 0x1 PUSH1 0xA0 SHL SUB SWAP3 DUP4 DUP3 AND SWAP3 SWAP2 DUP4 SWAP1 SUB PUSH3 0x30B JUMPI DUP5 MLOAD DUP2 DUP2 ADD DUP2 DUP2 LT DUP5 DUP3 GT OR PUSH3 0x2F5 JUMPI DUP7 MSTORE PUSH3 0x84 PUSH1 0x0 SWAP2 DUP3 DUP2 MSTORE PUSH3 0x366 JUMP JUMPDEST DUP4 ISZERO PUSH3 0x2DE JUMPI PUSH1 0x5 DUP1 SLOAD PUSH1 0x1 PUSH1 0x1 PUSH1 0xA0 SHL SUB NOT DUP1 DUP3 AND DUP8 OR SWAP1 SWAP3 SSTORE SWAP1 SWAP6 DUP6 SWAP2 AND PUSH32 0x8BE0079C531659141344CD1FD0A4F28419497F9722A3DAAFE3B4186F6B6457E0 DUP4 DUP1 LOG3 PUSH1 0x1 SWAP3 DUP4 PUSH1 0x6 SSTORE PUSH3 0xDD PUSH1 0x8 SLOAD PUSH3 0x310 JUMP JUMPDEST PUSH1 0x1F DUP2 GT PUSH3 0x2BC JUMPI JUMPDEST POP PUSH32 0x5065726D616C696E6B0000000000000000000000000000000000000000000012 PUSH1 0x8 SSTORE PUSH1 0x9 SLOAD PUSH3 0x11A SWAP1 PUSH3 0x310 JUMP JUMPDEST PUSH1 0x1F DUP2 GT PUSH3 0x29A JUMPI JUMPDEST POP PUSH1 0xA PUSH5 0x504C494E4B PUSH1 0xD8 SHL ADD PUSH1 0x9 SSTORE PUSH1 0xFA PUSH1 0xA SSTORE DUP2 PUSH1 0xB SSTORE PUSH1 0xFF NOT SWAP1 DUP5 DUP3 PUSH1 0xC SLOAD AND OR PUSH1 0xC SSTORE DUP8 MLOAD SWAP1 PUSH1 0x60 DUP3 ADD SWAP1 DUP3 DUP3 LT SWAP1 DUP3 GT OR PUSH3 0x286 JUMPI DUP9 MSTORE PUSH1 0x2C DUP2 MSTORE PUSH32 0x68747470733A2F2F6170692E7065726D616C696E6B2E6172742F6D6574616461 DUP5 DUP3 ADD MSTORE PUSH12 0x3A3097BDB4B23E973539B7B7 PUSH1 0xA1 SHL DUP9 DUP3 ADD MSTORE PUSH3 0x1A9 SWAP1 PUSH3 0x366 JUMP JUMPDEST DUP5 DUP3 MSTORE PUSH1 0xF DUP4 MSTORE DUP7 DUP3 KECCAK256 DUP5 DUP3 DUP3 SLOAD AND OR SWAP1 SSTORE PUSH1 0xE DUP4 MSTORE DUP4 DUP8 DUP4 KECCAK256 SWAP2 DUP3 SLOAD AND OR SWAP1 SSTORE PUSH1 0x12 SLOAD SWAP3 PUSH9 0x10000000000000000 SWAP4 DUP5 DUP2 LT ISZERO PUSH3 0x272 JUMPI DUP2 DUP2 ADD DUP1 PUSH1 0x12 SSTORE DUP2 LT ISZERO PUSH3 0x25E JUMPI PUSH1 0x12 DUP4 MSTORE DUP4 DUP4 KECCAK256 ADD DUP6 DUP8 DUP3 SLOAD AND OR SWAP1 SSTORE PUSH1 0x11 SLOAD SWAP4 DUP5 LT ISZERO PUSH3 0x24A JUMPI DUP4 ADD DUP1 PUSH1 0x11 SSTORE DUP4 LT ISZERO PUSH3 0x236 JUMPI PUSH1 0x11 DUP2 MSTORE KECCAK256 ADD SWAP2 DUP3 SLOAD AND OR SWAP1 SSTORE MLOAD PUSH2 0x501F SWAP1 DUP2 PUSH3 0x49B DUP3 CODECOPY RETURN JUMPDEST PUSH4 0x4E487B71 PUSH1 0xE0 SHL DUP2 MSTORE PUSH1 0x32 PUSH1 0x4 MSTORE PUSH1 0x24 SWAP1 REVERT JUMPDEST PUSH4 0x4E487B71 PUSH1 0xE0 SHL DUP3 MSTORE PUSH1 0x41 PUSH1 0x4 MSTORE PUSH1 0x24 DUP3 REVERT JUMPDEST PUSH4 0x4E487B71 PUSH1 0xE0 SHL DUP4 MSTORE PUSH1 0x32 PUSH1 0x4 MSTORE PUSH1 0x24 DUP4 REVERT JUMPDEST PUSH4 0x4E487B71 PUSH1 0xE0 SHL DUP4 MSTORE PUSH1 0x41 PUSH1 0x4 MSTORE PUSH1 0x24 DUP4 REVERT JUMPDEST PUSH4 0x4E487B71 PUSH1 0xE0 SHL DUP5 MSTORE PUSH1 0x41 PUSH1 0x4 MSTORE PUSH1 0x24 DUP5 REVERT JUMPDEST PUSH1 0x9 DUP4 MSTORE DUP4 DUP4 KECCAK256 PUSH3 0x2B5 SWAP2 PUSH1 0x1F ADD PUSH1 0x5 SHR DUP2 ADD SWAP1 PUSH3 0x34D JUMP JUMPDEST CODESIZE PUSH3 0x124 JUMP JUMPDEST PUSH1 0x8 DUP4 MSTORE DUP4 DUP4 KECCAK256 PUSH3 0x2D7 SWAP2 PUSH1 0x1F ADD PUSH1 0x5 SHR DUP2 ADD SWAP1 PUSH3 0x34D JUMP JUMPDEST CODESIZE PUSH3 0xE7 JUMP JUMPDEST PUSH1 0x24 SWAP1 DUP7 MLOAD SWAP1 PUSH4 0x1E4FBDF7 PUSH1 0xE0 SHL DUP3 MSTORE PUSH1 0x4 DUP3 ADD MSTORE REVERT JUMPDEST PUSH4 0x4E487B71 PUSH1 0xE0 SHL PUSH1 0x0 MSTORE PUSH1 0x41 PUSH1 0x4 MSTORE PUSH1 0x24 PUSH1 0x0 REVERT JUMPDEST PUSH1 0x0 DUP1 REVERT JUMPDEST SWAP1 PUSH1 0x1 DUP3 DUP2 SHR SWAP3 AND DUP1 ISZERO PUSH3 0x342 JUMPI JUMPDEST PUSH1 0x20 DUP4 LT EQ PUSH3 0x32C JUMPI JUMP JUMPDEST PUSH4 0x4E487B71 PUSH1 0xE0 SHL PUSH1 0x0 MSTORE PUSH1 0x22 PUSH1 0x4 MSTORE PUSH1 0x24 PUSH1 0x0 REVERT JUMPDEST SWAP2 PUSH1 0x7F AND SWAP2 PUSH3 0x320 JUMP JUMPDEST DUP2 DUP2 LT PUSH3 0x359 JUMPI POP POP JUMP JUMPDEST PUSH1 0x0 DUP2 SSTORE PUSH1 0x1 ADD PUSH3 0x34D JUMP JUMPDEST DUP1 MLOAD SWAP1 SWAP2 SWAP1 PUSH1 0x1 PUSH1 0x1 PUSH1 0x40 SHL SUB DUP2 GT PUSH3 0x2F5 JUMPI PUSH3 0x387 PUSH1 0x2 SLOAD PUSH3 0x310 JUMP JUMPDEST PUSH1 0x1F DUP2 GT PUSH3 0x43B JUMPI JUMPDEST POP PUSH1 0x20 DUP1 PUSH1 0x1F DUP4 GT PUSH1 0x1 EQ PUSH3 0x3D1 JUMPI POP DUP2 SWAP3 SWAP4 PUSH1 0x0 SWAP3 PUSH3 0x3C5 JUMPI JUMPDEST POP POP DUP2 PUSH1 0x1 SHL SWAP2 PUSH1 0x0 NOT SWAP1 PUSH1 0x3 SHL SHR NOT AND OR PUSH1 0x2 SSTORE JUMP JUMPDEST ADD MLOAD SWAP1 POP CODESIZE DUP1 PUSH3 0x3AE JUMP JUMPDEST SWAP1 PUSH1 0x1F NOT DUP4 AND SWAP5 PUSH1 0x2 PUSH1 0x0 MSTORE PUSH1 0x20 PUSH1 0x0 KECCAK256 SWAP3 PUSH1 0x0 SWAP1 JUMPDEST DUP8 DUP3 LT PUSH3 0x422 JUMPI POP POP DUP4 PUSH1 0x1 SWAP6 SWAP7 LT PUSH3 0x408 JUMPI JUMPDEST POP POP POP DUP2 SHL ADD PUSH1 0x2 SSTORE JUMP JUMPDEST ADD MLOAD PUSH1 0x0 NOT PUSH1 0xF8 DUP5 PUSH1 0x3 SHL AND SHR NOT AND SWAP1 SSTORE CODESIZE DUP1 DUP1 PUSH3 0x3FD JUMP JUMPDEST DUP1 PUSH1 0x1 DUP6 SWAP7 DUP3 SWAP5 SWAP7 DUP7 ADD MLOAD DUP2 SSTORE ADD SWAP6 ADD SWAP4 ADD SWAP1 PUSH3 0x3E7 JUMP JUMPDEST PUSH1 0x2 PUSH1 0x0 MSTORE PUSH3 0x488 SWAP1 PUSH32 0x405787FA12A823E0F2B7631CC41B3BA8828B3321CA811111FA75CD3AA3BB5ACE PUSH1 0x1F DUP5 ADD PUSH1 0x5 SHR DUP2 ADD SWAP2 PUSH1 0x20 DUP6 LT PUSH3 0x48F JUMPI JUMPDEST PUSH1 0x1F ADD PUSH1 0x5 SHR ADD SWAP1 PUSH3 0x34D JUMP JUMPDEST CODESIZE PUSH3 0x391 JUMP JUMPDEST SWAP1 SWAP2 POP DUP2 SWAP1 PUSH3 0x47A JUMP INVALID PUSH1 0x80 PUSH1 0x40 MSTORE PUSH1 0x4 CALLDATASIZE LT ISZERO PUSH2 0x12 JUMPI PUSH1 0x0 DUP1 REVERT JUMPDEST PUSH1 0x0 CALLDATALOAD PUSH1 0xE0 SHR DUP1 PUSH3 0xFDD58E EQ PUSH2 0x3CD JUMPI DUP1 PUSH4 0x1FFC9A7 EQ PUSH2 0x3C8 JUMPI DUP1 PUSH4 0x2FE5305 EQ PUSH2 0x3C3 JUMPI DUP1 PUSH4 0x6C933D8 EQ PUSH2 0x391 JUMPI DUP1 PUSH4 0x6FDDE03 EQ PUSH2 0x3BE JUMPI DUP1 PUSH4 0xE89341C EQ PUSH2 0x3B9 JUMPI DUP1 PUSH4 0x12E8E2C3 EQ PUSH2 0x3B4 JUMPI DUP1 PUSH4 0x167DDF6E EQ PUSH2 0x3AF JUMPI DUP1 PUSH4 0x171212D5 EQ PUSH2 0x3AA JUMPI DUP1 PUSH4 0x1785F53C EQ PUSH2 0x3A5 JUMPI DUP1 PUSH4 0x18160DDD EQ PUSH2 0x3A0 JUMPI DUP1 PUSH4 0x184D69AB EQ PUSH2 0x35F JUMPI DUP1 PUSH4 0x24D7806C EQ PUSH2 0x373 JUMPI DUP1 PUSH4 0x2EB2C2D6 EQ PUSH2 0x39B JUMPI DUP1 PUSH4 0x35C2AAB9 EQ PUSH2 0x396 JUMPI DUP1 PUSH4 0x3998A681 EQ PUSH2 0x37D JUMPI DUP1 PUSH4 0x3AF32ABF EQ PUSH2 0x391 JUMPI DUP1 PUSH4 0x3B5221E2 EQ PUSH2 0x38C JUMPI DUP1 PUSH4 0x3F4BA83A EQ PUSH2 0x387 JUMPI DUP1 PUSH4 0x4B602673 EQ PUSH2 0x382 JUMPI DUP1 PUSH4 0x4BF56FD1 EQ PUSH2 0x341 JUMPI DUP1 PUSH4 0x4CF4BB06 EQ PUSH2 0x37D JUMPI DUP1 PUSH4 0x4E1273F4 EQ PUSH2 0x378 JUMPI DUP1 PUSH4 0x4ED38FAF EQ PUSH2 0x373 JUMPI DUP1 PUSH4 0x4F558E79 EQ PUSH2 0x36E JUMPI DUP1 PUSH4 0x5001257E EQ PUSH2 0x369 JUMPI DUP1 PUSH4 0x5024FD8C EQ PUSH2 0x364 JUMPI DUP1 PUSH4 0x51FB012D EQ PUSH2 0x35F JUMPI DUP1 PUSH4 0x552906CE EQ PUSH2 0x35A JUMPI DUP1 PUSH4 0x56189236 EQ PUSH2 0x355 JUMPI DUP1 PUSH4 0x5B42A8FE EQ PUSH2 0x350 JUMPI DUP1 PUSH4 0x5C975ABB EQ PUSH2 0x34B JUMPI DUP1 PUSH4 0x5F5FFF4D EQ PUSH2 0x346 JUMPI DUP1 PUSH4 0x62AFCF00 EQ PUSH2 0x341 JUMPI DUP1 PUSH4 0x63C770D8 EQ PUSH2 0x33C JUMPI DUP1 PUSH4 0x64DDFA29 EQ PUSH2 0x337 JUMPI DUP1 PUSH4 0x6D028027 EQ PUSH2 0x332 JUMPI DUP1 PUSH4 0x6E977223 EQ PUSH2 0x32D JUMPI DUP1 PUSH4 0x70480275 EQ PUSH2 0x328 JUMPI DUP1 PUSH4 0x715018A6 EQ PUSH2 0x323 JUMPI DUP1 PUSH4 0x7E15144B EQ PUSH2 0x31E JUMPI DUP1 PUSH4 0x8456CB59 EQ PUSH2 0x319 JUMPI DUP1 PUSH4 0x8AB1D681 EQ PUSH2 0x314 JUMPI DUP1 PUSH4 0x8DA5CB5B EQ PUSH2 0x30F JUMPI DUP1 PUSH4 0x8DC8B4DA EQ PUSH2 0x30A JUMPI DUP1 PUSH4 0x92A05FE7 EQ PUSH2 0x305 JUMPI DUP1 PUSH4 0x95D89B41 EQ PUSH2 0x300 JUMPI DUP1 PUSH4 0xA22CB465 EQ PUSH2 0x2FB JUMPI DUP1 PUSH4 0xB23CD1A6 EQ PUSH2 0x2F6 JUMPI DUP1 PUSH4 0xB3B30640 EQ PUSH2 0x2F1 JUMPI DUP1 PUSH4 0xBD85B039 EQ PUSH2 0x2EC JUMPI DUP1 PUSH4 0xC71959B4 EQ PUSH2 0x2E7 JUMPI DUP1 PUSH4 0xCC0AD6E7 EQ PUSH2 0x2E2 JUMPI DUP1 PUSH4 0xCDD78CFC EQ PUSH2 0x2DD JUMPI DUP1 PUSH4 0xD0B7830B EQ PUSH2 0x2D8 JUMPI DUP1 PUSH4 0xE084FFDA EQ PUSH2 0x2D3 JUMPI DUP1 PUSH4 0xE0F8B313 EQ PUSH2 0x2CE JUMPI DUP1 PUSH4 0xE985E9C5 EQ PUSH2 0x2C9 JUMPI DUP1 PUSH4 0xF0F4D0CB EQ PUSH2 0x2C4 JUMPI DUP1 PUSH4 0xF242432A EQ PUSH2 0x2BF JUMPI PUSH4 0xF2FDE38B EQ PUSH2 0x2BA JUMPI PUSH1 0x0 DUP1 REVERT JUMPDEST PUSH2 0x2A59 JUMP JUMPDEST PUSH2 0x2934 JUMP JUMPDEST PUSH2 0x27DF JUMP JUMPDEST PUSH2 0x2777 JUMP JUMPDEST PUSH2 0x26FC JUMP JUMPDEST PUSH2 0x26A1 JUMP JUMPDEST PUSH2 0x261E JUMP JUMPDEST PUSH2 0x2600 JUMP JUMPDEST PUSH2 0x2585 JUMP JUMPDEST PUSH2 0x24E5 JUMP JUMPDEST PUSH2 0x24B9 JUMP JUMPDEST PUSH2 0x240F JUMP JUMPDEST PUSH2 0x2316 JUMP JUMPDEST PUSH2 0x2256 JUMP JUMPDEST PUSH2 0x21AE JUMP JUMPDEST PUSH2 0x2160 JUMP JUMPDEST PUSH2 0x20DC JUMP JUMPDEST PUSH2 0x20B3 JUMP JUMPDEST PUSH2 0x1F74 JUMP JUMPDEST PUSH2 0x1F1A JUMP JUMPDEST PUSH2 0x1E8F JUMP JUMPDEST PUSH2 0x1E31 JUMP JUMPDEST PUSH2 0x1CFC JUMP JUMPDEST PUSH2 0x1CB3 JUMP JUMPDEST PUSH2 0x1C41 JUMP JUMPDEST PUSH2 0x1BC3 JUMP JUMPDEST PUSH2 0x1B35 JUMP JUMPDEST PUSH2 0x1419 JUMP JUMPDEST PUSH2 0x1A53 JUMP JUMPDEST PUSH2 0x1A30 JUMP JUMPDEST PUSH2 0x19D7 JUMP JUMPDEST PUSH2 0x19B9 JUMP JUMPDEST PUSH2 0x16AE JUMP JUMPDEST PUSH2 0xF07 JUMP JUMPDEST PUSH2 0x1652 JUMP JUMPDEST PUSH2 0x158A JUMP JUMPDEST PUSH2 0x155C JUMP JUMPDEST PUSH2 0xF2A JUMP JUMPDEST PUSH2 0x14A0 JUMP JUMPDEST PUSH2 0x1144 JUMP JUMPDEST PUSH2 0x1385 JUMP JUMPDEST PUSH2 0x1295 JUMP JUMPDEST PUSH2 0x1186 JUMP JUMPDEST PUSH2 0x6E9 JUMP JUMPDEST PUSH2 0x1110 JUMP JUMPDEST PUSH2 0xFE3 JUMP JUMPDEST PUSH2 0xEE9 JUMP JUMPDEST PUSH2 0xD50 JUMP JUMPDEST PUSH2 0xCD7 JUMP JUMPDEST PUSH2 0xB4D JUMP JUMPDEST PUSH2 0xA46 JUMP JUMPDEST PUSH2 0xA13 JUMP JUMPDEST PUSH2 0x92A JUMP JUMPDEST PUSH2 0x5C8 JUMP JUMPDEST PUSH2 0x44B JUMP JUMPDEST PUSH2 0x3E8 JUMP JUMPDEST PUSH1 0x1 PUSH1 0x1 PUSH1 0xA0 SHL SUB DUP2 AND SUB PUSH2 0x3E3 JUMPI JUMP JUMPDEST PUSH1 0x0 DUP1 REVERT JUMPDEST CALLVALUE PUSH2 0x3E3 JUMPI PUSH1 0x40 CALLDATASIZE PUSH1 0x3 NOT ADD SLT PUSH2 0x3E3 JUMPI PUSH1 0x20 PUSH2 0x430 PUSH1 0x4 CALLDATALOAD PUSH2 0x40A DUP2 PUSH2 0x3D2 JUMP JUMPDEST PUSH1 0x24 CALLDATALOAD PUSH1 0x0 MSTORE PUSH1 0x0 DUP4 MSTORE PUSH1 0x40 PUSH1 0x0 KECCAK256 SWAP1 PUSH1 0x1 DUP1 PUSH1 0xA0 SHL SUB AND PUSH1 0x0 MSTORE PUSH1 0x20 MSTORE PUSH1 0x40 PUSH1 0x0 KECCAK256 SWAP1 JUMP JUMPDEST SLOAD PUSH1 0x40 MLOAD SWAP1 DUP2 MSTORE RETURN JUMPDEST PUSH1 0x1 PUSH1 0x1 PUSH1 0xE0 SHL SUB NOT DUP2 AND SUB PUSH2 0x3E3 JUMPI JUMP JUMPDEST CALLVALUE PUSH2 0x3E3 JUMPI PUSH1 0x20 CALLDATASIZE PUSH1 0x3 NOT ADD SLT PUSH2 0x3E3 JUMPI PUSH1 0x20 PUSH1 0x4 CALLDATALOAD PUSH2 0x46A DUP2 PUSH2 0x439 JUMP JUMPDEST PUSH4 0xFFFFFFFF PUSH1 0xE0 SHL AND PUSH4 0x6CDB3D13 PUSH1 0xE1 SHL DUP2 EQ SWAP1 DUP2 ISZERO PUSH2 0x4A8 JUMPI JUMPDEST DUP2 ISZERO PUSH2 0x497 JUMPI JUMPDEST POP PUSH1 0x40 MLOAD SWAP1 ISZERO ISZERO DUP2 MSTORE RETURN JUMPDEST PUSH4 0x1FFC9A7 PUSH1 0xE0 SHL EQ SWAP1 POP CODESIZE PUSH2 0x48C JUMP JUMPDEST PUSH4 0x3A24D07 PUSH1 0xE2 SHL DUP2 EQ SWAP2 POP PUSH2 0x485 JUMP JUMPDEST PUSH4 0x4E487B71 PUSH1 0xE0 SHL PUSH1 0x0 MSTORE PUSH1 0x41 PUSH1 0x4 MSTORE PUSH1 0x24 PUSH1 0x0 REVERT JUMPDEST PUSH1 0xC0 DUP2 ADD SWAP1 DUP2 LT PUSH1 0x1 PUSH1 0x1 PUSH1 0x40 SHL SUB DUP3 GT OR PUSH2 0x4EA JUMPI PUSH1 0x40 MSTORE JUMP JUMPDEST PUSH2 0x4B9 JUMP JUMPDEST PUSH1 0x40 DUP2 ADD SWAP1 DUP2 LT PUSH1 0x1 PUSH1 0x1 PUSH1 0x40 SHL SUB DUP3 GT OR PUSH2 0x4EA JUMPI PUSH1 0x40 MSTORE JUMP JUMPDEST PUSH1 0x60 DUP2 ADD SWAP1 DUP2 LT PUSH1 0x1 PUSH1 0x1 PUSH1 0x40 SHL SUB DUP3 GT OR PUSH2 0x4EA JUMPI PUSH1 0x40 MSTORE JUMP JUMPDEST SWAP1 PUSH1 0x1F DUP1 NOT SWAP2 ADD AND DUP2 ADD SWAP1 DUP2 LT PUSH1 0x1 PUSH1 0x1 PUSH1 0x40 SHL SUB DUP3 GT OR PUSH2 0x4EA JUMPI PUSH1 0x40 MSTORE JUMP JUMPDEST PUSH1 0x40 MLOAD SWAP1 PUSH2 0x160 DUP3 ADD DUP3 DUP2 LT PUSH1 0x1 PUSH1 0x1 PUSH1 0x40 SHL SUB DUP3 GT OR PUSH2 0x4EA JUMPI PUSH1 0x40 MSTORE JUMP JUMPDEST PUSH1 0x1 PUSH1 0x1 PUSH1 0x40 SHL SUB DUP2 GT PUSH2 0x4EA JUMPI PUSH1 0x1F ADD PUSH1 0x1F NOT AND PUSH1 0x20 ADD SWAP1 JUMP JUMPDEST DUP2 PUSH1 0x1F DUP3 ADD SLT ISZERO PUSH2 0x3E3 JUMPI DUP1 CALLDATALOAD SWAP1 PUSH2 0x598 DUP3 PUSH2 0x566 JUMP JUMPDEST SWAP3 PUSH2 0x5A6 PUSH1 0x40 MLOAD SWAP5 DUP6 PUSH2 0x525 JUMP JUMPDEST DUP3 DUP5 MSTORE PUSH1 0x20 DUP4 DUP4 ADD ADD GT PUSH2 0x3E3 JUMPI DUP2 PUSH1 0x0 SWAP3 PUSH1 0x20 DUP1 SWAP4 ADD DUP4 DUP7 ADD CALLDATACOPY DUP4 ADD ADD MSTORE SWAP1 JUMP JUMPDEST CALLVALUE PUSH2 0x3E3 JUMPI PUSH1 0x20 DUP1 PUSH1 0x3 NOT CALLDATASIZE ADD SLT PUSH2 0x3E3 JUMPI PUSH1 0x1 PUSH1 0x1 PUSH1 0x40 SHL SUB PUSH1 0x4 CALLDATALOAD DUP2 DUP2 GT PUSH2 0x3E3 JUMPI PUSH2 0x5FA SWAP1 CALLDATASIZE SWAP1 PUSH1 0x4 ADD PUSH2 0x581 JUMP JUMPDEST SWAP2 PUSH2 0x603 PUSH2 0x3C3C JUMP JUMPDEST DUP3 MLOAD SWAP2 DUP3 GT PUSH2 0x4EA JUMPI PUSH2 0x620 DUP3 PUSH2 0x61B PUSH1 0x2 SLOAD PUSH2 0x72B JUMP JUMPDEST PUSH2 0x34A3 JUMP JUMPDEST PUSH1 0x20 SWAP1 PUSH1 0x1F DUP4 GT PUSH1 0x1 EQ PUSH2 0x662 JUMPI POP DUP2 SWAP1 PUSH2 0x652 SWAP4 PUSH1 0x0 SWAP3 PUSH2 0x657 JUMPI JUMPDEST POP POP DUP2 PUSH1 0x1 SHL SWAP2 PUSH1 0x0 NOT SWAP1 PUSH1 0x3 SHL SHR NOT AND OR SWAP1 JUMP JUMPDEST PUSH1 0x2 SSTORE STOP JUMPDEST ADD MLOAD SWAP1 POP CODESIZE DUP1 PUSH2 0x63D JUMP JUMPDEST SWAP1 PUSH1 0x1F NOT DUP4 AND SWAP4 PUSH2 0x695 PUSH1 0x2 PUSH1 0x0 MSTORE PUSH32 0x405787FA12A823E0F2B7631CC41B3BA8828B3321CA811111FA75CD3AA3BB5ACE SWAP1 JUMP JUMPDEST SWAP3 PUSH1 0x0 SWAP1 JUMPDEST DUP7 DUP3 LT PUSH2 0x6D1 JUMPI POP POP DUP4 PUSH1 0x1 SWAP6 LT PUSH2 0x6B8 JUMPI JUMPDEST POP POP POP DUP2 SHL ADD PUSH1 0x2 SSTORE STOP JUMPDEST ADD MLOAD PUSH1 0x0 NOT PUSH1 0xF8 DUP5 PUSH1 0x3 SHL AND SHR NOT AND SWAP1 SSTORE CODESIZE DUP1 DUP1 PUSH2 0x6AD JUMP JUMPDEST DUP1 PUSH1 0x1 DUP6 SWAP7 DUP3 SWAP5 SWAP7 DUP7 ADD MLOAD DUP2 SSTORE ADD SWAP6 ADD SWAP4 ADD SWAP1 PUSH2 0x69A JUMP JUMPDEST CALLVALUE PUSH2 0x3E3 JUMPI PUSH1 0x20 CALLDATASIZE PUSH1 0x3 NOT ADD SLT PUSH2 0x3E3 JUMPI PUSH1 0x4 CALLDATALOAD PUSH2 0x706 DUP2 PUSH2 0x3D2 JUMP JUMPDEST PUSH1 0x1 DUP1 PUSH1 0xA0 SHL SUB AND PUSH1 0x0 MSTORE PUSH1 0xE PUSH1 0x20 MSTORE PUSH1 0x20 PUSH1 0xFF PUSH1 0x40 PUSH1 0x0 KECCAK256 SLOAD AND PUSH1 0x40 MLOAD SWAP1 ISZERO ISZERO DUP2 MSTORE RETURN JUMPDEST SWAP1 PUSH1 0x1 DUP3 DUP2 SHR SWAP3 AND DUP1 ISZERO PUSH2 0x75B JUMPI JUMPDEST PUSH1 0x20 DUP4 LT EQ PUSH2 0x745 JUMPI JUMP JUMPDEST PUSH4 0x4E487B71 PUSH1 0xE0 SHL PUSH1 0x0 MSTORE PUSH1 0x22 PUSH1 0x4 MSTORE PUSH1 0x24 PUSH1 0x0 REVERT JUMPDEST SWAP2 PUSH1 0x7F AND SWAP2 PUSH2 0x73A JUMP JUMPDEST PUSH1 0x40 MLOAD SWAP1 PUSH1 0x0 DUP3 PUSH1 0x2 SLOAD SWAP2 PUSH2 0x779 DUP4 PUSH2 0x72B JUMP JUMPDEST DUP1 DUP4 MSTORE SWAP3 PUSH1 0x20 SWAP1 PUSH1 0x1 SWAP1 DUP2 DUP2 AND SWAP1 DUP2 ISZERO PUSH2 0x807 JUMPI POP PUSH1 0x1 EQ PUSH2 0x7A6 JUMPI JUMPDEST POP POP PUSH2 0x7A4 SWAP3 POP SUB DUP4 PUSH2 0x525 JUMP JUMPDEST JUMP JUMPDEST SWAP2 POP SWAP3 PUSH1 0x2 PUSH1 0x0 MSTORE PUSH32 0x405787FA12A823E0F2B7631CC41B3BA8828B3321CA811111FA75CD3AA3BB5ACE SWAP4 PUSH1 0x0 SWAP3 JUMPDEST DUP3 DUP5 LT PUSH2 0x7EF JUMPI POP PUSH2 0x7A4 SWAP5 POP POP POP DUP2 ADD PUSH1 0x20 ADD CODESIZE DUP1 PUSH2 0x796 JUMP JUMPDEST DUP6 SLOAD DUP9 DUP6 ADD DUP4 ADD MSTORE SWAP5 DUP6 ADD SWAP5 DUP8 SWAP5 POP SWAP3 DUP2 ADD SWAP3 PUSH2 0x7D4 JUMP JUMPDEST SWAP2 POP POP PUSH1 0x20 SWAP3 POP PUSH2 0x7A4 SWAP5 SWAP2 POP PUSH1 0xFF NOT AND DUP3 DUP5 ADD MSTORE ISZERO ISZERO PUSH1 0x5 SHL DUP3 ADD ADD CODESIZE DUP1 PUSH2 0x796 JUMP JUMPDEST SWAP1 PUSH1 0x40 MLOAD SWAP2 DUP3 PUSH1 0x0 DUP3 SLOAD PUSH2 0x83E DUP2 PUSH2 0x72B JUMP JUMPDEST SWAP1 DUP2 DUP5 MSTORE PUSH1 0x20 SWAP5 PUSH1 0x1 SWAP2 PUSH1 0x1 DUP2 AND SWAP1 DUP2 PUSH1 0x0 EQ PUSH2 0x8AC JUMPI POP PUSH1 0x1 EQ PUSH2 0x86D JUMPI JUMPDEST POP POP POP PUSH2 0x7A4 SWAP3 POP SUB DUP4 PUSH2 0x525 JUMP JUMPDEST PUSH1 0x0 SWAP1 DUP2 MSTORE DUP6 DUP2 KECCAK256 SWAP6 SWAP4 POP SWAP2 SWAP1 JUMPDEST DUP2 DUP4 LT PUSH2 0x894 JUMPI POP POP PUSH2 0x7A4 SWAP4 POP DUP3 ADD ADD CODESIZE DUP1 DUP1 PUSH2 0x85E JUMP JUMPDEST DUP6 SLOAD DUP9 DUP5 ADD DUP6 ADD MSTORE SWAP5 DUP6 ADD SWAP5 DUP8 SWAP5 POP SWAP2 DUP4 ADD SWAP2 PUSH2 0x87B JUMP JUMPDEST SWAP3 POP POP POP PUSH2 0x7A4 SWAP5 SWAP3 POP PUSH1 0xFF NOT AND DUP3 DUP5 ADD MSTORE ISZERO ISZERO PUSH1 0x5 SHL DUP3 ADD ADD CODESIZE DUP1 DUP1 PUSH2 0x85E JUMP JUMPDEST PUSH1 0x0 JUMPDEST DUP4 DUP2 LT PUSH2 0x8E1 JUMPI POP POP PUSH1 0x0 SWAP2 ADD MSTORE JUMP JUMPDEST DUP2 DUP2 ADD MLOAD DUP4 DUP3 ADD MSTORE PUSH1 0x20 ADD PUSH2 0x8D1 JUMP JUMPDEST SWAP1 PUSH1 0x20 SWAP2 PUSH2 0x90A DUP2 MLOAD DUP1 SWAP3 DUP2 DUP6 MSTORE DUP6 DUP1 DUP7 ADD SWAP2 ADD PUSH2 0x8CE JUMP JUMPDEST PUSH1 0x1F ADD PUSH1 0x1F NOT AND ADD ADD SWAP1 JUMP JUMPDEST SWAP1 PUSH1 0x20 PUSH2 0x927 SWAP3 DUP2 DUP2 MSTORE ADD SWAP1 PUSH2 0x8F1 JUMP JUMPDEST SWAP1 JUMP JUMPDEST CALLVALUE PUSH2 0x3E3 JUMPI PUSH1 0x0 DUP1 PUSH1 0x3 NOT CALLDATASIZE ADD SLT PUSH2 0xA10 JUMPI PUSH1 0x40 MLOAD SWAP1 DUP1 PUSH1 0x8 SLOAD SWAP1 PUSH2 0x94E DUP3 PUSH2 0x72B JUMP JUMPDEST DUP1 DUP6 MSTORE SWAP2 PUSH1 0x20 SWAP2 PUSH1 0x1 SWAP2 DUP3 DUP2 AND SWAP1 DUP2 ISZERO PUSH2 0x9E3 JUMPI POP PUSH1 0x1 EQ PUSH2 0x98B JUMPI JUMPDEST PUSH2 0x987 DUP7 PUSH2 0x97B DUP2 DUP9 SUB DUP3 PUSH2 0x525 JUMP JUMPDEST PUSH1 0x40 MLOAD SWAP2 DUP3 SWAP2 DUP3 PUSH2 0x916 JUMP JUMPDEST SUB SWAP1 RETURN JUMPDEST SWAP4 POP PUSH1 0x8 DUP5 MSTORE PUSH32 0xF3F7A9FE364FAAB93B216DA50A3214154F22A0A2B415B23A84C8169E8B636EE3 JUMPDEST DUP4 DUP6 LT PUSH2 0x9D0 JUMPI POP POP POP POP DUP2 ADD PUSH1 0x20 ADD PUSH2 0x97B DUP3 PUSH2 0x987 CODESIZE PUSH2 0x96B JUMP JUMPDEST DUP1 SLOAD DUP7 DUP7 ADD DUP5 ADD MSTORE SWAP4 DUP3 ADD SWAP4 DUP2 ADD PUSH2 0x9B3 JUMP JUMPDEST SWAP1 POP DUP7 SWAP6 POP PUSH2 0x987 SWAP7 SWAP4 POP PUSH1 0x20 SWAP3 POP PUSH2 0x97B SWAP5 SWAP2 POP PUSH1 0xFF NOT AND DUP3 DUP5 ADD MSTORE ISZERO ISZERO PUSH1 0x5 SHL DUP3 ADD ADD SWAP3 SWAP4 CODESIZE PUSH2 0x96B JUMP JUMPDEST DUP1 REVERT JUMPDEST CALLVALUE PUSH2 0x3E3 JUMPI PUSH1 0x20 CALLDATASIZE PUSH1 0x3 NOT ADD SLT PUSH2 0x3E3 JUMPI PUSH2 0x987 PUSH2 0xA32 PUSH1 0x4 CALLDATALOAD PUSH2 0x2B87 JUMP JUMPDEST PUSH1 0x40 MLOAD SWAP2 DUP3 SWAP2 PUSH1 0x20 DUP4 MSTORE PUSH1 0x20 DUP4 ADD SWAP1 PUSH2 0x8F1 JUMP JUMPDEST CALLVALUE PUSH2 0x3E3 JUMPI PUSH1 0x20 CALLDATASIZE PUSH1 0x3 NOT ADD SLT PUSH2 0x3E3 JUMPI PUSH1 0x4 CALLDATALOAD PUSH2 0xA62 PUSH2 0x3C3C JUMP JUMPDEST PUSH2 0x3E8 DUP2 GT PUSH2 0xAA8 JUMPI PUSH1 0xA DUP1 SLOAD SWAP1 DUP3 SWAP1 SSTORE PUSH1 0x40 DUP1 MLOAD SWAP2 DUP3 MSTORE PUSH1 0x20 DUP3 ADD SWAP3 SWAP1 SWAP3 MSTORE PUSH32 0xD347E206F25A89B917FC9482F1A2D294D749BAA4DC9BDE7FB495EE11FE491643 SWAP2 SWAP1 LOG1 STOP JUMPDEST PUSH1 0x40 MLOAD PUSH3 0x461BCD PUSH1 0xE5 SHL DUP2 MSTORE PUSH1 0x20 PUSH1 0x4 DUP3 ADD MSTORE PUSH1 0xC PUSH1 0x24 DUP3 ADD MSTORE PUSH12 0x8CCACA40E8DEDE40D0D2CED PUSH1 0xA3 SHL PUSH1 0x44 DUP3 ADD MSTORE PUSH1 0x64 SWAP1 REVERT JUMPDEST SWAP7 SWAP4 SWAP1 PUSH2 0x120 SWAP9 SWAP6 SWAP12 SWAP11 SWAP10 SWAP7 SWAP4 PUSH2 0xB10 PUSH2 0xB2C SWAP5 PUSH2 0xB1E SWAP4 PUSH2 0x140 SWAP1 PUSH1 0x1 DUP1 PUSH1 0xA0 SHL SUB AND DUP13 MSTORE DUP1 PUSH1 0x20 DUP14 ADD MSTORE DUP12 ADD SWAP1 PUSH2 0x8F1 JUMP JUMPDEST SWAP1 DUP10 DUP3 SUB PUSH1 0x40 DUP12 ADD MSTORE PUSH2 0x8F1 JUMP JUMPDEST SWAP1 DUP8 DUP3 SUB PUSH1 0x60 DUP10 ADD MSTORE PUSH2 0x8F1 JUMP JUMPDEST SWAP9 PUSH1 0x80 DUP7 ADD MSTORE PUSH1 0xA0 DUP6 ADD MSTORE PUSH1 0xC0 DUP5 ADD MSTORE PUSH1 0xE0 DUP4 ADD MSTORE ISZERO ISZERO PUSH2 0x100 DUP3 ADD MSTORE ADD MSTORE JUMP JUMPDEST CALLVALUE PUSH2 0x3E3 JUMPI PUSH1 0x20 CALLDATASIZE PUSH1 0x3 NOT ADD SLT PUSH2 0x3E3 JUMPI PUSH1 0x4 CALLDATALOAD PUSH1 0xB SLOAD DUP2 GT ISZERO DUP1 PUSH2 0xC7F JUMPI JUMPDEST PUSH2 0xB76 SWAP1 PUSH2 0x2C6C JUMP JUMPDEST PUSH1 0x0 MSTORE PUSH1 0x14 PUSH1 0x20 MSTORE PUSH1 0x40 PUSH1 0x0 KECCAK256 PUSH2 0xB8B PUSH2 0x546 JUMP JUMPDEST DUP2 SLOAD DUP2 MSTORE PUSH1 0x1 DUP3 ADD SLOAD PUSH1 0x1 PUSH1 0x1 PUSH1 0xA0 SHL SUB AND PUSH1 0x20 DUP3 ADD SWAP1 DUP2 MSTORE SWAP1 SWAP2 SWAP1 PUSH2 0x987 SWAP1 PUSH2 0x140 SWAP1 PUSH2 0xBBB PUSH1 0x2 DUP6 ADD PUSH2 0x82B JUMP JUMPDEST SWAP4 PUSH1 0x40 DUP7 ADD SWAP5 DUP6 MSTORE PUSH2 0xBCF PUSH1 0x3 DUP3 ADD PUSH2 0x82B JUMP JUMPDEST SWAP6 PUSH1 0x60 DUP2 ADD SWAP7 DUP8 MSTORE PUSH2 0xBE3 PUSH1 0x4 DUP4 ADD PUSH2 0x82B JUMP JUMPDEST SWAP3 PUSH1 0x80 DUP3 ADD SWAP4 DUP5 MSTORE PUSH2 0xBF7 PUSH1 0x5 DUP5 ADD PUSH2 0x82B JUMP JUMPDEST SWAP4 PUSH1 0xA0 DUP4 ADD SWAP5 DUP6 MSTORE PUSH1 0x6 DUP5 ADD SLOAD SWAP1 PUSH1 0xC0 DUP5 ADD SWAP2 DUP3 MSTORE PUSH2 0xC72 PUSH2 0xC5C PUSH1 0x7 DUP8 ADD SLOAD SWAP5 PUSH1 0xE0 DUP8 ADD SWAP6 DUP7 MSTORE PUSH1 0x8 DUP9 ADD SLOAD SWAP7 PUSH2 0x100 DUP2 ADD SWAP8 DUP9 MSTORE PUSH1 0xA PUSH2 0xC3D PUSH1 0x9 DUP12 ADD SLOAD PUSH1 0xFF AND SWAP1 JUMP JUMPDEST ISZERO ISZERO PUSH2 0x120 DUP4 ADD SWAP1 DUP2 MSTORE SWAP10 ADD SLOAD SWAP11 ADD DUP11 SWAP1 MSTORE MLOAD PUSH1 0x1 PUSH1 0x1 PUSH1 0xA0 SHL SUB AND SWAP1 JUMP JUMPDEST SWAP10 MLOAD SWAP11 MLOAD SWAP7 MLOAD SWAP2 MLOAD MLOAD SWAP3 MLOAD SWAP4 MLOAD SWAP5 MLOAD SWAP6 MLOAD ISZERO ISZERO SWAP1 JUMP JUMPDEST SWAP6 PUSH1 0x40 MLOAD SWAP11 DUP12 SWAP11 DUP12 PUSH2 0xADC JUMP JUMPDEST POP DUP1 ISZERO ISZERO PUSH2 0xB6D JUMP JUMPDEST SWAP5 SWAP2 SWAP3 PUSH2 0xCB7 PUSH1 0xA0 SWAP6 SWAP9 SWAP8 SWAP5 PUSH2 0xCA9 PUSH2 0xCC5 SWAP5 PUSH1 0xC0 DUP11 MSTORE PUSH1 0xC0 DUP11 ADD SWAP1 PUSH2 0x8F1 JUMP JUMPDEST SWAP1 DUP9 DUP3 SUB PUSH1 0x20 DUP11 ADD MSTORE PUSH2 0x8F1 JUMP JUMPDEST SWAP1 DUP7 DUP3 SUB PUSH1 0x40 DUP9 ADD MSTORE PUSH2 0x8F1 JUMP JUMPDEST SWAP6 PUSH1 0x60 DUP6 ADD MSTORE PUSH1 0x80 DUP5 ADD MSTORE ISZERO ISZERO SWAP2 ADD MSTORE JUMP JUMPDEST CALLVALUE PUSH2 0x3E3 JUMPI PUSH1 0x20 CALLDATASIZE PUSH1 0x3 NOT ADD SLT PUSH2 0x3E3 JUMPI PUSH1 0x4 CALLDATALOAD PUSH2 0xCF4 DUP2 PUSH2 0x3D2 JUMP JUMPDEST PUSH1 0x1 PUSH1 0x1 PUSH1 0xA0 SHL SUB AND PUSH1 0x0 SWAP1 DUP2 MSTORE PUSH1 0x13 PUSH1 0x20 MSTORE PUSH1 0x40 SWAP1 KECCAK256 PUSH2 0xD14 DUP2 PUSH2 0x82B JUMP JUMPDEST PUSH2 0x987 PUSH2 0xD23 PUSH1 0x1 DUP5 ADD PUSH2 0x82B JUMP JUMPDEST SWAP3 PUSH2 0xD30 PUSH1 0x2 DUP3 ADD PUSH2 0x82B JUMP JUMPDEST SWAP1 PUSH1 0x3 DUP2 ADD SLOAD PUSH1 0xFF PUSH1 0x5 PUSH1 0x4 DUP5 ADD SLOAD SWAP4 ADD SLOAD AND SWAP3 PUSH1 0x40 MLOAD SWAP7 DUP8 SWAP7 DUP8 PUSH2 0xC88 JUMP JUMPDEST CALLVALUE PUSH2 0x3E3 JUMPI PUSH1 0x20 CALLDATASIZE PUSH1 0x3 NOT ADD SLT PUSH2 0x3E3 JUMPI PUSH1 0x4 CALLDATALOAD PUSH2 0xD6D DUP2 PUSH2 0x3D2 JUMP JUMPDEST PUSH1 0x0 SWAP1 CALLER DUP3 MSTORE PUSH1 0xF PUSH1 0x20 MSTORE PUSH1 0xFF PUSH1 0x40 DUP4 KECCAK256 SLOAD AND DUP1 ISZERO PUSH2 0xED5 JUMPI JUMPDEST PUSH2 0xD90 SWAP1 PUSH2 0x2CAB JUMP JUMPDEST PUSH1 0x1 PUSH1 0x1 PUSH1 0xA0 SHL SUB DUP2 AND PUSH1 0x0 SWAP1 DUP2 MSTORE PUSH1 0xF PUSH1 0x20 MSTORE PUSH1 0x40 SWAP1 KECCAK256 PUSH2 0xDBD SWAP1 PUSH2 0xDB8 SWAP1 JUMPDEST SLOAD PUSH1 0xFF AND SWAP1 JUMP JUMPDEST PUSH2 0x2CAB JUMP JUMPDEST PUSH1 0x5 SLOAD PUSH1 0x1 PUSH1 0x1 PUSH1 0xA0 SHL SUB DUP3 DUP2 AND SWAP3 PUSH2 0xE11 SWAP3 PUSH2 0xE07 SWAP3 PUSH2 0xDE1 SWAP2 AND DUP6 EQ ISZERO PUSH2 0x2CE6 JUMP JUMPDEST PUSH2 0xDED CALLER DUP6 EQ ISZERO PUSH2 0x2D32 JUMP JUMPDEST PUSH1 0x1 PUSH1 0x1 PUSH1 0xA0 SHL SUB AND PUSH1 0x0 SWAP1 DUP2 MSTORE PUSH1 0xF PUSH1 0x20 MSTORE PUSH1 0x40 SWAP1 KECCAK256 SWAP1 JUMP JUMPDEST DUP1 SLOAD PUSH1 0xFF NOT AND SWAP1 SSTORE JUMP JUMPDEST DUP2 JUMPDEST PUSH1 0x12 SLOAD SWAP1 DUP2 DUP2 LT ISZERO PUSH2 0xECE JUMPI DUP3 PUSH2 0xE50 PUSH2 0xE44 PUSH2 0xE2F DUP5 PUSH2 0x15EB JUMP JUMPDEST SWAP1 SLOAD PUSH1 0x3 SWAP2 SWAP1 SWAP2 SHL SHR PUSH1 0x1 PUSH1 0x1 PUSH1 0xA0 SHL SUB AND SWAP1 JUMP JUMPDEST PUSH1 0x1 PUSH1 0x1 PUSH1 0xA0 SHL SUB AND SWAP1 JUMP JUMPDEST EQ PUSH2 0xE5F JUMPI PUSH1 0x1 SWAP2 POP ADD PUSH2 0xE13 JUMP JUMPDEST PUSH2 0xE7F PUSH2 0xE79 PUSH2 0xE2F PUSH2 0xE74 PUSH2 0xE9D SWAP6 PUSH2 0x2D9E JUMP JUMPDEST PUSH2 0x15EB JUMP JUMPDEST SWAP2 PUSH2 0x15EB JUMP JUMPDEST SWAP1 SWAP2 SWAP1 PUSH1 0x1 DUP1 PUSH1 0xA0 SHL SUB DUP1 DUP5 SLOAD SWAP3 PUSH1 0x3 SHL SWAP4 AND DUP4 SHL SWAP3 SHL NOT AND OR SWAP1 SSTORE JUMP JUMPDEST PUSH2 0xEA5 PUSH2 0x2DCE JUMP JUMPDEST CALLER SWAP1 PUSH32 0xDB9D5D31320DAF5BC7181D565B6DA4D12E30F0F4D5AA324A992426C14A1D19CE DUP4 DUP1 LOG3 DUP1 RETURN JUMPDEST POP POP PUSH2 0xEA5 JUMP JUMPDEST POP PUSH1 0x5 SLOAD PUSH1 0x1 PUSH1 0x1 PUSH1 0xA0 SHL SUB AND CALLER EQ PUSH2 0xD87 JUMP JUMPDEST CALLVALUE PUSH2 0x3E3 JUMPI PUSH1 0x0 CALLDATASIZE PUSH1 0x3 NOT ADD SLT PUSH2 0x3E3 JUMPI PUSH1 0x20 PUSH1 0x4 SLOAD PUSH1 0x40 MLOAD SWAP1 DUP2 MSTORE RETURN JUMPDEST CALLVALUE PUSH2 0x3E3 JUMPI PUSH1 0x0 CALLDATASIZE PUSH1 0x3 NOT ADD SLT PUSH2 0x3E3 JUMPI PUSH1 0x20 PUSH1 0xFF PUSH1 0xC SLOAD AND PUSH1 0x40 MLOAD SWAP1 ISZERO ISZERO DUP2 MSTORE RETURN JUMPDEST CALLVALUE PUSH2 0x3E3 JUMPI PUSH1 0x20 CALLDATASIZE PUSH1 0x3 NOT ADD SLT PUSH2 0x3E3 JUMPI PUSH1 0x4 CALLDATALOAD PUSH2 0xF47 DUP2 PUSH2 0x3D2 JUMP JUMPDEST PUSH1 0x1 DUP1 PUSH1 0xA0 SHL SUB AND PUSH1 0x0 MSTORE PUSH1 0xF PUSH1 0x20 MSTORE PUSH1 0x20 PUSH1 0xFF PUSH1 0x40 PUSH1 0x0 KECCAK256 SLOAD AND PUSH1 0x40 MLOAD SWAP1 ISZERO ISZERO DUP2 MSTORE RETURN JUMPDEST PUSH1 0x1 PUSH1 0x1 PUSH1 0x40 SHL SUB DUP2 GT PUSH2 0x4EA JUMPI PUSH1 0x5 SHL PUSH1 0x20 ADD SWAP1 JUMP JUMPDEST SWAP1 DUP1 PUSH1 0x1F DUP4 ADD SLT ISZERO PUSH2 0x3E3 JUMPI PUSH1 0x20 SWAP1 DUP3 CALLDATALOAD PUSH2 0xF9D DUP2 PUSH2 0xF6C JUMP JUMPDEST SWAP4 PUSH2 0xFAB PUSH1 0x40 MLOAD SWAP6 DUP7 PUSH2 0x525 JUMP JUMPDEST DUP2 DUP6 MSTORE PUSH1 0x20 DUP1 DUP7 ADD SWAP3 PUSH1 0x5 SHL DUP3 ADD ADD SWAP3 DUP4 GT PUSH2 0x3E3 JUMPI PUSH1 0x20 ADD SWAP1 JUMPDEST DUP3 DUP3 LT PUSH2 0xFD4 JUMPI POP POP POP POP SWAP1 JUMP JUMPDEST DUP2 CALLDATALOAD DUP2 MSTORE SWAP1 DUP4 ADD SWAP1 DUP4 ADD PUSH2 0xFC6 JUMP JUMPDEST CALLVALUE PUSH2 0x3E3 JUMPI PUSH1 0xA0 CALLDATASIZE PUSH1 0x3 NOT ADD SLT PUSH2 0x3E3 JUMPI PUSH1 0x4 DUP1 CALLDATALOAD PUSH2 0x1001 DUP2 PUSH2 0x3D2 JUMP JUMPDEST PUSH1 0x24 CALLDATALOAD PUSH2 0x100D DUP2 PUSH2 0x3D2 JUMP JUMPDEST PUSH1 0x1 PUSH1 0x1 PUSH1 0x40 SHL SUB SWAP1 PUSH1 0x44 CALLDATALOAD DUP3 DUP2 GT PUSH2 0x3E3 JUMPI PUSH2 0x102D SWAP1 CALLDATASIZE SWAP1 DUP7 ADD PUSH2 0xF83 JUMP JUMPDEST SWAP1 PUSH1 0x64 CALLDATALOAD DUP4 DUP2 GT PUSH2 0x3E3 JUMPI PUSH2 0x1045 SWAP1 CALLDATASIZE SWAP1 DUP8 ADD PUSH2 0xF83 JUMP JUMPDEST SWAP3 PUSH1 0x84 CALLDATALOAD SWAP1 DUP2 GT PUSH2 0x3E3 JUMPI PUSH2 0x105D SWAP1 CALLDATASIZE SWAP1 DUP8 ADD PUSH2 0x581 JUMP JUMPDEST SWAP4 PUSH1 0x1 PUSH1 0x1 PUSH1 0xA0 SHL SUB DUP1 DUP3 AND SWAP1 CALLER DUP3 EQ ISZERO DUP1 PUSH2 0x10EC JUMPI JUMPDEST PUSH2 0x10BF JUMPI DUP4 AND ISZERO PUSH2 0x10A7 JUMPI ISZERO PUSH2 0x1090 JUMPI PUSH2 0x108E SWAP6 POP PUSH2 0x47FB JUMP JUMPDEST STOP JUMPDEST PUSH1 0x40 MLOAD PUSH3 0x6A0D45 PUSH1 0xE2 SHL DUP2 MSTORE PUSH1 0x0 DUP2 DUP9 ADD MSTORE PUSH1 0x24 SWAP1 REVERT JUMPDEST PUSH1 0x40 MLOAD PUSH4 0x2BFA23E7 PUSH1 0xE1 SHL DUP2 MSTORE PUSH1 0x0 DUP2 DUP10 ADD MSTORE PUSH1 0x24 SWAP1 REVERT JUMPDEST PUSH1 0x40 DUP1 MLOAD PUSH4 0x711BEC91 PUSH1 0xE1 SHL DUP2 MSTORE CALLER DUP2 DUP12 ADD SWAP1 DUP2 MSTORE PUSH1 0x1 PUSH1 0x1 PUSH1 0xA0 SHL SUB DUP7 AND PUSH1 0x20 DUP3 ADD MSTORE SWAP1 SWAP2 DUP3 SWAP2 ADD SUB SWAP1 REVERT JUMPDEST POP PUSH1 0x0 DUP3 DUP2 MSTORE PUSH1 0x1 PUSH1 0x20 SWAP1 DUP2 MSTORE PUSH1 0x40 DUP1 DUP4 KECCAK256 CALLER DUP5 MSTORE SWAP1 SWAP2 MSTORE SWAP1 KECCAK256 SLOAD PUSH1 0xFF AND ISZERO PUSH2 0x1074 JUMP JUMPDEST CALLVALUE PUSH2 0x3E3 JUMPI PUSH1 0x20 CALLDATASIZE PUSH1 0x3 NOT ADD SLT PUSH2 0x3E3 JUMPI PUSH1 0x4 CALLDATALOAD PUSH1 0x0 MSTORE PUSH1 0x15 PUSH1 0x20 MSTORE PUSH1 0x20 PUSH1 0x1 DUP1 PUSH1 0xA0 SHL SUB PUSH1 0x40 PUSH1 0x0 KECCAK256 SLOAD AND PUSH1 0x40 MLOAD SWAP1 DUP2 MSTORE RETURN JUMPDEST CALLVALUE PUSH2 0x3E3 JUMPI PUSH1 0x0 CALLDATASIZE PUSH1 0x3 NOT ADD SLT PUSH2 0x3E3 JUMPI PUSH1 0x20 PUSH1 0x40 MLOAD PUSH2 0x3E8 DUP2 MSTORE RETURN JUMPDEST SWAP1 SWAP2 PUSH2 0x1178 PUSH2 0x927 SWAP4 PUSH1 0x40 DUP5 MSTORE PUSH1 0x40 DUP5 ADD SWAP1 PUSH2 0x8F1 JUMP JUMPDEST SWAP2 PUSH1 0x20 DUP2 DUP5 SUB SWAP2 ADD MSTORE PUSH2 0x8F1 JUMP JUMPDEST CALLVALUE PUSH2 0x3E3 JUMPI PUSH1 0x20 CALLDATASIZE PUSH1 0x3 NOT ADD SLT PUSH2 0x3E3 JUMPI PUSH1 0x4 CALLDATALOAD PUSH1 0xB SLOAD DUP2 GT ISZERO DUP1 PUSH2 0x128C JUMPI JUMPDEST PUSH2 0x11AF SWAP1 PUSH2 0x2C6C JUMP JUMPDEST PUSH1 0x0 MSTORE PUSH1 0x14 PUSH1 0x20 MSTORE PUSH1 0x40 PUSH1 0x0 KECCAK256 PUSH2 0x11C4 PUSH2 0x546 JUMP JUMPDEST DUP2 SLOAD DUP2 MSTORE PUSH1 0x1 DUP3 ADD SLOAD PUSH2 0x11EB SWAP1 PUSH1 0x1 PUSH1 0x1 PUSH1 0xA0 SHL SUB AND JUMPDEST PUSH1 0x1 PUSH1 0x1 PUSH1 0xA0 SHL SUB AND PUSH1 0x20 DUP4 ADD MSTORE JUMP JUMPDEST PUSH2 0x11F7 PUSH1 0x2 DUP4 ADD PUSH2 0x82B JUMP JUMPDEST PUSH1 0x40 DUP3 ADD MSTORE PUSH2 0x1208 PUSH1 0x3 DUP4 ADD PUSH2 0x82B JUMP JUMPDEST PUSH1 0x60 DUP3 ADD MSTORE PUSH2 0x1219 PUSH1 0x4 DUP4 ADD PUSH2 0x82B JUMP JUMPDEST SWAP1 PUSH1 0x80 DUP2 ADD SWAP2 DUP3 MSTORE PUSH2 0x140 PUSH1 0xA PUSH2 0x1232 PUSH1 0x5 DUP7 ADD PUSH2 0x82B JUMP JUMPDEST SWAP5 PUSH1 0xA0 DUP5 ADD SWAP6 DUP7 MSTORE PUSH1 0x6 DUP2 ADD SLOAD PUSH1 0xC0 DUP6 ADD MSTORE PUSH1 0x7 DUP2 ADD SLOAD PUSH1 0xE0 DUP6 ADD MSTORE PUSH1 0x8 DUP2 ADD SLOAD PUSH2 0x100 DUP6 ADD MSTORE PUSH2 0x1274 PUSH2 0x126A PUSH1 0x9 DUP4 ADD SLOAD PUSH1 0xFF AND SWAP1 JUMP JUMPDEST ISZERO ISZERO PUSH2 0x120 DUP7 ADD MSTORE JUMP JUMPDEST ADD SLOAD SWAP2 ADD MSTORE MLOAD SWAP1 MLOAD SWAP1 PUSH2 0x987 PUSH1 0x40 MLOAD SWAP3 DUP4 SWAP3 DUP4 PUSH2 0x1161 JUMP JUMPDEST POP DUP1 ISZERO ISZERO PUSH2 0x11A6 JUMP JUMPDEST CALLVALUE PUSH2 0x3E3 JUMPI PUSH1 0x0 CALLDATASIZE PUSH1 0x3 NOT ADD SLT PUSH2 0x3E3 JUMPI PUSH2 0x12AE PUSH2 0x3C3C JUMP JUMPDEST PUSH1 0x7 SLOAD PUSH1 0xFF DUP2 AND ISZERO PUSH2 0x12ED JUMPI PUSH1 0xFF NOT AND PUSH1 0x7 SSTORE PUSH32 0x5DB9EE0A495BF2E6FF9C91A7834C1BA4FDD244A5E8AA4E537BD38AEAE4B073AA PUSH1 0x20 PUSH1 0x40 MLOAD CALLER DUP2 MSTORE LOG1 STOP JUMPDEST PUSH1 0x40 MLOAD PUSH4 0x8DFC202B PUSH1 0xE0 SHL DUP2 MSTORE PUSH1 0x4 SWAP1 REVERT JUMPDEST SWAP8 SWAP5 SWAP1 PUSH2 0x1368 SWAP5 PUSH2 0x133E PUSH2 0x140 SWAP12 SWAP9 SWAP6 SWAP10 SWAP15 SWAP14 SWAP13 SWAP10 PUSH2 0x135A SWAP6 PUSH2 0x134C SWAP5 PUSH1 0x40 DUP15 PUSH2 0x160 SWAP4 DUP5 SWAP4 DUP3 MSTORE PUSH1 0x1 DUP1 PUSH1 0xA0 SHL SUB AND PUSH1 0x20 DUP3 ADD MSTORE ADD MSTORE DUP13 ADD SWAP1 PUSH2 0x8F1 JUMP JUMPDEST SWAP1 DUP11 DUP3 SUB PUSH1 0x60 DUP13 ADD MSTORE PUSH2 0x8F1 JUMP JUMPDEST SWAP1 DUP9 DUP3 SUB PUSH1 0x80 DUP11 ADD MSTORE PUSH2 0x8F1 JUMP JUMPDEST SWAP1 DUP7 DUP3 SUB PUSH1 0xA0 DUP9 ADD MSTORE PUSH2 0x8F1 JUMP JUMPDEST SWAP8 PUSH1 0xC0 DUP6 ADD MSTORE PUSH1 0xE0 DUP5 ADD MSTORE PUSH2 0x100 DUP4 ADD MSTORE ISZERO ISZERO PUSH2 0x120 DUP3 ADD MSTORE ADD MSTORE JUMP JUMPDEST CALLVALUE PUSH2 0x3E3 JUMPI PUSH1 0x20 CALLDATASIZE PUSH1 0x3 NOT ADD SLT PUSH2 0x3E3 JUMPI PUSH1 0x4 CALLDATALOAD PUSH1 0x0 SWAP1 DUP2 MSTORE PUSH1 0x14 PUSH1 0x20 MSTORE PUSH1 0x40 SWAP1 KECCAK256 DUP1 SLOAD PUSH1 0x1 DUP3 ADD SLOAD PUSH1 0x1 PUSH1 0x1 PUSH1 0xA0 SHL SUB AND SWAP2 PUSH2 0x987 SWAP1 PUSH2 0x13C8 PUSH1 0x2 DUP3 ADD PUSH2 0x82B JUMP JUMPDEST SWAP1 PUSH2 0x13D5 PUSH1 0x3 DUP3 ADD PUSH2 0x82B JUMP JUMPDEST PUSH2 0x13E1 PUSH1 0x4 DUP4 ADD PUSH2 0x82B JUMP JUMPDEST PUSH2 0x13ED PUSH1 0x5 DUP5 ADD PUSH2 0x82B JUMP JUMPDEST PUSH1 0x6 DUP5 ADD SLOAD SWAP1 PUSH1 0x7 DUP6 ADD SLOAD SWAP3 PUSH1 0x8 DUP7 ADD SLOAD SWAP5 PUSH1 0xA PUSH1 0xFF PUSH1 0x9 DUP10 ADD SLOAD AND SWAP8 ADD SLOAD SWAP8 PUSH1 0x40 MLOAD SWAP12 DUP13 SWAP12 DUP13 PUSH2 0x12FF JUMP JUMPDEST CALLVALUE PUSH2 0x3E3 JUMPI PUSH1 0x20 CALLDATASIZE PUSH1 0x3 NOT ADD SLT PUSH2 0x3E3 JUMPI PUSH1 0x4 CALLDATALOAD PUSH2 0x1436 DUP2 PUSH2 0x3D2 JUMP JUMPDEST PUSH1 0x1 DUP1 PUSH1 0xA0 SHL SUB AND PUSH1 0x0 MSTORE PUSH1 0xD PUSH1 0x20 MSTORE PUSH1 0x20 PUSH1 0xFF PUSH1 0x40 PUSH1 0x0 KECCAK256 SLOAD AND PUSH1 0x40 MLOAD SWAP1 ISZERO ISZERO DUP2 MSTORE RETURN JUMPDEST SWAP1 DUP2 MLOAD DUP1 DUP3 MSTORE PUSH1 0x20 DUP1 DUP1 SWAP4 ADD SWAP4 ADD SWAP2 PUSH1 0x0 JUMPDEST DUP3 DUP2 LT PUSH2 0x147B JUMPI POP POP POP POP SWAP1 JUMP JUMPDEST DUP4 MLOAD DUP6 MSTORE SWAP4 DUP2 ADD SWAP4 SWAP3 DUP2 ADD SWAP3 PUSH1 0x1 ADD PUSH2 0x146D JUMP JUMPDEST SWAP1 PUSH1 0x20 PUSH2 0x927 SWAP3 DUP2 DUP2 MSTORE ADD SWAP1 PUSH2 0x145B JUMP JUMPDEST CALLVALUE PUSH2 0x3E3 JUMPI PUSH1 0x40 CALLDATASIZE PUSH1 0x3 NOT ADD SLT PUSH2 0x3E3 JUMPI PUSH1 0x4 CALLDATALOAD PUSH1 0x1 PUSH1 0x1 PUSH1 0x40 SHL SUB DUP1 DUP3 GT PUSH2 0x3E3 JUMPI CALLDATASIZE PUSH1 0x23 DUP4 ADD SLT ISZERO PUSH2 0x3E3 JUMPI DUP2 PUSH1 0x4 ADD CALLDATALOAD PUSH2 0x14DC DUP2 PUSH2 0xF6C JUMP JUMPDEST SWAP3 PUSH2 0x14EA PUSH1 0x40 MLOAD SWAP5 DUP6 PUSH2 0x525 JUMP JUMPDEST DUP2 DUP5 MSTORE PUSH1 0x20 SWAP2 PUSH1 0x24 PUSH1 0x20 DUP7 ADD SWAP2 PUSH1 0x5 SHL DUP4 ADD ADD SWAP2 CALLDATASIZE DUP4 GT PUSH2 0x3E3 JUMPI PUSH1 0x24 ADD SWAP1 JUMPDEST DUP3 DUP3 LT PUSH2 0x1543 JUMPI DUP6 PUSH1 0x24 CALLDATALOAD DUP7 DUP2 GT PUSH2 0x3E3 JUMPI PUSH2 0x987 SWAP2 PUSH2 0x1531 PUSH2 0x1537 SWAP3 CALLDATASIZE SWAP1 PUSH1 0x4 ADD PUSH2 0xF83 JUMP JUMPDEST SWAP1 PUSH2 0x2EA0 JUMP JUMPDEST PUSH1 0x40 MLOAD SWAP2 DUP3 SWAP2 DUP3 PUSH2 0x148F JUMP JUMPDEST DUP4 DUP1 SWAP2 DUP4 CALLDATALOAD PUSH2 0x1551 DUP2 PUSH2 0x3D2 JUMP JUMPDEST DUP2 MSTORE ADD SWAP2 ADD SWAP1 PUSH2 0x150A JUMP JUMPDEST CALLVALUE PUSH2 0x3E3 JUMPI PUSH1 0x20 CALLDATASIZE PUSH1 0x3 NOT ADD SLT PUSH2 0x3E3 JUMPI PUSH1 0x4 CALLDATALOAD PUSH1 0x0 MSTORE PUSH1 0x3 PUSH1 0x20 MSTORE PUSH1 0x20 PUSH1 0x40 PUSH1 0x0 KECCAK256 SLOAD ISZERO ISZERO PUSH1 0x40 MLOAD SWAP1 DUP2 MSTORE RETURN JUMPDEST CALLVALUE PUSH2 0x3E3 JUMPI PUSH1 0x40 CALLDATASIZE PUSH1 0x3 NOT ADD SLT PUSH2 0x3E3 JUMPI PUSH1 0x4 CALLDATALOAD PUSH1 0x0 SWAP1 DUP1 DUP3 MSTORE PUSH1 0x15 PUSH1 0x20 MSTORE PUSH2 0x15C0 PUSH1 0x1 DUP1 PUSH1 0xA0 SHL SUB PUSH1 0x40 DUP5 KECCAK256 SLOAD AND CALLER EQ PUSH2 0x2F5F JUMP JUMPDEST DUP2 MSTORE PUSH1 0x14 PUSH1 0x20 MSTORE PUSH1 0x24 CALLDATALOAD PUSH1 0x6 PUSH1 0x40 DUP4 KECCAK256 ADD SSTORE DUP1 RETURN JUMPDEST PUSH4 0x4E487B71 PUSH1 0xE0 SHL PUSH1 0x0 MSTORE PUSH1 0x32 PUSH1 0x4 MSTORE PUSH1 0x24 PUSH1 0x0 REVERT JUMPDEST PUSH1 0x12 SLOAD DUP2 LT ISZERO PUSH2 0x1610 JUMPI PUSH1 0x12 PUSH1 0x0 MSTORE PUSH1 0x0 DUP1 MLOAD PUSH1 0x20 PUSH2 0x4FAA DUP4 CODECOPY DUP2 MLOAD SWAP2 MSTORE ADD SWAP1 PUSH1 0x0 SWAP1 JUMP JUMPDEST PUSH2 0x15D5 JUMP JUMPDEST PUSH1 0x11 SLOAD DUP2 LT ISZERO PUSH2 0x1610 JUMPI PUSH1 0x11 PUSH1 0x0 MSTORE PUSH1 0x0 DUP1 MLOAD PUSH1 0x20 PUSH2 0x4FCA DUP4 CODECOPY DUP2 MLOAD SWAP2 MSTORE ADD SWAP1 PUSH1 0x0 SWAP1 JUMP JUMPDEST DUP1 SLOAD DUP3 LT ISZERO PUSH2 0x1610 JUMPI PUSH1 0x0 MSTORE PUSH1 0x20 PUSH1 0x0 KECCAK256 ADD SWAP1 PUSH1 0x0 SWAP1 JUMP JUMPDEST CALLVALUE PUSH2 0x3E3 JUMPI PUSH1 0x40 CALLDATASIZE PUSH1 0x3 NOT ADD SLT PUSH2 0x3E3 JUMPI PUSH1 0x4 CALLDATALOAD PUSH2 0x166F DUP2 PUSH2 0x3D2 JUMP JUMPDEST PUSH1 0x1 PUSH1 0x1 PUSH1 0xA0 SHL SUB AND PUSH1 0x0 SWAP1 DUP2 MSTORE PUSH1 0x17 PUSH1 0x20 MSTORE PUSH1 0x40 SWAP1 KECCAK256 DUP1 SLOAD PUSH1 0x24 CALLDATALOAD SWAP2 SWAP1 DUP3 LT ISZERO PUSH2 0x3E3 JUMPI PUSH1 0x20 SWAP2 PUSH2 0x16A0 SWAP2 PUSH2 0x163A JUMP JUMPDEST SWAP1 SLOAD PUSH1 0x40 MLOAD SWAP2 PUSH1 0x3 SHL SHR DUP2 MSTORE RETURN JUMPDEST PUSH1 0x40 CALLDATASIZE PUSH1 0x3 NOT ADD SLT PUSH2 0x3E3 JUMPI PUSH1 0x24 CALLDATALOAD PUSH1 0x4 CALLDATALOAD PUSH2 0x16C8 PUSH2 0x40E5 JUMP JUMPDEST PUSH2 0x16D0 PUSH2 0x4103 JUMP JUMPDEST PUSH1 0xFF PUSH1 0xC SLOAD AND PUSH2 0x197E JUMPI JUMPDEST PUSH1 0xB SLOAD DUP2 GT ISZERO DUP1 PUSH2 0x1975 JUMPI JUMPDEST PUSH2 0x16F0 SWAP1 PUSH2 0x2C6C JUMP JUMPDEST PUSH2 0x1704 DUP2 PUSH1 0x0 MSTORE PUSH1 0x14 PUSH1 0x20 MSTORE PUSH1 0x40 PUSH1 0x0 KECCAK256 SWAP1 JUMP JUMPDEST SWAP2 PUSH2 0x171B PUSH2 0x1716 PUSH1 0x9 DUP6 ADD SLOAD PUSH1 0xFF AND SWAP1 JUMP JUMPDEST PUSH2 0x2FDA JUMP JUMPDEST PUSH2 0x1726 DUP2 ISZERO ISZERO PUSH2 0x301E JUMP JUMPDEST PUSH1 0x8 DUP4 ADD SWAP2 PUSH2 0x1745 PUSH2 0x1739 DUP4 DUP6 SLOAD PUSH2 0x30CC JUMP JUMPDEST PUSH1 0x7 DUP7 ADD SLOAD LT ISZERO PUSH2 0x30D9 JUMP JUMPDEST PUSH1 0x6 DUP5 ADD SWAP4 PUSH2 0x1755 DUP4 DUP7 SLOAD PUSH2 0x315F JUMP JUMPDEST PUSH2 0x1761 DUP2 CALLVALUE LT ISZERO PUSH2 0x3172 JUMP JUMPDEST PUSH2 0x1796 PUSH2 0x177B PUSH2 0x1773 PUSH1 0xA SLOAD DUP5 PUSH2 0x315F JUMP JUMPDEST PUSH2 0x2710 SWAP1 DIV SWAP1 JUMP JUMPDEST PUSH2 0x1791 PUSH2 0x178A PUSH2 0x1773 DUP6 PUSH2 0x311A JUMP JUMPDEST SWAP2 DUP5 PUSH2 0x2DC1 JUMP JUMPDEST PUSH2 0x2DC1 JUMP JUMPDEST SWAP5 PUSH2 0x17AA PUSH2 0x17A2 PUSH2 0x31B5 JUMP JUMPDEST DUP7 DUP7 CALLER PUSH2 0x4126 JUMP JUMPDEST PUSH2 0x17B5 DUP6 DUP3 SLOAD PUSH2 0x30CC JUMP JUMPDEST SWAP1 SSTORE CALLER PUSH1 0x0 SWAP1 DUP2 MSTORE PUSH1 0x13 PUSH1 0x20 MSTORE PUSH1 0x40 SWAP1 KECCAK256 PUSH1 0x4 SWAP1 PUSH1 0x5 DUP2 ADD PUSH2 0x17DF PUSH2 0x17DB DUP3 SLOAD PUSH1 0xFF AND SWAP1 JUMP JUMPDEST ISZERO SWAP1 JUMP JUMPDEST PUSH2 0x1957 JUMPI JUMPDEST POP ADD PUSH2 0x17F1 DUP6 DUP3 SLOAD PUSH2 0x30CC JUMP JUMPDEST SWAP1 SSTORE PUSH1 0x0 SWAP5 PUSH1 0x0 JUMPDEST CALLER PUSH1 0x0 SWAP1 DUP2 MSTORE PUSH1 0x17 PUSH1 0x20 MSTORE PUSH1 0x40 SWAP1 KECCAK256 SLOAD DUP2 LT ISZERO PUSH2 0x194C JUMPI CALLER PUSH1 0x0 SWAP1 DUP2 MSTORE PUSH1 0x17 PUSH1 0x20 MSTORE PUSH1 0x40 SWAP1 KECCAK256 DUP6 SWAP1 PUSH2 0x183A SWAP1 PUSH2 0x1830 SWAP1 DUP5 SWAP1 PUSH2 0x163A JUMP JUMPDEST SWAP1 SLOAD SWAP1 PUSH1 0x3 SHL SHR SWAP1 JUMP JUMPDEST EQ PUSH2 0x1847 JUMPI PUSH1 0x1 ADD PUSH2 0x17F9 JUMP JUMPDEST POP SWAP1 SWAP2 SWAP3 SWAP4 SWAP5 POP PUSH1 0x1 JUMPDEST ISZERO PUSH2 0x192D JUMPI JUMPDEST DUP1 ISZERO DUP1 ISZERO PUSH2 0x18EF JUMPI JUMPDEST POP POP DUP1 CALLVALUE GT PUSH2 0x18BC JUMPI JUMPDEST POP PUSH1 0x1 ADD SLOAD SWAP3 SLOAD PUSH1 0x40 DUP1 MLOAD SWAP4 DUP5 MSTORE PUSH1 0x20 DUP5 ADD SWAP2 SWAP1 SWAP2 MSTORE PUSH1 0x1 PUSH1 0x1 PUSH1 0xA0 SHL SUB SWAP1 SWAP4 AND SWAP3 CALLER SWAP3 PUSH32 0x465C604F8DCF4D2DBA83E76F95C4CB5876F0976EC008A9326B6D4B209142BB45 SWAP2 SWAP1 LOG4 PUSH2 0x108E PUSH1 0x1 PUSH1 0x6 SSTORE JUMP JUMPDEST PUSH1 0x0 DUP1 DUP1 PUSH2 0x18CB DUP2 SWAP5 CALLVALUE PUSH2 0x2DC1 JUMP JUMPDEST DUP2 DUP2 ISZERO PUSH2 0x18E6 JUMPI JUMPDEST CALLER SWAP1 CALL ISZERO PUSH2 0x18E1 JUMPI CODESIZE PUSH2 0x186A JUMP JUMPDEST PUSH2 0x320D JUMP JUMPDEST POP PUSH2 0x8FC PUSH2 0x18D3 JUMP JUMPDEST PUSH1 0x0 DUP1 DUP1 SWAP4 DUP2 SWAP4 PUSH2 0x190F PUSH2 0xE44 PUSH2 0xE44 PUSH1 0x1 DUP12 ADD SLOAD PUSH1 0x1 DUP1 PUSH1 0xA0 SHL SUB AND SWAP1 JUMP JUMPDEST SWAP1 DUP4 SWAP1 PUSH2 0x1924 JUMPI JUMPDEST CALL ISZERO PUSH2 0x18E1 JUMPI CODESIZE DUP1 PUSH2 0x1860 JUMP JUMPDEST POP PUSH2 0x8FC PUSH2 0x1917 JUMP JUMPDEST CALLER PUSH1 0x0 SWAP1 DUP2 MSTORE PUSH1 0x17 PUSH1 0x20 MSTORE PUSH1 0x40 SWAP1 KECCAK256 PUSH2 0x1947 SWAP1 DUP6 SWAP1 PUSH2 0x31D8 JUMP JUMPDEST PUSH2 0x1857 JUMP JUMPDEST POP SWAP1 SWAP2 SWAP3 SWAP4 SWAP5 PUSH2 0x1851 JUMP JUMPDEST DUP1 SLOAD PUSH1 0xFF NOT AND PUSH1 0x1 OR SWAP1 SSTORE PUSH1 0x0 PUSH1 0x3 DUP3 ADD SSTORE PUSH1 0x0 DUP3 DUP3 ADD SSTORE CODESIZE PUSH2 0x17E4 JUMP JUMPDEST POP DUP1 ISZERO ISZERO PUSH2 0x16E7 JUMP JUMPDEST CALLER PUSH1 0x0 MSTORE PUSH1 0xE PUSH1 0x20 MSTORE PUSH1 0xFF PUSH1 0x40 PUSH1 0x0 KECCAK256 SLOAD AND DUP1 ISZERO PUSH2 0x19A5 JUMPI JUMPDEST PUSH2 0x19A0 SWAP1 PUSH2 0x2F9C JUMP JUMPDEST PUSH2 0x16DB JUMP JUMPDEST POP PUSH1 0x5 SLOAD PUSH1 0x1 PUSH1 0x1 PUSH1 0xA0 SHL SUB AND CALLER EQ PUSH2 0x1997 JUMP JUMPDEST CALLVALUE PUSH2 0x3E3 JUMPI PUSH1 0x0 CALLDATASIZE PUSH1 0x3 NOT ADD SLT PUSH2 0x3E3 JUMPI PUSH1 0x20 PUSH1 0xB SLOAD PUSH1 0x40 MLOAD SWAP1 DUP2 MSTORE RETURN JUMPDEST CALLVALUE PUSH2 0x3E3 JUMPI PUSH1 0x20 CALLDATASIZE PUSH1 0x3 NOT ADD SLT PUSH2 0x3E3 JUMPI PUSH1 0x4 CALLDATALOAD PUSH1 0x0 SWAP1 DUP1 DUP3 MSTORE PUSH1 0x15 PUSH1 0x20 MSTORE PUSH2 0x1A0D PUSH1 0x1 DUP1 PUSH1 0xA0 SHL SUB PUSH1 0x40 DUP5 KECCAK256 SLOAD AND CALLER EQ PUSH2 0x2F5F JUMP JUMPDEST DUP2 MSTORE PUSH1 0x14 PUSH1 0x20 MSTORE PUSH1 0x40 DUP2 KECCAK256 PUSH1 0x9 ADD DUP1 SLOAD PUSH1 0xFF DUP2 DUP2 AND ISZERO AND PUSH1 0xFF NOT SWAP1 SWAP2 AND OR SWAP1 SSTORE DUP1 RETURN JUMPDEST CALLVALUE PUSH2 0x3E3 JUMPI PUSH1 0x0 CALLDATASIZE PUSH1 0x3 NOT ADD SLT PUSH2 0x3E3 JUMPI PUSH1 0x20 PUSH1 0xFF PUSH1 0x7 SLOAD AND PUSH1 0x40 MLOAD SWAP1 ISZERO ISZERO DUP2 MSTORE RETURN JUMPDEST CALLVALUE PUSH2 0x3E3 JUMPI PUSH1 0x0 DUP1 PUSH1 0x3 NOT CALLDATASIZE ADD SLT PUSH2 0xA10 JUMPI CALLER DUP2 MSTORE PUSH1 0xD PUSH1 0x20 MSTORE PUSH1 0xFF PUSH1 0x40 DUP3 KECCAK256 SLOAD AND PUSH2 0x1AF0 JUMPI CALLER PUSH1 0x0 SWAP1 DUP2 MSTORE PUSH1 0xE PUSH1 0x20 MSTORE PUSH1 0x40 SWAP1 KECCAK256 PUSH2 0x1A9E SWAP1 PUSH2 0x1A99 SWAP1 PUSH2 0x17DB SWAP1 PUSH2 0xDB1 JUMP JUMPDEST PUSH2 0x3219 JUMP JUMPDEST CALLER PUSH1 0x0 SWAP1 DUP2 MSTORE PUSH1 0xD PUSH1 0x20 MSTORE PUSH1 0x40 SWAP1 KECCAK256 PUSH2 0x1ABF SWAP1 JUMPDEST DUP1 SLOAD PUSH1 0xFF NOT AND PUSH1 0x1 OR SWAP1 SSTORE JUMP JUMPDEST PUSH2 0x1AC8 CALLER PUSH2 0x325B JUMP JUMPDEST CALLER PUSH32 0xD01371A65BC20DA9AF65AAF8149474FD747E562E207A3687CF65A809766A205A DUP3 DUP1 LOG2 DUP1 RETURN JUMPDEST PUSH1 0x40 MLOAD PUSH3 0x461BCD PUSH1 0xE5 SHL DUP2 MSTORE PUSH1 0x20 PUSH1 0x4 DUP3 ADD MSTORE PUSH1 0x1B PUSH1 0x24 DUP3 ADD MSTORE PUSH32 0x416C7265616479207265676973746572656420696E7465726573740000000000 PUSH1 0x44 DUP3 ADD MSTORE PUSH1 0x64 SWAP1 REVERT JUMPDEST CALLVALUE PUSH2 0x3E3 JUMPI PUSH1 0x20 CALLDATASIZE PUSH1 0x3 NOT ADD SLT PUSH2 0x3E3 JUMPI PUSH1 0x4 CALLDATALOAD PUSH1 0x11 SLOAD DUP2 LT ISZERO PUSH2 0x3E3 JUMPI PUSH1 0x11 PUSH1 0x0 MSTORE PUSH1 0x0 DUP1 MLOAD PUSH1 0x20 PUSH2 0x4FCA DUP4 CODECOPY DUP2 MLOAD SWAP2 MSTORE ADD SLOAD PUSH1 0x40 MLOAD PUSH1 0x1 PUSH1 0x1 PUSH1 0xA0 SHL SUB SWAP1 SWAP2 AND DUP2 MSTORE PUSH1 0x20 SWAP1 RETURN JUMPDEST PUSH1 0x20 SWAP1 PUSH1 0x20 PUSH1 0x40 DUP2 DUP4 ADD SWAP3 DUP3 DUP2 MSTORE DUP6 MLOAD DUP1 SWAP5 MSTORE ADD SWAP4 ADD SWAP2 PUSH1 0x0 JUMPDEST DUP3 DUP2 LT PUSH2 0x1BA6 JUMPI POP POP POP POP SWAP1 JUMP JUMPDEST DUP4 MLOAD PUSH1 0x1 PUSH1 0x1 PUSH1 0xA0 SHL SUB AND DUP6 MSTORE SWAP4 DUP2 ADD SWAP4 SWAP3 DUP2 ADD SWAP3 PUSH1 0x1 ADD PUSH2 0x1B98 JUMP JUMPDEST CALLVALUE PUSH2 0x3E3 JUMPI PUSH1 0x0 CALLDATASIZE PUSH1 0x3 NOT ADD SLT PUSH2 0x3E3 JUMPI PUSH1 0x40 MLOAD DUP1 PUSH1 0x12 SLOAD SWAP2 DUP3 DUP2 MSTORE PUSH1 0x20 DUP1 SWAP2 ADD SWAP3 PUSH1 0x12 PUSH1 0x0 MSTORE PUSH1 0x0 DUP1 MLOAD PUSH1 0x20 PUSH2 0x4FAA DUP4 CODECOPY DUP2 MLOAD SWAP2 MSTORE SWAP2 PUSH1 0x0 SWAP1 JUMPDEST DUP3 DUP3 LT PUSH2 0x1C21 JUMPI PUSH2 0x987 DUP6 PUSH2 0x1C15 DUP2 DUP10 SUB DUP3 PUSH2 0x525 JUMP JUMPDEST PUSH1 0x40 MLOAD SWAP2 DUP3 SWAP2 DUP3 PUSH2 0x1B7E JUMP JUMPDEST DUP4 SLOAD PUSH1 0x1 PUSH1 0x1 PUSH1 0xA0 SHL SUB AND DUP7 MSTORE SWAP5 DUP6 ADD SWAP5 PUSH1 0x1 SWAP4 DUP5 ADD SWAP4 SWAP1 SWAP2 ADD SWAP1 PUSH2 0x1BFE JUMP JUMPDEST CALLVALUE PUSH2 0x3E3 JUMPI PUSH1 0x0 CALLDATASIZE PUSH1 0x3 NOT ADD SLT PUSH2 0x3E3 JUMPI PUSH1 0x40 MLOAD DUP1 PUSH1 0x11 SLOAD SWAP2 DUP3 DUP2 MSTORE PUSH1 0x20 DUP1 SWAP2 ADD SWAP3 PUSH1 0x11 PUSH1 0x0 MSTORE PUSH1 0x0 DUP1 MLOAD PUSH1 0x20 PUSH2 0x4FCA DUP4 CODECOPY DUP2 MLOAD SWAP2 MSTORE SWAP2 PUSH1 0x0 SWAP1 JUMPDEST DUP3 DUP3 LT PUSH2 0x1C93 JUMPI PUSH2 0x987 DUP6 PUSH2 0x1C15 DUP2 DUP10 SUB DUP3 PUSH2 0x525 JUMP JUMPDEST DUP4 SLOAD PUSH1 0x1 PUSH1 0x1 PUSH1 0xA0 SHL SUB AND DUP7 MSTORE SWAP5 DUP6 ADD SWAP5 PUSH1 0x1 SWAP4 DUP5 ADD SWAP4 SWAP1 SWAP2 ADD SWAP1 PUSH2 0x1C7C JUMP JUMPDEST CALLVALUE PUSH2 0x3E3 JUMPI PUSH1 0x20 CALLDATASIZE PUSH1 0x3 NOT ADD SLT PUSH2 0x3E3 JUMPI PUSH1 0x4 CALLDATALOAD PUSH1 0x12 SLOAD DUP2 LT ISZERO PUSH2 0x3E3 JUMPI PUSH1 0x12 PUSH1 0x0 MSTORE PUSH1 0x0 DUP1 MLOAD PUSH1 0x20 PUSH2 0x4FAA DUP4 CODECOPY DUP2 MLOAD SWAP2 MSTORE ADD SLOAD PUSH1 0x40 MLOAD PUSH1 0x1 PUSH1 0x1 PUSH1 0xA0 SHL SUB SWAP1 SWAP2 AND DUP2 MSTORE PUSH1 0x20 SWAP1 RETURN JUMPDEST CALLVALUE PUSH2 0x3E3 JUMPI PUSH1 0x20 CALLDATASIZE PUSH1 0x3 NOT ADD SLT PUSH2 0x3E3 JUMPI PUSH1 0x4 CALLDATALOAD PUSH2 0x1D19 DUP2 PUSH2 0x3D2 JUMP JUMPDEST PUSH1 0x0 SWAP1 CALLER DUP3 MSTORE PUSH1 0xF PUSH1 0x20 MSTORE PUSH1 0xFF PUSH1 0x40 DUP4 KECCAK256 SLOAD AND DUP1 ISZERO PUSH2 0x1E1D JUMPI JUMPDEST PUSH2 0x1D3C SWAP1 PUSH2 0x2CAB JUMP JUMPDEST PUSH1 0x1 PUSH1 0x1 PUSH1 0xA0 SHL SUB DUP2 AND DUP1 DUP4 MSTORE PUSH1 0xF PUSH1 0x20 MSTORE PUSH1 0x40 DUP4 KECCAK256 SLOAD SWAP1 SWAP2 SWAP1 PUSH2 0x1D63 SWAP1 PUSH1 0xFF AND ISZERO PUSH2 0x336C JUMP JUMPDEST PUSH2 0x1D6E DUP3 ISZERO ISZERO PUSH2 0x33AB JUMP JUMPDEST PUSH1 0x1 PUSH1 0x1 PUSH1 0xA0 SHL SUB DUP2 AND PUSH1 0x0 SWAP1 DUP2 MSTORE PUSH1 0xF PUSH1 0x20 MSTORE PUSH1 0x40 SWAP1 KECCAK256 PUSH2 0x1D8F SWAP1 PUSH2 0x1AB2 JUMP JUMPDEST PUSH2 0x1D98 DUP2 PUSH2 0x32C2 JUMP JUMPDEST PUSH1 0x1 PUSH1 0x1 PUSH1 0xA0 SHL SUB DUP2 AND PUSH1 0x0 SWAP1 DUP2 MSTORE PUSH1 0xE PUSH1 0x20 MSTORE PUSH1 0x40 SWAP1 KECCAK256 PUSH2 0x1DBD SWAP1 PUSH2 0x17DB SWAP1 PUSH2 0xDB1 JUMP JUMPDEST PUSH2 0x1DEC JUMPI JUMPDEST POP CALLER SWAP1 PUSH32 0xBF3F493C772C8C283FD124432C2D0F539AB343FAA04258FE88E52912D36B102B DUP4 DUP1 LOG3 DUP1 RETURN JUMPDEST PUSH1 0x1 PUSH1 0x1 PUSH1 0xA0 SHL SUB DUP2 AND PUSH1 0x0 SWAP1 DUP2 MSTORE PUSH1 0xE PUSH1 0x20 MSTORE PUSH1 0x40 SWAP1 KECCAK256 PUSH2 0x1E17 SWAP2 SWAP1 PUSH2 0x1E12 SWAP1 PUSH2 0x1AB2 JUMP JUMPDEST PUSH2 0x3317 JUMP JUMPDEST CODESIZE PUSH2 0x1DC2 JUMP JUMPDEST POP PUSH1 0x5 SLOAD PUSH1 0x1 PUSH1 0x1 PUSH1 0xA0 SHL SUB AND CALLER EQ PUSH2 0x1D33 JUMP JUMPDEST CALLVALUE PUSH2 0x3E3 JUMPI PUSH1 0x0 DUP1 PUSH1 0x3 NOT CALLDATASIZE ADD SLT PUSH2 0xA10 JUMPI PUSH2 0x1E4B PUSH2 0x3C3C JUMP JUMPDEST PUSH1 0x5 DUP1 SLOAD PUSH1 0x1 PUSH1 0x1 PUSH1 0xA0 SHL SUB NOT DUP2 AND SWAP1 SWAP2 SSTORE DUP2 SWAP1 PUSH1 0x1 PUSH1 0x1 PUSH1 0xA0 SHL SUB AND PUSH32 0x8BE0079C531659141344CD1FD0A4F28419497F9722A3DAAFE3B4186F6B6457E0 DUP3 DUP1 LOG3 DUP1 RETURN JUMPDEST CALLVALUE PUSH2 0x3E3 JUMPI PUSH1 0x0 DUP1 PUSH1 0x3 NOT CALLDATASIZE ADD SLT PUSH2 0xA10 JUMPI CALLER DUP2 MSTORE PUSH1 0xF PUSH1 0x20 MSTORE PUSH1 0xFF PUSH1 0x40 DUP3 KECCAK256 SLOAD AND DUP1 ISZERO PUSH2 0x1F06 JUMPI JUMPDEST PUSH2 0x1EC1 SWAP1 PUSH2 0x2CAB JUMP JUMPDEST PUSH1 0xC SLOAD PUSH1 0xFF DUP1 DUP3 AND ISZERO AND DUP1 SWAP2 PUSH1 0xFF NOT AND OR PUSH1 0xC SSTORE PUSH1 0x40 MLOAD SWAP1 ISZERO ISZERO DUP2 MSTORE PUSH32 0x5F2930093A8ED3D18A75EC1318AA404A4CB74A9D542350560A7709642F444B58 PUSH1 0x20 CALLER SWAP3 LOG2 DUP1 RETURN JUMPDEST POP PUSH1 0x5 SLOAD PUSH1 0x1 PUSH1 0x1 PUSH1 0xA0 SHL SUB AND CALLER EQ PUSH2 0x1EB8 JUMP JUMPDEST CALLVALUE PUSH2 0x3E3 JUMPI PUSH1 0x0 CALLDATASIZE PUSH1 0x3 NOT ADD SLT PUSH2 0x3E3 JUMPI PUSH2 0x1F33 PUSH2 0x3C3C JUMP JUMPDEST PUSH2 0x1F3B PUSH2 0x40E5 JUMP JUMPDEST PUSH1 0x1 PUSH1 0xFF NOT PUSH1 0x7 SLOAD AND OR PUSH1 0x7 SSTORE PUSH32 0x62E78CEA01BEE320CD4E420270B5EA74000D11B0C9F74754EBDBFC544B05A258 PUSH1 0x20 PUSH1 0x40 MLOAD CALLER DUP2 MSTORE LOG1 STOP JUMPDEST CALLVALUE PUSH2 0x3E3 JUMPI PUSH1 0x20 CALLDATASIZE PUSH1 0x3 NOT ADD SLT PUSH2 0x3E3 JUMPI PUSH1 0x4 CALLDATALOAD PUSH2 0x1F91 DUP2 PUSH2 0x3D2 JUMP JUMPDEST PUSH1 0x0 SWAP1 CALLER DUP3 MSTORE PUSH1 0xF PUSH1 0x20 MSTORE PUSH1 0xFF PUSH1 0x40 DUP4 KECCAK256 SLOAD AND DUP1 ISZERO PUSH2 0x209F JUMPI JUMPDEST PUSH2 0x1FB4 SWAP1 PUSH2 0x2CAB JUMP JUMPDEST PUSH1 0x1 PUSH1 0x1 PUSH1 0xA0 SHL SUB DUP2 AND PUSH1 0x0 SWAP1 DUP2 MSTORE PUSH1 0xE PUSH1 0x20 MSTORE PUSH1 0x40 SWAP1 KECCAK256 PUSH2 0x1FDE SWAP1 PUSH2 0x1FD9 SWAP1 PUSH2 0xDB1 JUMP JUMPDEST PUSH2 0x33E9 JUMP JUMPDEST PUSH1 0x5 SLOAD PUSH1 0x1 PUSH1 0x1 PUSH1 0xA0 SHL SUB DUP3 DUP2 AND SWAP3 PUSH2 0x201C SWAP3 PUSH2 0xE07 SWAP3 PUSH2 0x2002 SWAP2 AND DUP6 EQ ISZERO PUSH2 0x3435 JUMP JUMPDEST PUSH1 0x1 PUSH1 0x1 PUSH1 0xA0 SHL SUB AND PUSH1 0x0 SWAP1 DUP2 MSTORE PUSH1 0xE PUSH1 0x20 MSTORE PUSH1 0x40 SWAP1 KECCAK256 SWAP1 JUMP JUMPDEST DUP2 JUMPDEST PUSH1 0x11 SLOAD SWAP1 DUP2 DUP2 LT ISZERO PUSH2 0x2098 JUMPI DUP3 PUSH2 0x203A PUSH2 0xE44 PUSH2 0xE2F DUP5 PUSH2 0x1615 JUMP JUMPDEST EQ PUSH2 0x2049 JUMPI PUSH1 0x1 SWAP2 POP ADD PUSH2 0x201E JUMP JUMPDEST PUSH2 0xE7F PUSH2 0x2063 PUSH2 0xE2F PUSH2 0x205E PUSH2 0x2069 SWAP6 PUSH2 0x2D9E JUMP JUMPDEST PUSH2 0x1615 JUMP JUMPDEST SWAP2 PUSH2 0x1615 JUMP JUMPDEST PUSH2 0x2071 PUSH2 0x2E38 JUMP JUMPDEST PUSH32 0x535611FB62FA2A833988F283B779E417E996813E44046F521D76C17B5943B08C DUP3 DUP1 LOG2 DUP1 RETURN JUMPDEST POP POP PUSH2 0x2071 JUMP JUMPDEST POP PUSH1 0x5 SLOAD PUSH1 0x1 PUSH1 0x1 PUSH1 0xA0 SHL SUB AND CALLER EQ PUSH2 0x1FAB JUMP JUMPDEST CALLVALUE PUSH2 0x3E3 JUMPI PUSH1 0x0 CALLDATASIZE PUSH1 0x3 NOT ADD SLT PUSH2 0x3E3 JUMPI PUSH1 0x5 SLOAD PUSH1 0x40 MLOAD PUSH1 0x1 PUSH1 0x1 PUSH1 0xA0 SHL SUB SWAP1 SWAP2 AND DUP2 MSTORE PUSH1 0x20 SWAP1 RETURN JUMPDEST CALLVALUE PUSH2 0x3E3 JUMPI PUSH1 0x0 CALLDATASIZE PUSH1 0x3 NOT ADD SLT PUSH2 0x3E3 JUMPI PUSH1 0x40 MLOAD DUP1 PUSH1 0x10 SLOAD SWAP2 DUP3 DUP2 MSTORE PUSH1 0x20 DUP1 SWAP2 ADD SWAP3 PUSH1 0x10 PUSH1 0x0 MSTORE PUSH32 0x1B6847DC741A1B0CD08D278845F9D819D87B734759AFB55FE2DE5CB82A9AE672 SWAP2 PUSH1 0x0 SWAP1 JUMPDEST DUP3 DUP3 LT PUSH2 0x2140 JUMPI PUSH2 0x987 DUP6 PUSH2 0x1C15 DUP2 DUP10 SUB DUP3 PUSH2 0x525 JUMP JUMPDEST DUP4 SLOAD PUSH1 0x1 PUSH1 0x1 PUSH1 0xA0 SHL SUB AND DUP7 MSTORE SWAP5 DUP6 ADD SWAP5 PUSH1 0x1 SWAP4 DUP5 ADD SWAP4 SWAP1 SWAP2 ADD SWAP1 PUSH2 0x2129 JUMP JUMPDEST CALLVALUE PUSH2 0x3E3 JUMPI PUSH1 0x40 CALLDATASIZE PUSH1 0x3 NOT ADD SLT PUSH2 0x3E3 JUMPI PUSH1 0x4 CALLDATALOAD PUSH2 0x217D DUP2 PUSH2 0x3D2 JUMP JUMPDEST PUSH1 0x1 PUSH1 0x1 PUSH1 0xA0 SHL SUB AND PUSH1 0x0 SWAP1 DUP2 MSTORE PUSH1 0x16 PUSH1 0x20 MSTORE PUSH1 0x40 SWAP1 KECCAK256 DUP1 SLOAD PUSH1 0x24 CALLDATALOAD SWAP2 SWAP1 DUP3 LT ISZERO PUSH2 0x3E3 JUMPI PUSH1 0x20 SWAP2 PUSH2 0x16A0 SWAP2 PUSH2 0x163A JUMP JUMPDEST CALLVALUE PUSH2 0x3E3 JUMPI PUSH1 0x0 DUP1 PUSH1 0x3 NOT CALLDATASIZE ADD SLT PUSH2 0xA10 JUMPI PUSH1 0x40 MLOAD SWAP1 DUP1 PUSH1 0x9 SLOAD SWAP1 PUSH2 0x21D2 DUP3 PUSH2 0x72B JUMP JUMPDEST DUP1 DUP6 MSTORE SWAP2 PUSH1 0x20 SWAP2 PUSH1 0x1 SWAP2 DUP3 DUP2 AND SWAP1 DUP2 ISZERO PUSH2 0x9E3 JUMPI POP PUSH1 0x1 EQ PUSH2 0x21FE JUMPI PUSH2 0x987 DUP7 PUSH2 0x97B DUP2 DUP9 SUB DUP3 PUSH2 0x525 JUMP JUMPDEST SWAP4 POP PUSH1 0x9 DUP5 MSTORE PUSH32 0x6E1540171B6C0C960B71A7020D9F60077F6AF931A8BBF590DA0223DACF75C7AF JUMPDEST DUP4 DUP6 LT PUSH2 0x2243 JUMPI POP POP POP POP DUP2 ADD PUSH1 0x20 ADD PUSH2 0x97B DUP3 PUSH2 0x987 CODESIZE PUSH2 0x96B JUMP JUMPDEST DUP1 SLOAD DUP7 DUP7 ADD DUP5 ADD MSTORE SWAP4 DUP3 ADD SWAP4 DUP2 ADD PUSH2 0x2226 JUMP JUMPDEST CALLVALUE PUSH2 0x3E3 JUMPI PUSH1 0x40 CALLDATASIZE PUSH1 0x3 NOT ADD SLT PUSH2 0x3E3 JUMPI PUSH1 0x4 CALLDATALOAD PUSH2 0x2273 DUP2 PUSH2 0x3D2 JUMP JUMPDEST PUSH1 0x24 CALLDATALOAD SWAP1 DUP2 ISZERO ISZERO SWAP1 DUP2 DUP4 SUB PUSH2 0x3E3 JUMPI PUSH1 0x1 PUSH1 0x1 PUSH1 0xA0 SHL SUB DUP2 AND SWAP3 DUP4 ISZERO PUSH2 0x22FE JUMPI PUSH2 0x22BF PUSH2 0x22D0 SWAP3 CALLER PUSH1 0x0 MSTORE PUSH1 0x1 PUSH1 0x20 MSTORE PUSH1 0x40 PUSH1 0x0 KECCAK256 SWAP1 PUSH1 0x1 DUP1 PUSH1 0xA0 SHL SUB AND PUSH1 0x0 MSTORE PUSH1 0x20 MSTORE PUSH1 0x40 PUSH1 0x0 KECCAK256 SWAP1 JUMP JUMPDEST SWAP1 PUSH1 0xFF DUP1 NOT DUP4 SLOAD AND SWAP2 ISZERO ISZERO AND OR SWAP1 SSTORE JUMP JUMPDEST PUSH1 0x40 MLOAD SWAP1 DUP2 MSTORE PUSH32 0x17307EAB39AB6107E8899845AD3D59BD9653F200F220920489CA2B5937696C31 PUSH1 0x20 CALLER SWAP3 LOG3 STOP JUMPDEST PUSH1 0x40 MLOAD PUSH3 0xCED3E1 PUSH1 0xE8 SHL DUP2 MSTORE PUSH1 0x0 PUSH1 0x4 DUP3 ADD MSTORE PUSH1 0x24 SWAP1 REVERT JUMPDEST CALLVALUE PUSH2 0x3E3 JUMPI PUSH1 0x60 CALLDATASIZE PUSH1 0x3 NOT ADD SLT PUSH2 0x3E3 JUMPI PUSH1 0x1 PUSH1 0x1 PUSH1 0x40 SHL SUB PUSH1 0x4 CALLDATALOAD DUP2 DUP2 GT PUSH2 0x3E3 JUMPI PUSH2 0x2347 SWAP1 CALLDATASIZE SWAP1 PUSH1 0x4 ADD PUSH2 0x581 JUMP JUMPDEST PUSH1 0x24 CALLDATALOAD DUP3 DUP2 GT PUSH2 0x3E3 JUMPI PUSH2 0x235F SWAP1 CALLDATASIZE SWAP1 PUSH1 0x4 ADD PUSH2 0x581 JUMP JUMPDEST SWAP2 PUSH1 0x44 CALLDATALOAD SWAP1 DUP2 GT PUSH2 0x3E3 JUMPI PUSH2 0x2399 PUSH32 0x39DFEE1413BB413BA51702FE3CD693CD3B02628FBAC61358818D502B7AF50095 SWAP2 CALLDATASIZE SWAP1 PUSH1 0x4 ADD PUSH2 0x581 JUMP JUMPDEST PUSH1 0x0 SWAP4 CALLER DUP6 MSTORE PUSH1 0x13 PUSH1 0x20 MSTORE PUSH2 0x23DB DUP3 PUSH1 0x2 PUSH1 0x40 DUP9 KECCAK256 PUSH1 0x5 DUP2 ADD PUSH1 0xFF DUP2 SLOAD AND ISZERO PUSH2 0x23F2 JUMPI JUMPDEST POP PUSH2 0x23C8 DUP9 DUP3 PUSH2 0x353E JUMP JUMPDEST PUSH2 0x23D5 DUP6 PUSH1 0x1 DUP4 ADD PUSH2 0x353E JUMP JUMPDEST ADD PUSH2 0x353E JUMP JUMPDEST PUSH2 0x23EC PUSH1 0x40 MLOAD SWAP3 DUP4 SWAP3 CALLER SWAP7 DUP5 PUSH2 0x3607 JUMP JUMPDEST SUB SWAP1 LOG2 DUP1 RETURN JUMPDEST DUP1 SLOAD PUSH1 0xFF NOT AND PUSH1 0x1 OR SWAP1 SSTORE DUP9 PUSH1 0x3 DUP3 ADD SSTORE DUP9 PUSH1 0x4 DUP3 ADD SSTORE CODESIZE PUSH2 0x23BD JUMP JUMPDEST CALLVALUE PUSH2 0x3E3 JUMPI PUSH1 0x20 CALLDATASIZE PUSH1 0x3 NOT ADD SLT PUSH2 0x3E3 JUMPI PUSH1 0x4 CALLDATALOAD PUSH2 0x242C DUP2 PUSH2 0x3D2 JUMP JUMPDEST PUSH1 0x1 DUP1 PUSH1 0xA0 SHL SUB AND PUSH1 0x0 MSTORE PUSH1 0x13 PUSH1 0x20 MSTORE PUSH1 0x40 PUSH1 0x0 KECCAK256 PUSH1 0x40 MLOAD PUSH2 0x244D DUP2 PUSH2 0x4CF JUMP JUMPDEST PUSH2 0x2456 DUP3 PUSH2 0x82B JUMP JUMPDEST DUP2 MSTORE PUSH2 0x987 PUSH2 0x2467 PUSH1 0x1 DUP5 ADD PUSH2 0x82B JUMP JUMPDEST SWAP2 PUSH1 0x20 DUP2 ADD SWAP3 DUP4 MSTORE PUSH2 0x247B PUSH1 0x2 DUP6 ADD PUSH2 0x82B JUMP JUMPDEST SWAP4 DUP5 PUSH1 0x40 DUP4 ADD MSTORE PUSH1 0x3 DUP2 ADD SLOAD DUP1 PUSH1 0x60 DUP5 ADD MSTORE PUSH1 0xFF PUSH1 0x5 PUSH1 0x4 DUP5 ADD SLOAD SWAP4 DUP5 PUSH1 0x80 DUP8 ADD MSTORE ADD SLOAD AND ISZERO ISZERO SWAP3 DUP4 PUSH1 0xA0 DUP3 ADD MSTORE MLOAD SWAP5 MLOAD SWAP6 PUSH1 0x40 MLOAD SWAP7 DUP8 SWAP7 DUP8 PUSH2 0xC88 JUMP JUMPDEST CALLVALUE PUSH2 0x3E3 JUMPI PUSH1 0x20 CALLDATASIZE PUSH1 0x3 NOT ADD SLT PUSH2 0x3E3 JUMPI PUSH1 0x4 CALLDATALOAD PUSH1 0x0 MSTORE PUSH1 0x3 PUSH1 0x20 MSTORE PUSH1 0x20 PUSH1 0x40 PUSH1 0x0 KECCAK256 SLOAD PUSH1 0x40 MLOAD SWAP1 DUP2 MSTORE RETURN JUMPDEST CALLVALUE PUSH2 0x3E3 JUMPI PUSH1 0xC0 CALLDATASIZE PUSH1 0x3 NOT ADD SLT PUSH2 0x3E3 JUMPI PUSH1 0x1 PUSH1 0x1 PUSH1 0x40 SHL SUB PUSH1 0x4 CALLDATALOAD DUP2 DUP2 GT PUSH2 0x3E3 JUMPI PUSH2 0x2516 SWAP1 CALLDATASIZE SWAP1 PUSH1 0x4 ADD PUSH2 0x581 JUMP JUMPDEST SWAP1 PUSH1 0x24 CALLDATALOAD DUP2 DUP2 GT PUSH2 0x3E3 JUMPI PUSH2 0x252F SWAP1 CALLDATASIZE SWAP1 PUSH1 0x4 ADD PUSH2 0x581 JUMP JUMPDEST PUSH1 0x44 CALLDATALOAD DUP3 DUP2 GT PUSH2 0x3E3 JUMPI PUSH2 0x2547 SWAP1 CALLDATASIZE SWAP1 PUSH1 0x4 ADD PUSH2 0x581 JUMP JUMPDEST SWAP3 PUSH1 0x64 CALLDATALOAD SWAP3 DUP4 GT PUSH2 0x3E3 JUMPI PUSH2 0x987 SWAP4 PUSH2 0x2567 PUSH2 0x2575 SWAP5 CALLDATASIZE SWAP1 PUSH1 0x4 ADD PUSH2 0x581 JUMP JUMPDEST SWAP1 PUSH1 0xA4 CALLDATALOAD SWAP4 PUSH1 0x84 CALLDATALOAD SWAP4 PUSH2 0x363E JUMP JUMPDEST PUSH1 0x40 MLOAD SWAP1 DUP2 MSTORE SWAP1 DUP2 SWAP1 PUSH1 0x20 DUP3 ADD SWAP1 JUMP JUMPDEST CALLVALUE PUSH2 0x3E3 JUMPI PUSH1 0x20 DUP1 PUSH1 0x3 NOT CALLDATASIZE ADD SLT PUSH2 0x3E3 JUMPI PUSH1 0x4 CALLDATALOAD PUSH2 0x25A3 DUP2 PUSH2 0x3D2 JUMP JUMPDEST PUSH1 0x1 PUSH1 0x1 PUSH1 0xA0 SHL SUB AND PUSH1 0x0 SWAP1 DUP2 MSTORE PUSH1 0x16 PUSH1 0x20 SWAP1 DUP2 MSTORE PUSH1 0x40 DUP1 DUP4 KECCAK256 SWAP1 MLOAD DUP2 SLOAD DUP1 DUP3 MSTORE SWAP2 DUP5 MSTORE DUP3 DUP5 KECCAK256 SWAP3 DUP2 ADD SWAP5 SWAP1 SWAP4 SWAP1 JUMPDEST DUP3 DUP3 LT PUSH2 0x25E9 JUMPI PUSH2 0x987 DUP6 PUSH2 0x1537 DUP2 DUP10 SUB DUP3 PUSH2 0x525 JUMP JUMPDEST DUP4 SLOAD DUP7 MSTORE SWAP5 DUP6 ADD SWAP5 PUSH1 0x1 SWAP4 DUP5 ADD SWAP4 SWAP1 SWAP2 ADD SWAP1 PUSH2 0x25D2 JUMP JUMPDEST CALLVALUE PUSH2 0x3E3 JUMPI PUSH1 0x0 CALLDATASIZE PUSH1 0x3 NOT ADD SLT PUSH2 0x3E3 JUMPI PUSH1 0x20 PUSH1 0xA SLOAD PUSH1 0x40 MLOAD SWAP1 DUP2 MSTORE RETURN JUMPDEST CALLVALUE PUSH2 0x3E3 JUMPI PUSH1 0x0 DUP1 PUSH1 0x3 NOT CALLDATASIZE ADD SLT PUSH2 0xA10 JUMPI PUSH2 0x2638 PUSH2 0x3C3C JUMP JUMPDEST SELFBALANCE DUP1 ISZERO PUSH2 0x2666 JUMPI PUSH1 0x5 SLOAD DUP3 SWAP2 DUP3 SWAP2 DUP3 SWAP2 DUP3 SWAP2 PUSH2 0x265C SWAP1 PUSH1 0x1 PUSH1 0x1 PUSH1 0xA0 SHL SUB AND PUSH2 0xE44 JUMP JUMPDEST DUP3 CALL ISZERO PUSH2 0x18E1 JUMPI DUP1 RETURN JUMPDEST PUSH1 0x40 MLOAD PUSH3 0x461BCD PUSH1 0xE5 SHL DUP2 MSTORE PUSH1 0x20 PUSH1 0x4 DUP3 ADD MSTORE PUSH1 0x13 PUSH1 0x24 DUP3 ADD MSTORE PUSH19 0x4E6F206665657320746F207769746864726177 PUSH1 0x68 SHL PUSH1 0x44 DUP3 ADD MSTORE PUSH1 0x64 SWAP1 REVERT JUMPDEST CALLVALUE PUSH2 0x3E3 JUMPI PUSH1 0x20 CALLDATASIZE PUSH1 0x3 NOT ADD SLT PUSH2 0x3E3 JUMPI PUSH1 0x4 CALLDATALOAD PUSH1 0x10 SLOAD DUP2 LT ISZERO PUSH2 0x3E3 JUMPI PUSH1 0x10 PUSH1 0x0 MSTORE PUSH32 0x1B6847DC741A1B0CD08D278845F9D819D87B734759AFB55FE2DE5CB82A9AE672 ADD SLOAD PUSH1 0x40 MLOAD PUSH1 0x1 PUSH1 0x1 PUSH1 0xA0 SHL SUB SWAP1 SWAP2 AND DUP2 MSTORE PUSH1 0x20 SWAP1 RETURN JUMPDEST CALLVALUE PUSH2 0x3E3 JUMPI PUSH1 0x20 DUP1 PUSH1 0x3 NOT CALLDATASIZE ADD SLT PUSH2 0x3E3 JUMPI PUSH1 0x4 CALLDATALOAD PUSH2 0x271A DUP2 PUSH2 0x3D2 JUMP JUMPDEST PUSH1 0x1 PUSH1 0x1 PUSH1 0xA0 SHL SUB AND PUSH1 0x0 SWAP1 DUP2 MSTORE PUSH1 0x17 PUSH1 0x20 SWAP1 DUP2 MSTORE PUSH1 0x40 DUP1 DUP4 KECCAK256 SWAP1 MLOAD DUP2 SLOAD DUP1 DUP3 MSTORE SWAP2 DUP5 MSTORE DUP3 DUP5 KECCAK256 SWAP3 DUP2 ADD SWAP5 SWAP1 SWAP4 SWAP1 JUMPDEST DUP3 DUP3 LT PUSH2 0x2760 JUMPI PUSH2 0x987 DUP6 PUSH2 0x1537 DUP2 DUP10 SUB DUP3 PUSH2 0x525 JUMP JUMPDEST DUP4 SLOAD DUP7 MSTORE SWAP5 DUP6 ADD SWAP5 PUSH1 0x1 SWAP4 DUP5 ADD SWAP4 SWAP1 SWAP2 ADD SWAP1 PUSH2 0x2749 JUMP JUMPDEST CALLVALUE PUSH2 0x3E3 JUMPI PUSH1 0x40 CALLDATASIZE PUSH1 0x3 NOT ADD SLT PUSH2 0x3E3 JUMPI PUSH1 0x20 PUSH1 0xFF PUSH2 0x27D3 PUSH1 0x4 CALLDATALOAD PUSH2 0x279B DUP2 PUSH2 0x3D2 JUMP JUMPDEST PUSH1 0x24 CALLDATALOAD SWAP1 PUSH2 0x27A8 DUP3 PUSH2 0x3D2 JUMP JUMPDEST PUSH1 0x1 DUP1 PUSH1 0xA0 SHL SUB AND PUSH1 0x0 MSTORE PUSH1 0x1 DUP5 MSTORE PUSH1 0x40 PUSH1 0x0 KECCAK256 SWAP1 PUSH1 0x1 DUP1 PUSH1 0xA0 SHL SUB AND PUSH1 0x0 MSTORE PUSH1 0x20 MSTORE PUSH1 0x40 PUSH1 0x0 KECCAK256 SWAP1 JUMP JUMPDEST SLOAD AND PUSH1 0x40 MLOAD SWAP1 ISZERO ISZERO DUP2 MSTORE RETURN JUMPDEST CALLVALUE PUSH2 0x3E3 JUMPI PUSH1 0x20 CALLDATASIZE PUSH1 0x3 NOT ADD SLT PUSH2 0x3E3 JUMPI PUSH1 0x4 CALLDATALOAD PUSH1 0x1 PUSH1 0x1 PUSH1 0x40 SHL SUB DUP1 DUP3 GT PUSH2 0x3E3 JUMPI CALLDATASIZE PUSH1 0x23 DUP4 ADD SLT ISZERO PUSH2 0x3E3 JUMPI DUP2 PUSH1 0x4 ADD CALLDATALOAD SWAP1 DUP2 GT PUSH2 0x3E3 JUMPI PUSH1 0x24 PUSH1 0x5 SWAP3 CALLDATASIZE PUSH1 0x24 DUP5 PUSH1 0x5 SHL DUP4 ADD ADD GT PUSH2 0x3E3 JUMPI PUSH1 0x0 SWAP4 CALLER DUP6 MSTORE PUSH1 0xF PUSH1 0x20 MSTORE PUSH1 0xFF PUSH1 0x40 DUP7 KECCAK256 SLOAD AND DUP1 ISZERO PUSH2 0x2920 JUMPI JUMPDEST PUSH2 0x2850 SWAP1 PUSH2 0x2CAB JUMP JUMPDEST DUP5 JUMPDEST DUP5 DUP2 LT PUSH2 0x285D JUMPI DUP6 DUP1 RETURN JUMPDEST DUP1 DUP5 PUSH1 0x1 SWAP3 DUP5 SHL DUP6 ADD ADD CALLDATALOAD PUSH2 0x2871 DUP2 PUSH2 0x3D2 JUMP JUMPDEST PUSH1 0x1 PUSH1 0x1 PUSH1 0xA0 SHL SUB DUP2 AND PUSH1 0x0 SWAP1 DUP2 MSTORE PUSH1 0xD PUSH1 0x20 MSTORE PUSH1 0x40 SWAP1 KECCAK256 PUSH2 0x289B SWAP1 PUSH2 0x2896 SWAP1 PUSH2 0xDB1 JUMP JUMPDEST PUSH2 0x3BAB JUMP JUMPDEST PUSH2 0x28C5 PUSH2 0x28C0 PUSH2 0x17DB PUSH2 0xDB1 DUP5 PUSH1 0x1 DUP1 PUSH1 0xA0 SHL SUB AND PUSH1 0x0 MSTORE PUSH1 0xE PUSH1 0x20 MSTORE PUSH1 0x40 PUSH1 0x0 KECCAK256 SWAP1 JUMP JUMPDEST PUSH2 0x3BF0 JUMP JUMPDEST PUSH1 0x1 PUSH1 0x1 PUSH1 0xA0 SHL SUB DUP2 AND PUSH1 0x0 SWAP1 DUP2 MSTORE PUSH1 0xE PUSH1 0x20 MSTORE PUSH1 0x40 SWAP1 KECCAK256 PUSH2 0x28E6 SWAP1 PUSH2 0x1AB2 JUMP JUMPDEST PUSH2 0x28EF DUP2 PUSH2 0x3317 JUMP JUMPDEST DUP3 DUP1 PUSH1 0xA0 SHL SUB AND PUSH32 0x4F783C179409B4127238BC9C990BC99B9A651666A0D20B51D6C42849EB88466D DUP9 DUP1 LOG2 ADD PUSH2 0x2852 JUMP JUMPDEST POP PUSH1 0x5 SLOAD PUSH1 0x1 PUSH1 0x1 PUSH1 0xA0 SHL SUB AND CALLER EQ PUSH2 0x2847 JUMP JUMPDEST CALLVALUE PUSH2 0x3E3 JUMPI PUSH1 0xA0 CALLDATASIZE PUSH1 0x3 NOT ADD SLT PUSH2 0x3E3 JUMPI PUSH1 0x4 CALLDATALOAD PUSH2 0x2951 DUP2 PUSH2 0x3D2 JUMP JUMPDEST PUSH1 0x24 CALLDATALOAD PUSH2 0x295D DUP2 PUSH2 0x3D2 JUMP JUMPDEST PUSH1 0x84 CALLDATALOAD PUSH1 0x1 PUSH1 0x1 PUSH1 0x40 SHL SUB DUP2 GT PUSH2 0x3E3 JUMPI PUSH2 0x297C SWAP1 CALLDATASIZE SWAP1 PUSH1 0x4 ADD PUSH2 0x581 JUMP JUMPDEST SWAP1 PUSH1 0x1 PUSH1 0x1 PUSH1 0xA0 SHL SUB DUP4 DUP2 AND SWAP1 CALLER DUP3 EQ ISZERO DUP1 PUSH2 0x2A35 JUMPI JUMPDEST PUSH2 0x2A0E JUMPI DUP3 AND ISZERO PUSH2 0x29F5 JUMPI ISZERO PUSH2 0x29DD JUMPI PUSH2 0x108E SWAP3 PUSH2 0x29D5 PUSH1 0x64 CALLDATALOAD PUSH1 0x44 CALLDATALOAD SWAP2 PUSH1 0x40 MLOAD SWAP3 PUSH1 0x1 DUP5 MSTORE PUSH1 0x20 DUP5 ADD MSTORE PUSH1 0x40 DUP4 ADD SWAP2 PUSH1 0x1 DUP4 MSTORE PUSH1 0x60 DUP5 ADD MSTORE PUSH1 0x80 DUP4 ADD PUSH1 0x40 MSTORE JUMP JUMPDEST SWAP3 SWAP1 SWAP2 PUSH2 0x47FB JUMP JUMPDEST PUSH1 0x40 MLOAD PUSH3 0x6A0D45 PUSH1 0xE2 SHL DUP2 MSTORE PUSH1 0x0 PUSH1 0x4 DUP3 ADD MSTORE PUSH1 0x24 SWAP1 REVERT JUMPDEST PUSH1 0x40 MLOAD PUSH4 0x2BFA23E7 PUSH1 0xE1 SHL DUP2 MSTORE PUSH1 0x0 PUSH1 0x4 DUP3 ADD MSTORE PUSH1 0x24 SWAP1 REVERT JUMPDEST PUSH1 0x40 MLOAD PUSH4 0x711BEC91 PUSH1 0xE1 SHL DUP2 MSTORE CALLER PUSH1 0x4 DUP3 ADD MSTORE PUSH1 0x1 PUSH1 0x1 PUSH1 0xA0 SHL SUB DUP7 AND PUSH1 0x24 DUP3 ADD MSTORE PUSH1 0x44 SWAP1 REVERT JUMPDEST POP PUSH1 0x0 DUP3 DUP2 MSTORE PUSH1 0x1 PUSH1 0x20 SWAP1 DUP2 MSTORE PUSH1 0x40 DUP1 DUP4 KECCAK256 CALLER DUP5 MSTORE SWAP1 SWAP2 MSTORE SWAP1 KECCAK256 SLOAD PUSH1 0xFF AND ISZERO PUSH2 0x2993 JUMP JUMPDEST CALLVALUE PUSH2 0x3E3 JUMPI PUSH1 0x20 CALLDATASIZE PUSH1 0x3 NOT ADD SLT PUSH2 0x3E3 JUMPI PUSH1 0x4 CALLDATALOAD PUSH2 0x2A76 DUP2 PUSH2 0x3D2 JUMP JUMPDEST PUSH2 0x2A7E PUSH2 0x3C3C JUMP JUMPDEST PUSH1 0x1 PUSH1 0x1 PUSH1 0xA0 SHL SUB SWAP1 DUP2 AND SWAP1 DUP2 ISZERO PUSH2 0x2ACD JUMPI PUSH1 0x5 SLOAD DUP3 PUSH1 0x1 PUSH1 0x1 PUSH1 0x60 SHL SUB PUSH1 0xA0 SHL DUP3 AND OR PUSH1 0x5 SSTORE AND PUSH32 0x8BE0079C531659141344CD1FD0A4F28419497F9722A3DAAFE3B4186F6B6457E0 PUSH1 0x0 DUP1 LOG3 STOP JUMPDEST PUSH1 0x40 MLOAD PUSH4 0x1E4FBDF7 PUSH1 0xE0 SHL DUP2 MSTORE PUSH1 0x0 PUSH1 0x4 DUP3 ADD MSTORE PUSH1 0x24 SWAP1 REVERT JUMPDEST SWAP1 PUSH1 0xA PUSH2 0x2AF1 PUSH2 0x546 JUMP JUMPDEST DUP4 SLOAD DUP2 MSTORE PUSH1 0x1 DUP5 ADD SLOAD PUSH1 0x1 PUSH1 0x1 PUSH1 0xA0 SHL SUB AND PUSH1 0x20 DUP3 ADD MSTORE SWAP3 PUSH2 0x2B15 PUSH1 0x2 DUP3 ADD PUSH2 0x82B JUMP JUMPDEST PUSH1 0x40 DUP6 ADD MSTORE PUSH2 0x2B26 PUSH1 0x3 DUP3 ADD PUSH2 0x82B JUMP JUMPDEST PUSH1 0x60 DUP6 ADD MSTORE PUSH2 0x2B37 PUSH1 0x4 DUP3 ADD PUSH2 0x82B JUMP JUMPDEST PUSH1 0x80 DUP6 ADD MSTORE PUSH2 0x2B48 PUSH1 0x5 DUP3 ADD PUSH2 0x82B JUMP JUMPDEST PUSH1 0xA0 DUP6 ADD MSTORE PUSH1 0x6 DUP2 ADD SLOAD PUSH1 0xC0 DUP6 ADD MSTORE PUSH1 0x7 DUP2 ADD SLOAD PUSH1 0xE0 DUP6 ADD MSTORE PUSH1 0x8 DUP2 ADD SLOAD PUSH2 0x100 DUP6 ADD MSTORE PUSH2 0x2B7D PUSH2 0x126A PUSH1 0x9 DUP4 ADD SLOAD PUSH1 0xFF AND SWAP1 JUMP JUMPDEST ADD SLOAD PUSH2 0x140 DUP4 ADD MSTORE JUMP JUMPDEST PUSH1 0xB SLOAD DUP2 GT ISZERO DUP1 PUSH2 0x2C63 JUMPI JUMPDEST PUSH2 0x2BA1 JUMPI JUMPDEST POP PUSH2 0x927 PUSH2 0x765 JUMP JUMPDEST DUP1 PUSH1 0x0 MSTORE PUSH1 0x14 PUSH1 0x20 MSTORE PUSH1 0x40 PUSH1 0x0 KECCAK256 PUSH2 0x2BB7 PUSH2 0x546 JUMP JUMPDEST DUP2 SLOAD DUP2 MSTORE PUSH1 0x1 DUP3 ADD SLOAD PUSH2 0x2BD2 SWAP1 PUSH1 0x1 PUSH1 0x1 PUSH1 0xA0 SHL SUB AND PUSH2 0x11DB JUMP JUMPDEST PUSH2 0x2BDE PUSH1 0x2 DUP4 ADD PUSH2 0x82B JUMP JUMPDEST PUSH1 0x40 DUP3 ADD MSTORE PUSH2 0x2BEF PUSH1 0x3 DUP4 ADD PUSH2 0x82B JUMP JUMPDEST PUSH1 0x60 DUP3 ADD MSTORE PUSH2 0x140 PUSH1 0xA PUSH2 0x2C05 PUSH1 0x4 DUP6 ADD PUSH2 0x82B JUMP JUMPDEST SWAP4 PUSH1 0x80 DUP5 ADD SWAP5 DUP6 MSTORE PUSH2 0x2C19 PUSH1 0x5 DUP3 ADD PUSH2 0x82B JUMP JUMPDEST PUSH1 0xA0 DUP6 ADD MSTORE PUSH1 0x6 DUP2 ADD SLOAD PUSH1 0xC0 DUP6 ADD MSTORE PUSH1 0x7 DUP2 ADD SLOAD PUSH1 0xE0 DUP6 ADD MSTORE PUSH1 0x8 DUP2 ADD SLOAD PUSH2 0x100 DUP6 ADD MSTORE PUSH2 0x2C4E PUSH2 0x126A PUSH1 0x9 DUP4 ADD SLOAD PUSH1 0xFF AND SWAP1 JUMP JUMPDEST ADD SLOAD SWAP2 ADD MSTORE MLOAD MLOAD ISZERO PUSH2 0x2B98 JUMPI PUSH2 0x927 SWAP1 PUSH2 0x3C7F JUMP JUMPDEST POP DUP1 ISZERO ISZERO PUSH2 0x2B93 JUMP JUMPDEST ISZERO PUSH2 0x2C73 JUMPI JUMP JUMPDEST PUSH1 0x40 MLOAD PUSH3 0x461BCD PUSH1 0xE5 SHL DUP2 MSTORE PUSH1 0x20 PUSH1 0x4 DUP3 ADD MSTORE PUSH1 0x10 PUSH1 0x24 DUP3 ADD MSTORE PUSH16 0x125B9D985B1A59081D1BDAD95B881251 PUSH1 0x82 SHL PUSH1 0x44 DUP3 ADD MSTORE PUSH1 0x64 SWAP1 REVERT JUMPDEST ISZERO PUSH2 0x2CB2 JUMPI JUMP JUMPDEST PUSH1 0x40 MLOAD PUSH3 0x461BCD PUSH1 0xE5 SHL DUP2 MSTORE PUSH1 0x20 PUSH1 0x4 DUP3 ADD MSTORE PUSH1 0xC PUSH1 0x24 DUP3 ADD MSTORE PUSH12 0x2737BA1030B71030B236B4B7 PUSH1 0xA1 SHL PUSH1 0x44 DUP3 ADD MSTORE PUSH1 0x64 SWAP1 REVERT JUMPDEST ISZERO PUSH2 0x2CED JUMPI JUMP JUMPDEST PUSH1 0x40 MLOAD PUSH3 0x461BCD PUSH1 0xE5 SHL DUP2 MSTORE PUSH1 0x20 PUSH1 0x4 DUP3 ADD MSTORE PUSH1 0x1E PUSH1 0x24 DUP3 ADD MSTORE PUSH32 0x43616E6E6F742072656D6F7665206F776E65722066726F6D2061646D696E0000 PUSH1 0x44 DUP3 ADD MSTORE PUSH1 0x64 SWAP1 REVERT JUMPDEST ISZERO PUSH2 0x2D39 JUMPI JUMP JUMPDEST PUSH1 0x40 MLOAD PUSH3 0x461BCD PUSH1 0xE5 SHL DUP2 MSTORE PUSH1 0x20 PUSH1 0x4 DUP3 ADD MSTORE PUSH1 0x21 PUSH1 0x24 DUP3 ADD MSTORE PUSH32 0x43616E6E6F742072656D6F766520796F757273656C662066726F6D2061646D69 PUSH1 0x44 DUP3 ADD MSTORE PUSH1 0x37 PUSH1 0xF9 SHL PUSH1 0x64 DUP3 ADD MSTORE PUSH1 0x84 SWAP1 REVERT JUMPDEST PUSH4 0x4E487B71 PUSH1 0xE0 SHL PUSH1 0x0 MSTORE PUSH1 0x11 PUSH1 0x4 MSTORE PUSH1 0x24 PUSH1 0x0 REVERT JUMPDEST PUSH1 0x0 NOT DUP2 ADD SWAP2 SWAP1 DUP3 GT PUSH2 0x2DAD JUMPI JUMP JUMPDEST PUSH2 0x2D88 JUMP JUMPDEST PUSH1 0x1 NOT DUP2 ADD SWAP2 SWAP1 DUP3 GT PUSH2 0x2DAD JUMPI JUMP JUMPDEST SWAP2 SWAP1 DUP3 SUB SWAP2 DUP3 GT PUSH2 0x2DAD JUMPI JUMP JUMPDEST PUSH1 0x12 SLOAD DUP1 ISZERO PUSH2 0x2E22 JUMPI PUSH1 0x0 NOT DUP2 ADD SWAP1 DUP1 DUP3 LT ISZERO PUSH2 0x1610 JUMPI PUSH32 0xBB8A6A4669BA250D26CD7A459ECA9D215F8307E33AEBE50379BC5A3617EC3443 SWAP1 PUSH1 0x12 PUSH1 0x0 MSTORE ADD PUSH1 0x1 PUSH1 0x1 PUSH1 0x60 SHL SUB PUSH1 0xA0 SHL DUP2 SLOAD AND SWAP1 SSTORE PUSH1 0x12 SSTORE JUMP JUMPDEST PUSH4 0x4E487B71 PUSH1 0xE0 SHL PUSH1 0x0 MSTORE PUSH1 0x31 PUSH1 0x4 MSTORE PUSH1 0x24 PUSH1 0x0 REVERT JUMPDEST PUSH1 0x11 SLOAD DUP1 ISZERO PUSH2 0x2E22 JUMPI PUSH1 0x0 NOT DUP2 ADD SWAP1 DUP1 DUP3 LT ISZERO PUSH2 0x1610 JUMPI PUSH32 0x31ECC21A745E3968A04E9570E4425BC18FA8019C68028196B546D1669C200C67 SWAP1 PUSH1 0x11 PUSH1 0x0 MSTORE ADD PUSH1 0x1 PUSH1 0x1 PUSH1 0x60 SHL SUB PUSH1 0xA0 SHL DUP2 SLOAD AND SWAP1 SSTORE PUSH1 0x11 SSTORE JUMP JUMPDEST DUP1 MLOAD DUP3 LT ISZERO PUSH2 0x1610 JUMPI PUSH1 0x20 SWAP2 PUSH1 0x5 SHL ADD ADD SWAP1 JUMP JUMPDEST SWAP2 SWAP1 SWAP2 DUP1 MLOAD DUP4 MLOAD DUP1 DUP3 SUB PUSH2 0x2F3D JUMPI POP POP DUP1 MLOAD SWAP1 PUSH2 0x2ED5 PUSH2 0x2EBF DUP4 PUSH2 0xF6C JUMP JUMPDEST SWAP3 PUSH2 0x2ECD PUSH1 0x40 MLOAD SWAP5 DUP6 PUSH2 0x525 JUMP JUMPDEST DUP1 DUP5 MSTORE PUSH2 0xF6C JUMP JUMPDEST PUSH1 0x20 SWAP2 SWAP1 PUSH1 0x1F NOT ADD CALLDATASIZE DUP5 DUP5 ADD CALLDATACOPY PUSH1 0x0 JUMPDEST DUP2 MLOAD DUP2 LT ISZERO PUSH2 0x2F35 JUMPI PUSH1 0x5 DUP2 SWAP1 SHL DUP3 DUP2 ADD DUP5 ADD MLOAD SWAP1 DUP8 ADD DUP5 ADD MLOAD PUSH1 0x0 SWAP1 DUP2 MSTORE PUSH1 0x20 DUP2 DUP2 MSTORE PUSH1 0x40 DUP1 DUP4 KECCAK256 PUSH1 0x1 PUSH1 0x1 PUSH1 0xA0 SHL SUB SWAP1 SWAP5 AND DUP4 MSTORE SWAP3 SWAP1 MSTORE KECCAK256 SLOAD PUSH1 0x1 SWAP2 SWAP1 PUSH2 0x2F2E DUP3 DUP8 PUSH2 0x2E8C JUMP JUMPDEST MSTORE ADD PUSH2 0x2EE5 JUMP JUMPDEST POP SWAP2 SWAP4 POP POP POP JUMP JUMPDEST PUSH1 0x40 MLOAD PUSH4 0x5B059991 PUSH1 0xE0 SHL DUP2 MSTORE PUSH1 0x4 DUP2 ADD SWAP2 SWAP1 SWAP2 MSTORE PUSH1 0x24 DUP2 ADD SWAP2 SWAP1 SWAP2 MSTORE PUSH1 0x44 SWAP1 REVERT JUMPDEST ISZERO PUSH2 0x2F66 JUMPI JUMP JUMPDEST PUSH1 0x40 MLOAD PUSH3 0x461BCD PUSH1 0xE5 SHL DUP2 MSTORE PUSH1 0x20 PUSH1 0x4 DUP3 ADD MSTORE PUSH1 0xE PUSH1 0x24 DUP3 ADD MSTORE PUSH14 0x139BDD081D1A1948185C9D1A5CDD PUSH1 0x92 SHL PUSH1 0x44 DUP3 ADD MSTORE PUSH1 0x64 SWAP1 REVERT JUMPDEST ISZERO PUSH2 0x2FA3 JUMPI JUMP JUMPDEST PUSH1 0x40 MLOAD PUSH3 0x461BCD PUSH1 0xE5 SHL DUP2 MSTORE PUSH1 0x20 PUSH1 0x4 DUP3 ADD MSTORE PUSH1 0xF PUSH1 0x24 DUP3 ADD MSTORE PUSH15 0x139BDD081DDA1A5D195B1A5CDD1959 PUSH1 0x8A SHL PUSH1 0x44 DUP3 ADD MSTORE PUSH1 0x64 SWAP1 REVERT JUMPDEST ISZERO PUSH2 0x2FE1 JUMPI JUMP JUMPDEST PUSH1 0x40 MLOAD PUSH3 0x461BCD PUSH1 0xE5 SHL DUP2 MSTORE PUSH1 0x20 PUSH1 0x4 DUP3 ADD MSTORE PUSH1 0x15 PUSH1 0x24 DUP3 ADD MSTORE PUSH21 0x417274776F726B206973206E6F7420616374697665 PUSH1 0x58 SHL PUSH1 0x44 DUP3 ADD MSTORE PUSH1 0x64 SWAP1 REVERT JUMPDEST ISZERO PUSH2 0x3025 JUMPI JUMP JUMPDEST PUSH1 0x40 MLOAD PUSH3 0x461BCD PUSH1 0xE5 SHL DUP2 MSTORE PUSH1 0x20 PUSH1 0x4 DUP3 ADD MSTORE PUSH1 0x1D PUSH1 0x24 DUP3 ADD MSTORE PUSH32 0x416D6F756E74206D7573742062652067726561746572207468616E2030000000 PUSH1 0x44 DUP3 ADD MSTORE PUSH1 0x64 SWAP1 REVERT JUMPDEST SWAP1 PUSH1 0x2 DUP3 ADD DUP1 SWAP3 GT PUSH2 0x2DAD JUMPI JUMP JUMPDEST SWAP1 PUSH1 0x3 DUP3 ADD DUP1 SWAP3 GT PUSH2 0x2DAD JUMPI JUMP JUMPDEST SWAP1 PUSH1 0x1 DUP3 ADD DUP1 SWAP3 GT PUSH2 0x2DAD JUMPI JUMP JUMPDEST PUSH1 0x30 ADD SWAP1 DUP2 PUSH1 0x30 GT PUSH2 0x2DAD JUMPI JUMP JUMPDEST SWAP1 PUSH1 0xC DUP3 ADD DUP1 SWAP3 GT PUSH2 0x2DAD JUMPI JUMP JUMPDEST PUSH1 0x2 ADD SWAP1 DUP2 PUSH1 0x2 GT PUSH2 0x2DAD JUMPI JUMP JUMPDEST PUSH1 0x3 ADD SWAP1 DUP2 PUSH1 0x3 GT PUSH2 0x2DAD JUMPI JUMP JUMPDEST SWAP2 SWAP1 DUP3 ADD DUP1 SWAP3 GT PUSH2 0x2DAD JUMPI JUMP JUMPDEST ISZERO PUSH2 0x30E0 JUMPI JUMP JUMPDEST PUSH1 0x40 MLOAD PUSH3 0x461BCD PUSH1 0xE5 SHL DUP2 MSTORE PUSH1 0x20 PUSH1 0x4 DUP3 ADD MSTORE PUSH1 0x12 PUSH1 0x24 DUP3 ADD MSTORE PUSH18 0x45786365656473206D617820737570706C79 PUSH1 0x70 SHL PUSH1 0x44 DUP3 ADD MSTORE PUSH1 0x64 SWAP1 REVERT JUMPDEST SWAP1 PUSH2 0x3E8 SWAP2 DUP3 DUP2 MUL SWAP3 DUP2 DUP5 DIV EQ SWAP1 ISZERO OR ISZERO PUSH2 0x2DAD JUMPI JUMP JUMPDEST PUSH1 0x2 DUP2 SWAP1 SHL SWAP2 SWAP1 PUSH1 0x1 PUSH1 0x1 PUSH1 0xFE SHL SUB DUP2 AND SUB PUSH2 0x2DAD JUMPI JUMP JUMPDEST SWAP1 DUP2 PUSH1 0x1 SHL SWAP2 DUP1 DUP4 DIV PUSH1 0x2 EQ SWAP1 ISZERO OR ISZERO PUSH2 0x2DAD JUMPI JUMP JUMPDEST DUP2 DUP2 MUL SWAP3 SWAP2 DUP2 ISZERO SWAP2 DUP5 DIV EQ OR ISZERO PUSH2 0x2DAD JUMPI JUMP JUMPDEST ISZERO PUSH2 0x3179 JUMPI JUMP JUMPDEST PUSH1 0x40 MLOAD PUSH3 0x461BCD PUSH1 0xE5 SHL DUP2 MSTORE PUSH1 0x20 PUSH1 0x4 DUP3 ADD MSTORE PUSH1 0x14 PUSH1 0x24 DUP3 ADD MSTORE PUSH20 0x125B9CDD59999A58DA595B9D081C185E5B595B9D PUSH1 0x62 SHL PUSH1 0x44 DUP3 ADD MSTORE PUSH1 0x64 SWAP1 REVERT JUMPDEST PUSH1 0x40 MLOAD SWAP1 PUSH1 0x20 DUP3 ADD DUP3 DUP2 LT PUSH1 0x1 PUSH1 0x1 PUSH1 0x40 SHL SUB DUP3 GT OR PUSH2 0x4EA JUMPI PUSH1 0x40 MSTORE PUSH1 0x0 DUP3 MSTORE JUMP JUMPDEST DUP1 SLOAD PUSH1 0x1 PUSH1 0x40 SHL DUP2 LT ISZERO PUSH2 0x4EA JUMPI PUSH2 0x31F5 SWAP2 PUSH1 0x1 DUP3 ADD DUP2 SSTORE PUSH2 0x163A JUMP JUMPDEST DUP2 SWAP3 SWAP2 SLOAD SWAP1 PUSH1 0x3 SHL SWAP2 DUP3 SHL SWAP2 PUSH1 0x0 NOT SWAP1 SHL NOT AND OR SWAP1 SSTORE JUMP JUMPDEST PUSH1 0x40 MLOAD RETURNDATASIZE PUSH1 0x0 DUP3 RETURNDATACOPY RETURNDATASIZE SWAP1 REVERT JUMPDEST ISZERO PUSH2 0x3220 JUMPI JUMP JUMPDEST PUSH1 0x40 MLOAD PUSH3 0x461BCD PUSH1 0xE5 SHL DUP2 MSTORE PUSH1 0x20 PUSH1 0x4 DUP3 ADD MSTORE PUSH1 0x13 PUSH1 0x24 DUP3 ADD MSTORE PUSH19 0x105B1C9958591E481DDA1A5D195B1A5CDD1959 PUSH1 0x6A SHL PUSH1 0x44 DUP3 ADD MSTORE PUSH1 0x64 SWAP1 REVERT JUMPDEST PUSH1 0x10 SLOAD SWAP1 PUSH1 0x1 PUSH1 0x40 SHL DUP3 LT ISZERO PUSH2 0x4EA JUMPI PUSH1 0x1 DUP3 ADD DUP1 PUSH1 0x10 SSTORE DUP3 LT ISZERO PUSH2 0x1610 JUMPI PUSH1 0x10 PUSH1 0x0 MSTORE PUSH32 0x1B6847DC741A1B0CD08D278845F9D819D87B734759AFB55FE2DE5CB82A9AE672 SWAP1 SWAP2 ADD DUP1 SLOAD PUSH1 0x1 PUSH1 0x1 PUSH1 0xA0 SHL SUB NOT AND PUSH1 0x1 PUSH1 0x1 PUSH1 0xA0 SHL SUB SWAP1 SWAP3 AND SWAP2 SWAP1 SWAP2 OR SWAP1 SSTORE JUMP JUMPDEST PUSH1 0x12 SLOAD SWAP1 PUSH1 0x1 PUSH1 0x40 SHL DUP3 LT ISZERO PUSH2 0x4EA JUMPI PUSH1 0x1 DUP3 ADD DUP1 PUSH1 0x12 SSTORE DUP3 LT ISZERO PUSH2 0x1610 JUMPI PUSH1 0x12 PUSH1 0x0 MSTORE PUSH1 0x0 DUP1 MLOAD PUSH1 0x20 PUSH2 0x4FAA DUP4 CODECOPY DUP2 MLOAD SWAP2 MSTORE SWAP1 SWAP2 ADD DUP1 SLOAD PUSH1 0x1 PUSH1 0x1 PUSH1 0xA0 SHL SUB NOT AND PUSH1 0x1 PUSH1 0x1 PUSH1 0xA0 SHL SUB SWAP1 SWAP3 AND SWAP2 SWAP1 SWAP2 OR SWAP1 SSTORE JUMP JUMPDEST PUSH1 0x11 SLOAD SWAP1 PUSH1 0x1 PUSH1 0x40 SHL DUP3 LT ISZERO PUSH2 0x4EA JUMPI PUSH1 0x1 DUP3 ADD DUP1 PUSH1 0x11 SSTORE DUP3 LT ISZERO PUSH2 0x1610 JUMPI PUSH1 0x11 PUSH1 0x0 MSTORE PUSH1 0x0 DUP1 MLOAD PUSH1 0x20 PUSH2 0x4FCA DUP4 CODECOPY DUP2 MLOAD SWAP2 MSTORE SWAP1 SWAP2 ADD DUP1 SLOAD PUSH1 0x1 PUSH1 0x1 PUSH1 0xA0 SHL SUB NOT AND PUSH1 0x1 PUSH1 0x1 PUSH1 0xA0 SHL SUB SWAP1 SWAP3 AND SWAP2 SWAP1 SWAP2 OR SWAP1 SSTORE JUMP JUMPDEST ISZERO PUSH2 0x3373 JUMPI JUMP JUMPDEST PUSH1 0x40 MLOAD PUSH3 0x461BCD PUSH1 0xE5 SHL DUP2 MSTORE PUSH1 0x20 PUSH1 0x4 DUP3 ADD MSTORE PUSH1 0x10 PUSH1 0x24 DUP3 ADD MSTORE PUSH16 0x20B63932B0B23C9030B71030B236B4B7 PUSH1 0x81 SHL PUSH1 0x44 DUP3 ADD MSTORE PUSH1 0x64 SWAP1 REVERT JUMPDEST ISZERO PUSH2 0x33B2 JUMPI JUMP JUMPDEST PUSH1 0x40 MLOAD PUSH3 0x461BCD PUSH1 0xE5 SHL DUP2 MSTORE PUSH1 0x20 PUSH1 0x4 DUP3 ADD MSTORE PUSH1 0xF PUSH1 0x24 DUP3 ADD MSTORE PUSH15 0x496E76616C69642061646472657373 PUSH1 0x88 SHL PUSH1 0x44 DUP3 ADD MSTORE PUSH1 0x64 SWAP1 REVERT JUMPDEST ISZERO PUSH2 0x33F0 JUMPI JUMP JUMPDEST PUSH1 0x40 MLOAD PUSH3 0x461BCD PUSH1 0xE5 SHL DUP2 MSTORE PUSH1 0x20 PUSH1 0x4 DUP3 ADD MSTORE PUSH1 0x17 PUSH1 0x24 DUP3 ADD MSTORE PUSH32 0x41646472657373206E6F742077686974656C6973746564000000000000000000 PUSH1 0x44 DUP3 ADD MSTORE PUSH1 0x64 SWAP1 REVERT JUMPDEST ISZERO PUSH2 0x343C JUMPI JUMP JUMPDEST PUSH1 0x40 MLOAD PUSH3 0x461BCD PUSH1 0xE5 SHL DUP2 MSTORE PUSH1 0x20 PUSH1 0x4 DUP3 ADD MSTORE PUSH1 0x22 PUSH1 0x24 DUP3 ADD MSTORE PUSH32 0x43616E6E6F742072656D6F7665206F776E65722066726F6D2077686974656C69 PUSH1 0x44 DUP3 ADD MSTORE PUSH2 0x1CDD PUSH1 0xF2 SHL PUSH1 0x64 DUP3 ADD MSTORE PUSH1 0x84 SWAP1 REVERT JUMPDEST DUP2 DUP2 LT PUSH2 0x3497 JUMPI POP POP JUMP JUMPDEST PUSH1 0x0 DUP2 SSTORE PUSH1 0x1 ADD PUSH2 0x348C JUMP JUMPDEST SWAP1 PUSH1 0x1F DUP3 GT PUSH2 0x34B0 JUMPI POP POP JUMP JUMPDEST PUSH2 0x7A4 SWAP2 PUSH1 0x2 PUSH1 0x0 MSTORE PUSH32 0x405787FA12A823E0F2B7631CC41B3BA8828B3321CA811111FA75CD3AA3BB5ACE SWAP1 PUSH1 0x20 PUSH1 0x1F DUP5 ADD PUSH1 0x5 SHR DUP4 ADD SWAP4 LT PUSH2 0x34FA JUMPI JUMPDEST PUSH1 0x1F ADD PUSH1 0x5 SHR ADD SWAP1 PUSH2 0x348C JUMP JUMPDEST SWAP1 SWAP2 POP DUP2 SWAP1 PUSH2 0x34ED JUMP JUMPDEST SWAP2 SWAP1 PUSH1 0x1F DUP2 GT PUSH2 0x3513 JUMPI POP POP POP JUMP JUMPDEST PUSH2 0x7A4 SWAP3 PUSH1 0x0 MSTORE PUSH1 0x20 PUSH1 0x0 KECCAK256 SWAP1 PUSH1 0x20 PUSH1 0x1F DUP5 ADD PUSH1 0x5 SHR DUP4 ADD SWAP4 LT PUSH2 0x34FA JUMPI PUSH1 0x1F ADD PUSH1 0x5 SHR ADD SWAP1 PUSH2 0x348C JUMP JUMPDEST SWAP2 SWAP1 SWAP2 DUP3 MLOAD PUSH1 0x1 PUSH1 0x1 PUSH1 0x40 SHL SUB DUP2 GT PUSH2 0x4EA JUMPI PUSH2 0x3565 DUP2 PUSH2 0x355F DUP5 SLOAD PUSH2 0x72B JUMP JUMPDEST DUP5 PUSH2 0x3504 JUMP JUMPDEST PUSH1 0x20 DUP1 PUSH1 0x1F DUP4 GT PUSH1 0x1 EQ PUSH2 0x359C JUMPI POP DUP2 SWAP1 PUSH2 0x3598 SWAP4 SWAP5 SWAP6 PUSH1 0x0 SWAP3 PUSH2 0x657 JUMPI POP POP DUP2 PUSH1 0x1 SHL SWAP2 PUSH1 0x0 NOT SWAP1 PUSH1 0x3 SHL SHR NOT AND OR SWAP1 JUMP JUMPDEST SWAP1 SSTORE JUMP JUMPDEST SWAP1 PUSH1 0x1F NOT DUP4 AND SWAP6 PUSH2 0x35B2 DUP6 PUSH1 0x0 MSTORE PUSH1 0x20 PUSH1 0x0 KECCAK256 SWAP1 JUMP JUMPDEST SWAP3 PUSH1 0x0 SWAP1 JUMPDEST DUP9 DUP3 LT PUSH2 0x35EF JUMPI POP POP DUP4 PUSH1 0x1 SWAP6 SWAP7 SWAP8 LT PUSH2 0x35D6 JUMPI JUMPDEST POP POP POP DUP2 SHL ADD SWAP1 SSTORE JUMP JUMPDEST ADD MLOAD PUSH1 0x0 NOT PUSH1 0xF8 DUP5 PUSH1 0x3 SHL AND SHR NOT AND SWAP1 SSTORE CODESIZE DUP1 DUP1 PUSH2 0x35CC JUMP JUMPDEST DUP1 PUSH1 0x1 DUP6 SWAP7 DUP3 SWAP5 SWAP7 DUP7 ADD MLOAD DUP2 SSTORE ADD SWAP6 ADD SWAP4 ADD SWAP1 PUSH2 0x35B7 JUMP JUMPDEST SWAP2 PUSH2 0x3630 SWAP1 PUSH2 0x3622 PUSH2 0x927 SWAP6 SWAP4 PUSH1 0x60 DUP7 MSTORE PUSH1 0x60 DUP7 ADD SWAP1 PUSH2 0x8F1 JUMP JUMPDEST SWAP1 DUP5 DUP3 SUB PUSH1 0x20 DUP7 ADD MSTORE PUSH2 0x8F1 JUMP JUMPDEST SWAP2 PUSH1 0x40 DUP2 DUP5 SUB SWAP2 ADD MSTORE PUSH2 0x8F1 JUMP JUMPDEST SWAP4 PUSH2 0x37EE PUSH32 0x4DDC8815460A355E3D190E794EC142559A99D61AE53CF57DF333C9286E76C548 SWAP4 SWAP7 SWAP3 SWAP7 PUSH2 0x366F PUSH2 0x40E5 JUMP JUMPDEST PUSH2 0x3677 PUSH2 0x4103 JUMP JUMPDEST PUSH1 0xFF PUSH1 0xC SLOAD AND PUSH2 0x3813 JUMPI JUMPDEST PUSH2 0x368D DUP5 ISZERO ISZERO PUSH2 0x384E JUMP JUMPDEST PUSH2 0x3699 DUP8 MLOAD ISZERO ISZERO PUSH2 0x38A4 JUMP JUMPDEST PUSH2 0x36A5 DUP2 MLOAD ISZERO ISZERO PUSH2 0x38E8 JUMP JUMPDEST PUSH2 0x36B4 PUSH2 0x4000 DUP3 MLOAD GT ISZERO PUSH2 0x3934 JUMP JUMPDEST PUSH2 0x36C0 DUP7 MLOAD ISZERO ISZERO PUSH2 0x3980 JUMP JUMPDEST PUSH2 0x36D1 PUSH2 0x36CC DUP8 PUSH2 0x429C JUMP JUMPDEST PUSH2 0x39CC JUMP JUMPDEST PUSH2 0x36E4 PUSH2 0x36DF PUSH1 0xB SLOAD PUSH2 0x3A0D JUMP JUMPDEST PUSH1 0xB SSTORE JUMP JUMPDEST PUSH2 0x3757 PUSH1 0xB SLOAD SWAP9 DUP10 SWAP8 PUSH2 0x36F5 PUSH2 0x546 JUMP JUMPDEST DUP10 DUP2 MSTORE CALLER PUSH1 0x20 DUP3 ADD MSTORE SWAP2 DUP11 PUSH1 0x40 DUP5 ADD MSTORE PUSH1 0x60 DUP4 ADD MSTORE DUP4 PUSH1 0x80 DUP4 ADD MSTORE PUSH1 0xA0 DUP3 ADD MSTORE DUP5 PUSH1 0xC0 DUP3 ADD MSTORE DUP6 PUSH1 0xE0 DUP3 ADD MSTORE PUSH1 0x0 PUSH2 0x100 DUP3 ADD MSTORE PUSH2 0x3737 PUSH2 0x120 DUP3 ADD PUSH1 0x1 SWAP1 MSTORE JUMP JUMPDEST TIMESTAMP PUSH2 0x140 DUP3 ADD MSTORE PUSH2 0x3752 DUP9 PUSH1 0x0 MSTORE PUSH1 0x14 PUSH1 0x20 MSTORE PUSH1 0x40 PUSH1 0x0 KECCAK256 SWAP1 JUMP JUMPDEST PUSH2 0x3AC1 JUMP JUMPDEST PUSH2 0x378E CALLER PUSH2 0x376F DUP9 PUSH1 0x0 MSTORE PUSH1 0x15 PUSH1 0x20 MSTORE PUSH1 0x40 PUSH1 0x0 KECCAK256 SWAP1 JUMP JUMPDEST DUP1 SLOAD PUSH1 0x1 PUSH1 0x1 PUSH1 0xA0 SHL SUB NOT AND PUSH1 0x1 PUSH1 0x1 PUSH1 0xA0 SHL SUB SWAP1 SWAP3 AND SWAP2 SWAP1 SWAP2 OR SWAP1 SSTORE JUMP JUMPDEST CALLER PUSH1 0x0 SWAP1 DUP2 MSTORE PUSH1 0x16 PUSH1 0x20 MSTORE PUSH1 0x40 SWAP1 KECCAK256 PUSH2 0x37A8 SWAP1 DUP8 SWAP1 PUSH2 0x31D8 JUMP JUMPDEST CALLER PUSH1 0x0 SWAP1 DUP2 MSTORE PUSH1 0x13 PUSH1 0x20 MSTORE PUSH1 0x40 SWAP1 KECCAK256 PUSH1 0x3 SWAP1 PUSH1 0x5 DUP2 ADD PUSH2 0x37CC PUSH2 0x17DB DUP3 SLOAD PUSH1 0xFF AND SWAP1 JUMP JUMPDEST PUSH2 0x37FB JUMPI JUMPDEST POP ADD PUSH2 0x37DD DUP2 SLOAD PUSH2 0x3A0D JUMP JUMPDEST SWAP1 SSTORE MLOAD PUSH1 0x40 MLOAD SWAP4 DUP5 SWAP4 CALLER SWAP9 DUP6 PUSH2 0x3B83 JUMP JUMPDEST SUB SWAP1 LOG3 PUSH2 0x927 PUSH1 0x1 PUSH1 0x6 SSTORE JUMP JUMPDEST DUP1 SLOAD PUSH1 0xFF NOT AND PUSH1 0x1 OR SWAP1 SSTORE PUSH1 0x0 PUSH1 0x4 DUP3 ADD SSTORE CODESIZE PUSH2 0x37D1 JUMP JUMPDEST CALLER PUSH1 0x0 MSTORE PUSH1 0xE PUSH1 0x20 MSTORE PUSH1 0xFF PUSH1 0x40 PUSH1 0x0 KECCAK256 SLOAD AND DUP1 ISZERO PUSH2 0x383A JUMPI JUMPDEST PUSH2 0x3835 SWAP1 PUSH2 0x2F9C JUMP JUMPDEST PUSH2 0x3682 JUMP JUMPDEST POP PUSH1 0x5 SLOAD PUSH1 0x1 PUSH1 0x1 PUSH1 0xA0 SHL SUB AND CALLER EQ PUSH2 0x382C JUMP JUMPDEST ISZERO PUSH2 0x3855 JUMPI JUMP JUMPDEST PUSH1 0x40 MLOAD PUSH3 0x461BCD PUSH1 0xE5 SHL DUP2 MSTORE PUSH1 0x20 PUSH1 0x4 DUP3 ADD MSTORE PUSH1 0x21 PUSH1 0x24 DUP3 ADD MSTORE PUSH32 0x4D617820737570706C79206D7573742062652067726561746572207468616E20 PUSH1 0x44 DUP3 ADD MSTORE PUSH1 0x3 PUSH1 0xFC SHL PUSH1 0x64 DUP3 ADD MSTORE PUSH1 0x84 SWAP1 REVERT JUMPDEST ISZERO PUSH2 0x38AB JUMPI JUMP JUMPDEST PUSH1 0x40 MLOAD PUSH3 0x461BCD PUSH1 0xE5 SHL DUP2 MSTORE PUSH1 0x20 PUSH1 0x4 DUP3 ADD MSTORE PUSH1 0x15 PUSH1 0x24 DUP3 ADD MSTORE PUSH21 0x5469746C652063616E6E6F7420626520656D707479 PUSH1 0x58 SHL PUSH1 0x44 DUP3 ADD MSTORE PUSH1 0x64 SWAP1 REVERT JUMPDEST ISZERO PUSH2 0x38EF JUMPI JUMP JUMPDEST PUSH1 0x40 MLOAD PUSH3 0x461BCD PUSH1 0xE5 SHL DUP2 MSTORE PUSH1 0x20 PUSH1 0x4 DUP3 ADD MSTORE PUSH1 0x1A PUSH1 0x24 DUP3 ADD MSTORE PUSH32 0x496D61676520646174612063616E6E6F7420626520656D707479000000000000 PUSH1 0x44 DUP3 ADD MSTORE PUSH1 0x64 SWAP1 REVERT JUMPDEST ISZERO PUSH2 0x393B JUMPI JUMP JUMPDEST PUSH1 0x40 MLOAD PUSH3 0x461BCD PUSH1 0xE5 SHL DUP2 MSTORE PUSH1 0x20 PUSH1 0x4 DUP3 ADD MSTORE PUSH1 0x1A PUSH1 0x24 DUP3 ADD MSTORE PUSH32 0x496D61676520746F6F206C61726765202831364B42206D617829000000000000 PUSH1 0x44 DUP3 ADD MSTORE PUSH1 0x64 SWAP1 REVERT JUMPDEST ISZERO PUSH2 0x3987 JUMPI JUMP JUMPDEST PUSH1 0x40 MLOAD PUSH3 0x461BCD PUSH1 0xE5 SHL DUP2 MSTORE PUSH1 0x20 PUSH1 0x4 DUP3 ADD MSTORE PUSH1 0x1A PUSH1 0x24 DUP3 ADD MSTORE PUSH32 0x496D61676520747970652063616E6E6F7420626520656D707479000000000000 PUSH1 0x44 DUP3 ADD MSTORE PUSH1 0x64 SWAP1 REVERT JUMPDEST ISZERO PUSH2 0x39D3 JUMPI JUMP JUMPDEST PUSH1 0x40 MLOAD PUSH3 0x461BCD PUSH1 0xE5 SHL DUP2 MSTORE PUSH1 0x20 PUSH1 0x4 DUP3 ADD MSTORE PUSH1 0x12 PUSH1 0x24 DUP3 ADD MSTORE PUSH18 0x496E76616C696420696D6167652074797065 PUSH1 0x70 SHL PUSH1 0x44 DUP3 ADD MSTORE PUSH1 0x64 SWAP1 REVERT JUMPDEST PUSH1 0x0 NOT DUP2 EQ PUSH2 0x2DAD JUMPI PUSH1 0x1 ADD SWAP1 JUMP JUMPDEST SWAP2 SWAP1 SWAP2 DUP3 MLOAD PUSH1 0x1 PUSH1 0x1 PUSH1 0x40 SHL SUB DUP2 GT PUSH2 0x4EA JUMPI PUSH2 0x3A3D DUP2 PUSH2 0x355F DUP5 SLOAD PUSH2 0x72B JUMP JUMPDEST PUSH1 0x20 DUP1 PUSH1 0x1F DUP4 GT PUSH1 0x1 EQ PUSH2 0x3A70 JUMPI POP DUP2 SWAP1 PUSH2 0x3598 SWAP4 SWAP5 SWAP6 PUSH1 0x0 SWAP3 PUSH2 0x657 JUMPI POP POP DUP2 PUSH1 0x1 SHL SWAP2 PUSH1 0x0 NOT SWAP1 PUSH1 0x3 SHL SHR NOT AND OR SWAP1 JUMP JUMPDEST SWAP1 PUSH1 0x1F NOT DUP4 AND SWAP6 PUSH2 0x3A86 DUP6 PUSH1 0x0 MSTORE PUSH1 0x20 PUSH1 0x0 KECCAK256 SWAP1 JUMP JUMPDEST SWAP3 PUSH1 0x0 SWAP1 JUMPDEST DUP9 DUP3 LT PUSH2 0x3AA9 JUMPI POP POP DUP4 PUSH1 0x1 SWAP6 SWAP7 SWAP8 LT PUSH2 0x35D6 JUMPI POP POP POP DUP2 SHL ADD SWAP1 SSTORE JUMP JUMPDEST DUP1 PUSH1 0x1 DUP6 SWAP7 DUP3 SWAP5 SWAP7 DUP7 ADD MLOAD DUP2 SSTORE ADD SWAP6 ADD SWAP4 ADD SWAP1 PUSH2 0x3A8B JUMP JUMPDEST DUP2 MLOAD DUP2 SSTORE PUSH1 0x20 DUP3 ADD MLOAD PUSH1 0x1 DUP3 ADD DUP1 SLOAD PUSH1 0x1 PUSH1 0x1 PUSH1 0xA0 SHL SUB NOT AND PUSH1 0x1 PUSH1 0x1 PUSH1 0xA0 SHL SUB SWAP1 SWAP3 AND SWAP2 SWAP1 SWAP2 OR SWAP1 SSTORE SWAP1 PUSH1 0xA SWAP1 PUSH2 0x140 SWAP1 PUSH2 0x3B04 PUSH1 0x40 DUP3 ADD MLOAD PUSH1 0x2 DUP7 ADD PUSH2 0x353E JUMP JUMPDEST PUSH2 0x3B15 PUSH1 0x60 DUP3 ADD MLOAD PUSH1 0x3 DUP7 ADD PUSH2 0x353E JUMP JUMPDEST PUSH2 0x3B26 PUSH1 0x80 DUP3 ADD MLOAD PUSH1 0x4 DUP7 ADD PUSH2 0x3A1C JUMP JUMPDEST PUSH2 0x3B37 PUSH1 0xA0 DUP3 ADD MLOAD PUSH1 0x5 DUP7 ADD PUSH2 0x353E JUMP JUMPDEST PUSH1 0xC0 DUP2 ADD MLOAD PUSH1 0x6 DUP6 ADD SSTORE PUSH1 0xE0 DUP2 ADD MLOAD PUSH1 0x7 DUP6 ADD SSTORE PUSH2 0x100 DUP2 ADD MLOAD PUSH1 0x8 DUP6 ADD SSTORE PUSH2 0x3B7C PUSH2 0x3B67 PUSH2 0x120 DUP4 ADD MLOAD ISZERO ISZERO SWAP1 JUMP JUMPDEST PUSH1 0x9 DUP7 ADD SWAP1 PUSH1 0xFF DUP1 NOT DUP4 SLOAD AND SWAP2 ISZERO ISZERO AND OR SWAP1 SSTORE JUMP JUMPDEST ADD MLOAD SWAP2 ADD SSTORE JUMP JUMPDEST SWAP1 SWAP3 PUSH2 0x3B9C PUSH1 0x60 SWAP4 SWAP7 SWAP6 SWAP5 PUSH1 0x80 DUP5 MSTORE PUSH1 0x80 DUP5 ADD SWAP1 PUSH2 0x8F1 JUMP JUMPDEST SWAP6 PUSH1 0x20 DUP4 ADD MSTORE PUSH1 0x40 DUP3 ADD MSTORE ADD MSTORE JUMP JUMPDEST ISZERO PUSH2 0x3BB2 JUMPI JUMP JUMPDEST PUSH1 0x40 MLOAD PUSH3 0x461BCD PUSH1 0xE5 SHL DUP2 MSTORE PUSH1 0x20 PUSH1 0x4 DUP3 ADD MSTORE PUSH1 0x16 PUSH1 0x24 DUP3 ADD MSTORE PUSH22 0x1059191C995CDCC81B9BDD081A5B9D195C995CDD1959 PUSH1 0x52 SHL PUSH1 0x44 DUP3 ADD MSTORE PUSH1 0x64 SWAP1 REVERT JUMPDEST ISZERO PUSH2 0x3BF7 JUMPI JUMP JUMPDEST PUSH1 0x40 MLOAD PUSH3 0x461BCD PUSH1 0xE5 SHL DUP2 MSTORE PUSH1 0x20 PUSH1 0x4 DUP3 ADD MSTORE PUSH1 0x1B PUSH1 0x24 DUP3 ADD MSTORE PUSH32 0x4164647265737320616C72656164792077686974656C69737465640000000000 PUSH1 0x44 DUP3 ADD MSTORE PUSH1 0x64 SWAP1 REVERT JUMPDEST PUSH1 0x5 SLOAD PUSH1 0x1 PUSH1 0x1 PUSH1 0xA0 SHL SUB AND CALLER SUB PUSH2 0x3C50 JUMPI JUMP JUMPDEST PUSH1 0x40 MLOAD PUSH4 0x118CDAA7 PUSH1 0xE0 SHL DUP2 MSTORE CALLER PUSH1 0x4 DUP3 ADD MSTORE PUSH1 0x24 SWAP1 REVERT JUMPDEST SWAP1 PUSH2 0x3C7B PUSH1 0x20 SWAP3 DUP3 DUP2 MLOAD SWAP5 DUP6 SWAP3 ADD PUSH2 0x8CE JUMP JUMPDEST ADD SWAP1 JUMP JUMPDEST PUSH2 0x3C93 DUP2 PUSH1 0x0 MSTORE PUSH1 0x14 PUSH1 0x20 MSTORE PUSH1 0x40 PUSH1 0x0 KECCAK256 SWAP1 JUMP JUMPDEST PUSH2 0x3C9C SWAP1 PUSH2 0x2AE6 JUMP JUMPDEST PUSH1 0xA0 DUP2 ADD SWAP2 DUP3 MLOAD PUSH1 0x80 DUP4 ADD SWAP3 DUP4 MLOAD PUSH2 0x3CB3 SWAP1 PUSH2 0x445C JUMP JUMPDEST PUSH1 0x40 MLOAD PUSH11 0x646174613A696D6167652F PUSH1 0xA8 SHL PUSH1 0x20 DUP3 ADD MSTORE SWAP3 DUP4 SWAP2 SWAP1 PUSH1 0x2B DUP4 ADD PUSH2 0x3CDB SWAP2 PUSH2 0x3C68 JUMP JUMPDEST PUSH8 0xED8985CD94D8D0B PUSH1 0xC2 SHL DUP2 MSTORE PUSH1 0x8 ADD PUSH2 0x3CF5 SWAP2 PUSH2 0x3C68 JUMP JUMPDEST SUB SWAP5 PUSH1 0x1F NOT SWAP6 DUP7 DUP2 ADD DUP5 MSTORE PUSH2 0x3D0A SWAP1 DUP5 PUSH2 0x525 JUMP JUMPDEST PUSH1 0x40 DUP3 ADD MLOAD SWAP4 PUSH2 0x3D19 SWAP1 PUSH2 0x4653 JUMP JUMPDEST SWAP5 PUSH1 0x60 DUP4 ADD MLOAD SWAP4 PUSH1 0xE0 DUP5 ADD MLOAD PUSH2 0x3D2E SWAP1 PUSH2 0x4653 JUMP JUMPDEST PUSH2 0x100 DUP6 ADD MLOAD PUSH2 0x3D3D SWAP1 PUSH2 0x4653 JUMP JUMPDEST SWAP2 PUSH1 0xC0 DUP7 ADD MLOAD PUSH2 0x3D4C SWAP1 PUSH2 0x4653 JUMP JUMPDEST SWAP4 MLOAD MLOAD PUSH2 0x3D58 SWAP1 PUSH2 0x4653 JUMP JUMPDEST SWAP5 MLOAD PUSH1 0x20 SWAP1 SWAP7 ADD MLOAD PUSH1 0x1 PUSH1 0x1 PUSH1 0xA0 SHL SUB AND PUSH2 0x3D72 SWAP1 PUSH2 0x471F JUMP JUMPDEST PUSH1 0x40 MLOAD PUSH9 0x3D913730B6B2911D11 PUSH1 0xB9 SHL PUSH1 0x20 DUP3 ADD MSTORE SWAP10 DUP11 SWAP10 SWAP2 SWAP9 SWAP2 PUSH1 0x29 DUP12 ADD PUSH2 0x3D9A SWAP2 PUSH2 0x3C68 JUMP JUMPDEST PUSH2 0x2023 PUSH1 0xF0 SHL DUP2 MSTORE PUSH1 0x2 ADD PUSH2 0x3DAE SWAP2 PUSH2 0x3C68 JUMP JUMPDEST PUSH2 0x88B PUSH1 0xF2 SHL DUP2 MSTORE PUSH1 0x2 ADD PUSH15 0x113232B9B1B934B83A34B7B7111D11 PUSH1 0x89 SHL DUP2 MSTORE PUSH1 0xF ADD PUSH2 0x3DDA SWAP2 PUSH2 0x3C68 JUMP JUMPDEST PUSH2 0x88B PUSH1 0xF2 SHL DUP2 MSTORE PUSH1 0x2 ADD PUSH9 0x1134B6B0B3B2911D11 PUSH1 0xB9 SHL DUP2 MSTORE PUSH1 0x9 ADD PUSH2 0x3E00 SWAP2 PUSH2 0x3C68 JUMP JUMPDEST PUSH2 0x88B PUSH1 0xF2 SHL DUP2 MSTORE PUSH1 0x2 ADD PUSH14 0x2261747472696275746573223A5B PUSH1 0x90 SHL DUP2 MSTORE PUSH1 0xE ADD PUSH32 0x7B2274726169745F74797065223A22546F6B656E205374616E64617264222C22 DUP2 MSTORE PUSH19 0x1D985B1D59488E88915490CB4C4C4D4D489F4B PUSH1 0x6A SHL PUSH1 0x20 DUP3 ADD MSTORE PUSH1 0x33 ADD PUSH32 0x7B2274726169745F74797065223A2253746F72616765222C2276616C7565223A DUP2 MSTORE PUSH12 0x893DB8B58DA185A5B889F4B PUSH1 0xA2 SHL PUSH1 0x20 DUP3 ADD MSTORE PUSH1 0x2C ADD PUSH32 0x7B2274726169745F74797065223A224D617820537570706C79222C2276616C75 DUP2 MSTORE PUSH3 0x32911D PUSH1 0xE9 SHL PUSH1 0x20 DUP3 ADD MSTORE PUSH1 0x23 ADD PUSH2 0x3EDA SWAP2 PUSH2 0x3C68 JUMP JUMPDEST PUSH2 0x1F4B PUSH1 0xF2 SHL DUP2 MSTORE PUSH1 0x2 ADD PUSH32 0x7B2274726169745F74797065223A2243757272656E7420537570706C79222C22 DUP2 MSTORE PUSH7 0x3B30B63AB2911D PUSH1 0xC9 SHL PUSH1 0x20 DUP3 ADD MSTORE PUSH1 0x27 ADD PUSH2 0x3F24 SWAP2 PUSH2 0x3C68 JUMP JUMPDEST PUSH2 0x1F4B PUSH1 0xF2 SHL DUP2 MSTORE PUSH1 0x2 ADD PUSH32 0x7B2274726169745F74797065223A225072696365202857656929222C2276616C DUP2 MSTORE PUSH4 0x3AB2911D PUSH1 0xE1 SHL PUSH1 0x20 DUP3 ADD MSTORE PUSH1 0x24 ADD PUSH2 0x3F6B SWAP2 PUSH2 0x3C68 JUMP JUMPDEST PUSH2 0x1F4B PUSH1 0xF2 SHL DUP2 MSTORE PUSH1 0x2 ADD PUSH32 0x7B2274726169745F74797065223A2246696C652053697A65222C2276616C7565 DUP2 MSTORE PUSH2 0x111D PUSH1 0xF1 SHL PUSH1 0x20 DUP3 ADD MSTORE PUSH1 0x22 ADD PUSH2 0x3FB0 SWAP2 PUSH2 0x3C68 JUMP JUMPDEST PUSH2 0x1F4B PUSH1 0xF2 SHL DUP2 MSTORE PUSH1 0x2 ADD PUSH32 0x7B2274726169745F74797065223A2246696C652054797065222C2276616C7565 DUP2 MSTORE PUSH3 0x111D11 PUSH1 0xE9 SHL PUSH1 0x20 DUP3 ADD MSTORE PUSH1 0x23 ADD PUSH2 0x3FF6 SWAP2 PUSH2 0x3C68 JUMP JUMPDEST PUSH3 0x89F4B PUSH1 0xEA SHL DUP2 MSTORE PUSH1 0x3 ADD PUSH32 0x7B2274726169745F74797065223A2243726561746F72222C2276616C7565223A DUP2 MSTORE PUSH1 0x11 PUSH1 0xF9 SHL PUSH1 0x20 DUP3 ADD MSTORE PUSH1 0x21 ADD PUSH2 0x403B SWAP2 PUSH2 0x3C68 JUMP JUMPDEST PUSH2 0x227D PUSH1 0xF0 SHL DUP2 MSTORE PUSH1 0x2 ADD PUSH2 0x174B PUSH1 0xF2 SHL DUP2 MSTORE PUSH1 0x2 ADD PUSH32 0x2270726F70657274696573223A7B2263617465676F7279223A22696D61676522 DUP2 MSTORE PUSH2 0x7D7D PUSH1 0xF0 SHL PUSH1 0x20 DUP3 ADD MSTORE PUSH1 0x22 ADD SUB DUP3 DUP2 ADD DUP3 MSTORE PUSH2 0x4092 SWAP1 DUP3 PUSH2 0x525 JUMP JUMPDEST PUSH2 0x409B SWAP1 PUSH2 0x445C JUMP JUMPDEST PUSH1 0x40 MLOAD PUSH32 0x646174613A6170706C69636174696F6E2F6A736F6E3B6261736536342C000000 PUSH1 0x20 DUP3 ADD MSTORE SWAP2 SWAP1 DUP3 SWAP1 PUSH1 0x3D DUP3 ADD PUSH2 0x40D5 SWAP2 PUSH2 0x3C68 JUMP JUMPDEST SUB SWAP1 DUP2 ADD DUP3 MSTORE PUSH2 0x927 SWAP1 DUP3 PUSH2 0x525 JUMP JUMPDEST PUSH1 0xFF PUSH1 0x7 SLOAD AND PUSH2 0x40F1 JUMPI JUMP JUMPDEST PUSH1 0x40 MLOAD PUSH4 0xD93C0665 PUSH1 0xE0 SHL DUP2 MSTORE PUSH1 0x4 SWAP1 REVERT JUMPDEST PUSH1 0x2 PUSH1 0x6 SLOAD EQ PUSH2 0x4114 JUMPI PUSH1 0x2 PUSH1 0x6 SSTORE JUMP JUMPDEST PUSH1 0x40 MLOAD PUSH4 0x3EE5AEB5 PUSH1 0xE0 SHL DUP2 MSTORE PUSH1 0x4 SWAP1 REVERT JUMPDEST SWAP4 SWAP2 PUSH1 0x1 PUSH1 0x1 PUSH1 0xA0 SHL SUB DUP6 AND ISZERO PUSH2 0x29F5 JUMPI PUSH2 0x415E PUSH1 0x40 MLOAD SWAP3 PUSH1 0x1 DUP5 MSTORE PUSH1 0x20 DUP5 ADD MSTORE PUSH1 0x40 DUP4 ADD SWAP2 PUSH1 0x1 DUP4 MSTORE PUSH1 0x60 DUP5 ADD MSTORE PUSH1 0x80 DUP4 ADD PUSH1 0x40 MSTORE JUMP JUMPDEST SWAP1 SWAP2 PUSH2 0x416B DUP3 DUP5 DUP8 PUSH2 0x4CD0 JUMP JUMPDEST PUSH1 0x0 SWAP5 DUP6 JUMPDEST DUP5 MLOAD DUP8 LT ISZERO PUSH2 0x41BE JUMPI PUSH2 0x41B6 PUSH1 0x1 SWAP2 DUP9 PUSH1 0x5 SHL SWAP1 PUSH2 0x41A4 PUSH1 0x20 DUP1 DUP5 DUP11 ADD ADD MLOAD SWAP4 DUP11 ADD ADD MLOAD PUSH1 0x0 MSTORE PUSH1 0x3 PUSH1 0x20 MSTORE PUSH1 0x40 PUSH1 0x0 KECCAK256 SWAP1 JUMP JUMPDEST PUSH2 0x41AF DUP4 DUP3 SLOAD PUSH2 0x30CC JUMP JUMPDEST SWAP1 SSTORE PUSH2 0x30CC JUMP JUMPDEST SWAP7 ADD SWAP6 PUSH2 0x4170 JUMP JUMPDEST PUSH2 0x41D8 SWAP2 SWAP6 SWAP5 SWAP3 SWAP7 POP PUSH2 0x41D3 SWAP1 PUSH1 0x4 SLOAD PUSH2 0x30CC JUMP JUMPDEST PUSH1 0x4 SSTORE JUMP JUMPDEST DUP1 MLOAD PUSH1 0x1 SUB PUSH2 0x41F6 JUMPI SWAP1 PUSH1 0x20 DUP1 PUSH2 0x7A4 SWAP6 SWAP4 ADD MLOAD SWAP2 ADD MLOAD SWAP2 CALLER PUSH2 0x4C3F JUMP JUMPDEST PUSH2 0x7A4 SWAP4 CALLER PUSH2 0x4A45 JUMP JUMPDEST PUSH1 0x40 MLOAD SWAP1 PUSH2 0x420D DUP3 PUSH2 0x4EF JUMP JUMPDEST PUSH1 0x3 DUP3 MSTORE PUSH3 0x706E67 PUSH1 0xE8 SHL PUSH1 0x20 DUP4 ADD MSTORE JUMP JUMPDEST PUSH1 0x40 MLOAD SWAP1 PUSH2 0x422C DUP3 PUSH2 0x4EF JUMP JUMPDEST PUSH1 0x3 DUP3 MSTORE PUSH3 0x33B4B3 PUSH1 0xE9 SHL PUSH1 0x20 DUP4 ADD MSTORE JUMP JUMPDEST PUSH1 0x40 MLOAD SWAP1 PUSH2 0x424B DUP3 PUSH2 0x4EF JUMP JUMPDEST PUSH1 0x4 DUP3 MSTORE PUSH4 0x7765627 PUSH1 0xE4 SHL PUSH1 0x20 DUP4 ADD MSTORE JUMP JUMPDEST PUSH1 0x40 MLOAD SWAP1 PUSH2 0x426B DUP3 PUSH2 0x4EF JUMP JUMPDEST PUSH1 0x3 DUP3 MSTORE PUSH3 0x737667 PUSH1 0xE8 SHL PUSH1 0x20 DUP4 ADD MSTORE JUMP JUMPDEST PUSH1 0x40 MLOAD SWAP1 PUSH2 0x428A DUP3 PUSH2 0x4EF JUMP JUMPDEST PUSH1 0x3 DUP3 MSTORE PUSH3 0x7A697 PUSH1 0xEC SHL PUSH1 0x20 DUP4 ADD MSTORE JUMP JUMPDEST PUSH2 0x42C2 PUSH1 0x40 MLOAD PUSH2 0x42AB DUP2 PUSH2 0x4EF JUMP JUMPDEST PUSH1 0x4 DUP2 MSTORE PUSH4 0x6A706567 PUSH1 0xE0 SHL PUSH1 0x20 DUP3 ADD MSTORE DUP3 PUSH2 0x492E JUMP JUMPDEST SWAP1 DUP2 ISZERO PUSH2 0x4355 JUMPI JUMPDEST DUP2 ISZERO PUSH2 0x4342 JUMPI JUMPDEST DUP2 ISZERO PUSH2 0x432F JUMPI JUMPDEST DUP2 ISZERO PUSH2 0x431C JUMPI JUMPDEST DUP2 ISZERO PUSH2 0x4303 JUMPI JUMPDEST DUP2 ISZERO PUSH2 0x42F0 JUMPI POP SWAP1 JUMP JUMPDEST PUSH2 0x927 SWAP2 POP PUSH2 0x42FD PUSH2 0x427D JUMP JUMPDEST SWAP1 PUSH2 0x492E JUMP JUMPDEST SWAP1 POP PUSH2 0x4316 PUSH2 0x4310 PUSH2 0x425E JUMP JUMPDEST DUP3 PUSH2 0x492E JUMP JUMPDEST SWAP1 PUSH2 0x42E6 JUMP JUMPDEST SWAP1 POP PUSH2 0x4329 PUSH2 0x4310 PUSH2 0x423E JUMP JUMPDEST SWAP1 PUSH2 0x42DF JUMP JUMPDEST SWAP1 POP PUSH2 0x433C PUSH2 0x4310 PUSH2 0x421F JUMP JUMPDEST SWAP1 PUSH2 0x42D8 JUMP JUMPDEST SWAP1 POP PUSH2 0x434F PUSH2 0x4310 PUSH2 0x4200 JUMP JUMPDEST SWAP1 PUSH2 0x42D1 JUMP JUMPDEST SWAP1 POP PUSH2 0x437C PUSH1 0x40 MLOAD PUSH2 0x4366 DUP2 PUSH2 0x4EF JUMP JUMPDEST PUSH1 0x3 DUP2 MSTORE PUSH3 0x6A7067 PUSH1 0xE8 SHL PUSH1 0x20 DUP3 ADD MSTORE DUP3 PUSH2 0x492E JUMP JUMPDEST SWAP1 PUSH2 0x42CA JUMP JUMPDEST PUSH1 0x40 MLOAD SWAP1 PUSH2 0x438F DUP3 PUSH2 0x50A JUMP JUMPDEST PUSH1 0x40 DUP3 MSTORE PUSH32 0x6768696A6B6C6D6E6F707172737475767778797A303132333435363738392B2F PUSH1 0x40 DUP4 PUSH32 0x4142434445464748494A4B4C4D4E4F505152535455565758595A616263646566 PUSH1 0x20 DUP3 ADD MSTORE ADD MSTORE JUMP JUMPDEST PUSH1 0x40 MLOAD SWAP1 PUSH2 0x43EE DUP3 PUSH2 0x50A JUMP JUMPDEST PUSH1 0x2A DUP3 MSTORE PUSH1 0x40 CALLDATASIZE PUSH1 0x20 DUP5 ADD CALLDATACOPY JUMP JUMPDEST SWAP1 PUSH2 0x4406 DUP3 PUSH2 0x566 JUMP JUMPDEST PUSH2 0x4413 PUSH1 0x40 MLOAD SWAP2 DUP3 PUSH2 0x525 JUMP JUMPDEST DUP3 DUP2 MSTORE DUP1 SWAP3 PUSH2 0x4424 PUSH1 0x1F NOT SWAP2 PUSH2 0x566 JUMP JUMPDEST ADD SWAP1 PUSH1 0x20 CALLDATASIZE SWAP2 ADD CALLDATACOPY JUMP JUMPDEST DUP1 MLOAD ISZERO PUSH2 0x1610 JUMPI PUSH1 0x20 ADD SWAP1 JUMP JUMPDEST DUP1 MLOAD PUSH1 0x1 LT ISZERO PUSH2 0x1610 JUMPI PUSH1 0x21 ADD SWAP1 JUMP JUMPDEST SWAP1 DUP2 MLOAD DUP2 LT ISZERO PUSH2 0x1610 JUMPI ADD PUSH1 0x20 ADD SWAP1 JUMP JUMPDEST DUP1 MLOAD ISZERO PUSH2 0x464A JUMPI PUSH2 0x446B PUSH2 0x4382 JUMP JUMPDEST SWAP1 PUSH2 0x4488 PUSH2 0x4483 PUSH2 0x447C DUP4 MLOAD PUSH2 0x306A JUMP JUMPDEST PUSH1 0x3 SWAP1 DIV SWAP1 JUMP JUMPDEST PUSH2 0x3131 JUMP JUMPDEST SWAP2 PUSH2 0x4492 DUP4 PUSH2 0x43FC JUMP JUMPDEST SWAP2 PUSH1 0x0 SWAP5 DUP6 JUMPDEST DUP3 MLOAD DUP2 LT ISZERO PUSH2 0x45ED JUMPI DUP1 PUSH2 0x45BE PUSH2 0x44BE PUSH2 0x44D8 PUSH2 0x44D2 PUSH2 0x44CC PUSH2 0x44BE PUSH2 0x45DC SWAP8 DUP11 PUSH2 0x444B JUMP JUMPDEST MLOAD PUSH1 0x1 PUSH1 0x1 PUSH1 0xF8 SHL SUB NOT AND SWAP1 JUMP JUMPDEST PUSH1 0xF8 SHR SWAP1 JUMP JUMPDEST PUSH1 0xFF AND SWAP1 JUMP JUMPDEST PUSH2 0x44E1 DUP5 PUSH2 0x3086 JUMP JUMPDEST DUP8 MLOAD GT PUSH1 0x0 SWAP1 PUSH1 0x0 EQ PUSH2 0x45E7 JUMPI POP PUSH2 0x450A PUSH2 0x44D2 PUSH2 0x44CC PUSH2 0x44BE PUSH2 0x4504 DUP9 PUSH2 0x3086 JUMP JUMPDEST DUP12 PUSH2 0x444B JUMP JUMPDEST SWAP1 JUMPDEST PUSH2 0x4515 DUP6 PUSH2 0x306A JUMP JUMPDEST DUP9 MLOAD GT PUSH1 0x0 SWAP1 PUSH1 0x0 EQ PUSH2 0x45E1 JUMPI POP PUSH2 0x453E PUSH2 0x44D2 PUSH2 0x44CC PUSH2 0x44BE PUSH2 0x4538 DUP10 PUSH2 0x306A JUMP JUMPDEST DUP13 PUSH2 0x444B JUMP JUMPDEST SWAP2 JUMPDEST PUSH1 0x8 SHL SWAP1 PUSH1 0x10 SHL OR OR PUSH1 0x3F SWAP1 PUSH2 0x455E PUSH2 0x44BE DUP4 DUP4 PUSH1 0x12 SHR AND DUP12 PUSH2 0x444B JUMP JUMPDEST SWAP12 PUSH2 0x4576 PUSH2 0x456B DUP3 PUSH2 0x3A0D JUMP JUMPDEST SWAP14 PUSH1 0x0 BYTE SWAP2 DUP13 PUSH2 0x444B JUMP JUMPDEST MSTORE8 PUSH2 0x4589 PUSH2 0x44BE DUP4 DUP4 PUSH1 0xC SHR AND DUP12 PUSH2 0x444B JUMP JUMPDEST SWAP12 PUSH2 0x4596 PUSH2 0x456B DUP3 PUSH2 0x3A0D JUMP JUMPDEST MSTORE8 PUSH2 0x45A9 PUSH2 0x44BE DUP4 DUP4 PUSH1 0x6 SHR AND DUP12 PUSH2 0x444B JUMP JUMPDEST SWAP12 PUSH2 0x45B6 PUSH2 0x456B DUP3 PUSH2 0x3A0D JUMP JUMPDEST MSTORE8 AND DUP8 PUSH2 0x444B JUMP JUMPDEST SWAP8 PUSH2 0x45D6 PUSH2 0x45CB DUP3 PUSH2 0x3A0D JUMP JUMPDEST SWAP10 PUSH1 0x0 BYTE SWAP2 DUP9 PUSH2 0x444B JUMP JUMPDEST MSTORE8 PUSH2 0x3078 JUMP JUMPDEST PUSH2 0x4498 JUMP JUMPDEST SWAP2 PUSH2 0x4540 JUMP JUMPDEST SWAP1 PUSH2 0x450C JUMP JUMPDEST POP SWAP5 POP PUSH1 0x3 SWAP2 POP SWAP3 SWAP2 SWAP3 MLOAD MOD PUSH1 0x1 DUP2 EQ PUSH1 0x0 EQ PUSH2 0x4631 JUMPI POP PUSH2 0x462D PUSH2 0x4627 DUP3 PUSH1 0x3D PUSH2 0x4621 PUSH2 0x461B DUP3 SWAP7 PUSH2 0x2D9E JUMP JUMPDEST DUP8 PUSH2 0x444B JUMP JUMPDEST MSTORE8 PUSH2 0x2DB2 JUMP JUMPDEST DUP4 PUSH2 0x444B JUMP JUMPDEST MSTORE8 SWAP1 JUMP JUMPDEST PUSH1 0x2 EQ PUSH2 0x463C JUMPI POP SWAP1 JUMP JUMPDEST PUSH2 0x462D PUSH2 0x4627 PUSH1 0x3D SWAP3 PUSH2 0x2D9E JUMP JUMPDEST POP PUSH2 0x927 PUSH2 0x31B5 JUMP JUMPDEST DUP1 ISZERO PUSH2 0x46D5 JUMPI PUSH1 0x0 DUP2 DUP2 DUP2 DUP1 JUMPDEST PUSH2 0x46BD JUMPI POP PUSH2 0x466E DUP2 PUSH2 0x43FC JUMP JUMPDEST SWAP4 JUMPDEST PUSH2 0x467A JUMPI POP POP POP SWAP1 JUMP JUMPDEST PUSH2 0x4683 SWAP1 PUSH2 0x2D9E JUMP JUMPDEST SWAP1 PUSH1 0xA SWAP1 PUSH2 0x46A8 PUSH2 0x4698 PUSH2 0x44D2 DUP5 DUP5 MOD PUSH2 0x3094 JUMP JUMPDEST PUSH1 0xF8 SHL PUSH1 0x1 PUSH1 0x1 PUSH1 0xF8 SHL SUB NOT AND SWAP1 JUMP JUMPDEST DUP5 BYTE PUSH2 0x46B4 DUP5 DUP8 PUSH2 0x444B JUMP JUMPDEST MSTORE8 DIV SWAP1 DUP2 PUSH2 0x4670 JUMP JUMPDEST SWAP2 POP PUSH2 0x46CA PUSH1 0xA SWAP2 PUSH2 0x3A0D JUMP JUMPDEST SWAP2 DIV DUP1 DUP5 SWAP3 SWAP2 PUSH2 0x4660 JUMP JUMPDEST POP PUSH1 0x40 MLOAD PUSH2 0x46E2 DUP2 PUSH2 0x4EF JUMP JUMPDEST PUSH1 0x1 DUP2 MSTORE PUSH1 0x3 PUSH1 0xFC SHL PUSH1 0x20 DUP3 ADD MSTORE SWAP1 JUMP JUMPDEST PUSH1 0x40 MLOAD SWAP1 PUSH2 0x4700 DUP3 PUSH2 0x4EF JUMP JUMPDEST PUSH1 0x10 DUP3 MSTORE PUSH16 0x181899199A1A9B1B9C1CB0B131B232B3 PUSH1 0x81 SHL PUSH1 0x20 DUP4 ADD MSTORE JUMP JUMPDEST PUSH1 0x1 PUSH1 0x1 PUSH1 0xA0 SHL SUB AND PUSH2 0x4730 PUSH2 0x46F3 JUMP JUMPDEST PUSH2 0x4738 PUSH2 0x43E1 JUMP JUMPDEST SWAP2 PUSH1 0x30 PUSH2 0x4744 DUP5 PUSH2 0x442E JUMP JUMPDEST MSTORE8 PUSH1 0x78 PUSH2 0x4750 DUP5 PUSH2 0x443B JUMP JUMPDEST MSTORE8 PUSH1 0x0 SWAP1 PUSH1 0x0 JUMPDEST PUSH1 0x14 DUP2 LT PUSH2 0x4766 JUMPI POP POP POP POP SWAP1 JUMP JUMPDEST PUSH2 0x476F DUP2 PUSH2 0x30A2 JUMP JUMPDEST SWAP1 PUSH1 0x20 SWAP2 DUP3 DUP2 LT ISZERO PUSH2 0x1610 JUMPI PUSH2 0x4793 PUSH2 0x44BE DUP6 SWAP3 PUSH1 0xF SWAP4 DUP5 SWAP2 BYTE PUSH1 0x4 SHR AND DUP9 PUSH2 0x444B JUMP JUMPDEST PUSH2 0x47B1 PUSH2 0x47A7 PUSH2 0x47A2 DUP6 PUSH2 0x3149 JUMP JUMPDEST PUSH2 0x30B0 JUMP JUMPDEST SWAP2 DUP8 BYTE SWAP2 DUP10 PUSH2 0x444B JUMP JUMPDEST MSTORE8 PUSH2 0x47BB DUP3 PUSH2 0x30A2 JUMP JUMPDEST SWAP3 DUP4 LT ISZERO PUSH2 0x1610 JUMPI PUSH2 0x44BE PUSH2 0x47D6 SWAP2 DUP6 PUSH1 0x1 SWAP6 BYTE AND DUP8 PUSH2 0x444B JUMP JUMPDEST PUSH2 0x47F4 PUSH2 0x47EA PUSH2 0x47E5 DUP5 PUSH2 0x3149 JUMP JUMPDEST PUSH2 0x30BE JUMP JUMPDEST SWAP2 DUP7 BYTE SWAP2 DUP9 PUSH2 0x444B JUMP JUMPDEST MSTORE8 ADD PUSH2 0x4757 JUMP JUMPDEST SWAP2 SWAP4 SWAP3 SWAP1 PUSH2 0x480B DUP3 DUP7 DUP4 DUP7 PUSH2 0x4E02 JUMP JUMPDEST PUSH1 0x1 PUSH1 0x1 PUSH1 0xA0 SHL SUB DUP4 DUP2 AND ISZERO PUSH2 0x48CA JUMPI JUMPDEST DUP2 AND ISZERO DUP1 PUSH2 0x4869 JUMPI JUMPDEST ISZERO PUSH2 0x4832 JUMPI JUMPDEST POP POP POP POP POP JUMP JUMPDEST DUP5 MLOAD PUSH1 0x1 SUB PUSH2 0x4858 JUMPI PUSH1 0x20 DUP1 PUSH2 0x484E SWAP7 ADD MLOAD SWAP3 ADD MLOAD SWAP3 CALLER PUSH2 0x4C74 JUMP JUMPDEST CODESIZE DUP1 DUP1 DUP1 DUP1 PUSH2 0x482B JUMP JUMPDEST PUSH2 0x4864 SWAP5 SWAP2 SWAP3 CALLER PUSH2 0x4B40 JUMP JUMPDEST PUSH2 0x484E JUMP JUMPDEST SWAP5 SWAP4 PUSH1 0x0 SWAP4 SWAP1 SWAP2 DUP5 JUMPDEST DUP7 MLOAD DUP7 LT ISZERO PUSH2 0x48B2 JUMPI PUSH1 0x1 SWAP1 DUP7 PUSH1 0x5 SHL SWAP1 PUSH2 0x48A3 PUSH1 0x20 DUP1 DUP5 DUP11 ADD ADD MLOAD SWAP4 DUP12 ADD ADD MLOAD PUSH1 0x0 MSTORE PUSH1 0x3 PUSH1 0x20 MSTORE PUSH1 0x40 PUSH1 0x0 KECCAK256 SWAP1 JUMP JUMPDEST DUP3 DUP2 SLOAD SUB SWAP1 SSTORE ADD SWAP6 ADD SWAP5 PUSH2 0x4872 JUMP JUMPDEST PUSH2 0x48C5 SWAP2 SWAP4 SWAP7 SWAP8 SWAP3 SWAP6 POP PUSH1 0x4 SLOAD SUB PUSH1 0x4 SSTORE JUMP JUMPDEST PUSH2 0x4825 JUMP JUMPDEST SWAP6 SWAP2 SWAP3 PUSH1 0x0 SWAP5 SWAP2 PUSH1 0x0 SWAP6 JUMPDEST DUP8 MLOAD DUP8 LT ISZERO PUSH2 0x4911 JUMPI PUSH2 0x4909 PUSH1 0x1 SWAP2 DUP9 PUSH1 0x5 SHL SWAP1 PUSH2 0x41A4 PUSH1 0x20 DUP1 DUP5 DUP13 ADD ADD MLOAD SWAP4 DUP14 ADD ADD MLOAD PUSH1 0x0 MSTORE PUSH1 0x3 PUSH1 0x20 MSTORE PUSH1 0x40 PUSH1 0x0 KECCAK256 SWAP1 JUMP JUMPDEST SWAP7 ADD SWAP6 PUSH2 0x48D5 JUMP JUMPDEST PUSH2 0x4929 SWAP2 SWAP4 SWAP7 POP PUSH2 0x41D3 SWAP1 SWAP9 SWAP3 SWAP6 SWAP5 SWAP9 PUSH1 0x4 SLOAD PUSH2 0x30CC JUMP JUMPDEST PUSH2 0x481C JUMP JUMPDEST SWAP1 PUSH1 0x40 MLOAD SWAP2 PUSH1 0x20 SWAP3 PUSH2 0x495C DUP5 DUP3 DUP2 PUSH2 0x494F DUP2 DUP4 ADD SWAP7 DUP8 DUP2 MLOAD SWAP4 DUP5 SWAP3 ADD PUSH2 0x8CE JUMP JUMPDEST DUP2 ADD SUB DUP1 DUP5 MSTORE ADD DUP3 PUSH2 0x525 JUMP JUMPDEST MLOAD SWAP1 KECCAK256 SWAP2 PUSH2 0x497C PUSH1 0x40 MLOAD SWAP2 DUP3 DUP2 PUSH2 0x494F DUP2 DUP4 ADD SWAP7 DUP8 DUP2 MLOAD SWAP4 DUP5 SWAP3 ADD PUSH2 0x8CE JUMP JUMPDEST MLOAD SWAP1 KECCAK256 EQ SWAP1 JUMP JUMPDEST SWAP1 DUP2 PUSH1 0x20 SWAP2 SUB SLT PUSH2 0x3E3 JUMPI MLOAD PUSH2 0x927 DUP2 PUSH2 0x439 JUMP JUMPDEST SWAP3 PUSH2 0x49C7 PUSH2 0x927 SWAP6 SWAP4 PUSH2 0x49D5 SWAP4 PUSH1 0x1 DUP1 PUSH1 0xA0 SHL SUB AND DUP7 MSTORE PUSH1 0x0 PUSH1 0x20 DUP8 ADD MSTORE PUSH1 0xA0 PUSH1 0x40 DUP8 ADD MSTORE PUSH1 0xA0 DUP7 ADD SWAP1 PUSH2 0x145B JUMP JUMPDEST SWAP1 DUP5 DUP3 SUB PUSH1 0x60 DUP7 ADD MSTORE PUSH2 0x145B JUMP JUMPDEST SWAP2 PUSH1 0x80 DUP2 DUP5 SUB SWAP2 ADD MSTORE PUSH2 0x8F1 JUMP JUMPDEST SWAP4 SWAP1 PUSH2 0x927 SWAP6 SWAP4 PUSH2 0x49C7 SWAP2 PUSH2 0x49D5 SWAP5 PUSH1 0x1 DUP1 PUSH1 0xA0 SHL SUB DUP1 SWAP3 AND DUP9 MSTORE AND PUSH1 0x20 DUP8 ADD MSTORE PUSH1 0xA0 PUSH1 0x40 DUP8 ADD MSTORE PUSH1 0xA0 DUP7 ADD SWAP1 PUSH2 0x145B JUMP JUMPDEST RETURNDATASIZE ISZERO PUSH2 0x4A40 JUMPI RETURNDATASIZE SWAP1 PUSH2 0x4A26 DUP3 PUSH2 0x566 JUMP JUMPDEST SWAP2 PUSH2 0x4A34 PUSH1 0x40 MLOAD SWAP4 DUP5 PUSH2 0x525 JUMP JUMPDEST DUP3 MSTORE RETURNDATASIZE PUSH1 0x0 PUSH1 0x20 DUP5 ADD RETURNDATACOPY JUMP JUMPDEST PUSH1 0x60 SWAP1 JUMP JUMPDEST SWAP3 SWAP4 SWAP2 SWAP1 SWAP4 DUP5 EXTCODESIZE PUSH2 0x4A57 JUMPI POP POP POP POP POP JUMP JUMPDEST PUSH1 0x20 SWAP2 PUSH2 0x4A7A PUSH1 0x40 MLOAD SWAP5 DUP6 SWAP4 DUP5 SWAP4 PUSH4 0xBC197C81 PUSH1 0xE0 SHL SWAP9 DUP10 DUP7 MSTORE PUSH1 0x4 DUP7 ADD PUSH2 0x4998 JUMP JUMPDEST SUB DUP2 PUSH1 0x0 PUSH1 0x1 PUSH1 0x1 PUSH1 0xA0 SHL SUB DUP9 AND GAS CALL PUSH1 0x0 SWAP2 DUP2 PUSH2 0x4B0F JUMPI JUMPDEST POP PUSH2 0x4AD2 JUMPI DUP3 PUSH2 0x4AA1 PUSH2 0x4A15 JUMP JUMPDEST DUP1 MLOAD SWAP2 SWAP1 DUP3 PUSH2 0x4ACB JUMPI PUSH1 0x40 MLOAD PUSH4 0x2BFA23E7 PUSH1 0xE1 SHL DUP2 MSTORE PUSH1 0x1 PUSH1 0x1 PUSH1 0xA0 SHL SUB DUP4 AND PUSH1 0x4 DUP3 ADD MSTORE PUSH1 0x24 SWAP1 REVERT JUMPDEST SWAP1 POP PUSH1 0x20 ADD REVERT JUMPDEST PUSH1 0x1 PUSH1 0x1 PUSH1 0xE0 SHL SUB NOT AND SUB PUSH2 0x4AEC JUMPI POP CODESIZE DUP1 DUP1 DUP1 DUP1 PUSH2 0x482B JUMP JUMPDEST PUSH1 0x40 MLOAD PUSH4 0x2BFA23E7 PUSH1 0xE1 SHL DUP2 MSTORE PUSH1 0x1 PUSH1 0x1 PUSH1 0xA0 SHL SUB SWAP2 SWAP1 SWAP2 AND PUSH1 0x4 DUP3 ADD MSTORE PUSH1 0x24 SWAP1 REVERT JUMPDEST PUSH2 0x4B32 SWAP2 SWAP3 POP PUSH1 0x20 RETURNDATASIZE PUSH1 0x20 GT PUSH2 0x4B39 JUMPI JUMPDEST PUSH2 0x4B2A DUP2 DUP4 PUSH2 0x525 JUMP JUMPDEST DUP2 ADD SWAP1 PUSH2 0x4983 JUMP JUMPDEST SWAP1 CODESIZE PUSH2 0x4A93 JUMP JUMPDEST POP RETURNDATASIZE PUSH2 0x4B20 JUMP JUMPDEST SWAP4 SWAP3 SWAP1 SWAP5 SWAP2 SWAP5 DUP6 EXTCODESIZE PUSH2 0x4B55 JUMPI JUMPDEST POP POP POP POP POP POP JUMP JUMPDEST PUSH2 0x4B78 PUSH1 0x20 SWAP4 PUSH1 0x40 MLOAD SWAP6 DUP7 SWAP5 DUP6 SWAP5 PUSH4 0xBC197C81 PUSH1 0xE0 SHL SWAP10 DUP11 DUP8 MSTORE PUSH1 0x4 DUP8 ADD PUSH2 0x49E3 JUMP JUMPDEST SUB DUP2 PUSH1 0x0 PUSH1 0x1 PUSH1 0x1 PUSH1 0xA0 SHL SUB DUP9 AND GAS CALL PUSH1 0x0 SWAP2 DUP2 PUSH2 0x4BBA JUMPI JUMPDEST POP PUSH2 0x4B9F JUMPI DUP3 PUSH2 0x4AA1 PUSH2 0x4A15 JUMP JUMPDEST PUSH1 0x1 PUSH1 0x1 PUSH1 0xE0 SHL SUB NOT AND SUB PUSH2 0x4AEC JUMPI POP CODESIZE DUP1 DUP1 DUP1 DUP1 DUP1 PUSH2 0x4B4D JUMP JUMPDEST PUSH2 0x4BD4 SWAP2 SWAP3 POP PUSH1 0x20 RETURNDATASIZE PUSH1 0x20 GT PUSH2 0x4B39 JUMPI PUSH2 0x4B2A DUP2 DUP4 PUSH2 0x525 JUMP JUMPDEST SWAP1 CODESIZE PUSH2 0x4B91 JUMP JUMPDEST SWAP1 SWAP3 PUSH1 0xA0 SWAP3 PUSH2 0x927 SWAP6 SWAP5 PUSH1 0x1 DUP1 DUP7 SHL SUB AND DUP4 MSTORE PUSH1 0x0 PUSH1 0x20 DUP5 ADD MSTORE PUSH1 0x40 DUP4 ADD MSTORE PUSH1 0x60 DUP3 ADD MSTORE DUP2 PUSH1 0x80 DUP3 ADD MSTORE ADD SWAP1 PUSH2 0x8F1 JUMP JUMPDEST SWAP2 SWAP3 PUSH2 0x927 SWAP6 SWAP5 SWAP2 PUSH1 0xA0 SWAP5 PUSH1 0x1 DUP1 DUP8 SHL SUB DUP1 SWAP3 AND DUP6 MSTORE AND PUSH1 0x20 DUP5 ADD MSTORE PUSH1 0x40 DUP4 ADD MSTORE PUSH1 0x60 DUP3 ADD MSTORE DUP2 PUSH1 0x80 DUP3 ADD MSTORE ADD SWAP1 PUSH2 0x8F1 JUMP JUMPDEST SWAP3 SWAP4 SWAP2 SWAP1 SWAP4 DUP5 EXTCODESIZE PUSH2 0x4C51 JUMPI POP POP POP POP POP JUMP JUMPDEST PUSH1 0x20 SWAP2 PUSH2 0x4A7A PUSH1 0x40 MLOAD SWAP5 DUP6 SWAP4 DUP5 SWAP4 PUSH4 0xF23A6E61 PUSH1 0xE0 SHL SWAP9 DUP10 DUP7 MSTORE PUSH1 0x4 DUP7 ADD PUSH2 0x4BDB JUMP JUMPDEST SWAP4 SWAP3 SWAP1 SWAP5 SWAP2 SWAP5 DUP6 EXTCODESIZE PUSH2 0x4C88 JUMPI POP POP POP POP POP POP JUMP JUMPDEST PUSH2 0x4B78 PUSH1 0x20 SWAP4 PUSH1 0x40 MLOAD SWAP6 DUP7 SWAP5 DUP6 SWAP5 PUSH4 0xF23A6E61 PUSH1 0xE0 SHL SWAP10 DUP11 DUP8 MSTORE PUSH1 0x4 DUP8 ADD PUSH2 0x4C0C JUMP JUMPDEST SWAP1 SWAP2 PUSH2 0x4CC2 PUSH2 0x927 SWAP4 PUSH1 0x40 DUP5 MSTORE PUSH1 0x40 DUP5 ADD SWAP1 PUSH2 0x145B JUMP JUMPDEST SWAP2 PUSH1 0x20 DUP2 DUP5 SUB SWAP2 ADD MSTORE PUSH2 0x145B JUMP JUMPDEST SWAP2 SWAP1 SWAP2 DUP3 MLOAD DUP3 MLOAD SWAP1 DUP2 DUP2 SUB PUSH2 0x2F3D JUMPI POP POP PUSH1 0x0 JUMPDEST DUP4 MLOAD DUP2 LT ISZERO PUSH2 0x4D62 JUMPI PUSH1 0x5 DUP2 SWAP1 SHL DUP5 DUP2 ADD PUSH1 0x20 SWAP1 DUP2 ADD MLOAD SWAP2 DUP6 ADD ADD MLOAD PUSH1 0x1 SWAP3 SWAP2 DUP5 SWAP1 PUSH1 0x1 PUSH1 0x1 PUSH1 0xA0 SHL SUB DUP3 AND PUSH2 0x4D1E JUMPI JUMPDEST POP POP POP ADD PUSH2 0x4CE4 JUMP JUMPDEST PUSH2 0x4D58 SWAP2 PUSH2 0x4D39 PUSH2 0x4D50 SWAP3 PUSH1 0x0 MSTORE PUSH1 0x0 PUSH1 0x20 MSTORE PUSH1 0x40 PUSH1 0x0 KECCAK256 SWAP1 JUMP JUMPDEST SWAP1 PUSH1 0x1 DUP1 PUSH1 0xA0 SHL SUB AND PUSH1 0x0 MSTORE PUSH1 0x20 MSTORE PUSH1 0x40 PUSH1 0x0 KECCAK256 SWAP1 JUMP JUMPDEST SWAP2 DUP3 SLOAD PUSH2 0x30CC JUMP JUMPDEST SWAP1 SSTORE CODESIZE DUP4 DUP2 PUSH2 0x4D15 JUMP JUMPDEST POP SWAP2 PUSH1 0x1 DUP2 MLOAD EQ PUSH1 0x0 EQ PUSH2 0x4DC3 JUMPI PUSH1 0x20 SWAP1 DUP2 ADD MLOAD SWAP2 DUP2 ADD MLOAD PUSH1 0x40 DUP1 MLOAD SWAP4 DUP5 MSTORE SWAP2 DUP4 ADD MSTORE PUSH1 0x1 PUSH1 0x1 PUSH1 0xA0 SHL SUB SWAP1 SWAP3 AND SWAP2 PUSH1 0x0 SWAP2 CALLER SWAP2 PUSH32 0xC3D58168C5AE7397731D063D5BBF3D657854427343F4C083240F7AACAA2D0F62 SWAP2 SWAP1 DUP2 SWAP1 DUP2 ADD JUMPDEST SUB SWAP1 LOG4 JUMP JUMPDEST PUSH32 0x4A39DC06D4C0DBC64B70AF90FD698A233A518AA5D07E595D983B8C0526C8F7FB PUSH2 0x4DBE PUSH1 0x0 SWAP4 SWAP5 PUSH1 0x40 MLOAD SWAP2 DUP3 SWAP2 PUSH1 0x1 DUP1 PUSH1 0xA0 SHL SUB AND SWAP7 CALLER SWAP6 DUP4 PUSH2 0x4CAB JUMP JUMPDEST SWAP4 SWAP3 SWAP2 DUP1 MLOAD DUP4 MLOAD SWAP1 DUP2 DUP2 SUB PUSH2 0x2F3D JUMPI POP POP PUSH1 0x0 JUMPDEST DUP2 MLOAD DUP2 LT ISZERO PUSH2 0x4F04 JUMPI PUSH1 0x5 DUP2 SWAP1 SHL DUP3 DUP2 ADD PUSH1 0x20 SWAP1 DUP2 ADD MLOAD SWAP2 DUP7 ADD ADD MLOAD PUSH1 0x1 PUSH1 0x1 PUSH1 0xA0 SHL SUB SWAP3 SWAP2 DUP6 SWAP1 DUP10 DUP6 AND PUSH2 0x4E7E JUMPI JUMPDEST PUSH1 0x1 SWAP5 DUP3 AND PUSH2 0x4E59 JUMPI JUMPDEST POP POP POP ADD PUSH2 0x4E16 JUMP JUMPDEST PUSH2 0x4E74 SWAP2 PUSH2 0x4D39 PUSH2 0x4D50 SWAP3 PUSH1 0x0 MSTORE PUSH1 0x0 PUSH1 0x20 MSTORE PUSH1 0x40 PUSH1 0x0 KECCAK256 SWAP1 JUMP JUMPDEST SWAP1 SSTORE CODESIZE DUP5 DUP2 PUSH2 0x4E50 JUMP JUMPDEST SWAP2 SWAP3 SWAP4 SWAP1 POP PUSH2 0x4E9B DUP10 PUSH2 0x4D39 DUP5 PUSH1 0x0 MSTORE PUSH1 0x0 PUSH1 0x20 MSTORE PUSH1 0x40 PUSH1 0x0 KECCAK256 SWAP1 JUMP JUMPDEST SLOAD DUP4 DUP2 LT PUSH2 0x4ECD JUMPI SWAP2 DUP7 SWAP2 DUP5 PUSH1 0x1 SWAP7 SWAP6 SWAP5 SUB PUSH2 0x4EC5 DUP13 PUSH2 0x4D39 DUP6 PUSH1 0x0 MSTORE PUSH1 0x0 PUSH1 0x20 MSTORE PUSH1 0x40 PUSH1 0x0 KECCAK256 SWAP1 JUMP JUMPDEST SSTORE SWAP5 POP PUSH2 0x4E46 JUMP JUMPDEST PUSH1 0x40 MLOAD PUSH4 0x3DEE4C5 PUSH1 0xE0 SHL DUP2 MSTORE PUSH1 0x1 PUSH1 0x1 PUSH1 0xA0 SHL SUB DUP12 AND PUSH1 0x4 DUP3 ADD MSTORE PUSH1 0x24 DUP2 ADD SWAP2 SWAP1 SWAP2 MSTORE PUSH1 0x44 DUP2 ADD DUP5 SWAP1 MSTORE PUSH1 0x64 DUP2 ADD DUP4 SWAP1 MSTORE PUSH1 0x84 SWAP1 REVERT JUMPDEST POP DUP1 MLOAD SWAP4 SWAP5 SWAP4 SWAP2 SWAP3 SWAP2 PUSH1 0x1 SUB PUSH2 0x4F66 JUMPI PUSH1 0x20 SWAP1 DUP2 ADD MLOAD SWAP2 DUP2 ADD MLOAD PUSH1 0x40 DUP1 MLOAD SWAP4 DUP5 MSTORE SWAP2 DUP4 ADD MSTORE PUSH1 0x1 PUSH1 0x1 PUSH1 0xA0 SHL SUB SWAP3 DUP4 AND SWAP4 SWAP1 SWAP3 AND SWAP2 CALLER SWAP2 PUSH32 0xC3D58168C5AE7397731D063D5BBF3D657854427343F4C083240F7AACAA2D0F62 SWAP2 DUP2 SWAP1 DUP2 ADD PUSH2 0x4DBE JUMP JUMPDEST PUSH1 0x40 MLOAD PUSH1 0x1 PUSH1 0x1 PUSH1 0xA0 SHL SUB SWAP4 DUP5 AND SWAP5 SWAP1 SWAP4 AND SWAP3 CALLER SWAP3 PUSH32 0x4A39DC06D4C0DBC64B70AF90FD698A233A518AA5D07E595D983B8C0526C8F7FB SWAP3 DUP3 SWAP2 PUSH2 0x4DBE SWAP2 DUP4 PUSH2 0x4CAB JUMP INVALID 0xBB DUP11 PUSH11 0x4669BA250D26CD7A459ECA SWAP14 0x21 PUSH0 DUP4 SMOD 0xE3 GASPRICE 0xEB 0xE5 SUB PUSH26 0xBC5A3617EC344431ECC21A745E3968A04E9570E4425BC18FA801 SWAP13 PUSH9 0x28196B546D1669C20 0xC PUSH9 0xA26469706673582212 KECCAK256 0xE8 0x2D 0xE3 0x22 JUMPDEST STATICCALL SWAP12 INVALID 0xC6 XOR 0xE5 DUP6 SWAP1 PC SHL DUP11 0xCB CALLCODE PUSH18 0x72597229BF6A8199079532BA0764736F6C63 NUMBER STOP ADDMOD XOR STOP CALLER "},"methodIdentifiers":{"ARTIST_ROYALTY_PERCENTAGE()":"4cf4bb06","MAX_PLATFORM_FEE()":"3998a681","addAdmin(address)":"70480275","adminAddressList(uint256)":"6e977223","adminAddresses(address)":"4ed38faf","approveAddresses(address[])":"f0f4d0cb","artistProfiles(address)":"171212d5","artistTokens(address,uint256)":"92a05fe7","artworks(uint256)":"4b602673","balanceOf(address,uint256)":"00fdd58e","balanceOfBatch(address[],uint256[])":"4e1273f4","collectorTokens(address,uint256)":"5024fd8c","exists(uint256)":"4f558e79","getAdminAddresses()":"64ddfa29","getArtistProfile(address)":"b3b30640","getArtistTokens(address)":"cc0ad6e7","getArtwork(uint256)":"167ddf6e","getArtworkImageData(uint256)":"3b5221e2","getCollectorTokens(address)":"e0f8b313","getCurrentTokenId()":"56189236","getInterestedAddresses()":"8dc8b4da","getWhitelistedAddresses()":"6d028027","interestedAddressList(uint256)":"e084ffda","interestedAddresses(address)":"4bf56fd1","isAdmin(address)":"24d7806c","isApprovedForAll(address,address)":"e985e9c5","isInterested(address)":"62afcf00","isWhitelistEnabled()":"184d69ab","isWhitelisted(address)":"3af32abf","mintArtwork(string,string,bytes,string,uint256,uint256)":"c71959b4","name()":"06fdde03","owner()":"8da5cb5b","pause()":"8456cb59","paused()":"5c975abb","platformFeePercentage()":"cdd78cfc","purchaseArtwork(uint256,uint256)":"552906ce","registerInterest()":"5f5fff4d","removeAdmin(address)":"1785f53c","removeFromWhitelist(address)":"8ab1d681","renounceOwnership()":"715018a6","safeBatchTransferFrom(address,address,uint256[],uint256[],bytes)":"2eb2c2d6","safeTransferFrom(address,address,uint256,uint256,bytes)":"f242432a","setApprovalForAll(address,bool)":"a22cb465","setPlatformFee(uint256)":"12e8e2c3","setURI(string)":"02fe5305","supportsInterface(bytes4)":"01ffc9a7","symbol()":"95d89b41","toggleArtworkStatus(uint256)":"5b42a8fe","toggleWhitelist()":"7e15144b","tokenToArtist(uint256)":"35c2aab9","totalSupply()":"18160ddd","totalSupply(uint256)":"bd85b039","transferOwnership(address)":"f2fde38b","unpause()":"3f4ba83a","updateArtistProfile(string,string,string)":"b23cd1a6","updateArtworkPrice(uint256,uint256)":"5001257e","uri(uint256)":"0e89341c","whitelistEnabled()":"51fb012d","whitelistedAddressList(uint256)":"63c770d8","whitelistedAddresses(address)":"06c933d8","withdrawPlatformFees()":"d0b7830b"}}}}}