{"contracts/PermalinkMarketplace.sol":{"PermalinkMarketplace":{"abi":[{"inputs":[{"internalType":"address","name":"_permalinkNFT","type":"address"},{"internalType":"address","name":"_permalinkContract","type":"address"},{"internalType":"address","name":"_platformTreasury","type":"address"},{"internalType":"address","name":"initialOwner","type":"address"}],"stateMutability":"nonpayable","type":"constructor"},{"inputs":[],"name":"EnforcedPause","type":"error"},{"inputs":[],"name":"ExpectedPause","type":"error"},{"inputs":[{"internalType":"address","name":"owner","type":"address"}],"name":"OwnableInvalidOwner","type":"error"},{"inputs":[{"internalType":"address","name":"account","type":"address"}],"name":"OwnableUnauthorizedAccount","type":"error"},{"inputs":[],"name":"ReentrancyGuardReentrantCall","type":"error"},{"anonymous":false,"inputs":[{"indexed":true,"internalType":"bytes32","name":"listingId","type":"bytes32"},{"indexed":true,"internalType":"uint256","name":"tokenId","type":"uint256"},{"indexed":true,"internalType":"address","name":"seller","type":"address"},{"indexed":false,"internalType":"uint256","name":"amount","type":"uint256"},{"indexed":false,"internalType":"uint256","name":"pricePerToken","type":"uint256"}],"name":"Listed","type":"event"},{"anonymous":false,"inputs":[{"indexed":true,"internalType":"bytes32","name":"offerId","type":"bytes32"},{"indexed":true,"internalType":"uint256","name":"tokenId","type":"uint256"},{"indexed":true,"internalType":"address","name":"seller","type":"address"},{"indexed":false,"internalType":"address","name":"buyer","type":"address"},{"indexed":false,"internalType":"uint256","name":"amount","type":"uint256"},{"indexed":false,"internalType":"uint256","name":"totalPrice","type":"uint256"}],"name":"OfferAccepted","type":"event"},{"anonymous":false,"inputs":[{"indexed":true,"internalType":"bytes32","name":"offerId","type":"bytes32"},{"indexed":true,"internalType":"address","name":"buyer","type":"address"}],"name":"OfferCancelled","type":"event"},{"anonymous":false,"inputs":[{"indexed":true,"internalType":"bytes32","name":"offerId","type":"bytes32"},{"indexed":true,"internalType":"uint256","name":"tokenId","type":"uint256"},{"indexed":true,"internalType":"address","name":"buyer","type":"address"},{"indexed":false,"internalType":"uint256","name":"amount","type":"uint256"},{"indexed":false,"internalType":"uint256","name":"pricePerToken","type":"uint256"},{"indexed":false,"internalType":"uint256","name":"expiresAt","type":"uint256"}],"name":"OfferMade","type":"event"},{"anonymous":false,"inputs":[{"indexed":true,"internalType":"address","name":"previousOwner","type":"address"},{"indexed":true,"internalType":"address","name":"newOwner","type":"address"}],"name":"OwnershipTransferred","type":"event"},{"anonymous":false,"inputs":[{"indexed":false,"internalType":"address","name":"account","type":"address"}],"name":"Paused","type":"event"},{"anonymous":false,"inputs":[{"indexed":true,"internalType":"bytes32","name":"listingId","type":"bytes32"},{"indexed":true,"internalType":"uint256","name":"tokenId","type":"uint256"},{"indexed":true,"internalType":"address","name":"seller","type":"address"},{"indexed":false,"internalType":"address","name":"buyer","type":"address"},{"indexed":false,"internalType":"uint256","name":"amount","type":"uint256"},{"indexed":false,"internalType":"uint256","name":"totalPrice","type":"uint256"},{"indexed":false,"internalType":"uint256","name":"artistRoyalty","type":"uint256"},{"indexed":false,"internalType":"uint256","name":"platformRoyalty","type":"uint256"},{"indexed":false,"internalType":"uint256","name":"marketplaceFee","type":"uint256"}],"name":"Sale","type":"event"},{"anonymous":false,"inputs":[{"indexed":true,"internalType":"bytes32","name":"listingId","type":"bytes32"},{"indexed":true,"internalType":"address","name":"seller","type":"address"}],"name":"Unlisted","type":"event"},{"anonymous":false,"inputs":[{"indexed":false,"internalType":"address","name":"account","type":"address"}],"name":"Unpaused","type":"event"},{"inputs":[],"name":"MAX_MARKETPLACE_FEE","outputs":[{"internalType":"uint256","name":"","type":"uint256"}],"stateMutability":"view","type":"function"},{"inputs":[{"internalType":"bytes32","name":"offerId","type":"bytes32"},{"internalType":"uint256","name":"amount","type":"uint256"}],"name":"acceptOffer","outputs":[],"stateMutability":"nonpayable","type":"function"},{"inputs":[{"internalType":"bytes32","name":"listingId","type":"bytes32"},{"internalType":"uint256","name":"amount","type":"uint256"}],"name":"buyFromListing","outputs":[],"stateMutability":"payable","type":"function"},{"inputs":[{"internalType":"bytes32","name":"listingId","type":"bytes32"}],"name":"cancelListing","outputs":[],"stateMutability":"nonpayable","type":"function"},{"inputs":[{"internalType":"bytes32","name":"offerId","type":"bytes32"}],"name":"cancelOffer","outputs":[],"stateMutability":"nonpayable","type":"function"},{"inputs":[{"internalType":"uint256","name":"tokenId","type":"uint256"},{"internalType":"uint256","name":"amount","type":"uint256"},{"internalType":"uint256","name":"pricePerToken","type":"uint256"}],"name":"createListing","outputs":[{"internalType":"bytes32","name":"","type":"bytes32"}],"stateMutability":"nonpayable","type":"function"},{"inputs":[],"name":"emergencyWithdraw","outputs":[],"stateMutability":"nonpayable","type":"function"},{"inputs":[{"internalType":"uint256","name":"tokenId","type":"uint256"}],"name":"getTokenListings","outputs":[{"internalType":"bytes32[]","name":"","type":"bytes32[]"}],"stateMutability":"view","type":"function"},{"inputs":[{"internalType":"uint256","name":"tokenId","type":"uint256"}],"name":"getTokenOffers","outputs":[{"internalType":"bytes32[]","name":"","type":"bytes32[]"}],"stateMutability":"view","type":"function"},{"inputs":[{"internalType":"address","name":"user","type":"address"}],"name":"getUserListings","outputs":[{"internalType":"bytes32[]","name":"","type":"bytes32[]"}],"stateMutability":"view","type":"function"},{"inputs":[{"internalType":"address","name":"user","type":"address"}],"name":"getUserOffers","outputs":[{"internalType":"bytes32[]","name":"","type":"bytes32[]"}],"stateMutability":"view","type":"function"},{"inputs":[{"internalType":"bytes32","name":"","type":"bytes32"}],"name":"listings","outputs":[{"internalType":"uint256","name":"tokenId","type":"uint256"},{"internalType":"uint256","name":"amount","type":"uint256"},{"internalType":"uint256","name":"pricePerToken","type":"uint256"},{"internalType":"address","name":"seller","type":"address"},{"internalType":"uint256","name":"listedAt","type":"uint256"},{"internalType":"bool","name":"isActive","type":"bool"}],"stateMutability":"view","type":"function"},{"inputs":[{"internalType":"uint256","name":"tokenId","type":"uint256"},{"internalType":"uint256","name":"amount","type":"uint256"},{"internalType":"uint256","name":"pricePerToken","type":"uint256"},{"internalType":"uint256","name":"duration","type":"uint256"}],"name":"makeOffer","outputs":[{"internalType":"bytes32","name":"","type":"bytes32"}],"stateMutability":"payable","type":"function"},{"inputs":[],"name":"marketplaceFee","outputs":[{"internalType":"uint256","name":"","type":"uint256"}],"stateMutability":"view","type":"function"},{"inputs":[{"internalType":"bytes32","name":"","type":"bytes32"}],"name":"offers","outputs":[{"internalType":"uint256","name":"tokenId","type":"uint256"},{"internalType":"uint256","name":"amount","type":"uint256"},{"internalType":"uint256","name":"pricePerToken","type":"uint256"},{"internalType":"address","name":"buyer","type":"address"},{"internalType":"uint256","name":"expiresAt","type":"uint256"},{"internalType":"bool","name":"isActive","type":"bool"}],"stateMutability":"view","type":"function"},{"inputs":[{"internalType":"address","name":"","type":"address"},{"internalType":"address","name":"","type":"address"},{"internalType":"uint256[]","name":"","type":"uint256[]"},{"internalType":"uint256[]","name":"","type":"uint256[]"},{"internalType":"bytes","name":"","type":"bytes"}],"name":"onERC1155BatchReceived","outputs":[{"internalType":"bytes4","name":"","type":"bytes4"}],"stateMutability":"nonpayable","type":"function"},{"inputs":[{"internalType":"address","name":"","type":"address"},{"internalType":"address","name":"","type":"address"},{"internalType":"uint256","name":"","type":"uint256"},{"internalType":"uint256","name":"","type":"uint256"},{"internalType":"bytes","name":"","type":"bytes"}],"name":"onERC1155Received","outputs":[{"internalType":"bytes4","name":"","type":"bytes4"}],"stateMutability":"nonpayable","type":"function"},{"inputs":[],"name":"owner","outputs":[{"internalType":"address","name":"","type":"address"}],"stateMutability":"view","type":"function"},{"inputs":[],"name":"pause","outputs":[],"stateMutability":"nonpayable","type":"function"},{"inputs":[],"name":"paused","outputs":[{"internalType":"bool","name":"","type":"bool"}],"stateMutability":"view","type":"function"},{"inputs":[],"name":"permalinkContract","outputs":[{"internalType":"contract IPermalink","name":"","type":"address"}],"stateMutability":"view","type":"function"},{"inputs":[],"name":"permalinkNFT","outputs":[{"internalType":"contract IERC1155","name":"","type":"address"}],"stateMutability":"view","type":"function"},{"inputs":[],"name":"platformTreasury","outputs":[{"internalType":"address","name":"","type":"address"}],"stateMutability":"view","type":"function"},{"inputs":[],"name":"renounceOwnership","outputs":[],"stateMutability":"nonpayable","type":"function"},{"inputs":[{"internalType":"uint256","name":"_fee","type":"uint256"}],"name":"setMarketplaceFee","outputs":[],"stateMutability":"nonpayable","type":"function"},{"inputs":[{"internalType":"bytes4","name":"interfaceId","type":"bytes4"}],"name":"supportsInterface","outputs":[{"internalType":"bool","name":"","type":"bool"}],"stateMutability":"view","type":"function"},{"inputs":[{"internalType":"uint256","name":"","type":"uint256"},{"internalType":"uint256","name":"","type":"uint256"}],"name":"tokenListings","outputs":[{"internalType":"bytes32","name":"","type":"bytes32"}],"stateMutability":"view","type":"function"},{"inputs":[{"internalType":"uint256","name":"","type":"uint256"},{"internalType":"uint256","name":"","type":"uint256"}],"name":"tokenOffers","outputs":[{"internalType":"bytes32","name":"","type":"bytes32"}],"stateMutability":"view","type":"function"},{"inputs":[{"internalType":"address","name":"newOwner","type":"address"}],"name":"transferOwnership","outputs":[],"stateMutability":"nonpayable","type":"function"},{"inputs":[],"name":"unpause","outputs":[],"stateMutability":"nonpayable","type":"function"},{"inputs":[{"internalType":"address","name":"","type":"address"},{"internalType":"uint256","name":"","type":"uint256"}],"name":"userListings","outputs":[{"internalType":"bytes32","name":"","type":"bytes32"}],"stateMutability":"view","type":"function"},{"inputs":[{"internalType":"address","name":"","type":"address"},{"internalType":"uint256","name":"","type":"uint256"}],"name":"userOffers","outputs":[{"internalType":"bytes32","name":"","type":"bytes32"}],"stateMutability":"view","type":"function"}],"evm":{"bytecode":{"linkReferences":{},"object":"60e0346200016c57601f6200212838819003918201601f19168301916001600160401b0383118484101762000171578084926080946040528339810103126200016c576200004d8162000187565b906200005c6020820162000187565b620000786060620000706040850162000187565b930162000187565b60016000556001600160a01b039081169390919084156200015357600180546001600160a01b0319811687179091556040519584929183167f8be0079c531659141344cd1fd0a4f28419497f9722a3daafe3b4186f6b6457e0600080a36064600255166080521660a05260c052611f8b90816200019d823960805181818161065e01528181610f9901528181610ffe015281816110e70152818161115901528181611470015261159e015260a051818181610a960152818161107d015261154f015260c051818181610405015281816112b8015261174b0152f35b604051631e4fbdf760e01b815260006004820152602490fd5b600080fd5b634e487b7160e01b600052604160045260246000fd5b51906001600160a01b03821682036200016c5756fe608080604052600436101561001357600080fd5b600090813560e01c90816301388d37146119975750806301ffc9a71461194057806311fc9fed146118d85780631dfed09f1461149f578063230dc2781461145a5780633e314b5a14610f115780633f4ba83a14610e9e57806340cfece214610e6c578063474d3ff014610df45780635c975abb14610dce57806364e574c214610bb7578063661d2c2c14610b415780636a16696414610b23578063715018a614610ac5578063827898f314610a805780638456cb5914610a1d57806386cfa7d3146109d55780638da5cb5b146109ac5780639299e552146108ff5780639407ea981461089f578063944985f51461086d578063b03053b6146105f8578063bc197c811461056a578063bd5fec6514610514578063c18b8db4146104a1578063ca28ae8414610484578063db2e21bc14610434578063e138818c146103ef578063eb18a9d814610369578063f23a6e611461030e578063f2fde38b1461027e5763f952279e1461018157600080fd5b3461027b57602036600319011261027b5760043561019d611f06565b80825260046020526040822060058101908154906101bd60ff8316611cb5565b60038101546001600160a01b0316330361024657846101f3819492829493839460ff191690556001600282015491015490611c4d565b81811561023d575b3390f1156102305733907f71452125ef8fc453ad578ac435d03568465f10677a9b0edfa96a5da9c5cd26198380a36001815580f35b50604051903d90823e3d90fd5b506108fc6101fb565b60405162461bcd60e51b815260206004820152600d60248201526c2737ba103a343290313abcb2b960991b6044820152606490fd5b80fd5b503461027b57602036600319011261027b57610298611a7d565b6102a0611f29565b6001600160a01b039081169081156102f557600154826bffffffffffffffffffffffff60a01b821617600155167f8be0079c531659141344cd1fd0a4f28419497f9722a3daafe3b4186f6b6457e0600080a380f35b604051631e4fbdf760e01b815260048101849052602490fd5b503461027b5760a036600319011261027b57610328611a7d565b50610331611a93565b5060843567ffffffffffffffff811161036557610352903690600401611b78565b5060405163f23a6e6160e01b8152602090f35b5080fd5b503461027b57602080600319360112610365576001600160a01b0361038c611a7d565b1682526007602052604082209160405180926020855492838152019483526020832092905b8282106103d8576103d4856103c881890382611aef565b604051918291826119fd565b0390f35b8354865294850194600193840193909101906103b1565b503461027b578060031936011261027b576040517f00000000000000000000000000000000000000000000000000000000000000006001600160a01b03168152602090f35b503461027b578060031936011261027b5761044d611f29565b8080808060018060a01b0360015416479082821561047b575bf11561046f5780f35b604051903d90823e3d90fd5b506108fc610466565b503461027b578060031936011261027b5760206040516101f48152f35b503461027b57602036600319011261027b57600480358252600360208181526040938490208054600182015460028301549483015495830154600590930154875192835293820152948501929092526001600160a01b039092166060840152608083015260ff16151560a082015260c090f35b503461027b57604036600319011261027b5761052e611a7d565b6001600160a01b031681526008602052604081208054602435929083101561027b57602061055c8484611a4f565b90546040519160031b1c8152f35b503461027b5760a036600319011261027b57610584611a7d565b5061058d611a93565b5067ffffffffffffffff6044358181116105f4576105af903690600401611b11565b506064358181116105f4576105c8903690600401611b11565b50608435908111610365576105e1903690600401611b78565b5060405163bc197c8160e01b8152602090f35b8280fd5b503461027b57606036600319011261027b57600435602435916044359061061d611ee5565b610625611f06565b610630841515611da4565b61063b821515611df0565b604051627eeac760e11b8152336004820152602481018490526001600160a01b037f00000000000000000000000000000000000000000000000000000000000000001694602094909185816044818a5afa8015610862578390859061082c575b6106a792501015611cf4565b60405163e985e9c560e01b8152336004820152306024820152958590879060449082905afa9586156108215760019495966106e99185916107f4575b50611d58565b6106f4600954611e3c565b60098190556040513360601b6bffffffffffffffffffffffff1916888201908152601481018490526034810185905260548101889052426074820152609481019290925261074f8160b484015b03601f198101835282611aef565b5190209461079260405161076281611ad3565b83815284898201528260408201523360608201524260808201528660a08201528786526003895260408620611e4b565b818452600587526107a68660408620611eab565b338452600787526107ba8660408620611eab565b60405192835286830152847f5d450af7246f78f4dee2907141631b6f63628a5027655205c154ad687dbdb51f60403394a455604051908152f35b6108149150883d8a1161081a575b61080c8183611aef565b810190611d40565b386106e3565b503d610802565b6040513d85823e3d90fd5b50508581813d831161085b575b6108438183611aef565b8101031261085657826106a7915161069b565b600080fd5b503d610839565b6040513d86823e3d90fd5b503461027b5761087c36611a39565b9190815260066020526040812090815483101561027b57602061055c8484611a4f565b503461027b57602036600319011261027b576004356108bc611f29565b6101f481116108cb5760025580f35b60405162461bcd60e51b815260206004820152600c60248201526b08ccaca40e8dede40d0d2ced60a31b6044820152606490fd5b503461027b57602036600319011261027b57600435808252600360205260408220600581019081549061093460ff8316611bcf565b600301546001600160a01b031633036109765760ff1916905533907fd79d80f6ec1a88062761ea9e96514b31f6c3429ac7764829d8770cd9cc32cf238380a380f35b60405162461bcd60e51b815260206004820152600e60248201526d2737ba103a34329039b2b63632b960911b6044820152606490fd5b503461027b578060031936011261027b576001546040516001600160a01b039091168152602090f35b503461027b57604036600319011261027b576109ef611a7d565b6001600160a01b031681526007602052604081208054602435929083101561027b57602061055c8484611a4f565b503461027b578060031936011261027b57610a36611f29565b610a3e611ee5565b6001805460ff60a01b1916600160a01b1790556040513381527f62e78cea01bee320cd4e420270b5ea74000d11b0c9f74754ebdbfc544b05a25890602090a180f35b503461027b578060031936011261027b576040517f00000000000000000000000000000000000000000000000000000000000000006001600160a01b03168152602090f35b503461027b578060031936011261027b57610ade611f29565b600180546001600160a01b031981169091556000906001600160a01b03167f8be0079c531659141344cd1fd0a4f28419497f9722a3daafe3b4186f6b6457e08280a380f35b503461027b578060031936011261027b576020600254604051908152f35b503461027b57602080600319360112610365576001600160a01b03610b64611a7d565b1682526008602052604082209160405180926020855492838152019483526020832092905b828210610ba0576103d4856103c881890382611aef565b835486529485019460019384019390910190610b89565b50608036600319011261027b576004356024356044359260643591610bda611ee5565b610be2611f06565b610bed811515611da4565b610bf8851515611df0565b82151580610dc1575b15610d8957610c108186611c4d565b3410610d4457610c21600a54611e3c565b600a8190556040513360601b6bffffffffffffffffffffffff1916602080830191825260348301889052605483018590526074830189905242609484015260b483019390935291959190610c788160d48101610741565b519020934201804211610d30576001949596610cc9604051610c9981611ad3565b848152858a8201528260408201523360608201528360808201528760a082015288875260048a5260408720611e4b565b82855260068852610cdd8760408720611eab565b33855260088852610cf18760408720611eab565b604051938452878401526040830152847f32894aac4345dfc3041155cb3f366b2e2831ce2f2b8f4d7054b2b704dbe470f060603394a455604051908152f35b634e487b7160e01b84526011600452602484fd5b60405162461bcd60e51b815260206004820152601e60248201527f496e73756666696369656e74207061796d656e7420666f72206f6666657200006044820152606490fd5b60405162461bcd60e51b815260206004820152601060248201526f24b73b30b634b210323ab930ba34b7b760811b6044820152606490fd5b5062278d00831115610c01565b503461027b578060031936011261027b57602060ff60015460a01c166040519015158152f35b503461027b57602036600319011261027b576004803582526020818152604092839020805460018201546002830154600384015495840154600590940154875193845294830191909152948101949094526001600160a01b039092166060840152608083019190915260ff16151560a082015260c090f35b503461027b57610e7b36611a39565b9190815260056020526040812090815483101561027b57602061055c8484611a4f565b503461027b578060031936011261027b57610eb7611f29565b60015460ff8160a01c1615610eff5760ff60a01b19166001556040513381527f5db9ee0a495bf2e6ff9c91a7834c1ba4fdd244a5e8aa4e537bd38aeae4b073aa90602090a180f35b604051638dfc202b60e01b8152600490fd5b503461027b57610f2036611a39565b610f28611ee5565b610f30611f06565b818352602091600483526040842091610f4f60ff600585015416611cb5565b600483015442116114255780151580611417575b610f6c90611c10565b8254604051627eeac760e11b81523360048201526024810182905290919085816044816001600160a01b037f0000000000000000000000000000000000000000000000000000000000000000165afa801561138957829088906113e6575b610fd692501015611cf4565b60405163e985e9c560e01b815233600482015230602482015285816044816001600160a01b037f0000000000000000000000000000000000000000000000000000000000000000165afa8015611389576110369188916113cf5750611d58565b85611045826002870154611c4d565b9261271061105560025486611c4d565b60405163b719576360e01b8152600481018490526024810187905292919004906080836044817f00000000000000000000000000000000000000000000000000000000000000006001600160a01b03165afa90811561086257849385908693611398575b506110d1836110cc836110cc888d611ca8565b611ca8565b60038b01549095906001600160a01b03908116907f0000000000000000000000000000000000000000000000000000000000000000163b1561139457604051637921219560e11b81523360048201526001600160a01b03909116602482015260448101939093526064830188905260a06084840152600060a484015286838060c481010381837f00000000000000000000000000000000000000000000000000000000000000006001600160a01b03165af192831561138957879361136d575b5060018b01956111a2898854611ca8565b8088551561135c575b80158015611333575b50508115908115611303575b50505090801580156112aa575b505090801590811561127a575b5050505480611232575b5050835493600360018060a01b03910154169460405195865285015260408401527ff59fa8d7e2b3e47e4dcfbc241ade86eafe2766f3b623a79c2032cf1110fa041060603394a46001815580f35b8180611243819360028a0154611c4d565b60038901546001600160a01b0316828215611271575bf1156112665785386111e4565b6040513d87823e3d90fd5b506108fc611259565b82809291819260018060a01b03600154169083906112a1575bf115610230578138806111da565b506108fc611293565b828092819282906112fa575b7f00000000000000000000000000000000000000000000000000000000000000006001600160a01b031690f1156112ef578238806111cd565b6040513d84823e3d90fd5b506108fc6112b6565b8392839283928391611329575b6001600160a01b031690f11561082157833880806111c0565b6108fc9150611310565b93808093959281938290611353575b3390f11561126657859138806111b4565b506108fc611342565b60058c01805460ff191690556111ab565b61137990939193611aa9565b61138557859138611191565b8580fd5b6040513d89823e3d90fd5b8780fd5b919450506113be915060803d6080116113c8575b6113b68183611aef565b810190611c76565b50919390386110b9565b503d6113ac565b6108149150873d891161081a5761080c8183611aef565b50508581813d8311611410575b6113fd8183611aef565b810103126108565781610fd69151610fca565b503d6113f3565b506001830154811115610f63565b60405162461bcd60e51b815260048101859052600d60248201526c13d999995c88195e1c1a5c9959609a1b6044820152606490fd5b503461027b578060031936011261027b576040517f00000000000000000000000000000000000000000000000000000000000000006001600160a01b03168152602090f35b506114a936611a39565b6114b1611ee5565b6114b9611f06565b8183526003602052604083209160058301926114d860ff855416611bcf565b821515806118ca575b6114ea90611c10565b600381019260018060a01b0391828554169533871461188557611511836002840154611c4d565b96873410611849576127106115286002548a611c4d565b049280546040519263b719576360e01b84528160048501528a60248501526080846044818b7f0000000000000000000000000000000000000000000000000000000000000000165afa94851561183e578b928d8881958298839a611807575b506110cc896110cc61159a948d94611ca8565b938b7f000000000000000000000000000000000000000000000000000000000000000016803b156105f457604051637921219560e11b81526001600160a01b039290921660048301523360248301526044820193909352606481018b905260a06084820152600060a482015291829060c490829084905af180156117fa576117e3575b508c92918391600186016116328b8254611ca8565b809155156117d5575b50898c82159283156117ac575b5050915050841591858315611783575b505050508315801561173a575b508415858115611710575b5050508834116116d1575b907f377cd647ca6bd9ac9f1b2d44f261bead781f65b9fe47f5736b66cf695947aa0f9560c095949392549854169860405194338652602086015260408501526060840152608083015260a0820152a46001815580f35b93929190898080806116e38d34611ca8565b818115611707575b3390f1156116fc579091929361167b565b6040513d8b823e3d90fd5b506108fc6116eb565b8280929181928b60015416908390611731575bf1156116fc57893885611670565b506108fc611723565b848291611779575b8280929181928b7f00000000000000000000000000000000000000000000000000000000000000001690f1156116fc578938611665565b6108fc9150611742565b84938493849384926117a2575b1690f1156116fc578938878185611658565b6108fc9250611790565b84938493849354169083906117cc575bf115610230578138898c82611648565b506108fc6117bc565b805460ff191690553861163b565b6117f1909d9193929d611aa9565b9b90913861161d565b8e604051903d90823e3d90fd5b61159a929a506110cc99506110cc975061182f9060803d6080116113c8576113b68183611aef565b509b909a509097909250611587565b6040513d8e823e3d90fd5b60405162461bcd60e51b8152602060048201526014602482015273125b9cdd59999a58da595b9d081c185e5b595b9d60621b6044820152606490fd5b60405162461bcd60e51b815260206004820152601860248201527f43616e6e6f74206275792066726f6d20796f757273656c6600000000000000006044820152606490fd5b5060018101548311156114e1565b503461027b576020806003193601126103655760043582526005602052604082209160405180926020855492838152019483526020832092905b828210611929576103d4856103c881890382611aef565b835486529485019460019384019390910190611912565b503461027b57602036600319011261027b5760043563ffffffff60e01b811680910361036557602090630271189760e51b8114908115611986575b506040519015158152f35b6301ffc9a760e01b1490508261197b565b905034610365576020806003193601126105f45791600435815260066020526040812092835490818452602084019483526020832092905b8282106119e6576103d4856103c881890382611aef565b8354865294850194600193840193909101906119cf565b602090602060408183019282815285518094520193019160005b828110611a25575050505090565b835185529381019392810192600101611a17565b6040906003190112610856576004359060243590565b8054821015611a675760005260206000200190600090565b634e487b7160e01b600052603260045260246000fd5b600435906001600160a01b038216820361085657565b602435906001600160a01b038216820361085657565b67ffffffffffffffff8111611abd57604052565b634e487b7160e01b600052604160045260246000fd5b60c0810190811067ffffffffffffffff821117611abd57604052565b90601f8019910116810190811067ffffffffffffffff821117611abd57604052565b81601f820112156108565780359160209167ffffffffffffffff8411611abd578360051b9060405194611b4685840187611aef565b85528380860192820101928311610856578301905b828210611b69575050505090565b81358152908301908301611b5b565b81601f820112156108565780359067ffffffffffffffff8211611abd5760405192611bad601f8401601f191660200185611aef565b8284526020838301011161085657816000926020809301838601378301015290565b15611bd657565b60405162461bcd60e51b81526020600482015260126024820152714c697374696e67206e6f742061637469766560701b6044820152606490fd5b15611c1757565b60405162461bcd60e51b815260206004820152600e60248201526d125b9d985b1a5908185b5bdd5b9d60921b6044820152606490fd5b81810292918115918404141715611c6057565b634e487b7160e01b600052601160045260246000fd5b91908260809103126108565781516001600160a01b038116810361085657916020810151916060604083015192015190565b91908203918211611c6057565b15611cbc57565b60405162461bcd60e51b815260206004820152601060248201526f4f66666572206e6f742061637469766560801b6044820152606490fd5b15611cfb57565b60405162461bcd60e51b815260206004820152601a60248201527f496e73756666696369656e7420746f6b656e2062616c616e63650000000000006044820152606490fd5b90816020910312610856575180151581036108565790565b15611d5f57565b60405162461bcd60e51b815260206004820152601860248201527f4d61726b6574706c616365206e6f7420617070726f76656400000000000000006044820152606490fd5b15611dab57565b60405162461bcd60e51b815260206004820152601d60248201527f416d6f756e74206d7573742062652067726561746572207468616e20300000006044820152606490fd5b15611df757565b60405162461bcd60e51b815260206004820152601c60248201527f5072696365206d7573742062652067726561746572207468616e2030000000006044820152606490fd5b6000198114611c605760010190565b600560a09183518155602084015160018201556040840151600282015560038101600180851b036060860151166bffffffffffffffffffffffff851b8254161790556080840151600482015501910151151560ff80198354169116179055565b805468010000000000000000811015611abd57611ecd91600182018155611a4f565b819291549060031b91821b91600019901b1916179055565b60ff60015460a01c16611ef457565b60405163d93c066560e01b8152600490fd5b600260005414611f17576002600055565b604051633ee5aeb560e01b8152600490fd5b6001546001600160a01b03163303611f3d57565b60405163118cdaa760e01b8152336004820152602490fdfea2646970667358221220496913c459e4dd79386d275800fbc97b75f092d1578f22466c3843397d17c83e64736f6c63430008180033","opcodes":"PUSH1 0xE0 CALLVALUE PUSH3 0x16C JUMPI PUSH1 0x1F PUSH3 0x2128 CODESIZE DUP2 SWAP1 SUB SWAP2 DUP3 ADD PUSH1 0x1F NOT AND DUP4 ADD SWAP2 PUSH1 0x1 PUSH1 0x1 PUSH1 0x40 SHL SUB DUP4 GT DUP5 DUP5 LT OR PUSH3 0x171 JUMPI DUP1 DUP5 SWAP3 PUSH1 0x80 SWAP5 PUSH1 0x40 MSTORE DUP4 CODECOPY DUP2 ADD SUB SLT PUSH3 0x16C JUMPI PUSH3 0x4D DUP2 PUSH3 0x187 JUMP JUMPDEST SWAP1 PUSH3 0x5C PUSH1 0x20 DUP3 ADD PUSH3 0x187 JUMP JUMPDEST PUSH3 0x78 PUSH1 0x60 PUSH3 0x70 PUSH1 0x40 DUP6 ADD PUSH3 0x187 JUMP JUMPDEST SWAP4 ADD PUSH3 0x187 JUMP JUMPDEST PUSH1 0x1 PUSH1 0x0 SSTORE PUSH1 0x1 PUSH1 0x1 PUSH1 0xA0 SHL SUB SWAP1 DUP2 AND SWAP4 SWAP1 SWAP2 SWAP1 DUP5 ISZERO PUSH3 0x153 JUMPI PUSH1 0x1 DUP1 SLOAD PUSH1 0x1 PUSH1 0x1 PUSH1 0xA0 SHL SUB NOT DUP2 AND DUP8 OR SWAP1 SWAP2 SSTORE PUSH1 0x40 MLOAD SWAP6 DUP5 SWAP3 SWAP2 DUP4 AND PUSH32 0x8BE0079C531659141344CD1FD0A4F28419497F9722A3DAAFE3B4186F6B6457E0 PUSH1 0x0 DUP1 LOG3 PUSH1 0x64 PUSH1 0x2 SSTORE AND PUSH1 0x80 MSTORE AND PUSH1 0xA0 MSTORE PUSH1 0xC0 MSTORE PUSH2 0x1F8B SWAP1 DUP2 PUSH3 0x19D DUP3 CODECOPY PUSH1 0x80 MLOAD DUP2 DUP2 DUP2 PUSH2 0x65E ADD MSTORE DUP2 DUP2 PUSH2 0xF99 ADD MSTORE DUP2 DUP2 PUSH2 0xFFE ADD MSTORE DUP2 DUP2 PUSH2 0x10E7 ADD MSTORE DUP2 DUP2 PUSH2 0x1159 ADD MSTORE DUP2 DUP2 PUSH2 0x1470 ADD MSTORE PUSH2 0x159E ADD MSTORE PUSH1 0xA0 MLOAD DUP2 DUP2 DUP2 PUSH2 0xA96 ADD MSTORE DUP2 DUP2 PUSH2 0x107D ADD MSTORE PUSH2 0x154F ADD MSTORE PUSH1 0xC0 MLOAD DUP2 DUP2 DUP2 PUSH2 0x405 ADD MSTORE DUP2 DUP2 PUSH2 0x12B8 ADD MSTORE PUSH2 0x174B ADD MSTORE RETURN JUMPDEST PUSH1 0x40 MLOAD PUSH4 0x1E4FBDF7 PUSH1 0xE0 SHL DUP2 MSTORE PUSH1 0x0 PUSH1 0x4 DUP3 ADD MSTORE PUSH1 0x24 SWAP1 REVERT JUMPDEST PUSH1 0x0 DUP1 REVERT JUMPDEST PUSH4 0x4E487B71 PUSH1 0xE0 SHL PUSH1 0x0 MSTORE PUSH1 0x41 PUSH1 0x4 MSTORE PUSH1 0x24 PUSH1 0x0 REVERT JUMPDEST MLOAD SWAP1 PUSH1 0x1 PUSH1 0x1 PUSH1 0xA0 SHL SUB DUP3 AND DUP3 SUB PUSH3 0x16C JUMPI JUMP INVALID PUSH1 0x80 DUP1 PUSH1 0x40 MSTORE PUSH1 0x4 CALLDATASIZE LT ISZERO PUSH2 0x13 JUMPI PUSH1 0x0 DUP1 REVERT JUMPDEST PUSH1 0x0 SWAP1 DUP2 CALLDATALOAD PUSH1 0xE0 SHR SWAP1 DUP2 PUSH4 0x1388D37 EQ PUSH2 0x1997 JUMPI POP DUP1 PUSH4 0x1FFC9A7 EQ PUSH2 0x1940 JUMPI DUP1 PUSH4 0x11FC9FED EQ PUSH2 0x18D8 JUMPI DUP1 PUSH4 0x1DFED09F EQ PUSH2 0x149F JUMPI DUP1 PUSH4 0x230DC278 EQ PUSH2 0x145A JUMPI DUP1 PUSH4 0x3E314B5A EQ PUSH2 0xF11 JUMPI DUP1 PUSH4 0x3F4BA83A EQ PUSH2 0xE9E JUMPI DUP1 PUSH4 0x40CFECE2 EQ PUSH2 0xE6C JUMPI DUP1 PUSH4 0x474D3FF0 EQ PUSH2 0xDF4 JUMPI DUP1 PUSH4 0x5C975ABB EQ PUSH2 0xDCE JUMPI DUP1 PUSH4 0x64E574C2 EQ PUSH2 0xBB7 JUMPI DUP1 PUSH4 0x661D2C2C EQ PUSH2 0xB41 JUMPI DUP1 PUSH4 0x6A166964 EQ PUSH2 0xB23 JUMPI DUP1 PUSH4 0x715018A6 EQ PUSH2 0xAC5 JUMPI DUP1 PUSH4 0x827898F3 EQ PUSH2 0xA80 JUMPI DUP1 PUSH4 0x8456CB59 EQ PUSH2 0xA1D JUMPI DUP1 PUSH4 0x86CFA7D3 EQ PUSH2 0x9D5 JUMPI DUP1 PUSH4 0x8DA5CB5B EQ PUSH2 0x9AC JUMPI DUP1 PUSH4 0x9299E552 EQ PUSH2 0x8FF JUMPI DUP1 PUSH4 0x9407EA98 EQ PUSH2 0x89F JUMPI DUP1 PUSH4 0x944985F5 EQ PUSH2 0x86D JUMPI DUP1 PUSH4 0xB03053B6 EQ PUSH2 0x5F8 JUMPI DUP1 PUSH4 0xBC197C81 EQ PUSH2 0x56A JUMPI DUP1 PUSH4 0xBD5FEC65 EQ PUSH2 0x514 JUMPI DUP1 PUSH4 0xC18B8DB4 EQ PUSH2 0x4A1 JUMPI DUP1 PUSH4 0xCA28AE84 EQ PUSH2 0x484 JUMPI DUP1 PUSH4 0xDB2E21BC EQ PUSH2 0x434 JUMPI DUP1 PUSH4 0xE138818C EQ PUSH2 0x3EF JUMPI DUP1 PUSH4 0xEB18A9D8 EQ PUSH2 0x369 JUMPI DUP1 PUSH4 0xF23A6E61 EQ PUSH2 0x30E JUMPI DUP1 PUSH4 0xF2FDE38B EQ PUSH2 0x27E JUMPI PUSH4 0xF952279E EQ PUSH2 0x181 JUMPI PUSH1 0x0 DUP1 REVERT JUMPDEST CALLVALUE PUSH2 0x27B JUMPI PUSH1 0x20 CALLDATASIZE PUSH1 0x3 NOT ADD SLT PUSH2 0x27B JUMPI PUSH1 0x4 CALLDATALOAD PUSH2 0x19D PUSH2 0x1F06 JUMP JUMPDEST DUP1 DUP3 MSTORE PUSH1 0x4 PUSH1 0x20 MSTORE PUSH1 0x40 DUP3 KECCAK256 PUSH1 0x5 DUP2 ADD SWAP1 DUP2 SLOAD SWAP1 PUSH2 0x1BD PUSH1 0xFF DUP4 AND PUSH2 0x1CB5 JUMP JUMPDEST PUSH1 0x3 DUP2 ADD SLOAD PUSH1 0x1 PUSH1 0x1 PUSH1 0xA0 SHL SUB AND CALLER SUB PUSH2 0x246 JUMPI DUP5 PUSH2 0x1F3 DUP2 SWAP5 SWAP3 DUP3 SWAP5 SWAP4 DUP4 SWAP5 PUSH1 0xFF NOT AND SWAP1 SSTORE PUSH1 0x1 PUSH1 0x2 DUP3 ADD SLOAD SWAP2 ADD SLOAD SWAP1 PUSH2 0x1C4D JUMP JUMPDEST DUP2 DUP2 ISZERO PUSH2 0x23D JUMPI JUMPDEST CALLER SWAP1 CALL ISZERO PUSH2 0x230 JUMPI CALLER SWAP1 PUSH32 0x71452125EF8FC453AD578AC435D03568465F10677A9B0EDFA96A5DA9C5CD2619 DUP4 DUP1 LOG3 PUSH1 0x1 DUP2 SSTORE DUP1 RETURN JUMPDEST POP PUSH1 0x40 MLOAD SWAP1 RETURNDATASIZE SWAP1 DUP3 RETURNDATACOPY RETURNDATASIZE SWAP1 REVERT JUMPDEST POP PUSH2 0x8FC PUSH2 0x1FB JUMP JUMPDEST PUSH1 0x40 MLOAD PUSH3 0x461BCD PUSH1 0xE5 SHL DUP2 MSTORE PUSH1 0x20 PUSH1 0x4 DUP3 ADD MSTORE PUSH1 0xD PUSH1 0x24 DUP3 ADD MSTORE PUSH13 0x2737BA103A343290313ABCB2B9 PUSH1 0x99 SHL PUSH1 0x44 DUP3 ADD MSTORE PUSH1 0x64 SWAP1 REVERT JUMPDEST DUP1 REVERT JUMPDEST POP CALLVALUE PUSH2 0x27B JUMPI PUSH1 0x20 CALLDATASIZE PUSH1 0x3 NOT ADD SLT PUSH2 0x27B JUMPI PUSH2 0x298 PUSH2 0x1A7D JUMP JUMPDEST PUSH2 0x2A0 PUSH2 0x1F29 JUMP JUMPDEST PUSH1 0x1 PUSH1 0x1 PUSH1 0xA0 SHL SUB SWAP1 DUP2 AND SWAP1 DUP2 ISZERO PUSH2 0x2F5 JUMPI PUSH1 0x1 SLOAD DUP3 PUSH12 0xFFFFFFFFFFFFFFFFFFFFFFFF PUSH1 0xA0 SHL DUP3 AND OR PUSH1 0x1 SSTORE AND PUSH32 0x8BE0079C531659141344CD1FD0A4F28419497F9722A3DAAFE3B4186F6B6457E0 PUSH1 0x0 DUP1 LOG3 DUP1 RETURN JUMPDEST PUSH1 0x40 MLOAD PUSH4 0x1E4FBDF7 PUSH1 0xE0 SHL DUP2 MSTORE PUSH1 0x4 DUP2 ADD DUP5 SWAP1 MSTORE PUSH1 0x24 SWAP1 REVERT JUMPDEST POP CALLVALUE PUSH2 0x27B JUMPI PUSH1 0xA0 CALLDATASIZE PUSH1 0x3 NOT ADD SLT PUSH2 0x27B JUMPI PUSH2 0x328 PUSH2 0x1A7D JUMP JUMPDEST POP PUSH2 0x331 PUSH2 0x1A93 JUMP JUMPDEST POP PUSH1 0x84 CALLDATALOAD PUSH8 0xFFFFFFFFFFFFFFFF DUP2 GT PUSH2 0x365 JUMPI PUSH2 0x352 SWAP1 CALLDATASIZE SWAP1 PUSH1 0x4 ADD PUSH2 0x1B78 JUMP JUMPDEST POP PUSH1 0x40 MLOAD PUSH4 0xF23A6E61 PUSH1 0xE0 SHL DUP2 MSTORE PUSH1 0x20 SWAP1 RETURN JUMPDEST POP DUP1 REVERT JUMPDEST POP CALLVALUE PUSH2 0x27B JUMPI PUSH1 0x20 DUP1 PUSH1 0x3 NOT CALLDATASIZE ADD SLT PUSH2 0x365 JUMPI PUSH1 0x1 PUSH1 0x1 PUSH1 0xA0 SHL SUB PUSH2 0x38C PUSH2 0x1A7D JUMP JUMPDEST AND DUP3 MSTORE PUSH1 0x7 PUSH1 0x20 MSTORE PUSH1 0x40 DUP3 KECCAK256 SWAP2 PUSH1 0x40 MLOAD DUP1 SWAP3 PUSH1 0x20 DUP6 SLOAD SWAP3 DUP4 DUP2 MSTORE ADD SWAP5 DUP4 MSTORE PUSH1 0x20 DUP4 KECCAK256 SWAP3 SWAP1 JUMPDEST DUP3 DUP3 LT PUSH2 0x3D8 JUMPI PUSH2 0x3D4 DUP6 PUSH2 0x3C8 DUP2 DUP10 SUB DUP3 PUSH2 0x1AEF JUMP JUMPDEST PUSH1 0x40 MLOAD SWAP2 DUP3 SWAP2 DUP3 PUSH2 0x19FD JUMP JUMPDEST SUB SWAP1 RETURN JUMPDEST DUP4 SLOAD DUP7 MSTORE SWAP5 DUP6 ADD SWAP5 PUSH1 0x1 SWAP4 DUP5 ADD SWAP4 SWAP1 SWAP2 ADD SWAP1 PUSH2 0x3B1 JUMP JUMPDEST POP CALLVALUE PUSH2 0x27B JUMPI DUP1 PUSH1 0x3 NOT CALLDATASIZE ADD SLT PUSH2 0x27B JUMPI PUSH1 0x40 MLOAD PUSH32 0x0 PUSH1 0x1 PUSH1 0x1 PUSH1 0xA0 SHL SUB AND DUP2 MSTORE PUSH1 0x20 SWAP1 RETURN JUMPDEST POP CALLVALUE PUSH2 0x27B JUMPI DUP1 PUSH1 0x3 NOT CALLDATASIZE ADD SLT PUSH2 0x27B JUMPI PUSH2 0x44D PUSH2 0x1F29 JUMP JUMPDEST DUP1 DUP1 DUP1 DUP1 PUSH1 0x1 DUP1 PUSH1 0xA0 SHL SUB PUSH1 0x1 SLOAD AND SELFBALANCE SWAP1 DUP3 DUP3 ISZERO PUSH2 0x47B JUMPI JUMPDEST CALL ISZERO PUSH2 0x46F JUMPI DUP1 RETURN JUMPDEST PUSH1 0x40 MLOAD SWAP1 RETURNDATASIZE SWAP1 DUP3 RETURNDATACOPY RETURNDATASIZE SWAP1 REVERT JUMPDEST POP PUSH2 0x8FC PUSH2 0x466 JUMP JUMPDEST POP CALLVALUE PUSH2 0x27B JUMPI DUP1 PUSH1 0x3 NOT CALLDATASIZE ADD SLT PUSH2 0x27B JUMPI PUSH1 0x20 PUSH1 0x40 MLOAD PUSH2 0x1F4 DUP2 MSTORE RETURN JUMPDEST POP CALLVALUE PUSH2 0x27B JUMPI PUSH1 0x20 CALLDATASIZE PUSH1 0x3 NOT ADD SLT PUSH2 0x27B JUMPI PUSH1 0x4 DUP1 CALLDATALOAD DUP3 MSTORE PUSH1 0x3 PUSH1 0x20 DUP2 DUP2 MSTORE PUSH1 0x40 SWAP4 DUP5 SWAP1 KECCAK256 DUP1 SLOAD PUSH1 0x1 DUP3 ADD SLOAD PUSH1 0x2 DUP4 ADD SLOAD SWAP5 DUP4 ADD SLOAD SWAP6 DUP4 ADD SLOAD PUSH1 0x5 SWAP1 SWAP4 ADD SLOAD DUP8 MLOAD SWAP3 DUP4 MSTORE SWAP4 DUP3 ADD MSTORE SWAP5 DUP6 ADD SWAP3 SWAP1 SWAP3 MSTORE PUSH1 0x1 PUSH1 0x1 PUSH1 0xA0 SHL SUB SWAP1 SWAP3 AND PUSH1 0x60 DUP5 ADD MSTORE PUSH1 0x80 DUP4 ADD MSTORE PUSH1 0xFF AND ISZERO ISZERO PUSH1 0xA0 DUP3 ADD MSTORE PUSH1 0xC0 SWAP1 RETURN JUMPDEST POP CALLVALUE PUSH2 0x27B JUMPI PUSH1 0x40 CALLDATASIZE PUSH1 0x3 NOT ADD SLT PUSH2 0x27B JUMPI PUSH2 0x52E PUSH2 0x1A7D JUMP JUMPDEST PUSH1 0x1 PUSH1 0x1 PUSH1 0xA0 SHL SUB AND DUP2 MSTORE PUSH1 0x8 PUSH1 0x20 MSTORE PUSH1 0x40 DUP2 KECCAK256 DUP1 SLOAD PUSH1 0x24 CALLDATALOAD SWAP3 SWAP1 DUP4 LT ISZERO PUSH2 0x27B JUMPI PUSH1 0x20 PUSH2 0x55C DUP5 DUP5 PUSH2 0x1A4F JUMP JUMPDEST SWAP1 SLOAD PUSH1 0x40 MLOAD SWAP2 PUSH1 0x3 SHL SHR DUP2 MSTORE RETURN JUMPDEST POP CALLVALUE PUSH2 0x27B JUMPI PUSH1 0xA0 CALLDATASIZE PUSH1 0x3 NOT ADD SLT PUSH2 0x27B JUMPI PUSH2 0x584 PUSH2 0x1A7D JUMP JUMPDEST POP PUSH2 0x58D PUSH2 0x1A93 JUMP JUMPDEST POP PUSH8 0xFFFFFFFFFFFFFFFF PUSH1 0x44 CALLDATALOAD DUP2 DUP2 GT PUSH2 0x5F4 JUMPI PUSH2 0x5AF SWAP1 CALLDATASIZE SWAP1 PUSH1 0x4 ADD PUSH2 0x1B11 JUMP JUMPDEST POP PUSH1 0x64 CALLDATALOAD DUP2 DUP2 GT PUSH2 0x5F4 JUMPI PUSH2 0x5C8 SWAP1 CALLDATASIZE SWAP1 PUSH1 0x4 ADD PUSH2 0x1B11 JUMP JUMPDEST POP PUSH1 0x84 CALLDATALOAD SWAP1 DUP2 GT PUSH2 0x365 JUMPI PUSH2 0x5E1 SWAP1 CALLDATASIZE SWAP1 PUSH1 0x4 ADD PUSH2 0x1B78 JUMP JUMPDEST POP PUSH1 0x40 MLOAD PUSH4 0xBC197C81 PUSH1 0xE0 SHL DUP2 MSTORE PUSH1 0x20 SWAP1 RETURN JUMPDEST DUP3 DUP1 REVERT JUMPDEST POP CALLVALUE PUSH2 0x27B JUMPI PUSH1 0x60 CALLDATASIZE PUSH1 0x3 NOT ADD SLT PUSH2 0x27B JUMPI PUSH1 0x4 CALLDATALOAD PUSH1 0x24 CALLDATALOAD SWAP2 PUSH1 0x44 CALLDATALOAD SWAP1 PUSH2 0x61D PUSH2 0x1EE5 JUMP JUMPDEST PUSH2 0x625 PUSH2 0x1F06 JUMP JUMPDEST PUSH2 0x630 DUP5 ISZERO ISZERO PUSH2 0x1DA4 JUMP JUMPDEST PUSH2 0x63B DUP3 ISZERO ISZERO PUSH2 0x1DF0 JUMP JUMPDEST PUSH1 0x40 MLOAD PUSH3 0x7EEAC7 PUSH1 0xE1 SHL DUP2 MSTORE CALLER PUSH1 0x4 DUP3 ADD MSTORE PUSH1 0x24 DUP2 ADD DUP5 SWAP1 MSTORE PUSH1 0x1 PUSH1 0x1 PUSH1 0xA0 SHL SUB PUSH32 0x0 AND SWAP5 PUSH1 0x20 SWAP5 SWAP1 SWAP2 DUP6 DUP2 PUSH1 0x44 DUP2 DUP11 GAS STATICCALL DUP1 ISZERO PUSH2 0x862 JUMPI DUP4 SWAP1 DUP6 SWAP1 PUSH2 0x82C JUMPI JUMPDEST PUSH2 0x6A7 SWAP3 POP LT ISZERO PUSH2 0x1CF4 JUMP JUMPDEST PUSH1 0x40 MLOAD PUSH4 0xE985E9C5 PUSH1 0xE0 SHL DUP2 MSTORE CALLER PUSH1 0x4 DUP3 ADD MSTORE ADDRESS PUSH1 0x24 DUP3 ADD MSTORE SWAP6 DUP6 SWAP1 DUP8 SWAP1 PUSH1 0x44 SWAP1 DUP3 SWAP1 GAS STATICCALL SWAP6 DUP7 ISZERO PUSH2 0x821 JUMPI PUSH1 0x1 SWAP5 SWAP6 SWAP7 PUSH2 0x6E9 SWAP2 DUP6 SWAP2 PUSH2 0x7F4 JUMPI JUMPDEST POP PUSH2 0x1D58 JUMP JUMPDEST PUSH2 0x6F4 PUSH1 0x9 SLOAD PUSH2 0x1E3C JUMP JUMPDEST PUSH1 0x9 DUP2 SWAP1 SSTORE PUSH1 0x40 MLOAD CALLER PUSH1 0x60 SHL PUSH12 0xFFFFFFFFFFFFFFFFFFFFFFFF NOT AND DUP9 DUP3 ADD SWAP1 DUP2 MSTORE PUSH1 0x14 DUP2 ADD DUP5 SWAP1 MSTORE PUSH1 0x34 DUP2 ADD DUP6 SWAP1 MSTORE PUSH1 0x54 DUP2 ADD DUP9 SWAP1 MSTORE TIMESTAMP PUSH1 0x74 DUP3 ADD MSTORE PUSH1 0x94 DUP2 ADD SWAP3 SWAP1 SWAP3 MSTORE PUSH2 0x74F DUP2 PUSH1 0xB4 DUP5 ADD JUMPDEST SUB PUSH1 0x1F NOT DUP2 ADD DUP4 MSTORE DUP3 PUSH2 0x1AEF JUMP JUMPDEST MLOAD SWAP1 KECCAK256 SWAP5 PUSH2 0x792 PUSH1 0x40 MLOAD PUSH2 0x762 DUP2 PUSH2 0x1AD3 JUMP JUMPDEST DUP4 DUP2 MSTORE DUP5 DUP10 DUP3 ADD MSTORE DUP3 PUSH1 0x40 DUP3 ADD MSTORE CALLER PUSH1 0x60 DUP3 ADD MSTORE TIMESTAMP PUSH1 0x80 DUP3 ADD MSTORE DUP7 PUSH1 0xA0 DUP3 ADD MSTORE DUP8 DUP7 MSTORE PUSH1 0x3 DUP10 MSTORE PUSH1 0x40 DUP7 KECCAK256 PUSH2 0x1E4B JUMP JUMPDEST DUP2 DUP5 MSTORE PUSH1 0x5 DUP8 MSTORE PUSH2 0x7A6 DUP7 PUSH1 0x40 DUP7 KECCAK256 PUSH2 0x1EAB JUMP JUMPDEST CALLER DUP5 MSTORE PUSH1 0x7 DUP8 MSTORE PUSH2 0x7BA DUP7 PUSH1 0x40 DUP7 KECCAK256 PUSH2 0x1EAB JUMP JUMPDEST PUSH1 0x40 MLOAD SWAP3 DUP4 MSTORE DUP7 DUP4 ADD MSTORE DUP5 PUSH32 0x5D450AF7246F78F4DEE2907141631B6F63628A5027655205C154AD687DBDB51F PUSH1 0x40 CALLER SWAP5 LOG4 SSTORE PUSH1 0x40 MLOAD SWAP1 DUP2 MSTORE RETURN JUMPDEST PUSH2 0x814 SWAP2 POP DUP9 RETURNDATASIZE DUP11 GT PUSH2 0x81A JUMPI JUMPDEST PUSH2 0x80C DUP2 DUP4 PUSH2 0x1AEF JUMP JUMPDEST DUP2 ADD SWAP1 PUSH2 0x1D40 JUMP JUMPDEST CODESIZE PUSH2 0x6E3 JUMP JUMPDEST POP RETURNDATASIZE PUSH2 0x802 JUMP JUMPDEST PUSH1 0x40 MLOAD RETURNDATASIZE DUP6 DUP3 RETURNDATACOPY RETURNDATASIZE SWAP1 REVERT JUMPDEST POP POP DUP6 DUP2 DUP2 RETURNDATASIZE DUP4 GT PUSH2 0x85B JUMPI JUMPDEST PUSH2 0x843 DUP2 DUP4 PUSH2 0x1AEF JUMP JUMPDEST DUP2 ADD SUB SLT PUSH2 0x856 JUMPI DUP3 PUSH2 0x6A7 SWAP2 MLOAD PUSH2 0x69B JUMP JUMPDEST PUSH1 0x0 DUP1 REVERT JUMPDEST POP RETURNDATASIZE PUSH2 0x839 JUMP JUMPDEST PUSH1 0x40 MLOAD RETURNDATASIZE DUP7 DUP3 RETURNDATACOPY RETURNDATASIZE SWAP1 REVERT JUMPDEST POP CALLVALUE PUSH2 0x27B JUMPI PUSH2 0x87C CALLDATASIZE PUSH2 0x1A39 JUMP JUMPDEST SWAP2 SWAP1 DUP2 MSTORE PUSH1 0x6 PUSH1 0x20 MSTORE PUSH1 0x40 DUP2 KECCAK256 SWAP1 DUP2 SLOAD DUP4 LT ISZERO PUSH2 0x27B JUMPI PUSH1 0x20 PUSH2 0x55C DUP5 DUP5 PUSH2 0x1A4F JUMP JUMPDEST POP CALLVALUE PUSH2 0x27B JUMPI PUSH1 0x20 CALLDATASIZE PUSH1 0x3 NOT ADD SLT PUSH2 0x27B JUMPI PUSH1 0x4 CALLDATALOAD PUSH2 0x8BC PUSH2 0x1F29 JUMP JUMPDEST PUSH2 0x1F4 DUP2 GT PUSH2 0x8CB JUMPI PUSH1 0x2 SSTORE DUP1 RETURN JUMPDEST PUSH1 0x40 MLOAD PUSH3 0x461BCD PUSH1 0xE5 SHL DUP2 MSTORE PUSH1 0x20 PUSH1 0x4 DUP3 ADD MSTORE PUSH1 0xC PUSH1 0x24 DUP3 ADD MSTORE PUSH12 0x8CCACA40E8DEDE40D0D2CED PUSH1 0xA3 SHL PUSH1 0x44 DUP3 ADD MSTORE PUSH1 0x64 SWAP1 REVERT JUMPDEST POP CALLVALUE PUSH2 0x27B JUMPI PUSH1 0x20 CALLDATASIZE PUSH1 0x3 NOT ADD SLT PUSH2 0x27B JUMPI PUSH1 0x4 CALLDATALOAD DUP1 DUP3 MSTORE PUSH1 0x3 PUSH1 0x20 MSTORE PUSH1 0x40 DUP3 KECCAK256 PUSH1 0x5 DUP2 ADD SWAP1 DUP2 SLOAD SWAP1 PUSH2 0x934 PUSH1 0xFF DUP4 AND PUSH2 0x1BCF JUMP JUMPDEST PUSH1 0x3 ADD SLOAD PUSH1 0x1 PUSH1 0x1 PUSH1 0xA0 SHL SUB AND CALLER SUB PUSH2 0x976 JUMPI PUSH1 0xFF NOT AND SWAP1 SSTORE CALLER SWAP1 PUSH32 0xD79D80F6EC1A88062761EA9E96514B31F6C3429AC7764829D8770CD9CC32CF23 DUP4 DUP1 LOG3 DUP1 RETURN JUMPDEST PUSH1 0x40 MLOAD PUSH3 0x461BCD PUSH1 0xE5 SHL DUP2 MSTORE PUSH1 0x20 PUSH1 0x4 DUP3 ADD MSTORE PUSH1 0xE PUSH1 0x24 DUP3 ADD MSTORE PUSH14 0x2737BA103A34329039B2B63632B9 PUSH1 0x91 SHL PUSH1 0x44 DUP3 ADD MSTORE PUSH1 0x64 SWAP1 REVERT JUMPDEST POP CALLVALUE PUSH2 0x27B JUMPI DUP1 PUSH1 0x3 NOT CALLDATASIZE ADD SLT PUSH2 0x27B JUMPI PUSH1 0x1 SLOAD PUSH1 0x40 MLOAD PUSH1 0x1 PUSH1 0x1 PUSH1 0xA0 SHL SUB SWAP1 SWAP2 AND DUP2 MSTORE PUSH1 0x20 SWAP1 RETURN JUMPDEST POP CALLVALUE PUSH2 0x27B JUMPI PUSH1 0x40 CALLDATASIZE PUSH1 0x3 NOT ADD SLT PUSH2 0x27B JUMPI PUSH2 0x9EF PUSH2 0x1A7D JUMP JUMPDEST PUSH1 0x1 PUSH1 0x1 PUSH1 0xA0 SHL SUB AND DUP2 MSTORE PUSH1 0x7 PUSH1 0x20 MSTORE PUSH1 0x40 DUP2 KECCAK256 DUP1 SLOAD PUSH1 0x24 CALLDATALOAD SWAP3 SWAP1 DUP4 LT ISZERO PUSH2 0x27B JUMPI PUSH1 0x20 PUSH2 0x55C DUP5 DUP5 PUSH2 0x1A4F JUMP JUMPDEST POP CALLVALUE PUSH2 0x27B JUMPI DUP1 PUSH1 0x3 NOT CALLDATASIZE ADD SLT PUSH2 0x27B JUMPI PUSH2 0xA36 PUSH2 0x1F29 JUMP JUMPDEST PUSH2 0xA3E PUSH2 0x1EE5 JUMP JUMPDEST PUSH1 0x1 DUP1 SLOAD PUSH1 0xFF PUSH1 0xA0 SHL NOT AND PUSH1 0x1 PUSH1 0xA0 SHL OR SWAP1 SSTORE PUSH1 0x40 MLOAD CALLER DUP2 MSTORE PUSH32 0x62E78CEA01BEE320CD4E420270B5EA74000D11B0C9F74754EBDBFC544B05A258 SWAP1 PUSH1 0x20 SWAP1 LOG1 DUP1 RETURN JUMPDEST POP CALLVALUE PUSH2 0x27B JUMPI DUP1 PUSH1 0x3 NOT CALLDATASIZE ADD SLT PUSH2 0x27B JUMPI PUSH1 0x40 MLOAD PUSH32 0x0 PUSH1 0x1 PUSH1 0x1 PUSH1 0xA0 SHL SUB AND DUP2 MSTORE PUSH1 0x20 SWAP1 RETURN JUMPDEST POP CALLVALUE PUSH2 0x27B JUMPI DUP1 PUSH1 0x3 NOT CALLDATASIZE ADD SLT PUSH2 0x27B JUMPI PUSH2 0xADE PUSH2 0x1F29 JUMP JUMPDEST PUSH1 0x1 DUP1 SLOAD PUSH1 0x1 PUSH1 0x1 PUSH1 0xA0 SHL SUB NOT DUP2 AND SWAP1 SWAP2 SSTORE PUSH1 0x0 SWAP1 PUSH1 0x1 PUSH1 0x1 PUSH1 0xA0 SHL SUB AND PUSH32 0x8BE0079C531659141344CD1FD0A4F28419497F9722A3DAAFE3B4186F6B6457E0 DUP3 DUP1 LOG3 DUP1 RETURN JUMPDEST POP CALLVALUE PUSH2 0x27B JUMPI DUP1 PUSH1 0x3 NOT CALLDATASIZE ADD SLT PUSH2 0x27B JUMPI PUSH1 0x20 PUSH1 0x2 SLOAD PUSH1 0x40 MLOAD SWAP1 DUP2 MSTORE RETURN JUMPDEST POP CALLVALUE PUSH2 0x27B JUMPI PUSH1 0x20 DUP1 PUSH1 0x3 NOT CALLDATASIZE ADD SLT PUSH2 0x365 JUMPI PUSH1 0x1 PUSH1 0x1 PUSH1 0xA0 SHL SUB PUSH2 0xB64 PUSH2 0x1A7D JUMP JUMPDEST AND DUP3 MSTORE PUSH1 0x8 PUSH1 0x20 MSTORE PUSH1 0x40 DUP3 KECCAK256 SWAP2 PUSH1 0x40 MLOAD DUP1 SWAP3 PUSH1 0x20 DUP6 SLOAD SWAP3 DUP4 DUP2 MSTORE ADD SWAP5 DUP4 MSTORE PUSH1 0x20 DUP4 KECCAK256 SWAP3 SWAP1 JUMPDEST DUP3 DUP3 LT PUSH2 0xBA0 JUMPI PUSH2 0x3D4 DUP6 PUSH2 0x3C8 DUP2 DUP10 SUB DUP3 PUSH2 0x1AEF JUMP JUMPDEST DUP4 SLOAD DUP7 MSTORE SWAP5 DUP6 ADD SWAP5 PUSH1 0x1 SWAP4 DUP5 ADD SWAP4 SWAP1 SWAP2 ADD SWAP1 PUSH2 0xB89 JUMP JUMPDEST POP PUSH1 0x80 CALLDATASIZE PUSH1 0x3 NOT ADD SLT PUSH2 0x27B JUMPI PUSH1 0x4 CALLDATALOAD PUSH1 0x24 CALLDATALOAD PUSH1 0x44 CALLDATALOAD SWAP3 PUSH1 0x64 CALLDATALOAD SWAP2 PUSH2 0xBDA PUSH2 0x1EE5 JUMP JUMPDEST PUSH2 0xBE2 PUSH2 0x1F06 JUMP JUMPDEST PUSH2 0xBED DUP2 ISZERO ISZERO PUSH2 0x1DA4 JUMP JUMPDEST PUSH2 0xBF8 DUP6 ISZERO ISZERO PUSH2 0x1DF0 JUMP JUMPDEST DUP3 ISZERO ISZERO DUP1 PUSH2 0xDC1 JUMPI JUMPDEST ISZERO PUSH2 0xD89 JUMPI PUSH2 0xC10 DUP2 DUP7 PUSH2 0x1C4D JUMP JUMPDEST CALLVALUE LT PUSH2 0xD44 JUMPI PUSH2 0xC21 PUSH1 0xA SLOAD PUSH2 0x1E3C JUMP JUMPDEST PUSH1 0xA DUP2 SWAP1 SSTORE PUSH1 0x40 MLOAD CALLER PUSH1 0x60 SHL PUSH12 0xFFFFFFFFFFFFFFFFFFFFFFFF NOT AND PUSH1 0x20 DUP1 DUP4 ADD SWAP2 DUP3 MSTORE PUSH1 0x34 DUP4 ADD DUP9 SWAP1 MSTORE PUSH1 0x54 DUP4 ADD DUP6 SWAP1 MSTORE PUSH1 0x74 DUP4 ADD DUP10 SWAP1 MSTORE TIMESTAMP PUSH1 0x94 DUP5 ADD MSTORE PUSH1 0xB4 DUP4 ADD SWAP4 SWAP1 SWAP4 MSTORE SWAP2 SWAP6 SWAP2 SWAP1 PUSH2 0xC78 DUP2 PUSH1 0xD4 DUP2 ADD PUSH2 0x741 JUMP JUMPDEST MLOAD SWAP1 KECCAK256 SWAP4 TIMESTAMP ADD DUP1 TIMESTAMP GT PUSH2 0xD30 JUMPI PUSH1 0x1 SWAP5 SWAP6 SWAP7 PUSH2 0xCC9 PUSH1 0x40 MLOAD PUSH2 0xC99 DUP2 PUSH2 0x1AD3 JUMP JUMPDEST DUP5 DUP2 MSTORE DUP6 DUP11 DUP3 ADD MSTORE DUP3 PUSH1 0x40 DUP3 ADD MSTORE CALLER PUSH1 0x60 DUP3 ADD MSTORE DUP4 PUSH1 0x80 DUP3 ADD MSTORE DUP8 PUSH1 0xA0 DUP3 ADD MSTORE DUP9 DUP8 MSTORE PUSH1 0x4 DUP11 MSTORE PUSH1 0x40 DUP8 KECCAK256 PUSH2 0x1E4B JUMP JUMPDEST DUP3 DUP6 MSTORE PUSH1 0x6 DUP9 MSTORE PUSH2 0xCDD DUP8 PUSH1 0x40 DUP8 KECCAK256 PUSH2 0x1EAB JUMP JUMPDEST CALLER DUP6 MSTORE PUSH1 0x8 DUP9 MSTORE PUSH2 0xCF1 DUP8 PUSH1 0x40 DUP8 KECCAK256 PUSH2 0x1EAB JUMP JUMPDEST PUSH1 0x40 MLOAD SWAP4 DUP5 MSTORE DUP8 DUP5 ADD MSTORE PUSH1 0x40 DUP4 ADD MSTORE DUP5 PUSH32 0x32894AAC4345DFC3041155CB3F366B2E2831CE2F2B8F4D7054B2B704DBE470F0 PUSH1 0x60 CALLER SWAP5 LOG4 SSTORE PUSH1 0x40 MLOAD SWAP1 DUP2 MSTORE RETURN JUMPDEST PUSH4 0x4E487B71 PUSH1 0xE0 SHL DUP5 MSTORE PUSH1 0x11 PUSH1 0x4 MSTORE PUSH1 0x24 DUP5 REVERT JUMPDEST PUSH1 0x40 MLOAD PUSH3 0x461BCD PUSH1 0xE5 SHL DUP2 MSTORE PUSH1 0x20 PUSH1 0x4 DUP3 ADD MSTORE PUSH1 0x1E PUSH1 0x24 DUP3 ADD MSTORE PUSH32 0x496E73756666696369656E74207061796D656E7420666F72206F666665720000 PUSH1 0x44 DUP3 ADD MSTORE PUSH1 0x64 SWAP1 REVERT JUMPDEST PUSH1 0x40 MLOAD PUSH3 0x461BCD PUSH1 0xE5 SHL DUP2 MSTORE PUSH1 0x20 PUSH1 0x4 DUP3 ADD MSTORE PUSH1 0x10 PUSH1 0x24 DUP3 ADD MSTORE PUSH16 0x24B73B30B634B210323AB930BA34B7B7 PUSH1 0x81 SHL PUSH1 0x44 DUP3 ADD MSTORE PUSH1 0x64 SWAP1 REVERT JUMPDEST POP PUSH3 0x278D00 DUP4 GT ISZERO PUSH2 0xC01 JUMP JUMPDEST POP CALLVALUE PUSH2 0x27B JUMPI DUP1 PUSH1 0x3 NOT CALLDATASIZE ADD SLT PUSH2 0x27B JUMPI PUSH1 0x20 PUSH1 0xFF PUSH1 0x1 SLOAD PUSH1 0xA0 SHR AND PUSH1 0x40 MLOAD SWAP1 ISZERO ISZERO DUP2 MSTORE RETURN JUMPDEST POP CALLVALUE PUSH2 0x27B JUMPI PUSH1 0x20 CALLDATASIZE PUSH1 0x3 NOT ADD SLT PUSH2 0x27B JUMPI PUSH1 0x4 DUP1 CALLDATALOAD DUP3 MSTORE PUSH1 0x20 DUP2 DUP2 MSTORE PUSH1 0x40 SWAP3 DUP4 SWAP1 KECCAK256 DUP1 SLOAD PUSH1 0x1 DUP3 ADD SLOAD PUSH1 0x2 DUP4 ADD SLOAD PUSH1 0x3 DUP5 ADD SLOAD SWAP6 DUP5 ADD SLOAD PUSH1 0x5 SWAP1 SWAP5 ADD SLOAD DUP8 MLOAD SWAP4 DUP5 MSTORE SWAP5 DUP4 ADD SWAP2 SWAP1 SWAP2 MSTORE SWAP5 DUP2 ADD SWAP5 SWAP1 SWAP5 MSTORE PUSH1 0x1 PUSH1 0x1 PUSH1 0xA0 SHL SUB SWAP1 SWAP3 AND PUSH1 0x60 DUP5 ADD MSTORE PUSH1 0x80 DUP4 ADD SWAP2 SWAP1 SWAP2 MSTORE PUSH1 0xFF AND ISZERO ISZERO PUSH1 0xA0 DUP3 ADD MSTORE PUSH1 0xC0 SWAP1 RETURN JUMPDEST POP CALLVALUE PUSH2 0x27B JUMPI PUSH2 0xE7B CALLDATASIZE PUSH2 0x1A39 JUMP JUMPDEST SWAP2 SWAP1 DUP2 MSTORE PUSH1 0x5 PUSH1 0x20 MSTORE PUSH1 0x40 DUP2 KECCAK256 SWAP1 DUP2 SLOAD DUP4 LT ISZERO PUSH2 0x27B JUMPI PUSH1 0x20 PUSH2 0x55C DUP5 DUP5 PUSH2 0x1A4F JUMP JUMPDEST POP CALLVALUE PUSH2 0x27B JUMPI DUP1 PUSH1 0x3 NOT CALLDATASIZE ADD SLT PUSH2 0x27B JUMPI PUSH2 0xEB7 PUSH2 0x1F29 JUMP JUMPDEST PUSH1 0x1 SLOAD PUSH1 0xFF DUP2 PUSH1 0xA0 SHR AND ISZERO PUSH2 0xEFF JUMPI PUSH1 0xFF PUSH1 0xA0 SHL NOT AND PUSH1 0x1 SSTORE PUSH1 0x40 MLOAD CALLER DUP2 MSTORE PUSH32 0x5DB9EE0A495BF2E6FF9C91A7834C1BA4FDD244A5E8AA4E537BD38AEAE4B073AA SWAP1 PUSH1 0x20 SWAP1 LOG1 DUP1 RETURN JUMPDEST PUSH1 0x40 MLOAD PUSH4 0x8DFC202B PUSH1 0xE0 SHL DUP2 MSTORE PUSH1 0x4 SWAP1 REVERT JUMPDEST POP CALLVALUE PUSH2 0x27B JUMPI PUSH2 0xF20 CALLDATASIZE PUSH2 0x1A39 JUMP JUMPDEST PUSH2 0xF28 PUSH2 0x1EE5 JUMP JUMPDEST PUSH2 0xF30 PUSH2 0x1F06 JUMP JUMPDEST DUP2 DUP4 MSTORE PUSH1 0x20 SWAP2 PUSH1 0x4 DUP4 MSTORE PUSH1 0x40 DUP5 KECCAK256 SWAP2 PUSH2 0xF4F PUSH1 0xFF PUSH1 0x5 DUP6 ADD SLOAD AND PUSH2 0x1CB5 JUMP JUMPDEST PUSH1 0x4 DUP4 ADD SLOAD TIMESTAMP GT PUSH2 0x1425 JUMPI DUP1 ISZERO ISZERO DUP1 PUSH2 0x1417 JUMPI JUMPDEST PUSH2 0xF6C SWAP1 PUSH2 0x1C10 JUMP JUMPDEST DUP3 SLOAD PUSH1 0x40 MLOAD PUSH3 0x7EEAC7 PUSH1 0xE1 SHL DUP2 MSTORE CALLER PUSH1 0x4 DUP3 ADD MSTORE PUSH1 0x24 DUP2 ADD DUP3 SWAP1 MSTORE SWAP1 SWAP2 SWAP1 DUP6 DUP2 PUSH1 0x44 DUP2 PUSH1 0x1 PUSH1 0x1 PUSH1 0xA0 SHL SUB PUSH32 0x0 AND GAS STATICCALL DUP1 ISZERO PUSH2 0x1389 JUMPI DUP3 SWAP1 DUP9 SWAP1 PUSH2 0x13E6 JUMPI JUMPDEST PUSH2 0xFD6 SWAP3 POP LT ISZERO PUSH2 0x1CF4 JUMP JUMPDEST PUSH1 0x40 MLOAD PUSH4 0xE985E9C5 PUSH1 0xE0 SHL DUP2 MSTORE CALLER PUSH1 0x4 DUP3 ADD MSTORE ADDRESS PUSH1 0x24 DUP3 ADD MSTORE DUP6 DUP2 PUSH1 0x44 DUP2 PUSH1 0x1 PUSH1 0x1 PUSH1 0xA0 SHL SUB PUSH32 0x0 AND GAS STATICCALL DUP1 ISZERO PUSH2 0x1389 JUMPI PUSH2 0x1036 SWAP2 DUP9 SWAP2 PUSH2 0x13CF JUMPI POP PUSH2 0x1D58 JUMP JUMPDEST DUP6 PUSH2 0x1045 DUP3 PUSH1 0x2 DUP8 ADD SLOAD PUSH2 0x1C4D JUMP JUMPDEST SWAP3 PUSH2 0x2710 PUSH2 0x1055 PUSH1 0x2 SLOAD DUP7 PUSH2 0x1C4D JUMP JUMPDEST PUSH1 0x40 MLOAD PUSH4 0xB7195763 PUSH1 0xE0 SHL DUP2 MSTORE PUSH1 0x4 DUP2 ADD DUP5 SWAP1 MSTORE PUSH1 0x24 DUP2 ADD DUP8 SWAP1 MSTORE SWAP3 SWAP2 SWAP1 DIV SWAP1 PUSH1 0x80 DUP4 PUSH1 0x44 DUP2 PUSH32 0x0 PUSH1 0x1 PUSH1 0x1 PUSH1 0xA0 SHL SUB AND GAS STATICCALL SWAP1 DUP2 ISZERO PUSH2 0x862 JUMPI DUP5 SWAP4 DUP6 SWAP1 DUP7 SWAP4 PUSH2 0x1398 JUMPI JUMPDEST POP PUSH2 0x10D1 DUP4 PUSH2 0x10CC DUP4 PUSH2 0x10CC DUP9 DUP14 PUSH2 0x1CA8 JUMP JUMPDEST PUSH2 0x1CA8 JUMP JUMPDEST PUSH1 0x3 DUP12 ADD SLOAD SWAP1 SWAP6 SWAP1 PUSH1 0x1 PUSH1 0x1 PUSH1 0xA0 SHL SUB SWAP1 DUP2 AND SWAP1 PUSH32 0x0 AND EXTCODESIZE ISZERO PUSH2 0x1394 JUMPI PUSH1 0x40 MLOAD PUSH4 0x79212195 PUSH1 0xE1 SHL DUP2 MSTORE CALLER PUSH1 0x4 DUP3 ADD MSTORE PUSH1 0x1 PUSH1 0x1 PUSH1 0xA0 SHL SUB SWAP1 SWAP2 AND PUSH1 0x24 DUP3 ADD MSTORE PUSH1 0x44 DUP2 ADD SWAP4 SWAP1 SWAP4 MSTORE PUSH1 0x64 DUP4 ADD DUP9 SWAP1 MSTORE PUSH1 0xA0 PUSH1 0x84 DUP5 ADD MSTORE PUSH1 0x0 PUSH1 0xA4 DUP5 ADD MSTORE DUP7 DUP4 DUP1 PUSH1 0xC4 DUP2 ADD SUB DUP2 DUP4 PUSH32 0x0 PUSH1 0x1 PUSH1 0x1 PUSH1 0xA0 SHL SUB AND GAS CALL SWAP3 DUP4 ISZERO PUSH2 0x1389 JUMPI DUP8 SWAP4 PUSH2 0x136D JUMPI JUMPDEST POP PUSH1 0x1 DUP12 ADD SWAP6 PUSH2 0x11A2 DUP10 DUP9 SLOAD PUSH2 0x1CA8 JUMP JUMPDEST DUP1 DUP9 SSTORE ISZERO PUSH2 0x135C JUMPI JUMPDEST DUP1 ISZERO DUP1 ISZERO PUSH2 0x1333 JUMPI JUMPDEST POP POP DUP2 ISZERO SWAP1 DUP2 ISZERO PUSH2 0x1303 JUMPI JUMPDEST POP POP POP SWAP1 DUP1 ISZERO DUP1 ISZERO PUSH2 0x12AA JUMPI JUMPDEST POP POP SWAP1 DUP1 ISZERO SWAP1 DUP2 ISZERO PUSH2 0x127A JUMPI JUMPDEST POP POP POP SLOAD DUP1 PUSH2 0x1232 JUMPI JUMPDEST POP POP DUP4 SLOAD SWAP4 PUSH1 0x3 PUSH1 0x1 DUP1 PUSH1 0xA0 SHL SUB SWAP2 ADD SLOAD AND SWAP5 PUSH1 0x40 MLOAD SWAP6 DUP7 MSTORE DUP6 ADD MSTORE PUSH1 0x40 DUP5 ADD MSTORE PUSH32 0xF59FA8D7E2B3E47E4DCFBC241ADE86EAFE2766F3B623A79C2032CF1110FA0410 PUSH1 0x60 CALLER SWAP5 LOG4 PUSH1 0x1 DUP2 SSTORE DUP1 RETURN JUMPDEST DUP2 DUP1 PUSH2 0x1243 DUP2 SWAP4 PUSH1 0x2 DUP11 ADD SLOAD PUSH2 0x1C4D JUMP JUMPDEST PUSH1 0x3 DUP10 ADD SLOAD PUSH1 0x1 PUSH1 0x1 PUSH1 0xA0 SHL SUB AND DUP3 DUP3 ISZERO PUSH2 0x1271 JUMPI JUMPDEST CALL ISZERO PUSH2 0x1266 JUMPI DUP6 CODESIZE PUSH2 0x11E4 JUMP JUMPDEST PUSH1 0x40 MLOAD RETURNDATASIZE DUP8 DUP3 RETURNDATACOPY RETURNDATASIZE SWAP1 REVERT JUMPDEST POP PUSH2 0x8FC PUSH2 0x1259 JUMP JUMPDEST DUP3 DUP1 SWAP3 SWAP2 DUP2 SWAP3 PUSH1 0x1 DUP1 PUSH1 0xA0 SHL SUB PUSH1 0x1 SLOAD AND SWAP1 DUP4 SWAP1 PUSH2 0x12A1 JUMPI JUMPDEST CALL ISZERO PUSH2 0x230 JUMPI DUP2 CODESIZE DUP1 PUSH2 0x11DA JUMP JUMPDEST POP PUSH2 0x8FC PUSH2 0x1293 JUMP JUMPDEST DUP3 DUP1 SWAP3 DUP2 SWAP3 DUP3 SWAP1 PUSH2 0x12FA JUMPI JUMPDEST PUSH32 0x0 PUSH1 0x1 PUSH1 0x1 PUSH1 0xA0 SHL SUB AND SWAP1 CALL ISZERO PUSH2 0x12EF JUMPI DUP3 CODESIZE DUP1 PUSH2 0x11CD JUMP JUMPDEST PUSH1 0x40 MLOAD RETURNDATASIZE DUP5 DUP3 RETURNDATACOPY RETURNDATASIZE SWAP1 REVERT JUMPDEST POP PUSH2 0x8FC PUSH2 0x12B6 JUMP JUMPDEST DUP4 SWAP3 DUP4 SWAP3 DUP4 SWAP3 DUP4 SWAP2 PUSH2 0x1329 JUMPI JUMPDEST PUSH1 0x1 PUSH1 0x1 PUSH1 0xA0 SHL SUB AND SWAP1 CALL ISZERO PUSH2 0x821 JUMPI DUP4 CODESIZE DUP1 DUP1 PUSH2 0x11C0 JUMP JUMPDEST PUSH2 0x8FC SWAP2 POP PUSH2 0x1310 JUMP JUMPDEST SWAP4 DUP1 DUP1 SWAP4 SWAP6 SWAP3 DUP2 SWAP4 DUP3 SWAP1 PUSH2 0x1353 JUMPI JUMPDEST CALLER SWAP1 CALL ISZERO PUSH2 0x1266 JUMPI DUP6 SWAP2 CODESIZE DUP1 PUSH2 0x11B4 JUMP JUMPDEST POP PUSH2 0x8FC PUSH2 0x1342 JUMP JUMPDEST PUSH1 0x5 DUP13 ADD DUP1 SLOAD PUSH1 0xFF NOT AND SWAP1 SSTORE PUSH2 0x11AB JUMP JUMPDEST PUSH2 0x1379 SWAP1 SWAP4 SWAP2 SWAP4 PUSH2 0x1AA9 JUMP JUMPDEST PUSH2 0x1385 JUMPI DUP6 SWAP2 CODESIZE PUSH2 0x1191 JUMP JUMPDEST DUP6 DUP1 REVERT JUMPDEST PUSH1 0x40 MLOAD RETURNDATASIZE DUP10 DUP3 RETURNDATACOPY RETURNDATASIZE SWAP1 REVERT JUMPDEST DUP8 DUP1 REVERT JUMPDEST SWAP2 SWAP5 POP POP PUSH2 0x13BE SWAP2 POP PUSH1 0x80 RETURNDATASIZE PUSH1 0x80 GT PUSH2 0x13C8 JUMPI JUMPDEST PUSH2 0x13B6 DUP2 DUP4 PUSH2 0x1AEF JUMP JUMPDEST DUP2 ADD SWAP1 PUSH2 0x1C76 JUMP JUMPDEST POP SWAP2 SWAP4 SWAP1 CODESIZE PUSH2 0x10B9 JUMP JUMPDEST POP RETURNDATASIZE PUSH2 0x13AC JUMP JUMPDEST PUSH2 0x814 SWAP2 POP DUP8 RETURNDATASIZE DUP10 GT PUSH2 0x81A JUMPI PUSH2 0x80C DUP2 DUP4 PUSH2 0x1AEF JUMP JUMPDEST POP POP DUP6 DUP2 DUP2 RETURNDATASIZE DUP4 GT PUSH2 0x1410 JUMPI JUMPDEST PUSH2 0x13FD DUP2 DUP4 PUSH2 0x1AEF JUMP JUMPDEST DUP2 ADD SUB SLT PUSH2 0x856 JUMPI DUP2 PUSH2 0xFD6 SWAP2 MLOAD PUSH2 0xFCA JUMP JUMPDEST POP RETURNDATASIZE PUSH2 0x13F3 JUMP JUMPDEST POP PUSH1 0x1 DUP4 ADD SLOAD DUP2 GT ISZERO PUSH2 0xF63 JUMP JUMPDEST PUSH1 0x40 MLOAD PUSH3 0x461BCD PUSH1 0xE5 SHL DUP2 MSTORE PUSH1 0x4 DUP2 ADD DUP6 SWAP1 MSTORE PUSH1 0xD PUSH1 0x24 DUP3 ADD MSTORE PUSH13 0x13D999995C88195E1C1A5C9959 PUSH1 0x9A SHL PUSH1 0x44 DUP3 ADD MSTORE PUSH1 0x64 SWAP1 REVERT JUMPDEST POP CALLVALUE PUSH2 0x27B JUMPI DUP1 PUSH1 0x3 NOT CALLDATASIZE ADD SLT PUSH2 0x27B JUMPI PUSH1 0x40 MLOAD PUSH32 0x0 PUSH1 0x1 PUSH1 0x1 PUSH1 0xA0 SHL SUB AND DUP2 MSTORE PUSH1 0x20 SWAP1 RETURN JUMPDEST POP PUSH2 0x14A9 CALLDATASIZE PUSH2 0x1A39 JUMP JUMPDEST PUSH2 0x14B1 PUSH2 0x1EE5 JUMP JUMPDEST PUSH2 0x14B9 PUSH2 0x1F06 JUMP JUMPDEST DUP2 DUP4 MSTORE PUSH1 0x3 PUSH1 0x20 MSTORE PUSH1 0x40 DUP4 KECCAK256 SWAP2 PUSH1 0x5 DUP4 ADD SWAP3 PUSH2 0x14D8 PUSH1 0xFF DUP6 SLOAD AND PUSH2 0x1BCF JUMP JUMPDEST DUP3 ISZERO ISZERO DUP1 PUSH2 0x18CA JUMPI JUMPDEST PUSH2 0x14EA SWAP1 PUSH2 0x1C10 JUMP JUMPDEST PUSH1 0x3 DUP2 ADD SWAP3 PUSH1 0x1 DUP1 PUSH1 0xA0 SHL SUB SWAP2 DUP3 DUP6 SLOAD AND SWAP6 CALLER DUP8 EQ PUSH2 0x1885 JUMPI PUSH2 0x1511 DUP4 PUSH1 0x2 DUP5 ADD SLOAD PUSH2 0x1C4D JUMP JUMPDEST SWAP7 DUP8 CALLVALUE LT PUSH2 0x1849 JUMPI PUSH2 0x2710 PUSH2 0x1528 PUSH1 0x2 SLOAD DUP11 PUSH2 0x1C4D JUMP JUMPDEST DIV SWAP3 DUP1 SLOAD PUSH1 0x40 MLOAD SWAP3 PUSH4 0xB7195763 PUSH1 0xE0 SHL DUP5 MSTORE DUP2 PUSH1 0x4 DUP6 ADD MSTORE DUP11 PUSH1 0x24 DUP6 ADD MSTORE PUSH1 0x80 DUP5 PUSH1 0x44 DUP2 DUP12 PUSH32 0x0 AND GAS STATICCALL SWAP5 DUP6 ISZERO PUSH2 0x183E JUMPI DUP12 SWAP3 DUP14 DUP9 DUP2 SWAP6 DUP3 SWAP9 DUP4 SWAP11 PUSH2 0x1807 JUMPI JUMPDEST POP PUSH2 0x10CC DUP10 PUSH2 0x10CC PUSH2 0x159A SWAP5 DUP14 SWAP5 PUSH2 0x1CA8 JUMP JUMPDEST SWAP4 DUP12 PUSH32 0x0 AND DUP1 EXTCODESIZE ISZERO PUSH2 0x5F4 JUMPI PUSH1 0x40 MLOAD PUSH4 0x79212195 PUSH1 0xE1 SHL DUP2 MSTORE PUSH1 0x1 PUSH1 0x1 PUSH1 0xA0 SHL SUB SWAP3 SWAP1 SWAP3 AND PUSH1 0x4 DUP4 ADD MSTORE CALLER PUSH1 0x24 DUP4 ADD MSTORE PUSH1 0x44 DUP3 ADD SWAP4 SWAP1 SWAP4 MSTORE PUSH1 0x64 DUP2 ADD DUP12 SWAP1 MSTORE PUSH1 0xA0 PUSH1 0x84 DUP3 ADD MSTORE PUSH1 0x0 PUSH1 0xA4 DUP3 ADD MSTORE SWAP2 DUP3 SWAP1 PUSH1 0xC4 SWAP1 DUP3 SWAP1 DUP5 SWAP1 GAS CALL DUP1 ISZERO PUSH2 0x17FA JUMPI PUSH2 0x17E3 JUMPI JUMPDEST POP DUP13 SWAP3 SWAP2 DUP4 SWAP2 PUSH1 0x1 DUP7 ADD PUSH2 0x1632 DUP12 DUP3 SLOAD PUSH2 0x1CA8 JUMP JUMPDEST DUP1 SWAP2 SSTORE ISZERO PUSH2 0x17D5 JUMPI JUMPDEST POP DUP10 DUP13 DUP3 ISZERO SWAP3 DUP4 ISZERO PUSH2 0x17AC JUMPI JUMPDEST POP POP SWAP2 POP POP DUP5 ISZERO SWAP2 DUP6 DUP4 ISZERO PUSH2 0x1783 JUMPI JUMPDEST POP POP POP POP DUP4 ISZERO DUP1 ISZERO PUSH2 0x173A JUMPI JUMPDEST POP DUP5 ISZERO DUP6 DUP2 ISZERO PUSH2 0x1710 JUMPI JUMPDEST POP POP POP DUP9 CALLVALUE GT PUSH2 0x16D1 JUMPI JUMPDEST SWAP1 PUSH32 0x377CD647CA6BD9AC9F1B2D44F261BEAD781F65B9FE47F5736B66CF695947AA0F SWAP6 PUSH1 0xC0 SWAP6 SWAP5 SWAP4 SWAP3 SLOAD SWAP9 SLOAD AND SWAP9 PUSH1 0x40 MLOAD SWAP5 CALLER DUP7 MSTORE PUSH1 0x20 DUP7 ADD MSTORE PUSH1 0x40 DUP6 ADD MSTORE PUSH1 0x60 DUP5 ADD MSTORE PUSH1 0x80 DUP4 ADD MSTORE PUSH1 0xA0 DUP3 ADD MSTORE LOG4 PUSH1 0x1 DUP2 SSTORE DUP1 RETURN JUMPDEST SWAP4 SWAP3 SWAP2 SWAP1 DUP10 DUP1 DUP1 DUP1 PUSH2 0x16E3 DUP14 CALLVALUE PUSH2 0x1CA8 JUMP JUMPDEST DUP2 DUP2 ISZERO PUSH2 0x1707 JUMPI JUMPDEST CALLER SWAP1 CALL ISZERO PUSH2 0x16FC JUMPI SWAP1 SWAP2 SWAP3 SWAP4 PUSH2 0x167B JUMP JUMPDEST PUSH1 0x40 MLOAD RETURNDATASIZE DUP12 DUP3 RETURNDATACOPY RETURNDATASIZE SWAP1 REVERT JUMPDEST POP PUSH2 0x8FC PUSH2 0x16EB JUMP JUMPDEST DUP3 DUP1 SWAP3 SWAP2 DUP2 SWAP3 DUP12 PUSH1 0x1 SLOAD AND SWAP1 DUP4 SWAP1 PUSH2 0x1731 JUMPI JUMPDEST CALL ISZERO PUSH2 0x16FC JUMPI DUP10 CODESIZE DUP6 PUSH2 0x1670 JUMP JUMPDEST POP PUSH2 0x8FC PUSH2 0x1723 JUMP JUMPDEST DUP5 DUP3 SWAP2 PUSH2 0x1779 JUMPI JUMPDEST DUP3 DUP1 SWAP3 SWAP2 DUP2 SWAP3 DUP12 PUSH32 0x0 AND SWAP1 CALL ISZERO PUSH2 0x16FC JUMPI DUP10 CODESIZE PUSH2 0x1665 JUMP JUMPDEST PUSH2 0x8FC SWAP2 POP PUSH2 0x1742 JUMP JUMPDEST DUP5 SWAP4 DUP5 SWAP4 DUP5 SWAP4 DUP5 SWAP3 PUSH2 0x17A2 JUMPI JUMPDEST AND SWAP1 CALL ISZERO PUSH2 0x16FC JUMPI DUP10 CODESIZE DUP8 DUP2 DUP6 PUSH2 0x1658 JUMP JUMPDEST PUSH2 0x8FC SWAP3 POP PUSH2 0x1790 JUMP JUMPDEST DUP5 SWAP4 DUP5 SWAP4 DUP5 SWAP4 SLOAD AND SWAP1 DUP4 SWAP1 PUSH2 0x17CC JUMPI JUMPDEST CALL ISZERO PUSH2 0x230 JUMPI DUP2 CODESIZE DUP10 DUP13 DUP3 PUSH2 0x1648 JUMP JUMPDEST POP PUSH2 0x8FC PUSH2 0x17BC JUMP JUMPDEST DUP1 SLOAD PUSH1 0xFF NOT AND SWAP1 SSTORE CODESIZE PUSH2 0x163B JUMP JUMPDEST PUSH2 0x17F1 SWAP1 SWAP14 SWAP2 SWAP4 SWAP3 SWAP14 PUSH2 0x1AA9 JUMP JUMPDEST SWAP12 SWAP1 SWAP2 CODESIZE PUSH2 0x161D JUMP JUMPDEST DUP15 PUSH1 0x40 MLOAD SWAP1 RETURNDATASIZE SWAP1 DUP3 RETURNDATACOPY RETURNDATASIZE SWAP1 REVERT JUMPDEST PUSH2 0x159A SWAP3 SWAP11 POP PUSH2 0x10CC SWAP10 POP PUSH2 0x10CC SWAP8 POP PUSH2 0x182F SWAP1 PUSH1 0x80 RETURNDATASIZE PUSH1 0x80 GT PUSH2 0x13C8 JUMPI PUSH2 0x13B6 DUP2 DUP4 PUSH2 0x1AEF JUMP JUMPDEST POP SWAP12 SWAP1 SWAP11 POP SWAP1 SWAP8 SWAP1 SWAP3 POP PUSH2 0x1587 JUMP JUMPDEST PUSH1 0x40 MLOAD RETURNDATASIZE DUP15 DUP3 RETURNDATACOPY RETURNDATASIZE SWAP1 REVERT JUMPDEST PUSH1 0x40 MLOAD PUSH3 0x461BCD PUSH1 0xE5 SHL DUP2 MSTORE PUSH1 0x20 PUSH1 0x4 DUP3 ADD MSTORE PUSH1 0x14 PUSH1 0x24 DUP3 ADD MSTORE PUSH20 0x125B9CDD59999A58DA595B9D081C185E5B595B9D PUSH1 0x62 SHL PUSH1 0x44 DUP3 ADD MSTORE PUSH1 0x64 SWAP1 REVERT JUMPDEST PUSH1 0x40 MLOAD PUSH3 0x461BCD PUSH1 0xE5 SHL DUP2 MSTORE PUSH1 0x20 PUSH1 0x4 DUP3 ADD MSTORE PUSH1 0x18 PUSH1 0x24 DUP3 ADD MSTORE PUSH32 0x43616E6E6F74206275792066726F6D20796F757273656C660000000000000000 PUSH1 0x44 DUP3 ADD MSTORE PUSH1 0x64 SWAP1 REVERT JUMPDEST POP PUSH1 0x1 DUP2 ADD SLOAD DUP4 GT ISZERO PUSH2 0x14E1 JUMP JUMPDEST POP CALLVALUE PUSH2 0x27B JUMPI PUSH1 0x20 DUP1 PUSH1 0x3 NOT CALLDATASIZE ADD SLT PUSH2 0x365 JUMPI PUSH1 0x4 CALLDATALOAD DUP3 MSTORE PUSH1 0x5 PUSH1 0x20 MSTORE PUSH1 0x40 DUP3 KECCAK256 SWAP2 PUSH1 0x40 MLOAD DUP1 SWAP3 PUSH1 0x20 DUP6 SLOAD SWAP3 DUP4 DUP2 MSTORE ADD SWAP5 DUP4 MSTORE PUSH1 0x20 DUP4 KECCAK256 SWAP3 SWAP1 JUMPDEST DUP3 DUP3 LT PUSH2 0x1929 JUMPI PUSH2 0x3D4 DUP6 PUSH2 0x3C8 DUP2 DUP10 SUB DUP3 PUSH2 0x1AEF JUMP JUMPDEST DUP4 SLOAD DUP7 MSTORE SWAP5 DUP6 ADD SWAP5 PUSH1 0x1 SWAP4 DUP5 ADD SWAP4 SWAP1 SWAP2 ADD SWAP1 PUSH2 0x1912 JUMP JUMPDEST POP CALLVALUE PUSH2 0x27B JUMPI PUSH1 0x20 CALLDATASIZE PUSH1 0x3 NOT ADD SLT PUSH2 0x27B JUMPI PUSH1 0x4 CALLDATALOAD PUSH4 0xFFFFFFFF PUSH1 0xE0 SHL DUP2 AND DUP1 SWAP2 SUB PUSH2 0x365 JUMPI PUSH1 0x20 SWAP1 PUSH4 0x2711897 PUSH1 0xE5 SHL DUP2 EQ SWAP1 DUP2 ISZERO PUSH2 0x1986 JUMPI JUMPDEST POP PUSH1 0x40 MLOAD SWAP1 ISZERO ISZERO DUP2 MSTORE RETURN JUMPDEST PUSH4 0x1FFC9A7 PUSH1 0xE0 SHL EQ SWAP1 POP DUP3 PUSH2 0x197B JUMP JUMPDEST SWAP1 POP CALLVALUE PUSH2 0x365 JUMPI PUSH1 0x20 DUP1 PUSH1 0x3 NOT CALLDATASIZE ADD SLT PUSH2 0x5F4 JUMPI SWAP2 PUSH1 0x4 CALLDATALOAD DUP2 MSTORE PUSH1 0x6 PUSH1 0x20 MSTORE PUSH1 0x40 DUP2 KECCAK256 SWAP3 DUP4 SLOAD SWAP1 DUP2 DUP5 MSTORE PUSH1 0x20 DUP5 ADD SWAP5 DUP4 MSTORE PUSH1 0x20 DUP4 KECCAK256 SWAP3 SWAP1 JUMPDEST DUP3 DUP3 LT PUSH2 0x19E6 JUMPI PUSH2 0x3D4 DUP6 PUSH2 0x3C8 DUP2 DUP10 SUB DUP3 PUSH2 0x1AEF JUMP JUMPDEST DUP4 SLOAD DUP7 MSTORE SWAP5 DUP6 ADD SWAP5 PUSH1 0x1 SWAP4 DUP5 ADD SWAP4 SWAP1 SWAP2 ADD SWAP1 PUSH2 0x19CF JUMP JUMPDEST PUSH1 0x20 SWAP1 PUSH1 0x20 PUSH1 0x40 DUP2 DUP4 ADD SWAP3 DUP3 DUP2 MSTORE DUP6 MLOAD DUP1 SWAP5 MSTORE ADD SWAP4 ADD SWAP2 PUSH1 0x0 JUMPDEST DUP3 DUP2 LT PUSH2 0x1A25 JUMPI POP POP POP POP SWAP1 JUMP JUMPDEST DUP4 MLOAD DUP6 MSTORE SWAP4 DUP2 ADD SWAP4 SWAP3 DUP2 ADD SWAP3 PUSH1 0x1 ADD PUSH2 0x1A17 JUMP JUMPDEST PUSH1 0x40 SWAP1 PUSH1 0x3 NOT ADD SLT PUSH2 0x856 JUMPI PUSH1 0x4 CALLDATALOAD SWAP1 PUSH1 0x24 CALLDATALOAD SWAP1 JUMP JUMPDEST DUP1 SLOAD DUP3 LT ISZERO PUSH2 0x1A67 JUMPI PUSH1 0x0 MSTORE PUSH1 0x20 PUSH1 0x0 KECCAK256 ADD SWAP1 PUSH1 0x0 SWAP1 JUMP JUMPDEST PUSH4 0x4E487B71 PUSH1 0xE0 SHL PUSH1 0x0 MSTORE PUSH1 0x32 PUSH1 0x4 MSTORE PUSH1 0x24 PUSH1 0x0 REVERT JUMPDEST PUSH1 0x4 CALLDATALOAD SWAP1 PUSH1 0x1 PUSH1 0x1 PUSH1 0xA0 SHL SUB DUP3 AND DUP3 SUB PUSH2 0x856 JUMPI JUMP JUMPDEST PUSH1 0x24 CALLDATALOAD SWAP1 PUSH1 0x1 PUSH1 0x1 PUSH1 0xA0 SHL SUB DUP3 AND DUP3 SUB PUSH2 0x856 JUMPI JUMP JUMPDEST PUSH8 0xFFFFFFFFFFFFFFFF DUP2 GT PUSH2 0x1ABD JUMPI PUSH1 0x40 MSTORE JUMP JUMPDEST PUSH4 0x4E487B71 PUSH1 0xE0 SHL PUSH1 0x0 MSTORE PUSH1 0x41 PUSH1 0x4 MSTORE PUSH1 0x24 PUSH1 0x0 REVERT JUMPDEST PUSH1 0xC0 DUP2 ADD SWAP1 DUP2 LT PUSH8 0xFFFFFFFFFFFFFFFF DUP3 GT OR PUSH2 0x1ABD JUMPI PUSH1 0x40 MSTORE JUMP JUMPDEST SWAP1 PUSH1 0x1F DUP1 NOT SWAP2 ADD AND DUP2 ADD SWAP1 DUP2 LT PUSH8 0xFFFFFFFFFFFFFFFF DUP3 GT OR PUSH2 0x1ABD JUMPI PUSH1 0x40 MSTORE JUMP JUMPDEST DUP2 PUSH1 0x1F DUP3 ADD SLT ISZERO PUSH2 0x856 JUMPI DUP1 CALLDATALOAD SWAP2 PUSH1 0x20 SWAP2 PUSH8 0xFFFFFFFFFFFFFFFF DUP5 GT PUSH2 0x1ABD JUMPI DUP4 PUSH1 0x5 SHL SWAP1 PUSH1 0x40 MLOAD SWAP5 PUSH2 0x1B46 DUP6 DUP5 ADD DUP8 PUSH2 0x1AEF JUMP JUMPDEST DUP6 MSTORE DUP4 DUP1 DUP7 ADD SWAP3 DUP3 ADD ADD SWAP3 DUP4 GT PUSH2 0x856 JUMPI DUP4 ADD SWAP1 JUMPDEST DUP3 DUP3 LT PUSH2 0x1B69 JUMPI POP POP POP POP SWAP1 JUMP JUMPDEST DUP2 CALLDATALOAD DUP2 MSTORE SWAP1 DUP4 ADD SWAP1 DUP4 ADD PUSH2 0x1B5B JUMP JUMPDEST DUP2 PUSH1 0x1F DUP3 ADD SLT ISZERO PUSH2 0x856 JUMPI DUP1 CALLDATALOAD SWAP1 PUSH8 0xFFFFFFFFFFFFFFFF DUP3 GT PUSH2 0x1ABD JUMPI PUSH1 0x40 MLOAD SWAP3 PUSH2 0x1BAD PUSH1 0x1F DUP5 ADD PUSH1 0x1F NOT AND PUSH1 0x20 ADD DUP6 PUSH2 0x1AEF JUMP JUMPDEST DUP3 DUP5 MSTORE PUSH1 0x20 DUP4 DUP4 ADD ADD GT PUSH2 0x856 JUMPI DUP2 PUSH1 0x0 SWAP3 PUSH1 0x20 DUP1 SWAP4 ADD DUP4 DUP7 ADD CALLDATACOPY DUP4 ADD ADD MSTORE SWAP1 JUMP JUMPDEST ISZERO PUSH2 0x1BD6 JUMPI JUMP JUMPDEST PUSH1 0x40 MLOAD PUSH3 0x461BCD PUSH1 0xE5 SHL DUP2 MSTORE PUSH1 0x20 PUSH1 0x4 DUP3 ADD MSTORE PUSH1 0x12 PUSH1 0x24 DUP3 ADD MSTORE PUSH18 0x4C697374696E67206E6F7420616374697665 PUSH1 0x70 SHL PUSH1 0x44 DUP3 ADD MSTORE PUSH1 0x64 SWAP1 REVERT JUMPDEST ISZERO PUSH2 0x1C17 JUMPI JUMP JUMPDEST PUSH1 0x40 MLOAD PUSH3 0x461BCD PUSH1 0xE5 SHL DUP2 MSTORE PUSH1 0x20 PUSH1 0x4 DUP3 ADD MSTORE PUSH1 0xE PUSH1 0x24 DUP3 ADD MSTORE PUSH14 0x125B9D985B1A5908185B5BDD5B9D PUSH1 0x92 SHL PUSH1 0x44 DUP3 ADD MSTORE PUSH1 0x64 SWAP1 REVERT JUMPDEST DUP2 DUP2 MUL SWAP3 SWAP2 DUP2 ISZERO SWAP2 DUP5 DIV EQ OR ISZERO PUSH2 0x1C60 JUMPI JUMP JUMPDEST PUSH4 0x4E487B71 PUSH1 0xE0 SHL PUSH1 0x0 MSTORE PUSH1 0x11 PUSH1 0x4 MSTORE PUSH1 0x24 PUSH1 0x0 REVERT JUMPDEST SWAP2 SWAP1 DUP3 PUSH1 0x80 SWAP2 SUB SLT PUSH2 0x856 JUMPI DUP2 MLOAD PUSH1 0x1 PUSH1 0x1 PUSH1 0xA0 SHL SUB DUP2 AND DUP2 SUB PUSH2 0x856 JUMPI SWAP2 PUSH1 0x20 DUP2 ADD MLOAD SWAP2 PUSH1 0x60 PUSH1 0x40 DUP4 ADD MLOAD SWAP3 ADD MLOAD SWAP1 JUMP JUMPDEST SWAP2 SWAP1 DUP3 SUB SWAP2 DUP3 GT PUSH2 0x1C60 JUMPI JUMP JUMPDEST ISZERO PUSH2 0x1CBC JUMPI JUMP JUMPDEST PUSH1 0x40 MLOAD PUSH3 0x461BCD PUSH1 0xE5 SHL DUP2 MSTORE PUSH1 0x20 PUSH1 0x4 DUP3 ADD MSTORE PUSH1 0x10 PUSH1 0x24 DUP3 ADD MSTORE PUSH16 0x4F66666572206E6F7420616374697665 PUSH1 0x80 SHL PUSH1 0x44 DUP3 ADD MSTORE PUSH1 0x64 SWAP1 REVERT JUMPDEST ISZERO PUSH2 0x1CFB JUMPI JUMP JUMPDEST PUSH1 0x40 MLOAD PUSH3 0x461BCD PUSH1 0xE5 SHL DUP2 MSTORE PUSH1 0x20 PUSH1 0x4 DUP3 ADD MSTORE PUSH1 0x1A PUSH1 0x24 DUP3 ADD MSTORE PUSH32 0x496E73756666696369656E7420746F6B656E2062616C616E6365000000000000 PUSH1 0x44 DUP3 ADD MSTORE PUSH1 0x64 SWAP1 REVERT JUMPDEST SWAP1 DUP2 PUSH1 0x20 SWAP2 SUB SLT PUSH2 0x856 JUMPI MLOAD DUP1 ISZERO ISZERO DUP2 SUB PUSH2 0x856 JUMPI SWAP1 JUMP JUMPDEST ISZERO PUSH2 0x1D5F JUMPI JUMP JUMPDEST PUSH1 0x40 MLOAD PUSH3 0x461BCD PUSH1 0xE5 SHL DUP2 MSTORE PUSH1 0x20 PUSH1 0x4 DUP3 ADD MSTORE PUSH1 0x18 PUSH1 0x24 DUP3 ADD MSTORE PUSH32 0x4D61726B6574706C616365206E6F7420617070726F7665640000000000000000 PUSH1 0x44 DUP3 ADD MSTORE PUSH1 0x64 SWAP1 REVERT JUMPDEST ISZERO PUSH2 0x1DAB JUMPI JUMP JUMPDEST PUSH1 0x40 MLOAD PUSH3 0x461BCD PUSH1 0xE5 SHL DUP2 MSTORE PUSH1 0x20 PUSH1 0x4 DUP3 ADD MSTORE PUSH1 0x1D PUSH1 0x24 DUP3 ADD MSTORE PUSH32 0x416D6F756E74206D7573742062652067726561746572207468616E2030000000 PUSH1 0x44 DUP3 ADD MSTORE PUSH1 0x64 SWAP1 REVERT JUMPDEST ISZERO PUSH2 0x1DF7 JUMPI JUMP JUMPDEST PUSH1 0x40 MLOAD PUSH3 0x461BCD PUSH1 0xE5 SHL DUP2 MSTORE PUSH1 0x20 PUSH1 0x4 DUP3 ADD MSTORE PUSH1 0x1C PUSH1 0x24 DUP3 ADD MSTORE PUSH32 0x5072696365206D7573742062652067726561746572207468616E203000000000 PUSH1 0x44 DUP3 ADD MSTORE PUSH1 0x64 SWAP1 REVERT JUMPDEST PUSH1 0x0 NOT DUP2 EQ PUSH2 0x1C60 JUMPI PUSH1 0x1 ADD SWAP1 JUMP JUMPDEST PUSH1 0x5 PUSH1 0xA0 SWAP2 DUP4 MLOAD DUP2 SSTORE PUSH1 0x20 DUP5 ADD MLOAD PUSH1 0x1 DUP3 ADD SSTORE PUSH1 0x40 DUP5 ADD MLOAD PUSH1 0x2 DUP3 ADD SSTORE PUSH1 0x3 DUP2 ADD PUSH1 0x1 DUP1 DUP6 SHL SUB PUSH1 0x60 DUP7 ADD MLOAD AND PUSH12 0xFFFFFFFFFFFFFFFFFFFFFFFF DUP6 SHL DUP3 SLOAD AND OR SWAP1 SSTORE PUSH1 0x80 DUP5 ADD MLOAD PUSH1 0x4 DUP3 ADD SSTORE ADD SWAP2 ADD MLOAD ISZERO ISZERO PUSH1 0xFF DUP1 NOT DUP4 SLOAD AND SWAP2 AND OR SWAP1 SSTORE JUMP JUMPDEST DUP1 SLOAD PUSH9 0x10000000000000000 DUP2 LT ISZERO PUSH2 0x1ABD JUMPI PUSH2 0x1ECD SWAP2 PUSH1 0x1 DUP3 ADD DUP2 SSTORE PUSH2 0x1A4F JUMP JUMPDEST DUP2 SWAP3 SWAP2 SLOAD SWAP1 PUSH1 0x3 SHL SWAP2 DUP3 SHL SWAP2 PUSH1 0x0 NOT SWAP1 SHL NOT AND OR SWAP1 SSTORE JUMP JUMPDEST PUSH1 0xFF PUSH1 0x1 SLOAD PUSH1 0xA0 SHR AND PUSH2 0x1EF4 JUMPI JUMP JUMPDEST PUSH1 0x40 MLOAD PUSH4 0xD93C0665 PUSH1 0xE0 SHL DUP2 MSTORE PUSH1 0x4 SWAP1 REVERT JUMPDEST PUSH1 0x2 PUSH1 0x0 SLOAD EQ PUSH2 0x1F17 JUMPI PUSH1 0x2 PUSH1 0x0 SSTORE JUMP JUMPDEST PUSH1 0x40 MLOAD PUSH4 0x3EE5AEB5 PUSH1 0xE0 SHL DUP2 MSTORE PUSH1 0x4 SWAP1 REVERT JUMPDEST PUSH1 0x1 SLOAD PUSH1 0x1 PUSH1 0x1 PUSH1 0xA0 SHL SUB AND CALLER SUB PUSH2 0x1F3D JUMPI JUMP JUMPDEST PUSH1 0x40 MLOAD PUSH4 0x118CDAA7 PUSH1 0xE0 SHL DUP2 MSTORE CALLER PUSH1 0x4 DUP3 ADD MSTORE PUSH1 0x24 SWAP1 REVERT INVALID LOG2 PUSH5 0x6970667358 0x22 SLT KECCAK256 BLOBHASH PUSH10 0x13C459E4DD79386D2758 STOP 0xFB 0xC9 PUSH28 0x75F092D1578F22466C3843397D17C83E64736F6C6343000818003300 "},"methodIdentifiers":{"MAX_MARKETPLACE_FEE()":"ca28ae84","acceptOffer(bytes32,uint256)":"3e314b5a","buyFromListing(bytes32,uint256)":"1dfed09f","cancelListing(bytes32)":"9299e552","cancelOffer(bytes32)":"f952279e","createListing(uint256,uint256,uint256)":"b03053b6","emergencyWithdraw()":"db2e21bc","getTokenListings(uint256)":"11fc9fed","getTokenOffers(uint256)":"01388d37","getUserListings(address)":"eb18a9d8","getUserOffers(address)":"661d2c2c","listings(bytes32)":"c18b8db4","makeOffer(uint256,uint256,uint256,uint256)":"64e574c2","marketplaceFee()":"6a166964","offers(bytes32)":"474d3ff0","onERC1155BatchReceived(address,address,uint256[],uint256[],bytes)":"bc197c81","onERC1155Received(address,address,uint256,uint256,bytes)":"f23a6e61","owner()":"8da5cb5b","pause()":"8456cb59","paused()":"5c975abb","permalinkContract()":"827898f3","permalinkNFT()":"230dc278","platformTreasury()":"e138818c","renounceOwnership()":"715018a6","setMarketplaceFee(uint256)":"9407ea98","supportsInterface(bytes4)":"01ffc9a7","tokenListings(uint256,uint256)":"40cfece2","tokenOffers(uint256,uint256)":"944985f5","transferOwnership(address)":"f2fde38b","unpause()":"3f4ba83a","userListings(address,uint256)":"86cfa7d3","userOffers(address,uint256)":"bd5fec65"}}}}}