{"contracts/Permalink.sol":{"Permalink":{"abi":[{"inputs":[{"internalType":"address","name":"initialOwner","type":"address"}],"stateMutability":"nonpayable","type":"constructor"},{"inputs":[{"internalType":"address","name":"sender","type":"address"},{"internalType":"uint256","name":"balance","type":"uint256"},{"internalType":"uint256","name":"needed","type":"uint256"},{"internalType":"uint256","name":"tokenId","type":"uint256"}],"name":"ERC1155InsufficientBalance","type":"error"},{"inputs":[{"internalType":"address","name":"approver","type":"address"}],"name":"ERC1155InvalidApprover","type":"error"},{"inputs":[{"internalType":"uint256","name":"idsLength","type":"uint256"},{"internalType":"uint256","name":"valuesLength","type":"uint256"}],"name":"ERC1155InvalidArrayLength","type":"error"},{"inputs":[{"internalType":"address","name":"operator","type":"address"}],"name":"ERC1155InvalidOperator","type":"error"},{"inputs":[{"internalType":"address","name":"receiver","type":"address"}],"name":"ERC1155InvalidReceiver","type":"error"},{"inputs":[{"internalType":"address","name":"sender","type":"address"}],"name":"ERC1155InvalidSender","type":"error"},{"inputs":[{"internalType":"address","name":"operator","type":"address"},{"internalType":"address","name":"owner","type":"address"}],"name":"ERC1155MissingApprovalForAll","type":"error"},{"inputs":[],"name":"EnforcedPause","type":"error"},{"inputs":[],"name":"ExpectedPause","type":"error"},{"inputs":[{"internalType":"address","name":"owner","type":"address"}],"name":"OwnableInvalidOwner","type":"error"},{"inputs":[{"internalType":"address","name":"account","type":"address"}],"name":"OwnableUnauthorizedAccount","type":"error"},{"inputs":[],"name":"ReentrancyGuardReentrantCall","type":"error"},{"anonymous":false,"inputs":[{"indexed":true,"internalType":"address","name":"addr","type":"address"}],"name":"AddressRegisteredInterest","type":"event"},{"anonymous":false,"inputs":[{"indexed":true,"internalType":"address","name":"addr","type":"address"}],"name":"AddressRemovedFromWhitelist","type":"event"},{"anonymous":false,"inputs":[{"indexed":true,"internalType":"address","name":"addr","type":"address"}],"name":"AddressWhitelisted","type":"event"},{"anonymous":false,"inputs":[{"indexed":true,"internalType":"address","name":"admin","type":"address"},{"indexed":true,"internalType":"address","name":"addedBy","type":"address"}],"name":"AdminAdded","type":"event"},{"anonymous":false,"inputs":[{"indexed":true,"internalType":"address","name":"admin","type":"address"},{"indexed":true,"internalType":"address","name":"removedBy","type":"address"}],"name":"AdminRemoved","type":"event"},{"anonymous":false,"inputs":[{"indexed":true,"internalType":"address","name":"account","type":"address"},{"indexed":true,"internalType":"address","name":"operator","type":"address"},{"indexed":false,"internalType":"bool","name":"approved","type":"bool"}],"name":"ApprovalForAll","type":"event"},{"anonymous":false,"inputs":[{"indexed":true,"internalType":"address","name":"artist","type":"address"},{"indexed":false,"internalType":"string","name":"name","type":"string"},{"indexed":false,"internalType":"string","name":"bio","type":"string"},{"indexed":false,"internalType":"string","name":"avatarURI","type":"string"}],"name":"ArtistProfileUpdated","type":"event"},{"anonymous":false,"inputs":[{"indexed":true,"internalType":"uint256","name":"tokenId","type":"uint256"},{"indexed":true,"internalType":"address","name":"artist","type":"address"},{"indexed":false,"internalType":"string","name":"title","type":"string"},{"indexed":false,"internalType":"uint256","name":"price","type":"uint256"},{"indexed":false,"internalType":"uint256","name":"maxSupply","type":"uint256"},{"indexed":false,"internalType":"uint256","name":"imageSize","type":"uint256"}],"name":"ArtworkMinted","type":"event"},{"anonymous":false,"inputs":[{"indexed":true,"internalType":"uint256","name":"tokenId","type":"uint256"},{"indexed":true,"internalType":"address","name":"buyer","type":"address"},{"indexed":true,"internalType":"address","name":"artist","type":"address"},{"indexed":false,"internalType":"uint256","name":"amount","type":"uint256"},{"indexed":false,"internalType":"uint256","name":"price","type":"uint256"}],"name":"ArtworkPurchased","type":"event"},{"anonymous":false,"inputs":[{"indexed":true,"internalType":"address","name":"previousOwner","type":"address"},{"indexed":true,"internalType":"address","name":"newOwner","type":"address"}],"name":"OwnershipTransferred","type":"event"},{"anonymous":false,"inputs":[{"indexed":false,"internalType":"address","name":"account","type":"address"}],"name":"Paused","type":"event"},{"anonymous":false,"inputs":[{"indexed":false,"internalType":"uint256","name":"oldFee","type":"uint256"},{"indexed":false,"internalType":"uint256","name":"newFee","type":"uint256"}],"name":"PlatformFeeUpdated","type":"event"},{"anonymous":false,"inputs":[{"indexed":true,"internalType":"address","name":"operator","type":"address"},{"indexed":true,"internalType":"address","name":"from","type":"address"},{"indexed":true,"internalType":"address","name":"to","type":"address"},{"indexed":false,"internalType":"uint256[]","name":"ids","type":"uint256[]"},{"indexed":false,"internalType":"uint256[]","name":"values","type":"uint256[]"}],"name":"TransferBatch","type":"event"},{"anonymous":false,"inputs":[{"indexed":true,"internalType":"address","name":"operator","type":"address"},{"indexed":true,"internalType":"address","name":"from","type":"address"},{"indexed":true,"internalType":"address","name":"to","type":"address"},{"indexed":false,"internalType":"uint256","name":"id","type":"uint256"},{"indexed":false,"internalType":"uint256","name":"value","type":"uint256"}],"name":"TransferSingle","type":"event"},{"anonymous":false,"inputs":[{"indexed":false,"internalType":"string","name":"value","type":"string"},{"indexed":true,"internalType":"uint256","name":"id","type":"uint256"}],"name":"URI","type":"event"},{"anonymous":false,"inputs":[{"indexed":false,"internalType":"address","name":"account","type":"address"}],"name":"Unpaused","type":"event"},{"anonymous":false,"inputs":[{"indexed":false,"internalType":"bool","name":"enabled","type":"bool"},{"indexed":true,"internalType":"address","name":"toggledBy","type":"address"}],"name":"WhitelistToggled","type":"event"},{"inputs":[],"name":"ARTIST_ROYALTY_PERCENTAGE","outputs":[{"internalType":"uint256","name":"","type":"uint256"}],"stateMutability":"view","type":"function"},{"inputs":[],"name":"MAX_PLATFORM_FEE","outputs":[{"internalType":"uint256","name":"","type":"uint256"}],"stateMutability":"view","type":"function"},{"inputs":[{"internalType":"address","name":"addr","type":"address"}],"name":"addAdmin","outputs":[],"stateMutability":"nonpayable","type":"function"},{"inputs":[{"internalType":"uint256","name":"","type":"uint256"}],"name":"adminAddressList","outputs":[{"internalType":"address","name":"","type":"address"}],"stateMutability":"view","type":"function"},{"inputs":[{"internalType":"address","name":"","type":"address"}],"name":"adminAddresses","outputs":[{"internalType":"bool","name":"","type":"bool"}],"stateMutability":"view","type":"function"},{"inputs":[{"internalType":"address[]","name":"addresses","type":"address[]"}],"name":"approveAddresses","outputs":[],"stateMutability":"nonpayable","type":"function"},{"inputs":[{"internalType":"address","name":"","type":"address"}],"name":"artistProfiles","outputs":[{"internalType":"string","name":"name","type":"string"},{"internalType":"string","name":"bio","type":"string"},{"internalType":"string","name":"avatarURI","type":"string"},{"internalType":"uint256","name":"totalCreated","type":"uint256"},{"internalType":"uint256","name":"totalCollected","type":"uint256"},{"internalType":"bool","name":"isRegistered","type":"bool"}],"stateMutability":"view","type":"function"},{"inputs":[{"internalType":"address","name":"","type":"address"},{"internalType":"uint256","name":"","type":"uint256"}],"name":"artistTokens","outputs":[{"internalType":"uint256","name":"","type":"uint256"}],"stateMutability":"view","type":"function"},{"inputs":[{"internalType":"uint256","name":"","type":"uint256"}],"name":"artworks","outputs":[{"internalType":"uint256","name":"tokenId","type":"uint256"},{"internalType":"address","name":"artist","type":"address"},{"internalType":"string","name":"title","type":"string"},{"internalType":"string","name":"description","type":"string"},{"internalType":"bytes","name":"imageData","type":"bytes"},{"internalType":"string","name":"imageType","type":"string"},{"internalType":"uint256","name":"price","type":"uint256"},{"internalType":"uint256","name":"maxSupply","type":"uint256"},{"internalType":"uint256","name":"currentSupply","type":"uint256"},{"internalType":"bool","name":"isActive","type":"bool"},{"internalType":"uint256","name":"createdAt","type":"uint256"}],"stateMutability":"view","type":"function"},{"inputs":[{"internalType":"address","name":"account","type":"address"},{"internalType":"uint256","name":"id","type":"uint256"}],"name":"balanceOf","outputs":[{"internalType":"uint256","name":"","type":"uint256"}],"stateMutability":"view","type":"function"},{"inputs":[{"internalType":"address[]","name":"accounts","type":"address[]"},{"internalType":"uint256[]","name":"ids","type":"uint256[]"}],"name":"balanceOfBatch","outputs":[{"internalType":"uint256[]","name":"","type":"uint256[]"}],"stateMutability":"view","type":"function"},{"inputs":[{"internalType":"address","name":"","type":"address"},{"internalType":"uint256","name":"","type":"uint256"}],"name":"collectorTokens","outputs":[{"internalType":"uint256","name":"","type":"uint256"}],"stateMutability":"view","type":"function"},{"inputs":[{"internalType":"uint256","name":"id","type":"uint256"}],"name":"exists","outputs":[{"internalType":"bool","name":"","type":"bool"}],"stateMutability":"view","type":"function"},{"inputs":[],"name":"getAdminAddresses","outputs":[{"internalType":"address[]","name":"","type":"address[]"}],"stateMutability":"view","type":"function"},{"inputs":[{"internalType":"address","name":"artist","type":"address"}],"name":"getArtistProfile","outputs":[{"internalType":"string","name":"artistName","type":"string"},{"internalType":"string","name":"bio","type":"string"},{"internalType":"string","name":"avatarURI","type":"string"},{"internalType":"uint256","name":"totalCreated","type":"uint256"},{"internalType":"uint256","name":"totalCollected","type":"uint256"},{"internalType":"bool","name":"isRegistered","type":"bool"}],"stateMutability":"view","type":"function"},{"inputs":[{"internalType":"address","name":"artist","type":"address"}],"name":"getArtistTokens","outputs":[{"internalType":"uint256[]","name":"","type":"uint256[]"}],"stateMutability":"view","type":"function"},{"inputs":[{"internalType":"uint256","name":"tokenId","type":"uint256"}],"name":"getArtwork","outputs":[{"internalType":"address","name":"artist","type":"address"},{"internalType":"string","name":"title","type":"string"},{"internalType":"string","name":"description","type":"string"},{"internalType":"string","name":"imageType","type":"string"},{"internalType":"uint256","name":"imageSize","type":"uint256"},{"internalType":"uint256","name":"price","type":"uint256"},{"internalType":"uint256","name":"maxSupply","type":"uint256"},{"internalType":"uint256","name":"currentSupply","type":"uint256"},{"internalType":"bool","name":"isActive","type":"bool"},{"internalType":"uint256","name":"createdAt","type":"uint256"}],"stateMutability":"view","type":"function"},{"inputs":[{"internalType":"uint256","name":"tokenId","type":"uint256"}],"name":"getArtworkImageData","outputs":[{"internalType":"bytes","name":"imageData","type":"bytes"},{"internalType":"string","name":"imageType","type":"string"}],"stateMutability":"view","type":"function"},{"inputs":[{"internalType":"address","name":"collector","type":"address"}],"name":"getCollectorTokens","outputs":[{"internalType":"uint256[]","name":"","type":"uint256[]"}],"stateMutability":"view","type":"function"},{"inputs":[],"name":"getCurrentTokenId","outputs":[{"internalType":"uint256","name":"","type":"uint256"}],"stateMutability":"view","type":"function"},{"inputs":[],"name":"getInterestedAddresses","outputs":[{"internalType":"address[]","name":"","type":"address[]"}],"stateMutability":"view","type":"function"},{"inputs":[{"internalType":"uint256","name":"tokenId","type":"uint256"},{"internalType":"uint256","name":"salePrice","type":"uint256"}],"name":"getSecondaryFees","outputs":[{"internalType":"address","name":"artist","type":"address"},{"internalType":"uint256","name":"artistRoyalty","type":"uint256"},{"internalType":"uint256","name":"platformFee","type":"uint256"},{"internalType":"uint256","name":"totalFees","type":"uint256"}],"stateMutability":"view","type":"function"},{"inputs":[],"name":"getWhitelistedAddresses","outputs":[{"internalType":"address[]","name":"","type":"address[]"}],"stateMutability":"view","type":"function"},{"inputs":[{"internalType":"uint256","name":"","type":"uint256"}],"name":"interestedAddressList","outputs":[{"internalType":"address","name":"","type":"address"}],"stateMutability":"view","type":"function"},{"inputs":[{"internalType":"address","name":"","type":"address"}],"name":"interestedAddresses","outputs":[{"internalType":"bool","name":"","type":"bool"}],"stateMutability":"view","type":"function"},{"inputs":[{"internalType":"address","name":"addr","type":"address"}],"name":"isAdmin","outputs":[{"internalType":"bool","name":"","type":"bool"}],"stateMutability":"view","type":"function"},{"inputs":[{"internalType":"address","name":"account","type":"address"},{"internalType":"address","name":"operator","type":"address"}],"name":"isApprovedForAll","outputs":[{"internalType":"bool","name":"","type":"bool"}],"stateMutability":"view","type":"function"},{"inputs":[{"internalType":"address","name":"addr","type":"address"}],"name":"isInterested","outputs":[{"internalType":"bool","name":"","type":"bool"}],"stateMutability":"view","type":"function"},{"inputs":[],"name":"isWhitelistEnabled","outputs":[{"internalType":"bool","name":"","type":"bool"}],"stateMutability":"view","type":"function"},{"inputs":[{"internalType":"address","name":"addr","type":"address"}],"name":"isWhitelisted","outputs":[{"internalType":"bool","name":"","type":"bool"}],"stateMutability":"view","type":"function"},{"inputs":[{"internalType":"string","name":"_title","type":"string"},{"internalType":"string","name":"_description","type":"string"},{"internalType":"bytes","name":"_imageData","type":"bytes"},{"internalType":"string","name":"_imageType","type":"string"},{"internalType":"uint256","name":"_price","type":"uint256"},{"internalType":"uint256","name":"_maxSupply","type":"uint256"}],"name":"mintArtwork","outputs":[{"internalType":"uint256","name":"","type":"uint256"}],"stateMutability":"nonpayable","type":"function"},{"inputs":[],"name":"name","outputs":[{"internalType":"string","name":"","type":"string"}],"stateMutability":"view","type":"function"},{"inputs":[],"name":"owner","outputs":[{"internalType":"address","name":"","type":"address"}],"stateMutability":"view","type":"function"},{"inputs":[],"name":"pause","outputs":[],"stateMutability":"nonpayable","type":"function"},{"inputs":[],"name":"paused","outputs":[{"internalType":"bool","name":"","type":"bool"}],"stateMutability":"view","type":"function"},{"inputs":[],"name":"platformFeePercentage","outputs":[{"internalType":"uint256","name":"","type":"uint256"}],"stateMutability":"view","type":"function"},{"inputs":[{"internalType":"uint256","name":"tokenId","type":"uint256"},{"internalType":"uint256","name":"amount","type":"uint256"}],"name":"purchaseArtwork","outputs":[],"stateMutability":"payable","type":"function"},{"inputs":[],"name":"registerInterest","outputs":[],"stateMutability":"nonpayable","type":"function"},{"inputs":[{"internalType":"address","name":"addr","type":"address"}],"name":"removeAdmin","outputs":[],"stateMutability":"nonpayable","type":"function"},{"inputs":[{"internalType":"address","name":"addr","type":"address"}],"name":"removeFromWhitelist","outputs":[],"stateMutability":"nonpayable","type":"function"},{"inputs":[],"name":"renounceOwnership","outputs":[],"stateMutability":"nonpayable","type":"function"},{"inputs":[{"internalType":"uint256","name":"tokenId","type":"uint256"},{"internalType":"uint256","name":"salePrice","type":"uint256"}],"name":"royaltyInfo","outputs":[{"internalType":"address","name":"receiver","type":"address"},{"internalType":"uint256","name":"royaltyAmount","type":"uint256"}],"stateMutability":"view","type":"function"},{"inputs":[{"internalType":"address","name":"from","type":"address"},{"internalType":"address","name":"to","type":"address"},{"internalType":"uint256[]","name":"ids","type":"uint256[]"},{"internalType":"uint256[]","name":"values","type":"uint256[]"},{"internalType":"bytes","name":"data","type":"bytes"}],"name":"safeBatchTransferFrom","outputs":[],"stateMutability":"nonpayable","type":"function"},{"inputs":[{"internalType":"address","name":"from","type":"address"},{"internalType":"address","name":"to","type":"address"},{"internalType":"uint256","name":"id","type":"uint256"},{"internalType":"uint256","name":"value","type":"uint256"},{"internalType":"bytes","name":"data","type":"bytes"}],"name":"safeTransferFrom","outputs":[],"stateMutability":"nonpayable","type":"function"},{"inputs":[],"name":"secondaryArtistRoyalty","outputs":[{"internalType":"uint256","name":"","type":"uint256"}],"stateMutability":"view","type":"function"},{"inputs":[],"name":"secondaryPlatformFee","outputs":[{"internalType":"uint256","name":"","type":"uint256"}],"stateMutability":"view","type":"function"},{"inputs":[{"internalType":"address","name":"operator","type":"address"},{"internalType":"bool","name":"approved","type":"bool"}],"name":"setApprovalForAll","outputs":[],"stateMutability":"nonpayable","type":"function"},{"inputs":[{"internalType":"uint256","name":"_platformFeePercentage","type":"uint256"}],"name":"setPlatformFee","outputs":[],"stateMutability":"nonpayable","type":"function"},{"inputs":[{"internalType":"uint256","name":"_platformFee","type":"uint256"},{"internalType":"uint256","name":"_artistRoyalty","type":"uint256"}],"name":"setSecondaryFees","outputs":[],"stateMutability":"nonpayable","type":"function"},{"inputs":[{"internalType":"string","name":"newURI","type":"string"}],"name":"setURI","outputs":[],"stateMutability":"nonpayable","type":"function"},{"inputs":[{"internalType":"bytes4","name":"interfaceId","type":"bytes4"}],"name":"supportsInterface","outputs":[{"internalType":"bool","name":"","type":"bool"}],"stateMutability":"view","type":"function"},{"inputs":[],"name":"symbol","outputs":[{"internalType":"string","name":"","type":"string"}],"stateMutability":"view","type":"function"},{"inputs":[{"internalType":"uint256","name":"tokenId","type":"uint256"}],"name":"toggleArtworkStatus","outputs":[],"stateMutability":"nonpayable","type":"function"},{"inputs":[],"name":"toggleWhitelist","outputs":[],"stateMutability":"nonpayable","type":"function"},{"inputs":[{"internalType":"uint256","name":"","type":"uint256"}],"name":"tokenToArtist","outputs":[{"internalType":"address","name":"","type":"address"}],"stateMutability":"view","type":"function"},{"inputs":[],"name":"totalSupply","outputs":[{"internalType":"uint256","name":"","type":"uint256"}],"stateMutability":"view","type":"function"},{"inputs":[{"internalType":"uint256","name":"id","type":"uint256"}],"name":"totalSupply","outputs":[{"internalType":"uint256","name":"","type":"uint256"}],"stateMutability":"view","type":"function"},{"inputs":[{"internalType":"address","name":"newOwner","type":"address"}],"name":"transferOwnership","outputs":[],"stateMutability":"nonpayable","type":"function"},{"inputs":[],"name":"unpause","outputs":[],"stateMutability":"nonpayable","type":"function"},{"inputs":[{"internalType":"string","name":"_name","type":"string"},{"internalType":"string","name":"_bio","type":"string"},{"internalType":"string","name":"_avatarURI","type":"string"}],"name":"updateArtistProfile","outputs":[],"stateMutability":"nonpayable","type":"function"},{"inputs":[{"internalType":"uint256","name":"tokenId","type":"uint256"},{"internalType":"uint256","name":"newPrice","type":"uint256"}],"name":"updateArtworkPrice","outputs":[],"stateMutability":"nonpayable","type":"function"},{"inputs":[{"internalType":"uint256","name":"tokenId","type":"uint256"}],"name":"uri","outputs":[{"internalType":"string","name":"","type":"string"}],"stateMutability":"view","type":"function"},{"inputs":[],"name":"whitelistEnabled","outputs":[{"internalType":"bool","name":"","type":"bool"}],"stateMutability":"view","type":"function"},{"inputs":[{"internalType":"uint256","name":"","type":"uint256"}],"name":"whitelistedAddressList","outputs":[{"internalType":"address","name":"","type":"address"}],"stateMutability":"view","type":"function"},{"inputs":[{"internalType":"address","name":"","type":"address"}],"name":"whitelistedAddresses","outputs":[{"internalType":"bool","name":"","type":"bool"}],"stateMutability":"view","type":"function"},{"inputs":[],"name":"withdrawPlatformFees","outputs":[],"stateMutability":"nonpayable","type":"function"}],"evm":{"bytecode":{"linkReferences":{},"object":"6080346200031657601f620058de38819003918201601f1916830192916001600160401b039190828511848610176200030057808492604096875283396020938491810103126200031657516001600160a01b039283821692918390036200031657845181810181811084821117620003005786526200008460009182815262000371565b8315620002e957600580546001600160a01b0319808216871790925590958591167f8be0079c531659141344cd1fd0a4f28419497f9722a3daafe3b4186f6b6457e08380a360019283600655620000dd6008546200031b565b601f8111620002c7575b507f5065726d616c696e6b00000000000000000000000000000000000000000000126008556009546200011a906200031b565b601f8111620002a5575b50600a64504c494e4b60d81b0160095560fa600a5560fa600b556102ee600c5581600d5560ff19908482600e541617600e5587519060608201908282109082111762000291578852602c81527f68747470733a2f2f6170692e7065726d616c696e6b2e6172742f6d6574616461848201526b3a3097bdb4b23e973539b7b760a11b88820152620001b49062000371565b848252601183528682208482825416179055601083528387832091825416179055601454926801000000000000000093848110156200027d5781810180601455811015620002695760148352838320018587825416179055601354938410156200025557830180601355831015620002415760138152200191825416179055516154389081620004a68239f35b634e487b7160e01b81526032600452602490fd5b634e487b7160e01b82526041600452602482fd5b634e487b7160e01b83526032600452602483fd5b634e487b7160e01b83526041600452602483fd5b634e487b7160e01b84526041600452602484fd5b60098352838320620002c091601f0160051c81019062000358565b3862000124565b60088352838320620002e291601f0160051c81019062000358565b38620000e7565b602490865190631e4fbdf760e01b82526004820152fd5b634e487b7160e01b600052604160045260246000fd5b600080fd5b90600182811c921680156200034d575b60208310146200033757565b634e487b7160e01b600052602260045260246000fd5b91607f16916200032b565b81811062000364575050565b6000815560010162000358565b80519091906001600160401b0381116200030057620003926002546200031b565b601f811162000446575b50602080601f8311600114620003dc5750819293600092620003d0575b50508160011b916000199060031b1c191617600255565b015190503880620003b9565b90601f1983169460026000526020600020926000905b8782106200042d57505083600195961062000413575b505050811b01600255565b015160001960f88460031b161c1916905538808062000408565b80600185968294968601518155019501930190620003f2565b600260005262000493907f405787fa12a823e0f2b7631cc41b3ba8828b3321ca811111fa75cd3aa3bb5ace601f840160051c810191602085106200049a575b601f0160051c019062000358565b386200039c565b90915081906200048556fe6080604052600436101561001257600080fd5b60003560e01c8062fdd58e1461041d57806301ffc9a71461041857806302fe53051461041357806306c933d8146103d757806306fdde031461040e5780630e89341c1461040957806312e8e2c3146104045780631447ba1c146103ff578063167ddf6e146103fa578063171212d5146103f55780631785f53c146103f057806318160ddd146103eb578063184d69ab146103a057806324d7806c146103b45780632a55205a146103e65780632eb2c2d6146103e157806335c2aab9146103dc5780633998a681146103be5780633af32abf146103d75780633b5221e2146103d25780633f4ba83a146103cd578063489b3711146103c85780634b602673146103c35780634bf56fd1146103825780634cf4bb06146103be5780634e1273f4146103b95780634ed38faf146103b45780634f558e79146103af5780635001257e146103aa5780635024fd8c146103a557806351fb012d146103a0578063552906ce1461039b57806356189236146103965780635b42a8fe146103915780635c975abb1461038c5780635f5fff4d1461038757806362afcf001461038257806363c770d81461037d57806364ddfa29146103785780636d028027146103735780636e9772231461036e5780637048027514610369578063715018a6146103645780637e15144b1461035f5780638456cb591461035a5780638ab1d681146103555780638da5cb5b146103505780638dc8b4da1461034b57806392a05fe71461034657806395d89b4114610341578063a22cb4651461033c578063b23cd1a614610337578063b3b3064014610332578063b71957631461032d578063bd85b03914610328578063c71959b414610323578063cc0ad6e71461031e578063cdd78cfc14610319578063d0b7830b14610314578063e084ffda1461030f578063e0f8b3131461030a578063e985e9c514610305578063ecceec8214610300578063f0f4d0cb146102fb578063f242432a146102f65763f2fde38b146102f157600080fd5b612e77565b612d52565b612bfd565b612bdf565b612b77565b612afc565b612aa1565b612a1e565b612a00565b612985565b6128e5565b6128b9565b61276f565b6126c5565b6125cc565b61250c565b612464565b612416565b612392565b612369565b61222a565b6121d0565b612145565b6120e7565b611fb2565b611f69565b611ef7565b611e79565b611deb565b6116d7565b611d09565b611ce6565b611c8d565b611c6f565b61196c565b610ff4565b611910565b611848565b61181a565b611017565b61175e565b61136e565b611643565b61151f565b6114b5565b6113b0565b610753565b61133a565b61120d565b611059565b610fd6565b610e3d565b610dc4565b610c3a565b610b46565b610ab0565b610a7d565b610994565b610632565b61049b565b610438565b6001600160a01b0381160361043357565b600080fd5b3461043357604036600319011261043357602061048060043561045a81610422565b6024356000526000835260406000209060018060a01b0316600052602052604060002090565b54604051908152f35b6001600160e01b031981160361043357565b346104335760203660031901126104335760206004356104ba81610489565b63ffffffff60e01b1663152a902d60e11b81149081156104e0575b506040519015158152f35b636cdb3d1360e11b811491508115610512575b8115610501575b50386104d5565b6301ffc9a760e01b149050386104fa565b6303a24d0760e21b811491506104f3565b634e487b7160e01b600052604160045260246000fd5b60c081019081106001600160401b0382111761055457604052565b610523565b604081019081106001600160401b0382111761055457604052565b606081019081106001600160401b0382111761055457604052565b90601f801991011681019081106001600160401b0382111761055457604052565b6040519061016082018281106001600160401b0382111761055457604052565b6001600160401b03811161055457601f01601f191660200190565b81601f8201121561043357803590610602826105d0565b92610610604051948561058f565b8284526020838301011161043357816000926020809301838601378301015290565b3461043357602080600319360112610433576001600160401b03600435818111610433576106649036906004016105eb565b9161066d614055565b82519182116105545761068a82610685600254610795565b6138bc565b602090601f83116001146106cc575081906106bc936000926106c1575b50508160011b916000199060031b1c19161790565b600255005b0151905038806106a7565b90601f198316936106ff60026000527f405787fa12a823e0f2b7631cc41b3ba8828b3321ca811111fa75cd3aa3bb5ace90565b926000905b86821061073b5750508360019510610722575b505050811b01600255005b015160001960f88460031b161c19169055388080610717565b80600185968294968601518155019501930190610704565b346104335760203660031901126104335760043561077081610422565b60018060a01b03166000526010602052602060ff604060002054166040519015158152f35b90600182811c921680156107c5575b60208310146107af57565b634e487b7160e01b600052602260045260246000fd5b91607f16916107a4565b60405190600082600254916107e383610795565b808352926020906001908181169081156108715750600114610810575b505061080e9250038361058f565b565b91509260026000527f405787fa12a823e0f2b7631cc41b3ba8828b3321ca811111fa75cd3aa3bb5ace936000925b828410610859575061080e9450505081016020013880610800565b8554888501830152948501948794509281019261083e565b9150506020925061080e94915060ff191682840152151560051b8201013880610800565b906040519182600082546108a881610795565b9081845260209460019160018116908160001461091657506001146108d7575b50505061080e9250038361058f565b600090815285812095935091905b8183106108fe57505061080e93508201013880806108c8565b855488840185015294850194879450918301916108e5565b9250505061080e94925060ff191682840152151560051b8201013880806108c8565b60005b83811061094b5750506000910152565b818101518382015260200161093b565b9060209161097481518092818552858086019101610938565b601f01601f1916010190565b90602061099192818152019061095b565b90565b3461043357600080600319360112610a7a576040519080600854906109b882610795565b80855291602091600191828116908115610a4d57506001146109f5575b6109f1866109e58188038261058f565b60405191829182610980565b0390f35b9350600884527ff3f7a9fe364faab93b216da50a3214154f22a0a2b415b23a84c8169e8b636ee35b838510610a3a575050505081016020016109e5826109f1386109d5565b8054868601840152938201938101610a1d565b90508695506109f1969350602092506109e594915060ff191682840152151560051b8201019293386109d5565b80fd5b34610433576020366003190112610433576109f1610a9c600435612fa5565b60405191829160208352602083019061095b565b3461043357602036600319011261043357600435610acc614055565b6103e88111610b1257600a8054908290556040805191825260208201929092527fd347e206f25a89b917fc9482f1a2d294d749baa4dc9bde7fb495ee11fe4916439190a1005b60405162461bcd60e51b815260206004820152600c60248201526b08ccaca40e8dede40d0d2ced60a31b6044820152606490fd5b3461043357604036600319011261043357602435600435610b65614055565b818101808211610bc4576107d010610b7f57600b55600c55005b60405162461bcd60e51b815260206004820152601c60248201527f546f74616c20666565732063616e6e6f742065786365656420323025000000006044820152606490fd5b61308a565b96939061012098959b9a999693610bfd610c1994610c0b936101409060018060a01b03168c528060208d01528b019061095b565b9089820360408b015261095b565b90878203606089015261095b565b98608086015260a085015260c084015260e083015215156101008201520152565b3461043357602036600319011261043357600435600d5481111580610d6c575b610c639061310f565b60005260166020526040600020610c786105b0565b8154815260018201546001600160a01b0316602082019081529091906109f19061014090610ca860028501610895565b9360408601948552610cbc60038201610895565b9560608101968752610cd06004830161153d565b9260808201938452610ce460058401610895565b9360a0830194855260068401549060c08401918252610d5f610d4960078701549460e087019586526008880154966101008101978852600a610d2a60098b015460ff1690565b151561012083019081529901549a018a9052516001600160a01b031690565b99519a5196519151519251935194519551151590565b956040519a8b9a8b610bc9565b50801515610c5a565b949192610da460a095989794610d96610db29460c08a5260c08a019061095b565b9088820360208a015261095b565b90868203604088015261095b565b95606085015260808401521515910152565b3461043357602036600319011261043357600435610de181610422565b6001600160a01b03166000908152601560205260409020610e0181610895565b6109f1610e1060018401610895565b92610e1d60028201610895565b90600381015460ff60056004840154930154169260405196879687610d75565b3461043357602036600319011261043357600435610e5a81610422565b600090338252601160205260ff6040832054168015610fc2575b610e7d9061314e565b6001600160a01b0381166000908152601160205260409020610eaa90610ea5905b5460ff1690565b61314e565b6005546001600160a01b0382811692610efe92610ef492610ece9116851415613189565b610eda338514156131d5565b6001600160a01b0316600090815260116020526040902090565b805460ff19169055565b815b6014549081811015610fbb5782610f3d610f31610f1c846118a9565b905460039190911b1c6001600160a01b031690565b6001600160a01b031690565b14610f4c576001915001610f00565b610f6c610f66610f1c610f61610f8a9561322b565b6118a9565b916118a9565b90919060018060a01b038084549260031b9316831b921b1916179055565b610f92613256565b33907fdb9d5d31320daf5bc7181d565b6da4d12e30f0f4d5aa324a992426c14a1d19ce8380a380f35b5050610f92565b506005546001600160a01b03163314610e74565b34610433576000366003190112610433576020600454604051908152f35b3461043357600036600319011261043357602060ff600e54166040519015158152f35b346104335760203660031901126104335760043561103481610422565b60018060a01b03166000526011602052602060ff604060002054166040519015158152f35b3461043357604036600319011261043357600435600d548111158061118d575b6110829061310f565b600052601660205260406000206110976105b0565b8154815260018201546001600160a01b0316602082019081529161014090600a906110c460028201610895565b60408501526110d560038201610895565b60608501526110e66004820161153d565b60808501526110f760058201610895565b60a0850152600681015460c0850152600781015460e0850152600881015461010085015261113661112c600983015460ff1690565b1515610120860152565b015491015261117161116361115b611153600b54600c5490613102565b602435613359565b612710900490565b91516001600160a01b031690565b604080516001600160a01b039290921682526020820192909252f35b50801515611079565b6001600160401b0381116105545760051b60200190565b9080601f830112156104335760209082356111c781611196565b936111d5604051958661058f565b81855260208086019260051b82010192831161043357602001905b8282106111fe575050505090565b813581529083019083016111f0565b346104335760a0366003190112610433576004803561122b81610422565b60243561123781610422565b6001600160401b03906044358281116104335761125790369086016111ad565b906064358381116104335761126f90369087016111ad565b926084359081116104335761128790369087016105eb565b936001600160a01b03808216903382141580611316575b6112e9578316156112d157156112ba576112b89550614c14565b005b604051626a0d4560e21b8152600081880152602490fd5b604051632bfa23e760e11b8152600081890152602490fd5b6040805163711bec9160e11b815233818b019081526001600160a01b038616602082015290918291010390fd5b50600082815260016020908152604080832033845290915290205460ff161561129e565b34610433576020366003190112610433576004356000526017602052602060018060a01b0360406000205416604051908152f35b346104335760003660031901126104335760206040516103e88152f35b90916113a26109919360408452604084019061095b565b91602081840391015261095b565b3461043357602036600319011261043357600435600d54811115806114ac575b6113d99061310f565b600052601660205260406000206113ee6105b0565b815481526001820154611415906001600160a01b03165b6001600160a01b03166020830152565b61142160028301610895565b604082015261143260038301610895565b60608201526114436004830161153d565b9060808101918252610140600a61145c60058601610895565b9460a08401958652600681015460c0850152600781015460e0850152600881015461010085015261149461112c600983015460ff1690565b0154910152519051906109f16040519283928361138b565b508015156113d0565b34610433576000366003190112610433576114ce614055565b60075460ff81161561150d5760ff19166007557f5db9ee0a495bf2e6ff9c91a7834c1ba4fdd244a5e8aa4e537bd38aeae4b073aa6020604051338152a1005b604051638dfc202b60e01b8152600490fd5b34610433576000366003190112610433576020600b54604051908152f35b9060405191826000825461155081610795565b90818452602094600191600181169081600014610916575060011461157e5750505061080e9250038361058f565b600090815285812095935091905b8183106115a557505061080e93508201013880806108c8565b8554888401850152948501948794509183019161158c565b979490611626946115fc6101409b9895999e9d9c996116189561160a9460408e610160938493825260018060a01b0316602082015201528c019061095b565b908a820360608c015261095b565b9088820360808a015261095b565b9086820360a088015261095b565b9760c085015260e084015261010083015215156101208201520152565b34610433576020366003190112610433576004356000908152601660205260409020805460018201546001600160a01b0316916109f19061168660028201610895565b9061169360038201610895565b61169f6004830161153d565b6116ab60058401610895565b600684015490600785015492600886015494600a60ff600989015416970154976040519b8c9b8c6115bd565b34610433576020366003190112610433576004356116f481610422565b60018060a01b0316600052600f602052602060ff604060002054166040519015158152f35b90815180825260208080930193019160005b828110611739575050505090565b83518552938101939281019260010161172b565b906020610991928181520190611719565b34610433576040366003190112610433576004356001600160401b03808211610433573660238301121561043357816004013561179a81611196565b926117a8604051948561058f565b8184526020916024602086019160051b8301019136831161043357602401905b8282106118015785602435868111610433576109f1916117ef6117f59236906004016111ad565b90613380565b6040519182918261174d565b838091833561180f81610422565b8152019101906117c8565b3461043357602036600319011261043357600435600052600360205260206040600020541515604051908152f35b3461043357604036600319011261043357600435600090808252601760205261187e60018060a01b03604084205416331461343f565b81526016602052602435600660408320015580f35b634e487b7160e01b600052603260045260246000fd5b6014548110156118ce5760146000526000805160206153e38339815191520190600090565b611893565b6013548110156118ce5760136000526000805160206153c38339815191520190600090565b80548210156118ce5760005260206000200190600090565b346104335760403660031901126104335760043561192d81610422565b6001600160a01b03166000908152601960205260409020805460243591908210156104335760209161195e916118f8565b90546040519160031b1c8152f35b6040366003190112610433576024356004356119866144fe565b61198e61451c565b60ff600e5416611c34575b600d5481111580611c2b575b6119ae9061310f565b6119c2816000526016602052604060002090565b916119d96119d4600985015460ff1690565b6134ba565b6119e48115156134fe565b6008830191611a036119f7838554613102565b6007860154101561354a565b6006840193611a13838654613359565b611a1f8134101561358b565b611a4c611a3161115b600a5484613359565b611a47611a4061115b85613314565b9184613249565b613249565b94611a60611a586135ce565b86863361453f565b611a6b858254613102565b905533600090815260156020526040902060049060058101611a95611a91825460ff1690565b1590565b611c0d575b5001611aa7858254613102565b905560009460005b33600090815260196020526040902054811015611c02573360009081526019602052604090208590611af090611ae69084906118f8565b90549060031b1c90565b14611afd57600101611aaf565b5090919293945060015b15611be3575b80158015611ba5575b5050803411611b72575b506001015492546040805193845260208401919091526001600160a01b039093169233927f465c604f8dcf4d2dba83e76f95c4cb5876f0976ec008a9326b6d4b209142bb459190a46112b86001600655565b60008080611b81819434613249565b818115611b9c575b3390f115611b975738611b20565b613626565b506108fc611b89565b60008080938193611bc5610f31610f3160018b015460018060a01b031690565b908390611bda575bf115611b97573880611b16565b506108fc611bcd565b336000908152601960205260409020611bfd9085906135f1565b611b0d565b509091929394611b07565b805460ff191660011790556000600382015560008282015538611a9a565b508015156119a5565b33600052601060205260ff604060002054168015611c5b575b611c569061347c565b611999565b506005546001600160a01b03163314611c4d565b34610433576000366003190112610433576020600d54604051908152f35b34610433576020366003190112610433576004356000908082526017602052611cc360018060a01b03604084205416331461343f565b8152601660205260408120600901805460ff818116151660ff1990911617905580f35b3461043357600036600319011261043357602060ff600754166040519015158152f35b3461043357600080600319360112610a7a57338152600f60205260ff604082205416611da657336000908152601060205260409020611d5490611d4f90611a9190610e9e565b613632565b336000908152600f60205260409020611d75905b805460ff19166001179055565b611d7e33613674565b337fd01371a65bc20da9af65aaf8149474fd747e562e207a3687cf65a809766a205a8280a280f35b60405162461bcd60e51b815260206004820152601b60248201527f416c7265616479207265676973746572656420696e74657265737400000000006044820152606490fd5b34610433576020366003190112610433576004356013548110156104335760136000526000805160206153c383398151915201546040516001600160a01b039091168152602090f35b602090602060408183019282815285518094520193019160005b828110611e5c575050505090565b83516001600160a01b031685529381019392810192600101611e4e565b3461043357600036600319011261043357604051806014549182815260208091019260146000526000805160206153e3833981519152916000905b828210611ed7576109f185611ecb8189038261058f565b60405191829182611e34565b83546001600160a01b031686529485019460019384019390910190611eb4565b3461043357600036600319011261043357604051806013549182815260208091019260136000526000805160206153c3833981519152916000905b828210611f49576109f185611ecb8189038261058f565b83546001600160a01b031686529485019460019384019390910190611f32565b34610433576020366003190112610433576004356014548110156104335760146000526000805160206153e383398151915201546040516001600160a01b039091168152602090f35b3461043357602036600319011261043357600435611fcf81610422565b600090338252601160205260ff60408320541680156120d3575b611ff29061314e565b6001600160a01b038116808352601160205260408320549091906120199060ff1615613785565b6120248215156137c4565b6001600160a01b038116600090815260116020526040902061204590611d68565b61204e816136db565b6001600160a01b038116600090815260106020526040902061207390611a9190610e9e565b6120a2575b5033907fbf3f493c772c8c283fd124432c2d0f539ab343faa04258fe88e52912d36b102b8380a380f35b6001600160a01b03811660009081526010602052604090206120cd91906120c890611d68565b613730565b38612078565b506005546001600160a01b03163314611fe9565b3461043357600080600319360112610a7a57612101614055565b600580546001600160a01b0319811690915581906001600160a01b03167f8be0079c531659141344cd1fd0a4f28419497f9722a3daafe3b4186f6b6457e08280a380f35b3461043357600080600319360112610a7a57338152601160205260ff60408220541680156121bc575b6121779061314e565b600e5460ff8082161516809160ff191617600e5560405190151581527f5f2930093a8ed3d18a75ec1318aa404a4cb74a9d542350560a7709642f444b5860203392a280f35b506005546001600160a01b0316331461216e565b34610433576000366003190112610433576121e9614055565b6121f16144fe565b600160ff1960075416176007557f62e78cea01bee320cd4e420270b5ea74000d11b0c9f74754ebdbfc544b05a2586020604051338152a1005b346104335760203660031901126104335760043561224781610422565b600090338252601160205260ff6040832054168015612355575b61226a9061314e565b6001600160a01b03811660009081526010602052604090206122949061228f90610e9e565b613802565b6005546001600160a01b03828116926122d292610ef4926122b8911685141561384e565b6001600160a01b0316600090815260106020526040902090565b815b601354908181101561234e57826122f0610f31610f1c846118d3565b146122ff5760019150016122d4565b610f6c612319610f1c61231461231f9561322b565b6118d3565b916118d3565b6123276132c0565b7f535611fb62fa2a833988f283b779e417e996813e44046f521d76c17b5943b08c8280a280f35b5050612327565b506005546001600160a01b03163314612261565b34610433576000366003190112610433576005546040516001600160a01b039091168152602090f35b3461043357600036600319011261043357604051806012549182815260208091019260126000527fbb8a6a4669ba250d26cd7a459eca9d215f8307e33aebe50379bc5a3617ec3444916000905b8282106123f6576109f185611ecb8189038261058f565b83546001600160a01b0316865294850194600193840193909101906123df565b346104335760403660031901126104335760043561243381610422565b6001600160a01b03166000908152601860205260409020805460243591908210156104335760209161195e916118f8565b3461043357600080600319360112610a7a5760405190806009549061248882610795565b80855291602091600191828116908115610a4d57506001146124b4576109f1866109e58188038261058f565b9350600984527f6e1540171b6c0c960b71a7020d9f60077f6af931a8bbf590da0223dacf75c7af5b8385106124f9575050505081016020016109e5826109f1386109d5565b80548686018401529382019381016124dc565b346104335760403660031901126104335760043561252981610422565b6024359081151590818303610433576001600160a01b0381169283156125b4576125756125869233600052600160205260406000209060018060a01b0316600052602052604060002090565b9060ff801983541691151516179055565b6040519081527f17307eab39ab6107e8899845ad3d59bd9653f200f220920489ca2b5937696c3160203392a3005b60405162ced3e160e81b815260006004820152602490fd5b34610433576060366003190112610433576001600160401b03600435818111610433576125fd9036906004016105eb565b602435828111610433576126159036906004016105eb565b916044359081116104335761264f7f39dfee1413bb413ba51702fe3cd693cd3b02628fbac61358818d502b7af500959136906004016105eb565b6000933385526015602052612691826002604088206005810160ff815416156126a8575b5061267e8882613957565b61268b8560018301613957565b01613957565b6126a2604051928392339684613a20565b0390a280f35b805460ff1916600117905588600382015588600482015538612673565b34610433576020366003190112610433576004356126e281610422565b60018060a01b03166000526015602052604060002060405161270381610539565b61270c82610895565b81526109f161271d60018401610895565b916020810192835261273160028501610895565b93846040830152600381015480606084015260ff60056004840154938460808701520154161515928360a08201525194519560405196879687610d75565b346104335760403660031901126104335760043560243590600d54811115806128b0575b61279c9061310f565b600052601660205260406000206127b16105b0565b8154815260018201546001600160a01b0316602082019081529161014090600a906127de60028201610895565b60408501526127ef60038201610895565b60608501526128006004820161153d565b608085015261281160058201610895565b60a0850152600681015460c0850152600781015460e0850152600881015461010085015261284661112c600983015460ff1690565b015491015260018060a01b039051166109f161287761115b61286d61115b600c5487613359565b94600b5490613359565b6128818185613102565b604080516001600160a01b03909516855260208501959095529383015260608201929092529081906080820190565b50801515612793565b346104335760203660031901126104335760043560005260036020526020604060002054604051908152f35b346104335760c0366003190112610433576001600160401b03600435818111610433576129169036906004016105eb565b906024358181116104335761292f9036906004016105eb565b604435828111610433576129479036906004016105eb565b92606435928311610433576109f1936129676129759436906004016105eb565b9060a4359360843593613a57565b6040519081529081906020820190565b3461043357602080600319360112610433576004356129a381610422565b6001600160a01b0316600090815260186020908152604080832090518154808252918452828420928101949093905b8282106129e9576109f1856117f58189038261058f565b8354865294850194600193840193909101906129d2565b34610433576000366003190112610433576020600a54604051908152f35b3461043357600080600319360112610a7a57612a38614055565b478015612a66576005548291829182918291612a5c906001600160a01b0316610f31565b82f115611b975780f35b60405162461bcd60e51b81526020600482015260136024820152724e6f206665657320746f20776974686472617760681b6044820152606490fd5b34610433576020366003190112610433576004356012548110156104335760126000527fbb8a6a4669ba250d26cd7a459eca9d215f8307e33aebe50379bc5a3617ec344401546040516001600160a01b039091168152602090f35b346104335760208060031936011261043357600435612b1a81610422565b6001600160a01b0316600090815260196020908152604080832090518154808252918452828420928101949093905b828210612b60576109f1856117f58189038261058f565b835486529485019460019384019390910190612b49565b3461043357604036600319011261043357602060ff612bd3600435612b9b81610422565b60243590612ba882610422565b60018060a01b03166000526001845260406000209060018060a01b0316600052602052604060002090565b54166040519015158152f35b34610433576000366003190112610433576020600c54604051908152f35b34610433576020366003190112610433576004356001600160401b0380821161043357366023830112156104335781600401359081116104335760246005923660248460051b8301011161043357600093338552601160205260ff6040862054168015612d3e575b612c6e9061314e565b845b848110612c7b578580f35b8084600192841b85010135612c8f81610422565b6001600160a01b0381166000908152600f60205260409020612cb990612cb490610e9e565b613fc4565b612ce3612cde611a91610e9e8460018060a01b03166000526010602052604060002090565b614009565b6001600160a01b0381166000908152601060205260409020612d0490611d68565b612d0d81613730565b828060a01b03167f4f783c179409b4127238bc9c990bc99b9a651666a0d20b51d6c42849eb88466d8880a201612c70565b506005546001600160a01b03163314612c65565b346104335760a036600319011261043357600435612d6f81610422565b602435612d7b81610422565b6084356001600160401b03811161043357612d9a9036906004016105eb565b906001600160a01b03838116903382141580612e53575b612e2c57821615612e135715612dfb576112b892612df36064356044359160405192600184526020840152604083019160018352606084015260808301604052565b929091614c14565b604051626a0d4560e21b815260006004820152602490fd5b604051632bfa23e760e11b815260006004820152602490fd5b60405163711bec9160e11b81523360048201526001600160a01b0386166024820152604490fd5b50600082815260016020908152604080832033845290915290205460ff1615612db1565b3461043357602036600319011261043357600435612e9481610422565b612e9c614055565b6001600160a01b03908116908115612eeb57600554826001600160601b0360a01b821617600555167f8be0079c531659141344cd1fd0a4f28419497f9722a3daafe3b4186f6b6457e0600080a3005b604051631e4fbdf760e01b815260006004820152602490fd5b90600a612f0f6105b0565b8354815260018401546001600160a01b0316602082015292612f3360028201610895565b6040850152612f4460038201610895565b6060850152612f556004820161153d565b6080850152612f6660058201610895565b60a0850152600681015460c0850152600781015460e08501526008810154610100850152612f9b61112c600983015460ff1690565b0154610140830152565b600d5481111580613081575b612fbf575b506109916107cf565b8060005260166020526040600020612fd56105b0565b815481526001820154612ff0906001600160a01b0316611405565b612ffc60028301610895565b604082015261300d60038301610895565b6060820152610140600a6130236004850161153d565b936080840194855261303760058201610895565b60a0850152600681015460c0850152600781015460e0850152600881015461010085015261306c61112c600983015460ff1690565b0154910152515115612fb65761099190614098565b50801515612fb1565b634e487b7160e01b600052601160045260246000fd5b9060028201809211610bc457565b9060038201809211610bc457565b9060018201809211610bc457565b6030019081603011610bc457565b90600c8201809211610bc457565b6002019081600211610bc457565b6003019081600311610bc457565b91908201809211610bc457565b1561311657565b60405162461bcd60e51b815260206004820152601060248201526f125b9d985b1a59081d1bdad95b88125160821b6044820152606490fd5b1561315557565b60405162461bcd60e51b815260206004820152600c60248201526b2737ba1030b71030b236b4b760a11b6044820152606490fd5b1561319057565b60405162461bcd60e51b815260206004820152601e60248201527f43616e6e6f742072656d6f7665206f776e65722066726f6d2061646d696e00006044820152606490fd5b156131dc57565b60405162461bcd60e51b815260206004820152602160248201527f43616e6e6f742072656d6f766520796f757273656c662066726f6d2061646d696044820152603760f91b6064820152608490fd5b600019810191908211610bc457565b600119810191908211610bc457565b91908203918211610bc457565b60145480156132aa57600019810190808210156118ce577fce6d7b5282bd9a3661ae061feed1dbda4e52ab073b1f9285be6e155d9c38d4eb906014600052016001600160601b0360a01b8154169055601455565b634e487b7160e01b600052603160045260246000fd5b60135480156132aa57600019810190808210156118ce577f66de8ffda797e3de9c05e8fc57b3bf0ec28a930d40b0d285d93c06501cf6a08f906013600052016001600160601b0360a01b8154169055601355565b906103e891828102928184041490151715610bc457565b600281901b91906001600160fe1b03811603610bc457565b908160011b9180830460021490151715610bc457565b81810292918115918404141715610bc457565b80518210156118ce5760209160051b010190565b9190918051835180820361341d5750508051906133b561339f83611196565b926133ad604051948561058f565b808452611196565b60209190601f1901368484013760005b815181101561341557600581901b8281018401519087018401516000908152602081815260408083206001600160a01b03909416835292905220546001919061340e828761336c565b52016133c5565b509193505050565b604051635b05999160e01b815260048101919091526024810191909152604490fd5b1561344657565b60405162461bcd60e51b815260206004820152600e60248201526d139bdd081d1a1948185c9d1a5cdd60921b6044820152606490fd5b1561348357565b60405162461bcd60e51b815260206004820152600f60248201526e139bdd081dda1a5d195b1a5cdd1959608a1b6044820152606490fd5b156134c157565b60405162461bcd60e51b8152602060048201526015602482015274417274776f726b206973206e6f742061637469766560581b6044820152606490fd5b1561350557565b60405162461bcd60e51b815260206004820152601d60248201527f416d6f756e74206d7573742062652067726561746572207468616e20300000006044820152606490fd5b1561355157565b60405162461bcd60e51b815260206004820152601260248201527145786365656473206d617820737570706c7960701b6044820152606490fd5b1561359257565b60405162461bcd60e51b8152602060048201526014602482015273125b9cdd59999a58da595b9d081c185e5b595b9d60621b6044820152606490fd5b60405190602082018281106001600160401b038211176105545760405260008252565b8054600160401b8110156105545761360e916001820181556118f8565b819291549060031b91821b91600019901b1916179055565b6040513d6000823e3d90fd5b1561363957565b60405162461bcd60e51b8152602060048201526013602482015272105b1c9958591e481dda1a5d195b1a5cdd1959606a1b6044820152606490fd5b60125490600160401b8210156105545760018201806012558210156118ce5760126000527fbb8a6a4669ba250d26cd7a459eca9d215f8307e33aebe50379bc5a3617ec344490910180546001600160a01b0319166001600160a01b03909216919091179055565b60145490600160401b8210156105545760018201806014558210156118ce5760146000526000805160206153e383398151915290910180546001600160a01b0319166001600160a01b03909216919091179055565b60135490600160401b8210156105545760018201806013558210156118ce5760136000526000805160206153c383398151915290910180546001600160a01b0319166001600160a01b03909216919091179055565b1561378c57565b60405162461bcd60e51b815260206004820152601060248201526f20b63932b0b23c9030b71030b236b4b760811b6044820152606490fd5b156137cb57565b60405162461bcd60e51b815260206004820152600f60248201526e496e76616c6964206164647265737360881b6044820152606490fd5b1561380957565b60405162461bcd60e51b815260206004820152601760248201527f41646472657373206e6f742077686974656c69737465640000000000000000006044820152606490fd5b1561385557565b60405162461bcd60e51b815260206004820152602260248201527f43616e6e6f742072656d6f7665206f776e65722066726f6d2077686974656c696044820152611cdd60f21b6064820152608490fd5b8181106138b0575050565b600081556001016138a5565b90601f82116138c9575050565b61080e9160026000527f405787fa12a823e0f2b7631cc41b3ba8828b3321ca811111fa75cd3aa3bb5ace906020601f840160051c83019310613913575b601f0160051c01906138a5565b9091508190613906565b9190601f811161392c57505050565b61080e926000526020600020906020601f840160051c8301931061391357601f0160051c01906138a5565b91909182516001600160401b0381116105545761397e816139788454610795565b8461391d565b602080601f83116001146139b5575081906139b19394956000926106c15750508160011b916000199060031b1c19161790565b9055565b90601f198316956139cb85600052602060002090565b926000905b888210613a08575050836001959697106139ef575b505050811b019055565b015160001960f88460031b161c191690553880806139e5565b806001859682949686015181550195019301906139d0565b91613a4990613a3b610991959360608652606086019061095b565b90848203602086015261095b565b91604081840391015261095b565b93613c077f4ddc8815460a355e3d190e794ec142559a99d61ae53cf57df333c9286e76c54893969296613a886144fe565b613a9061451c565b60ff600e5416613c2c575b613aa6841515613c67565b613ab287511515613cbd565b613abe81511515613d01565b613acd61400082511115613d4d565b613ad986511515613d99565b613aea613ae5876146b5565b613de5565b613afd613af8600d54613e26565b600d55565b613b70600d54988997613b0e6105b0565b898152336020820152918a6040840152606083015283608083015260a08201528460c08201528560e08201526000610100820152613b50610120820160019052565b42610140820152613b6b886000526016602052604060002090565b613eda565b613ba733613b88886000526017602052604060002090565b80546001600160a01b0319166001600160a01b03909216919091179055565b336000908152601860205260409020613bc19087906135f1565b33600090815260156020526040902060039060058101613be5611a91825460ff1690565b613c14575b5001613bf68154613e26565b905551604051938493339885613f9c565b0390a36109916001600655565b805460ff191660011790556000600482015538613bea565b33600052601060205260ff604060002054168015613c53575b613c4e9061347c565b613a9b565b506005546001600160a01b03163314613c45565b15613c6e57565b60405162461bcd60e51b815260206004820152602160248201527f4d617820737570706c79206d7573742062652067726561746572207468616e206044820152600360fc1b6064820152608490fd5b15613cc457565b60405162461bcd60e51b81526020600482015260156024820152745469746c652063616e6e6f7420626520656d70747960581b6044820152606490fd5b15613d0857565b60405162461bcd60e51b815260206004820152601a60248201527f496d61676520646174612063616e6e6f7420626520656d7074790000000000006044820152606490fd5b15613d5457565b60405162461bcd60e51b815260206004820152601a60248201527f496d61676520746f6f206c61726765202831364b42206d6178290000000000006044820152606490fd5b15613da057565b60405162461bcd60e51b815260206004820152601a60248201527f496d61676520747970652063616e6e6f7420626520656d7074790000000000006044820152606490fd5b15613dec57565b60405162461bcd60e51b8152602060048201526012602482015271496e76616c696420696d616765207479706560701b6044820152606490fd5b6000198114610bc45760010190565b91909182516001600160401b03811161055457613e56816139788454610795565b602080601f8311600114613e89575081906139b19394956000926106c15750508160011b916000199060031b1c19161790565b90601f19831695613e9f85600052602060002090565b926000905b888210613ec2575050836001959697106139ef57505050811b019055565b80600185968294968601518155019501930190613ea4565b8151815560208201516001820180546001600160a01b0319166001600160a01b0390921691909117905590600a9061014090613f1d604082015160028601613957565b613f2e606082015160038601613957565b613f3f608082015160048601613e35565b613f5060a082015160058601613957565b60c0810151600685015560e081015160078501556101008101516008850155613f95613f80610120830151151590565b600986019060ff801983541691151516179055565b0151910155565b9092613fb560609396959460808452608084019061095b565b95602083015260408201520152565b15613fcb57565b60405162461bcd60e51b81526020600482015260166024820152751059191c995cdcc81b9bdd081a5b9d195c995cdd195960521b6044820152606490fd5b1561401057565b60405162461bcd60e51b815260206004820152601b60248201527f4164647265737320616c72656164792077686974656c697374656400000000006044820152606490fd5b6005546001600160a01b0316330361406957565b60405163118cdaa760e01b8152336004820152602490fd5b9061409460209282815194859201610938565b0190565b6140ac816000526016602052604060002090565b6140b590612f04565b60a08101918251608083019283516140cc90614875565b6040516a646174613a696d6167652f60a81b602082015292839190602b83016140f491614081565b670ed8985cd94d8d0b60c21b815260080161410e91614081565b0394601f19958681018452614123908461058f565b60408201519361413290614a6c565b9460608301519360e084015161414790614a6c565b61010085015161415690614a6c565b9160c086015161416590614a6c565b93515161417190614a6c565b94516020909601516001600160a01b031661418b90614b38565b604051683d913730b6b2911d1160b91b6020820152998a9991989160298b016141b391614081565b61202360f01b81526002016141c791614081565b61088b60f21b81526002016e113232b9b1b934b83a34b7b7111d1160891b8152600f016141f391614081565b61088b60f21b8152600201681134b6b0b3b2911d1160b91b815260090161421991614081565b61088b60f21b81526002016d2261747472696275746573223a5b60901b8152600e017f7b2274726169745f74797065223a22546f6b656e205374616e64617264222c228152721d985b1d59488e88915490cb4c4c4d4d489f4b606a1b60208201526033017f7b2274726169745f74797065223a2253746f72616765222c2276616c7565223a81526b0893db8b58da185a5b889f4b60a21b6020820152602c017f7b2274726169745f74797065223a224d617820537570706c79222c2276616c7581526232911d60e91b60208201526023016142f391614081565b611f4b60f21b81526002017f7b2274726169745f74797065223a2243757272656e7420537570706c79222c228152663b30b63ab2911d60c91b602082015260270161433d91614081565b611f4b60f21b81526002017f7b2274726169745f74797065223a225072696365202857656929222c2276616c8152633ab2911d60e11b602082015260240161438491614081565b611f4b60f21b81526002017f7b2274726169745f74797065223a2246696c652053697a65222c2276616c7565815261111d60f11b60208201526022016143c991614081565b611f4b60f21b81526002017f7b2274726169745f74797065223a2246696c652054797065222c2276616c7565815262111d1160e91b602082015260230161440f91614081565b62089f4b60ea1b81526003017f7b2274726169745f74797065223a2243726561746f72222c2276616c7565223a8152601160f91b602082015260210161445491614081565b61227d60f01b815260020161174b60f21b81526002017f2270726f70657274696573223a7b2263617465676f7279223a22696d616765228152617d7d60f01b60208201526022010382810182526144ab908261058f565b6144b490614875565b6040517f646174613a6170706c69636174696f6e2f6a736f6e3b6261736536342c000000602082015291908290603d82016144ee91614081565b039081018252610991908261058f565b60ff6007541661450a57565b60405163d93c066560e01b8152600490fd5b60026006541461452d576002600655565b604051633ee5aeb560e01b8152600490fd5b93916001600160a01b03851615612e135761457760405192600184526020840152604083019160018352606084015260808301604052565b90916145848284876150e9565b600094855b84518710156145d7576145cf6001918860051b906145bd602080848a010151938a0101516000526003602052604060002090565b6145c8838254613102565b9055613102565b960195614589565b6145f19195949296506145ec90600454613102565b600455565b805160010361460f579060208061080e959301519101519133615058565b61080e9333614e5e565b6040519061462682610559565b6003825262706e6760e81b6020830152565b6040519061464582610559565b600382526233b4b360e91b6020830152565b6040519061466482610559565b60048252630776562760e41b6020830152565b6040519061468482610559565b600382526273766760e81b6020830152565b604051906146a382610559565b600382526207a69760ec1b6020830152565b6146db6040516146c481610559565b60048152636a70656760e01b602082015282614d47565b90811561476e575b811561475b575b8115614748575b8115614735575b811561471c575b8115614709575090565b6109919150614716614696565b90614d47565b905061472f614729614677565b82614d47565b906146ff565b9050614742614729614657565b906146f8565b9050614755614729614638565b906146f1565b9050614768614729614619565b906146ea565b905061479560405161477f81610559565b60038152626a706760e81b602082015282614d47565b906146e3565b604051906147a882610574565b604082527f6768696a6b6c6d6e6f707172737475767778797a303132333435363738392b2f6040837f4142434445464748494a4b4c4d4e4f505152535455565758595a61626364656660208201520152565b6040519061480782610574565b602a82526040366020840137565b9061481f826105d0565b61482c604051918261058f565b828152809261483d601f19916105d0565b0190602036910137565b8051156118ce5760200190565b8051600110156118ce5760210190565b9081518110156118ce570160200190565b805115614a635761488461479b565b906148a161489c61489583516130a0565b6003900490565b61332b565b916148ab83614815565b91600094855b8251811015614a0657806149d76148d76148f16148eb6148e56148d76149f5978a614864565b516001600160f81b03191690565b60f81c90565b60ff1690565b6148fa846130bc565b875111600090600014614a0057506149236148eb6148e56148d761491d886130bc565b8b614864565b905b61492e856130a0565b8851116000906000146149fa57506149576148eb6148e56148d7614951896130a0565b8c614864565b915b60081b9060101b1717603f906149776148d7838360121c168b614864565b9b61498f61498482613e26565b9d60001a918c614864565b536149a26148d78383600c1c168b614864565b9b6149af61498482613e26565b536149c26148d7838360061c168b614864565b9b6149cf61498482613e26565b531687614864565b976149ef6149e482613e26565b9960001a9188614864565b536130ae565b6148b1565b91614959565b90614925565b50945060039150929192510660018114600014614a4a5750614a46614a4082603d614a3a614a34829661322b565b87614864565b5361323a565b83614864565b5390565b600214614a55575090565b614a46614a40603d9261322b565b506109916135ce565b8015614aee576000818181805b614ad65750614a8781614815565b935b614a935750505090565b614a9c9061322b565b90600a90614ac1614ab16148eb8484066130ca565b60f81b6001600160f81b03191690565b841a614acd8487614864565b53049081614a89565b9150614ae3600a91613e26565b910480849291614a79565b50604051614afb81610559565b60018152600360fc1b602082015290565b60405190614b1982610559565b601082526f181899199a1a9b1b9c1cb0b131b232b360811b6020830152565b6001600160a01b0316614b49614b0c565b614b516147fa565b916030614b5d84614847565b536078614b6984614854565b5360009060005b60148110614b7f575050505090565b614b88816130d8565b90602091828110156118ce57614bac6148d78592600f9384911a60041c1688614864565b614bca614bc0614bbb85613343565b6130e6565b91871a9189614864565b53614bd4826130d8565b928310156118ce576148d7614bef91856001951a1687614864565b614c0d614c03614bfe84613343565b6130f4565b91861a9188614864565b5301614b70565b91939290614c248286838661521b565b6001600160a01b0383811615614ce3575b81161580614c82575b15614c4b575b5050505050565b8451600103614c7157602080614c67960151920151923361508d565b3880808080614c44565b614c7d94919233614f59565b614c67565b94936000939091845b8651861015614ccb576001908660051b90614cbc602080848a010151938b0101516000526003602052604060002090565b82815403905501950194614c8b565b614cde9193969792955060045403600455565b614c3e565b959192600094916000955b8751871015614d2a57614d226001918860051b906145bd602080848c010151938d0101516000526003602052604060002090565b960195614cee565b614d42919396506145ec909892959498600454613102565b614c35565b9060405191602092614d75848281614d688183019687815193849201610938565b810103808452018261058f565b51902091614d95604051918281614d688183019687815193849201610938565b5190201490565b90816020910312610433575161099181610489565b92614de06109919593614dee9360018060a01b031686526000602087015260a0604087015260a0860190611719565b908482036060860152611719565b91608081840391015261095b565b93906109919593614de091614dee9460018060a01b03809216885216602087015260a0604087015260a0860190611719565b3d15614e59573d90614e3f826105d0565b91614e4d604051938461058f565b82523d6000602084013e565b606090565b9293919093843b614e70575050505050565b602091614e93604051948593849363bc197c8160e01b9889865260048601614db1565b038160006001600160a01b0388165af160009181614f28575b50614eeb5782614eba614e2e565b8051919082614ee457604051632bfa23e760e11b81526001600160a01b0383166004820152602490fd5b9050602001fd5b6001600160e01b03191603614f0557503880808080614c44565b604051632bfa23e760e11b81526001600160a01b03919091166004820152602490fd5b614f4b91925060203d602011614f52575b614f43818361058f565b810190614d9c565b9038614eac565b503d614f39565b939290949194853b614f6e575b505050505050565b614f91602093604051958694859463bc197c8160e01b998a875260048701614dfc565b038160006001600160a01b0388165af160009181614fd3575b50614fb85782614eba614e2e565b6001600160e01b03191603614f055750388080808080614f66565b614fed91925060203d602011614f5257614f43818361058f565b9038614faa565b909260a0926109919594600180861b031683526000602084015260408301526060820152816080820152019061095b565b919261099195949160a094600180871b03809216855216602084015260408301526060820152816080820152019061095b565b9293919093843b61506a575050505050565b602091614e93604051948593849363f23a6e6160e01b9889865260048601614ff4565b939290949194853b6150a157505050505050565b614f91602093604051958694859463f23a6e6160e01b998a875260048701615025565b90916150db61099193604084526040840190611719565b916020818403910152611719565b919091825182519081810361341d57505060005b835181101561517b57600581901b84810160209081015191850101516001929184906001600160a01b038216615137575b505050016150fd565b61517191615152615169926000526000602052604060002090565b9060018060a01b0316600052602052604060002090565b918254613102565b905538838161512e565b509160018151146000146151dc576020908101519181015160408051938452918301526001600160a01b039092169160009133917fc3d58168c5ae7397731d063d5bbf3d657854427343f4c083240f7aacaa2d0f629190819081015b0390a4565b7f4a39dc06d4c0dbc64b70af90fd698a233a518aa5d07e595d983b8c0526c8f7fb6151d76000939460405191829160018060a01b0316963395836150c4565b939291805183519081810361341d57505060005b815181101561531d57600581901b82810160209081015191860101516001600160a01b0392918590898516615297575b6001948216615272575b5050500161522f565b61528d91615152615169926000526000602052604060002090565b9055388481615269565b91929390506152b489615152846000526000602052604060002090565b548381106152e657918691846001969594036152de8c615152856000526000602052604060002090565b55945061525f565b6040516303dee4c560e01b81526001600160a01b038b16600482015260248101919091526044810184905260648101839052608490fd5b50805193949391929160010361537f576020908101519181015160408051938452918301526001600160a01b03928316939092169133917fc3d58168c5ae7397731d063d5bbf3d657854427343f4c083240f7aacaa2d0f6291819081016151d7565b6040516001600160a01b03938416949093169233927f4a39dc06d4c0dbc64b70af90fd698a233a518aa5d07e595d983b8c0526c8f7fb9282916151d791836150c456fe66de8ffda797e3de9c05e8fc57b3bf0ec28a930d40b0d285d93c06501cf6a090ce6d7b5282bd9a3661ae061feed1dbda4e52ab073b1f9285be6e155d9c38d4eca2646970667358221220c5ea8a1c165f79ba04e4a01097dd66360187e150ba9cacd38ac682fe81e80e8464736f6c63430008180033","opcodes":"PUSH1 0x80 CALLVALUE PUSH3 0x316 JUMPI PUSH1 0x1F PUSH3 0x58DE CODESIZE DUP2 SWAP1 SUB SWAP2 DUP3 ADD PUSH1 0x1F NOT AND DUP4 ADD SWAP3 SWAP2 PUSH1 0x1 PUSH1 0x1 PUSH1 0x40 SHL SUB SWAP2 SWAP1 DUP3 DUP6 GT DUP5 DUP7 LT OR PUSH3 0x300 JUMPI DUP1 DUP5 SWAP3 PUSH1 0x40 SWAP7 DUP8 MSTORE DUP4 CODECOPY PUSH1 0x20 SWAP4 DUP5 SWAP2 DUP2 ADD SUB SLT PUSH3 0x316 JUMPI MLOAD PUSH1 0x1 PUSH1 0x1 PUSH1 0xA0 SHL SUB SWAP3 DUP4 DUP3 AND SWAP3 SWAP2 DUP4 SWAP1 SUB PUSH3 0x316 JUMPI DUP5 MLOAD DUP2 DUP2 ADD DUP2 DUP2 LT DUP5 DUP3 GT OR PUSH3 0x300 JUMPI DUP7 MSTORE PUSH3 0x84 PUSH1 0x0 SWAP2 DUP3 DUP2 MSTORE PUSH3 0x371 JUMP JUMPDEST DUP4 ISZERO PUSH3 0x2E9 JUMPI PUSH1 0x5 DUP1 SLOAD PUSH1 0x1 PUSH1 0x1 PUSH1 0xA0 SHL SUB NOT DUP1 DUP3 AND DUP8 OR SWAP1 SWAP3 SSTORE SWAP1 SWAP6 DUP6 SWAP2 AND PUSH32 0x8BE0079C531659141344CD1FD0A4F28419497F9722A3DAAFE3B4186F6B6457E0 DUP4 DUP1 LOG3 PUSH1 0x1 SWAP3 DUP4 PUSH1 0x6 SSTORE PUSH3 0xDD PUSH1 0x8 SLOAD PUSH3 0x31B JUMP JUMPDEST PUSH1 0x1F DUP2 GT PUSH3 0x2C7 JUMPI JUMPDEST POP PUSH32 0x5065726D616C696E6B0000000000000000000000000000000000000000000012 PUSH1 0x8 SSTORE PUSH1 0x9 SLOAD PUSH3 0x11A SWAP1 PUSH3 0x31B JUMP JUMPDEST PUSH1 0x1F DUP2 GT PUSH3 0x2A5 JUMPI JUMPDEST POP PUSH1 0xA PUSH5 0x504C494E4B PUSH1 0xD8 SHL ADD PUSH1 0x9 SSTORE PUSH1 0xFA PUSH1 0xA SSTORE PUSH1 0xFA PUSH1 0xB SSTORE PUSH2 0x2EE PUSH1 0xC SSTORE DUP2 PUSH1 0xD SSTORE PUSH1 0xFF NOT SWAP1 DUP5 DUP3 PUSH1 0xE SLOAD AND OR PUSH1 0xE SSTORE DUP8 MLOAD SWAP1 PUSH1 0x60 DUP3 ADD SWAP1 DUP3 DUP3 LT SWAP1 DUP3 GT OR PUSH3 0x291 JUMPI DUP9 MSTORE PUSH1 0x2C DUP2 MSTORE PUSH32 0x68747470733A2F2F6170692E7065726D616C696E6B2E6172742F6D6574616461 DUP5 DUP3 ADD MSTORE PUSH12 0x3A3097BDB4B23E973539B7B7 PUSH1 0xA1 SHL DUP9 DUP3 ADD MSTORE PUSH3 0x1B4 SWAP1 PUSH3 0x371 JUMP JUMPDEST DUP5 DUP3 MSTORE PUSH1 0x11 DUP4 MSTORE DUP7 DUP3 KECCAK256 DUP5 DUP3 DUP3 SLOAD AND OR SWAP1 SSTORE PUSH1 0x10 DUP4 MSTORE DUP4 DUP8 DUP4 KECCAK256 SWAP2 DUP3 SLOAD AND OR SWAP1 SSTORE PUSH1 0x14 SLOAD SWAP3 PUSH9 0x10000000000000000 SWAP4 DUP5 DUP2 LT ISZERO PUSH3 0x27D JUMPI DUP2 DUP2 ADD DUP1 PUSH1 0x14 SSTORE DUP2 LT ISZERO PUSH3 0x269 JUMPI PUSH1 0x14 DUP4 MSTORE DUP4 DUP4 KECCAK256 ADD DUP6 DUP8 DUP3 SLOAD AND OR SWAP1 SSTORE PUSH1 0x13 SLOAD SWAP4 DUP5 LT ISZERO PUSH3 0x255 JUMPI DUP4 ADD DUP1 PUSH1 0x13 SSTORE DUP4 LT ISZERO PUSH3 0x241 JUMPI PUSH1 0x13 DUP2 MSTORE KECCAK256 ADD SWAP2 DUP3 SLOAD AND OR SWAP1 SSTORE MLOAD PUSH2 0x5438 SWAP1 DUP2 PUSH3 0x4A6 DUP3 CODECOPY RETURN JUMPDEST PUSH4 0x4E487B71 PUSH1 0xE0 SHL DUP2 MSTORE PUSH1 0x32 PUSH1 0x4 MSTORE PUSH1 0x24 SWAP1 REVERT JUMPDEST PUSH4 0x4E487B71 PUSH1 0xE0 SHL DUP3 MSTORE PUSH1 0x41 PUSH1 0x4 MSTORE PUSH1 0x24 DUP3 REVERT JUMPDEST PUSH4 0x4E487B71 PUSH1 0xE0 SHL DUP4 MSTORE PUSH1 0x32 PUSH1 0x4 MSTORE PUSH1 0x24 DUP4 REVERT JUMPDEST PUSH4 0x4E487B71 PUSH1 0xE0 SHL DUP4 MSTORE PUSH1 0x41 PUSH1 0x4 MSTORE PUSH1 0x24 DUP4 REVERT JUMPDEST PUSH4 0x4E487B71 PUSH1 0xE0 SHL DUP5 MSTORE PUSH1 0x41 PUSH1 0x4 MSTORE PUSH1 0x24 DUP5 REVERT JUMPDEST PUSH1 0x9 DUP4 MSTORE DUP4 DUP4 KECCAK256 PUSH3 0x2C0 SWAP2 PUSH1 0x1F ADD PUSH1 0x5 SHR DUP2 ADD SWAP1 PUSH3 0x358 JUMP JUMPDEST CODESIZE PUSH3 0x124 JUMP JUMPDEST PUSH1 0x8 DUP4 MSTORE DUP4 DUP4 KECCAK256 PUSH3 0x2E2 SWAP2 PUSH1 0x1F ADD PUSH1 0x5 SHR DUP2 ADD SWAP1 PUSH3 0x358 JUMP JUMPDEST CODESIZE PUSH3 0xE7 JUMP JUMPDEST PUSH1 0x24 SWAP1 DUP7 MLOAD SWAP1 PUSH4 0x1E4FBDF7 PUSH1 0xE0 SHL DUP3 MSTORE PUSH1 0x4 DUP3 ADD MSTORE REVERT JUMPDEST PUSH4 0x4E487B71 PUSH1 0xE0 SHL PUSH1 0x0 MSTORE PUSH1 0x41 PUSH1 0x4 MSTORE PUSH1 0x24 PUSH1 0x0 REVERT JUMPDEST PUSH1 0x0 DUP1 REVERT JUMPDEST SWAP1 PUSH1 0x1 DUP3 DUP2 SHR SWAP3 AND DUP1 ISZERO PUSH3 0x34D JUMPI JUMPDEST PUSH1 0x20 DUP4 LT EQ PUSH3 0x337 JUMPI JUMP JUMPDEST PUSH4 0x4E487B71 PUSH1 0xE0 SHL PUSH1 0x0 MSTORE PUSH1 0x22 PUSH1 0x4 MSTORE PUSH1 0x24 PUSH1 0x0 REVERT JUMPDEST SWAP2 PUSH1 0x7F AND SWAP2 PUSH3 0x32B JUMP JUMPDEST DUP2 DUP2 LT PUSH3 0x364 JUMPI POP POP JUMP JUMPDEST PUSH1 0x0 DUP2 SSTORE PUSH1 0x1 ADD PUSH3 0x358 JUMP JUMPDEST DUP1 MLOAD SWAP1 SWAP2 SWAP1 PUSH1 0x1 PUSH1 0x1 PUSH1 0x40 SHL SUB DUP2 GT PUSH3 0x300 JUMPI PUSH3 0x392 PUSH1 0x2 SLOAD PUSH3 0x31B JUMP JUMPDEST PUSH1 0x1F DUP2 GT PUSH3 0x446 JUMPI JUMPDEST POP PUSH1 0x20 DUP1 PUSH1 0x1F DUP4 GT PUSH1 0x1 EQ PUSH3 0x3DC JUMPI POP DUP2 SWAP3 SWAP4 PUSH1 0x0 SWAP3 PUSH3 0x3D0 JUMPI JUMPDEST POP POP DUP2 PUSH1 0x1 SHL SWAP2 PUSH1 0x0 NOT SWAP1 PUSH1 0x3 SHL SHR NOT AND OR PUSH1 0x2 SSTORE JUMP JUMPDEST ADD MLOAD SWAP1 POP CODESIZE DUP1 PUSH3 0x3B9 JUMP JUMPDEST SWAP1 PUSH1 0x1F NOT DUP4 AND SWAP5 PUSH1 0x2 PUSH1 0x0 MSTORE PUSH1 0x20 PUSH1 0x0 KECCAK256 SWAP3 PUSH1 0x0 SWAP1 JUMPDEST DUP8 DUP3 LT PUSH3 0x42D JUMPI POP POP DUP4 PUSH1 0x1 SWAP6 SWAP7 LT PUSH3 0x413 JUMPI JUMPDEST POP POP POP DUP2 SHL ADD PUSH1 0x2 SSTORE JUMP JUMPDEST ADD MLOAD PUSH1 0x0 NOT PUSH1 0xF8 DUP5 PUSH1 0x3 SHL AND SHR NOT AND SWAP1 SSTORE CODESIZE DUP1 DUP1 PUSH3 0x408 JUMP JUMPDEST DUP1 PUSH1 0x1 DUP6 SWAP7 DUP3 SWAP5 SWAP7 DUP7 ADD MLOAD DUP2 SSTORE ADD SWAP6 ADD SWAP4 ADD SWAP1 PUSH3 0x3F2 JUMP JUMPDEST PUSH1 0x2 PUSH1 0x0 MSTORE PUSH3 0x493 SWAP1 PUSH32 0x405787FA12A823E0F2B7631CC41B3BA8828B3321CA811111FA75CD3AA3BB5ACE PUSH1 0x1F DUP5 ADD PUSH1 0x5 SHR DUP2 ADD SWAP2 PUSH1 0x20 DUP6 LT PUSH3 0x49A JUMPI JUMPDEST PUSH1 0x1F ADD PUSH1 0x5 SHR ADD SWAP1 PUSH3 0x358 JUMP JUMPDEST CODESIZE PUSH3 0x39C JUMP JUMPDEST SWAP1 SWAP2 POP DUP2 SWAP1 PUSH3 0x485 JUMP INVALID PUSH1 0x80 PUSH1 0x40 MSTORE PUSH1 0x4 CALLDATASIZE LT ISZERO PUSH2 0x12 JUMPI PUSH1 0x0 DUP1 REVERT JUMPDEST PUSH1 0x0 CALLDATALOAD PUSH1 0xE0 SHR DUP1 PUSH3 0xFDD58E EQ PUSH2 0x41D JUMPI DUP1 PUSH4 0x1FFC9A7 EQ PUSH2 0x418 JUMPI DUP1 PUSH4 0x2FE5305 EQ PUSH2 0x413 JUMPI DUP1 PUSH4 0x6C933D8 EQ PUSH2 0x3D7 JUMPI DUP1 PUSH4 0x6FDDE03 EQ PUSH2 0x40E JUMPI DUP1 PUSH4 0xE89341C EQ PUSH2 0x409 JUMPI DUP1 PUSH4 0x12E8E2C3 EQ PUSH2 0x404 JUMPI DUP1 PUSH4 0x1447BA1C EQ PUSH2 0x3FF JUMPI DUP1 PUSH4 0x167DDF6E EQ PUSH2 0x3FA JUMPI DUP1 PUSH4 0x171212D5 EQ PUSH2 0x3F5 JUMPI DUP1 PUSH4 0x1785F53C EQ PUSH2 0x3F0 JUMPI DUP1 PUSH4 0x18160DDD EQ PUSH2 0x3EB JUMPI DUP1 PUSH4 0x184D69AB EQ PUSH2 0x3A0 JUMPI DUP1 PUSH4 0x24D7806C EQ PUSH2 0x3B4 JUMPI DUP1 PUSH4 0x2A55205A EQ PUSH2 0x3E6 JUMPI DUP1 PUSH4 0x2EB2C2D6 EQ PUSH2 0x3E1 JUMPI DUP1 PUSH4 0x35C2AAB9 EQ PUSH2 0x3DC JUMPI DUP1 PUSH4 0x3998A681 EQ PUSH2 0x3BE JUMPI DUP1 PUSH4 0x3AF32ABF EQ PUSH2 0x3D7 JUMPI DUP1 PUSH4 0x3B5221E2 EQ PUSH2 0x3D2 JUMPI DUP1 PUSH4 0x3F4BA83A EQ PUSH2 0x3CD JUMPI DUP1 PUSH4 0x489B3711 EQ PUSH2 0x3C8 JUMPI DUP1 PUSH4 0x4B602673 EQ PUSH2 0x3C3 JUMPI DUP1 PUSH4 0x4BF56FD1 EQ PUSH2 0x382 JUMPI DUP1 PUSH4 0x4CF4BB06 EQ PUSH2 0x3BE JUMPI DUP1 PUSH4 0x4E1273F4 EQ PUSH2 0x3B9 JUMPI DUP1 PUSH4 0x4ED38FAF EQ PUSH2 0x3B4 JUMPI DUP1 PUSH4 0x4F558E79 EQ PUSH2 0x3AF JUMPI DUP1 PUSH4 0x5001257E EQ PUSH2 0x3AA JUMPI DUP1 PUSH4 0x5024FD8C EQ PUSH2 0x3A5 JUMPI DUP1 PUSH4 0x51FB012D EQ PUSH2 0x3A0 JUMPI DUP1 PUSH4 0x552906CE EQ PUSH2 0x39B JUMPI DUP1 PUSH4 0x56189236 EQ PUSH2 0x396 JUMPI DUP1 PUSH4 0x5B42A8FE EQ PUSH2 0x391 JUMPI DUP1 PUSH4 0x5C975ABB EQ PUSH2 0x38C JUMPI DUP1 PUSH4 0x5F5FFF4D EQ PUSH2 0x387 JUMPI DUP1 PUSH4 0x62AFCF00 EQ PUSH2 0x382 JUMPI DUP1 PUSH4 0x63C770D8 EQ PUSH2 0x37D JUMPI DUP1 PUSH4 0x64DDFA29 EQ PUSH2 0x378 JUMPI DUP1 PUSH4 0x6D028027 EQ PUSH2 0x373 JUMPI DUP1 PUSH4 0x6E977223 EQ PUSH2 0x36E JUMPI DUP1 PUSH4 0x70480275 EQ PUSH2 0x369 JUMPI DUP1 PUSH4 0x715018A6 EQ PUSH2 0x364 JUMPI DUP1 PUSH4 0x7E15144B EQ PUSH2 0x35F JUMPI DUP1 PUSH4 0x8456CB59 EQ PUSH2 0x35A JUMPI DUP1 PUSH4 0x8AB1D681 EQ PUSH2 0x355 JUMPI DUP1 PUSH4 0x8DA5CB5B EQ PUSH2 0x350 JUMPI DUP1 PUSH4 0x8DC8B4DA EQ PUSH2 0x34B JUMPI DUP1 PUSH4 0x92A05FE7 EQ PUSH2 0x346 JUMPI DUP1 PUSH4 0x95D89B41 EQ PUSH2 0x341 JUMPI DUP1 PUSH4 0xA22CB465 EQ PUSH2 0x33C JUMPI DUP1 PUSH4 0xB23CD1A6 EQ PUSH2 0x337 JUMPI DUP1 PUSH4 0xB3B30640 EQ PUSH2 0x332 JUMPI DUP1 PUSH4 0xB7195763 EQ PUSH2 0x32D JUMPI DUP1 PUSH4 0xBD85B039 EQ PUSH2 0x328 JUMPI DUP1 PUSH4 0xC71959B4 EQ PUSH2 0x323 JUMPI DUP1 PUSH4 0xCC0AD6E7 EQ PUSH2 0x31E JUMPI DUP1 PUSH4 0xCDD78CFC EQ PUSH2 0x319 JUMPI DUP1 PUSH4 0xD0B7830B EQ PUSH2 0x314 JUMPI DUP1 PUSH4 0xE084FFDA EQ PUSH2 0x30F JUMPI DUP1 PUSH4 0xE0F8B313 EQ PUSH2 0x30A JUMPI DUP1 PUSH4 0xE985E9C5 EQ PUSH2 0x305 JUMPI DUP1 PUSH4 0xECCEEC82 EQ PUSH2 0x300 JUMPI DUP1 PUSH4 0xF0F4D0CB EQ PUSH2 0x2FB JUMPI DUP1 PUSH4 0xF242432A EQ PUSH2 0x2F6 JUMPI PUSH4 0xF2FDE38B EQ PUSH2 0x2F1 JUMPI PUSH1 0x0 DUP1 REVERT JUMPDEST PUSH2 0x2E77 JUMP JUMPDEST PUSH2 0x2D52 JUMP JUMPDEST PUSH2 0x2BFD JUMP JUMPDEST PUSH2 0x2BDF JUMP JUMPDEST PUSH2 0x2B77 JUMP JUMPDEST PUSH2 0x2AFC JUMP JUMPDEST PUSH2 0x2AA1 JUMP JUMPDEST PUSH2 0x2A1E JUMP JUMPDEST PUSH2 0x2A00 JUMP JUMPDEST PUSH2 0x2985 JUMP JUMPDEST PUSH2 0x28E5 JUMP JUMPDEST PUSH2 0x28B9 JUMP JUMPDEST PUSH2 0x276F JUMP JUMPDEST PUSH2 0x26C5 JUMP JUMPDEST PUSH2 0x25CC JUMP JUMPDEST PUSH2 0x250C JUMP JUMPDEST PUSH2 0x2464 JUMP JUMPDEST PUSH2 0x2416 JUMP JUMPDEST PUSH2 0x2392 JUMP JUMPDEST PUSH2 0x2369 JUMP JUMPDEST PUSH2 0x222A JUMP JUMPDEST PUSH2 0x21D0 JUMP JUMPDEST PUSH2 0x2145 JUMP JUMPDEST PUSH2 0x20E7 JUMP JUMPDEST PUSH2 0x1FB2 JUMP JUMPDEST PUSH2 0x1F69 JUMP JUMPDEST PUSH2 0x1EF7 JUMP JUMPDEST PUSH2 0x1E79 JUMP JUMPDEST PUSH2 0x1DEB JUMP JUMPDEST PUSH2 0x16D7 JUMP JUMPDEST PUSH2 0x1D09 JUMP JUMPDEST PUSH2 0x1CE6 JUMP JUMPDEST PUSH2 0x1C8D JUMP JUMPDEST PUSH2 0x1C6F JUMP JUMPDEST PUSH2 0x196C JUMP JUMPDEST PUSH2 0xFF4 JUMP JUMPDEST PUSH2 0x1910 JUMP JUMPDEST PUSH2 0x1848 JUMP JUMPDEST PUSH2 0x181A JUMP JUMPDEST PUSH2 0x1017 JUMP JUMPDEST PUSH2 0x175E JUMP JUMPDEST PUSH2 0x136E JUMP JUMPDEST PUSH2 0x1643 JUMP JUMPDEST PUSH2 0x151F JUMP JUMPDEST PUSH2 0x14B5 JUMP JUMPDEST PUSH2 0x13B0 JUMP JUMPDEST PUSH2 0x753 JUMP JUMPDEST PUSH2 0x133A JUMP JUMPDEST PUSH2 0x120D JUMP JUMPDEST PUSH2 0x1059 JUMP JUMPDEST PUSH2 0xFD6 JUMP JUMPDEST PUSH2 0xE3D JUMP JUMPDEST PUSH2 0xDC4 JUMP JUMPDEST PUSH2 0xC3A JUMP JUMPDEST PUSH2 0xB46 JUMP JUMPDEST PUSH2 0xAB0 JUMP JUMPDEST PUSH2 0xA7D JUMP JUMPDEST PUSH2 0x994 JUMP JUMPDEST PUSH2 0x632 JUMP JUMPDEST PUSH2 0x49B JUMP JUMPDEST PUSH2 0x438 JUMP JUMPDEST PUSH1 0x1 PUSH1 0x1 PUSH1 0xA0 SHL SUB DUP2 AND SUB PUSH2 0x433 JUMPI JUMP JUMPDEST PUSH1 0x0 DUP1 REVERT JUMPDEST CALLVALUE PUSH2 0x433 JUMPI PUSH1 0x40 CALLDATASIZE PUSH1 0x3 NOT ADD SLT PUSH2 0x433 JUMPI PUSH1 0x20 PUSH2 0x480 PUSH1 0x4 CALLDATALOAD PUSH2 0x45A DUP2 PUSH2 0x422 JUMP JUMPDEST PUSH1 0x24 CALLDATALOAD PUSH1 0x0 MSTORE PUSH1 0x0 DUP4 MSTORE PUSH1 0x40 PUSH1 0x0 KECCAK256 SWAP1 PUSH1 0x1 DUP1 PUSH1 0xA0 SHL SUB AND PUSH1 0x0 MSTORE PUSH1 0x20 MSTORE PUSH1 0x40 PUSH1 0x0 KECCAK256 SWAP1 JUMP JUMPDEST SLOAD PUSH1 0x40 MLOAD SWAP1 DUP2 MSTORE RETURN JUMPDEST PUSH1 0x1 PUSH1 0x1 PUSH1 0xE0 SHL SUB NOT DUP2 AND SUB PUSH2 0x433 JUMPI JUMP JUMPDEST CALLVALUE PUSH2 0x433 JUMPI PUSH1 0x20 CALLDATASIZE PUSH1 0x3 NOT ADD SLT PUSH2 0x433 JUMPI PUSH1 0x20 PUSH1 0x4 CALLDATALOAD PUSH2 0x4BA DUP2 PUSH2 0x489 JUMP JUMPDEST PUSH4 0xFFFFFFFF PUSH1 0xE0 SHL AND PUSH4 0x152A902D PUSH1 0xE1 SHL DUP2 EQ SWAP1 DUP2 ISZERO PUSH2 0x4E0 JUMPI JUMPDEST POP PUSH1 0x40 MLOAD SWAP1 ISZERO ISZERO DUP2 MSTORE RETURN JUMPDEST PUSH4 0x6CDB3D13 PUSH1 0xE1 SHL DUP2 EQ SWAP2 POP DUP2 ISZERO PUSH2 0x512 JUMPI JUMPDEST DUP2 ISZERO PUSH2 0x501 JUMPI JUMPDEST POP CODESIZE PUSH2 0x4D5 JUMP JUMPDEST PUSH4 0x1FFC9A7 PUSH1 0xE0 SHL EQ SWAP1 POP CODESIZE PUSH2 0x4FA JUMP JUMPDEST PUSH4 0x3A24D07 PUSH1 0xE2 SHL DUP2 EQ SWAP2 POP PUSH2 0x4F3 JUMP JUMPDEST PUSH4 0x4E487B71 PUSH1 0xE0 SHL PUSH1 0x0 MSTORE PUSH1 0x41 PUSH1 0x4 MSTORE PUSH1 0x24 PUSH1 0x0 REVERT JUMPDEST PUSH1 0xC0 DUP2 ADD SWAP1 DUP2 LT PUSH1 0x1 PUSH1 0x1 PUSH1 0x40 SHL SUB DUP3 GT OR PUSH2 0x554 JUMPI PUSH1 0x40 MSTORE JUMP JUMPDEST PUSH2 0x523 JUMP JUMPDEST PUSH1 0x40 DUP2 ADD SWAP1 DUP2 LT PUSH1 0x1 PUSH1 0x1 PUSH1 0x40 SHL SUB DUP3 GT OR PUSH2 0x554 JUMPI PUSH1 0x40 MSTORE JUMP JUMPDEST PUSH1 0x60 DUP2 ADD SWAP1 DUP2 LT PUSH1 0x1 PUSH1 0x1 PUSH1 0x40 SHL SUB DUP3 GT OR PUSH2 0x554 JUMPI PUSH1 0x40 MSTORE JUMP JUMPDEST SWAP1 PUSH1 0x1F DUP1 NOT SWAP2 ADD AND DUP2 ADD SWAP1 DUP2 LT PUSH1 0x1 PUSH1 0x1 PUSH1 0x40 SHL SUB DUP3 GT OR PUSH2 0x554 JUMPI PUSH1 0x40 MSTORE JUMP JUMPDEST PUSH1 0x40 MLOAD SWAP1 PUSH2 0x160 DUP3 ADD DUP3 DUP2 LT PUSH1 0x1 PUSH1 0x1 PUSH1 0x40 SHL SUB DUP3 GT OR PUSH2 0x554 JUMPI PUSH1 0x40 MSTORE JUMP JUMPDEST PUSH1 0x1 PUSH1 0x1 PUSH1 0x40 SHL SUB DUP2 GT PUSH2 0x554 JUMPI PUSH1 0x1F ADD PUSH1 0x1F NOT AND PUSH1 0x20 ADD SWAP1 JUMP JUMPDEST DUP2 PUSH1 0x1F DUP3 ADD SLT ISZERO PUSH2 0x433 JUMPI DUP1 CALLDATALOAD SWAP1 PUSH2 0x602 DUP3 PUSH2 0x5D0 JUMP JUMPDEST SWAP3 PUSH2 0x610 PUSH1 0x40 MLOAD SWAP5 DUP6 PUSH2 0x58F JUMP JUMPDEST DUP3 DUP5 MSTORE PUSH1 0x20 DUP4 DUP4 ADD ADD GT PUSH2 0x433 JUMPI DUP2 PUSH1 0x0 SWAP3 PUSH1 0x20 DUP1 SWAP4 ADD DUP4 DUP7 ADD CALLDATACOPY DUP4 ADD ADD MSTORE SWAP1 JUMP JUMPDEST CALLVALUE PUSH2 0x433 JUMPI PUSH1 0x20 DUP1 PUSH1 0x3 NOT CALLDATASIZE ADD SLT PUSH2 0x433 JUMPI PUSH1 0x1 PUSH1 0x1 PUSH1 0x40 SHL SUB PUSH1 0x4 CALLDATALOAD DUP2 DUP2 GT PUSH2 0x433 JUMPI PUSH2 0x664 SWAP1 CALLDATASIZE SWAP1 PUSH1 0x4 ADD PUSH2 0x5EB JUMP JUMPDEST SWAP2 PUSH2 0x66D PUSH2 0x4055 JUMP JUMPDEST DUP3 MLOAD SWAP2 DUP3 GT PUSH2 0x554 JUMPI PUSH2 0x68A DUP3 PUSH2 0x685 PUSH1 0x2 SLOAD PUSH2 0x795 JUMP JUMPDEST PUSH2 0x38BC JUMP JUMPDEST PUSH1 0x20 SWAP1 PUSH1 0x1F DUP4 GT PUSH1 0x1 EQ PUSH2 0x6CC JUMPI POP DUP2 SWAP1 PUSH2 0x6BC SWAP4 PUSH1 0x0 SWAP3 PUSH2 0x6C1 JUMPI JUMPDEST POP POP DUP2 PUSH1 0x1 SHL SWAP2 PUSH1 0x0 NOT SWAP1 PUSH1 0x3 SHL SHR NOT AND OR SWAP1 JUMP JUMPDEST PUSH1 0x2 SSTORE STOP JUMPDEST ADD MLOAD SWAP1 POP CODESIZE DUP1 PUSH2 0x6A7 JUMP JUMPDEST SWAP1 PUSH1 0x1F NOT DUP4 AND SWAP4 PUSH2 0x6FF PUSH1 0x2 PUSH1 0x0 MSTORE PUSH32 0x405787FA12A823E0F2B7631CC41B3BA8828B3321CA811111FA75CD3AA3BB5ACE SWAP1 JUMP JUMPDEST SWAP3 PUSH1 0x0 SWAP1 JUMPDEST DUP7 DUP3 LT PUSH2 0x73B JUMPI POP POP DUP4 PUSH1 0x1 SWAP6 LT PUSH2 0x722 JUMPI JUMPDEST POP POP POP DUP2 SHL ADD PUSH1 0x2 SSTORE STOP JUMPDEST ADD MLOAD PUSH1 0x0 NOT PUSH1 0xF8 DUP5 PUSH1 0x3 SHL AND SHR NOT AND SWAP1 SSTORE CODESIZE DUP1 DUP1 PUSH2 0x717 JUMP JUMPDEST DUP1 PUSH1 0x1 DUP6 SWAP7 DUP3 SWAP5 SWAP7 DUP7 ADD MLOAD DUP2 SSTORE ADD SWAP6 ADD SWAP4 ADD SWAP1 PUSH2 0x704 JUMP JUMPDEST CALLVALUE PUSH2 0x433 JUMPI PUSH1 0x20 CALLDATASIZE PUSH1 0x3 NOT ADD SLT PUSH2 0x433 JUMPI PUSH1 0x4 CALLDATALOAD PUSH2 0x770 DUP2 PUSH2 0x422 JUMP JUMPDEST PUSH1 0x1 DUP1 PUSH1 0xA0 SHL SUB AND PUSH1 0x0 MSTORE PUSH1 0x10 PUSH1 0x20 MSTORE PUSH1 0x20 PUSH1 0xFF PUSH1 0x40 PUSH1 0x0 KECCAK256 SLOAD AND PUSH1 0x40 MLOAD SWAP1 ISZERO ISZERO DUP2 MSTORE RETURN JUMPDEST SWAP1 PUSH1 0x1 DUP3 DUP2 SHR SWAP3 AND DUP1 ISZERO PUSH2 0x7C5 JUMPI JUMPDEST PUSH1 0x20 DUP4 LT EQ PUSH2 0x7AF JUMPI JUMP JUMPDEST PUSH4 0x4E487B71 PUSH1 0xE0 SHL PUSH1 0x0 MSTORE PUSH1 0x22 PUSH1 0x4 MSTORE PUSH1 0x24 PUSH1 0x0 REVERT JUMPDEST SWAP2 PUSH1 0x7F AND SWAP2 PUSH2 0x7A4 JUMP JUMPDEST PUSH1 0x40 MLOAD SWAP1 PUSH1 0x0 DUP3 PUSH1 0x2 SLOAD SWAP2 PUSH2 0x7E3 DUP4 PUSH2 0x795 JUMP JUMPDEST DUP1 DUP4 MSTORE SWAP3 PUSH1 0x20 SWAP1 PUSH1 0x1 SWAP1 DUP2 DUP2 AND SWAP1 DUP2 ISZERO PUSH2 0x871 JUMPI POP PUSH1 0x1 EQ PUSH2 0x810 JUMPI JUMPDEST POP POP PUSH2 0x80E SWAP3 POP SUB DUP4 PUSH2 0x58F JUMP JUMPDEST JUMP JUMPDEST SWAP2 POP SWAP3 PUSH1 0x2 PUSH1 0x0 MSTORE PUSH32 0x405787FA12A823E0F2B7631CC41B3BA8828B3321CA811111FA75CD3AA3BB5ACE SWAP4 PUSH1 0x0 SWAP3 JUMPDEST DUP3 DUP5 LT PUSH2 0x859 JUMPI POP PUSH2 0x80E SWAP5 POP POP POP DUP2 ADD PUSH1 0x20 ADD CODESIZE DUP1 PUSH2 0x800 JUMP JUMPDEST DUP6 SLOAD DUP9 DUP6 ADD DUP4 ADD MSTORE SWAP5 DUP6 ADD SWAP5 DUP8 SWAP5 POP SWAP3 DUP2 ADD SWAP3 PUSH2 0x83E JUMP JUMPDEST SWAP2 POP POP PUSH1 0x20 SWAP3 POP PUSH2 0x80E SWAP5 SWAP2 POP PUSH1 0xFF NOT AND DUP3 DUP5 ADD MSTORE ISZERO ISZERO PUSH1 0x5 SHL DUP3 ADD ADD CODESIZE DUP1 PUSH2 0x800 JUMP JUMPDEST SWAP1 PUSH1 0x40 MLOAD SWAP2 DUP3 PUSH1 0x0 DUP3 SLOAD PUSH2 0x8A8 DUP2 PUSH2 0x795 JUMP JUMPDEST SWAP1 DUP2 DUP5 MSTORE PUSH1 0x20 SWAP5 PUSH1 0x1 SWAP2 PUSH1 0x1 DUP2 AND SWAP1 DUP2 PUSH1 0x0 EQ PUSH2 0x916 JUMPI POP PUSH1 0x1 EQ PUSH2 0x8D7 JUMPI JUMPDEST POP POP POP PUSH2 0x80E SWAP3 POP SUB DUP4 PUSH2 0x58F JUMP JUMPDEST PUSH1 0x0 SWAP1 DUP2 MSTORE DUP6 DUP2 KECCAK256 SWAP6 SWAP4 POP SWAP2 SWAP1 JUMPDEST DUP2 DUP4 LT PUSH2 0x8FE JUMPI POP POP PUSH2 0x80E SWAP4 POP DUP3 ADD ADD CODESIZE DUP1 DUP1 PUSH2 0x8C8 JUMP JUMPDEST DUP6 SLOAD DUP9 DUP5 ADD DUP6 ADD MSTORE SWAP5 DUP6 ADD SWAP5 DUP8 SWAP5 POP SWAP2 DUP4 ADD SWAP2 PUSH2 0x8E5 JUMP JUMPDEST SWAP3 POP POP POP PUSH2 0x80E SWAP5 SWAP3 POP PUSH1 0xFF NOT AND DUP3 DUP5 ADD MSTORE ISZERO ISZERO PUSH1 0x5 SHL DUP3 ADD ADD CODESIZE DUP1 DUP1 PUSH2 0x8C8 JUMP JUMPDEST PUSH1 0x0 JUMPDEST DUP4 DUP2 LT PUSH2 0x94B JUMPI POP POP PUSH1 0x0 SWAP2 ADD MSTORE JUMP JUMPDEST DUP2 DUP2 ADD MLOAD DUP4 DUP3 ADD MSTORE PUSH1 0x20 ADD PUSH2 0x93B JUMP JUMPDEST SWAP1 PUSH1 0x20 SWAP2 PUSH2 0x974 DUP2 MLOAD DUP1 SWAP3 DUP2 DUP6 MSTORE DUP6 DUP1 DUP7 ADD SWAP2 ADD PUSH2 0x938 JUMP JUMPDEST PUSH1 0x1F ADD PUSH1 0x1F NOT AND ADD ADD SWAP1 JUMP JUMPDEST SWAP1 PUSH1 0x20 PUSH2 0x991 SWAP3 DUP2 DUP2 MSTORE ADD SWAP1 PUSH2 0x95B JUMP JUMPDEST SWAP1 JUMP JUMPDEST CALLVALUE PUSH2 0x433 JUMPI PUSH1 0x0 DUP1 PUSH1 0x3 NOT CALLDATASIZE ADD SLT PUSH2 0xA7A JUMPI PUSH1 0x40 MLOAD SWAP1 DUP1 PUSH1 0x8 SLOAD SWAP1 PUSH2 0x9B8 DUP3 PUSH2 0x795 JUMP JUMPDEST DUP1 DUP6 MSTORE SWAP2 PUSH1 0x20 SWAP2 PUSH1 0x1 SWAP2 DUP3 DUP2 AND SWAP1 DUP2 ISZERO PUSH2 0xA4D JUMPI POP PUSH1 0x1 EQ PUSH2 0x9F5 JUMPI JUMPDEST PUSH2 0x9F1 DUP7 PUSH2 0x9E5 DUP2 DUP9 SUB DUP3 PUSH2 0x58F JUMP JUMPDEST PUSH1 0x40 MLOAD SWAP2 DUP3 SWAP2 DUP3 PUSH2 0x980 JUMP JUMPDEST SUB SWAP1 RETURN JUMPDEST SWAP4 POP PUSH1 0x8 DUP5 MSTORE PUSH32 0xF3F7A9FE364FAAB93B216DA50A3214154F22A0A2B415B23A84C8169E8B636EE3 JUMPDEST DUP4 DUP6 LT PUSH2 0xA3A JUMPI POP POP POP POP DUP2 ADD PUSH1 0x20 ADD PUSH2 0x9E5 DUP3 PUSH2 0x9F1 CODESIZE PUSH2 0x9D5 JUMP JUMPDEST DUP1 SLOAD DUP7 DUP7 ADD DUP5 ADD MSTORE SWAP4 DUP3 ADD SWAP4 DUP2 ADD PUSH2 0xA1D JUMP JUMPDEST SWAP1 POP DUP7 SWAP6 POP PUSH2 0x9F1 SWAP7 SWAP4 POP PUSH1 0x20 SWAP3 POP PUSH2 0x9E5 SWAP5 SWAP2 POP PUSH1 0xFF NOT AND DUP3 DUP5 ADD MSTORE ISZERO ISZERO PUSH1 0x5 SHL DUP3 ADD ADD SWAP3 SWAP4 CODESIZE PUSH2 0x9D5 JUMP JUMPDEST DUP1 REVERT JUMPDEST CALLVALUE PUSH2 0x433 JUMPI PUSH1 0x20 CALLDATASIZE PUSH1 0x3 NOT ADD SLT PUSH2 0x433 JUMPI PUSH2 0x9F1 PUSH2 0xA9C PUSH1 0x4 CALLDATALOAD PUSH2 0x2FA5 JUMP JUMPDEST PUSH1 0x40 MLOAD SWAP2 DUP3 SWAP2 PUSH1 0x20 DUP4 MSTORE PUSH1 0x20 DUP4 ADD SWAP1 PUSH2 0x95B JUMP JUMPDEST CALLVALUE PUSH2 0x433 JUMPI PUSH1 0x20 CALLDATASIZE PUSH1 0x3 NOT ADD SLT PUSH2 0x433 JUMPI PUSH1 0x4 CALLDATALOAD PUSH2 0xACC PUSH2 0x4055 JUMP JUMPDEST PUSH2 0x3E8 DUP2 GT PUSH2 0xB12 JUMPI PUSH1 0xA DUP1 SLOAD SWAP1 DUP3 SWAP1 SSTORE PUSH1 0x40 DUP1 MLOAD SWAP2 DUP3 MSTORE PUSH1 0x20 DUP3 ADD SWAP3 SWAP1 SWAP3 MSTORE PUSH32 0xD347E206F25A89B917FC9482F1A2D294D749BAA4DC9BDE7FB495EE11FE491643 SWAP2 SWAP1 LOG1 STOP JUMPDEST PUSH1 0x40 MLOAD PUSH3 0x461BCD PUSH1 0xE5 SHL DUP2 MSTORE PUSH1 0x20 PUSH1 0x4 DUP3 ADD MSTORE PUSH1 0xC PUSH1 0x24 DUP3 ADD MSTORE PUSH12 0x8CCACA40E8DEDE40D0D2CED PUSH1 0xA3 SHL PUSH1 0x44 DUP3 ADD MSTORE PUSH1 0x64 SWAP1 REVERT JUMPDEST CALLVALUE PUSH2 0x433 JUMPI PUSH1 0x40 CALLDATASIZE PUSH1 0x3 NOT ADD SLT PUSH2 0x433 JUMPI PUSH1 0x24 CALLDATALOAD PUSH1 0x4 CALLDATALOAD PUSH2 0xB65 PUSH2 0x4055 JUMP JUMPDEST DUP2 DUP2 ADD DUP1 DUP3 GT PUSH2 0xBC4 JUMPI PUSH2 0x7D0 LT PUSH2 0xB7F JUMPI PUSH1 0xB SSTORE PUSH1 0xC SSTORE STOP JUMPDEST PUSH1 0x40 MLOAD PUSH3 0x461BCD PUSH1 0xE5 SHL DUP2 MSTORE PUSH1 0x20 PUSH1 0x4 DUP3 ADD MSTORE PUSH1 0x1C PUSH1 0x24 DUP3 ADD MSTORE PUSH32 0x546F74616C20666565732063616E6E6F74206578636565642032302500000000 PUSH1 0x44 DUP3 ADD MSTORE PUSH1 0x64 SWAP1 REVERT JUMPDEST PUSH2 0x308A JUMP JUMPDEST SWAP7 SWAP4 SWAP1 PUSH2 0x120 SWAP9 SWAP6 SWAP12 SWAP11 SWAP10 SWAP7 SWAP4 PUSH2 0xBFD PUSH2 0xC19 SWAP5 PUSH2 0xC0B SWAP4 PUSH2 0x140 SWAP1 PUSH1 0x1 DUP1 PUSH1 0xA0 SHL SUB AND DUP13 MSTORE DUP1 PUSH1 0x20 DUP14 ADD MSTORE DUP12 ADD SWAP1 PUSH2 0x95B JUMP JUMPDEST SWAP1 DUP10 DUP3 SUB PUSH1 0x40 DUP12 ADD MSTORE PUSH2 0x95B JUMP JUMPDEST SWAP1 DUP8 DUP3 SUB PUSH1 0x60 DUP10 ADD MSTORE PUSH2 0x95B JUMP JUMPDEST SWAP9 PUSH1 0x80 DUP7 ADD MSTORE PUSH1 0xA0 DUP6 ADD MSTORE PUSH1 0xC0 DUP5 ADD MSTORE PUSH1 0xE0 DUP4 ADD MSTORE ISZERO ISZERO PUSH2 0x100 DUP3 ADD MSTORE ADD MSTORE JUMP JUMPDEST CALLVALUE PUSH2 0x433 JUMPI PUSH1 0x20 CALLDATASIZE PUSH1 0x3 NOT ADD SLT PUSH2 0x433 JUMPI PUSH1 0x4 CALLDATALOAD PUSH1 0xD SLOAD DUP2 GT ISZERO DUP1 PUSH2 0xD6C JUMPI JUMPDEST PUSH2 0xC63 SWAP1 PUSH2 0x310F JUMP JUMPDEST PUSH1 0x0 MSTORE PUSH1 0x16 PUSH1 0x20 MSTORE PUSH1 0x40 PUSH1 0x0 KECCAK256 PUSH2 0xC78 PUSH2 0x5B0 JUMP JUMPDEST DUP2 SLOAD DUP2 MSTORE PUSH1 0x1 DUP3 ADD SLOAD PUSH1 0x1 PUSH1 0x1 PUSH1 0xA0 SHL SUB AND PUSH1 0x20 DUP3 ADD SWAP1 DUP2 MSTORE SWAP1 SWAP2 SWAP1 PUSH2 0x9F1 SWAP1 PUSH2 0x140 SWAP1 PUSH2 0xCA8 PUSH1 0x2 DUP6 ADD PUSH2 0x895 JUMP JUMPDEST SWAP4 PUSH1 0x40 DUP7 ADD SWAP5 DUP6 MSTORE PUSH2 0xCBC PUSH1 0x3 DUP3 ADD PUSH2 0x895 JUMP JUMPDEST SWAP6 PUSH1 0x60 DUP2 ADD SWAP7 DUP8 MSTORE PUSH2 0xCD0 PUSH1 0x4 DUP4 ADD PUSH2 0x153D JUMP JUMPDEST SWAP3 PUSH1 0x80 DUP3 ADD SWAP4 DUP5 MSTORE PUSH2 0xCE4 PUSH1 0x5 DUP5 ADD PUSH2 0x895 JUMP JUMPDEST SWAP4 PUSH1 0xA0 DUP4 ADD SWAP5 DUP6 MSTORE PUSH1 0x6 DUP5 ADD SLOAD SWAP1 PUSH1 0xC0 DUP5 ADD SWAP2 DUP3 MSTORE PUSH2 0xD5F PUSH2 0xD49 PUSH1 0x7 DUP8 ADD SLOAD SWAP5 PUSH1 0xE0 DUP8 ADD SWAP6 DUP7 MSTORE PUSH1 0x8 DUP9 ADD SLOAD SWAP7 PUSH2 0x100 DUP2 ADD SWAP8 DUP9 MSTORE PUSH1 0xA PUSH2 0xD2A PUSH1 0x9 DUP12 ADD SLOAD PUSH1 0xFF AND SWAP1 JUMP JUMPDEST ISZERO ISZERO PUSH2 0x120 DUP4 ADD SWAP1 DUP2 MSTORE SWAP10 ADD SLOAD SWAP11 ADD DUP11 SWAP1 MSTORE MLOAD PUSH1 0x1 PUSH1 0x1 PUSH1 0xA0 SHL SUB AND SWAP1 JUMP JUMPDEST SWAP10 MLOAD SWAP11 MLOAD SWAP7 MLOAD SWAP2 MLOAD MLOAD SWAP3 MLOAD SWAP4 MLOAD SWAP5 MLOAD SWAP6 MLOAD ISZERO ISZERO SWAP1 JUMP JUMPDEST SWAP6 PUSH1 0x40 MLOAD SWAP11 DUP12 SWAP11 DUP12 PUSH2 0xBC9 JUMP JUMPDEST POP DUP1 ISZERO ISZERO PUSH2 0xC5A JUMP JUMPDEST SWAP5 SWAP2 SWAP3 PUSH2 0xDA4 PUSH1 0xA0 SWAP6 SWAP9 SWAP8 SWAP5 PUSH2 0xD96 PUSH2 0xDB2 SWAP5 PUSH1 0xC0 DUP11 MSTORE PUSH1 0xC0 DUP11 ADD SWAP1 PUSH2 0x95B JUMP JUMPDEST SWAP1 DUP9 DUP3 SUB PUSH1 0x20 DUP11 ADD MSTORE PUSH2 0x95B JUMP JUMPDEST SWAP1 DUP7 DUP3 SUB PUSH1 0x40 DUP9 ADD MSTORE PUSH2 0x95B JUMP JUMPDEST SWAP6 PUSH1 0x60 DUP6 ADD MSTORE PUSH1 0x80 DUP5 ADD MSTORE ISZERO ISZERO SWAP2 ADD MSTORE JUMP JUMPDEST CALLVALUE PUSH2 0x433 JUMPI PUSH1 0x20 CALLDATASIZE PUSH1 0x3 NOT ADD SLT PUSH2 0x433 JUMPI PUSH1 0x4 CALLDATALOAD PUSH2 0xDE1 DUP2 PUSH2 0x422 JUMP JUMPDEST PUSH1 0x1 PUSH1 0x1 PUSH1 0xA0 SHL SUB AND PUSH1 0x0 SWAP1 DUP2 MSTORE PUSH1 0x15 PUSH1 0x20 MSTORE PUSH1 0x40 SWAP1 KECCAK256 PUSH2 0xE01 DUP2 PUSH2 0x895 JUMP JUMPDEST PUSH2 0x9F1 PUSH2 0xE10 PUSH1 0x1 DUP5 ADD PUSH2 0x895 JUMP JUMPDEST SWAP3 PUSH2 0xE1D PUSH1 0x2 DUP3 ADD PUSH2 0x895 JUMP JUMPDEST SWAP1 PUSH1 0x3 DUP2 ADD SLOAD PUSH1 0xFF PUSH1 0x5 PUSH1 0x4 DUP5 ADD SLOAD SWAP4 ADD SLOAD AND SWAP3 PUSH1 0x40 MLOAD SWAP7 DUP8 SWAP7 DUP8 PUSH2 0xD75 JUMP JUMPDEST CALLVALUE PUSH2 0x433 JUMPI PUSH1 0x20 CALLDATASIZE PUSH1 0x3 NOT ADD SLT PUSH2 0x433 JUMPI PUSH1 0x4 CALLDATALOAD PUSH2 0xE5A DUP2 PUSH2 0x422 JUMP JUMPDEST PUSH1 0x0 SWAP1 CALLER DUP3 MSTORE PUSH1 0x11 PUSH1 0x20 MSTORE PUSH1 0xFF PUSH1 0x40 DUP4 KECCAK256 SLOAD AND DUP1 ISZERO PUSH2 0xFC2 JUMPI JUMPDEST PUSH2 0xE7D SWAP1 PUSH2 0x314E JUMP JUMPDEST PUSH1 0x1 PUSH1 0x1 PUSH1 0xA0 SHL SUB DUP2 AND PUSH1 0x0 SWAP1 DUP2 MSTORE PUSH1 0x11 PUSH1 0x20 MSTORE PUSH1 0x40 SWAP1 KECCAK256 PUSH2 0xEAA SWAP1 PUSH2 0xEA5 SWAP1 JUMPDEST SLOAD PUSH1 0xFF AND SWAP1 JUMP JUMPDEST PUSH2 0x314E JUMP JUMPDEST PUSH1 0x5 SLOAD PUSH1 0x1 PUSH1 0x1 PUSH1 0xA0 SHL SUB DUP3 DUP2 AND SWAP3 PUSH2 0xEFE SWAP3 PUSH2 0xEF4 SWAP3 PUSH2 0xECE SWAP2 AND DUP6 EQ ISZERO PUSH2 0x3189 JUMP JUMPDEST PUSH2 0xEDA CALLER DUP6 EQ ISZERO PUSH2 0x31D5 JUMP JUMPDEST PUSH1 0x1 PUSH1 0x1 PUSH1 0xA0 SHL SUB AND PUSH1 0x0 SWAP1 DUP2 MSTORE PUSH1 0x11 PUSH1 0x20 MSTORE PUSH1 0x40 SWAP1 KECCAK256 SWAP1 JUMP JUMPDEST DUP1 SLOAD PUSH1 0xFF NOT AND SWAP1 SSTORE JUMP JUMPDEST DUP2 JUMPDEST PUSH1 0x14 SLOAD SWAP1 DUP2 DUP2 LT ISZERO PUSH2 0xFBB JUMPI DUP3 PUSH2 0xF3D PUSH2 0xF31 PUSH2 0xF1C DUP5 PUSH2 0x18A9 JUMP JUMPDEST SWAP1 SLOAD PUSH1 0x3 SWAP2 SWAP1 SWAP2 SHL SHR PUSH1 0x1 PUSH1 0x1 PUSH1 0xA0 SHL SUB AND SWAP1 JUMP JUMPDEST PUSH1 0x1 PUSH1 0x1 PUSH1 0xA0 SHL SUB AND SWAP1 JUMP JUMPDEST EQ PUSH2 0xF4C JUMPI PUSH1 0x1 SWAP2 POP ADD PUSH2 0xF00 JUMP JUMPDEST PUSH2 0xF6C PUSH2 0xF66 PUSH2 0xF1C PUSH2 0xF61 PUSH2 0xF8A SWAP6 PUSH2 0x322B JUMP JUMPDEST PUSH2 0x18A9 JUMP JUMPDEST SWAP2 PUSH2 0x18A9 JUMP JUMPDEST SWAP1 SWAP2 SWAP1 PUSH1 0x1 DUP1 PUSH1 0xA0 SHL SUB DUP1 DUP5 SLOAD SWAP3 PUSH1 0x3 SHL SWAP4 AND DUP4 SHL SWAP3 SHL NOT AND OR SWAP1 SSTORE JUMP JUMPDEST PUSH2 0xF92 PUSH2 0x3256 JUMP JUMPDEST CALLER SWAP1 PUSH32 0xDB9D5D31320DAF5BC7181D565B6DA4D12E30F0F4D5AA324A992426C14A1D19CE DUP4 DUP1 LOG3 DUP1 RETURN JUMPDEST POP POP PUSH2 0xF92 JUMP JUMPDEST POP PUSH1 0x5 SLOAD PUSH1 0x1 PUSH1 0x1 PUSH1 0xA0 SHL SUB AND CALLER EQ PUSH2 0xE74 JUMP JUMPDEST CALLVALUE PUSH2 0x433 JUMPI PUSH1 0x0 CALLDATASIZE PUSH1 0x3 NOT ADD SLT PUSH2 0x433 JUMPI PUSH1 0x20 PUSH1 0x4 SLOAD PUSH1 0x40 MLOAD SWAP1 DUP2 MSTORE RETURN JUMPDEST CALLVALUE PUSH2 0x433 JUMPI PUSH1 0x0 CALLDATASIZE PUSH1 0x3 NOT ADD SLT PUSH2 0x433 JUMPI PUSH1 0x20 PUSH1 0xFF PUSH1 0xE SLOAD AND PUSH1 0x40 MLOAD SWAP1 ISZERO ISZERO DUP2 MSTORE RETURN JUMPDEST CALLVALUE PUSH2 0x433 JUMPI PUSH1 0x20 CALLDATASIZE PUSH1 0x3 NOT ADD SLT PUSH2 0x433 JUMPI PUSH1 0x4 CALLDATALOAD PUSH2 0x1034 DUP2 PUSH2 0x422 JUMP JUMPDEST PUSH1 0x1 DUP1 PUSH1 0xA0 SHL SUB AND PUSH1 0x0 MSTORE PUSH1 0x11 PUSH1 0x20 MSTORE PUSH1 0x20 PUSH1 0xFF PUSH1 0x40 PUSH1 0x0 KECCAK256 SLOAD AND PUSH1 0x40 MLOAD SWAP1 ISZERO ISZERO DUP2 MSTORE RETURN JUMPDEST CALLVALUE PUSH2 0x433 JUMPI PUSH1 0x40 CALLDATASIZE PUSH1 0x3 NOT ADD SLT PUSH2 0x433 JUMPI PUSH1 0x4 CALLDATALOAD PUSH1 0xD SLOAD DUP2 GT ISZERO DUP1 PUSH2 0x118D JUMPI JUMPDEST PUSH2 0x1082 SWAP1 PUSH2 0x310F JUMP JUMPDEST PUSH1 0x0 MSTORE PUSH1 0x16 PUSH1 0x20 MSTORE PUSH1 0x40 PUSH1 0x0 KECCAK256 PUSH2 0x1097 PUSH2 0x5B0 JUMP JUMPDEST DUP2 SLOAD DUP2 MSTORE PUSH1 0x1 DUP3 ADD SLOAD PUSH1 0x1 PUSH1 0x1 PUSH1 0xA0 SHL SUB AND PUSH1 0x20 DUP3 ADD SWAP1 DUP2 MSTORE SWAP2 PUSH2 0x140 SWAP1 PUSH1 0xA SWAP1 PUSH2 0x10C4 PUSH1 0x2 DUP3 ADD PUSH2 0x895 JUMP JUMPDEST PUSH1 0x40 DUP6 ADD MSTORE PUSH2 0x10D5 PUSH1 0x3 DUP3 ADD PUSH2 0x895 JUMP JUMPDEST PUSH1 0x60 DUP6 ADD MSTORE PUSH2 0x10E6 PUSH1 0x4 DUP3 ADD PUSH2 0x153D JUMP JUMPDEST PUSH1 0x80 DUP6 ADD MSTORE PUSH2 0x10F7 PUSH1 0x5 DUP3 ADD PUSH2 0x895 JUMP JUMPDEST PUSH1 0xA0 DUP6 ADD MSTORE PUSH1 0x6 DUP2 ADD SLOAD PUSH1 0xC0 DUP6 ADD MSTORE PUSH1 0x7 DUP2 ADD SLOAD PUSH1 0xE0 DUP6 ADD MSTORE PUSH1 0x8 DUP2 ADD SLOAD PUSH2 0x100 DUP6 ADD MSTORE PUSH2 0x1136 PUSH2 0x112C PUSH1 0x9 DUP4 ADD SLOAD PUSH1 0xFF AND SWAP1 JUMP JUMPDEST ISZERO ISZERO PUSH2 0x120 DUP7 ADD MSTORE JUMP JUMPDEST ADD SLOAD SWAP2 ADD MSTORE PUSH2 0x1171 PUSH2 0x1163 PUSH2 0x115B PUSH2 0x1153 PUSH1 0xB SLOAD PUSH1 0xC SLOAD SWAP1 PUSH2 0x3102 JUMP JUMPDEST PUSH1 0x24 CALLDATALOAD PUSH2 0x3359 JUMP JUMPDEST PUSH2 0x2710 SWAP1 DIV SWAP1 JUMP JUMPDEST SWAP2 MLOAD PUSH1 0x1 PUSH1 0x1 PUSH1 0xA0 SHL SUB AND SWAP1 JUMP JUMPDEST PUSH1 0x40 DUP1 MLOAD PUSH1 0x1 PUSH1 0x1 PUSH1 0xA0 SHL SUB SWAP3 SWAP1 SWAP3 AND DUP3 MSTORE PUSH1 0x20 DUP3 ADD SWAP3 SWAP1 SWAP3 MSTORE RETURN JUMPDEST POP DUP1 ISZERO ISZERO PUSH2 0x1079 JUMP JUMPDEST PUSH1 0x1 PUSH1 0x1 PUSH1 0x40 SHL SUB DUP2 GT PUSH2 0x554 JUMPI PUSH1 0x5 SHL PUSH1 0x20 ADD SWAP1 JUMP JUMPDEST SWAP1 DUP1 PUSH1 0x1F DUP4 ADD SLT ISZERO PUSH2 0x433 JUMPI PUSH1 0x20 SWAP1 DUP3 CALLDATALOAD PUSH2 0x11C7 DUP2 PUSH2 0x1196 JUMP JUMPDEST SWAP4 PUSH2 0x11D5 PUSH1 0x40 MLOAD SWAP6 DUP7 PUSH2 0x58F JUMP JUMPDEST DUP2 DUP6 MSTORE PUSH1 0x20 DUP1 DUP7 ADD SWAP3 PUSH1 0x5 SHL DUP3 ADD ADD SWAP3 DUP4 GT PUSH2 0x433 JUMPI PUSH1 0x20 ADD SWAP1 JUMPDEST DUP3 DUP3 LT PUSH2 0x11FE JUMPI POP POP POP POP SWAP1 JUMP JUMPDEST DUP2 CALLDATALOAD DUP2 MSTORE SWAP1 DUP4 ADD SWAP1 DUP4 ADD PUSH2 0x11F0 JUMP JUMPDEST CALLVALUE PUSH2 0x433 JUMPI PUSH1 0xA0 CALLDATASIZE PUSH1 0x3 NOT ADD SLT PUSH2 0x433 JUMPI PUSH1 0x4 DUP1 CALLDATALOAD PUSH2 0x122B DUP2 PUSH2 0x422 JUMP JUMPDEST PUSH1 0x24 CALLDATALOAD PUSH2 0x1237 DUP2 PUSH2 0x422 JUMP JUMPDEST PUSH1 0x1 PUSH1 0x1 PUSH1 0x40 SHL SUB SWAP1 PUSH1 0x44 CALLDATALOAD DUP3 DUP2 GT PUSH2 0x433 JUMPI PUSH2 0x1257 SWAP1 CALLDATASIZE SWAP1 DUP7 ADD PUSH2 0x11AD JUMP JUMPDEST SWAP1 PUSH1 0x64 CALLDATALOAD DUP4 DUP2 GT PUSH2 0x433 JUMPI PUSH2 0x126F SWAP1 CALLDATASIZE SWAP1 DUP8 ADD PUSH2 0x11AD JUMP JUMPDEST SWAP3 PUSH1 0x84 CALLDATALOAD SWAP1 DUP2 GT PUSH2 0x433 JUMPI PUSH2 0x1287 SWAP1 CALLDATASIZE SWAP1 DUP8 ADD PUSH2 0x5EB JUMP JUMPDEST SWAP4 PUSH1 0x1 PUSH1 0x1 PUSH1 0xA0 SHL SUB DUP1 DUP3 AND SWAP1 CALLER DUP3 EQ ISZERO DUP1 PUSH2 0x1316 JUMPI JUMPDEST PUSH2 0x12E9 JUMPI DUP4 AND ISZERO PUSH2 0x12D1 JUMPI ISZERO PUSH2 0x12BA JUMPI PUSH2 0x12B8 SWAP6 POP PUSH2 0x4C14 JUMP JUMPDEST STOP JUMPDEST PUSH1 0x40 MLOAD PUSH3 0x6A0D45 PUSH1 0xE2 SHL DUP2 MSTORE PUSH1 0x0 DUP2 DUP9 ADD MSTORE PUSH1 0x24 SWAP1 REVERT JUMPDEST PUSH1 0x40 MLOAD PUSH4 0x2BFA23E7 PUSH1 0xE1 SHL DUP2 MSTORE PUSH1 0x0 DUP2 DUP10 ADD MSTORE PUSH1 0x24 SWAP1 REVERT JUMPDEST PUSH1 0x40 DUP1 MLOAD PUSH4 0x711BEC91 PUSH1 0xE1 SHL DUP2 MSTORE CALLER DUP2 DUP12 ADD SWAP1 DUP2 MSTORE PUSH1 0x1 PUSH1 0x1 PUSH1 0xA0 SHL SUB DUP7 AND PUSH1 0x20 DUP3 ADD MSTORE SWAP1 SWAP2 DUP3 SWAP2 ADD SUB SWAP1 REVERT JUMPDEST POP PUSH1 0x0 DUP3 DUP2 MSTORE PUSH1 0x1 PUSH1 0x20 SWAP1 DUP2 MSTORE PUSH1 0x40 DUP1 DUP4 KECCAK256 CALLER DUP5 MSTORE SWAP1 SWAP2 MSTORE SWAP1 KECCAK256 SLOAD PUSH1 0xFF AND ISZERO PUSH2 0x129E JUMP JUMPDEST CALLVALUE PUSH2 0x433 JUMPI PUSH1 0x20 CALLDATASIZE PUSH1 0x3 NOT ADD SLT PUSH2 0x433 JUMPI PUSH1 0x4 CALLDATALOAD PUSH1 0x0 MSTORE PUSH1 0x17 PUSH1 0x20 MSTORE PUSH1 0x20 PUSH1 0x1 DUP1 PUSH1 0xA0 SHL SUB PUSH1 0x40 PUSH1 0x0 KECCAK256 SLOAD AND PUSH1 0x40 MLOAD SWAP1 DUP2 MSTORE RETURN JUMPDEST CALLVALUE PUSH2 0x433 JUMPI PUSH1 0x0 CALLDATASIZE PUSH1 0x3 NOT ADD SLT PUSH2 0x433 JUMPI PUSH1 0x20 PUSH1 0x40 MLOAD PUSH2 0x3E8 DUP2 MSTORE RETURN JUMPDEST SWAP1 SWAP2 PUSH2 0x13A2 PUSH2 0x991 SWAP4 PUSH1 0x40 DUP5 MSTORE PUSH1 0x40 DUP5 ADD SWAP1 PUSH2 0x95B JUMP JUMPDEST SWAP2 PUSH1 0x20 DUP2 DUP5 SUB SWAP2 ADD MSTORE PUSH2 0x95B JUMP JUMPDEST CALLVALUE PUSH2 0x433 JUMPI PUSH1 0x20 CALLDATASIZE PUSH1 0x3 NOT ADD SLT PUSH2 0x433 JUMPI PUSH1 0x4 CALLDATALOAD PUSH1 0xD SLOAD DUP2 GT ISZERO DUP1 PUSH2 0x14AC JUMPI JUMPDEST PUSH2 0x13D9 SWAP1 PUSH2 0x310F JUMP JUMPDEST PUSH1 0x0 MSTORE PUSH1 0x16 PUSH1 0x20 MSTORE PUSH1 0x40 PUSH1 0x0 KECCAK256 PUSH2 0x13EE PUSH2 0x5B0 JUMP JUMPDEST DUP2 SLOAD DUP2 MSTORE PUSH1 0x1 DUP3 ADD SLOAD PUSH2 0x1415 SWAP1 PUSH1 0x1 PUSH1 0x1 PUSH1 0xA0 SHL SUB AND JUMPDEST PUSH1 0x1 PUSH1 0x1 PUSH1 0xA0 SHL SUB AND PUSH1 0x20 DUP4 ADD MSTORE JUMP JUMPDEST PUSH2 0x1421 PUSH1 0x2 DUP4 ADD PUSH2 0x895 JUMP JUMPDEST PUSH1 0x40 DUP3 ADD MSTORE PUSH2 0x1432 PUSH1 0x3 DUP4 ADD PUSH2 0x895 JUMP JUMPDEST PUSH1 0x60 DUP3 ADD MSTORE PUSH2 0x1443 PUSH1 0x4 DUP4 ADD PUSH2 0x153D JUMP JUMPDEST SWAP1 PUSH1 0x80 DUP2 ADD SWAP2 DUP3 MSTORE PUSH2 0x140 PUSH1 0xA PUSH2 0x145C PUSH1 0x5 DUP7 ADD PUSH2 0x895 JUMP JUMPDEST SWAP5 PUSH1 0xA0 DUP5 ADD SWAP6 DUP7 MSTORE PUSH1 0x6 DUP2 ADD SLOAD PUSH1 0xC0 DUP6 ADD MSTORE PUSH1 0x7 DUP2 ADD SLOAD PUSH1 0xE0 DUP6 ADD MSTORE PUSH1 0x8 DUP2 ADD SLOAD PUSH2 0x100 DUP6 ADD MSTORE PUSH2 0x1494 PUSH2 0x112C PUSH1 0x9 DUP4 ADD SLOAD PUSH1 0xFF AND SWAP1 JUMP JUMPDEST ADD SLOAD SWAP2 ADD MSTORE MLOAD SWAP1 MLOAD SWAP1 PUSH2 0x9F1 PUSH1 0x40 MLOAD SWAP3 DUP4 SWAP3 DUP4 PUSH2 0x138B JUMP JUMPDEST POP DUP1 ISZERO ISZERO PUSH2 0x13D0 JUMP JUMPDEST CALLVALUE PUSH2 0x433 JUMPI PUSH1 0x0 CALLDATASIZE PUSH1 0x3 NOT ADD SLT PUSH2 0x433 JUMPI PUSH2 0x14CE PUSH2 0x4055 JUMP JUMPDEST PUSH1 0x7 SLOAD PUSH1 0xFF DUP2 AND ISZERO PUSH2 0x150D JUMPI PUSH1 0xFF NOT AND PUSH1 0x7 SSTORE PUSH32 0x5DB9EE0A495BF2E6FF9C91A7834C1BA4FDD244A5E8AA4E537BD38AEAE4B073AA PUSH1 0x20 PUSH1 0x40 MLOAD CALLER DUP2 MSTORE LOG1 STOP JUMPDEST PUSH1 0x40 MLOAD PUSH4 0x8DFC202B PUSH1 0xE0 SHL DUP2 MSTORE PUSH1 0x4 SWAP1 REVERT JUMPDEST CALLVALUE PUSH2 0x433 JUMPI PUSH1 0x0 CALLDATASIZE PUSH1 0x3 NOT ADD SLT PUSH2 0x433 JUMPI PUSH1 0x20 PUSH1 0xB SLOAD PUSH1 0x40 MLOAD SWAP1 DUP2 MSTORE RETURN JUMPDEST SWAP1 PUSH1 0x40 MLOAD SWAP2 DUP3 PUSH1 0x0 DUP3 SLOAD PUSH2 0x1550 DUP2 PUSH2 0x795 JUMP JUMPDEST SWAP1 DUP2 DUP5 MSTORE PUSH1 0x20 SWAP5 PUSH1 0x1 SWAP2 PUSH1 0x1 DUP2 AND SWAP1 DUP2 PUSH1 0x0 EQ PUSH2 0x916 JUMPI POP PUSH1 0x1 EQ PUSH2 0x157E JUMPI POP POP POP PUSH2 0x80E SWAP3 POP SUB DUP4 PUSH2 0x58F JUMP JUMPDEST PUSH1 0x0 SWAP1 DUP2 MSTORE DUP6 DUP2 KECCAK256 SWAP6 SWAP4 POP SWAP2 SWAP1 JUMPDEST DUP2 DUP4 LT PUSH2 0x15A5 JUMPI POP POP PUSH2 0x80E SWAP4 POP DUP3 ADD ADD CODESIZE DUP1 DUP1 PUSH2 0x8C8 JUMP JUMPDEST DUP6 SLOAD DUP9 DUP5 ADD DUP6 ADD MSTORE SWAP5 DUP6 ADD SWAP5 DUP8 SWAP5 POP SWAP2 DUP4 ADD SWAP2 PUSH2 0x158C JUMP JUMPDEST SWAP8 SWAP5 SWAP1 PUSH2 0x1626 SWAP5 PUSH2 0x15FC PUSH2 0x140 SWAP12 SWAP9 SWAP6 SWAP10 SWAP15 SWAP14 SWAP13 SWAP10 PUSH2 0x1618 SWAP6 PUSH2 0x160A SWAP5 PUSH1 0x40 DUP15 PUSH2 0x160 SWAP4 DUP5 SWAP4 DUP3 MSTORE PUSH1 0x1 DUP1 PUSH1 0xA0 SHL SUB AND PUSH1 0x20 DUP3 ADD MSTORE ADD MSTORE DUP13 ADD SWAP1 PUSH2 0x95B JUMP JUMPDEST SWAP1 DUP11 DUP3 SUB PUSH1 0x60 DUP13 ADD MSTORE PUSH2 0x95B JUMP JUMPDEST SWAP1 DUP9 DUP3 SUB PUSH1 0x80 DUP11 ADD MSTORE PUSH2 0x95B JUMP JUMPDEST SWAP1 DUP7 DUP3 SUB PUSH1 0xA0 DUP9 ADD MSTORE PUSH2 0x95B JUMP JUMPDEST SWAP8 PUSH1 0xC0 DUP6 ADD MSTORE PUSH1 0xE0 DUP5 ADD MSTORE PUSH2 0x100 DUP4 ADD MSTORE ISZERO ISZERO PUSH2 0x120 DUP3 ADD MSTORE ADD MSTORE JUMP JUMPDEST CALLVALUE PUSH2 0x433 JUMPI PUSH1 0x20 CALLDATASIZE PUSH1 0x3 NOT ADD SLT PUSH2 0x433 JUMPI PUSH1 0x4 CALLDATALOAD PUSH1 0x0 SWAP1 DUP2 MSTORE PUSH1 0x16 PUSH1 0x20 MSTORE PUSH1 0x40 SWAP1 KECCAK256 DUP1 SLOAD PUSH1 0x1 DUP3 ADD SLOAD PUSH1 0x1 PUSH1 0x1 PUSH1 0xA0 SHL SUB AND SWAP2 PUSH2 0x9F1 SWAP1 PUSH2 0x1686 PUSH1 0x2 DUP3 ADD PUSH2 0x895 JUMP JUMPDEST SWAP1 PUSH2 0x1693 PUSH1 0x3 DUP3 ADD PUSH2 0x895 JUMP JUMPDEST PUSH2 0x169F PUSH1 0x4 DUP4 ADD PUSH2 0x153D JUMP JUMPDEST PUSH2 0x16AB PUSH1 0x5 DUP5 ADD PUSH2 0x895 JUMP JUMPDEST PUSH1 0x6 DUP5 ADD SLOAD SWAP1 PUSH1 0x7 DUP6 ADD SLOAD SWAP3 PUSH1 0x8 DUP7 ADD SLOAD SWAP5 PUSH1 0xA PUSH1 0xFF PUSH1 0x9 DUP10 ADD SLOAD AND SWAP8 ADD SLOAD SWAP8 PUSH1 0x40 MLOAD SWAP12 DUP13 SWAP12 DUP13 PUSH2 0x15BD JUMP JUMPDEST CALLVALUE PUSH2 0x433 JUMPI PUSH1 0x20 CALLDATASIZE PUSH1 0x3 NOT ADD SLT PUSH2 0x433 JUMPI PUSH1 0x4 CALLDATALOAD PUSH2 0x16F4 DUP2 PUSH2 0x422 JUMP JUMPDEST PUSH1 0x1 DUP1 PUSH1 0xA0 SHL SUB AND PUSH1 0x0 MSTORE PUSH1 0xF PUSH1 0x20 MSTORE PUSH1 0x20 PUSH1 0xFF PUSH1 0x40 PUSH1 0x0 KECCAK256 SLOAD AND PUSH1 0x40 MLOAD SWAP1 ISZERO ISZERO DUP2 MSTORE RETURN JUMPDEST SWAP1 DUP2 MLOAD DUP1 DUP3 MSTORE PUSH1 0x20 DUP1 DUP1 SWAP4 ADD SWAP4 ADD SWAP2 PUSH1 0x0 JUMPDEST DUP3 DUP2 LT PUSH2 0x1739 JUMPI POP POP POP POP SWAP1 JUMP JUMPDEST DUP4 MLOAD DUP6 MSTORE SWAP4 DUP2 ADD SWAP4 SWAP3 DUP2 ADD SWAP3 PUSH1 0x1 ADD PUSH2 0x172B JUMP JUMPDEST SWAP1 PUSH1 0x20 PUSH2 0x991 SWAP3 DUP2 DUP2 MSTORE ADD SWAP1 PUSH2 0x1719 JUMP JUMPDEST CALLVALUE PUSH2 0x433 JUMPI PUSH1 0x40 CALLDATASIZE PUSH1 0x3 NOT ADD SLT PUSH2 0x433 JUMPI PUSH1 0x4 CALLDATALOAD PUSH1 0x1 PUSH1 0x1 PUSH1 0x40 SHL SUB DUP1 DUP3 GT PUSH2 0x433 JUMPI CALLDATASIZE PUSH1 0x23 DUP4 ADD SLT ISZERO PUSH2 0x433 JUMPI DUP2 PUSH1 0x4 ADD CALLDATALOAD PUSH2 0x179A DUP2 PUSH2 0x1196 JUMP JUMPDEST SWAP3 PUSH2 0x17A8 PUSH1 0x40 MLOAD SWAP5 DUP6 PUSH2 0x58F JUMP JUMPDEST DUP2 DUP5 MSTORE PUSH1 0x20 SWAP2 PUSH1 0x24 PUSH1 0x20 DUP7 ADD SWAP2 PUSH1 0x5 SHL DUP4 ADD ADD SWAP2 CALLDATASIZE DUP4 GT PUSH2 0x433 JUMPI PUSH1 0x24 ADD SWAP1 JUMPDEST DUP3 DUP3 LT PUSH2 0x1801 JUMPI DUP6 PUSH1 0x24 CALLDATALOAD DUP7 DUP2 GT PUSH2 0x433 JUMPI PUSH2 0x9F1 SWAP2 PUSH2 0x17EF PUSH2 0x17F5 SWAP3 CALLDATASIZE SWAP1 PUSH1 0x4 ADD PUSH2 0x11AD JUMP JUMPDEST SWAP1 PUSH2 0x3380 JUMP JUMPDEST PUSH1 0x40 MLOAD SWAP2 DUP3 SWAP2 DUP3 PUSH2 0x174D JUMP JUMPDEST DUP4 DUP1 SWAP2 DUP4 CALLDATALOAD PUSH2 0x180F DUP2 PUSH2 0x422 JUMP JUMPDEST DUP2 MSTORE ADD SWAP2 ADD SWAP1 PUSH2 0x17C8 JUMP JUMPDEST CALLVALUE PUSH2 0x433 JUMPI PUSH1 0x20 CALLDATASIZE PUSH1 0x3 NOT ADD SLT PUSH2 0x433 JUMPI PUSH1 0x4 CALLDATALOAD PUSH1 0x0 MSTORE PUSH1 0x3 PUSH1 0x20 MSTORE PUSH1 0x20 PUSH1 0x40 PUSH1 0x0 KECCAK256 SLOAD ISZERO ISZERO PUSH1 0x40 MLOAD SWAP1 DUP2 MSTORE RETURN JUMPDEST CALLVALUE PUSH2 0x433 JUMPI PUSH1 0x40 CALLDATASIZE PUSH1 0x3 NOT ADD SLT PUSH2 0x433 JUMPI PUSH1 0x4 CALLDATALOAD PUSH1 0x0 SWAP1 DUP1 DUP3 MSTORE PUSH1 0x17 PUSH1 0x20 MSTORE PUSH2 0x187E PUSH1 0x1 DUP1 PUSH1 0xA0 SHL SUB PUSH1 0x40 DUP5 KECCAK256 SLOAD AND CALLER EQ PUSH2 0x343F JUMP JUMPDEST DUP2 MSTORE PUSH1 0x16 PUSH1 0x20 MSTORE PUSH1 0x24 CALLDATALOAD PUSH1 0x6 PUSH1 0x40 DUP4 KECCAK256 ADD SSTORE DUP1 RETURN JUMPDEST PUSH4 0x4E487B71 PUSH1 0xE0 SHL PUSH1 0x0 MSTORE PUSH1 0x32 PUSH1 0x4 MSTORE PUSH1 0x24 PUSH1 0x0 REVERT JUMPDEST PUSH1 0x14 SLOAD DUP2 LT ISZERO PUSH2 0x18CE JUMPI PUSH1 0x14 PUSH1 0x0 MSTORE PUSH1 0x0 DUP1 MLOAD PUSH1 0x20 PUSH2 0x53E3 DUP4 CODECOPY DUP2 MLOAD SWAP2 MSTORE ADD SWAP1 PUSH1 0x0 SWAP1 JUMP JUMPDEST PUSH2 0x1893 JUMP JUMPDEST PUSH1 0x13 SLOAD DUP2 LT ISZERO PUSH2 0x18CE JUMPI PUSH1 0x13 PUSH1 0x0 MSTORE PUSH1 0x0 DUP1 MLOAD PUSH1 0x20 PUSH2 0x53C3 DUP4 CODECOPY DUP2 MLOAD SWAP2 MSTORE ADD SWAP1 PUSH1 0x0 SWAP1 JUMP JUMPDEST DUP1 SLOAD DUP3 LT ISZERO PUSH2 0x18CE JUMPI PUSH1 0x0 MSTORE PUSH1 0x20 PUSH1 0x0 KECCAK256 ADD SWAP1 PUSH1 0x0 SWAP1 JUMP JUMPDEST CALLVALUE PUSH2 0x433 JUMPI PUSH1 0x40 CALLDATASIZE PUSH1 0x3 NOT ADD SLT PUSH2 0x433 JUMPI PUSH1 0x4 CALLDATALOAD PUSH2 0x192D DUP2 PUSH2 0x422 JUMP JUMPDEST PUSH1 0x1 PUSH1 0x1 PUSH1 0xA0 SHL SUB AND PUSH1 0x0 SWAP1 DUP2 MSTORE PUSH1 0x19 PUSH1 0x20 MSTORE PUSH1 0x40 SWAP1 KECCAK256 DUP1 SLOAD PUSH1 0x24 CALLDATALOAD SWAP2 SWAP1 DUP3 LT ISZERO PUSH2 0x433 JUMPI PUSH1 0x20 SWAP2 PUSH2 0x195E SWAP2 PUSH2 0x18F8 JUMP JUMPDEST SWAP1 SLOAD PUSH1 0x40 MLOAD SWAP2 PUSH1 0x3 SHL SHR DUP2 MSTORE RETURN JUMPDEST PUSH1 0x40 CALLDATASIZE PUSH1 0x3 NOT ADD SLT PUSH2 0x433 JUMPI PUSH1 0x24 CALLDATALOAD PUSH1 0x4 CALLDATALOAD PUSH2 0x1986 PUSH2 0x44FE JUMP JUMPDEST PUSH2 0x198E PUSH2 0x451C JUMP JUMPDEST PUSH1 0xFF PUSH1 0xE SLOAD AND PUSH2 0x1C34 JUMPI JUMPDEST PUSH1 0xD SLOAD DUP2 GT ISZERO DUP1 PUSH2 0x1C2B JUMPI JUMPDEST PUSH2 0x19AE SWAP1 PUSH2 0x310F JUMP JUMPDEST PUSH2 0x19C2 DUP2 PUSH1 0x0 MSTORE PUSH1 0x16 PUSH1 0x20 MSTORE PUSH1 0x40 PUSH1 0x0 KECCAK256 SWAP1 JUMP JUMPDEST SWAP2 PUSH2 0x19D9 PUSH2 0x19D4 PUSH1 0x9 DUP6 ADD SLOAD PUSH1 0xFF AND SWAP1 JUMP JUMPDEST PUSH2 0x34BA JUMP JUMPDEST PUSH2 0x19E4 DUP2 ISZERO ISZERO PUSH2 0x34FE JUMP JUMPDEST PUSH1 0x8 DUP4 ADD SWAP2 PUSH2 0x1A03 PUSH2 0x19F7 DUP4 DUP6 SLOAD PUSH2 0x3102 JUMP JUMPDEST PUSH1 0x7 DUP7 ADD SLOAD LT ISZERO PUSH2 0x354A JUMP JUMPDEST PUSH1 0x6 DUP5 ADD SWAP4 PUSH2 0x1A13 DUP4 DUP7 SLOAD PUSH2 0x3359 JUMP JUMPDEST PUSH2 0x1A1F DUP2 CALLVALUE LT ISZERO PUSH2 0x358B JUMP JUMPDEST PUSH2 0x1A4C PUSH2 0x1A31 PUSH2 0x115B PUSH1 0xA SLOAD DUP5 PUSH2 0x3359 JUMP JUMPDEST PUSH2 0x1A47 PUSH2 0x1A40 PUSH2 0x115B DUP6 PUSH2 0x3314 JUMP JUMPDEST SWAP2 DUP5 PUSH2 0x3249 JUMP JUMPDEST PUSH2 0x3249 JUMP JUMPDEST SWAP5 PUSH2 0x1A60 PUSH2 0x1A58 PUSH2 0x35CE JUMP JUMPDEST DUP7 DUP7 CALLER PUSH2 0x453F JUMP JUMPDEST PUSH2 0x1A6B DUP6 DUP3 SLOAD PUSH2 0x3102 JUMP JUMPDEST SWAP1 SSTORE CALLER PUSH1 0x0 SWAP1 DUP2 MSTORE PUSH1 0x15 PUSH1 0x20 MSTORE PUSH1 0x40 SWAP1 KECCAK256 PUSH1 0x4 SWAP1 PUSH1 0x5 DUP2 ADD PUSH2 0x1A95 PUSH2 0x1A91 DUP3 SLOAD PUSH1 0xFF AND SWAP1 JUMP JUMPDEST ISZERO SWAP1 JUMP JUMPDEST PUSH2 0x1C0D JUMPI JUMPDEST POP ADD PUSH2 0x1AA7 DUP6 DUP3 SLOAD PUSH2 0x3102 JUMP JUMPDEST SWAP1 SSTORE PUSH1 0x0 SWAP5 PUSH1 0x0 JUMPDEST CALLER PUSH1 0x0 SWAP1 DUP2 MSTORE PUSH1 0x19 PUSH1 0x20 MSTORE PUSH1 0x40 SWAP1 KECCAK256 SLOAD DUP2 LT ISZERO PUSH2 0x1C02 JUMPI CALLER PUSH1 0x0 SWAP1 DUP2 MSTORE PUSH1 0x19 PUSH1 0x20 MSTORE PUSH1 0x40 SWAP1 KECCAK256 DUP6 SWAP1 PUSH2 0x1AF0 SWAP1 PUSH2 0x1AE6 SWAP1 DUP5 SWAP1 PUSH2 0x18F8 JUMP JUMPDEST SWAP1 SLOAD SWAP1 PUSH1 0x3 SHL SHR SWAP1 JUMP JUMPDEST EQ PUSH2 0x1AFD JUMPI PUSH1 0x1 ADD PUSH2 0x1AAF JUMP JUMPDEST POP SWAP1 SWAP2 SWAP3 SWAP4 SWAP5 POP PUSH1 0x1 JUMPDEST ISZERO PUSH2 0x1BE3 JUMPI JUMPDEST DUP1 ISZERO DUP1 ISZERO PUSH2 0x1BA5 JUMPI JUMPDEST POP POP DUP1 CALLVALUE GT PUSH2 0x1B72 JUMPI JUMPDEST POP PUSH1 0x1 ADD SLOAD SWAP3 SLOAD PUSH1 0x40 DUP1 MLOAD SWAP4 DUP5 MSTORE PUSH1 0x20 DUP5 ADD SWAP2 SWAP1 SWAP2 MSTORE PUSH1 0x1 PUSH1 0x1 PUSH1 0xA0 SHL SUB SWAP1 SWAP4 AND SWAP3 CALLER SWAP3 PUSH32 0x465C604F8DCF4D2DBA83E76F95C4CB5876F0976EC008A9326B6D4B209142BB45 SWAP2 SWAP1 LOG4 PUSH2 0x12B8 PUSH1 0x1 PUSH1 0x6 SSTORE JUMP JUMPDEST PUSH1 0x0 DUP1 DUP1 PUSH2 0x1B81 DUP2 SWAP5 CALLVALUE PUSH2 0x3249 JUMP JUMPDEST DUP2 DUP2 ISZERO PUSH2 0x1B9C JUMPI JUMPDEST CALLER SWAP1 CALL ISZERO PUSH2 0x1B97 JUMPI CODESIZE PUSH2 0x1B20 JUMP JUMPDEST PUSH2 0x3626 JUMP JUMPDEST POP PUSH2 0x8FC PUSH2 0x1B89 JUMP JUMPDEST PUSH1 0x0 DUP1 DUP1 SWAP4 DUP2 SWAP4 PUSH2 0x1BC5 PUSH2 0xF31 PUSH2 0xF31 PUSH1 0x1 DUP12 ADD SLOAD PUSH1 0x1 DUP1 PUSH1 0xA0 SHL SUB AND SWAP1 JUMP JUMPDEST SWAP1 DUP4 SWAP1 PUSH2 0x1BDA JUMPI JUMPDEST CALL ISZERO PUSH2 0x1B97 JUMPI CODESIZE DUP1 PUSH2 0x1B16 JUMP JUMPDEST POP PUSH2 0x8FC PUSH2 0x1BCD JUMP JUMPDEST CALLER PUSH1 0x0 SWAP1 DUP2 MSTORE PUSH1 0x19 PUSH1 0x20 MSTORE PUSH1 0x40 SWAP1 KECCAK256 PUSH2 0x1BFD SWAP1 DUP6 SWAP1 PUSH2 0x35F1 JUMP JUMPDEST PUSH2 0x1B0D JUMP JUMPDEST POP SWAP1 SWAP2 SWAP3 SWAP4 SWAP5 PUSH2 0x1B07 JUMP JUMPDEST DUP1 SLOAD PUSH1 0xFF NOT AND PUSH1 0x1 OR SWAP1 SSTORE PUSH1 0x0 PUSH1 0x3 DUP3 ADD SSTORE PUSH1 0x0 DUP3 DUP3 ADD SSTORE CODESIZE PUSH2 0x1A9A JUMP JUMPDEST POP DUP1 ISZERO ISZERO PUSH2 0x19A5 JUMP JUMPDEST CALLER PUSH1 0x0 MSTORE PUSH1 0x10 PUSH1 0x20 MSTORE PUSH1 0xFF PUSH1 0x40 PUSH1 0x0 KECCAK256 SLOAD AND DUP1 ISZERO PUSH2 0x1C5B JUMPI JUMPDEST PUSH2 0x1C56 SWAP1 PUSH2 0x347C JUMP JUMPDEST PUSH2 0x1999 JUMP JUMPDEST POP PUSH1 0x5 SLOAD PUSH1 0x1 PUSH1 0x1 PUSH1 0xA0 SHL SUB AND CALLER EQ PUSH2 0x1C4D JUMP JUMPDEST CALLVALUE PUSH2 0x433 JUMPI PUSH1 0x0 CALLDATASIZE PUSH1 0x3 NOT ADD SLT PUSH2 0x433 JUMPI PUSH1 0x20 PUSH1 0xD SLOAD PUSH1 0x40 MLOAD SWAP1 DUP2 MSTORE RETURN JUMPDEST CALLVALUE PUSH2 0x433 JUMPI PUSH1 0x20 CALLDATASIZE PUSH1 0x3 NOT ADD SLT PUSH2 0x433 JUMPI PUSH1 0x4 CALLDATALOAD PUSH1 0x0 SWAP1 DUP1 DUP3 MSTORE PUSH1 0x17 PUSH1 0x20 MSTORE PUSH2 0x1CC3 PUSH1 0x1 DUP1 PUSH1 0xA0 SHL SUB PUSH1 0x40 DUP5 KECCAK256 SLOAD AND CALLER EQ PUSH2 0x343F JUMP JUMPDEST DUP2 MSTORE PUSH1 0x16 PUSH1 0x20 MSTORE PUSH1 0x40 DUP2 KECCAK256 PUSH1 0x9 ADD DUP1 SLOAD PUSH1 0xFF DUP2 DUP2 AND ISZERO AND PUSH1 0xFF NOT SWAP1 SWAP2 AND OR SWAP1 SSTORE DUP1 RETURN JUMPDEST CALLVALUE PUSH2 0x433 JUMPI PUSH1 0x0 CALLDATASIZE PUSH1 0x3 NOT ADD SLT PUSH2 0x433 JUMPI PUSH1 0x20 PUSH1 0xFF PUSH1 0x7 SLOAD AND PUSH1 0x40 MLOAD SWAP1 ISZERO ISZERO DUP2 MSTORE RETURN JUMPDEST CALLVALUE PUSH2 0x433 JUMPI PUSH1 0x0 DUP1 PUSH1 0x3 NOT CALLDATASIZE ADD SLT PUSH2 0xA7A JUMPI CALLER DUP2 MSTORE PUSH1 0xF PUSH1 0x20 MSTORE PUSH1 0xFF PUSH1 0x40 DUP3 KECCAK256 SLOAD AND PUSH2 0x1DA6 JUMPI CALLER PUSH1 0x0 SWAP1 DUP2 MSTORE PUSH1 0x10 PUSH1 0x20 MSTORE PUSH1 0x40 SWAP1 KECCAK256 PUSH2 0x1D54 SWAP1 PUSH2 0x1D4F SWAP1 PUSH2 0x1A91 SWAP1 PUSH2 0xE9E JUMP JUMPDEST PUSH2 0x3632 JUMP JUMPDEST CALLER PUSH1 0x0 SWAP1 DUP2 MSTORE PUSH1 0xF PUSH1 0x20 MSTORE PUSH1 0x40 SWAP1 KECCAK256 PUSH2 0x1D75 SWAP1 JUMPDEST DUP1 SLOAD PUSH1 0xFF NOT AND PUSH1 0x1 OR SWAP1 SSTORE JUMP JUMPDEST PUSH2 0x1D7E CALLER PUSH2 0x3674 JUMP JUMPDEST CALLER PUSH32 0xD01371A65BC20DA9AF65AAF8149474FD747E562E207A3687CF65A809766A205A DUP3 DUP1 LOG2 DUP1 RETURN JUMPDEST PUSH1 0x40 MLOAD PUSH3 0x461BCD PUSH1 0xE5 SHL DUP2 MSTORE PUSH1 0x20 PUSH1 0x4 DUP3 ADD MSTORE PUSH1 0x1B PUSH1 0x24 DUP3 ADD MSTORE PUSH32 0x416C7265616479207265676973746572656420696E7465726573740000000000 PUSH1 0x44 DUP3 ADD MSTORE PUSH1 0x64 SWAP1 REVERT JUMPDEST CALLVALUE PUSH2 0x433 JUMPI PUSH1 0x20 CALLDATASIZE PUSH1 0x3 NOT ADD SLT PUSH2 0x433 JUMPI PUSH1 0x4 CALLDATALOAD PUSH1 0x13 SLOAD DUP2 LT ISZERO PUSH2 0x433 JUMPI PUSH1 0x13 PUSH1 0x0 MSTORE PUSH1 0x0 DUP1 MLOAD PUSH1 0x20 PUSH2 0x53C3 DUP4 CODECOPY DUP2 MLOAD SWAP2 MSTORE ADD SLOAD PUSH1 0x40 MLOAD PUSH1 0x1 PUSH1 0x1 PUSH1 0xA0 SHL SUB SWAP1 SWAP2 AND DUP2 MSTORE PUSH1 0x20 SWAP1 RETURN JUMPDEST PUSH1 0x20 SWAP1 PUSH1 0x20 PUSH1 0x40 DUP2 DUP4 ADD SWAP3 DUP3 DUP2 MSTORE DUP6 MLOAD DUP1 SWAP5 MSTORE ADD SWAP4 ADD SWAP2 PUSH1 0x0 JUMPDEST DUP3 DUP2 LT PUSH2 0x1E5C JUMPI POP POP POP POP SWAP1 JUMP JUMPDEST DUP4 MLOAD PUSH1 0x1 PUSH1 0x1 PUSH1 0xA0 SHL SUB AND DUP6 MSTORE SWAP4 DUP2 ADD SWAP4 SWAP3 DUP2 ADD SWAP3 PUSH1 0x1 ADD PUSH2 0x1E4E JUMP JUMPDEST CALLVALUE PUSH2 0x433 JUMPI PUSH1 0x0 CALLDATASIZE PUSH1 0x3 NOT ADD SLT PUSH2 0x433 JUMPI PUSH1 0x40 MLOAD DUP1 PUSH1 0x14 SLOAD SWAP2 DUP3 DUP2 MSTORE PUSH1 0x20 DUP1 SWAP2 ADD SWAP3 PUSH1 0x14 PUSH1 0x0 MSTORE PUSH1 0x0 DUP1 MLOAD PUSH1 0x20 PUSH2 0x53E3 DUP4 CODECOPY DUP2 MLOAD SWAP2 MSTORE SWAP2 PUSH1 0x0 SWAP1 JUMPDEST DUP3 DUP3 LT PUSH2 0x1ED7 JUMPI PUSH2 0x9F1 DUP6 PUSH2 0x1ECB DUP2 DUP10 SUB DUP3 PUSH2 0x58F JUMP JUMPDEST PUSH1 0x40 MLOAD SWAP2 DUP3 SWAP2 DUP3 PUSH2 0x1E34 JUMP JUMPDEST DUP4 SLOAD PUSH1 0x1 PUSH1 0x1 PUSH1 0xA0 SHL SUB AND DUP7 MSTORE SWAP5 DUP6 ADD SWAP5 PUSH1 0x1 SWAP4 DUP5 ADD SWAP4 SWAP1 SWAP2 ADD SWAP1 PUSH2 0x1EB4 JUMP JUMPDEST CALLVALUE PUSH2 0x433 JUMPI PUSH1 0x0 CALLDATASIZE PUSH1 0x3 NOT ADD SLT PUSH2 0x433 JUMPI PUSH1 0x40 MLOAD DUP1 PUSH1 0x13 SLOAD SWAP2 DUP3 DUP2 MSTORE PUSH1 0x20 DUP1 SWAP2 ADD SWAP3 PUSH1 0x13 PUSH1 0x0 MSTORE PUSH1 0x0 DUP1 MLOAD PUSH1 0x20 PUSH2 0x53C3 DUP4 CODECOPY DUP2 MLOAD SWAP2 MSTORE SWAP2 PUSH1 0x0 SWAP1 JUMPDEST DUP3 DUP3 LT PUSH2 0x1F49 JUMPI PUSH2 0x9F1 DUP6 PUSH2 0x1ECB DUP2 DUP10 SUB DUP3 PUSH2 0x58F JUMP JUMPDEST DUP4 SLOAD PUSH1 0x1 PUSH1 0x1 PUSH1 0xA0 SHL SUB AND DUP7 MSTORE SWAP5 DUP6 ADD SWAP5 PUSH1 0x1 SWAP4 DUP5 ADD SWAP4 SWAP1 SWAP2 ADD SWAP1 PUSH2 0x1F32 JUMP JUMPDEST CALLVALUE PUSH2 0x433 JUMPI PUSH1 0x20 CALLDATASIZE PUSH1 0x3 NOT ADD SLT PUSH2 0x433 JUMPI PUSH1 0x4 CALLDATALOAD PUSH1 0x14 SLOAD DUP2 LT ISZERO PUSH2 0x433 JUMPI PUSH1 0x14 PUSH1 0x0 MSTORE PUSH1 0x0 DUP1 MLOAD PUSH1 0x20 PUSH2 0x53E3 DUP4 CODECOPY DUP2 MLOAD SWAP2 MSTORE ADD SLOAD PUSH1 0x40 MLOAD PUSH1 0x1 PUSH1 0x1 PUSH1 0xA0 SHL SUB SWAP1 SWAP2 AND DUP2 MSTORE PUSH1 0x20 SWAP1 RETURN JUMPDEST CALLVALUE PUSH2 0x433 JUMPI PUSH1 0x20 CALLDATASIZE PUSH1 0x3 NOT ADD SLT PUSH2 0x433 JUMPI PUSH1 0x4 CALLDATALOAD PUSH2 0x1FCF DUP2 PUSH2 0x422 JUMP JUMPDEST PUSH1 0x0 SWAP1 CALLER DUP3 MSTORE PUSH1 0x11 PUSH1 0x20 MSTORE PUSH1 0xFF PUSH1 0x40 DUP4 KECCAK256 SLOAD AND DUP1 ISZERO PUSH2 0x20D3 JUMPI JUMPDEST PUSH2 0x1FF2 SWAP1 PUSH2 0x314E JUMP JUMPDEST PUSH1 0x1 PUSH1 0x1 PUSH1 0xA0 SHL SUB DUP2 AND DUP1 DUP4 MSTORE PUSH1 0x11 PUSH1 0x20 MSTORE PUSH1 0x40 DUP4 KECCAK256 SLOAD SWAP1 SWAP2 SWAP1 PUSH2 0x2019 SWAP1 PUSH1 0xFF AND ISZERO PUSH2 0x3785 JUMP JUMPDEST PUSH2 0x2024 DUP3 ISZERO ISZERO PUSH2 0x37C4 JUMP JUMPDEST PUSH1 0x1 PUSH1 0x1 PUSH1 0xA0 SHL SUB DUP2 AND PUSH1 0x0 SWAP1 DUP2 MSTORE PUSH1 0x11 PUSH1 0x20 MSTORE PUSH1 0x40 SWAP1 KECCAK256 PUSH2 0x2045 SWAP1 PUSH2 0x1D68 JUMP JUMPDEST PUSH2 0x204E DUP2 PUSH2 0x36DB JUMP JUMPDEST PUSH1 0x1 PUSH1 0x1 PUSH1 0xA0 SHL SUB DUP2 AND PUSH1 0x0 SWAP1 DUP2 MSTORE PUSH1 0x10 PUSH1 0x20 MSTORE PUSH1 0x40 SWAP1 KECCAK256 PUSH2 0x2073 SWAP1 PUSH2 0x1A91 SWAP1 PUSH2 0xE9E JUMP JUMPDEST PUSH2 0x20A2 JUMPI JUMPDEST POP CALLER SWAP1 PUSH32 0xBF3F493C772C8C283FD124432C2D0F539AB343FAA04258FE88E52912D36B102B DUP4 DUP1 LOG3 DUP1 RETURN JUMPDEST PUSH1 0x1 PUSH1 0x1 PUSH1 0xA0 SHL SUB DUP2 AND PUSH1 0x0 SWAP1 DUP2 MSTORE PUSH1 0x10 PUSH1 0x20 MSTORE PUSH1 0x40 SWAP1 KECCAK256 PUSH2 0x20CD SWAP2 SWAP1 PUSH2 0x20C8 SWAP1 PUSH2 0x1D68 JUMP JUMPDEST PUSH2 0x3730 JUMP JUMPDEST CODESIZE PUSH2 0x2078 JUMP JUMPDEST POP PUSH1 0x5 SLOAD PUSH1 0x1 PUSH1 0x1 PUSH1 0xA0 SHL SUB AND CALLER EQ PUSH2 0x1FE9 JUMP JUMPDEST CALLVALUE PUSH2 0x433 JUMPI PUSH1 0x0 DUP1 PUSH1 0x3 NOT CALLDATASIZE ADD SLT PUSH2 0xA7A JUMPI PUSH2 0x2101 PUSH2 0x4055 JUMP JUMPDEST PUSH1 0x5 DUP1 SLOAD PUSH1 0x1 PUSH1 0x1 PUSH1 0xA0 SHL SUB NOT DUP2 AND SWAP1 SWAP2 SSTORE DUP2 SWAP1 PUSH1 0x1 PUSH1 0x1 PUSH1 0xA0 SHL SUB AND PUSH32 0x8BE0079C531659141344CD1FD0A4F28419497F9722A3DAAFE3B4186F6B6457E0 DUP3 DUP1 LOG3 DUP1 RETURN JUMPDEST CALLVALUE PUSH2 0x433 JUMPI PUSH1 0x0 DUP1 PUSH1 0x3 NOT CALLDATASIZE ADD SLT PUSH2 0xA7A JUMPI CALLER DUP2 MSTORE PUSH1 0x11 PUSH1 0x20 MSTORE PUSH1 0xFF PUSH1 0x40 DUP3 KECCAK256 SLOAD AND DUP1 ISZERO PUSH2 0x21BC JUMPI JUMPDEST PUSH2 0x2177 SWAP1 PUSH2 0x314E JUMP JUMPDEST PUSH1 0xE SLOAD PUSH1 0xFF DUP1 DUP3 AND ISZERO AND DUP1 SWAP2 PUSH1 0xFF NOT AND OR PUSH1 0xE SSTORE PUSH1 0x40 MLOAD SWAP1 ISZERO ISZERO DUP2 MSTORE PUSH32 0x5F2930093A8ED3D18A75EC1318AA404A4CB74A9D542350560A7709642F444B58 PUSH1 0x20 CALLER SWAP3 LOG2 DUP1 RETURN JUMPDEST POP PUSH1 0x5 SLOAD PUSH1 0x1 PUSH1 0x1 PUSH1 0xA0 SHL SUB AND CALLER EQ PUSH2 0x216E JUMP JUMPDEST CALLVALUE PUSH2 0x433 JUMPI PUSH1 0x0 CALLDATASIZE PUSH1 0x3 NOT ADD SLT PUSH2 0x433 JUMPI PUSH2 0x21E9 PUSH2 0x4055 JUMP JUMPDEST PUSH2 0x21F1 PUSH2 0x44FE JUMP JUMPDEST PUSH1 0x1 PUSH1 0xFF NOT PUSH1 0x7 SLOAD AND OR PUSH1 0x7 SSTORE PUSH32 0x62E78CEA01BEE320CD4E420270B5EA74000D11B0C9F74754EBDBFC544B05A258 PUSH1 0x20 PUSH1 0x40 MLOAD CALLER DUP2 MSTORE LOG1 STOP JUMPDEST CALLVALUE PUSH2 0x433 JUMPI PUSH1 0x20 CALLDATASIZE PUSH1 0x3 NOT ADD SLT PUSH2 0x433 JUMPI PUSH1 0x4 CALLDATALOAD PUSH2 0x2247 DUP2 PUSH2 0x422 JUMP JUMPDEST PUSH1 0x0 SWAP1 CALLER DUP3 MSTORE PUSH1 0x11 PUSH1 0x20 MSTORE PUSH1 0xFF PUSH1 0x40 DUP4 KECCAK256 SLOAD AND DUP1 ISZERO PUSH2 0x2355 JUMPI JUMPDEST PUSH2 0x226A SWAP1 PUSH2 0x314E JUMP JUMPDEST PUSH1 0x1 PUSH1 0x1 PUSH1 0xA0 SHL SUB DUP2 AND PUSH1 0x0 SWAP1 DUP2 MSTORE PUSH1 0x10 PUSH1 0x20 MSTORE PUSH1 0x40 SWAP1 KECCAK256 PUSH2 0x2294 SWAP1 PUSH2 0x228F SWAP1 PUSH2 0xE9E JUMP JUMPDEST PUSH2 0x3802 JUMP JUMPDEST PUSH1 0x5 SLOAD PUSH1 0x1 PUSH1 0x1 PUSH1 0xA0 SHL SUB DUP3 DUP2 AND SWAP3 PUSH2 0x22D2 SWAP3 PUSH2 0xEF4 SWAP3 PUSH2 0x22B8 SWAP2 AND DUP6 EQ ISZERO PUSH2 0x384E JUMP JUMPDEST PUSH1 0x1 PUSH1 0x1 PUSH1 0xA0 SHL SUB AND PUSH1 0x0 SWAP1 DUP2 MSTORE PUSH1 0x10 PUSH1 0x20 MSTORE PUSH1 0x40 SWAP1 KECCAK256 SWAP1 JUMP JUMPDEST DUP2 JUMPDEST PUSH1 0x13 SLOAD SWAP1 DUP2 DUP2 LT ISZERO PUSH2 0x234E JUMPI DUP3 PUSH2 0x22F0 PUSH2 0xF31 PUSH2 0xF1C DUP5 PUSH2 0x18D3 JUMP JUMPDEST EQ PUSH2 0x22FF JUMPI PUSH1 0x1 SWAP2 POP ADD PUSH2 0x22D4 JUMP JUMPDEST PUSH2 0xF6C PUSH2 0x2319 PUSH2 0xF1C PUSH2 0x2314 PUSH2 0x231F SWAP6 PUSH2 0x322B JUMP JUMPDEST PUSH2 0x18D3 JUMP JUMPDEST SWAP2 PUSH2 0x18D3 JUMP JUMPDEST PUSH2 0x2327 PUSH2 0x32C0 JUMP JUMPDEST PUSH32 0x535611FB62FA2A833988F283B779E417E996813E44046F521D76C17B5943B08C DUP3 DUP1 LOG2 DUP1 RETURN JUMPDEST POP POP PUSH2 0x2327 JUMP JUMPDEST POP PUSH1 0x5 SLOAD PUSH1 0x1 PUSH1 0x1 PUSH1 0xA0 SHL SUB AND CALLER EQ PUSH2 0x2261 JUMP JUMPDEST CALLVALUE PUSH2 0x433 JUMPI PUSH1 0x0 CALLDATASIZE PUSH1 0x3 NOT ADD SLT PUSH2 0x433 JUMPI PUSH1 0x5 SLOAD PUSH1 0x40 MLOAD PUSH1 0x1 PUSH1 0x1 PUSH1 0xA0 SHL SUB SWAP1 SWAP2 AND DUP2 MSTORE PUSH1 0x20 SWAP1 RETURN JUMPDEST CALLVALUE PUSH2 0x433 JUMPI PUSH1 0x0 CALLDATASIZE PUSH1 0x3 NOT ADD SLT PUSH2 0x433 JUMPI PUSH1 0x40 MLOAD DUP1 PUSH1 0x12 SLOAD SWAP2 DUP3 DUP2 MSTORE PUSH1 0x20 DUP1 SWAP2 ADD SWAP3 PUSH1 0x12 PUSH1 0x0 MSTORE PUSH32 0xBB8A6A4669BA250D26CD7A459ECA9D215F8307E33AEBE50379BC5A3617EC3444 SWAP2 PUSH1 0x0 SWAP1 JUMPDEST DUP3 DUP3 LT PUSH2 0x23F6 JUMPI PUSH2 0x9F1 DUP6 PUSH2 0x1ECB DUP2 DUP10 SUB DUP3 PUSH2 0x58F JUMP JUMPDEST DUP4 SLOAD PUSH1 0x1 PUSH1 0x1 PUSH1 0xA0 SHL SUB AND DUP7 MSTORE SWAP5 DUP6 ADD SWAP5 PUSH1 0x1 SWAP4 DUP5 ADD SWAP4 SWAP1 SWAP2 ADD SWAP1 PUSH2 0x23DF JUMP JUMPDEST CALLVALUE PUSH2 0x433 JUMPI PUSH1 0x40 CALLDATASIZE PUSH1 0x3 NOT ADD SLT PUSH2 0x433 JUMPI PUSH1 0x4 CALLDATALOAD PUSH2 0x2433 DUP2 PUSH2 0x422 JUMP JUMPDEST PUSH1 0x1 PUSH1 0x1 PUSH1 0xA0 SHL SUB AND PUSH1 0x0 SWAP1 DUP2 MSTORE PUSH1 0x18 PUSH1 0x20 MSTORE PUSH1 0x40 SWAP1 KECCAK256 DUP1 SLOAD PUSH1 0x24 CALLDATALOAD SWAP2 SWAP1 DUP3 LT ISZERO PUSH2 0x433 JUMPI PUSH1 0x20 SWAP2 PUSH2 0x195E SWAP2 PUSH2 0x18F8 JUMP JUMPDEST CALLVALUE PUSH2 0x433 JUMPI PUSH1 0x0 DUP1 PUSH1 0x3 NOT CALLDATASIZE ADD SLT PUSH2 0xA7A JUMPI PUSH1 0x40 MLOAD SWAP1 DUP1 PUSH1 0x9 SLOAD SWAP1 PUSH2 0x2488 DUP3 PUSH2 0x795 JUMP JUMPDEST DUP1 DUP6 MSTORE SWAP2 PUSH1 0x20 SWAP2 PUSH1 0x1 SWAP2 DUP3 DUP2 AND SWAP1 DUP2 ISZERO PUSH2 0xA4D JUMPI POP PUSH1 0x1 EQ PUSH2 0x24B4 JUMPI PUSH2 0x9F1 DUP7 PUSH2 0x9E5 DUP2 DUP9 SUB DUP3 PUSH2 0x58F JUMP JUMPDEST SWAP4 POP PUSH1 0x9 DUP5 MSTORE PUSH32 0x6E1540171B6C0C960B71A7020D9F60077F6AF931A8BBF590DA0223DACF75C7AF JUMPDEST DUP4 DUP6 LT PUSH2 0x24F9 JUMPI POP POP POP POP DUP2 ADD PUSH1 0x20 ADD PUSH2 0x9E5 DUP3 PUSH2 0x9F1 CODESIZE PUSH2 0x9D5 JUMP JUMPDEST DUP1 SLOAD DUP7 DUP7 ADD DUP5 ADD MSTORE SWAP4 DUP3 ADD SWAP4 DUP2 ADD PUSH2 0x24DC JUMP JUMPDEST CALLVALUE PUSH2 0x433 JUMPI PUSH1 0x40 CALLDATASIZE PUSH1 0x3 NOT ADD SLT PUSH2 0x433 JUMPI PUSH1 0x4 CALLDATALOAD PUSH2 0x2529 DUP2 PUSH2 0x422 JUMP JUMPDEST PUSH1 0x24 CALLDATALOAD SWAP1 DUP2 ISZERO ISZERO SWAP1 DUP2 DUP4 SUB PUSH2 0x433 JUMPI PUSH1 0x1 PUSH1 0x1 PUSH1 0xA0 SHL SUB DUP2 AND SWAP3 DUP4 ISZERO PUSH2 0x25B4 JUMPI PUSH2 0x2575 PUSH2 0x2586 SWAP3 CALLER PUSH1 0x0 MSTORE PUSH1 0x1 PUSH1 0x20 MSTORE PUSH1 0x40 PUSH1 0x0 KECCAK256 SWAP1 PUSH1 0x1 DUP1 PUSH1 0xA0 SHL SUB AND PUSH1 0x0 MSTORE PUSH1 0x20 MSTORE PUSH1 0x40 PUSH1 0x0 KECCAK256 SWAP1 JUMP JUMPDEST SWAP1 PUSH1 0xFF DUP1 NOT DUP4 SLOAD AND SWAP2 ISZERO ISZERO AND OR SWAP1 SSTORE JUMP JUMPDEST PUSH1 0x40 MLOAD SWAP1 DUP2 MSTORE PUSH32 0x17307EAB39AB6107E8899845AD3D59BD9653F200F220920489CA2B5937696C31 PUSH1 0x20 CALLER SWAP3 LOG3 STOP JUMPDEST PUSH1 0x40 MLOAD PUSH3 0xCED3E1 PUSH1 0xE8 SHL DUP2 MSTORE PUSH1 0x0 PUSH1 0x4 DUP3 ADD MSTORE PUSH1 0x24 SWAP1 REVERT JUMPDEST CALLVALUE PUSH2 0x433 JUMPI PUSH1 0x60 CALLDATASIZE PUSH1 0x3 NOT ADD SLT PUSH2 0x433 JUMPI PUSH1 0x1 PUSH1 0x1 PUSH1 0x40 SHL SUB PUSH1 0x4 CALLDATALOAD DUP2 DUP2 GT PUSH2 0x433 JUMPI PUSH2 0x25FD SWAP1 CALLDATASIZE SWAP1 PUSH1 0x4 ADD PUSH2 0x5EB JUMP JUMPDEST PUSH1 0x24 CALLDATALOAD DUP3 DUP2 GT PUSH2 0x433 JUMPI PUSH2 0x2615 SWAP1 CALLDATASIZE SWAP1 PUSH1 0x4 ADD PUSH2 0x5EB JUMP JUMPDEST SWAP2 PUSH1 0x44 CALLDATALOAD SWAP1 DUP2 GT PUSH2 0x433 JUMPI PUSH2 0x264F PUSH32 0x39DFEE1413BB413BA51702FE3CD693CD3B02628FBAC61358818D502B7AF50095 SWAP2 CALLDATASIZE SWAP1 PUSH1 0x4 ADD PUSH2 0x5EB JUMP JUMPDEST PUSH1 0x0 SWAP4 CALLER DUP6 MSTORE PUSH1 0x15 PUSH1 0x20 MSTORE PUSH2 0x2691 DUP3 PUSH1 0x2 PUSH1 0x40 DUP9 KECCAK256 PUSH1 0x5 DUP2 ADD PUSH1 0xFF DUP2 SLOAD AND ISZERO PUSH2 0x26A8 JUMPI JUMPDEST POP PUSH2 0x267E DUP9 DUP3 PUSH2 0x3957 JUMP JUMPDEST PUSH2 0x268B DUP6 PUSH1 0x1 DUP4 ADD PUSH2 0x3957 JUMP JUMPDEST ADD PUSH2 0x3957 JUMP JUMPDEST PUSH2 0x26A2 PUSH1 0x40 MLOAD SWAP3 DUP4 SWAP3 CALLER SWAP7 DUP5 PUSH2 0x3A20 JUMP JUMPDEST SUB SWAP1 LOG2 DUP1 RETURN JUMPDEST DUP1 SLOAD PUSH1 0xFF NOT AND PUSH1 0x1 OR SWAP1 SSTORE DUP9 PUSH1 0x3 DUP3 ADD SSTORE DUP9 PUSH1 0x4 DUP3 ADD SSTORE CODESIZE PUSH2 0x2673 JUMP JUMPDEST CALLVALUE PUSH2 0x433 JUMPI PUSH1 0x20 CALLDATASIZE PUSH1 0x3 NOT ADD SLT PUSH2 0x433 JUMPI PUSH1 0x4 CALLDATALOAD PUSH2 0x26E2 DUP2 PUSH2 0x422 JUMP JUMPDEST PUSH1 0x1 DUP1 PUSH1 0xA0 SHL SUB AND PUSH1 0x0 MSTORE PUSH1 0x15 PUSH1 0x20 MSTORE PUSH1 0x40 PUSH1 0x0 KECCAK256 PUSH1 0x40 MLOAD PUSH2 0x2703 DUP2 PUSH2 0x539 JUMP JUMPDEST PUSH2 0x270C DUP3 PUSH2 0x895 JUMP JUMPDEST DUP2 MSTORE PUSH2 0x9F1 PUSH2 0x271D PUSH1 0x1 DUP5 ADD PUSH2 0x895 JUMP JUMPDEST SWAP2 PUSH1 0x20 DUP2 ADD SWAP3 DUP4 MSTORE PUSH2 0x2731 PUSH1 0x2 DUP6 ADD PUSH2 0x895 JUMP JUMPDEST SWAP4 DUP5 PUSH1 0x40 DUP4 ADD MSTORE PUSH1 0x3 DUP2 ADD SLOAD DUP1 PUSH1 0x60 DUP5 ADD MSTORE PUSH1 0xFF PUSH1 0x5 PUSH1 0x4 DUP5 ADD SLOAD SWAP4 DUP5 PUSH1 0x80 DUP8 ADD MSTORE ADD SLOAD AND ISZERO ISZERO SWAP3 DUP4 PUSH1 0xA0 DUP3 ADD MSTORE MLOAD SWAP5 MLOAD SWAP6 PUSH1 0x40 MLOAD SWAP7 DUP8 SWAP7 DUP8 PUSH2 0xD75 JUMP JUMPDEST CALLVALUE PUSH2 0x433 JUMPI PUSH1 0x40 CALLDATASIZE PUSH1 0x3 NOT ADD SLT PUSH2 0x433 JUMPI PUSH1 0x4 CALLDATALOAD PUSH1 0x24 CALLDATALOAD SWAP1 PUSH1 0xD SLOAD DUP2 GT ISZERO DUP1 PUSH2 0x28B0 JUMPI JUMPDEST PUSH2 0x279C SWAP1 PUSH2 0x310F JUMP JUMPDEST PUSH1 0x0 MSTORE PUSH1 0x16 PUSH1 0x20 MSTORE PUSH1 0x40 PUSH1 0x0 KECCAK256 PUSH2 0x27B1 PUSH2 0x5B0 JUMP JUMPDEST DUP2 SLOAD DUP2 MSTORE PUSH1 0x1 DUP3 ADD SLOAD PUSH1 0x1 PUSH1 0x1 PUSH1 0xA0 SHL SUB AND PUSH1 0x20 DUP3 ADD SWAP1 DUP2 MSTORE SWAP2 PUSH2 0x140 SWAP1 PUSH1 0xA SWAP1 PUSH2 0x27DE PUSH1 0x2 DUP3 ADD PUSH2 0x895 JUMP JUMPDEST PUSH1 0x40 DUP6 ADD MSTORE PUSH2 0x27EF PUSH1 0x3 DUP3 ADD PUSH2 0x895 JUMP JUMPDEST PUSH1 0x60 DUP6 ADD MSTORE PUSH2 0x2800 PUSH1 0x4 DUP3 ADD PUSH2 0x153D JUMP JUMPDEST PUSH1 0x80 DUP6 ADD MSTORE PUSH2 0x2811 PUSH1 0x5 DUP3 ADD PUSH2 0x895 JUMP JUMPDEST PUSH1 0xA0 DUP6 ADD MSTORE PUSH1 0x6 DUP2 ADD SLOAD PUSH1 0xC0 DUP6 ADD MSTORE PUSH1 0x7 DUP2 ADD SLOAD PUSH1 0xE0 DUP6 ADD MSTORE PUSH1 0x8 DUP2 ADD SLOAD PUSH2 0x100 DUP6 ADD MSTORE PUSH2 0x2846 PUSH2 0x112C PUSH1 0x9 DUP4 ADD SLOAD PUSH1 0xFF AND SWAP1 JUMP JUMPDEST ADD SLOAD SWAP2 ADD MSTORE PUSH1 0x1 DUP1 PUSH1 0xA0 SHL SUB SWAP1 MLOAD AND PUSH2 0x9F1 PUSH2 0x2877 PUSH2 0x115B PUSH2 0x286D PUSH2 0x115B PUSH1 0xC SLOAD DUP8 PUSH2 0x3359 JUMP JUMPDEST SWAP5 PUSH1 0xB SLOAD SWAP1 PUSH2 0x3359 JUMP JUMPDEST PUSH2 0x2881 DUP2 DUP6 PUSH2 0x3102 JUMP JUMPDEST PUSH1 0x40 DUP1 MLOAD PUSH1 0x1 PUSH1 0x1 PUSH1 0xA0 SHL SUB SWAP1 SWAP6 AND DUP6 MSTORE PUSH1 0x20 DUP6 ADD SWAP6 SWAP1 SWAP6 MSTORE SWAP4 DUP4 ADD MSTORE PUSH1 0x60 DUP3 ADD SWAP3 SWAP1 SWAP3 MSTORE SWAP1 DUP2 SWAP1 PUSH1 0x80 DUP3 ADD SWAP1 JUMP JUMPDEST POP DUP1 ISZERO ISZERO PUSH2 0x2793 JUMP JUMPDEST CALLVALUE PUSH2 0x433 JUMPI PUSH1 0x20 CALLDATASIZE PUSH1 0x3 NOT ADD SLT PUSH2 0x433 JUMPI PUSH1 0x4 CALLDATALOAD PUSH1 0x0 MSTORE PUSH1 0x3 PUSH1 0x20 MSTORE PUSH1 0x20 PUSH1 0x40 PUSH1 0x0 KECCAK256 SLOAD PUSH1 0x40 MLOAD SWAP1 DUP2 MSTORE RETURN JUMPDEST CALLVALUE PUSH2 0x433 JUMPI PUSH1 0xC0 CALLDATASIZE PUSH1 0x3 NOT ADD SLT PUSH2 0x433 JUMPI PUSH1 0x1 PUSH1 0x1 PUSH1 0x40 SHL SUB PUSH1 0x4 CALLDATALOAD DUP2 DUP2 GT PUSH2 0x433 JUMPI PUSH2 0x2916 SWAP1 CALLDATASIZE SWAP1 PUSH1 0x4 ADD PUSH2 0x5EB JUMP JUMPDEST SWAP1 PUSH1 0x24 CALLDATALOAD DUP2 DUP2 GT PUSH2 0x433 JUMPI PUSH2 0x292F SWAP1 CALLDATASIZE SWAP1 PUSH1 0x4 ADD PUSH2 0x5EB JUMP JUMPDEST PUSH1 0x44 CALLDATALOAD DUP3 DUP2 GT PUSH2 0x433 JUMPI PUSH2 0x2947 SWAP1 CALLDATASIZE SWAP1 PUSH1 0x4 ADD PUSH2 0x5EB JUMP JUMPDEST SWAP3 PUSH1 0x64 CALLDATALOAD SWAP3 DUP4 GT PUSH2 0x433 JUMPI PUSH2 0x9F1 SWAP4 PUSH2 0x2967 PUSH2 0x2975 SWAP5 CALLDATASIZE SWAP1 PUSH1 0x4 ADD PUSH2 0x5EB JUMP JUMPDEST SWAP1 PUSH1 0xA4 CALLDATALOAD SWAP4 PUSH1 0x84 CALLDATALOAD SWAP4 PUSH2 0x3A57 JUMP JUMPDEST PUSH1 0x40 MLOAD SWAP1 DUP2 MSTORE SWAP1 DUP2 SWAP1 PUSH1 0x20 DUP3 ADD SWAP1 JUMP JUMPDEST CALLVALUE PUSH2 0x433 JUMPI PUSH1 0x20 DUP1 PUSH1 0x3 NOT CALLDATASIZE ADD SLT PUSH2 0x433 JUMPI PUSH1 0x4 CALLDATALOAD PUSH2 0x29A3 DUP2 PUSH2 0x422 JUMP JUMPDEST PUSH1 0x1 PUSH1 0x1 PUSH1 0xA0 SHL SUB AND PUSH1 0x0 SWAP1 DUP2 MSTORE PUSH1 0x18 PUSH1 0x20 SWAP1 DUP2 MSTORE PUSH1 0x40 DUP1 DUP4 KECCAK256 SWAP1 MLOAD DUP2 SLOAD DUP1 DUP3 MSTORE SWAP2 DUP5 MSTORE DUP3 DUP5 KECCAK256 SWAP3 DUP2 ADD SWAP5 SWAP1 SWAP4 SWAP1 JUMPDEST DUP3 DUP3 LT PUSH2 0x29E9 JUMPI PUSH2 0x9F1 DUP6 PUSH2 0x17F5 DUP2 DUP10 SUB DUP3 PUSH2 0x58F JUMP JUMPDEST DUP4 SLOAD DUP7 MSTORE SWAP5 DUP6 ADD SWAP5 PUSH1 0x1 SWAP4 DUP5 ADD SWAP4 SWAP1 SWAP2 ADD SWAP1 PUSH2 0x29D2 JUMP JUMPDEST CALLVALUE PUSH2 0x433 JUMPI PUSH1 0x0 CALLDATASIZE PUSH1 0x3 NOT ADD SLT PUSH2 0x433 JUMPI PUSH1 0x20 PUSH1 0xA SLOAD PUSH1 0x40 MLOAD SWAP1 DUP2 MSTORE RETURN JUMPDEST CALLVALUE PUSH2 0x433 JUMPI PUSH1 0x0 DUP1 PUSH1 0x3 NOT CALLDATASIZE ADD SLT PUSH2 0xA7A JUMPI PUSH2 0x2A38 PUSH2 0x4055 JUMP JUMPDEST SELFBALANCE DUP1 ISZERO PUSH2 0x2A66 JUMPI PUSH1 0x5 SLOAD DUP3 SWAP2 DUP3 SWAP2 DUP3 SWAP2 DUP3 SWAP2 PUSH2 0x2A5C SWAP1 PUSH1 0x1 PUSH1 0x1 PUSH1 0xA0 SHL SUB AND PUSH2 0xF31 JUMP JUMPDEST DUP3 CALL ISZERO PUSH2 0x1B97 JUMPI DUP1 RETURN JUMPDEST PUSH1 0x40 MLOAD PUSH3 0x461BCD PUSH1 0xE5 SHL DUP2 MSTORE PUSH1 0x20 PUSH1 0x4 DUP3 ADD MSTORE PUSH1 0x13 PUSH1 0x24 DUP3 ADD MSTORE PUSH19 0x4E6F206665657320746F207769746864726177 PUSH1 0x68 SHL PUSH1 0x44 DUP3 ADD MSTORE PUSH1 0x64 SWAP1 REVERT JUMPDEST CALLVALUE PUSH2 0x433 JUMPI PUSH1 0x20 CALLDATASIZE PUSH1 0x3 NOT ADD SLT PUSH2 0x433 JUMPI PUSH1 0x4 CALLDATALOAD PUSH1 0x12 SLOAD DUP2 LT ISZERO PUSH2 0x433 JUMPI PUSH1 0x12 PUSH1 0x0 MSTORE PUSH32 0xBB8A6A4669BA250D26CD7A459ECA9D215F8307E33AEBE50379BC5A3617EC3444 ADD SLOAD PUSH1 0x40 MLOAD PUSH1 0x1 PUSH1 0x1 PUSH1 0xA0 SHL SUB SWAP1 SWAP2 AND DUP2 MSTORE PUSH1 0x20 SWAP1 RETURN JUMPDEST CALLVALUE PUSH2 0x433 JUMPI PUSH1 0x20 DUP1 PUSH1 0x3 NOT CALLDATASIZE ADD SLT PUSH2 0x433 JUMPI PUSH1 0x4 CALLDATALOAD PUSH2 0x2B1A DUP2 PUSH2 0x422 JUMP JUMPDEST PUSH1 0x1 PUSH1 0x1 PUSH1 0xA0 SHL SUB AND PUSH1 0x0 SWAP1 DUP2 MSTORE PUSH1 0x19 PUSH1 0x20 SWAP1 DUP2 MSTORE PUSH1 0x40 DUP1 DUP4 KECCAK256 SWAP1 MLOAD DUP2 SLOAD DUP1 DUP3 MSTORE SWAP2 DUP5 MSTORE DUP3 DUP5 KECCAK256 SWAP3 DUP2 ADD SWAP5 SWAP1 SWAP4 SWAP1 JUMPDEST DUP3 DUP3 LT PUSH2 0x2B60 JUMPI PUSH2 0x9F1 DUP6 PUSH2 0x17F5 DUP2 DUP10 SUB DUP3 PUSH2 0x58F JUMP JUMPDEST DUP4 SLOAD DUP7 MSTORE SWAP5 DUP6 ADD SWAP5 PUSH1 0x1 SWAP4 DUP5 ADD SWAP4 SWAP1 SWAP2 ADD SWAP1 PUSH2 0x2B49 JUMP JUMPDEST CALLVALUE PUSH2 0x433 JUMPI PUSH1 0x40 CALLDATASIZE PUSH1 0x3 NOT ADD SLT PUSH2 0x433 JUMPI PUSH1 0x20 PUSH1 0xFF PUSH2 0x2BD3 PUSH1 0x4 CALLDATALOAD PUSH2 0x2B9B DUP2 PUSH2 0x422 JUMP JUMPDEST PUSH1 0x24 CALLDATALOAD SWAP1 PUSH2 0x2BA8 DUP3 PUSH2 0x422 JUMP JUMPDEST PUSH1 0x1 DUP1 PUSH1 0xA0 SHL SUB AND PUSH1 0x0 MSTORE PUSH1 0x1 DUP5 MSTORE PUSH1 0x40 PUSH1 0x0 KECCAK256 SWAP1 PUSH1 0x1 DUP1 PUSH1 0xA0 SHL SUB AND PUSH1 0x0 MSTORE PUSH1 0x20 MSTORE PUSH1 0x40 PUSH1 0x0 KECCAK256 SWAP1 JUMP JUMPDEST SLOAD AND PUSH1 0x40 MLOAD SWAP1 ISZERO ISZERO DUP2 MSTORE RETURN JUMPDEST CALLVALUE PUSH2 0x433 JUMPI PUSH1 0x0 CALLDATASIZE PUSH1 0x3 NOT ADD SLT PUSH2 0x433 JUMPI PUSH1 0x20 PUSH1 0xC SLOAD PUSH1 0x40 MLOAD SWAP1 DUP2 MSTORE RETURN JUMPDEST CALLVALUE PUSH2 0x433 JUMPI PUSH1 0x20 CALLDATASIZE PUSH1 0x3 NOT ADD SLT PUSH2 0x433 JUMPI PUSH1 0x4 CALLDATALOAD PUSH1 0x1 PUSH1 0x1 PUSH1 0x40 SHL SUB DUP1 DUP3 GT PUSH2 0x433 JUMPI CALLDATASIZE PUSH1 0x23 DUP4 ADD SLT ISZERO PUSH2 0x433 JUMPI DUP2 PUSH1 0x4 ADD CALLDATALOAD SWAP1 DUP2 GT PUSH2 0x433 JUMPI PUSH1 0x24 PUSH1 0x5 SWAP3 CALLDATASIZE PUSH1 0x24 DUP5 PUSH1 0x5 SHL DUP4 ADD ADD GT PUSH2 0x433 JUMPI PUSH1 0x0 SWAP4 CALLER DUP6 MSTORE PUSH1 0x11 PUSH1 0x20 MSTORE PUSH1 0xFF PUSH1 0x40 DUP7 KECCAK256 SLOAD AND DUP1 ISZERO PUSH2 0x2D3E JUMPI JUMPDEST PUSH2 0x2C6E SWAP1 PUSH2 0x314E JUMP JUMPDEST DUP5 JUMPDEST DUP5 DUP2 LT PUSH2 0x2C7B JUMPI DUP6 DUP1 RETURN JUMPDEST DUP1 DUP5 PUSH1 0x1 SWAP3 DUP5 SHL DUP6 ADD ADD CALLDATALOAD PUSH2 0x2C8F DUP2 PUSH2 0x422 JUMP JUMPDEST PUSH1 0x1 PUSH1 0x1 PUSH1 0xA0 SHL SUB DUP2 AND PUSH1 0x0 SWAP1 DUP2 MSTORE PUSH1 0xF PUSH1 0x20 MSTORE PUSH1 0x40 SWAP1 KECCAK256 PUSH2 0x2CB9 SWAP1 PUSH2 0x2CB4 SWAP1 PUSH2 0xE9E JUMP JUMPDEST PUSH2 0x3FC4 JUMP JUMPDEST PUSH2 0x2CE3 PUSH2 0x2CDE PUSH2 0x1A91 PUSH2 0xE9E DUP5 PUSH1 0x1 DUP1 PUSH1 0xA0 SHL SUB AND PUSH1 0x0 MSTORE PUSH1 0x10 PUSH1 0x20 MSTORE PUSH1 0x40 PUSH1 0x0 KECCAK256 SWAP1 JUMP JUMPDEST PUSH2 0x4009 JUMP JUMPDEST PUSH1 0x1 PUSH1 0x1 PUSH1 0xA0 SHL SUB DUP2 AND PUSH1 0x0 SWAP1 DUP2 MSTORE PUSH1 0x10 PUSH1 0x20 MSTORE PUSH1 0x40 SWAP1 KECCAK256 PUSH2 0x2D04 SWAP1 PUSH2 0x1D68 JUMP JUMPDEST PUSH2 0x2D0D DUP2 PUSH2 0x3730 JUMP JUMPDEST DUP3 DUP1 PUSH1 0xA0 SHL SUB AND PUSH32 0x4F783C179409B4127238BC9C990BC99B9A651666A0D20B51D6C42849EB88466D DUP9 DUP1 LOG2 ADD PUSH2 0x2C70 JUMP JUMPDEST POP PUSH1 0x5 SLOAD PUSH1 0x1 PUSH1 0x1 PUSH1 0xA0 SHL SUB AND CALLER EQ PUSH2 0x2C65 JUMP JUMPDEST CALLVALUE PUSH2 0x433 JUMPI PUSH1 0xA0 CALLDATASIZE PUSH1 0x3 NOT ADD SLT PUSH2 0x433 JUMPI PUSH1 0x4 CALLDATALOAD PUSH2 0x2D6F DUP2 PUSH2 0x422 JUMP JUMPDEST PUSH1 0x24 CALLDATALOAD PUSH2 0x2D7B DUP2 PUSH2 0x422 JUMP JUMPDEST PUSH1 0x84 CALLDATALOAD PUSH1 0x1 PUSH1 0x1 PUSH1 0x40 SHL SUB DUP2 GT PUSH2 0x433 JUMPI PUSH2 0x2D9A SWAP1 CALLDATASIZE SWAP1 PUSH1 0x4 ADD PUSH2 0x5EB JUMP JUMPDEST SWAP1 PUSH1 0x1 PUSH1 0x1 PUSH1 0xA0 SHL SUB DUP4 DUP2 AND SWAP1 CALLER DUP3 EQ ISZERO DUP1 PUSH2 0x2E53 JUMPI JUMPDEST PUSH2 0x2E2C JUMPI DUP3 AND ISZERO PUSH2 0x2E13 JUMPI ISZERO PUSH2 0x2DFB JUMPI PUSH2 0x12B8 SWAP3 PUSH2 0x2DF3 PUSH1 0x64 CALLDATALOAD PUSH1 0x44 CALLDATALOAD SWAP2 PUSH1 0x40 MLOAD SWAP3 PUSH1 0x1 DUP5 MSTORE PUSH1 0x20 DUP5 ADD MSTORE PUSH1 0x40 DUP4 ADD SWAP2 PUSH1 0x1 DUP4 MSTORE PUSH1 0x60 DUP5 ADD MSTORE PUSH1 0x80 DUP4 ADD PUSH1 0x40 MSTORE JUMP JUMPDEST SWAP3 SWAP1 SWAP2 PUSH2 0x4C14 JUMP JUMPDEST PUSH1 0x40 MLOAD PUSH3 0x6A0D45 PUSH1 0xE2 SHL DUP2 MSTORE PUSH1 0x0 PUSH1 0x4 DUP3 ADD MSTORE PUSH1 0x24 SWAP1 REVERT JUMPDEST PUSH1 0x40 MLOAD PUSH4 0x2BFA23E7 PUSH1 0xE1 SHL DUP2 MSTORE PUSH1 0x0 PUSH1 0x4 DUP3 ADD MSTORE PUSH1 0x24 SWAP1 REVERT JUMPDEST PUSH1 0x40 MLOAD PUSH4 0x711BEC91 PUSH1 0xE1 SHL DUP2 MSTORE CALLER PUSH1 0x4 DUP3 ADD MSTORE PUSH1 0x1 PUSH1 0x1 PUSH1 0xA0 SHL SUB DUP7 AND PUSH1 0x24 DUP3 ADD MSTORE PUSH1 0x44 SWAP1 REVERT JUMPDEST POP PUSH1 0x0 DUP3 DUP2 MSTORE PUSH1 0x1 PUSH1 0x20 SWAP1 DUP2 MSTORE PUSH1 0x40 DUP1 DUP4 KECCAK256 CALLER DUP5 MSTORE SWAP1 SWAP2 MSTORE SWAP1 KECCAK256 SLOAD PUSH1 0xFF AND ISZERO PUSH2 0x2DB1 JUMP JUMPDEST CALLVALUE PUSH2 0x433 JUMPI PUSH1 0x20 CALLDATASIZE PUSH1 0x3 NOT ADD SLT PUSH2 0x433 JUMPI PUSH1 0x4 CALLDATALOAD PUSH2 0x2E94 DUP2 PUSH2 0x422 JUMP JUMPDEST PUSH2 0x2E9C PUSH2 0x4055 JUMP JUMPDEST PUSH1 0x1 PUSH1 0x1 PUSH1 0xA0 SHL SUB SWAP1 DUP2 AND SWAP1 DUP2 ISZERO PUSH2 0x2EEB JUMPI PUSH1 0x5 SLOAD DUP3 PUSH1 0x1 PUSH1 0x1 PUSH1 0x60 SHL SUB PUSH1 0xA0 SHL DUP3 AND OR PUSH1 0x5 SSTORE AND PUSH32 0x8BE0079C531659141344CD1FD0A4F28419497F9722A3DAAFE3B4186F6B6457E0 PUSH1 0x0 DUP1 LOG3 STOP JUMPDEST PUSH1 0x40 MLOAD PUSH4 0x1E4FBDF7 PUSH1 0xE0 SHL DUP2 MSTORE PUSH1 0x0 PUSH1 0x4 DUP3 ADD MSTORE PUSH1 0x24 SWAP1 REVERT JUMPDEST SWAP1 PUSH1 0xA PUSH2 0x2F0F PUSH2 0x5B0 JUMP JUMPDEST DUP4 SLOAD DUP2 MSTORE PUSH1 0x1 DUP5 ADD SLOAD PUSH1 0x1 PUSH1 0x1 PUSH1 0xA0 SHL SUB AND PUSH1 0x20 DUP3 ADD MSTORE SWAP3 PUSH2 0x2F33 PUSH1 0x2 DUP3 ADD PUSH2 0x895 JUMP JUMPDEST PUSH1 0x40 DUP6 ADD MSTORE PUSH2 0x2F44 PUSH1 0x3 DUP3 ADD PUSH2 0x895 JUMP JUMPDEST PUSH1 0x60 DUP6 ADD MSTORE PUSH2 0x2F55 PUSH1 0x4 DUP3 ADD PUSH2 0x153D JUMP JUMPDEST PUSH1 0x80 DUP6 ADD MSTORE PUSH2 0x2F66 PUSH1 0x5 DUP3 ADD PUSH2 0x895 JUMP JUMPDEST PUSH1 0xA0 DUP6 ADD MSTORE PUSH1 0x6 DUP2 ADD SLOAD PUSH1 0xC0 DUP6 ADD MSTORE PUSH1 0x7 DUP2 ADD SLOAD PUSH1 0xE0 DUP6 ADD MSTORE PUSH1 0x8 DUP2 ADD SLOAD PUSH2 0x100 DUP6 ADD MSTORE PUSH2 0x2F9B PUSH2 0x112C PUSH1 0x9 DUP4 ADD SLOAD PUSH1 0xFF AND SWAP1 JUMP JUMPDEST ADD SLOAD PUSH2 0x140 DUP4 ADD MSTORE JUMP JUMPDEST PUSH1 0xD SLOAD DUP2 GT ISZERO DUP1 PUSH2 0x3081 JUMPI JUMPDEST PUSH2 0x2FBF JUMPI JUMPDEST POP PUSH2 0x991 PUSH2 0x7CF JUMP JUMPDEST DUP1 PUSH1 0x0 MSTORE PUSH1 0x16 PUSH1 0x20 MSTORE PUSH1 0x40 PUSH1 0x0 KECCAK256 PUSH2 0x2FD5 PUSH2 0x5B0 JUMP JUMPDEST DUP2 SLOAD DUP2 MSTORE PUSH1 0x1 DUP3 ADD SLOAD PUSH2 0x2FF0 SWAP1 PUSH1 0x1 PUSH1 0x1 PUSH1 0xA0 SHL SUB AND PUSH2 0x1405 JUMP JUMPDEST PUSH2 0x2FFC PUSH1 0x2 DUP4 ADD PUSH2 0x895 JUMP JUMPDEST PUSH1 0x40 DUP3 ADD MSTORE PUSH2 0x300D PUSH1 0x3 DUP4 ADD PUSH2 0x895 JUMP JUMPDEST PUSH1 0x60 DUP3 ADD MSTORE PUSH2 0x140 PUSH1 0xA PUSH2 0x3023 PUSH1 0x4 DUP6 ADD PUSH2 0x153D JUMP JUMPDEST SWAP4 PUSH1 0x80 DUP5 ADD SWAP5 DUP6 MSTORE PUSH2 0x3037 PUSH1 0x5 DUP3 ADD PUSH2 0x895 JUMP JUMPDEST PUSH1 0xA0 DUP6 ADD MSTORE PUSH1 0x6 DUP2 ADD SLOAD PUSH1 0xC0 DUP6 ADD MSTORE PUSH1 0x7 DUP2 ADD SLOAD PUSH1 0xE0 DUP6 ADD MSTORE PUSH1 0x8 DUP2 ADD SLOAD PUSH2 0x100 DUP6 ADD MSTORE PUSH2 0x306C PUSH2 0x112C PUSH1 0x9 DUP4 ADD SLOAD PUSH1 0xFF AND SWAP1 JUMP JUMPDEST ADD SLOAD SWAP2 ADD MSTORE MLOAD MLOAD ISZERO PUSH2 0x2FB6 JUMPI PUSH2 0x991 SWAP1 PUSH2 0x4098 JUMP JUMPDEST POP DUP1 ISZERO ISZERO PUSH2 0x2FB1 JUMP JUMPDEST PUSH4 0x4E487B71 PUSH1 0xE0 SHL PUSH1 0x0 MSTORE PUSH1 0x11 PUSH1 0x4 MSTORE PUSH1 0x24 PUSH1 0x0 REVERT JUMPDEST SWAP1 PUSH1 0x2 DUP3 ADD DUP1 SWAP3 GT PUSH2 0xBC4 JUMPI JUMP JUMPDEST SWAP1 PUSH1 0x3 DUP3 ADD DUP1 SWAP3 GT PUSH2 0xBC4 JUMPI JUMP JUMPDEST SWAP1 PUSH1 0x1 DUP3 ADD DUP1 SWAP3 GT PUSH2 0xBC4 JUMPI JUMP JUMPDEST PUSH1 0x30 ADD SWAP1 DUP2 PUSH1 0x30 GT PUSH2 0xBC4 JUMPI JUMP JUMPDEST SWAP1 PUSH1 0xC DUP3 ADD DUP1 SWAP3 GT PUSH2 0xBC4 JUMPI JUMP JUMPDEST PUSH1 0x2 ADD SWAP1 DUP2 PUSH1 0x2 GT PUSH2 0xBC4 JUMPI JUMP JUMPDEST PUSH1 0x3 ADD SWAP1 DUP2 PUSH1 0x3 GT PUSH2 0xBC4 JUMPI JUMP JUMPDEST SWAP2 SWAP1 DUP3 ADD DUP1 SWAP3 GT PUSH2 0xBC4 JUMPI JUMP JUMPDEST ISZERO PUSH2 0x3116 JUMPI JUMP JUMPDEST PUSH1 0x40 MLOAD PUSH3 0x461BCD PUSH1 0xE5 SHL DUP2 MSTORE PUSH1 0x20 PUSH1 0x4 DUP3 ADD MSTORE PUSH1 0x10 PUSH1 0x24 DUP3 ADD MSTORE PUSH16 0x125B9D985B1A59081D1BDAD95B881251 PUSH1 0x82 SHL PUSH1 0x44 DUP3 ADD MSTORE PUSH1 0x64 SWAP1 REVERT JUMPDEST ISZERO PUSH2 0x3155 JUMPI JUMP JUMPDEST PUSH1 0x40 MLOAD PUSH3 0x461BCD PUSH1 0xE5 SHL DUP2 MSTORE PUSH1 0x20 PUSH1 0x4 DUP3 ADD MSTORE PUSH1 0xC PUSH1 0x24 DUP3 ADD MSTORE PUSH12 0x2737BA1030B71030B236B4B7 PUSH1 0xA1 SHL PUSH1 0x44 DUP3 ADD MSTORE PUSH1 0x64 SWAP1 REVERT JUMPDEST ISZERO PUSH2 0x3190 JUMPI JUMP JUMPDEST PUSH1 0x40 MLOAD PUSH3 0x461BCD PUSH1 0xE5 SHL DUP2 MSTORE PUSH1 0x20 PUSH1 0x4 DUP3 ADD MSTORE PUSH1 0x1E PUSH1 0x24 DUP3 ADD MSTORE PUSH32 0x43616E6E6F742072656D6F7665206F776E65722066726F6D2061646D696E0000 PUSH1 0x44 DUP3 ADD MSTORE PUSH1 0x64 SWAP1 REVERT JUMPDEST ISZERO PUSH2 0x31DC JUMPI JUMP JUMPDEST PUSH1 0x40 MLOAD PUSH3 0x461BCD PUSH1 0xE5 SHL DUP2 MSTORE PUSH1 0x20 PUSH1 0x4 DUP3 ADD MSTORE PUSH1 0x21 PUSH1 0x24 DUP3 ADD MSTORE PUSH32 0x43616E6E6F742072656D6F766520796F757273656C662066726F6D2061646D69 PUSH1 0x44 DUP3 ADD MSTORE PUSH1 0x37 PUSH1 0xF9 SHL PUSH1 0x64 DUP3 ADD MSTORE PUSH1 0x84 SWAP1 REVERT JUMPDEST PUSH1 0x0 NOT DUP2 ADD SWAP2 SWAP1 DUP3 GT PUSH2 0xBC4 JUMPI JUMP JUMPDEST PUSH1 0x1 NOT DUP2 ADD SWAP2 SWAP1 DUP3 GT PUSH2 0xBC4 JUMPI JUMP JUMPDEST SWAP2 SWAP1 DUP3 SUB SWAP2 DUP3 GT PUSH2 0xBC4 JUMPI JUMP JUMPDEST PUSH1 0x14 SLOAD DUP1 ISZERO PUSH2 0x32AA JUMPI PUSH1 0x0 NOT DUP2 ADD SWAP1 DUP1 DUP3 LT ISZERO PUSH2 0x18CE JUMPI PUSH32 0xCE6D7B5282BD9A3661AE061FEED1DBDA4E52AB073B1F9285BE6E155D9C38D4EB SWAP1 PUSH1 0x14 PUSH1 0x0 MSTORE ADD PUSH1 0x1 PUSH1 0x1 PUSH1 0x60 SHL SUB PUSH1 0xA0 SHL DUP2 SLOAD AND SWAP1 SSTORE PUSH1 0x14 SSTORE JUMP JUMPDEST PUSH4 0x4E487B71 PUSH1 0xE0 SHL PUSH1 0x0 MSTORE PUSH1 0x31 PUSH1 0x4 MSTORE PUSH1 0x24 PUSH1 0x0 REVERT JUMPDEST PUSH1 0x13 SLOAD DUP1 ISZERO PUSH2 0x32AA JUMPI PUSH1 0x0 NOT DUP2 ADD SWAP1 DUP1 DUP3 LT ISZERO PUSH2 0x18CE JUMPI PUSH32 0x66DE8FFDA797E3DE9C05E8FC57B3BF0EC28A930D40B0D285D93C06501CF6A08F SWAP1 PUSH1 0x13 PUSH1 0x0 MSTORE ADD PUSH1 0x1 PUSH1 0x1 PUSH1 0x60 SHL SUB PUSH1 0xA0 SHL DUP2 SLOAD AND SWAP1 SSTORE PUSH1 0x13 SSTORE JUMP JUMPDEST SWAP1 PUSH2 0x3E8 SWAP2 DUP3 DUP2 MUL SWAP3 DUP2 DUP5 DIV EQ SWAP1 ISZERO OR ISZERO PUSH2 0xBC4 JUMPI JUMP JUMPDEST PUSH1 0x2 DUP2 SWAP1 SHL SWAP2 SWAP1 PUSH1 0x1 PUSH1 0x1 PUSH1 0xFE SHL SUB DUP2 AND SUB PUSH2 0xBC4 JUMPI JUMP JUMPDEST SWAP1 DUP2 PUSH1 0x1 SHL SWAP2 DUP1 DUP4 DIV PUSH1 0x2 EQ SWAP1 ISZERO OR ISZERO PUSH2 0xBC4 JUMPI JUMP JUMPDEST DUP2 DUP2 MUL SWAP3 SWAP2 DUP2 ISZERO SWAP2 DUP5 DIV EQ OR ISZERO PUSH2 0xBC4 JUMPI JUMP JUMPDEST DUP1 MLOAD DUP3 LT ISZERO PUSH2 0x18CE JUMPI PUSH1 0x20 SWAP2 PUSH1 0x5 SHL ADD ADD SWAP1 JUMP JUMPDEST SWAP2 SWAP1 SWAP2 DUP1 MLOAD DUP4 MLOAD DUP1 DUP3 SUB PUSH2 0x341D JUMPI POP POP DUP1 MLOAD SWAP1 PUSH2 0x33B5 PUSH2 0x339F DUP4 PUSH2 0x1196 JUMP JUMPDEST SWAP3 PUSH2 0x33AD PUSH1 0x40 MLOAD SWAP5 DUP6 PUSH2 0x58F JUMP JUMPDEST DUP1 DUP5 MSTORE PUSH2 0x1196 JUMP JUMPDEST PUSH1 0x20 SWAP2 SWAP1 PUSH1 0x1F NOT ADD CALLDATASIZE DUP5 DUP5 ADD CALLDATACOPY PUSH1 0x0 JUMPDEST DUP2 MLOAD DUP2 LT ISZERO PUSH2 0x3415 JUMPI PUSH1 0x5 DUP2 SWAP1 SHL DUP3 DUP2 ADD DUP5 ADD MLOAD SWAP1 DUP8 ADD DUP5 ADD MLOAD PUSH1 0x0 SWAP1 DUP2 MSTORE PUSH1 0x20 DUP2 DUP2 MSTORE PUSH1 0x40 DUP1 DUP4 KECCAK256 PUSH1 0x1 PUSH1 0x1 PUSH1 0xA0 SHL SUB SWAP1 SWAP5 AND DUP4 MSTORE SWAP3 SWAP1 MSTORE KECCAK256 SLOAD PUSH1 0x1 SWAP2 SWAP1 PUSH2 0x340E DUP3 DUP8 PUSH2 0x336C JUMP JUMPDEST MSTORE ADD PUSH2 0x33C5 JUMP JUMPDEST POP SWAP2 SWAP4 POP POP POP JUMP JUMPDEST PUSH1 0x40 MLOAD PUSH4 0x5B059991 PUSH1 0xE0 SHL DUP2 MSTORE PUSH1 0x4 DUP2 ADD SWAP2 SWAP1 SWAP2 MSTORE PUSH1 0x24 DUP2 ADD SWAP2 SWAP1 SWAP2 MSTORE PUSH1 0x44 SWAP1 REVERT JUMPDEST ISZERO PUSH2 0x3446 JUMPI JUMP JUMPDEST PUSH1 0x40 MLOAD PUSH3 0x461BCD PUSH1 0xE5 SHL DUP2 MSTORE PUSH1 0x20 PUSH1 0x4 DUP3 ADD MSTORE PUSH1 0xE PUSH1 0x24 DUP3 ADD MSTORE PUSH14 0x139BDD081D1A1948185C9D1A5CDD PUSH1 0x92 SHL PUSH1 0x44 DUP3 ADD MSTORE PUSH1 0x64 SWAP1 REVERT JUMPDEST ISZERO PUSH2 0x3483 JUMPI JUMP JUMPDEST PUSH1 0x40 MLOAD PUSH3 0x461BCD PUSH1 0xE5 SHL DUP2 MSTORE PUSH1 0x20 PUSH1 0x4 DUP3 ADD MSTORE PUSH1 0xF PUSH1 0x24 DUP3 ADD MSTORE PUSH15 0x139BDD081DDA1A5D195B1A5CDD1959 PUSH1 0x8A SHL PUSH1 0x44 DUP3 ADD MSTORE PUSH1 0x64 SWAP1 REVERT JUMPDEST ISZERO PUSH2 0x34C1 JUMPI JUMP JUMPDEST PUSH1 0x40 MLOAD PUSH3 0x461BCD PUSH1 0xE5 SHL DUP2 MSTORE PUSH1 0x20 PUSH1 0x4 DUP3 ADD MSTORE PUSH1 0x15 PUSH1 0x24 DUP3 ADD MSTORE PUSH21 0x417274776F726B206973206E6F7420616374697665 PUSH1 0x58 SHL PUSH1 0x44 DUP3 ADD MSTORE PUSH1 0x64 SWAP1 REVERT JUMPDEST ISZERO PUSH2 0x3505 JUMPI JUMP JUMPDEST PUSH1 0x40 MLOAD PUSH3 0x461BCD PUSH1 0xE5 SHL DUP2 MSTORE PUSH1 0x20 PUSH1 0x4 DUP3 ADD MSTORE PUSH1 0x1D PUSH1 0x24 DUP3 ADD MSTORE PUSH32 0x416D6F756E74206D7573742062652067726561746572207468616E2030000000 PUSH1 0x44 DUP3 ADD MSTORE PUSH1 0x64 SWAP1 REVERT JUMPDEST ISZERO PUSH2 0x3551 JUMPI JUMP JUMPDEST PUSH1 0x40 MLOAD PUSH3 0x461BCD PUSH1 0xE5 SHL DUP2 MSTORE PUSH1 0x20 PUSH1 0x4 DUP3 ADD MSTORE PUSH1 0x12 PUSH1 0x24 DUP3 ADD MSTORE PUSH18 0x45786365656473206D617820737570706C79 PUSH1 0x70 SHL PUSH1 0x44 DUP3 ADD MSTORE PUSH1 0x64 SWAP1 REVERT JUMPDEST ISZERO PUSH2 0x3592 JUMPI JUMP JUMPDEST PUSH1 0x40 MLOAD PUSH3 0x461BCD PUSH1 0xE5 SHL DUP2 MSTORE PUSH1 0x20 PUSH1 0x4 DUP3 ADD MSTORE PUSH1 0x14 PUSH1 0x24 DUP3 ADD MSTORE PUSH20 0x125B9CDD59999A58DA595B9D081C185E5B595B9D PUSH1 0x62 SHL PUSH1 0x44 DUP3 ADD MSTORE PUSH1 0x64 SWAP1 REVERT JUMPDEST PUSH1 0x40 MLOAD SWAP1 PUSH1 0x20 DUP3 ADD DUP3 DUP2 LT PUSH1 0x1 PUSH1 0x1 PUSH1 0x40 SHL SUB DUP3 GT OR PUSH2 0x554 JUMPI PUSH1 0x40 MSTORE PUSH1 0x0 DUP3 MSTORE JUMP JUMPDEST DUP1 SLOAD PUSH1 0x1 PUSH1 0x40 SHL DUP2 LT ISZERO PUSH2 0x554 JUMPI PUSH2 0x360E SWAP2 PUSH1 0x1 DUP3 ADD DUP2 SSTORE PUSH2 0x18F8 JUMP JUMPDEST DUP2 SWAP3 SWAP2 SLOAD SWAP1 PUSH1 0x3 SHL SWAP2 DUP3 SHL SWAP2 PUSH1 0x0 NOT SWAP1 SHL NOT AND OR SWAP1 SSTORE JUMP JUMPDEST PUSH1 0x40 MLOAD RETURNDATASIZE PUSH1 0x0 DUP3 RETURNDATACOPY RETURNDATASIZE SWAP1 REVERT JUMPDEST ISZERO PUSH2 0x3639 JUMPI JUMP JUMPDEST PUSH1 0x40 MLOAD PUSH3 0x461BCD PUSH1 0xE5 SHL DUP2 MSTORE PUSH1 0x20 PUSH1 0x4 DUP3 ADD MSTORE PUSH1 0x13 PUSH1 0x24 DUP3 ADD MSTORE PUSH19 0x105B1C9958591E481DDA1A5D195B1A5CDD1959 PUSH1 0x6A SHL PUSH1 0x44 DUP3 ADD MSTORE PUSH1 0x64 SWAP1 REVERT JUMPDEST PUSH1 0x12 SLOAD SWAP1 PUSH1 0x1 PUSH1 0x40 SHL DUP3 LT ISZERO PUSH2 0x554 JUMPI PUSH1 0x1 DUP3 ADD DUP1 PUSH1 0x12 SSTORE DUP3 LT ISZERO PUSH2 0x18CE JUMPI PUSH1 0x12 PUSH1 0x0 MSTORE PUSH32 0xBB8A6A4669BA250D26CD7A459ECA9D215F8307E33AEBE50379BC5A3617EC3444 SWAP1 SWAP2 ADD DUP1 SLOAD PUSH1 0x1 PUSH1 0x1 PUSH1 0xA0 SHL SUB NOT AND PUSH1 0x1 PUSH1 0x1 PUSH1 0xA0 SHL SUB SWAP1 SWAP3 AND SWAP2 SWAP1 SWAP2 OR SWAP1 SSTORE JUMP JUMPDEST PUSH1 0x14 SLOAD SWAP1 PUSH1 0x1 PUSH1 0x40 SHL DUP3 LT ISZERO PUSH2 0x554 JUMPI PUSH1 0x1 DUP3 ADD DUP1 PUSH1 0x14 SSTORE DUP3 LT ISZERO PUSH2 0x18CE JUMPI PUSH1 0x14 PUSH1 0x0 MSTORE PUSH1 0x0 DUP1 MLOAD PUSH1 0x20 PUSH2 0x53E3 DUP4 CODECOPY DUP2 MLOAD SWAP2 MSTORE SWAP1 SWAP2 ADD DUP1 SLOAD PUSH1 0x1 PUSH1 0x1 PUSH1 0xA0 SHL SUB NOT AND PUSH1 0x1 PUSH1 0x1 PUSH1 0xA0 SHL SUB SWAP1 SWAP3 AND SWAP2 SWAP1 SWAP2 OR SWAP1 SSTORE JUMP JUMPDEST PUSH1 0x13 SLOAD SWAP1 PUSH1 0x1 PUSH1 0x40 SHL DUP3 LT ISZERO PUSH2 0x554 JUMPI PUSH1 0x1 DUP3 ADD DUP1 PUSH1 0x13 SSTORE DUP3 LT ISZERO PUSH2 0x18CE JUMPI PUSH1 0x13 PUSH1 0x0 MSTORE PUSH1 0x0 DUP1 MLOAD PUSH1 0x20 PUSH2 0x53C3 DUP4 CODECOPY DUP2 MLOAD SWAP2 MSTORE SWAP1 SWAP2 ADD DUP1 SLOAD PUSH1 0x1 PUSH1 0x1 PUSH1 0xA0 SHL SUB NOT AND PUSH1 0x1 PUSH1 0x1 PUSH1 0xA0 SHL SUB SWAP1 SWAP3 AND SWAP2 SWAP1 SWAP2 OR SWAP1 SSTORE JUMP JUMPDEST ISZERO PUSH2 0x378C JUMPI JUMP JUMPDEST PUSH1 0x40 MLOAD PUSH3 0x461BCD PUSH1 0xE5 SHL DUP2 MSTORE PUSH1 0x20 PUSH1 0x4 DUP3 ADD MSTORE PUSH1 0x10 PUSH1 0x24 DUP3 ADD MSTORE PUSH16 0x20B63932B0B23C9030B71030B236B4B7 PUSH1 0x81 SHL PUSH1 0x44 DUP3 ADD MSTORE PUSH1 0x64 SWAP1 REVERT JUMPDEST ISZERO PUSH2 0x37CB JUMPI JUMP JUMPDEST PUSH1 0x40 MLOAD PUSH3 0x461BCD PUSH1 0xE5 SHL DUP2 MSTORE PUSH1 0x20 PUSH1 0x4 DUP3 ADD MSTORE PUSH1 0xF PUSH1 0x24 DUP3 ADD MSTORE PUSH15 0x496E76616C69642061646472657373 PUSH1 0x88 SHL PUSH1 0x44 DUP3 ADD MSTORE PUSH1 0x64 SWAP1 REVERT JUMPDEST ISZERO PUSH2 0x3809 JUMPI JUMP JUMPDEST PUSH1 0x40 MLOAD PUSH3 0x461BCD PUSH1 0xE5 SHL DUP2 MSTORE PUSH1 0x20 PUSH1 0x4 DUP3 ADD MSTORE PUSH1 0x17 PUSH1 0x24 DUP3 ADD MSTORE PUSH32 0x41646472657373206E6F742077686974656C6973746564000000000000000000 PUSH1 0x44 DUP3 ADD MSTORE PUSH1 0x64 SWAP1 REVERT JUMPDEST ISZERO PUSH2 0x3855 JUMPI JUMP JUMPDEST PUSH1 0x40 MLOAD PUSH3 0x461BCD PUSH1 0xE5 SHL DUP2 MSTORE PUSH1 0x20 PUSH1 0x4 DUP3 ADD MSTORE PUSH1 0x22 PUSH1 0x24 DUP3 ADD MSTORE PUSH32 0x43616E6E6F742072656D6F7665206F776E65722066726F6D2077686974656C69 PUSH1 0x44 DUP3 ADD MSTORE PUSH2 0x1CDD PUSH1 0xF2 SHL PUSH1 0x64 DUP3 ADD MSTORE PUSH1 0x84 SWAP1 REVERT JUMPDEST DUP2 DUP2 LT PUSH2 0x38B0 JUMPI POP POP JUMP JUMPDEST PUSH1 0x0 DUP2 SSTORE PUSH1 0x1 ADD PUSH2 0x38A5 JUMP JUMPDEST SWAP1 PUSH1 0x1F DUP3 GT PUSH2 0x38C9 JUMPI POP POP JUMP JUMPDEST PUSH2 0x80E SWAP2 PUSH1 0x2 PUSH1 0x0 MSTORE PUSH32 0x405787FA12A823E0F2B7631CC41B3BA8828B3321CA811111FA75CD3AA3BB5ACE SWAP1 PUSH1 0x20 PUSH1 0x1F DUP5 ADD PUSH1 0x5 SHR DUP4 ADD SWAP4 LT PUSH2 0x3913 JUMPI JUMPDEST PUSH1 0x1F ADD PUSH1 0x5 SHR ADD SWAP1 PUSH2 0x38A5 JUMP JUMPDEST SWAP1 SWAP2 POP DUP2 SWAP1 PUSH2 0x3906 JUMP JUMPDEST SWAP2 SWAP1 PUSH1 0x1F DUP2 GT PUSH2 0x392C JUMPI POP POP POP JUMP JUMPDEST PUSH2 0x80E SWAP3 PUSH1 0x0 MSTORE PUSH1 0x20 PUSH1 0x0 KECCAK256 SWAP1 PUSH1 0x20 PUSH1 0x1F DUP5 ADD PUSH1 0x5 SHR DUP4 ADD SWAP4 LT PUSH2 0x3913 JUMPI PUSH1 0x1F ADD PUSH1 0x5 SHR ADD SWAP1 PUSH2 0x38A5 JUMP JUMPDEST SWAP2 SWAP1 SWAP2 DUP3 MLOAD PUSH1 0x1 PUSH1 0x1 PUSH1 0x40 SHL SUB DUP2 GT PUSH2 0x554 JUMPI PUSH2 0x397E DUP2 PUSH2 0x3978 DUP5 SLOAD PUSH2 0x795 JUMP JUMPDEST DUP5 PUSH2 0x391D JUMP JUMPDEST PUSH1 0x20 DUP1 PUSH1 0x1F DUP4 GT PUSH1 0x1 EQ PUSH2 0x39B5 JUMPI POP DUP2 SWAP1 PUSH2 0x39B1 SWAP4 SWAP5 SWAP6 PUSH1 0x0 SWAP3 PUSH2 0x6C1 JUMPI POP POP DUP2 PUSH1 0x1 SHL SWAP2 PUSH1 0x0 NOT SWAP1 PUSH1 0x3 SHL SHR NOT AND OR SWAP1 JUMP JUMPDEST SWAP1 SSTORE JUMP JUMPDEST SWAP1 PUSH1 0x1F NOT DUP4 AND SWAP6 PUSH2 0x39CB DUP6 PUSH1 0x0 MSTORE PUSH1 0x20 PUSH1 0x0 KECCAK256 SWAP1 JUMP JUMPDEST SWAP3 PUSH1 0x0 SWAP1 JUMPDEST DUP9 DUP3 LT PUSH2 0x3A08 JUMPI POP POP DUP4 PUSH1 0x1 SWAP6 SWAP7 SWAP8 LT PUSH2 0x39EF JUMPI JUMPDEST POP POP POP DUP2 SHL ADD SWAP1 SSTORE JUMP JUMPDEST ADD MLOAD PUSH1 0x0 NOT PUSH1 0xF8 DUP5 PUSH1 0x3 SHL AND SHR NOT AND SWAP1 SSTORE CODESIZE DUP1 DUP1 PUSH2 0x39E5 JUMP JUMPDEST DUP1 PUSH1 0x1 DUP6 SWAP7 DUP3 SWAP5 SWAP7 DUP7 ADD MLOAD DUP2 SSTORE ADD SWAP6 ADD SWAP4 ADD SWAP1 PUSH2 0x39D0 JUMP JUMPDEST SWAP2 PUSH2 0x3A49 SWAP1 PUSH2 0x3A3B PUSH2 0x991 SWAP6 SWAP4 PUSH1 0x60 DUP7 MSTORE PUSH1 0x60 DUP7 ADD SWAP1 PUSH2 0x95B JUMP JUMPDEST SWAP1 DUP5 DUP3 SUB PUSH1 0x20 DUP7 ADD MSTORE PUSH2 0x95B JUMP JUMPDEST SWAP2 PUSH1 0x40 DUP2 DUP5 SUB SWAP2 ADD MSTORE PUSH2 0x95B JUMP JUMPDEST SWAP4 PUSH2 0x3C07 PUSH32 0x4DDC8815460A355E3D190E794EC142559A99D61AE53CF57DF333C9286E76C548 SWAP4 SWAP7 SWAP3 SWAP7 PUSH2 0x3A88 PUSH2 0x44FE JUMP JUMPDEST PUSH2 0x3A90 PUSH2 0x451C JUMP JUMPDEST PUSH1 0xFF PUSH1 0xE SLOAD AND PUSH2 0x3C2C JUMPI JUMPDEST PUSH2 0x3AA6 DUP5 ISZERO ISZERO PUSH2 0x3C67 JUMP JUMPDEST PUSH2 0x3AB2 DUP8 MLOAD ISZERO ISZERO PUSH2 0x3CBD JUMP JUMPDEST PUSH2 0x3ABE DUP2 MLOAD ISZERO ISZERO PUSH2 0x3D01 JUMP JUMPDEST PUSH2 0x3ACD PUSH2 0x4000 DUP3 MLOAD GT ISZERO PUSH2 0x3D4D JUMP JUMPDEST PUSH2 0x3AD9 DUP7 MLOAD ISZERO ISZERO PUSH2 0x3D99 JUMP JUMPDEST PUSH2 0x3AEA PUSH2 0x3AE5 DUP8 PUSH2 0x46B5 JUMP JUMPDEST PUSH2 0x3DE5 JUMP JUMPDEST PUSH2 0x3AFD PUSH2 0x3AF8 PUSH1 0xD SLOAD PUSH2 0x3E26 JUMP JUMPDEST PUSH1 0xD SSTORE JUMP JUMPDEST PUSH2 0x3B70 PUSH1 0xD SLOAD SWAP9 DUP10 SWAP8 PUSH2 0x3B0E PUSH2 0x5B0 JUMP JUMPDEST DUP10 DUP2 MSTORE CALLER PUSH1 0x20 DUP3 ADD MSTORE SWAP2 DUP11 PUSH1 0x40 DUP5 ADD MSTORE PUSH1 0x60 DUP4 ADD MSTORE DUP4 PUSH1 0x80 DUP4 ADD MSTORE PUSH1 0xA0 DUP3 ADD MSTORE DUP5 PUSH1 0xC0 DUP3 ADD MSTORE DUP6 PUSH1 0xE0 DUP3 ADD MSTORE PUSH1 0x0 PUSH2 0x100 DUP3 ADD MSTORE PUSH2 0x3B50 PUSH2 0x120 DUP3 ADD PUSH1 0x1 SWAP1 MSTORE JUMP JUMPDEST TIMESTAMP PUSH2 0x140 DUP3 ADD MSTORE PUSH2 0x3B6B DUP9 PUSH1 0x0 MSTORE PUSH1 0x16 PUSH1 0x20 MSTORE PUSH1 0x40 PUSH1 0x0 KECCAK256 SWAP1 JUMP JUMPDEST PUSH2 0x3EDA JUMP JUMPDEST PUSH2 0x3BA7 CALLER PUSH2 0x3B88 DUP9 PUSH1 0x0 MSTORE PUSH1 0x17 PUSH1 0x20 MSTORE PUSH1 0x40 PUSH1 0x0 KECCAK256 SWAP1 JUMP JUMPDEST DUP1 SLOAD PUSH1 0x1 PUSH1 0x1 PUSH1 0xA0 SHL SUB NOT AND PUSH1 0x1 PUSH1 0x1 PUSH1 0xA0 SHL SUB SWAP1 SWAP3 AND SWAP2 SWAP1 SWAP2 OR SWAP1 SSTORE JUMP JUMPDEST CALLER PUSH1 0x0 SWAP1 DUP2 MSTORE PUSH1 0x18 PUSH1 0x20 MSTORE PUSH1 0x40 SWAP1 KECCAK256 PUSH2 0x3BC1 SWAP1 DUP8 SWAP1 PUSH2 0x35F1 JUMP JUMPDEST CALLER PUSH1 0x0 SWAP1 DUP2 MSTORE PUSH1 0x15 PUSH1 0x20 MSTORE PUSH1 0x40 SWAP1 KECCAK256 PUSH1 0x3 SWAP1 PUSH1 0x5 DUP2 ADD PUSH2 0x3BE5 PUSH2 0x1A91 DUP3 SLOAD PUSH1 0xFF AND SWAP1 JUMP JUMPDEST PUSH2 0x3C14 JUMPI JUMPDEST POP ADD PUSH2 0x3BF6 DUP2 SLOAD PUSH2 0x3E26 JUMP JUMPDEST SWAP1 SSTORE MLOAD PUSH1 0x40 MLOAD SWAP4 DUP5 SWAP4 CALLER SWAP9 DUP6 PUSH2 0x3F9C JUMP JUMPDEST SUB SWAP1 LOG3 PUSH2 0x991 PUSH1 0x1 PUSH1 0x6 SSTORE JUMP JUMPDEST DUP1 SLOAD PUSH1 0xFF NOT AND PUSH1 0x1 OR SWAP1 SSTORE PUSH1 0x0 PUSH1 0x4 DUP3 ADD SSTORE CODESIZE PUSH2 0x3BEA JUMP JUMPDEST CALLER PUSH1 0x0 MSTORE PUSH1 0x10 PUSH1 0x20 MSTORE PUSH1 0xFF PUSH1 0x40 PUSH1 0x0 KECCAK256 SLOAD AND DUP1 ISZERO PUSH2 0x3C53 JUMPI JUMPDEST PUSH2 0x3C4E SWAP1 PUSH2 0x347C JUMP JUMPDEST PUSH2 0x3A9B JUMP JUMPDEST POP PUSH1 0x5 SLOAD PUSH1 0x1 PUSH1 0x1 PUSH1 0xA0 SHL SUB AND CALLER EQ PUSH2 0x3C45 JUMP JUMPDEST ISZERO PUSH2 0x3C6E JUMPI JUMP JUMPDEST PUSH1 0x40 MLOAD PUSH3 0x461BCD PUSH1 0xE5 SHL DUP2 MSTORE PUSH1 0x20 PUSH1 0x4 DUP3 ADD MSTORE PUSH1 0x21 PUSH1 0x24 DUP3 ADD MSTORE PUSH32 0x4D617820737570706C79206D7573742062652067726561746572207468616E20 PUSH1 0x44 DUP3 ADD MSTORE PUSH1 0x3 PUSH1 0xFC SHL PUSH1 0x64 DUP3 ADD MSTORE PUSH1 0x84 SWAP1 REVERT JUMPDEST ISZERO PUSH2 0x3CC4 JUMPI JUMP JUMPDEST PUSH1 0x40 MLOAD PUSH3 0x461BCD PUSH1 0xE5 SHL DUP2 MSTORE PUSH1 0x20 PUSH1 0x4 DUP3 ADD MSTORE PUSH1 0x15 PUSH1 0x24 DUP3 ADD MSTORE PUSH21 0x5469746C652063616E6E6F7420626520656D707479 PUSH1 0x58 SHL PUSH1 0x44 DUP3 ADD MSTORE PUSH1 0x64 SWAP1 REVERT JUMPDEST ISZERO PUSH2 0x3D08 JUMPI JUMP JUMPDEST PUSH1 0x40 MLOAD PUSH3 0x461BCD PUSH1 0xE5 SHL DUP2 MSTORE PUSH1 0x20 PUSH1 0x4 DUP3 ADD MSTORE PUSH1 0x1A PUSH1 0x24 DUP3 ADD MSTORE PUSH32 0x496D61676520646174612063616E6E6F7420626520656D707479000000000000 PUSH1 0x44 DUP3 ADD MSTORE PUSH1 0x64 SWAP1 REVERT JUMPDEST ISZERO PUSH2 0x3D54 JUMPI JUMP JUMPDEST PUSH1 0x40 MLOAD PUSH3 0x461BCD PUSH1 0xE5 SHL DUP2 MSTORE PUSH1 0x20 PUSH1 0x4 DUP3 ADD MSTORE PUSH1 0x1A PUSH1 0x24 DUP3 ADD MSTORE PUSH32 0x496D61676520746F6F206C61726765202831364B42206D617829000000000000 PUSH1 0x44 DUP3 ADD MSTORE PUSH1 0x64 SWAP1 REVERT JUMPDEST ISZERO PUSH2 0x3DA0 JUMPI JUMP JUMPDEST PUSH1 0x40 MLOAD PUSH3 0x461BCD PUSH1 0xE5 SHL DUP2 MSTORE PUSH1 0x20 PUSH1 0x4 DUP3 ADD MSTORE PUSH1 0x1A PUSH1 0x24 DUP3 ADD MSTORE PUSH32 0x496D61676520747970652063616E6E6F7420626520656D707479000000000000 PUSH1 0x44 DUP3 ADD MSTORE PUSH1 0x64 SWAP1 REVERT JUMPDEST ISZERO PUSH2 0x3DEC JUMPI JUMP JUMPDEST PUSH1 0x40 MLOAD PUSH3 0x461BCD PUSH1 0xE5 SHL DUP2 MSTORE PUSH1 0x20 PUSH1 0x4 DUP3 ADD MSTORE PUSH1 0x12 PUSH1 0x24 DUP3 ADD MSTORE PUSH18 0x496E76616C696420696D6167652074797065 PUSH1 0x70 SHL PUSH1 0x44 DUP3 ADD MSTORE PUSH1 0x64 SWAP1 REVERT JUMPDEST PUSH1 0x0 NOT DUP2 EQ PUSH2 0xBC4 JUMPI PUSH1 0x1 ADD SWAP1 JUMP JUMPDEST SWAP2 SWAP1 SWAP2 DUP3 MLOAD PUSH1 0x1 PUSH1 0x1 PUSH1 0x40 SHL SUB DUP2 GT PUSH2 0x554 JUMPI PUSH2 0x3E56 DUP2 PUSH2 0x3978 DUP5 SLOAD PUSH2 0x795 JUMP JUMPDEST PUSH1 0x20 DUP1 PUSH1 0x1F DUP4 GT PUSH1 0x1 EQ PUSH2 0x3E89 JUMPI POP DUP2 SWAP1 PUSH2 0x39B1 SWAP4 SWAP5 SWAP6 PUSH1 0x0 SWAP3 PUSH2 0x6C1 JUMPI POP POP DUP2 PUSH1 0x1 SHL SWAP2 PUSH1 0x0 NOT SWAP1 PUSH1 0x3 SHL SHR NOT AND OR SWAP1 JUMP JUMPDEST SWAP1 PUSH1 0x1F NOT DUP4 AND SWAP6 PUSH2 0x3E9F DUP6 PUSH1 0x0 MSTORE PUSH1 0x20 PUSH1 0x0 KECCAK256 SWAP1 JUMP JUMPDEST SWAP3 PUSH1 0x0 SWAP1 JUMPDEST DUP9 DUP3 LT PUSH2 0x3EC2 JUMPI POP POP DUP4 PUSH1 0x1 SWAP6 SWAP7 SWAP8 LT PUSH2 0x39EF JUMPI POP POP POP DUP2 SHL ADD SWAP1 SSTORE JUMP JUMPDEST DUP1 PUSH1 0x1 DUP6 SWAP7 DUP3 SWAP5 SWAP7 DUP7 ADD MLOAD DUP2 SSTORE ADD SWAP6 ADD SWAP4 ADD SWAP1 PUSH2 0x3EA4 JUMP JUMPDEST DUP2 MLOAD DUP2 SSTORE PUSH1 0x20 DUP3 ADD MLOAD PUSH1 0x1 DUP3 ADD DUP1 SLOAD PUSH1 0x1 PUSH1 0x1 PUSH1 0xA0 SHL SUB NOT AND PUSH1 0x1 PUSH1 0x1 PUSH1 0xA0 SHL SUB SWAP1 SWAP3 AND SWAP2 SWAP1 SWAP2 OR SWAP1 SSTORE SWAP1 PUSH1 0xA SWAP1 PUSH2 0x140 SWAP1 PUSH2 0x3F1D PUSH1 0x40 DUP3 ADD MLOAD PUSH1 0x2 DUP7 ADD PUSH2 0x3957 JUMP JUMPDEST PUSH2 0x3F2E PUSH1 0x60 DUP3 ADD MLOAD PUSH1 0x3 DUP7 ADD PUSH2 0x3957 JUMP JUMPDEST PUSH2 0x3F3F PUSH1 0x80 DUP3 ADD MLOAD PUSH1 0x4 DUP7 ADD PUSH2 0x3E35 JUMP JUMPDEST PUSH2 0x3F50 PUSH1 0xA0 DUP3 ADD MLOAD PUSH1 0x5 DUP7 ADD PUSH2 0x3957 JUMP JUMPDEST PUSH1 0xC0 DUP2 ADD MLOAD PUSH1 0x6 DUP6 ADD SSTORE PUSH1 0xE0 DUP2 ADD MLOAD PUSH1 0x7 DUP6 ADD SSTORE PUSH2 0x100 DUP2 ADD MLOAD PUSH1 0x8 DUP6 ADD SSTORE PUSH2 0x3F95 PUSH2 0x3F80 PUSH2 0x120 DUP4 ADD MLOAD ISZERO ISZERO SWAP1 JUMP JUMPDEST PUSH1 0x9 DUP7 ADD SWAP1 PUSH1 0xFF DUP1 NOT DUP4 SLOAD AND SWAP2 ISZERO ISZERO AND OR SWAP1 SSTORE JUMP JUMPDEST ADD MLOAD SWAP2 ADD SSTORE JUMP JUMPDEST SWAP1 SWAP3 PUSH2 0x3FB5 PUSH1 0x60 SWAP4 SWAP7 SWAP6 SWAP5 PUSH1 0x80 DUP5 MSTORE PUSH1 0x80 DUP5 ADD SWAP1 PUSH2 0x95B JUMP JUMPDEST SWAP6 PUSH1 0x20 DUP4 ADD MSTORE PUSH1 0x40 DUP3 ADD MSTORE ADD MSTORE JUMP JUMPDEST ISZERO PUSH2 0x3FCB JUMPI JUMP JUMPDEST PUSH1 0x40 MLOAD PUSH3 0x461BCD PUSH1 0xE5 SHL DUP2 MSTORE PUSH1 0x20 PUSH1 0x4 DUP3 ADD MSTORE PUSH1 0x16 PUSH1 0x24 DUP3 ADD MSTORE PUSH22 0x1059191C995CDCC81B9BDD081A5B9D195C995CDD1959 PUSH1 0x52 SHL PUSH1 0x44 DUP3 ADD MSTORE PUSH1 0x64 SWAP1 REVERT JUMPDEST ISZERO PUSH2 0x4010 JUMPI JUMP JUMPDEST PUSH1 0x40 MLOAD PUSH3 0x461BCD PUSH1 0xE5 SHL DUP2 MSTORE PUSH1 0x20 PUSH1 0x4 DUP3 ADD MSTORE PUSH1 0x1B PUSH1 0x24 DUP3 ADD MSTORE PUSH32 0x4164647265737320616C72656164792077686974656C69737465640000000000 PUSH1 0x44 DUP3 ADD MSTORE PUSH1 0x64 SWAP1 REVERT JUMPDEST PUSH1 0x5 SLOAD PUSH1 0x1 PUSH1 0x1 PUSH1 0xA0 SHL SUB AND CALLER SUB PUSH2 0x4069 JUMPI JUMP JUMPDEST PUSH1 0x40 MLOAD PUSH4 0x118CDAA7 PUSH1 0xE0 SHL DUP2 MSTORE CALLER PUSH1 0x4 DUP3 ADD MSTORE PUSH1 0x24 SWAP1 REVERT JUMPDEST SWAP1 PUSH2 0x4094 PUSH1 0x20 SWAP3 DUP3 DUP2 MLOAD SWAP5 DUP6 SWAP3 ADD PUSH2 0x938 JUMP JUMPDEST ADD SWAP1 JUMP JUMPDEST PUSH2 0x40AC DUP2 PUSH1 0x0 MSTORE PUSH1 0x16 PUSH1 0x20 MSTORE PUSH1 0x40 PUSH1 0x0 KECCAK256 SWAP1 JUMP JUMPDEST PUSH2 0x40B5 SWAP1 PUSH2 0x2F04 JUMP JUMPDEST PUSH1 0xA0 DUP2 ADD SWAP2 DUP3 MLOAD PUSH1 0x80 DUP4 ADD SWAP3 DUP4 MLOAD PUSH2 0x40CC SWAP1 PUSH2 0x4875 JUMP JUMPDEST PUSH1 0x40 MLOAD PUSH11 0x646174613A696D6167652F PUSH1 0xA8 SHL PUSH1 0x20 DUP3 ADD MSTORE SWAP3 DUP4 SWAP2 SWAP1 PUSH1 0x2B DUP4 ADD PUSH2 0x40F4 SWAP2 PUSH2 0x4081 JUMP JUMPDEST PUSH8 0xED8985CD94D8D0B PUSH1 0xC2 SHL DUP2 MSTORE PUSH1 0x8 ADD PUSH2 0x410E SWAP2 PUSH2 0x4081 JUMP JUMPDEST SUB SWAP5 PUSH1 0x1F NOT SWAP6 DUP7 DUP2 ADD DUP5 MSTORE PUSH2 0x4123 SWAP1 DUP5 PUSH2 0x58F JUMP JUMPDEST PUSH1 0x40 DUP3 ADD MLOAD SWAP4 PUSH2 0x4132 SWAP1 PUSH2 0x4A6C JUMP JUMPDEST SWAP5 PUSH1 0x60 DUP4 ADD MLOAD SWAP4 PUSH1 0xE0 DUP5 ADD MLOAD PUSH2 0x4147 SWAP1 PUSH2 0x4A6C JUMP JUMPDEST PUSH2 0x100 DUP6 ADD MLOAD PUSH2 0x4156 SWAP1 PUSH2 0x4A6C JUMP JUMPDEST SWAP2 PUSH1 0xC0 DUP7 ADD MLOAD PUSH2 0x4165 SWAP1 PUSH2 0x4A6C JUMP JUMPDEST SWAP4 MLOAD MLOAD PUSH2 0x4171 SWAP1 PUSH2 0x4A6C JUMP JUMPDEST SWAP5 MLOAD PUSH1 0x20 SWAP1 SWAP7 ADD MLOAD PUSH1 0x1 PUSH1 0x1 PUSH1 0xA0 SHL SUB AND PUSH2 0x418B SWAP1 PUSH2 0x4B38 JUMP JUMPDEST PUSH1 0x40 MLOAD PUSH9 0x3D913730B6B2911D11 PUSH1 0xB9 SHL PUSH1 0x20 DUP3 ADD MSTORE SWAP10 DUP11 SWAP10 SWAP2 SWAP9 SWAP2 PUSH1 0x29 DUP12 ADD PUSH2 0x41B3 SWAP2 PUSH2 0x4081 JUMP JUMPDEST PUSH2 0x2023 PUSH1 0xF0 SHL DUP2 MSTORE PUSH1 0x2 ADD PUSH2 0x41C7 SWAP2 PUSH2 0x4081 JUMP JUMPDEST PUSH2 0x88B PUSH1 0xF2 SHL DUP2 MSTORE PUSH1 0x2 ADD PUSH15 0x113232B9B1B934B83A34B7B7111D11 PUSH1 0x89 SHL DUP2 MSTORE PUSH1 0xF ADD PUSH2 0x41F3 SWAP2 PUSH2 0x4081 JUMP JUMPDEST PUSH2 0x88B PUSH1 0xF2 SHL DUP2 MSTORE PUSH1 0x2 ADD PUSH9 0x1134B6B0B3B2911D11 PUSH1 0xB9 SHL DUP2 MSTORE PUSH1 0x9 ADD PUSH2 0x4219 SWAP2 PUSH2 0x4081 JUMP JUMPDEST PUSH2 0x88B PUSH1 0xF2 SHL DUP2 MSTORE PUSH1 0x2 ADD PUSH14 0x2261747472696275746573223A5B PUSH1 0x90 SHL DUP2 MSTORE PUSH1 0xE ADD PUSH32 0x7B2274726169745F74797065223A22546F6B656E205374616E64617264222C22 DUP2 MSTORE PUSH19 0x1D985B1D59488E88915490CB4C4C4D4D489F4B PUSH1 0x6A SHL PUSH1 0x20 DUP3 ADD MSTORE PUSH1 0x33 ADD PUSH32 0x7B2274726169745F74797065223A2253746F72616765222C2276616C7565223A DUP2 MSTORE PUSH12 0x893DB8B58DA185A5B889F4B PUSH1 0xA2 SHL PUSH1 0x20 DUP3 ADD MSTORE PUSH1 0x2C ADD PUSH32 0x7B2274726169745F74797065223A224D617820537570706C79222C2276616C75 DUP2 MSTORE PUSH3 0x32911D PUSH1 0xE9 SHL PUSH1 0x20 DUP3 ADD MSTORE PUSH1 0x23 ADD PUSH2 0x42F3 SWAP2 PUSH2 0x4081 JUMP JUMPDEST PUSH2 0x1F4B PUSH1 0xF2 SHL DUP2 MSTORE PUSH1 0x2 ADD PUSH32 0x7B2274726169745F74797065223A2243757272656E7420537570706C79222C22 DUP2 MSTORE PUSH7 0x3B30B63AB2911D PUSH1 0xC9 SHL PUSH1 0x20 DUP3 ADD MSTORE PUSH1 0x27 ADD PUSH2 0x433D SWAP2 PUSH2 0x4081 JUMP JUMPDEST PUSH2 0x1F4B PUSH1 0xF2 SHL DUP2 MSTORE PUSH1 0x2 ADD PUSH32 0x7B2274726169745F74797065223A225072696365202857656929222C2276616C DUP2 MSTORE PUSH4 0x3AB2911D PUSH1 0xE1 SHL PUSH1 0x20 DUP3 ADD MSTORE PUSH1 0x24 ADD PUSH2 0x4384 SWAP2 PUSH2 0x4081 JUMP JUMPDEST PUSH2 0x1F4B PUSH1 0xF2 SHL DUP2 MSTORE PUSH1 0x2 ADD PUSH32 0x7B2274726169745F74797065223A2246696C652053697A65222C2276616C7565 DUP2 MSTORE PUSH2 0x111D PUSH1 0xF1 SHL PUSH1 0x20 DUP3 ADD MSTORE PUSH1 0x22 ADD PUSH2 0x43C9 SWAP2 PUSH2 0x4081 JUMP JUMPDEST PUSH2 0x1F4B PUSH1 0xF2 SHL DUP2 MSTORE PUSH1 0x2 ADD PUSH32 0x7B2274726169745F74797065223A2246696C652054797065222C2276616C7565 DUP2 MSTORE PUSH3 0x111D11 PUSH1 0xE9 SHL PUSH1 0x20 DUP3 ADD MSTORE PUSH1 0x23 ADD PUSH2 0x440F SWAP2 PUSH2 0x4081 JUMP JUMPDEST PUSH3 0x89F4B PUSH1 0xEA SHL DUP2 MSTORE PUSH1 0x3 ADD PUSH32 0x7B2274726169745F74797065223A2243726561746F72222C2276616C7565223A DUP2 MSTORE PUSH1 0x11 PUSH1 0xF9 SHL PUSH1 0x20 DUP3 ADD MSTORE PUSH1 0x21 ADD PUSH2 0x4454 SWAP2 PUSH2 0x4081 JUMP JUMPDEST PUSH2 0x227D PUSH1 0xF0 SHL DUP2 MSTORE PUSH1 0x2 ADD PUSH2 0x174B PUSH1 0xF2 SHL DUP2 MSTORE PUSH1 0x2 ADD PUSH32 0x2270726F70657274696573223A7B2263617465676F7279223A22696D61676522 DUP2 MSTORE PUSH2 0x7D7D PUSH1 0xF0 SHL PUSH1 0x20 DUP3 ADD MSTORE PUSH1 0x22 ADD SUB DUP3 DUP2 ADD DUP3 MSTORE PUSH2 0x44AB SWAP1 DUP3 PUSH2 0x58F JUMP JUMPDEST PUSH2 0x44B4 SWAP1 PUSH2 0x4875 JUMP JUMPDEST PUSH1 0x40 MLOAD PUSH32 0x646174613A6170706C69636174696F6E2F6A736F6E3B6261736536342C000000 PUSH1 0x20 DUP3 ADD MSTORE SWAP2 SWAP1 DUP3 SWAP1 PUSH1 0x3D DUP3 ADD PUSH2 0x44EE SWAP2 PUSH2 0x4081 JUMP JUMPDEST SUB SWAP1 DUP2 ADD DUP3 MSTORE PUSH2 0x991 SWAP1 DUP3 PUSH2 0x58F JUMP JUMPDEST PUSH1 0xFF PUSH1 0x7 SLOAD AND PUSH2 0x450A JUMPI JUMP JUMPDEST PUSH1 0x40 MLOAD PUSH4 0xD93C0665 PUSH1 0xE0 SHL DUP2 MSTORE PUSH1 0x4 SWAP1 REVERT JUMPDEST PUSH1 0x2 PUSH1 0x6 SLOAD EQ PUSH2 0x452D JUMPI PUSH1 0x2 PUSH1 0x6 SSTORE JUMP JUMPDEST PUSH1 0x40 MLOAD PUSH4 0x3EE5AEB5 PUSH1 0xE0 SHL DUP2 MSTORE PUSH1 0x4 SWAP1 REVERT JUMPDEST SWAP4 SWAP2 PUSH1 0x1 PUSH1 0x1 PUSH1 0xA0 SHL SUB DUP6 AND ISZERO PUSH2 0x2E13 JUMPI PUSH2 0x4577 PUSH1 0x40 MLOAD SWAP3 PUSH1 0x1 DUP5 MSTORE PUSH1 0x20 DUP5 ADD MSTORE PUSH1 0x40 DUP4 ADD SWAP2 PUSH1 0x1 DUP4 MSTORE PUSH1 0x60 DUP5 ADD MSTORE PUSH1 0x80 DUP4 ADD PUSH1 0x40 MSTORE JUMP JUMPDEST SWAP1 SWAP2 PUSH2 0x4584 DUP3 DUP5 DUP8 PUSH2 0x50E9 JUMP JUMPDEST PUSH1 0x0 SWAP5 DUP6 JUMPDEST DUP5 MLOAD DUP8 LT ISZERO PUSH2 0x45D7 JUMPI PUSH2 0x45CF PUSH1 0x1 SWAP2 DUP9 PUSH1 0x5 SHL SWAP1 PUSH2 0x45BD PUSH1 0x20 DUP1 DUP5 DUP11 ADD ADD MLOAD SWAP4 DUP11 ADD ADD MLOAD PUSH1 0x0 MSTORE PUSH1 0x3 PUSH1 0x20 MSTORE PUSH1 0x40 PUSH1 0x0 KECCAK256 SWAP1 JUMP JUMPDEST PUSH2 0x45C8 DUP4 DUP3 SLOAD PUSH2 0x3102 JUMP JUMPDEST SWAP1 SSTORE PUSH2 0x3102 JUMP JUMPDEST SWAP7 ADD SWAP6 PUSH2 0x4589 JUMP JUMPDEST PUSH2 0x45F1 SWAP2 SWAP6 SWAP5 SWAP3 SWAP7 POP PUSH2 0x45EC SWAP1 PUSH1 0x4 SLOAD PUSH2 0x3102 JUMP JUMPDEST PUSH1 0x4 SSTORE JUMP JUMPDEST DUP1 MLOAD PUSH1 0x1 SUB PUSH2 0x460F JUMPI SWAP1 PUSH1 0x20 DUP1 PUSH2 0x80E SWAP6 SWAP4 ADD MLOAD SWAP2 ADD MLOAD SWAP2 CALLER PUSH2 0x5058 JUMP JUMPDEST PUSH2 0x80E SWAP4 CALLER PUSH2 0x4E5E JUMP JUMPDEST PUSH1 0x40 MLOAD SWAP1 PUSH2 0x4626 DUP3 PUSH2 0x559 JUMP JUMPDEST PUSH1 0x3 DUP3 MSTORE PUSH3 0x706E67 PUSH1 0xE8 SHL PUSH1 0x20 DUP4 ADD MSTORE JUMP JUMPDEST PUSH1 0x40 MLOAD SWAP1 PUSH2 0x4645 DUP3 PUSH2 0x559 JUMP JUMPDEST PUSH1 0x3 DUP3 MSTORE PUSH3 0x33B4B3 PUSH1 0xE9 SHL PUSH1 0x20 DUP4 ADD MSTORE JUMP JUMPDEST PUSH1 0x40 MLOAD SWAP1 PUSH2 0x4664 DUP3 PUSH2 0x559 JUMP JUMPDEST PUSH1 0x4 DUP3 MSTORE PUSH4 0x7765627 PUSH1 0xE4 SHL PUSH1 0x20 DUP4 ADD MSTORE JUMP JUMPDEST PUSH1 0x40 MLOAD SWAP1 PUSH2 0x4684 DUP3 PUSH2 0x559 JUMP JUMPDEST PUSH1 0x3 DUP3 MSTORE PUSH3 0x737667 PUSH1 0xE8 SHL PUSH1 0x20 DUP4 ADD MSTORE JUMP JUMPDEST PUSH1 0x40 MLOAD SWAP1 PUSH2 0x46A3 DUP3 PUSH2 0x559 JUMP JUMPDEST PUSH1 0x3 DUP3 MSTORE PUSH3 0x7A697 PUSH1 0xEC SHL PUSH1 0x20 DUP4 ADD MSTORE JUMP JUMPDEST PUSH2 0x46DB PUSH1 0x40 MLOAD PUSH2 0x46C4 DUP2 PUSH2 0x559 JUMP JUMPDEST PUSH1 0x4 DUP2 MSTORE PUSH4 0x6A706567 PUSH1 0xE0 SHL PUSH1 0x20 DUP3 ADD MSTORE DUP3 PUSH2 0x4D47 JUMP JUMPDEST SWAP1 DUP2 ISZERO PUSH2 0x476E JUMPI JUMPDEST DUP2 ISZERO PUSH2 0x475B JUMPI JUMPDEST DUP2 ISZERO PUSH2 0x4748 JUMPI JUMPDEST DUP2 ISZERO PUSH2 0x4735 JUMPI JUMPDEST DUP2 ISZERO PUSH2 0x471C JUMPI JUMPDEST DUP2 ISZERO PUSH2 0x4709 JUMPI POP SWAP1 JUMP JUMPDEST PUSH2 0x991 SWAP2 POP PUSH2 0x4716 PUSH2 0x4696 JUMP JUMPDEST SWAP1 PUSH2 0x4D47 JUMP JUMPDEST SWAP1 POP PUSH2 0x472F PUSH2 0x4729 PUSH2 0x4677 JUMP JUMPDEST DUP3 PUSH2 0x4D47 JUMP JUMPDEST SWAP1 PUSH2 0x46FF JUMP JUMPDEST SWAP1 POP PUSH2 0x4742 PUSH2 0x4729 PUSH2 0x4657 JUMP JUMPDEST SWAP1 PUSH2 0x46F8 JUMP JUMPDEST SWAP1 POP PUSH2 0x4755 PUSH2 0x4729 PUSH2 0x4638 JUMP JUMPDEST SWAP1 PUSH2 0x46F1 JUMP JUMPDEST SWAP1 POP PUSH2 0x4768 PUSH2 0x4729 PUSH2 0x4619 JUMP JUMPDEST SWAP1 PUSH2 0x46EA JUMP JUMPDEST SWAP1 POP PUSH2 0x4795 PUSH1 0x40 MLOAD PUSH2 0x477F DUP2 PUSH2 0x559 JUMP JUMPDEST PUSH1 0x3 DUP2 MSTORE PUSH3 0x6A7067 PUSH1 0xE8 SHL PUSH1 0x20 DUP3 ADD MSTORE DUP3 PUSH2 0x4D47 JUMP JUMPDEST SWAP1 PUSH2 0x46E3 JUMP JUMPDEST PUSH1 0x40 MLOAD SWAP1 PUSH2 0x47A8 DUP3 PUSH2 0x574 JUMP JUMPDEST PUSH1 0x40 DUP3 MSTORE PUSH32 0x6768696A6B6C6D6E6F707172737475767778797A303132333435363738392B2F PUSH1 0x40 DUP4 PUSH32 0x4142434445464748494A4B4C4D4E4F505152535455565758595A616263646566 PUSH1 0x20 DUP3 ADD MSTORE ADD MSTORE JUMP JUMPDEST PUSH1 0x40 MLOAD SWAP1 PUSH2 0x4807 DUP3 PUSH2 0x574 JUMP JUMPDEST PUSH1 0x2A DUP3 MSTORE PUSH1 0x40 CALLDATASIZE PUSH1 0x20 DUP5 ADD CALLDATACOPY JUMP JUMPDEST SWAP1 PUSH2 0x481F DUP3 PUSH2 0x5D0 JUMP JUMPDEST PUSH2 0x482C PUSH1 0x40 MLOAD SWAP2 DUP3 PUSH2 0x58F JUMP JUMPDEST DUP3 DUP2 MSTORE DUP1 SWAP3 PUSH2 0x483D PUSH1 0x1F NOT SWAP2 PUSH2 0x5D0 JUMP JUMPDEST ADD SWAP1 PUSH1 0x20 CALLDATASIZE SWAP2 ADD CALLDATACOPY JUMP JUMPDEST DUP1 MLOAD ISZERO PUSH2 0x18CE JUMPI PUSH1 0x20 ADD SWAP1 JUMP JUMPDEST DUP1 MLOAD PUSH1 0x1 LT ISZERO PUSH2 0x18CE JUMPI PUSH1 0x21 ADD SWAP1 JUMP JUMPDEST SWAP1 DUP2 MLOAD DUP2 LT ISZERO PUSH2 0x18CE JUMPI ADD PUSH1 0x20 ADD SWAP1 JUMP JUMPDEST DUP1 MLOAD ISZERO PUSH2 0x4A63 JUMPI PUSH2 0x4884 PUSH2 0x479B JUMP JUMPDEST SWAP1 PUSH2 0x48A1 PUSH2 0x489C PUSH2 0x4895 DUP4 MLOAD PUSH2 0x30A0 JUMP JUMPDEST PUSH1 0x3 SWAP1 DIV SWAP1 JUMP JUMPDEST PUSH2 0x332B JUMP JUMPDEST SWAP2 PUSH2 0x48AB DUP4 PUSH2 0x4815 JUMP JUMPDEST SWAP2 PUSH1 0x0 SWAP5 DUP6 JUMPDEST DUP3 MLOAD DUP2 LT ISZERO PUSH2 0x4A06 JUMPI DUP1 PUSH2 0x49D7 PUSH2 0x48D7 PUSH2 0x48F1 PUSH2 0x48EB PUSH2 0x48E5 PUSH2 0x48D7 PUSH2 0x49F5 SWAP8 DUP11 PUSH2 0x4864 JUMP JUMPDEST MLOAD PUSH1 0x1 PUSH1 0x1 PUSH1 0xF8 SHL SUB NOT AND SWAP1 JUMP JUMPDEST PUSH1 0xF8 SHR SWAP1 JUMP JUMPDEST PUSH1 0xFF AND SWAP1 JUMP JUMPDEST PUSH2 0x48FA DUP5 PUSH2 0x30BC JUMP JUMPDEST DUP8 MLOAD GT PUSH1 0x0 SWAP1 PUSH1 0x0 EQ PUSH2 0x4A00 JUMPI POP PUSH2 0x4923 PUSH2 0x48EB PUSH2 0x48E5 PUSH2 0x48D7 PUSH2 0x491D DUP9 PUSH2 0x30BC JUMP JUMPDEST DUP12 PUSH2 0x4864 JUMP JUMPDEST SWAP1 JUMPDEST PUSH2 0x492E DUP6 PUSH2 0x30A0 JUMP JUMPDEST DUP9 MLOAD GT PUSH1 0x0 SWAP1 PUSH1 0x0 EQ PUSH2 0x49FA JUMPI POP PUSH2 0x4957 PUSH2 0x48EB PUSH2 0x48E5 PUSH2 0x48D7 PUSH2 0x4951 DUP10 PUSH2 0x30A0 JUMP JUMPDEST DUP13 PUSH2 0x4864 JUMP JUMPDEST SWAP2 JUMPDEST PUSH1 0x8 SHL SWAP1 PUSH1 0x10 SHL OR OR PUSH1 0x3F SWAP1 PUSH2 0x4977 PUSH2 0x48D7 DUP4 DUP4 PUSH1 0x12 SHR AND DUP12 PUSH2 0x4864 JUMP JUMPDEST SWAP12 PUSH2 0x498F PUSH2 0x4984 DUP3 PUSH2 0x3E26 JUMP JUMPDEST SWAP14 PUSH1 0x0 BYTE SWAP2 DUP13 PUSH2 0x4864 JUMP JUMPDEST MSTORE8 PUSH2 0x49A2 PUSH2 0x48D7 DUP4 DUP4 PUSH1 0xC SHR AND DUP12 PUSH2 0x4864 JUMP JUMPDEST SWAP12 PUSH2 0x49AF PUSH2 0x4984 DUP3 PUSH2 0x3E26 JUMP JUMPDEST MSTORE8 PUSH2 0x49C2 PUSH2 0x48D7 DUP4 DUP4 PUSH1 0x6 SHR AND DUP12 PUSH2 0x4864 JUMP JUMPDEST SWAP12 PUSH2 0x49CF PUSH2 0x4984 DUP3 PUSH2 0x3E26 JUMP JUMPDEST MSTORE8 AND DUP8 PUSH2 0x4864 JUMP JUMPDEST SWAP8 PUSH2 0x49EF PUSH2 0x49E4 DUP3 PUSH2 0x3E26 JUMP JUMPDEST SWAP10 PUSH1 0x0 BYTE SWAP2 DUP9 PUSH2 0x4864 JUMP JUMPDEST MSTORE8 PUSH2 0x30AE JUMP JUMPDEST PUSH2 0x48B1 JUMP JUMPDEST SWAP2 PUSH2 0x4959 JUMP JUMPDEST SWAP1 PUSH2 0x4925 JUMP JUMPDEST POP SWAP5 POP PUSH1 0x3 SWAP2 POP SWAP3 SWAP2 SWAP3 MLOAD MOD PUSH1 0x1 DUP2 EQ PUSH1 0x0 EQ PUSH2 0x4A4A JUMPI POP PUSH2 0x4A46 PUSH2 0x4A40 DUP3 PUSH1 0x3D PUSH2 0x4A3A PUSH2 0x4A34 DUP3 SWAP7 PUSH2 0x322B JUMP JUMPDEST DUP8 PUSH2 0x4864 JUMP JUMPDEST MSTORE8 PUSH2 0x323A JUMP JUMPDEST DUP4 PUSH2 0x4864 JUMP JUMPDEST MSTORE8 SWAP1 JUMP JUMPDEST PUSH1 0x2 EQ PUSH2 0x4A55 JUMPI POP SWAP1 JUMP JUMPDEST PUSH2 0x4A46 PUSH2 0x4A40 PUSH1 0x3D SWAP3 PUSH2 0x322B JUMP JUMPDEST POP PUSH2 0x991 PUSH2 0x35CE JUMP JUMPDEST DUP1 ISZERO PUSH2 0x4AEE JUMPI PUSH1 0x0 DUP2 DUP2 DUP2 DUP1 JUMPDEST PUSH2 0x4AD6 JUMPI POP PUSH2 0x4A87 DUP2 PUSH2 0x4815 JUMP JUMPDEST SWAP4 JUMPDEST PUSH2 0x4A93 JUMPI POP POP POP SWAP1 JUMP JUMPDEST PUSH2 0x4A9C SWAP1 PUSH2 0x322B JUMP JUMPDEST SWAP1 PUSH1 0xA SWAP1 PUSH2 0x4AC1 PUSH2 0x4AB1 PUSH2 0x48EB DUP5 DUP5 MOD PUSH2 0x30CA JUMP JUMPDEST PUSH1 0xF8 SHL PUSH1 0x1 PUSH1 0x1 PUSH1 0xF8 SHL SUB NOT AND SWAP1 JUMP JUMPDEST DUP5 BYTE PUSH2 0x4ACD DUP5 DUP8 PUSH2 0x4864 JUMP JUMPDEST MSTORE8 DIV SWAP1 DUP2 PUSH2 0x4A89 JUMP JUMPDEST SWAP2 POP PUSH2 0x4AE3 PUSH1 0xA SWAP2 PUSH2 0x3E26 JUMP JUMPDEST SWAP2 DIV DUP1 DUP5 SWAP3 SWAP2 PUSH2 0x4A79 JUMP JUMPDEST POP PUSH1 0x40 MLOAD PUSH2 0x4AFB DUP2 PUSH2 0x559 JUMP JUMPDEST PUSH1 0x1 DUP2 MSTORE PUSH1 0x3 PUSH1 0xFC SHL PUSH1 0x20 DUP3 ADD MSTORE SWAP1 JUMP JUMPDEST PUSH1 0x40 MLOAD SWAP1 PUSH2 0x4B19 DUP3 PUSH2 0x559 JUMP JUMPDEST PUSH1 0x10 DUP3 MSTORE PUSH16 0x181899199A1A9B1B9C1CB0B131B232B3 PUSH1 0x81 SHL PUSH1 0x20 DUP4 ADD MSTORE JUMP JUMPDEST PUSH1 0x1 PUSH1 0x1 PUSH1 0xA0 SHL SUB AND PUSH2 0x4B49 PUSH2 0x4B0C JUMP JUMPDEST PUSH2 0x4B51 PUSH2 0x47FA JUMP JUMPDEST SWAP2 PUSH1 0x30 PUSH2 0x4B5D DUP5 PUSH2 0x4847 JUMP JUMPDEST MSTORE8 PUSH1 0x78 PUSH2 0x4B69 DUP5 PUSH2 0x4854 JUMP JUMPDEST MSTORE8 PUSH1 0x0 SWAP1 PUSH1 0x0 JUMPDEST PUSH1 0x14 DUP2 LT PUSH2 0x4B7F JUMPI POP POP POP POP SWAP1 JUMP JUMPDEST PUSH2 0x4B88 DUP2 PUSH2 0x30D8 JUMP JUMPDEST SWAP1 PUSH1 0x20 SWAP2 DUP3 DUP2 LT ISZERO PUSH2 0x18CE JUMPI PUSH2 0x4BAC PUSH2 0x48D7 DUP6 SWAP3 PUSH1 0xF SWAP4 DUP5 SWAP2 BYTE PUSH1 0x4 SHR AND DUP9 PUSH2 0x4864 JUMP JUMPDEST PUSH2 0x4BCA PUSH2 0x4BC0 PUSH2 0x4BBB DUP6 PUSH2 0x3343 JUMP JUMPDEST PUSH2 0x30E6 JUMP JUMPDEST SWAP2 DUP8 BYTE SWAP2 DUP10 PUSH2 0x4864 JUMP JUMPDEST MSTORE8 PUSH2 0x4BD4 DUP3 PUSH2 0x30D8 JUMP JUMPDEST SWAP3 DUP4 LT ISZERO PUSH2 0x18CE JUMPI PUSH2 0x48D7 PUSH2 0x4BEF SWAP2 DUP6 PUSH1 0x1 SWAP6 BYTE AND DUP8 PUSH2 0x4864 JUMP JUMPDEST PUSH2 0x4C0D PUSH2 0x4C03 PUSH2 0x4BFE DUP5 PUSH2 0x3343 JUMP JUMPDEST PUSH2 0x30F4 JUMP JUMPDEST SWAP2 DUP7 BYTE SWAP2 DUP9 PUSH2 0x4864 JUMP JUMPDEST MSTORE8 ADD PUSH2 0x4B70 JUMP JUMPDEST SWAP2 SWAP4 SWAP3 SWAP1 PUSH2 0x4C24 DUP3 DUP7 DUP4 DUP7 PUSH2 0x521B JUMP JUMPDEST PUSH1 0x1 PUSH1 0x1 PUSH1 0xA0 SHL SUB DUP4 DUP2 AND ISZERO PUSH2 0x4CE3 JUMPI JUMPDEST DUP2 AND ISZERO DUP1 PUSH2 0x4C82 JUMPI JUMPDEST ISZERO PUSH2 0x4C4B JUMPI JUMPDEST POP POP POP POP POP JUMP JUMPDEST DUP5 MLOAD PUSH1 0x1 SUB PUSH2 0x4C71 JUMPI PUSH1 0x20 DUP1 PUSH2 0x4C67 SWAP7 ADD MLOAD SWAP3 ADD MLOAD SWAP3 CALLER PUSH2 0x508D JUMP JUMPDEST CODESIZE DUP1 DUP1 DUP1 DUP1 PUSH2 0x4C44 JUMP JUMPDEST PUSH2 0x4C7D SWAP5 SWAP2 SWAP3 CALLER PUSH2 0x4F59 JUMP JUMPDEST PUSH2 0x4C67 JUMP JUMPDEST SWAP5 SWAP4 PUSH1 0x0 SWAP4 SWAP1 SWAP2 DUP5 JUMPDEST DUP7 MLOAD DUP7 LT ISZERO PUSH2 0x4CCB JUMPI PUSH1 0x1 SWAP1 DUP7 PUSH1 0x5 SHL SWAP1 PUSH2 0x4CBC PUSH1 0x20 DUP1 DUP5 DUP11 ADD ADD MLOAD SWAP4 DUP12 ADD ADD MLOAD PUSH1 0x0 MSTORE PUSH1 0x3 PUSH1 0x20 MSTORE PUSH1 0x40 PUSH1 0x0 KECCAK256 SWAP1 JUMP JUMPDEST DUP3 DUP2 SLOAD SUB SWAP1 SSTORE ADD SWAP6 ADD SWAP5 PUSH2 0x4C8B JUMP JUMPDEST PUSH2 0x4CDE SWAP2 SWAP4 SWAP7 SWAP8 SWAP3 SWAP6 POP PUSH1 0x4 SLOAD SUB PUSH1 0x4 SSTORE JUMP JUMPDEST PUSH2 0x4C3E JUMP JUMPDEST SWAP6 SWAP2 SWAP3 PUSH1 0x0 SWAP5 SWAP2 PUSH1 0x0 SWAP6 JUMPDEST DUP8 MLOAD DUP8 LT ISZERO PUSH2 0x4D2A JUMPI PUSH2 0x4D22 PUSH1 0x1 SWAP2 DUP9 PUSH1 0x5 SHL SWAP1 PUSH2 0x45BD PUSH1 0x20 DUP1 DUP5 DUP13 ADD ADD MLOAD SWAP4 DUP14 ADD ADD MLOAD PUSH1 0x0 MSTORE PUSH1 0x3 PUSH1 0x20 MSTORE PUSH1 0x40 PUSH1 0x0 KECCAK256 SWAP1 JUMP JUMPDEST SWAP7 ADD SWAP6 PUSH2 0x4CEE JUMP JUMPDEST PUSH2 0x4D42 SWAP2 SWAP4 SWAP7 POP PUSH2 0x45EC SWAP1 SWAP9 SWAP3 SWAP6 SWAP5 SWAP9 PUSH1 0x4 SLOAD PUSH2 0x3102 JUMP JUMPDEST PUSH2 0x4C35 JUMP JUMPDEST SWAP1 PUSH1 0x40 MLOAD SWAP2 PUSH1 0x20 SWAP3 PUSH2 0x4D75 DUP5 DUP3 DUP2 PUSH2 0x4D68 DUP2 DUP4 ADD SWAP7 DUP8 DUP2 MLOAD SWAP4 DUP5 SWAP3 ADD PUSH2 0x938 JUMP JUMPDEST DUP2 ADD SUB DUP1 DUP5 MSTORE ADD DUP3 PUSH2 0x58F JUMP JUMPDEST MLOAD SWAP1 KECCAK256 SWAP2 PUSH2 0x4D95 PUSH1 0x40 MLOAD SWAP2 DUP3 DUP2 PUSH2 0x4D68 DUP2 DUP4 ADD SWAP7 DUP8 DUP2 MLOAD SWAP4 DUP5 SWAP3 ADD PUSH2 0x938 JUMP JUMPDEST MLOAD SWAP1 KECCAK256 EQ SWAP1 JUMP JUMPDEST SWAP1 DUP2 PUSH1 0x20 SWAP2 SUB SLT PUSH2 0x433 JUMPI MLOAD PUSH2 0x991 DUP2 PUSH2 0x489 JUMP JUMPDEST SWAP3 PUSH2 0x4DE0 PUSH2 0x991 SWAP6 SWAP4 PUSH2 0x4DEE SWAP4 PUSH1 0x1 DUP1 PUSH1 0xA0 SHL SUB AND DUP7 MSTORE PUSH1 0x0 PUSH1 0x20 DUP8 ADD MSTORE PUSH1 0xA0 PUSH1 0x40 DUP8 ADD MSTORE PUSH1 0xA0 DUP7 ADD SWAP1 PUSH2 0x1719 JUMP JUMPDEST SWAP1 DUP5 DUP3 SUB PUSH1 0x60 DUP7 ADD MSTORE PUSH2 0x1719 JUMP JUMPDEST SWAP2 PUSH1 0x80 DUP2 DUP5 SUB SWAP2 ADD MSTORE PUSH2 0x95B JUMP JUMPDEST SWAP4 SWAP1 PUSH2 0x991 SWAP6 SWAP4 PUSH2 0x4DE0 SWAP2 PUSH2 0x4DEE SWAP5 PUSH1 0x1 DUP1 PUSH1 0xA0 SHL SUB DUP1 SWAP3 AND DUP9 MSTORE AND PUSH1 0x20 DUP8 ADD MSTORE PUSH1 0xA0 PUSH1 0x40 DUP8 ADD MSTORE PUSH1 0xA0 DUP7 ADD SWAP1 PUSH2 0x1719 JUMP JUMPDEST RETURNDATASIZE ISZERO PUSH2 0x4E59 JUMPI RETURNDATASIZE SWAP1 PUSH2 0x4E3F DUP3 PUSH2 0x5D0 JUMP JUMPDEST SWAP2 PUSH2 0x4E4D PUSH1 0x40 MLOAD SWAP4 DUP5 PUSH2 0x58F JUMP JUMPDEST DUP3 MSTORE RETURNDATASIZE PUSH1 0x0 PUSH1 0x20 DUP5 ADD RETURNDATACOPY JUMP JUMPDEST PUSH1 0x60 SWAP1 JUMP JUMPDEST SWAP3 SWAP4 SWAP2 SWAP1 SWAP4 DUP5 EXTCODESIZE PUSH2 0x4E70 JUMPI POP POP POP POP POP JUMP JUMPDEST PUSH1 0x20 SWAP2 PUSH2 0x4E93 PUSH1 0x40 MLOAD SWAP5 DUP6 SWAP4 DUP5 SWAP4 PUSH4 0xBC197C81 PUSH1 0xE0 SHL SWAP9 DUP10 DUP7 MSTORE PUSH1 0x4 DUP7 ADD PUSH2 0x4DB1 JUMP JUMPDEST SUB DUP2 PUSH1 0x0 PUSH1 0x1 PUSH1 0x1 PUSH1 0xA0 SHL SUB DUP9 AND GAS CALL PUSH1 0x0 SWAP2 DUP2 PUSH2 0x4F28 JUMPI JUMPDEST POP PUSH2 0x4EEB JUMPI DUP3 PUSH2 0x4EBA PUSH2 0x4E2E JUMP JUMPDEST DUP1 MLOAD SWAP2 SWAP1 DUP3 PUSH2 0x4EE4 JUMPI PUSH1 0x40 MLOAD PUSH4 0x2BFA23E7 PUSH1 0xE1 SHL DUP2 MSTORE PUSH1 0x1 PUSH1 0x1 PUSH1 0xA0 SHL SUB DUP4 AND PUSH1 0x4 DUP3 ADD MSTORE PUSH1 0x24 SWAP1 REVERT JUMPDEST SWAP1 POP PUSH1 0x20 ADD REVERT JUMPDEST PUSH1 0x1 PUSH1 0x1 PUSH1 0xE0 SHL SUB NOT AND SUB PUSH2 0x4F05 JUMPI POP CODESIZE DUP1 DUP1 DUP1 DUP1 PUSH2 0x4C44 JUMP JUMPDEST PUSH1 0x40 MLOAD PUSH4 0x2BFA23E7 PUSH1 0xE1 SHL DUP2 MSTORE PUSH1 0x1 PUSH1 0x1 PUSH1 0xA0 SHL SUB SWAP2 SWAP1 SWAP2 AND PUSH1 0x4 DUP3 ADD MSTORE PUSH1 0x24 SWAP1 REVERT JUMPDEST PUSH2 0x4F4B SWAP2 SWAP3 POP PUSH1 0x20 RETURNDATASIZE PUSH1 0x20 GT PUSH2 0x4F52 JUMPI JUMPDEST PUSH2 0x4F43 DUP2 DUP4 PUSH2 0x58F JUMP JUMPDEST DUP2 ADD SWAP1 PUSH2 0x4D9C JUMP JUMPDEST SWAP1 CODESIZE PUSH2 0x4EAC JUMP JUMPDEST POP RETURNDATASIZE PUSH2 0x4F39 JUMP JUMPDEST SWAP4 SWAP3 SWAP1 SWAP5 SWAP2 SWAP5 DUP6 EXTCODESIZE PUSH2 0x4F6E JUMPI JUMPDEST POP POP POP POP POP POP JUMP JUMPDEST PUSH2 0x4F91 PUSH1 0x20 SWAP4 PUSH1 0x40 MLOAD SWAP6 DUP7 SWAP5 DUP6 SWAP5 PUSH4 0xBC197C81 PUSH1 0xE0 SHL SWAP10 DUP11 DUP8 MSTORE PUSH1 0x4 DUP8 ADD PUSH2 0x4DFC JUMP JUMPDEST SUB DUP2 PUSH1 0x0 PUSH1 0x1 PUSH1 0x1 PUSH1 0xA0 SHL SUB DUP9 AND GAS CALL PUSH1 0x0 SWAP2 DUP2 PUSH2 0x4FD3 JUMPI JUMPDEST POP PUSH2 0x4FB8 JUMPI DUP3 PUSH2 0x4EBA PUSH2 0x4E2E JUMP JUMPDEST PUSH1 0x1 PUSH1 0x1 PUSH1 0xE0 SHL SUB NOT AND SUB PUSH2 0x4F05 JUMPI POP CODESIZE DUP1 DUP1 DUP1 DUP1 DUP1 PUSH2 0x4F66 JUMP JUMPDEST PUSH2 0x4FED SWAP2 SWAP3 POP PUSH1 0x20 RETURNDATASIZE PUSH1 0x20 GT PUSH2 0x4F52 JUMPI PUSH2 0x4F43 DUP2 DUP4 PUSH2 0x58F JUMP JUMPDEST SWAP1 CODESIZE PUSH2 0x4FAA JUMP JUMPDEST SWAP1 SWAP3 PUSH1 0xA0 SWAP3 PUSH2 0x991 SWAP6 SWAP5 PUSH1 0x1 DUP1 DUP7 SHL SUB AND DUP4 MSTORE PUSH1 0x0 PUSH1 0x20 DUP5 ADD MSTORE PUSH1 0x40 DUP4 ADD MSTORE PUSH1 0x60 DUP3 ADD MSTORE DUP2 PUSH1 0x80 DUP3 ADD MSTORE ADD SWAP1 PUSH2 0x95B JUMP JUMPDEST SWAP2 SWAP3 PUSH2 0x991 SWAP6 SWAP5 SWAP2 PUSH1 0xA0 SWAP5 PUSH1 0x1 DUP1 DUP8 SHL SUB DUP1 SWAP3 AND DUP6 MSTORE AND PUSH1 0x20 DUP5 ADD MSTORE PUSH1 0x40 DUP4 ADD MSTORE PUSH1 0x60 DUP3 ADD MSTORE DUP2 PUSH1 0x80 DUP3 ADD MSTORE ADD SWAP1 PUSH2 0x95B JUMP JUMPDEST SWAP3 SWAP4 SWAP2 SWAP1 SWAP4 DUP5 EXTCODESIZE PUSH2 0x506A JUMPI POP POP POP POP POP JUMP JUMPDEST PUSH1 0x20 SWAP2 PUSH2 0x4E93 PUSH1 0x40 MLOAD SWAP5 DUP6 SWAP4 DUP5 SWAP4 PUSH4 0xF23A6E61 PUSH1 0xE0 SHL SWAP9 DUP10 DUP7 MSTORE PUSH1 0x4 DUP7 ADD PUSH2 0x4FF4 JUMP JUMPDEST SWAP4 SWAP3 SWAP1 SWAP5 SWAP2 SWAP5 DUP6 EXTCODESIZE PUSH2 0x50A1 JUMPI POP POP POP POP POP POP JUMP JUMPDEST PUSH2 0x4F91 PUSH1 0x20 SWAP4 PUSH1 0x40 MLOAD SWAP6 DUP7 SWAP5 DUP6 SWAP5 PUSH4 0xF23A6E61 PUSH1 0xE0 SHL SWAP10 DUP11 DUP8 MSTORE PUSH1 0x4 DUP8 ADD PUSH2 0x5025 JUMP JUMPDEST SWAP1 SWAP2 PUSH2 0x50DB PUSH2 0x991 SWAP4 PUSH1 0x40 DUP5 MSTORE PUSH1 0x40 DUP5 ADD SWAP1 PUSH2 0x1719 JUMP JUMPDEST SWAP2 PUSH1 0x20 DUP2 DUP5 SUB SWAP2 ADD MSTORE PUSH2 0x1719 JUMP JUMPDEST SWAP2 SWAP1 SWAP2 DUP3 MLOAD DUP3 MLOAD SWAP1 DUP2 DUP2 SUB PUSH2 0x341D JUMPI POP POP PUSH1 0x0 JUMPDEST DUP4 MLOAD DUP2 LT ISZERO PUSH2 0x517B JUMPI PUSH1 0x5 DUP2 SWAP1 SHL DUP5 DUP2 ADD PUSH1 0x20 SWAP1 DUP2 ADD MLOAD SWAP2 DUP6 ADD ADD MLOAD PUSH1 0x1 SWAP3 SWAP2 DUP5 SWAP1 PUSH1 0x1 PUSH1 0x1 PUSH1 0xA0 SHL SUB DUP3 AND PUSH2 0x5137 JUMPI JUMPDEST POP POP POP ADD PUSH2 0x50FD JUMP JUMPDEST PUSH2 0x5171 SWAP2 PUSH2 0x5152 PUSH2 0x5169 SWAP3 PUSH1 0x0 MSTORE PUSH1 0x0 PUSH1 0x20 MSTORE PUSH1 0x40 PUSH1 0x0 KECCAK256 SWAP1 JUMP JUMPDEST SWAP1 PUSH1 0x1 DUP1 PUSH1 0xA0 SHL SUB AND PUSH1 0x0 MSTORE PUSH1 0x20 MSTORE PUSH1 0x40 PUSH1 0x0 KECCAK256 SWAP1 JUMP JUMPDEST SWAP2 DUP3 SLOAD PUSH2 0x3102 JUMP JUMPDEST SWAP1 SSTORE CODESIZE DUP4 DUP2 PUSH2 0x512E JUMP JUMPDEST POP SWAP2 PUSH1 0x1 DUP2 MLOAD EQ PUSH1 0x0 EQ PUSH2 0x51DC JUMPI PUSH1 0x20 SWAP1 DUP2 ADD MLOAD SWAP2 DUP2 ADD MLOAD PUSH1 0x40 DUP1 MLOAD SWAP4 DUP5 MSTORE SWAP2 DUP4 ADD MSTORE PUSH1 0x1 PUSH1 0x1 PUSH1 0xA0 SHL SUB SWAP1 SWAP3 AND SWAP2 PUSH1 0x0 SWAP2 CALLER SWAP2 PUSH32 0xC3D58168C5AE7397731D063D5BBF3D657854427343F4C083240F7AACAA2D0F62 SWAP2 SWAP1 DUP2 SWAP1 DUP2 ADD JUMPDEST SUB SWAP1 LOG4 JUMP JUMPDEST PUSH32 0x4A39DC06D4C0DBC64B70AF90FD698A233A518AA5D07E595D983B8C0526C8F7FB PUSH2 0x51D7 PUSH1 0x0 SWAP4 SWAP5 PUSH1 0x40 MLOAD SWAP2 DUP3 SWAP2 PUSH1 0x1 DUP1 PUSH1 0xA0 SHL SUB AND SWAP7 CALLER SWAP6 DUP4 PUSH2 0x50C4 JUMP JUMPDEST SWAP4 SWAP3 SWAP2 DUP1 MLOAD DUP4 MLOAD SWAP1 DUP2 DUP2 SUB PUSH2 0x341D JUMPI POP POP PUSH1 0x0 JUMPDEST DUP2 MLOAD DUP2 LT ISZERO PUSH2 0x531D JUMPI PUSH1 0x5 DUP2 SWAP1 SHL DUP3 DUP2 ADD PUSH1 0x20 SWAP1 DUP2 ADD MLOAD SWAP2 DUP7 ADD ADD MLOAD PUSH1 0x1 PUSH1 0x1 PUSH1 0xA0 SHL SUB SWAP3 SWAP2 DUP6 SWAP1 DUP10 DUP6 AND PUSH2 0x5297 JUMPI JUMPDEST PUSH1 0x1 SWAP5 DUP3 AND PUSH2 0x5272 JUMPI JUMPDEST POP POP POP ADD PUSH2 0x522F JUMP JUMPDEST PUSH2 0x528D SWAP2 PUSH2 0x5152 PUSH2 0x5169 SWAP3 PUSH1 0x0 MSTORE PUSH1 0x0 PUSH1 0x20 MSTORE PUSH1 0x40 PUSH1 0x0 KECCAK256 SWAP1 JUMP JUMPDEST SWAP1 SSTORE CODESIZE DUP5 DUP2 PUSH2 0x5269 JUMP JUMPDEST SWAP2 SWAP3 SWAP4 SWAP1 POP PUSH2 0x52B4 DUP10 PUSH2 0x5152 DUP5 PUSH1 0x0 MSTORE PUSH1 0x0 PUSH1 0x20 MSTORE PUSH1 0x40 PUSH1 0x0 KECCAK256 SWAP1 JUMP JUMPDEST SLOAD DUP4 DUP2 LT PUSH2 0x52E6 JUMPI SWAP2 DUP7 SWAP2 DUP5 PUSH1 0x1 SWAP7 SWAP6 SWAP5 SUB PUSH2 0x52DE DUP13 PUSH2 0x5152 DUP6 PUSH1 0x0 MSTORE PUSH1 0x0 PUSH1 0x20 MSTORE PUSH1 0x40 PUSH1 0x0 KECCAK256 SWAP1 JUMP JUMPDEST SSTORE SWAP5 POP PUSH2 0x525F JUMP JUMPDEST PUSH1 0x40 MLOAD PUSH4 0x3DEE4C5 PUSH1 0xE0 SHL DUP2 MSTORE PUSH1 0x1 PUSH1 0x1 PUSH1 0xA0 SHL SUB DUP12 AND PUSH1 0x4 DUP3 ADD MSTORE PUSH1 0x24 DUP2 ADD SWAP2 SWAP1 SWAP2 MSTORE PUSH1 0x44 DUP2 ADD DUP5 SWAP1 MSTORE PUSH1 0x64 DUP2 ADD DUP4 SWAP1 MSTORE PUSH1 0x84 SWAP1 REVERT JUMPDEST POP DUP1 MLOAD SWAP4 SWAP5 SWAP4 SWAP2 SWAP3 SWAP2 PUSH1 0x1 SUB PUSH2 0x537F JUMPI PUSH1 0x20 SWAP1 DUP2 ADD MLOAD SWAP2 DUP2 ADD MLOAD PUSH1 0x40 DUP1 MLOAD SWAP4 DUP5 MSTORE SWAP2 DUP4 ADD MSTORE PUSH1 0x1 PUSH1 0x1 PUSH1 0xA0 SHL SUB SWAP3 DUP4 AND SWAP4 SWAP1 SWAP3 AND SWAP2 CALLER SWAP2 PUSH32 0xC3D58168C5AE7397731D063D5BBF3D657854427343F4C083240F7AACAA2D0F62 SWAP2 DUP2 SWAP1 DUP2 ADD PUSH2 0x51D7 JUMP JUMPDEST PUSH1 0x40 MLOAD PUSH1 0x1 PUSH1 0x1 PUSH1 0xA0 SHL SUB SWAP4 DUP5 AND SWAP5 SWAP1 SWAP4 AND SWAP3 CALLER SWAP3 PUSH32 0x4A39DC06D4C0DBC64B70AF90FD698A233A518AA5D07E595D983B8C0526C8F7FB SWAP3 DUP3 SWAP2 PUSH2 0x51D7 SWAP2 DUP4 PUSH2 0x50C4 JUMP INVALID PUSH7 0xDE8FFDA797E3DE SWAP13 SDIV 0xE8 0xFC JUMPI 0xB3 0xBF 0xE 0xC2 DUP11 SWAP4 0xD BLOCKHASH 0xB0 0xD2 DUP6 0xD9 EXTCODECOPY MOD POP SHR 0xF6 LOG0 SWAP1 0xCE PUSH14 0x7B5282BD9A3661AE061FEED1DBDA 0x4E MSTORE 0xAB SMOD EXTCODESIZE 0x1F SWAP3 DUP6 0xBE PUSH15 0x155D9C38D4ECA26469706673582212 KECCAK256 0xC5 0xEA DUP11 SHR AND PUSH0 PUSH26 0xBA04E4A01097DD66360187E150BA9CACD38AC682FE81E80E8464 PUSH20 0x6F6C634300081800330000000000000000000000 "},"methodIdentifiers":{"ARTIST_ROYALTY_PERCENTAGE()":"4cf4bb06","MAX_PLATFORM_FEE()":"3998a681","addAdmin(address)":"70480275","adminAddressList(uint256)":"6e977223","adminAddresses(address)":"4ed38faf","approveAddresses(address[])":"f0f4d0cb","artistProfiles(address)":"171212d5","artistTokens(address,uint256)":"92a05fe7","artworks(uint256)":"4b602673","balanceOf(address,uint256)":"00fdd58e","balanceOfBatch(address[],uint256[])":"4e1273f4","collectorTokens(address,uint256)":"5024fd8c","exists(uint256)":"4f558e79","getAdminAddresses()":"64ddfa29","getArtistProfile(address)":"b3b30640","getArtistTokens(address)":"cc0ad6e7","getArtwork(uint256)":"167ddf6e","getArtworkImageData(uint256)":"3b5221e2","getCollectorTokens(address)":"e0f8b313","getCurrentTokenId()":"56189236","getInterestedAddresses()":"8dc8b4da","getSecondaryFees(uint256,uint256)":"b7195763","getWhitelistedAddresses()":"6d028027","interestedAddressList(uint256)":"e084ffda","interestedAddresses(address)":"4bf56fd1","isAdmin(address)":"24d7806c","isApprovedForAll(address,address)":"e985e9c5","isInterested(address)":"62afcf00","isWhitelistEnabled()":"184d69ab","isWhitelisted(address)":"3af32abf","mintArtwork(string,string,bytes,string,uint256,uint256)":"c71959b4","name()":"06fdde03","owner()":"8da5cb5b","pause()":"8456cb59","paused()":"5c975abb","platformFeePercentage()":"cdd78cfc","purchaseArtwork(uint256,uint256)":"552906ce","registerInterest()":"5f5fff4d","removeAdmin(address)":"1785f53c","removeFromWhitelist(address)":"8ab1d681","renounceOwnership()":"715018a6","royaltyInfo(uint256,uint256)":"2a55205a","safeBatchTransferFrom(address,address,uint256[],uint256[],bytes)":"2eb2c2d6","safeTransferFrom(address,address,uint256,uint256,bytes)":"f242432a","secondaryArtistRoyalty()":"ecceec82","secondaryPlatformFee()":"489b3711","setApprovalForAll(address,bool)":"a22cb465","setPlatformFee(uint256)":"12e8e2c3","setSecondaryFees(uint256,uint256)":"1447ba1c","setURI(string)":"02fe5305","supportsInterface(bytes4)":"01ffc9a7","symbol()":"95d89b41","toggleArtworkStatus(uint256)":"5b42a8fe","toggleWhitelist()":"7e15144b","tokenToArtist(uint256)":"35c2aab9","totalSupply()":"18160ddd","totalSupply(uint256)":"bd85b039","transferOwnership(address)":"f2fde38b","unpause()":"3f4ba83a","updateArtistProfile(string,string,string)":"b23cd1a6","updateArtworkPrice(uint256,uint256)":"5001257e","uri(uint256)":"0e89341c","whitelistEnabled()":"51fb012d","whitelistedAddressList(uint256)":"63c770d8","whitelistedAddresses(address)":"06c933d8","withdrawPlatformFees()":"d0b7830b"}}}}}