{"contracts/PermalinkERC721.sol":{"Permalink":{"abi":[{"inputs":[{"internalType":"address","name":"initialOwner","type":"address"},{"internalType":"address","name":"_treasuryAddress","type":"address"}],"stateMutability":"nonpayable","type":"constructor"},{"inputs":[],"name":"ERC721EnumerableForbiddenBatchMint","type":"error"},{"inputs":[{"internalType":"address","name":"sender","type":"address"},{"internalType":"uint256","name":"tokenId","type":"uint256"},{"internalType":"address","name":"owner","type":"address"}],"name":"ERC721IncorrectOwner","type":"error"},{"inputs":[{"internalType":"address","name":"operator","type":"address"},{"internalType":"uint256","name":"tokenId","type":"uint256"}],"name":"ERC721InsufficientApproval","type":"error"},{"inputs":[{"internalType":"address","name":"approver","type":"address"}],"name":"ERC721InvalidApprover","type":"error"},{"inputs":[{"internalType":"address","name":"operator","type":"address"}],"name":"ERC721InvalidOperator","type":"error"},{"inputs":[{"internalType":"address","name":"owner","type":"address"}],"name":"ERC721InvalidOwner","type":"error"},{"inputs":[{"internalType":"address","name":"receiver","type":"address"}],"name":"ERC721InvalidReceiver","type":"error"},{"inputs":[{"internalType":"address","name":"sender","type":"address"}],"name":"ERC721InvalidSender","type":"error"},{"inputs":[{"internalType":"uint256","name":"tokenId","type":"uint256"}],"name":"ERC721NonexistentToken","type":"error"},{"inputs":[{"internalType":"address","name":"owner","type":"address"},{"internalType":"uint256","name":"index","type":"uint256"}],"name":"ERC721OutOfBoundsIndex","type":"error"},{"inputs":[],"name":"EnforcedPause","type":"error"},{"inputs":[],"name":"ExpectedPause","type":"error"},{"inputs":[{"internalType":"address","name":"owner","type":"address"}],"name":"OwnableInvalidOwner","type":"error"},{"inputs":[{"internalType":"address","name":"account","type":"address"}],"name":"OwnableUnauthorizedAccount","type":"error"},{"inputs":[],"name":"ReentrancyGuardReentrantCall","type":"error"},{"anonymous":false,"inputs":[{"indexed":true,"internalType":"address","name":"addr","type":"address"}],"name":"AddressRegisteredInterest","type":"event"},{"anonymous":false,"inputs":[{"indexed":true,"internalType":"address","name":"addr","type":"address"}],"name":"AddressRemovedFromWhitelist","type":"event"},{"anonymous":false,"inputs":[{"indexed":true,"internalType":"address","name":"addr","type":"address"}],"name":"AddressWhitelisted","type":"event"},{"anonymous":false,"inputs":[{"indexed":true,"internalType":"address","name":"admin","type":"address"},{"indexed":true,"internalType":"address","name":"addedBy","type":"address"}],"name":"AdminAdded","type":"event"},{"anonymous":false,"inputs":[{"indexed":true,"internalType":"address","name":"admin","type":"address"},{"indexed":true,"internalType":"address","name":"removedBy","type":"address"}],"name":"AdminRemoved","type":"event"},{"anonymous":false,"inputs":[{"indexed":true,"internalType":"address","name":"owner","type":"address"},{"indexed":true,"internalType":"address","name":"approved","type":"address"},{"indexed":true,"internalType":"uint256","name":"tokenId","type":"uint256"}],"name":"Approval","type":"event"},{"anonymous":false,"inputs":[{"indexed":true,"internalType":"address","name":"owner","type":"address"},{"indexed":true,"internalType":"address","name":"operator","type":"address"},{"indexed":false,"internalType":"bool","name":"approved","type":"bool"}],"name":"ApprovalForAll","type":"event"},{"anonymous":false,"inputs":[{"indexed":true,"internalType":"address","name":"artist","type":"address"},{"indexed":false,"internalType":"string","name":"name","type":"string"},{"indexed":false,"internalType":"string","name":"bio","type":"string"},{"indexed":false,"internalType":"string","name":"avatarURI","type":"string"}],"name":"ArtistProfileUpdated","type":"event"},{"anonymous":false,"inputs":[{"indexed":true,"internalType":"uint256","name":"tokenId","type":"uint256"},{"indexed":true,"internalType":"uint256","name":"seriesId","type":"uint256"},{"indexed":true,"internalType":"address","name":"buyer","type":"address"},{"indexed":false,"internalType":"address","name":"artist","type":"address"},{"indexed":false,"internalType":"uint256","name":"price","type":"uint256"}],"name":"ArtworkMinted","type":"event"},{"anonymous":false,"inputs":[{"indexed":true,"internalType":"uint256","name":"seriesId","type":"uint256"},{"indexed":true,"internalType":"address","name":"artist","type":"address"},{"indexed":false,"internalType":"string","name":"title","type":"string"},{"indexed":false,"internalType":"uint256","name":"price","type":"uint256"},{"indexed":false,"internalType":"uint256","name":"maxSupply","type":"uint256"},{"indexed":false,"internalType":"uint256","name":"imageSize","type":"uint256"}],"name":"ArtworkSeriesCreated","type":"event"},{"anonymous":false,"inputs":[{"indexed":true,"internalType":"address","name":"previousOwner","type":"address"},{"indexed":true,"internalType":"address","name":"newOwner","type":"address"}],"name":"OwnershipTransferred","type":"event"},{"anonymous":false,"inputs":[{"indexed":false,"internalType":"address","name":"account","type":"address"}],"name":"Paused","type":"event"},{"anonymous":false,"inputs":[{"indexed":false,"internalType":"uint256","name":"oldFee","type":"uint256"},{"indexed":false,"internalType":"uint256","name":"newFee","type":"uint256"}],"name":"PlatformFeeUpdated","type":"event"},{"anonymous":false,"inputs":[{"indexed":true,"internalType":"address","name":"from","type":"address"},{"indexed":true,"internalType":"address","name":"to","type":"address"},{"indexed":true,"internalType":"uint256","name":"tokenId","type":"uint256"}],"name":"Transfer","type":"event"},{"anonymous":false,"inputs":[{"indexed":false,"internalType":"address","name":"account","type":"address"}],"name":"Unpaused","type":"event"},{"anonymous":false,"inputs":[{"indexed":false,"internalType":"bool","name":"enabled","type":"bool"},{"indexed":true,"internalType":"address","name":"toggledBy","type":"address"}],"name":"WhitelistToggled","type":"event"},{"inputs":[],"name":"MAX_PLATFORM_FEE","outputs":[{"internalType":"uint256","name":"","type":"uint256"}],"stateMutability":"view","type":"function"},{"inputs":[{"internalType":"address","name":"addr","type":"address"}],"name":"addAdmin","outputs":[],"stateMutability":"nonpayable","type":"function"},{"inputs":[{"internalType":"uint256","name":"","type":"uint256"}],"name":"adminAddressList","outputs":[{"internalType":"address","name":"","type":"address"}],"stateMutability":"view","type":"function"},{"inputs":[{"internalType":"address","name":"","type":"address"}],"name":"adminAddresses","outputs":[{"internalType":"bool","name":"","type":"bool"}],"stateMutability":"view","type":"function"},{"inputs":[{"internalType":"address","name":"to","type":"address"},{"internalType":"uint256","name":"tokenId","type":"uint256"}],"name":"approve","outputs":[],"stateMutability":"nonpayable","type":"function"},{"inputs":[{"internalType":"address[]","name":"addresses","type":"address[]"}],"name":"approveAddresses","outputs":[],"stateMutability":"nonpayable","type":"function"},{"inputs":[{"internalType":"address","name":"","type":"address"}],"name":"artistProfiles","outputs":[{"internalType":"string","name":"name","type":"string"},{"internalType":"string","name":"bio","type":"string"},{"internalType":"string","name":"avatarURI","type":"string"},{"internalType":"uint256","name":"totalSeriesCreated","type":"uint256"},{"internalType":"uint256","name":"totalNFTsCollected","type":"uint256"},{"internalType":"bool","name":"isRegistered","type":"bool"}],"stateMutability":"view","type":"function"},{"inputs":[{"internalType":"address","name":"","type":"address"},{"internalType":"uint256","name":"","type":"uint256"}],"name":"artistSeries","outputs":[{"internalType":"uint256","name":"","type":"uint256"}],"stateMutability":"view","type":"function"},{"inputs":[{"internalType":"uint256","name":"","type":"uint256"}],"name":"artworkSeries","outputs":[{"internalType":"uint256","name":"seriesId","type":"uint256"},{"internalType":"address","name":"artist","type":"address"},{"internalType":"string","name":"title","type":"string"},{"internalType":"string","name":"description","type":"string"},{"internalType":"bytes","name":"imageData","type":"bytes"},{"internalType":"string","name":"imageType","type":"string"},{"internalType":"uint256","name":"price","type":"uint256"},{"internalType":"uint256","name":"maxSupply","type":"uint256"},{"internalType":"uint256","name":"minted","type":"uint256"},{"internalType":"bool","name":"isActive","type":"bool"},{"internalType":"uint256","name":"createdAt","type":"uint256"}],"stateMutability":"view","type":"function"},{"inputs":[{"internalType":"address","name":"owner","type":"address"}],"name":"balanceOf","outputs":[{"internalType":"uint256","name":"","type":"uint256"}],"stateMutability":"view","type":"function"},{"inputs":[{"internalType":"address","name":"","type":"address"},{"internalType":"uint256","name":"","type":"uint256"}],"name":"collectorTokens","outputs":[{"internalType":"uint256","name":"","type":"uint256"}],"stateMutability":"view","type":"function"},{"inputs":[{"internalType":"string","name":"_title","type":"string"},{"internalType":"string","name":"_description","type":"string"},{"internalType":"bytes","name":"_imageData","type":"bytes"},{"internalType":"string","name":"_imageType","type":"string"},{"internalType":"uint256","name":"_price","type":"uint256"},{"internalType":"uint256","name":"_maxSupply","type":"uint256"}],"name":"createArtworkSeries","outputs":[{"internalType":"uint256","name":"","type":"uint256"}],"stateMutability":"nonpayable","type":"function"},{"inputs":[],"name":"getAdminAddresses","outputs":[{"internalType":"address[]","name":"","type":"address[]"}],"stateMutability":"view","type":"function"},{"inputs":[{"internalType":"uint256","name":"tokenId","type":"uint256"}],"name":"getApproved","outputs":[{"internalType":"address","name":"","type":"address"}],"stateMutability":"view","type":"function"},{"inputs":[{"internalType":"address","name":"artist","type":"address"}],"name":"getArtistProfile","outputs":[{"internalType":"string","name":"artistName","type":"string"},{"internalType":"string","name":"bio","type":"string"},{"internalType":"string","name":"avatarURI","type":"string"},{"internalType":"uint256","name":"totalSeriesCreated","type":"uint256"},{"internalType":"uint256","name":"totalNFTsCollected","type":"uint256"},{"internalType":"bool","name":"isRegistered","type":"bool"}],"stateMutability":"view","type":"function"},{"inputs":[{"internalType":"address","name":"artist","type":"address"}],"name":"getArtistSeries","outputs":[{"internalType":"uint256[]","name":"","type":"uint256[]"}],"stateMutability":"view","type":"function"},{"inputs":[{"internalType":"uint256","name":"tokenId","type":"uint256"}],"name":"getArtworkImageData","outputs":[{"internalType":"bytes","name":"imageData","type":"bytes"},{"internalType":"string","name":"imageType","type":"string"}],"stateMutability":"view","type":"function"},{"inputs":[{"internalType":"uint256","name":"seriesId","type":"uint256"}],"name":"getArtworkSeries","outputs":[{"internalType":"address","name":"artist","type":"address"},{"internalType":"string","name":"title","type":"string"},{"internalType":"string","name":"description","type":"string"},{"internalType":"string","name":"imageType","type":"string"},{"internalType":"uint256","name":"imageSize","type":"uint256"},{"internalType":"uint256","name":"price","type":"uint256"},{"internalType":"uint256","name":"maxSupply","type":"uint256"},{"internalType":"uint256","name":"minted","type":"uint256"},{"internalType":"bool","name":"isActive","type":"bool"},{"internalType":"uint256","name":"createdAt","type":"uint256"}],"stateMutability":"view","type":"function"},{"inputs":[{"internalType":"address","name":"collector","type":"address"}],"name":"getCollectorTokens","outputs":[{"internalType":"uint256[]","name":"","type":"uint256[]"}],"stateMutability":"view","type":"function"},{"inputs":[],"name":"getCurrentSeriesId","outputs":[{"internalType":"uint256","name":"","type":"uint256"}],"stateMutability":"view","type":"function"},{"inputs":[],"name":"getCurrentTokenId","outputs":[{"internalType":"uint256","name":"","type":"uint256"}],"stateMutability":"view","type":"function"},{"inputs":[{"internalType":"uint256","name":"tokenId","type":"uint256"}],"name":"getIndividualArtwork","outputs":[{"internalType":"uint256","name":"seriesId","type":"uint256"},{"internalType":"address","name":"artist","type":"address"},{"internalType":"string","name":"title","type":"string"},{"internalType":"string","name":"description","type":"string"},{"internalType":"string","name":"imageType","type":"string"},{"internalType":"uint256","name":"imageSize","type":"uint256"},{"internalType":"uint256","name":"mintedAt","type":"uint256"}],"stateMutability":"view","type":"function"},{"inputs":[],"name":"getInterestedAddresses","outputs":[{"internalType":"address[]","name":"","type":"address[]"}],"stateMutability":"view","type":"function"},{"inputs":[{"internalType":"uint256","name":"tokenId","type":"uint256"},{"internalType":"uint256","name":"salePrice","type":"uint256"}],"name":"getSecondaryFees","outputs":[{"internalType":"address","name":"artist","type":"address"},{"internalType":"uint256","name":"artistRoyalty","type":"uint256"},{"internalType":"uint256","name":"platformFee","type":"uint256"},{"internalType":"uint256","name":"totalFees","type":"uint256"}],"stateMutability":"view","type":"function"},{"inputs":[{"internalType":"uint256","name":"seriesId","type":"uint256"}],"name":"getSeriesTokens","outputs":[{"internalType":"uint256[]","name":"","type":"uint256[]"}],"stateMutability":"view","type":"function"},{"inputs":[],"name":"getWhitelistedAddresses","outputs":[{"internalType":"address[]","name":"","type":"address[]"}],"stateMutability":"view","type":"function"},{"inputs":[{"internalType":"uint256","name":"","type":"uint256"}],"name":"individualArtworks","outputs":[{"internalType":"uint256","name":"tokenId","type":"uint256"},{"internalType":"uint256","name":"seriesId","type":"uint256"},{"internalType":"address","name":"artist","type":"address"},{"internalType":"uint256","name":"mintedAt","type":"uint256"}],"stateMutability":"view","type":"function"},{"inputs":[{"internalType":"uint256","name":"","type":"uint256"}],"name":"interestedAddressList","outputs":[{"internalType":"address","name":"","type":"address"}],"stateMutability":"view","type":"function"},{"inputs":[{"internalType":"address","name":"","type":"address"}],"name":"interestedAddresses","outputs":[{"internalType":"bool","name":"","type":"bool"}],"stateMutability":"view","type":"function"},{"inputs":[{"internalType":"address","name":"addr","type":"address"}],"name":"isAdmin","outputs":[{"internalType":"bool","name":"","type":"bool"}],"stateMutability":"view","type":"function"},{"inputs":[{"internalType":"address","name":"owner","type":"address"},{"internalType":"address","name":"operator","type":"address"}],"name":"isApprovedForAll","outputs":[{"internalType":"bool","name":"","type":"bool"}],"stateMutability":"view","type":"function"},{"inputs":[{"internalType":"address","name":"addr","type":"address"}],"name":"isInterested","outputs":[{"internalType":"bool","name":"","type":"bool"}],"stateMutability":"view","type":"function"},{"inputs":[],"name":"isWhitelistEnabled","outputs":[{"internalType":"bool","name":"","type":"bool"}],"stateMutability":"view","type":"function"},{"inputs":[{"internalType":"address","name":"addr","type":"address"}],"name":"isWhitelisted","outputs":[{"internalType":"bool","name":"","type":"bool"}],"stateMutability":"view","type":"function"},{"inputs":[],"name":"name","outputs":[{"internalType":"string","name":"","type":"string"}],"stateMutability":"view","type":"function"},{"inputs":[],"name":"owner","outputs":[{"internalType":"address","name":"","type":"address"}],"stateMutability":"view","type":"function"},{"inputs":[{"internalType":"uint256","name":"tokenId","type":"uint256"}],"name":"ownerOf","outputs":[{"internalType":"address","name":"","type":"address"}],"stateMutability":"view","type":"function"},{"inputs":[],"name":"pause","outputs":[],"stateMutability":"nonpayable","type":"function"},{"inputs":[],"name":"paused","outputs":[{"internalType":"bool","name":"","type":"bool"}],"stateMutability":"view","type":"function"},{"inputs":[],"name":"platformFeePercentage","outputs":[{"internalType":"uint256","name":"","type":"uint256"}],"stateMutability":"view","type":"function"},{"inputs":[{"internalType":"uint256","name":"seriesId","type":"uint256"}],"name":"purchaseFromSeries","outputs":[{"internalType":"uint256","name":"","type":"uint256"}],"stateMutability":"payable","type":"function"},{"inputs":[],"name":"registerInterest","outputs":[],"stateMutability":"nonpayable","type":"function"},{"inputs":[{"internalType":"address","name":"addr","type":"address"}],"name":"removeAdmin","outputs":[],"stateMutability":"nonpayable","type":"function"},{"inputs":[{"internalType":"address","name":"addr","type":"address"}],"name":"removeFromWhitelist","outputs":[],"stateMutability":"nonpayable","type":"function"},{"inputs":[],"name":"renounceOwnership","outputs":[],"stateMutability":"nonpayable","type":"function"},{"inputs":[{"internalType":"uint256","name":"tokenId","type":"uint256"},{"internalType":"uint256","name":"salePrice","type":"uint256"}],"name":"royaltyInfo","outputs":[{"internalType":"address","name":"receiver","type":"address"},{"internalType":"uint256","name":"royaltyAmount","type":"uint256"}],"stateMutability":"view","type":"function"},{"inputs":[{"internalType":"address","name":"from","type":"address"},{"internalType":"address","name":"to","type":"address"},{"internalType":"uint256","name":"tokenId","type":"uint256"}],"name":"safeTransferFrom","outputs":[],"stateMutability":"nonpayable","type":"function"},{"inputs":[{"internalType":"address","name":"from","type":"address"},{"internalType":"address","name":"to","type":"address"},{"internalType":"uint256","name":"tokenId","type":"uint256"},{"internalType":"bytes","name":"data","type":"bytes"}],"name":"safeTransferFrom","outputs":[],"stateMutability":"nonpayable","type":"function"},{"inputs":[],"name":"secondaryArtistRoyalty","outputs":[{"internalType":"uint256","name":"","type":"uint256"}],"stateMutability":"view","type":"function"},{"inputs":[],"name":"secondaryPlatformFee","outputs":[{"internalType":"uint256","name":"","type":"uint256"}],"stateMutability":"view","type":"function"},{"inputs":[{"internalType":"uint256","name":"","type":"uint256"},{"internalType":"uint256","name":"","type":"uint256"}],"name":"seriesTokens","outputs":[{"internalType":"uint256","name":"","type":"uint256"}],"stateMutability":"view","type":"function"},{"inputs":[{"internalType":"address","name":"operator","type":"address"},{"internalType":"bool","name":"approved","type":"bool"}],"name":"setApprovalForAll","outputs":[],"stateMutability":"nonpayable","type":"function"},{"inputs":[{"internalType":"uint256","name":"_platformFeePercentage","type":"uint256"}],"name":"setPlatformFee","outputs":[],"stateMutability":"nonpayable","type":"function"},{"inputs":[{"internalType":"uint256","name":"_platformFee","type":"uint256"},{"internalType":"uint256","name":"_artistRoyalty","type":"uint256"}],"name":"setSecondaryFees","outputs":[],"stateMutability":"nonpayable","type":"function"},{"inputs":[{"internalType":"address","name":"_treasuryAddress","type":"address"}],"name":"setTreasuryAddress","outputs":[],"stateMutability":"nonpayable","type":"function"},{"inputs":[{"internalType":"bytes4","name":"interfaceId","type":"bytes4"}],"name":"supportsInterface","outputs":[{"internalType":"bool","name":"","type":"bool"}],"stateMutability":"view","type":"function"},{"inputs":[],"name":"symbol","outputs":[{"internalType":"string","name":"","type":"string"}],"stateMutability":"view","type":"function"},{"inputs":[{"internalType":"uint256","name":"seriesId","type":"uint256"}],"name":"toggleSeriesStatus","outputs":[],"stateMutability":"nonpayable","type":"function"},{"inputs":[],"name":"toggleWhitelist","outputs":[],"stateMutability":"nonpayable","type":"function"},{"inputs":[{"internalType":"uint256","name":"index","type":"uint256"}],"name":"tokenByIndex","outputs":[{"internalType":"uint256","name":"","type":"uint256"}],"stateMutability":"view","type":"function"},{"inputs":[{"internalType":"address","name":"owner","type":"address"},{"internalType":"uint256","name":"index","type":"uint256"}],"name":"tokenOfOwnerByIndex","outputs":[{"internalType":"uint256","name":"","type":"uint256"}],"stateMutability":"view","type":"function"},{"inputs":[{"internalType":"uint256","name":"tokenId","type":"uint256"}],"name":"tokenURI","outputs":[{"internalType":"string","name":"","type":"string"}],"stateMutability":"view","type":"function"},{"inputs":[],"name":"totalSupply","outputs":[{"internalType":"uint256","name":"","type":"uint256"}],"stateMutability":"view","type":"function"},{"inputs":[{"internalType":"address","name":"from","type":"address"},{"internalType":"address","name":"to","type":"address"},{"internalType":"uint256","name":"tokenId","type":"uint256"}],"name":"transferFrom","outputs":[],"stateMutability":"nonpayable","type":"function"},{"inputs":[{"internalType":"address","name":"newOwner","type":"address"}],"name":"transferOwnership","outputs":[],"stateMutability":"nonpayable","type":"function"},{"inputs":[],"name":"treasuryAddress","outputs":[{"internalType":"address","name":"","type":"address"}],"stateMutability":"view","type":"function"},{"inputs":[],"name":"unpause","outputs":[],"stateMutability":"nonpayable","type":"function"},{"inputs":[{"internalType":"string","name":"_name","type":"string"},{"internalType":"string","name":"_bio","type":"string"},{"internalType":"string","name":"_avatarURI","type":"string"}],"name":"updateArtistProfile","outputs":[],"stateMutability":"nonpayable","type":"function"},{"inputs":[{"internalType":"uint256","name":"seriesId","type":"uint256"},{"internalType":"uint256","name":"newPrice","type":"uint256"}],"name":"updateSeriesPrice","outputs":[],"stateMutability":"nonpayable","type":"function"},{"inputs":[],"name":"whitelistEnabled","outputs":[{"internalType":"bool","name":"","type":"bool"}],"stateMutability":"view","type":"function"},{"inputs":[{"internalType":"uint256","name":"","type":"uint256"}],"name":"whitelistedAddressList","outputs":[{"internalType":"address","name":"","type":"address"}],"stateMutability":"view","type":"function"},{"inputs":[{"internalType":"address","name":"","type":"address"}],"name":"whitelistedAddresses","outputs":[{"internalType":"bool","name":"","type":"bool"}],"stateMutability":"view","type":"function"}],"evm":{"bytecode":{"linkReferences":{},"object":"6080346200050f576200562690601f1990601f906001600160401b039038859003838101851682019083821183831017620004f957808391604098899485528339810103126200050f57620000548162000534565b9362000064602080930162000534565b6200006e62000514565b9360098552685065726d616c696e6b60b81b848601526200008e62000514565b926005845264504c494e4b60d81b85850152855193828511620004f9576000948554976001988981811c91168015620004ee575b89821014620004da5790818b84931162000487575b5088908b8311600114620004265788926200041a575b5050600019600383901b1c191690881b1785555b8051928311620004065786548781811c91168015620003fb575b87821014620003e7579081898594931162000392575b508691898411600114620003315750859262000325575b5050600019600383901b1c191690851b1784555b6001600160a01b039586169485156200030d57600a80546001600160a01b031980821689179092558951919890889082167f8be0079c531659141344cd1fd0a4f28419497f9722a3daafe3b4186f6b6457e08780a386600b5560fa600d5560fa600e556102ee600f55846011558460125560ff19938785601354161760135516918215620002cc57505086601054161760105584825260168352868220848282541617905560158352838783209182541617905560195492680100000000000000009384811015620002b85781810180601955811015620002a457601983528383200185878254161790556018549384101562000290578301806018558310156200027c5760188152200191825416179055516150dc90816200054a8239f35b634e487b7160e01b81526032600452602490fd5b634e487b7160e01b82526041600452602482fd5b634e487b7160e01b83526032600452602483fd5b634e487b7160e01b83526041600452602483fd5b62461bcd60e51b82526004820186905260248201527f547265617375727920616464726573732063616e6e6f74206265207a65726f00604482015260649150fd5b8751631e4fbdf760e01b815260048101849052602490fd5b01519050388062000148565b88875287872089959093929116875b898282106200037b575050841162000361575b505050811b0184556200015c565b015160001960f88460031b161c1916905538808062000353565b8385015186558b9790950194938401930162000340565b909192508786528686208980860160051c820192898710620003dd575b918a9187969594930160051c01915b828110620003ce57505062000131565b8881558695508a9101620003be565b92508192620003af565b634e487b7160e01b86526022600452602486fd5b90607f16906200011b565b634e487b7160e01b85526041600452602485fd5b015190503880620000ed565b90858b9416918980528a8a20928a5b8c82821062000470575050841162000456575b505050811b01855562000101565b015160001960f88460031b161c1916905538808062000448565b8385015186558e9790950194938401930162000435565b9091508780528888208b80850160051c8201928b8610620004d0575b918c91869594930160051c01915b828110620004c1575050620000d7565b8a81558594508c9101620004b1565b92508192620004a3565b634e487b7160e01b88526022600452602488fd5b90607f1690620000c2565b634e487b7160e01b600052604160045260246000fd5b600080fd5b60408051919082016001600160401b03811183821017620004f957604052565b51906001600160a01b03821682036200050f5756fe608080604052600436101561001357600080fd5b60003560e01c90816301ffc9a7146139995750806306c933d8146130c657806306fdde03146138ee578063081812fc146138b0578063095ea7b3146137c95780630a92dd531461376c57806312e8e2c3146136da5780631447ba1c14613664578063171212d5146135d85780631785f53c146133fd57806318160ddd146133df578063184d69ab146124e657806323b872dd146133c857806324d7806c1461259b5780632a55205a146132525780632b14d65a146132215780632f745c591461319d578063393dbf9b146131225780633998a681146131055780633af32abf146130c65780633b5221e214612f5c5780633dead461146129fc5780633f4ba83a1461299257806342842e0e1461296a57806344e433d0146128df578063466e0a8e146127ba57806347f60fc0146125f8578063489b3711146125da5780634bf56fd1146122b75780634ed38faf1461259b5780634f6ccce7146125535780635024fd8c1461250957806351fb012d146124e657806356189236146124c857806356fb01391461247f5780635c975abb1461245c5780635f5fff4d146122f657806362afcf00146122b75780636352211e1461228757806363c770d81461225e57806364ddfa29146121da5780636605bfda1461214d57806367de246c146120f75780636980d1a41461209f5780636d0280271461201b5780636e97722314611fd95780637048027514611e5957806370a0823114611e2e578063715018a614611dd15780637e15144b14611d465780638043c6c014611d285780638456cb5914611cce5780638ab1d68114611a9c5780638da5cb5b14611a735780638dc8b4da146119e357806395d89b4114611900578063a22cb46514611852578063b23cd1a6146114e1578063b3b30640146113fb578063b6d8ed1614611266578063b7195763146110e4578063b88d4fde14611094578063c5f956af1461106b578063c87b56dd14611038578063cd28774d146106e5578063cdd78cfc146106c7578063e084ffda1461066c578063e0f8b313146105e1578063e985e9c51461058b578063ecceec821461056d578063f0f4d0cb146103c55763f2fde38b1461033757600080fd5b346103c05760203660031901126103c057610350613a38565b610358614ca7565b6001600160a01b039081169081156103a757600a54826001600160601b0360a01b821617600a55167f8be0079c531659141344cd1fd0a4f28419497f9722a3daafe3b4186f6b6457e0600080a3005b604051631e4fbdf760e01b815260006004820152602490fd5b600080fd5b346103c0576020806003193601126103c0576001600160401b036004358181116103c057366023820112156103c05780600401359182116103c0576024926005913660248560051b830101116103c057336000526016926016835260ff9160ff604060002054168015610559575b61043c90613eb0565b60005b86811061044857005b80831b82018801356001600160a01b038116908181036103c057816000526014875285604060002054161561051e5781600052601580885286604060002054166104da5782916104af9160019594600052895260406000208560ff198254161790556142a2565b7f4f783c179409b4127238bc9c990bc99b9a651666a0d20b51d6c42849eb88466d600080a20161043f565b60405162461bcd60e51b815260048101899052601b818d01527f4164647265737320616c72656164792077686974656c697374656400000000006044820152606490fd5b606487898c6040519262461bcd60e51b84526004840152820152751059191c995cdcc81b9bdd081a5b9d195c995cdd195960521b6044820152fd5b50600a546001600160a01b03163314610433565b346103c05760003660031901126103c0576020600f54604051908152f35b346103c05760403660031901126103c0576105a4613a38565b6105ac613a4e565b9060018060a01b03809116600052600560205260406000209116600052602052602060ff604060002054166040519015158152f35b346103c0576020806003193601126103c0576001600160a01b03610603613a38565b16600052601f6020526040600020906040519081602084549182815201936000526020600020916000905b828210610655576106518561064581890382613c1a565b60405191829182613d7c565b0390f35b83548652948501946001938401939091019061062e565b346103c05760203660031901126103c0576004356017548110156103c05760176000527fc624b66cc0138b8fabc209247f72d758e1cf3343756d543badbf24212bed8c1501546040516001600160a01b039091168152602090f35b346103c05760003660031901126103c0576020600d54604051908152f35b346103c05760c03660031901126103c0576004356001600160401b0381116103c057610715903690600401613e18565b6024356001600160401b0381116103c057610734903690600401613e18565b906044356001600160401b0381116103c057610754903690600401613e18565b906064356001600160401b0381116103c057610774903690600401613e18565b9161077d614cd3565b610785614cf1565b60ff60135416610ffd575b60a43515610fae57815115610f7157805115610f2c57614000815111610ee757825115610ea2576107dd6040516107c681613be4565b60048152636a70656760e01b602082015284615051565b8015610e77575b8015610e4c575b8015610e21575b8015610df5575b8015610dca575b8015610d9f575b15610d6557610817601254614232565b92836012556040519461082986613bad565b848652336020870152836040870152606086015281608086015260a085015260843560c085015260a43560e0850152600061010085015260016101208501524261014085015282600052601b602052604060002090845182556001820160018060a01b036020870151166001600160601b0360a01b82541617905560408501518051906001600160401b038211610bee576108d4826108cb6002870154613ac2565b600287016142fe565b602090601f8311600114610cf357610905929160009183610c04575b50508160011b916000199060031b1c19161790565b60028301555b60608501518051906001600160401b038211610bee5761093b826109326003870154613ac2565b600387016142fe565b602090601f8311600114610c815761096b929160009183610c045750508160011b916000199060031b1c19161790565b60038301555b60808501518051906001600160401b038211610bee576109a1826109986004870154613ac2565b600487016142fe565b602090601f8311600114610c0f576109d1929160009183610c045750508160011b916000199060031b1c19161790565b60048301555b60a0850151908151926001600160401b038411610bee576020968693610a0d86610a046005860154613ac2565b600586016142fe565b8890601f8711600114610b545791610a65877f620a19bc4daee514fee0572d8f32a41afcfaa7df6e10ef4de93aed4f9dcdeebc979861014094600a96600092610b495750508160011b916000199060031b1c19161790565b60058501555b60c0810151600685015560e081015160078501556101008101516008850155610aaa6101208201511515600986019060ff801983541691151516179055565b015191015533600052601e8652610ac583604060002061427f565b33600052601a86526003604060002060058101805460ff811615610b32575b505001610af18154614232565b90555192610b0a60405191608083526080830190613a87565b936084358783015260a435604083015260608201528033940390a36001600b55604051908152f35b60ff19166001179055600060048201558880610ae4565b015190508d806108f0565b959060058401600052896000209660005b601f1984168110610bd45750827f620a19bc4daee514fee0572d8f32a41afcfaa7df6e10ef4de93aed4f9dcdeebc9798600a959360019361014096601f19811610610bbb575b505050811b016005850155610a6b565b015160001960f88460031b161c191690558c8080610bab565b8282015189556001909801978a9750918b01918b01610b65565b634e487b7160e01b600052604160045260246000fd5b0151905088806108f0565b9190600485016000526020600020906000935b601f1984168510610c66576001945083601f19811610610c4d575b505050811b0160048301556109d7565b015160001960f88460031b161c19169055878080610c3d565b81810151835560209485019460019093019290910190610c22565b9190600385016000526020600020906000935b601f1984168510610cd8576001945083601f19811610610cbf575b505050811b016003830155610971565b015160001960f88460031b161c19169055878080610caf565b81810151835560209485019460019093019290910190610c94565b9190600285016000526020600020906000935b601f1984168510610d4a576001945083601f19811610610d31575b505050811b01600283015561090b565b015160001960f88460031b161c19169055878080610d21565b81810151835560209485019460019093019290910190610d06565b60405162461bcd60e51b8152602060048201526012602482015271496e76616c696420696d616765207479706560701b6044820152606490fd5b50610dc5604051610daf81613be4565b600381526207a69760ec1b602082015284615051565b610807565b50610df0604051610dda81613be4565b600381526273766760e81b602082015284615051565b610800565b50610e1c604051610e0581613be4565b60048152630776562760e41b602082015284615051565b6107f9565b50610e47604051610e3181613be4565b600381526233b4b360e91b602082015284615051565b6107f2565b50610e72604051610e5c81613be4565b6003815262706e6760e81b602082015284615051565b6107eb565b50610e9d604051610e8781613be4565b60038152626a706760e81b602082015284615051565b6107e4565b60405162461bcd60e51b815260206004820152601a60248201527f496d61676520747970652063616e6e6f7420626520656d7074790000000000006044820152606490fd5b60405162461bcd60e51b815260206004820152601a60248201527f496d61676520746f6f206c61726765202831364b42206d6178290000000000006044820152606490fd5b60405162461bcd60e51b815260206004820152601a60248201527f496d61676520646174612063616e6e6f7420626520656d7074790000000000006044820152606490fd5b60405162461bcd60e51b81526020600482015260156024820152745469746c652063616e6e6f7420626520656d70747960581b6044820152606490fd5b60405162461bcd60e51b815260206004820152602160248201527f4d617820737570706c79206d7573742062652067726561746572207468616e206044820152600360fc1b6064820152608490fd5b33600052601560205260ff604060002054168015611024575b61101f906141b4565b610790565b50600a546001600160a01b03163314611016565b346103c05760203660031901126103c0576106516110576004356144a7565b604051918291602083526020830190613a87565b346103c05760003660031901126103c0576010546040516001600160a01b039091168152602090f35b346103c05760803660031901126103c0576110ad613a38565b6110b5613a4e565b606435916001600160401b0383116103c0576110d86110e2933690600401613e18565b9160443591614354565b005b346103c05760806110f436613aac565b90806000526020906002825260018060a01b039061111a8260406000205416151561415e565b600052601c8252604060002060405161113281613b92565b815481526060600360018401549384878501528560028201541660408501520154910152600052601b8252604060002060405161116e81613bad565b81548152610140600a84600185015416938684019485526040516111a0816111998160028601613afc565b0382613c1a565b60408501526040516111b9816111998160038601613afc565b60608501526040516111d2816111998160048601613afc565b898501526040516111ea816111998160058601613afc565b60a0850152600681015460c0850152600781015460e0850152600881015461010085015260ff6009820154161515610120850152015491015251169161271061124481611239600f54856141a1565b0492600e54906141a1565b04906112508282613ea3565b9260405194855284015260408301526060820152f35b346103c05760203660031901126103c057600435601254811115806113f2575b61128f906141f2565b600052601b6020526101406040600020604051906112ac82613bad565b8054825260018101546001600160a01b031660208301526040516112d7816111998160028601613afc565b6040830152604051906112f8826112f18160038501613afc565b0383613c1a565b60608301918252604051611313816111998160048601613afc565b60808401526040519061132d826112f18160058501613afc565b8160a08501526006810154908160c086015260078101548060e08701526008820154906101009382858901526113cd600a60ff600987015416958615156101208c0152015496878b8b01526113bf60018060a01b0360208c0151169a6113b1608060408301519c51920151519b6040519e8f9e8f9081528160208201520190613a87565b8c810360408e015290613a87565b908a820360608c0152613a87565b96608089015260a088015260c087015260e08601521515908401526101208301520390f35b50801515611286565b346103c05760203660031901126103c0576001600160a01b0361141c613a38565b16600052601a602052604060002060405160c081018181106001600160401b03821117610bee578060405261146060bf19836114588487613afc565b030182613c1a565b8152610651604051916114818361147a8160018801613afc565b0384613c1a565b60208101928352604051936114a48561149d8160028501613afc565b0386613c1a565b846040830152600381015480606084015260ff60056004840154938460808701520154161515928360a08201525194519560405196879687613c3b565b346103c05760603660031901126103c0576001600160401b036004358181116103c057611512903690600401613e18565b6024358281116103c05761152a903690600401613e18565b916044358181116103c057611543903690600401613e18565b9233600052602091601a835260406000209060058201805460ff811615611834575b50508451818111610bee576115848161157e8554613ac2565b856142fe565b84601f82116001146117d05790806115b2926000916117c5575b508160011b916000199060031b1c19161790565b82555b6001918281018451838111610bee576115d8816115d28454613ac2565b846142fe565b86601f8211600114611761578160029493926116099260009161175657508160011b916000199060031b1c19161790565b90555b01918651918211610bee576116258261157e8554613ac2565b8490601f83116001146116c55750937f39dfee1413bb413ba51702fe3cd693cd3b02628fbac61358818d502b7af5009595936116b593611682846116a695611699996000916116ba57508160011b916000199060031b1c19161790565b90555b604051958695606087526060870190613a87565b9185830390860152613a87565b82810360408401523395613a87565b0390a2005b90508b01518c61159e565b9190601f1982169084600052866000209160005b8a82821061174257505093837f39dfee1413bb413ba51702fe3cd693cd3b02628fbac61358818d502b7af500959997936116b597936116999a966116a69810611729575b5050811b019055611685565b8c015160001960f88460031b161c191690558b8061171d565b8301518455928501929188019188016116d9565b90508801518c61159e565b6000838152888120601f198416959493889390925b8b8882106117af5750508260029710611796575b5050811b01905561160c565b89015160001960f88460031b161c191690558b8061178a565b828c015184558a95909301929182019101611776565b90508701518961159e565b601f1982169084600052866000209160005b8882821061181e5750509083600194939210611805575b5050811b0182556115b5565b88015160001960f88460031b161c1916905588806117f9565b600184958293958d0151815501940192016117e2565b60ff1916600117905560006003830181905560048301558680611565565b346103c05760403660031901126103c05761186b613a38565b60243590811515908183036103c0576001600160a01b03169182156118e7576118b99033600052600560205260406000208460005260205260406000209060ff801983541691151516179055565b6040519081527f17307eab39ab6107e8899845ad3d59bd9653f200f220920489ca2b5937696c3160203392a3005b604051630b61174360e31b815260048101849052602490fd5b346103c05760003660031901126103c05760405160006001826001549261192684613ac2565b92838352602094856001821691826000146119c3575050600114611966575b5061195292500383613c1a565b610651604051928284938452830190613a87565b84915060016000527fb10e2d527612073b26eecdfd717e6a320cf44b4afac2b0732d9fcbe2b7fa0cf6906000915b8583106119ab575050611952935082010185611945565b80548389018501528794508693909201918101611994565b60ff19168582015261195295151560051b85010192508791506119459050565b346103c05760003660031901126103c057604051806017549182815260208091019260176000527fc624b66cc0138b8fabc209247f72d758e1cf3343756d543badbf24212bed8c15916000905b828210611a535761065185611a4781890382613c1a565b60405191829182613db8565b83546001600160a01b031686529485019460019384019390910190611a30565b346103c05760003660031901126103c057600a546040516001600160a01b039091168152602090f35b346103c0576020806003193601126103c057611ab6613a38565b336000526016825260ff604060002054168015611cba575b611ad790613eb0565b6001600160a01b03908116600081815260158452604090205490929060ff1615611c765781600a54168314611c27576015908360005252604060002060ff1981541690556000905b601891825480821015611c1e57829085611b3884613d2d565b939054600394851b1c1614611b535750506001019150611b1f565b60001993919291818501918211611c0857611b9e93611b74611b8093613d2d565b9054911b1c1691613d2d565b90919060018060a01b038084549260031b9316831b921b1916179055565b81548015611bf2570190611bc9611bb483613d2d565b81549060018060a01b039060031b1b19169055565b555b7f535611fb62fa2a833988f283b779e417e996813e44046f521d76c17b5943b08c600080a2005b634e487b7160e01b600052603160045260246000fd5b634e487b7160e01b600052601160045260246000fd5b50505050611bcb565b6084906040519062461bcd60e51b82526004820152602260248201527f43616e6e6f742072656d6f7665206f776e65722066726f6d2077686974656c696044820152611cdd60f21b6064820152fd5b6064906040519062461bcd60e51b82526004820152601760248201527f41646472657373206e6f742077686974656c69737465640000000000000000006044820152fd5b50600a546001600160a01b03163314611ace565b346103c05760003660031901126103c057611ce7614ca7565b611cef614cd3565b600160ff19600c541617600c557f62e78cea01bee320cd4e420270b5ea74000d11b0c9f74754ebdbfc544b05a2586020604051338152a1005b346103c05760003660031901126103c0576020601254604051908152f35b346103c05760003660031901126103c05733600052601660205260ff604060002054168015611dbd575b611d7990613eb0565b60135460ff8082161516809160ff19161760135560405190151581527f5f2930093a8ed3d18a75ec1318aa404a4cb74a9d542350560a7709642f444b5860203392a2005b50600a546001600160a01b03163314611d70565b346103c05760003660031901126103c057611dea614ca7565b600a80546001600160a01b031981169091556000906001600160a01b03167f8be0079c531659141344cd1fd0a4f28419497f9722a3daafe3b4186f6b6457e08280a3005b346103c05760203660031901126103c0576020611e51611e4c613a38565b6142c5565b604051908152f35b346103c0576020806003193601126103c057611e73613a38565b90336000526016815260ff604060002054168015611fc5575b611e9590613eb0565b6001600160a01b038216600081815260168352604090205490929060ff16611f8d578215611f5657826000526016825260406000209160ff199260018482541617905560195490600160401b821015610bee57611efe83611b8084600160159601601955613cbf565b84600052526040600020805460ff811615611f3d575b33857fbf3f493c772c8c283fd124432c2d0f539ab343faa04258fe88e52912d36b102b600080a3005b611f4d93600191161790556142a2565b81808080611f14565b60405162461bcd60e51b815260048101839052600f60248201526e496e76616c6964206164647265737360881b6044820152606490fd5b60405162461bcd60e51b815260048101839052601060248201526f20b63932b0b23c9030b71030b236b4b760811b6044820152606490fd5b50600a546001600160a01b03163314611e8c565b346103c05760203660031901126103c0576004356019548110156103c057612002602091613cbf565b905460405160039290921b1c6001600160a01b03168152f35b346103c05760003660031901126103c057604051806018549182815260208091019260186000527fb13d2d76d1f4b7be834882e410b3e3a8afaf69f83600ae24db354391d2378d2e916000905b82821061207f5761065185611a4781890382613c1a565b83546001600160a01b031686529485019460019384019390910190612068565b346103c05760403660031901126103c0576120b8613a38565b6001600160a01b03166000908152601e60205260409020805460243591908210156103c0576020916120e991613d64565b90546040519160031b1c8152f35b346103c05760203660031901126103c057600435600052601c60205260806040600020805490600181015490600360018060a01b0360028301541691015491604051938452602084015260408301526060820152f35b346103c05760203660031901126103c057612166613a38565b61216e614ca7565b6001600160a01b03168015612195576001600160601b0360a01b6010541617601055600080f35b60405162461bcd60e51b815260206004820152601f60248201527f547265617375727920616464726573732063616e6e6f74206265207a65726f006044820152606490fd5b346103c05760003660031901126103c057604051806019549182815260208091019260196000527f944998273e477b495144fb8794c914197f3ccb46be2900f4698fd0ef743c9695916000905b82821061223e5761065185611a4781890382613c1a565b83546001600160a01b031686529485019460019384019390910190612227565b346103c05760203660031901126103c0576004356018548110156103c057612002602091613d2d565b346103c05760203660031901126103c05760206122a5600435614c6c565b6040516001600160a01b039091168152f35b346103c05760203660031901126103c0576001600160a01b036122d8613a38565b166000526014602052602060ff604060002054166040519015158152f35b346103c05760003660031901126103c05733600052601460205260ff604060002054166124175733600052601560205260ff604060002054166123dc573360005260146020526040600020600160ff19825416179055601754600160401b811015610bee5760018101806017558110156123c6577fc624b66cc0138b8fabc209247f72d758e1cf3343756d543badbf24212bed8c1501336001600160601b0360a01b825416179055337fd01371a65bc20da9af65aaf8149474fd747e562e207a3687cf65a809766a205a600080a2005b634e487b7160e01b600052603260045260246000fd5b60405162461bcd60e51b8152602060048201526013602482015272105b1c9958591e481dda1a5d195b1a5cdd1959606a1b6044820152606490fd5b60405162461bcd60e51b815260206004820152601b60248201527f416c7265616479207265676973746572656420696e74657265737400000000006044820152606490fd5b346103c05760003660031901126103c057602060ff600c54166040519015158152f35b346103c05761248d36613aac565b9080600052601b6020526124b260018060a01b03600160406000200154163314613e5f565b600052601b602052600660406000200155600080f35b346103c05760003660031901126103c0576020601154604051908152f35b346103c05760003660031901126103c057602060ff601354166040519015158152f35b346103c05760403660031901126103c057612522613a38565b6001600160a01b03166000908152601f60205260409020805460243591908210156103c0576020916120e991613d64565b346103c05760203660031901126103c05760043560085481101561257c576120e9602091613cf6565b6044906040519063295f44f760e21b8252600060048301526024820152fd5b346103c05760203660031901126103c0576001600160a01b036125bc613a38565b166000526016602052602060ff604060002054166040519015158152f35b346103c05760003660031901126103c0576020600e54604051908152f35b346103c0576020806003193601126103c05760043560008181526002835260409020546001600160a01b039190612632908316151561415e565b600052601c82526040600020906040519061264c82613b92565b825482526127ab6001840154858401908082526060600385600289015416976040880198895201549501948552600052601b865261279d60406000209161278f6040519161269983613bad565b84548352866001860154168a840152604051966126c4886126bd8160028a01613afc565b0389613c1a565b60408401978852604051916126e08361147a8160038b01613afc565b6060850192835260405194612703866126fc8160048c01613afc565b0387613c1a565b60808101958652610140600a6040519961272b8b6127248160058501613afc565b038c613c1a565b8a60a0850152600681015460c0850152600781015460e0850152600881015461010085015260ff6009820154161515610120850152015491015251995116965190519251519751966040519a8b9a8b528a015260e060408a015260e0890190613a87565b908782036060890152613a87565b908582036080870152613a87565b9160a084015260c08301520390f35b346103c05760203660031901126103c057600435600052601b602052604060002080549060018060a01b0360018201541690604051612800816111998160028601613afc565b604051916128158361147a8160038501613afc565b604051926128318461282a8160048601613afc565b0385613c1a565b604051936128468561149d8160058701613afc565b6128bc6006840154956128ae6007860154936128a0600888015496612892600a60ff60098c0154169a01549a6040519e8f9e8f9061016092825260208201528160408201520190613a87565b8c810360608e015290613a87565b908a820360808c0152613a87565b9088820360a08a0152613a87565b9460c087015260e086015261010085015215156101208401526101408301520390f35b346103c0576020806003193601126103c05760043560125481111580612961575b612909906141f2565b600052601d6020526040600020906040519081602084549182815201936000526020600020916000905b82821061294a576106518561064581890382613c1a565b835486529485019460019384019390910190612933565b50801515612900565b346103c0576110e261297b36613c8a565b906040519261298984613bc9565b60008452614354565b346103c05760003660031901126103c0576129ab614ca7565b600c5460ff8116156129ea5760ff1916600c557f5db9ee0a495bf2e6ff9c91a7834c1ba4fdd244a5e8aa4e537bd38aeae4b073aa6020604051338152a1005b604051638dfc202b60e01b8152600490fd5b6020806003193601126103c057600435612a14614cd3565b612a1c614cf1565b60ff60135416612f22575b60125481111580612f19575b612a3c906141f2565b80600052601b8252604060002060ff60098201541615612edd576008810191825460078301541115612ea65760068201918254803410612e6a57612710612a85600d54836141a1565b0494612a918683613eeb565b91612a9d601154614232565b96876011553315612e5157600088815260028a5260409020546001600160a01b03949085168015949085159081612e1e575b3360005260038d526040600020600181540190558b60005260028d528b8d6040600020986001600160601b0360a01b99338b8254161790558233857fddf252ad1be2c89b69c2b068fc378daa952ba7f163c4a11628f55a4df523b3ef600080a415612d9c576009906008549260005252604060002055612b4e8c614241565b3303612d5a575b612d41578a60038b6001819a019789895416908c601c60405196612b7888613b92565b858852808801928352604088019485526060880195428752600052526040600020955186555160018601558a600286019251169082541617905551910155612bc08154614232565b905586600052601d8a52612bd886604060002061427f565b33600052601f8a52612bee86604060002061427f565b33600052601a8a526004604060002060058101805460ff811615612d24575b505001612c1a8154614232565b905580158015612cf6575b505080158015612cc7575b5050803411612c88575b5054935460408051929095166001600160a01b03168252602082015233937f7b238a56a5f8df7aff12a10bbcb3a1ccc190c62531d3850884533f05551e1dd991a46001600b55604051908152f35b60008080939550612c9a819334613eeb565b818115612cbe575b3390f115612cb257849187612c3a565b6040513d6000823e3d90fd5b506108fc612ca2565b600080939650809281928760105416908390612ced575bf115612cb25785928880612c30565b506108fc612cde565b6000809397508092819288885416908390612d1b575bf115612cb25786938980612c25565b506108fc612d0c565b60ff19166001179055600060038201819055828201558c80612c0d565b6040516339e3563760e11b815260006004820152602490fd5b612d63336142c5565b6000198101908111611c08573360005260068d526040600020816000528d528b6040600020558b60005260078d52604060002055612b55565b5050338114612b4e578b8d6007612db2846142c5565b9183600052818152604060002054938560005260068252604060002094848103612df4575b5060005252600060408120556000528d5260006040812055612b4e565b84600052858352604060002054816000528060406000205560005283835260406000205538612dd7565b60008c81526004602052604080822080546001600160a01b031916905582825260038f5290208054600019019055612acf565b604051633250574960e11b815260006004820152602490fd5b60405162461bcd60e51b8152600481018790526014602482015273125b9cdd59999a58da595b9d081c185e5b595b9d60621b6044820152606490fd5b60405162461bcd60e51b815260048101859052600f60248201526e14d95c9a595cc81cdbdb19081bdd5d608a1b6044820152606490fd5b60405162461bcd60e51b8152600481018490526014602482015273536572696573206973206e6f742061637469766560601b6044820152606490fd5b50801515612a33565b336000526015825260ff604060002054168015612f48575b612f43906141b4565b612a27565b50600a546001600160a01b03163314612f3a565b346103c0576020806003193601126103c05760043560008181526002835260409020546130b9926001600160a01b039261065192612f9d908516151561415e565b600052601c81526040600020604051612fb581613b92565b815481526060600360018401549384868501528760028201541660408501520154910152600052601b815260406000209260405190612ff382613bad565b8454825260018501541682820152604051613015816111998160028901613afc565b604082015260405161302e816111998160038901613afc565b606082015260405190613048826112f18160048901613afc565b60808101918252610140600a60405196613069886126bd8160058501613afc565b8760a0850152600681015460c0850152600781015460e0850152600881015461010085015260ff600982015416151561012085015201549101525192604051948594604086526040860190613a87565b9184830390850152613a87565b346103c05760203660031901126103c0576001600160a01b036130e7613a38565b166000526015602052602060ff604060002054166040519015158152f35b346103c05760003660031901126103c05760206040516103e88152f35b346103c0576020806003193601126103c0576001600160a01b03613144613a38565b16600052601e6020526040600020906040519081602084549182815201936000526020600020916000905b828210613186576106518561064581890382613c1a565b83548652948501946001938401939091019061316f565b346103c05760403660031901126103c0576131b6613a38565b602435906131c3816142c5565b8210156131f65760018060a01b031660005260066020526040600020906000526020526020604060002054604051908152f35b60405163295f44f760e21b81526001600160a01b039190911660048201526024810191909152604490fd5b346103c05761322f36613aac565b90600052601d602052604060002080548210156103c0576020916120e991613d64565b346103c05761326036613aac565b60008281526002602052604090205490916001600160a01b0391613287908316151561415e565b600052601c60205260406000206040516132a081613b92565b81548152606060036001840154938460208501528560028201541660408501520154910152600052601b6020526127106133aa6040600020936040516132e581613bad565b85548152610140600a866001890154169760208401988952604051613311816111998160028601613afc565b604085015260405161332a816111998160038601613afc565b6060850152604051613343816111998160048601613afc565b608085015260405161335c816111998160058601613afc565b60a0850152600681015460c0850152600781015460e0850152600881015461010085015260ff600982015416151561012085015201549101526133a4600e54600f5490613ea3565b906141a1565b925160408051939091166001600160a01b0316835292046020820152f35b346103c0576110e26133d936613c8a565b91613ef8565b346103c05760003660031901126103c0576020600854604051908152f35b346103c0576020806003193601126103c057613417613a38565b336000526016825260ff6040600020541680156135c4575b61343890613eb0565b60018060a01b0380911691826000526016815261345c60ff60406000205416613eb0565b81600a5416831461358057338314613532576016908360005252604060002060ff1981541690556000905b601991825480821015613529578290856134a084613cbf565b939054600394851b1c16146134bb5750506001019150613487565b60001993919291818501918211611c08576134e8936134dc611b8093613cbf565b9054911b1c1691613cbf565b81548015611bf25701906134fe611bb483613cbf565b555b33907fdb9d5d31320daf5bc7181d565b6da4d12e30f0f4d5aa324a992426c14a1d19ce600080a3005b50505050613500565b6084906040519062461bcd60e51b82526004820152602160248201527f43616e6e6f742072656d6f766520796f757273656c662066726f6d2061646d696044820152603760f91b6064820152fd5b6064906040519062461bcd60e51b82526004820152601e60248201527f43616e6e6f742072656d6f7665206f776e65722066726f6d2061646d696e00006044820152fd5b50600a546001600160a01b0316331461342f565b346103c05760203660031901126103c0576001600160a01b036135f9613a38565b16600052601a6020526040600020604051613618816111998185613afc565b610651604051926136308461282a8160018501613afc565b60405190613645826112f18160028501613afc565b600381015460ff60056004840154930154169260405196879687613c3b565b346103c05761367236613aac565b9061367b614ca7565b6107d06136888383613ea3565b1161369557600e55600f55005b60405162461bcd60e51b815260206004820152601c60248201527f546f74616c20666565732063616e6e6f742065786365656420323025000000006044820152606490fd5b346103c05760203660031901126103c0576004356136f6614ca7565b6103e881116137385760407fd347e206f25a89b917fc9482f1a2d294d749baa4dc9bde7fb495ee11fe49164391600d549080600d5582519182526020820152a1005b60405162461bcd60e51b815260206004820152600c60248201526b08ccaca40e8dede40d0d2ced60a31b6044820152606490fd5b346103c05760203660031901126103c05760043580600052601b6020526137a460018060a01b03600160406000200154163314613e5f565b6000908152601b60205260409020600901805460ff818116151660ff19909116179055005b346103c05760403660031901126103c0576137e2613a38565b6024356137ee81614c6c565b3315158061389d575b80613870575b613858576001600160a01b039283169282918491167f8c5be1e5ebec7d5bd14f71427d1e84f3dd0314c0f7b2291e5b200ac8c7c3b925600080a4600090815260046020526040902080546001600160a01b0319169091179055005b60405163a9fbf51f60e01b8152336004820152602490fd5b5060018060a01b038116600052600560205260406000203360005260205260ff60406000205416156137fd565b506001600160a01b0381163314156137f7565b346103c05760203660031901126103c0576004356138cd81614c6c565b506000526004602052602060018060a01b0360406000205416604051908152f35b346103c05760003660031901126103c05760405160008054908261391183613ac2565b91828252602093600190856001821691826000146119c357505060011461393f575061195292500383613c1a565b6000808052859250907f290decd9548b62a8d60345a988386fc84ba6bc95484008f6362f93160ef3e5635b858310613981575050611952935082010185611945565b8054838901850152879450869390920191810161396a565b346103c05760203660031901126103c0576004359063ffffffff60e01b82168092036103c05760209163152a902d60e11b81149081156139db575b5015158152f35b63780e9d6360e01b8114915081156139f5575b50836139d4565b6380ac58cd60e01b811491508115613a27575b8115613a16575b50836139ee565b6301ffc9a760e01b14905083613a0f565b635b5e139f60e01b81149150613a08565b600435906001600160a01b03821682036103c057565b602435906001600160a01b03821682036103c057565b60005b838110613a775750506000910152565b8181015183820152602001613a67565b90602091613aa081518092818552858086019101613a64565b601f01601f1916010190565b60409060031901126103c0576004359060243590565b90600182811c92168015613af2575b6020831014613adc57565b634e487b7160e01b600052602260045260246000fd5b91607f1691613ad1565b805460009392613b0b82613ac2565b91828252602093600191600181169081600014613b735750600114613b32575b5050505050565b90939495506000929192528360002092846000945b838610613b5f57505050500101903880808080613b2b565b805485870183015294019385908201613b47565b60ff19168685015250505090151560051b010191503880808080613b2b565b608081019081106001600160401b03821117610bee57604052565b61016081019081106001600160401b03821117610bee57604052565b602081019081106001600160401b03821117610bee57604052565b604081019081106001600160401b03821117610bee57604052565b606081019081106001600160401b03821117610bee57604052565b90601f801991011681019081106001600160401b03821117610bee57604052565b949192613c6a60a095989794613c5c613c789460c08a5260c08a0190613a87565b9088820360208a0152613a87565b908682036040880152613a87565b95606085015260808401521515910152565b60609060031901126103c0576001600160a01b039060043582811681036103c0579160243590811681036103c0579060443590565b6019548110156123c65760196000527f944998273e477b495144fb8794c914197f3ccb46be2900f4698fd0ef743c96950190600090565b6008548110156123c65760086000527ff3f7a9fe364faab93b216da50a3214154f22a0a2b415b23a84c8169e8b636ee30190600090565b6018548110156123c65760186000527fb13d2d76d1f4b7be834882e410b3e3a8afaf69f83600ae24db354391d2378d2e0190600090565b80548210156123c65760005260206000200190600090565b602090602060408183019282815285518094520193019160005b828110613da4575050505090565b835185529381019392810192600101613d96565b602090602060408183019282815285518094520193019160005b828110613de0575050505090565b83516001600160a01b031685529381019392810192600101613dd2565b6001600160401b038111610bee57601f01601f191660200190565b81601f820112156103c057803590613e2f82613dfd565b92613e3d6040519485613c1a565b828452602083830101116103c057816000926020809301838601378301015290565b15613e6657565b60405162461bcd60e51b8152602060048201526015602482015274139bdd081d1a19481cd95c9a595cc8185c9d1a5cdd605a1b6044820152606490fd5b91908201809211611c0857565b15613eb757565b60405162461bcd60e51b815260206004820152600c60248201526b2737ba1030b71030b236b4b760a11b6044820152606490fd5b91908203918211611c0857565b6001600160a01b0382811693918415612e51576000948386526020956002875260409684888320541696331515806140d0575b508715801561409d575b84845260038352898420805460010190558784526002835289842080546001600160a01b0319168617905587858a7fddf252ad1be2c89b69c2b068fc378daa952ba7f163c4a11628f55a4df523b3ef8780a415614031576008548784526009835289842055613fa387614241565b838803613fdf575b505050501692838303613fbe5750505050565b6064945051926364283d7b60e01b8452600484015260248301526044820152fd5b613fe8906142c5565b60001981019390841161401d5782916007918a9452600681528383208584528152878484205587835252205538808080613fab565b634e487b7160e01b83526011600452602483fd5b878414613fa357614041886142c5565b878452600783528984205490898552600684528a85209181810361407b575b5088855260078452848b812055845282528289812055613fa3565b8186528285528b862054818752808d8820558652600785528b86205538614060565b600088815260046020526040902080546001600160a01b0319169055888452600383528984208054600019019055613f35565b8061411d575b156140e15738613f2b565b8887896140fe576024915190637e27328960e01b82526004820152fd5b905163177e802f60e01b81523360048201526024810191909152604490fd5b503388148015614142575b806140d657508683526004825233868a85205416146140d6565b5087835260058252888320338452825260ff8984205416614128565b1561416557565b60405162461bcd60e51b8152602060048201526014602482015273151bdad95b88191bd95cc81b9bdd08195e1a5cdd60621b6044820152606490fd5b81810292918115918404141715611c0857565b156141bb57565b60405162461bcd60e51b815260206004820152600f60248201526e139bdd081dda1a5d195b1a5cdd1959608a1b6044820152606490fd5b156141f957565b60405162461bcd60e51b8152602060048201526011602482015270125b9d985b1a59081cd95c9a595cc81251607a1b6044820152606490fd5b6000198114611c085760010190565b60085490600160401b821015610bee5761426482600161427d9401600855613cf6565b90919082549060031b91821b91600019901b1916179055565b565b90815491600160401b831015610bee578261426491600161427d95018155613d64565b60185490600160401b821015610bee57611b8082600161427d9401601855613d2d565b6001600160a01b031680156142e557600052600360205260406000205490565b6040516322718ad960e21b815260006004820152602490fd5b90601f811161430c57505050565b6000916000526020600020906020601f850160051c8301941061434a575b601f0160051c01915b82811061433f57505050565b818155600101614333565b909250829061432a565b61435f838383613ef8565b813b61436c575b50505050565b604051630a85bd0160e11b8082523360048301526001600160a01b039283166024830152604482019490945260806064820152602095929091169390929083906143ba906084830190613a87565b039285816000958187895af1849181614463575b5061442e575050503d600014614426573d6143e881613dfd565b906143f66040519283613c1a565b81528091843d92013e5b8051928361442157604051633250574960e11b815260048101849052602490fd5b019050fd5b506060614400565b919450915063ffffffff60e01b160361444b575038808080614366565b60249060405190633250574960e11b82526004820152fd5b9091508681813d83116144a0575b61447b8183613c1a565b8101031261449c57516001600160e01b03198116810361449c5790386143ce565b8480fd5b503d614471565b6000818152600260205260409020546144ca906001600160a01b0316151561415e565b80600052601c60205260406000206040516144e481613b92565b815481526060600360018401549384602085015260018060a01b0360028201541660408501520154910152600052601b6020526040600020906040519161452a83613bad565b8054835260018101546001600160a01b03166020840152604051614555816111998160028601613afc565b604084015260405161456e816111998160038601613afc565b6060840152604051614587816111998160048601613afc565b6080840152600a604051916145a38361147a8160058501613afc565b8260a0860152600681015460c0860152600781015460e0860152600881015461010086015260ff600982015416151561012086015201546101408401526080830151805161461a5750506145f79150614c6c565b50600060405161460681613bc9565b5260405161461381613bc9565b6000815290565b603361462b61468f92949394614d57565b936040519485916a646174613a696d6167652f60a81b602084015261465a815180926020602b87019101613a64565b8201670ed8985cd94d8d0b60c21b602b8201526146808251809360208785019101613a64565b01036013810185520183613c1a565b60408301519161469e82614fb3565b936060810151926146b86146b28351614fb3565b91614fb3565b906146c660e0840151614fb3565b946146d460c0850151614fb3565b6146e2608086015151614fb3565b60a086015160209096015160405197919491906001600160a01b031661470789613be4565b601089526f181899199a1a9b1b9c1cb0b131b232b360811b60208a0152604051986147318a613bff565b602a8a5260403660208c01378951156123c657603060208b01538951600110156123c657607860218b015360005b60148110614bc5575050506040519a8b809b683d913730b6b2911d1160b91b602083015280516029819301916020019161479892613a64565b8b016029810161202360f01b905281519182602b830191602001916147bc92613a64565b019361088b60f21b9485602b8201526e113232b9b1b934b83a34b7b7111d1160891b602d82015281519182603c830191602001916147f992613a64565b0184603c820152681134b6b0b3b2911d1160b91b603e8201528151918260478301916020019161482892613a64565b0160478101939093526d2261747472696275746573223a5b60901b60498401527f7b2274726169745f74797065223a22546f6b656e205374616e64617264222c226057840152711d985b1d59488e88915490cb4dcc8c489f4b60721b60778401527f7b2274726169745f74797065223a2253746f72616765222c2276616c7565223a60898401526b0893db8b58da185a5b889f4b60a21b60a98401527f7b2274726169745f74797065223a22536572696573204944222c2276616c756560b584015261111d60f11b60d5840181905281519093909161491090839060d7840190602001613a64565b0190611f4b60f21b8095838260d78196015260d981017f7b2274726169745f74797065223a2245646974696f6e222c2276616c7565223a90528151918260f98301916020019161495f92613a64565b01988160f98b015260fb8a017f7b2274726169745f74797065223a224d617820537570706c79222c2276616c7590526232911d60e91b61011b8b015261011e99815191828c830191602001916149b492613a64565b01988901527f7b2274726169745f74797065223a225072696365202857656929222c2276616c610120890152633ab2911d60e11b6101408901528051610144989091614a089083908b840190602001613a64565b019687015261014686017f7b2274726169745f74797065223a2246696c652053697a65222c2276616c7565905261016686015261016894815191828783019160200191614a5492613a64565b01938401527f7b2274726169745f74797065223a2246696c652054797065222c2276616c756561016a84015262111d1160e91b61018a840152805161018d939091614aa790839086840190602001613a64565b62089f4b60ea1b9101928301527f7b2274726169745f74797065223a2243726561746f72222c2276616c7565223a610190830152601160f91b6101b083015280516101b1929091614b0090839085840190602001613a64565b61227d60f01b91019182015261174b60f21b6101b38201527f2270726f70657274696573223a7b2263617465676f7279223a22696d616765226101b5820152617d7d60f01b6101d5820152036101b781018252614b61906101d70182613c1a565b614b6a90614d57565b6040518091602082017f646174613a6170706c69636174696f6e2f6a736f6e3b6261736536342c000000905280519081603d84019160200191614bac92613a64565b810103601d81018252603d01614bc29082613c1a565b90565b600c81018111611c08576020600c820110156123c65782600c82011a60ff60f81b614bf6600f8360041c1685614d46565b5116828060011b0460021483151715611c08578260011b6002019081600211611c085760001a90614c27908e614d46565b536001600160f81b031990614c3f90600f1684614d46565b5116908060011b600301600311611c085760019160001a614c65600383851b018e614d46565b530161475f565b6000818152600260205260409020546001600160a01b0316908115614c8f575090565b60249060405190637e27328960e01b82526004820152fd5b600a546001600160a01b03163303614cbb57565b60405163118cdaa760e01b8152336004820152602490fd5b60ff600c5416614cdf57565b60405163d93c066560e01b8152600490fd5b6002600b5414614d02576002600b55565b604051633ee5aeb560e01b8152600490fd5b90614d1e82613dfd565b614d2b6040519182613c1a565b8281528092614d3c601f1991613dfd565b0190602036910137565b9081518110156123c6570160200190565b90815115614fa55760405191614d6c83613bff565b604083527f4142434445464748494a4b4c4d4e4f505152535455565758595a61626364656660208401527f6768696a6b6c6d6e6f707172737475767778797a303132333435363738392b2f604084015280519160029060028401809411611c0857600393849004600281901b95906001600160fe1b03811603611c0857614df286614d14565b93600092835b8251811015614f3357614e0b8184614d46565b5160018201808311611c0857845160009190811015614f2c57614e2f915085614d46565b5160f81c905b878301808411611c0857855162ff000091600091811015614f2557614e5b915087614d46565b5160f81c925b60081b9160e81c161717614ee960ff60f81b91603f9083614e87838360121c168a614d46565b511698614ea1614e9682614232565b9a60001a918d614d46565b5383614eb28383600c1c168a614d46565b511698614ec1614e9682614232565b5383614ed2838360061c168a614d46565b511698614ee1614e9682614232565b531686614d46565b511694614f03614ef882614232565b9660001a9189614d46565b5387810180911115614df857634e487b7160e01b600052601160045260246000fd5b5092614e61565b5090614e35565b509694955091505060039150510660018114600014614f8257506000198101818111611c0857614f65603d9184614d46565b536001198101908111611c0857614f7e603d9183614d46565b5390565b600214614f8d575090565b6000198101908111611c0857614f7e603d9183614d46565b905060405161461381613bc9565b80156150335780600081805b61501b5750614fcd81614d14565b925b614fd857505090565b6000198101908111611c08578091600a9160308383068101809111611c085760f81b6001600160f81b03191660001a906150129086614d46565b53049081614fcf565b9150615028600a91614232565b910480839291614fbf565b5060405161504081613be4565b60018152600360fc1b602082015290565b906040519160209261507f8482816150728183019687815193849201613a64565b8101038084520182613c1a565b5190209161509f6040519182816150728183019687815193849201613a64565b519020149056fea26469706673582212201cab85aa96d5e4925393742534dd6eb975f1a65d7d143b7f6d1ed136f7e7746b64736f6c63430008180033","opcodes":"PUSH1 0x80 CALLVALUE PUSH3 0x50F JUMPI PUSH3 0x5626 SWAP1 PUSH1 0x1F NOT SWAP1 PUSH1 0x1F SWAP1 PUSH1 0x1 PUSH1 0x1 PUSH1 0x40 SHL SUB SWAP1 CODESIZE DUP6 SWAP1 SUB DUP4 DUP2 ADD DUP6 AND DUP3 ADD SWAP1 DUP4 DUP3 GT DUP4 DUP4 LT OR PUSH3 0x4F9 JUMPI DUP1 DUP4 SWAP2 PUSH1 0x40 SWAP9 DUP10 SWAP5 DUP6 MSTORE DUP4 CODECOPY DUP2 ADD SUB SLT PUSH3 0x50F JUMPI PUSH3 0x54 DUP2 PUSH3 0x534 JUMP JUMPDEST SWAP4 PUSH3 0x64 PUSH1 0x20 DUP1 SWAP4 ADD PUSH3 0x534 JUMP JUMPDEST PUSH3 0x6E PUSH3 0x514 JUMP JUMPDEST SWAP4 PUSH1 0x9 DUP6 MSTORE PUSH9 0x5065726D616C696E6B PUSH1 0xB8 SHL DUP5 DUP7 ADD MSTORE PUSH3 0x8E PUSH3 0x514 JUMP JUMPDEST SWAP3 PUSH1 0x5 DUP5 MSTORE PUSH5 0x504C494E4B PUSH1 0xD8 SHL DUP6 DUP6 ADD MSTORE DUP6 MLOAD SWAP4 DUP3 DUP6 GT PUSH3 0x4F9 JUMPI PUSH1 0x0 SWAP5 DUP6 SLOAD SWAP8 PUSH1 0x1 SWAP9 DUP10 DUP2 DUP2 SHR SWAP2 AND DUP1 ISZERO PUSH3 0x4EE JUMPI JUMPDEST DUP10 DUP3 LT EQ PUSH3 0x4DA JUMPI SWAP1 DUP2 DUP12 DUP5 SWAP4 GT PUSH3 0x487 JUMPI JUMPDEST POP DUP9 SWAP1 DUP12 DUP4 GT PUSH1 0x1 EQ PUSH3 0x426 JUMPI DUP9 SWAP3 PUSH3 0x41A JUMPI JUMPDEST POP POP PUSH1 0x0 NOT PUSH1 0x3 DUP4 SWAP1 SHL SHR NOT AND SWAP1 DUP9 SHL OR DUP6 SSTORE JUMPDEST DUP1 MLOAD SWAP3 DUP4 GT PUSH3 0x406 JUMPI DUP7 SLOAD DUP8 DUP2 DUP2 SHR SWAP2 AND DUP1 ISZERO PUSH3 0x3FB JUMPI JUMPDEST DUP8 DUP3 LT EQ PUSH3 0x3E7 JUMPI SWAP1 DUP2 DUP10 DUP6 SWAP5 SWAP4 GT PUSH3 0x392 JUMPI JUMPDEST POP DUP7 SWAP2 DUP10 DUP5 GT PUSH1 0x1 EQ PUSH3 0x331 JUMPI POP DUP6 SWAP3 PUSH3 0x325 JUMPI JUMPDEST POP POP PUSH1 0x0 NOT PUSH1 0x3 DUP4 SWAP1 SHL SHR NOT AND SWAP1 DUP6 SHL OR DUP5 SSTORE JUMPDEST PUSH1 0x1 PUSH1 0x1 PUSH1 0xA0 SHL SUB SWAP6 DUP7 AND SWAP5 DUP6 ISZERO PUSH3 0x30D JUMPI PUSH1 0xA DUP1 SLOAD PUSH1 0x1 PUSH1 0x1 PUSH1 0xA0 SHL SUB NOT DUP1 DUP3 AND DUP10 OR SWAP1 SWAP3 SSTORE DUP10 MLOAD SWAP2 SWAP9 SWAP1 DUP9 SWAP1 DUP3 AND PUSH32 0x8BE0079C531659141344CD1FD0A4F28419497F9722A3DAAFE3B4186F6B6457E0 DUP8 DUP1 LOG3 DUP7 PUSH1 0xB SSTORE PUSH1 0xFA PUSH1 0xD SSTORE PUSH1 0xFA PUSH1 0xE SSTORE PUSH2 0x2EE PUSH1 0xF SSTORE DUP5 PUSH1 0x11 SSTORE DUP5 PUSH1 0x12 SSTORE PUSH1 0xFF NOT SWAP4 DUP8 DUP6 PUSH1 0x13 SLOAD AND OR PUSH1 0x13 SSTORE AND SWAP2 DUP3 ISZERO PUSH3 0x2CC JUMPI POP POP DUP7 PUSH1 0x10 SLOAD AND OR PUSH1 0x10 SSTORE DUP5 DUP3 MSTORE PUSH1 0x16 DUP4 MSTORE DUP7 DUP3 KECCAK256 DUP5 DUP3 DUP3 SLOAD AND OR SWAP1 SSTORE PUSH1 0x15 DUP4 MSTORE DUP4 DUP8 DUP4 KECCAK256 SWAP2 DUP3 SLOAD AND OR SWAP1 SSTORE PUSH1 0x19 SLOAD SWAP3 PUSH9 0x10000000000000000 SWAP4 DUP5 DUP2 LT ISZERO PUSH3 0x2B8 JUMPI DUP2 DUP2 ADD DUP1 PUSH1 0x19 SSTORE DUP2 LT ISZERO PUSH3 0x2A4 JUMPI PUSH1 0x19 DUP4 MSTORE DUP4 DUP4 KECCAK256 ADD DUP6 DUP8 DUP3 SLOAD AND OR SWAP1 SSTORE PUSH1 0x18 SLOAD SWAP4 DUP5 LT ISZERO PUSH3 0x290 JUMPI DUP4 ADD DUP1 PUSH1 0x18 SSTORE DUP4 LT ISZERO PUSH3 0x27C JUMPI PUSH1 0x18 DUP2 MSTORE KECCAK256 ADD SWAP2 DUP3 SLOAD AND OR SWAP1 SSTORE MLOAD PUSH2 0x50DC SWAP1 DUP2 PUSH3 0x54A DUP3 CODECOPY RETURN JUMPDEST PUSH4 0x4E487B71 PUSH1 0xE0 SHL DUP2 MSTORE PUSH1 0x32 PUSH1 0x4 MSTORE PUSH1 0x24 SWAP1 REVERT JUMPDEST PUSH4 0x4E487B71 PUSH1 0xE0 SHL DUP3 MSTORE PUSH1 0x41 PUSH1 0x4 MSTORE PUSH1 0x24 DUP3 REVERT JUMPDEST PUSH4 0x4E487B71 PUSH1 0xE0 SHL DUP4 MSTORE PUSH1 0x32 PUSH1 0x4 MSTORE PUSH1 0x24 DUP4 REVERT JUMPDEST PUSH4 0x4E487B71 PUSH1 0xE0 SHL DUP4 MSTORE PUSH1 0x41 PUSH1 0x4 MSTORE PUSH1 0x24 DUP4 REVERT JUMPDEST PUSH3 0x461BCD PUSH1 0xE5 SHL DUP3 MSTORE PUSH1 0x4 DUP3 ADD DUP7 SWAP1 MSTORE PUSH1 0x24 DUP3 ADD MSTORE PUSH32 0x547265617375727920616464726573732063616E6E6F74206265207A65726F00 PUSH1 0x44 DUP3 ADD MSTORE PUSH1 0x64 SWAP2 POP REVERT JUMPDEST DUP8 MLOAD PUSH4 0x1E4FBDF7 PUSH1 0xE0 SHL DUP2 MSTORE PUSH1 0x4 DUP2 ADD DUP5 SWAP1 MSTORE PUSH1 0x24 SWAP1 REVERT JUMPDEST ADD MLOAD SWAP1 POP CODESIZE DUP1 PUSH3 0x148 JUMP JUMPDEST DUP9 DUP8 MSTORE DUP8 DUP8 KECCAK256 DUP10 SWAP6 SWAP1 SWAP4 SWAP3 SWAP2 AND DUP8 JUMPDEST DUP10 DUP3 DUP3 LT PUSH3 0x37B JUMPI POP POP DUP5 GT PUSH3 0x361 JUMPI JUMPDEST POP POP POP DUP2 SHL ADD DUP5 SSTORE PUSH3 0x15C JUMP JUMPDEST ADD MLOAD PUSH1 0x0 NOT PUSH1 0xF8 DUP5 PUSH1 0x3 SHL AND SHR NOT AND SWAP1 SSTORE CODESIZE DUP1 DUP1 PUSH3 0x353 JUMP JUMPDEST DUP4 DUP6 ADD MLOAD DUP7 SSTORE DUP12 SWAP8 SWAP1 SWAP6 ADD SWAP5 SWAP4 DUP5 ADD SWAP4 ADD PUSH3 0x340 JUMP JUMPDEST SWAP1 SWAP2 SWAP3 POP DUP8 DUP7 MSTORE DUP7 DUP7 KECCAK256 DUP10 DUP1 DUP7 ADD PUSH1 0x5 SHR DUP3 ADD SWAP3 DUP10 DUP8 LT PUSH3 0x3DD JUMPI JUMPDEST SWAP2 DUP11 SWAP2 DUP8 SWAP7 SWAP6 SWAP5 SWAP4 ADD PUSH1 0x5 SHR ADD SWAP2 JUMPDEST DUP3 DUP2 LT PUSH3 0x3CE JUMPI POP POP PUSH3 0x131 JUMP JUMPDEST DUP9 DUP2 SSTORE DUP7 SWAP6 POP DUP11 SWAP2 ADD PUSH3 0x3BE JUMP JUMPDEST SWAP3 POP DUP2 SWAP3 PUSH3 0x3AF JUMP JUMPDEST PUSH4 0x4E487B71 PUSH1 0xE0 SHL DUP7 MSTORE PUSH1 0x22 PUSH1 0x4 MSTORE PUSH1 0x24 DUP7 REVERT JUMPDEST SWAP1 PUSH1 0x7F AND SWAP1 PUSH3 0x11B JUMP JUMPDEST PUSH4 0x4E487B71 PUSH1 0xE0 SHL DUP6 MSTORE PUSH1 0x41 PUSH1 0x4 MSTORE PUSH1 0x24 DUP6 REVERT JUMPDEST ADD MLOAD SWAP1 POP CODESIZE DUP1 PUSH3 0xED JUMP JUMPDEST SWAP1 DUP6 DUP12 SWAP5 AND SWAP2 DUP10 DUP1 MSTORE DUP11 DUP11 KECCAK256 SWAP3 DUP11 JUMPDEST DUP13 DUP3 DUP3 LT PUSH3 0x470 JUMPI POP POP DUP5 GT PUSH3 0x456 JUMPI JUMPDEST POP POP POP DUP2 SHL ADD DUP6 SSTORE PUSH3 0x101 JUMP JUMPDEST ADD MLOAD PUSH1 0x0 NOT PUSH1 0xF8 DUP5 PUSH1 0x3 SHL AND SHR NOT AND SWAP1 SSTORE CODESIZE DUP1 DUP1 PUSH3 0x448 JUMP JUMPDEST DUP4 DUP6 ADD MLOAD DUP7 SSTORE DUP15 SWAP8 SWAP1 SWAP6 ADD SWAP5 SWAP4 DUP5 ADD SWAP4 ADD PUSH3 0x435 JUMP JUMPDEST SWAP1 SWAP2 POP DUP8 DUP1 MSTORE DUP9 DUP9 KECCAK256 DUP12 DUP1 DUP6 ADD PUSH1 0x5 SHR DUP3 ADD SWAP3 DUP12 DUP7 LT PUSH3 0x4D0 JUMPI JUMPDEST SWAP2 DUP13 SWAP2 DUP7 SWAP6 SWAP5 SWAP4 ADD PUSH1 0x5 SHR ADD SWAP2 JUMPDEST DUP3 DUP2 LT PUSH3 0x4C1 JUMPI POP POP PUSH3 0xD7 JUMP JUMPDEST DUP11 DUP2 SSTORE DUP6 SWAP5 POP DUP13 SWAP2 ADD PUSH3 0x4B1 JUMP JUMPDEST SWAP3 POP DUP2 SWAP3 PUSH3 0x4A3 JUMP JUMPDEST PUSH4 0x4E487B71 PUSH1 0xE0 SHL DUP9 MSTORE PUSH1 0x22 PUSH1 0x4 MSTORE PUSH1 0x24 DUP9 REVERT JUMPDEST SWAP1 PUSH1 0x7F AND SWAP1 PUSH3 0xC2 JUMP JUMPDEST PUSH4 0x4E487B71 PUSH1 0xE0 SHL PUSH1 0x0 MSTORE PUSH1 0x41 PUSH1 0x4 MSTORE PUSH1 0x24 PUSH1 0x0 REVERT JUMPDEST PUSH1 0x0 DUP1 REVERT JUMPDEST PUSH1 0x40 DUP1 MLOAD SWAP2 SWAP1 DUP3 ADD PUSH1 0x1 PUSH1 0x1 PUSH1 0x40 SHL SUB DUP2 GT DUP4 DUP3 LT OR PUSH3 0x4F9 JUMPI PUSH1 0x40 MSTORE JUMP JUMPDEST MLOAD SWAP1 PUSH1 0x1 PUSH1 0x1 PUSH1 0xA0 SHL SUB DUP3 AND DUP3 SUB PUSH3 0x50F JUMPI JUMP INVALID PUSH1 0x80 DUP1 PUSH1 0x40 MSTORE PUSH1 0x4 CALLDATASIZE LT ISZERO PUSH2 0x13 JUMPI PUSH1 0x0 DUP1 REVERT JUMPDEST PUSH1 0x0 CALLDATALOAD PUSH1 0xE0 SHR SWAP1 DUP2 PUSH4 0x1FFC9A7 EQ PUSH2 0x3999 JUMPI POP DUP1 PUSH4 0x6C933D8 EQ PUSH2 0x30C6 JUMPI DUP1 PUSH4 0x6FDDE03 EQ PUSH2 0x38EE JUMPI DUP1 PUSH4 0x81812FC EQ PUSH2 0x38B0 JUMPI DUP1 PUSH4 0x95EA7B3 EQ PUSH2 0x37C9 JUMPI DUP1 PUSH4 0xA92DD53 EQ PUSH2 0x376C JUMPI DUP1 PUSH4 0x12E8E2C3 EQ PUSH2 0x36DA JUMPI DUP1 PUSH4 0x1447BA1C EQ PUSH2 0x3664 JUMPI DUP1 PUSH4 0x171212D5 EQ PUSH2 0x35D8 JUMPI DUP1 PUSH4 0x1785F53C EQ PUSH2 0x33FD JUMPI DUP1 PUSH4 0x18160DDD EQ PUSH2 0x33DF JUMPI DUP1 PUSH4 0x184D69AB EQ PUSH2 0x24E6 JUMPI DUP1 PUSH4 0x23B872DD EQ PUSH2 0x33C8 JUMPI DUP1 PUSH4 0x24D7806C EQ PUSH2 0x259B JUMPI DUP1 PUSH4 0x2A55205A EQ PUSH2 0x3252 JUMPI DUP1 PUSH4 0x2B14D65A EQ PUSH2 0x3221 JUMPI DUP1 PUSH4 0x2F745C59 EQ PUSH2 0x319D JUMPI DUP1 PUSH4 0x393DBF9B EQ PUSH2 0x3122 JUMPI DUP1 PUSH4 0x3998A681 EQ PUSH2 0x3105 JUMPI DUP1 PUSH4 0x3AF32ABF EQ PUSH2 0x30C6 JUMPI DUP1 PUSH4 0x3B5221E2 EQ PUSH2 0x2F5C JUMPI DUP1 PUSH4 0x3DEAD461 EQ PUSH2 0x29FC JUMPI DUP1 PUSH4 0x3F4BA83A EQ PUSH2 0x2992 JUMPI DUP1 PUSH4 0x42842E0E EQ PUSH2 0x296A JUMPI DUP1 PUSH4 0x44E433D0 EQ PUSH2 0x28DF JUMPI DUP1 PUSH4 0x466E0A8E EQ PUSH2 0x27BA JUMPI DUP1 PUSH4 0x47F60FC0 EQ PUSH2 0x25F8 JUMPI DUP1 PUSH4 0x489B3711 EQ PUSH2 0x25DA JUMPI DUP1 PUSH4 0x4BF56FD1 EQ PUSH2 0x22B7 JUMPI DUP1 PUSH4 0x4ED38FAF EQ PUSH2 0x259B JUMPI DUP1 PUSH4 0x4F6CCCE7 EQ PUSH2 0x2553 JUMPI DUP1 PUSH4 0x5024FD8C EQ PUSH2 0x2509 JUMPI DUP1 PUSH4 0x51FB012D EQ PUSH2 0x24E6 JUMPI DUP1 PUSH4 0x56189236 EQ PUSH2 0x24C8 JUMPI DUP1 PUSH4 0x56FB0139 EQ PUSH2 0x247F JUMPI DUP1 PUSH4 0x5C975ABB EQ PUSH2 0x245C JUMPI DUP1 PUSH4 0x5F5FFF4D EQ PUSH2 0x22F6 JUMPI DUP1 PUSH4 0x62AFCF00 EQ PUSH2 0x22B7 JUMPI DUP1 PUSH4 0x6352211E EQ PUSH2 0x2287 JUMPI DUP1 PUSH4 0x63C770D8 EQ PUSH2 0x225E JUMPI DUP1 PUSH4 0x64DDFA29 EQ PUSH2 0x21DA JUMPI DUP1 PUSH4 0x6605BFDA EQ PUSH2 0x214D JUMPI DUP1 PUSH4 0x67DE246C EQ PUSH2 0x20F7 JUMPI DUP1 PUSH4 0x6980D1A4 EQ PUSH2 0x209F JUMPI DUP1 PUSH4 0x6D028027 EQ PUSH2 0x201B JUMPI DUP1 PUSH4 0x6E977223 EQ PUSH2 0x1FD9 JUMPI DUP1 PUSH4 0x70480275 EQ PUSH2 0x1E59 JUMPI DUP1 PUSH4 0x70A08231 EQ PUSH2 0x1E2E JUMPI DUP1 PUSH4 0x715018A6 EQ PUSH2 0x1DD1 JUMPI DUP1 PUSH4 0x7E15144B EQ PUSH2 0x1D46 JUMPI DUP1 PUSH4 0x8043C6C0 EQ PUSH2 0x1D28 JUMPI DUP1 PUSH4 0x8456CB59 EQ PUSH2 0x1CCE JUMPI DUP1 PUSH4 0x8AB1D681 EQ PUSH2 0x1A9C JUMPI DUP1 PUSH4 0x8DA5CB5B EQ PUSH2 0x1A73 JUMPI DUP1 PUSH4 0x8DC8B4DA EQ PUSH2 0x19E3 JUMPI DUP1 PUSH4 0x95D89B41 EQ PUSH2 0x1900 JUMPI DUP1 PUSH4 0xA22CB465 EQ PUSH2 0x1852 JUMPI DUP1 PUSH4 0xB23CD1A6 EQ PUSH2 0x14E1 JUMPI DUP1 PUSH4 0xB3B30640 EQ PUSH2 0x13FB JUMPI DUP1 PUSH4 0xB6D8ED16 EQ PUSH2 0x1266 JUMPI DUP1 PUSH4 0xB7195763 EQ PUSH2 0x10E4 JUMPI DUP1 PUSH4 0xB88D4FDE EQ PUSH2 0x1094 JUMPI DUP1 PUSH4 0xC5F956AF EQ PUSH2 0x106B JUMPI DUP1 PUSH4 0xC87B56DD EQ PUSH2 0x1038 JUMPI DUP1 PUSH4 0xCD28774D EQ PUSH2 0x6E5 JUMPI DUP1 PUSH4 0xCDD78CFC EQ PUSH2 0x6C7 JUMPI DUP1 PUSH4 0xE084FFDA EQ PUSH2 0x66C JUMPI DUP1 PUSH4 0xE0F8B313 EQ PUSH2 0x5E1 JUMPI DUP1 PUSH4 0xE985E9C5 EQ PUSH2 0x58B JUMPI DUP1 PUSH4 0xECCEEC82 EQ PUSH2 0x56D JUMPI DUP1 PUSH4 0xF0F4D0CB EQ PUSH2 0x3C5 JUMPI PUSH4 0xF2FDE38B EQ PUSH2 0x337 JUMPI PUSH1 0x0 DUP1 REVERT JUMPDEST CALLVALUE PUSH2 0x3C0 JUMPI PUSH1 0x20 CALLDATASIZE PUSH1 0x3 NOT ADD SLT PUSH2 0x3C0 JUMPI PUSH2 0x350 PUSH2 0x3A38 JUMP JUMPDEST PUSH2 0x358 PUSH2 0x4CA7 JUMP JUMPDEST PUSH1 0x1 PUSH1 0x1 PUSH1 0xA0 SHL SUB SWAP1 DUP2 AND SWAP1 DUP2 ISZERO PUSH2 0x3A7 JUMPI PUSH1 0xA SLOAD DUP3 PUSH1 0x1 PUSH1 0x1 PUSH1 0x60 SHL SUB PUSH1 0xA0 SHL DUP3 AND OR PUSH1 0xA SSTORE AND PUSH32 0x8BE0079C531659141344CD1FD0A4F28419497F9722A3DAAFE3B4186F6B6457E0 PUSH1 0x0 DUP1 LOG3 STOP JUMPDEST PUSH1 0x40 MLOAD PUSH4 0x1E4FBDF7 PUSH1 0xE0 SHL DUP2 MSTORE PUSH1 0x0 PUSH1 0x4 DUP3 ADD MSTORE PUSH1 0x24 SWAP1 REVERT JUMPDEST PUSH1 0x0 DUP1 REVERT JUMPDEST CALLVALUE PUSH2 0x3C0 JUMPI PUSH1 0x20 DUP1 PUSH1 0x3 NOT CALLDATASIZE ADD SLT PUSH2 0x3C0 JUMPI PUSH1 0x1 PUSH1 0x1 PUSH1 0x40 SHL SUB PUSH1 0x4 CALLDATALOAD DUP2 DUP2 GT PUSH2 0x3C0 JUMPI CALLDATASIZE PUSH1 0x23 DUP3 ADD SLT ISZERO PUSH2 0x3C0 JUMPI DUP1 PUSH1 0x4 ADD CALLDATALOAD SWAP2 DUP3 GT PUSH2 0x3C0 JUMPI PUSH1 0x24 SWAP3 PUSH1 0x5 SWAP2 CALLDATASIZE PUSH1 0x24 DUP6 PUSH1 0x5 SHL DUP4 ADD ADD GT PUSH2 0x3C0 JUMPI CALLER PUSH1 0x0 MSTORE PUSH1 0x16 SWAP3 PUSH1 0x16 DUP4 MSTORE PUSH1 0xFF SWAP2 PUSH1 0xFF PUSH1 0x40 PUSH1 0x0 KECCAK256 SLOAD AND DUP1 ISZERO PUSH2 0x559 JUMPI JUMPDEST PUSH2 0x43C SWAP1 PUSH2 0x3EB0 JUMP JUMPDEST PUSH1 0x0 JUMPDEST DUP7 DUP2 LT PUSH2 0x448 JUMPI STOP JUMPDEST DUP1 DUP4 SHL DUP3 ADD DUP9 ADD CALLDATALOAD PUSH1 0x1 PUSH1 0x1 PUSH1 0xA0 SHL SUB DUP2 AND SWAP1 DUP2 DUP2 SUB PUSH2 0x3C0 JUMPI DUP2 PUSH1 0x0 MSTORE PUSH1 0x14 DUP8 MSTORE DUP6 PUSH1 0x40 PUSH1 0x0 KECCAK256 SLOAD AND ISZERO PUSH2 0x51E JUMPI DUP2 PUSH1 0x0 MSTORE PUSH1 0x15 DUP1 DUP9 MSTORE DUP7 PUSH1 0x40 PUSH1 0x0 KECCAK256 SLOAD AND PUSH2 0x4DA JUMPI DUP3 SWAP2 PUSH2 0x4AF SWAP2 PUSH1 0x1 SWAP6 SWAP5 PUSH1 0x0 MSTORE DUP10 MSTORE PUSH1 0x40 PUSH1 0x0 KECCAK256 DUP6 PUSH1 0xFF NOT DUP3 SLOAD AND OR SWAP1 SSTORE PUSH2 0x42A2 JUMP JUMPDEST PUSH32 0x4F783C179409B4127238BC9C990BC99B9A651666A0D20B51D6C42849EB88466D PUSH1 0x0 DUP1 LOG2 ADD PUSH2 0x43F JUMP JUMPDEST PUSH1 0x40 MLOAD PUSH3 0x461BCD PUSH1 0xE5 SHL DUP2 MSTORE PUSH1 0x4 DUP2 ADD DUP10 SWAP1 MSTORE PUSH1 0x1B DUP2 DUP14 ADD MSTORE PUSH32 0x4164647265737320616C72656164792077686974656C69737465640000000000 PUSH1 0x44 DUP3 ADD MSTORE PUSH1 0x64 SWAP1 REVERT JUMPDEST PUSH1 0x64 DUP8 DUP10 DUP13 PUSH1 0x40 MLOAD SWAP3 PUSH3 0x461BCD PUSH1 0xE5 SHL DUP5 MSTORE PUSH1 0x4 DUP5 ADD MSTORE DUP3 ADD MSTORE PUSH22 0x1059191C995CDCC81B9BDD081A5B9D195C995CDD1959 PUSH1 0x52 SHL PUSH1 0x44 DUP3 ADD MSTORE REVERT JUMPDEST POP PUSH1 0xA SLOAD PUSH1 0x1 PUSH1 0x1 PUSH1 0xA0 SHL SUB AND CALLER EQ PUSH2 0x433 JUMP JUMPDEST CALLVALUE PUSH2 0x3C0 JUMPI PUSH1 0x0 CALLDATASIZE PUSH1 0x3 NOT ADD SLT PUSH2 0x3C0 JUMPI PUSH1 0x20 PUSH1 0xF SLOAD PUSH1 0x40 MLOAD SWAP1 DUP2 MSTORE RETURN JUMPDEST CALLVALUE PUSH2 0x3C0 JUMPI PUSH1 0x40 CALLDATASIZE PUSH1 0x3 NOT ADD SLT PUSH2 0x3C0 JUMPI PUSH2 0x5A4 PUSH2 0x3A38 JUMP JUMPDEST PUSH2 0x5AC PUSH2 0x3A4E JUMP JUMPDEST SWAP1 PUSH1 0x1 DUP1 PUSH1 0xA0 SHL SUB DUP1 SWAP2 AND PUSH1 0x0 MSTORE PUSH1 0x5 PUSH1 0x20 MSTORE PUSH1 0x40 PUSH1 0x0 KECCAK256 SWAP2 AND PUSH1 0x0 MSTORE PUSH1 0x20 MSTORE PUSH1 0x20 PUSH1 0xFF PUSH1 0x40 PUSH1 0x0 KECCAK256 SLOAD AND PUSH1 0x40 MLOAD SWAP1 ISZERO ISZERO DUP2 MSTORE RETURN JUMPDEST CALLVALUE PUSH2 0x3C0 JUMPI PUSH1 0x20 DUP1 PUSH1 0x3 NOT CALLDATASIZE ADD SLT PUSH2 0x3C0 JUMPI PUSH1 0x1 PUSH1 0x1 PUSH1 0xA0 SHL SUB PUSH2 0x603 PUSH2 0x3A38 JUMP JUMPDEST AND PUSH1 0x0 MSTORE PUSH1 0x1F PUSH1 0x20 MSTORE PUSH1 0x40 PUSH1 0x0 KECCAK256 SWAP1 PUSH1 0x40 MLOAD SWAP1 DUP2 PUSH1 0x20 DUP5 SLOAD SWAP2 DUP3 DUP2 MSTORE ADD SWAP4 PUSH1 0x0 MSTORE PUSH1 0x20 PUSH1 0x0 KECCAK256 SWAP2 PUSH1 0x0 SWAP1 JUMPDEST DUP3 DUP3 LT PUSH2 0x655 JUMPI PUSH2 0x651 DUP6 PUSH2 0x645 DUP2 DUP10 SUB DUP3 PUSH2 0x3C1A JUMP JUMPDEST PUSH1 0x40 MLOAD SWAP2 DUP3 SWAP2 DUP3 PUSH2 0x3D7C JUMP JUMPDEST SUB SWAP1 RETURN JUMPDEST DUP4 SLOAD DUP7 MSTORE SWAP5 DUP6 ADD SWAP5 PUSH1 0x1 SWAP4 DUP5 ADD SWAP4 SWAP1 SWAP2 ADD SWAP1 PUSH2 0x62E JUMP JUMPDEST CALLVALUE PUSH2 0x3C0 JUMPI PUSH1 0x20 CALLDATASIZE PUSH1 0x3 NOT ADD SLT PUSH2 0x3C0 JUMPI PUSH1 0x4 CALLDATALOAD PUSH1 0x17 SLOAD DUP2 LT ISZERO PUSH2 0x3C0 JUMPI PUSH1 0x17 PUSH1 0x0 MSTORE PUSH32 0xC624B66CC0138B8FABC209247F72D758E1CF3343756D543BADBF24212BED8C15 ADD SLOAD PUSH1 0x40 MLOAD PUSH1 0x1 PUSH1 0x1 PUSH1 0xA0 SHL SUB SWAP1 SWAP2 AND DUP2 MSTORE PUSH1 0x20 SWAP1 RETURN JUMPDEST CALLVALUE PUSH2 0x3C0 JUMPI PUSH1 0x0 CALLDATASIZE PUSH1 0x3 NOT ADD SLT PUSH2 0x3C0 JUMPI PUSH1 0x20 PUSH1 0xD SLOAD PUSH1 0x40 MLOAD SWAP1 DUP2 MSTORE RETURN JUMPDEST CALLVALUE PUSH2 0x3C0 JUMPI PUSH1 0xC0 CALLDATASIZE PUSH1 0x3 NOT ADD SLT PUSH2 0x3C0 JUMPI PUSH1 0x4 CALLDATALOAD PUSH1 0x1 PUSH1 0x1 PUSH1 0x40 SHL SUB DUP2 GT PUSH2 0x3C0 JUMPI PUSH2 0x715 SWAP1 CALLDATASIZE SWAP1 PUSH1 0x4 ADD PUSH2 0x3E18 JUMP JUMPDEST PUSH1 0x24 CALLDATALOAD PUSH1 0x1 PUSH1 0x1 PUSH1 0x40 SHL SUB DUP2 GT PUSH2 0x3C0 JUMPI PUSH2 0x734 SWAP1 CALLDATASIZE SWAP1 PUSH1 0x4 ADD PUSH2 0x3E18 JUMP JUMPDEST SWAP1 PUSH1 0x44 CALLDATALOAD PUSH1 0x1 PUSH1 0x1 PUSH1 0x40 SHL SUB DUP2 GT PUSH2 0x3C0 JUMPI PUSH2 0x754 SWAP1 CALLDATASIZE SWAP1 PUSH1 0x4 ADD PUSH2 0x3E18 JUMP JUMPDEST SWAP1 PUSH1 0x64 CALLDATALOAD PUSH1 0x1 PUSH1 0x1 PUSH1 0x40 SHL SUB DUP2 GT PUSH2 0x3C0 JUMPI PUSH2 0x774 SWAP1 CALLDATASIZE SWAP1 PUSH1 0x4 ADD PUSH2 0x3E18 JUMP JUMPDEST SWAP2 PUSH2 0x77D PUSH2 0x4CD3 JUMP JUMPDEST PUSH2 0x785 PUSH2 0x4CF1 JUMP JUMPDEST PUSH1 0xFF PUSH1 0x13 SLOAD AND PUSH2 0xFFD JUMPI JUMPDEST PUSH1 0xA4 CALLDATALOAD ISZERO PUSH2 0xFAE JUMPI DUP2 MLOAD ISZERO PUSH2 0xF71 JUMPI DUP1 MLOAD ISZERO PUSH2 0xF2C JUMPI PUSH2 0x4000 DUP2 MLOAD GT PUSH2 0xEE7 JUMPI DUP3 MLOAD ISZERO PUSH2 0xEA2 JUMPI PUSH2 0x7DD PUSH1 0x40 MLOAD PUSH2 0x7C6 DUP2 PUSH2 0x3BE4 JUMP JUMPDEST PUSH1 0x4 DUP2 MSTORE PUSH4 0x6A706567 PUSH1 0xE0 SHL PUSH1 0x20 DUP3 ADD MSTORE DUP5 PUSH2 0x5051 JUMP JUMPDEST DUP1 ISZERO PUSH2 0xE77 JUMPI JUMPDEST DUP1 ISZERO PUSH2 0xE4C JUMPI JUMPDEST DUP1 ISZERO PUSH2 0xE21 JUMPI JUMPDEST DUP1 ISZERO PUSH2 0xDF5 JUMPI JUMPDEST DUP1 ISZERO PUSH2 0xDCA JUMPI JUMPDEST DUP1 ISZERO PUSH2 0xD9F JUMPI JUMPDEST ISZERO PUSH2 0xD65 JUMPI PUSH2 0x817 PUSH1 0x12 SLOAD PUSH2 0x4232 JUMP JUMPDEST SWAP3 DUP4 PUSH1 0x12 SSTORE PUSH1 0x40 MLOAD SWAP5 PUSH2 0x829 DUP7 PUSH2 0x3BAD JUMP JUMPDEST DUP5 DUP7 MSTORE CALLER PUSH1 0x20 DUP8 ADD MSTORE DUP4 PUSH1 0x40 DUP8 ADD MSTORE PUSH1 0x60 DUP7 ADD MSTORE DUP2 PUSH1 0x80 DUP7 ADD MSTORE PUSH1 0xA0 DUP6 ADD MSTORE PUSH1 0x84 CALLDATALOAD PUSH1 0xC0 DUP6 ADD MSTORE PUSH1 0xA4 CALLDATALOAD PUSH1 0xE0 DUP6 ADD MSTORE PUSH1 0x0 PUSH2 0x100 DUP6 ADD MSTORE PUSH1 0x1 PUSH2 0x120 DUP6 ADD MSTORE TIMESTAMP PUSH2 0x140 DUP6 ADD MSTORE DUP3 PUSH1 0x0 MSTORE PUSH1 0x1B PUSH1 0x20 MSTORE PUSH1 0x40 PUSH1 0x0 KECCAK256 SWAP1 DUP5 MLOAD DUP3 SSTORE PUSH1 0x1 DUP3 ADD PUSH1 0x1 DUP1 PUSH1 0xA0 SHL SUB PUSH1 0x20 DUP8 ADD MLOAD AND PUSH1 0x1 PUSH1 0x1 PUSH1 0x60 SHL SUB PUSH1 0xA0 SHL DUP3 SLOAD AND OR SWAP1 SSTORE PUSH1 0x40 DUP6 ADD MLOAD DUP1 MLOAD SWAP1 PUSH1 0x1 PUSH1 0x1 PUSH1 0x40 SHL SUB DUP3 GT PUSH2 0xBEE JUMPI PUSH2 0x8D4 DUP3 PUSH2 0x8CB PUSH1 0x2 DUP8 ADD SLOAD PUSH2 0x3AC2 JUMP JUMPDEST PUSH1 0x2 DUP8 ADD PUSH2 0x42FE JUMP JUMPDEST PUSH1 0x20 SWAP1 PUSH1 0x1F DUP4 GT PUSH1 0x1 EQ PUSH2 0xCF3 JUMPI PUSH2 0x905 SWAP3 SWAP2 PUSH1 0x0 SWAP2 DUP4 PUSH2 0xC04 JUMPI JUMPDEST POP POP DUP2 PUSH1 0x1 SHL SWAP2 PUSH1 0x0 NOT SWAP1 PUSH1 0x3 SHL SHR NOT AND OR SWAP1 JUMP JUMPDEST PUSH1 0x2 DUP4 ADD SSTORE JUMPDEST PUSH1 0x60 DUP6 ADD MLOAD DUP1 MLOAD SWAP1 PUSH1 0x1 PUSH1 0x1 PUSH1 0x40 SHL SUB DUP3 GT PUSH2 0xBEE JUMPI PUSH2 0x93B DUP3 PUSH2 0x932 PUSH1 0x3 DUP8 ADD SLOAD PUSH2 0x3AC2 JUMP JUMPDEST PUSH1 0x3 DUP8 ADD PUSH2 0x42FE JUMP JUMPDEST PUSH1 0x20 SWAP1 PUSH1 0x1F DUP4 GT PUSH1 0x1 EQ PUSH2 0xC81 JUMPI PUSH2 0x96B SWAP3 SWAP2 PUSH1 0x0 SWAP2 DUP4 PUSH2 0xC04 JUMPI POP POP DUP2 PUSH1 0x1 SHL SWAP2 PUSH1 0x0 NOT SWAP1 PUSH1 0x3 SHL SHR NOT AND OR SWAP1 JUMP JUMPDEST PUSH1 0x3 DUP4 ADD SSTORE JUMPDEST PUSH1 0x80 DUP6 ADD MLOAD DUP1 MLOAD SWAP1 PUSH1 0x1 PUSH1 0x1 PUSH1 0x40 SHL SUB DUP3 GT PUSH2 0xBEE JUMPI PUSH2 0x9A1 DUP3 PUSH2 0x998 PUSH1 0x4 DUP8 ADD SLOAD PUSH2 0x3AC2 JUMP JUMPDEST PUSH1 0x4 DUP8 ADD PUSH2 0x42FE JUMP JUMPDEST PUSH1 0x20 SWAP1 PUSH1 0x1F DUP4 GT PUSH1 0x1 EQ PUSH2 0xC0F JUMPI PUSH2 0x9D1 SWAP3 SWAP2 PUSH1 0x0 SWAP2 DUP4 PUSH2 0xC04 JUMPI POP POP DUP2 PUSH1 0x1 SHL SWAP2 PUSH1 0x0 NOT SWAP1 PUSH1 0x3 SHL SHR NOT AND OR SWAP1 JUMP JUMPDEST PUSH1 0x4 DUP4 ADD SSTORE JUMPDEST PUSH1 0xA0 DUP6 ADD MLOAD SWAP1 DUP2 MLOAD SWAP3 PUSH1 0x1 PUSH1 0x1 PUSH1 0x40 SHL SUB DUP5 GT PUSH2 0xBEE JUMPI PUSH1 0x20 SWAP7 DUP7 SWAP4 PUSH2 0xA0D DUP7 PUSH2 0xA04 PUSH1 0x5 DUP7 ADD SLOAD PUSH2 0x3AC2 JUMP JUMPDEST PUSH1 0x5 DUP7 ADD PUSH2 0x42FE JUMP JUMPDEST DUP9 SWAP1 PUSH1 0x1F DUP8 GT PUSH1 0x1 EQ PUSH2 0xB54 JUMPI SWAP2 PUSH2 0xA65 DUP8 PUSH32 0x620A19BC4DAEE514FEE0572D8F32A41AFCFAA7DF6E10EF4DE93AED4F9DCDEEBC SWAP8 SWAP9 PUSH2 0x140 SWAP5 PUSH1 0xA SWAP7 PUSH1 0x0 SWAP3 PUSH2 0xB49 JUMPI POP POP DUP2 PUSH1 0x1 SHL SWAP2 PUSH1 0x0 NOT SWAP1 PUSH1 0x3 SHL SHR NOT AND OR SWAP1 JUMP JUMPDEST PUSH1 0x5 DUP6 ADD SSTORE JUMPDEST PUSH1 0xC0 DUP2 ADD MLOAD PUSH1 0x6 DUP6 ADD SSTORE PUSH1 0xE0 DUP2 ADD MLOAD PUSH1 0x7 DUP6 ADD SSTORE PUSH2 0x100 DUP2 ADD MLOAD PUSH1 0x8 DUP6 ADD SSTORE PUSH2 0xAAA PUSH2 0x120 DUP3 ADD MLOAD ISZERO ISZERO PUSH1 0x9 DUP7 ADD SWAP1 PUSH1 0xFF DUP1 NOT DUP4 SLOAD AND SWAP2 ISZERO ISZERO AND OR SWAP1 SSTORE JUMP JUMPDEST ADD MLOAD SWAP2 ADD SSTORE CALLER PUSH1 0x0 MSTORE PUSH1 0x1E DUP7 MSTORE PUSH2 0xAC5 DUP4 PUSH1 0x40 PUSH1 0x0 KECCAK256 PUSH2 0x427F JUMP JUMPDEST CALLER PUSH1 0x0 MSTORE PUSH1 0x1A DUP7 MSTORE PUSH1 0x3 PUSH1 0x40 PUSH1 0x0 KECCAK256 PUSH1 0x5 DUP2 ADD DUP1 SLOAD PUSH1 0xFF DUP2 AND ISZERO PUSH2 0xB32 JUMPI JUMPDEST POP POP ADD PUSH2 0xAF1 DUP2 SLOAD PUSH2 0x4232 JUMP JUMPDEST SWAP1 SSTORE MLOAD SWAP3 PUSH2 0xB0A PUSH1 0x40 MLOAD SWAP2 PUSH1 0x80 DUP4 MSTORE PUSH1 0x80 DUP4 ADD SWAP1 PUSH2 0x3A87 JUMP JUMPDEST SWAP4 PUSH1 0x84 CALLDATALOAD DUP8 DUP4 ADD MSTORE PUSH1 0xA4 CALLDATALOAD PUSH1 0x40 DUP4 ADD MSTORE PUSH1 0x60 DUP3 ADD MSTORE DUP1 CALLER SWAP5 SUB SWAP1 LOG3 PUSH1 0x1 PUSH1 0xB SSTORE PUSH1 0x40 MLOAD SWAP1 DUP2 MSTORE RETURN JUMPDEST PUSH1 0xFF NOT AND PUSH1 0x1 OR SWAP1 SSTORE PUSH1 0x0 PUSH1 0x4 DUP3 ADD SSTORE DUP9 DUP1 PUSH2 0xAE4 JUMP JUMPDEST ADD MLOAD SWAP1 POP DUP14 DUP1 PUSH2 0x8F0 JUMP JUMPDEST SWAP6 SWAP1 PUSH1 0x5 DUP5 ADD PUSH1 0x0 MSTORE DUP10 PUSH1 0x0 KECCAK256 SWAP7 PUSH1 0x0 JUMPDEST PUSH1 0x1F NOT DUP5 AND DUP2 LT PUSH2 0xBD4 JUMPI POP DUP3 PUSH32 0x620A19BC4DAEE514FEE0572D8F32A41AFCFAA7DF6E10EF4DE93AED4F9DCDEEBC SWAP8 SWAP9 PUSH1 0xA SWAP6 SWAP4 PUSH1 0x1 SWAP4 PUSH2 0x140 SWAP7 PUSH1 0x1F NOT DUP2 AND LT PUSH2 0xBBB JUMPI JUMPDEST POP POP POP DUP2 SHL ADD PUSH1 0x5 DUP6 ADD SSTORE PUSH2 0xA6B JUMP JUMPDEST ADD MLOAD PUSH1 0x0 NOT PUSH1 0xF8 DUP5 PUSH1 0x3 SHL AND SHR NOT AND SWAP1 SSTORE DUP13 DUP1 DUP1 PUSH2 0xBAB JUMP JUMPDEST DUP3 DUP3 ADD MLOAD DUP10 SSTORE PUSH1 0x1 SWAP1 SWAP9 ADD SWAP8 DUP11 SWAP8 POP SWAP2 DUP12 ADD SWAP2 DUP12 ADD PUSH2 0xB65 JUMP JUMPDEST PUSH4 0x4E487B71 PUSH1 0xE0 SHL PUSH1 0x0 MSTORE PUSH1 0x41 PUSH1 0x4 MSTORE PUSH1 0x24 PUSH1 0x0 REVERT JUMPDEST ADD MLOAD SWAP1 POP DUP9 DUP1 PUSH2 0x8F0 JUMP JUMPDEST SWAP2 SWAP1 PUSH1 0x4 DUP6 ADD PUSH1 0x0 MSTORE PUSH1 0x20 PUSH1 0x0 KECCAK256 SWAP1 PUSH1 0x0 SWAP4 JUMPDEST PUSH1 0x1F NOT DUP5 AND DUP6 LT PUSH2 0xC66 JUMPI PUSH1 0x1 SWAP5 POP DUP4 PUSH1 0x1F NOT DUP2 AND LT PUSH2 0xC4D JUMPI JUMPDEST POP POP POP DUP2 SHL ADD PUSH1 0x4 DUP4 ADD SSTORE PUSH2 0x9D7 JUMP JUMPDEST ADD MLOAD PUSH1 0x0 NOT PUSH1 0xF8 DUP5 PUSH1 0x3 SHL AND SHR NOT AND SWAP1 SSTORE DUP8 DUP1 DUP1 PUSH2 0xC3D JUMP JUMPDEST DUP2 DUP2 ADD MLOAD DUP4 SSTORE PUSH1 0x20 SWAP5 DUP6 ADD SWAP5 PUSH1 0x1 SWAP1 SWAP4 ADD SWAP3 SWAP1 SWAP2 ADD SWAP1 PUSH2 0xC22 JUMP JUMPDEST SWAP2 SWAP1 PUSH1 0x3 DUP6 ADD PUSH1 0x0 MSTORE PUSH1 0x20 PUSH1 0x0 KECCAK256 SWAP1 PUSH1 0x0 SWAP4 JUMPDEST PUSH1 0x1F NOT DUP5 AND DUP6 LT PUSH2 0xCD8 JUMPI PUSH1 0x1 SWAP5 POP DUP4 PUSH1 0x1F NOT DUP2 AND LT PUSH2 0xCBF JUMPI JUMPDEST POP POP POP DUP2 SHL ADD PUSH1 0x3 DUP4 ADD SSTORE PUSH2 0x971 JUMP JUMPDEST ADD MLOAD PUSH1 0x0 NOT PUSH1 0xF8 DUP5 PUSH1 0x3 SHL AND SHR NOT AND SWAP1 SSTORE DUP8 DUP1 DUP1 PUSH2 0xCAF JUMP JUMPDEST DUP2 DUP2 ADD MLOAD DUP4 SSTORE PUSH1 0x20 SWAP5 DUP6 ADD SWAP5 PUSH1 0x1 SWAP1 SWAP4 ADD SWAP3 SWAP1 SWAP2 ADD SWAP1 PUSH2 0xC94 JUMP JUMPDEST SWAP2 SWAP1 PUSH1 0x2 DUP6 ADD PUSH1 0x0 MSTORE PUSH1 0x20 PUSH1 0x0 KECCAK256 SWAP1 PUSH1 0x0 SWAP4 JUMPDEST PUSH1 0x1F NOT DUP5 AND DUP6 LT PUSH2 0xD4A JUMPI PUSH1 0x1 SWAP5 POP DUP4 PUSH1 0x1F NOT DUP2 AND LT PUSH2 0xD31 JUMPI JUMPDEST POP POP POP DUP2 SHL ADD PUSH1 0x2 DUP4 ADD SSTORE PUSH2 0x90B JUMP JUMPDEST ADD MLOAD PUSH1 0x0 NOT PUSH1 0xF8 DUP5 PUSH1 0x3 SHL AND SHR NOT AND SWAP1 SSTORE DUP8 DUP1 DUP1 PUSH2 0xD21 JUMP JUMPDEST DUP2 DUP2 ADD MLOAD DUP4 SSTORE PUSH1 0x20 SWAP5 DUP6 ADD SWAP5 PUSH1 0x1 SWAP1 SWAP4 ADD SWAP3 SWAP1 SWAP2 ADD SWAP1 PUSH2 0xD06 JUMP JUMPDEST PUSH1 0x40 MLOAD PUSH3 0x461BCD PUSH1 0xE5 SHL DUP2 MSTORE PUSH1 0x20 PUSH1 0x4 DUP3 ADD MSTORE PUSH1 0x12 PUSH1 0x24 DUP3 ADD MSTORE PUSH18 0x496E76616C696420696D6167652074797065 PUSH1 0x70 SHL PUSH1 0x44 DUP3 ADD MSTORE PUSH1 0x64 SWAP1 REVERT JUMPDEST POP PUSH2 0xDC5 PUSH1 0x40 MLOAD PUSH2 0xDAF DUP2 PUSH2 0x3BE4 JUMP JUMPDEST PUSH1 0x3 DUP2 MSTORE PUSH3 0x7A697 PUSH1 0xEC SHL PUSH1 0x20 DUP3 ADD MSTORE DUP5 PUSH2 0x5051 JUMP JUMPDEST PUSH2 0x807 JUMP JUMPDEST POP PUSH2 0xDF0 PUSH1 0x40 MLOAD PUSH2 0xDDA DUP2 PUSH2 0x3BE4 JUMP JUMPDEST PUSH1 0x3 DUP2 MSTORE PUSH3 0x737667 PUSH1 0xE8 SHL PUSH1 0x20 DUP3 ADD MSTORE DUP5 PUSH2 0x5051 JUMP JUMPDEST PUSH2 0x800 JUMP JUMPDEST POP PUSH2 0xE1C PUSH1 0x40 MLOAD PUSH2 0xE05 DUP2 PUSH2 0x3BE4 JUMP JUMPDEST PUSH1 0x4 DUP2 MSTORE PUSH4 0x7765627 PUSH1 0xE4 SHL PUSH1 0x20 DUP3 ADD MSTORE DUP5 PUSH2 0x5051 JUMP JUMPDEST PUSH2 0x7F9 JUMP JUMPDEST POP PUSH2 0xE47 PUSH1 0x40 MLOAD PUSH2 0xE31 DUP2 PUSH2 0x3BE4 JUMP JUMPDEST PUSH1 0x3 DUP2 MSTORE PUSH3 0x33B4B3 PUSH1 0xE9 SHL PUSH1 0x20 DUP3 ADD MSTORE DUP5 PUSH2 0x5051 JUMP JUMPDEST PUSH2 0x7F2 JUMP JUMPDEST POP PUSH2 0xE72 PUSH1 0x40 MLOAD PUSH2 0xE5C DUP2 PUSH2 0x3BE4 JUMP JUMPDEST PUSH1 0x3 DUP2 MSTORE PUSH3 0x706E67 PUSH1 0xE8 SHL PUSH1 0x20 DUP3 ADD MSTORE DUP5 PUSH2 0x5051 JUMP JUMPDEST PUSH2 0x7EB JUMP JUMPDEST POP PUSH2 0xE9D PUSH1 0x40 MLOAD PUSH2 0xE87 DUP2 PUSH2 0x3BE4 JUMP JUMPDEST PUSH1 0x3 DUP2 MSTORE PUSH3 0x6A7067 PUSH1 0xE8 SHL PUSH1 0x20 DUP3 ADD MSTORE DUP5 PUSH2 0x5051 JUMP JUMPDEST PUSH2 0x7E4 JUMP JUMPDEST PUSH1 0x40 MLOAD PUSH3 0x461BCD PUSH1 0xE5 SHL DUP2 MSTORE PUSH1 0x20 PUSH1 0x4 DUP3 ADD MSTORE PUSH1 0x1A PUSH1 0x24 DUP3 ADD MSTORE PUSH32 0x496D61676520747970652063616E6E6F7420626520656D707479000000000000 PUSH1 0x44 DUP3 ADD MSTORE PUSH1 0x64 SWAP1 REVERT JUMPDEST PUSH1 0x40 MLOAD PUSH3 0x461BCD PUSH1 0xE5 SHL DUP2 MSTORE PUSH1 0x20 PUSH1 0x4 DUP3 ADD MSTORE PUSH1 0x1A PUSH1 0x24 DUP3 ADD MSTORE PUSH32 0x496D61676520746F6F206C61726765202831364B42206D617829000000000000 PUSH1 0x44 DUP3 ADD MSTORE PUSH1 0x64 SWAP1 REVERT JUMPDEST PUSH1 0x40 MLOAD PUSH3 0x461BCD PUSH1 0xE5 SHL DUP2 MSTORE PUSH1 0x20 PUSH1 0x4 DUP3 ADD MSTORE PUSH1 0x1A PUSH1 0x24 DUP3 ADD MSTORE PUSH32 0x496D61676520646174612063616E6E6F7420626520656D707479000000000000 PUSH1 0x44 DUP3 ADD MSTORE PUSH1 0x64 SWAP1 REVERT JUMPDEST PUSH1 0x40 MLOAD PUSH3 0x461BCD PUSH1 0xE5 SHL DUP2 MSTORE PUSH1 0x20 PUSH1 0x4 DUP3 ADD MSTORE PUSH1 0x15 PUSH1 0x24 DUP3 ADD MSTORE PUSH21 0x5469746C652063616E6E6F7420626520656D707479 PUSH1 0x58 SHL PUSH1 0x44 DUP3 ADD MSTORE PUSH1 0x64 SWAP1 REVERT JUMPDEST PUSH1 0x40 MLOAD PUSH3 0x461BCD PUSH1 0xE5 SHL DUP2 MSTORE PUSH1 0x20 PUSH1 0x4 DUP3 ADD MSTORE PUSH1 0x21 PUSH1 0x24 DUP3 ADD MSTORE PUSH32 0x4D617820737570706C79206D7573742062652067726561746572207468616E20 PUSH1 0x44 DUP3 ADD MSTORE PUSH1 0x3 PUSH1 0xFC SHL PUSH1 0x64 DUP3 ADD MSTORE PUSH1 0x84 SWAP1 REVERT JUMPDEST CALLER PUSH1 0x0 MSTORE PUSH1 0x15 PUSH1 0x20 MSTORE PUSH1 0xFF PUSH1 0x40 PUSH1 0x0 KECCAK256 SLOAD AND DUP1 ISZERO PUSH2 0x1024 JUMPI JUMPDEST PUSH2 0x101F SWAP1 PUSH2 0x41B4 JUMP JUMPDEST PUSH2 0x790 JUMP JUMPDEST POP PUSH1 0xA SLOAD PUSH1 0x1 PUSH1 0x1 PUSH1 0xA0 SHL SUB AND CALLER EQ PUSH2 0x1016 JUMP JUMPDEST CALLVALUE PUSH2 0x3C0 JUMPI PUSH1 0x20 CALLDATASIZE PUSH1 0x3 NOT ADD SLT PUSH2 0x3C0 JUMPI PUSH2 0x651 PUSH2 0x1057 PUSH1 0x4 CALLDATALOAD PUSH2 0x44A7 JUMP JUMPDEST PUSH1 0x40 MLOAD SWAP2 DUP3 SWAP2 PUSH1 0x20 DUP4 MSTORE PUSH1 0x20 DUP4 ADD SWAP1 PUSH2 0x3A87 JUMP JUMPDEST CALLVALUE PUSH2 0x3C0 JUMPI PUSH1 0x0 CALLDATASIZE PUSH1 0x3 NOT ADD SLT PUSH2 0x3C0 JUMPI PUSH1 0x10 SLOAD PUSH1 0x40 MLOAD PUSH1 0x1 PUSH1 0x1 PUSH1 0xA0 SHL SUB SWAP1 SWAP2 AND DUP2 MSTORE PUSH1 0x20 SWAP1 RETURN JUMPDEST CALLVALUE PUSH2 0x3C0 JUMPI PUSH1 0x80 CALLDATASIZE PUSH1 0x3 NOT ADD SLT PUSH2 0x3C0 JUMPI PUSH2 0x10AD PUSH2 0x3A38 JUMP JUMPDEST PUSH2 0x10B5 PUSH2 0x3A4E JUMP JUMPDEST PUSH1 0x64 CALLDATALOAD SWAP2 PUSH1 0x1 PUSH1 0x1 PUSH1 0x40 SHL SUB DUP4 GT PUSH2 0x3C0 JUMPI PUSH2 0x10D8 PUSH2 0x10E2 SWAP4 CALLDATASIZE SWAP1 PUSH1 0x4 ADD PUSH2 0x3E18 JUMP JUMPDEST SWAP2 PUSH1 0x44 CALLDATALOAD SWAP2 PUSH2 0x4354 JUMP JUMPDEST STOP JUMPDEST CALLVALUE PUSH2 0x3C0 JUMPI PUSH1 0x80 PUSH2 0x10F4 CALLDATASIZE PUSH2 0x3AAC JUMP JUMPDEST SWAP1 DUP1 PUSH1 0x0 MSTORE PUSH1 0x20 SWAP1 PUSH1 0x2 DUP3 MSTORE PUSH1 0x1 DUP1 PUSH1 0xA0 SHL SUB SWAP1 PUSH2 0x111A DUP3 PUSH1 0x40 PUSH1 0x0 KECCAK256 SLOAD AND ISZERO ISZERO PUSH2 0x415E JUMP JUMPDEST PUSH1 0x0 MSTORE PUSH1 0x1C DUP3 MSTORE PUSH1 0x40 PUSH1 0x0 KECCAK256 PUSH1 0x40 MLOAD PUSH2 0x1132 DUP2 PUSH2 0x3B92 JUMP JUMPDEST DUP2 SLOAD DUP2 MSTORE PUSH1 0x60 PUSH1 0x3 PUSH1 0x1 DUP5 ADD SLOAD SWAP4 DUP5 DUP8 DUP6 ADD MSTORE DUP6 PUSH1 0x2 DUP3 ADD SLOAD AND PUSH1 0x40 DUP6 ADD MSTORE ADD SLOAD SWAP2 ADD MSTORE PUSH1 0x0 MSTORE PUSH1 0x1B DUP3 MSTORE PUSH1 0x40 PUSH1 0x0 KECCAK256 PUSH1 0x40 MLOAD PUSH2 0x116E DUP2 PUSH2 0x3BAD JUMP JUMPDEST DUP2 SLOAD DUP2 MSTORE PUSH2 0x140 PUSH1 0xA DUP5 PUSH1 0x1 DUP6 ADD SLOAD AND SWAP4 DUP7 DUP5 ADD SWAP5 DUP6 MSTORE PUSH1 0x40 MLOAD PUSH2 0x11A0 DUP2 PUSH2 0x1199 DUP2 PUSH1 0x2 DUP7 ADD PUSH2 0x3AFC JUMP JUMPDEST SUB DUP3 PUSH2 0x3C1A JUMP JUMPDEST PUSH1 0x40 DUP6 ADD MSTORE PUSH1 0x40 MLOAD PUSH2 0x11B9 DUP2 PUSH2 0x1199 DUP2 PUSH1 0x3 DUP7 ADD PUSH2 0x3AFC JUMP JUMPDEST PUSH1 0x60 DUP6 ADD MSTORE PUSH1 0x40 MLOAD PUSH2 0x11D2 DUP2 PUSH2 0x1199 DUP2 PUSH1 0x4 DUP7 ADD PUSH2 0x3AFC JUMP JUMPDEST DUP10 DUP6 ADD MSTORE PUSH1 0x40 MLOAD PUSH2 0x11EA DUP2 PUSH2 0x1199 DUP2 PUSH1 0x5 DUP7 ADD PUSH2 0x3AFC JUMP JUMPDEST PUSH1 0xA0 DUP6 ADD MSTORE PUSH1 0x6 DUP2 ADD SLOAD PUSH1 0xC0 DUP6 ADD MSTORE PUSH1 0x7 DUP2 ADD SLOAD PUSH1 0xE0 DUP6 ADD MSTORE PUSH1 0x8 DUP2 ADD SLOAD PUSH2 0x100 DUP6 ADD MSTORE PUSH1 0xFF PUSH1 0x9 DUP3 ADD SLOAD AND ISZERO ISZERO PUSH2 0x120 DUP6 ADD MSTORE ADD SLOAD SWAP2 ADD MSTORE MLOAD AND SWAP2 PUSH2 0x2710 PUSH2 0x1244 DUP2 PUSH2 0x1239 PUSH1 0xF SLOAD DUP6 PUSH2 0x41A1 JUMP JUMPDEST DIV SWAP3 PUSH1 0xE SLOAD SWAP1 PUSH2 0x41A1 JUMP JUMPDEST DIV SWAP1 PUSH2 0x1250 DUP3 DUP3 PUSH2 0x3EA3 JUMP JUMPDEST SWAP3 PUSH1 0x40 MLOAD SWAP5 DUP6 MSTORE DUP5 ADD MSTORE PUSH1 0x40 DUP4 ADD MSTORE PUSH1 0x60 DUP3 ADD MSTORE RETURN JUMPDEST CALLVALUE PUSH2 0x3C0 JUMPI PUSH1 0x20 CALLDATASIZE PUSH1 0x3 NOT ADD SLT PUSH2 0x3C0 JUMPI PUSH1 0x4 CALLDATALOAD PUSH1 0x12 SLOAD DUP2 GT ISZERO DUP1 PUSH2 0x13F2 JUMPI JUMPDEST PUSH2 0x128F SWAP1 PUSH2 0x41F2 JUMP JUMPDEST PUSH1 0x0 MSTORE PUSH1 0x1B PUSH1 0x20 MSTORE PUSH2 0x140 PUSH1 0x40 PUSH1 0x0 KECCAK256 PUSH1 0x40 MLOAD SWAP1 PUSH2 0x12AC DUP3 PUSH2 0x3BAD JUMP JUMPDEST DUP1 SLOAD DUP3 MSTORE PUSH1 0x1 DUP2 ADD SLOAD PUSH1 0x1 PUSH1 0x1 PUSH1 0xA0 SHL SUB AND PUSH1 0x20 DUP4 ADD MSTORE PUSH1 0x40 MLOAD PUSH2 0x12D7 DUP2 PUSH2 0x1199 DUP2 PUSH1 0x2 DUP7 ADD PUSH2 0x3AFC JUMP JUMPDEST PUSH1 0x40 DUP4 ADD MSTORE PUSH1 0x40 MLOAD SWAP1 PUSH2 0x12F8 DUP3 PUSH2 0x12F1 DUP2 PUSH1 0x3 DUP6 ADD PUSH2 0x3AFC JUMP JUMPDEST SUB DUP4 PUSH2 0x3C1A JUMP JUMPDEST PUSH1 0x60 DUP4 ADD SWAP2 DUP3 MSTORE PUSH1 0x40 MLOAD PUSH2 0x1313 DUP2 PUSH2 0x1199 DUP2 PUSH1 0x4 DUP7 ADD PUSH2 0x3AFC JUMP JUMPDEST PUSH1 0x80 DUP5 ADD MSTORE PUSH1 0x40 MLOAD SWAP1 PUSH2 0x132D DUP3 PUSH2 0x12F1 DUP2 PUSH1 0x5 DUP6 ADD PUSH2 0x3AFC JUMP JUMPDEST DUP2 PUSH1 0xA0 DUP6 ADD MSTORE PUSH1 0x6 DUP2 ADD SLOAD SWAP1 DUP2 PUSH1 0xC0 DUP7 ADD MSTORE PUSH1 0x7 DUP2 ADD SLOAD DUP1 PUSH1 0xE0 DUP8 ADD MSTORE PUSH1 0x8 DUP3 ADD SLOAD SWAP1 PUSH2 0x100 SWAP4 DUP3 DUP6 DUP10 ADD MSTORE PUSH2 0x13CD PUSH1 0xA PUSH1 0xFF PUSH1 0x9 DUP8 ADD SLOAD AND SWAP6 DUP7 ISZERO ISZERO PUSH2 0x120 DUP13 ADD MSTORE ADD SLOAD SWAP7 DUP8 DUP12 DUP12 ADD MSTORE PUSH2 0x13BF PUSH1 0x1 DUP1 PUSH1 0xA0 SHL SUB PUSH1 0x20 DUP13 ADD MLOAD AND SWAP11 PUSH2 0x13B1 PUSH1 0x80 PUSH1 0x40 DUP4 ADD MLOAD SWAP13 MLOAD SWAP3 ADD MLOAD MLOAD SWAP12 PUSH1 0x40 MLOAD SWAP15 DUP16 SWAP15 DUP16 SWAP1 DUP2 MSTORE DUP2 PUSH1 0x20 DUP3 ADD MSTORE ADD SWAP1 PUSH2 0x3A87 JUMP JUMPDEST DUP13 DUP2 SUB PUSH1 0x40 DUP15 ADD MSTORE SWAP1 PUSH2 0x3A87 JUMP JUMPDEST SWAP1 DUP11 DUP3 SUB PUSH1 0x60 DUP13 ADD MSTORE PUSH2 0x3A87 JUMP JUMPDEST SWAP7 PUSH1 0x80 DUP10 ADD MSTORE PUSH1 0xA0 DUP9 ADD MSTORE PUSH1 0xC0 DUP8 ADD MSTORE PUSH1 0xE0 DUP7 ADD MSTORE ISZERO ISZERO SWAP1 DUP5 ADD MSTORE PUSH2 0x120 DUP4 ADD MSTORE SUB SWAP1 RETURN JUMPDEST POP DUP1 ISZERO ISZERO PUSH2 0x1286 JUMP JUMPDEST CALLVALUE PUSH2 0x3C0 JUMPI PUSH1 0x20 CALLDATASIZE PUSH1 0x3 NOT ADD SLT PUSH2 0x3C0 JUMPI PUSH1 0x1 PUSH1 0x1 PUSH1 0xA0 SHL SUB PUSH2 0x141C PUSH2 0x3A38 JUMP JUMPDEST AND PUSH1 0x0 MSTORE PUSH1 0x1A PUSH1 0x20 MSTORE PUSH1 0x40 PUSH1 0x0 KECCAK256 PUSH1 0x40 MLOAD PUSH1 0xC0 DUP2 ADD DUP2 DUP2 LT PUSH1 0x1 PUSH1 0x1 PUSH1 0x40 SHL SUB DUP3 GT OR PUSH2 0xBEE JUMPI DUP1 PUSH1 0x40 MSTORE PUSH2 0x1460 PUSH1 0xBF NOT DUP4 PUSH2 0x1458 DUP5 DUP8 PUSH2 0x3AFC JUMP JUMPDEST SUB ADD DUP3 PUSH2 0x3C1A JUMP JUMPDEST DUP2 MSTORE PUSH2 0x651 PUSH1 0x40 MLOAD SWAP2 PUSH2 0x1481 DUP4 PUSH2 0x147A DUP2 PUSH1 0x1 DUP9 ADD PUSH2 0x3AFC JUMP JUMPDEST SUB DUP5 PUSH2 0x3C1A JUMP JUMPDEST PUSH1 0x20 DUP2 ADD SWAP3 DUP4 MSTORE PUSH1 0x40 MLOAD SWAP4 PUSH2 0x14A4 DUP6 PUSH2 0x149D DUP2 PUSH1 0x2 DUP6 ADD PUSH2 0x3AFC JUMP JUMPDEST SUB DUP7 PUSH2 0x3C1A JUMP JUMPDEST DUP5 PUSH1 0x40 DUP4 ADD MSTORE PUSH1 0x3 DUP2 ADD SLOAD DUP1 PUSH1 0x60 DUP5 ADD MSTORE PUSH1 0xFF PUSH1 0x5 PUSH1 0x4 DUP5 ADD SLOAD SWAP4 DUP5 PUSH1 0x80 DUP8 ADD MSTORE ADD SLOAD AND ISZERO ISZERO SWAP3 DUP4 PUSH1 0xA0 DUP3 ADD MSTORE MLOAD SWAP5 MLOAD SWAP6 PUSH1 0x40 MLOAD SWAP7 DUP8 SWAP7 DUP8 PUSH2 0x3C3B JUMP JUMPDEST CALLVALUE PUSH2 0x3C0 JUMPI PUSH1 0x60 CALLDATASIZE PUSH1 0x3 NOT ADD SLT PUSH2 0x3C0 JUMPI PUSH1 0x1 PUSH1 0x1 PUSH1 0x40 SHL SUB PUSH1 0x4 CALLDATALOAD DUP2 DUP2 GT PUSH2 0x3C0 JUMPI PUSH2 0x1512 SWAP1 CALLDATASIZE SWAP1 PUSH1 0x4 ADD PUSH2 0x3E18 JUMP JUMPDEST PUSH1 0x24 CALLDATALOAD DUP3 DUP2 GT PUSH2 0x3C0 JUMPI PUSH2 0x152A SWAP1 CALLDATASIZE SWAP1 PUSH1 0x4 ADD PUSH2 0x3E18 JUMP JUMPDEST SWAP2 PUSH1 0x44 CALLDATALOAD DUP2 DUP2 GT PUSH2 0x3C0 JUMPI PUSH2 0x1543 SWAP1 CALLDATASIZE SWAP1 PUSH1 0x4 ADD PUSH2 0x3E18 JUMP JUMPDEST SWAP3 CALLER PUSH1 0x0 MSTORE PUSH1 0x20 SWAP2 PUSH1 0x1A DUP4 MSTORE PUSH1 0x40 PUSH1 0x0 KECCAK256 SWAP1 PUSH1 0x5 DUP3 ADD DUP1 SLOAD PUSH1 0xFF DUP2 AND ISZERO PUSH2 0x1834 JUMPI JUMPDEST POP POP DUP5 MLOAD DUP2 DUP2 GT PUSH2 0xBEE JUMPI PUSH2 0x1584 DUP2 PUSH2 0x157E DUP6 SLOAD PUSH2 0x3AC2 JUMP JUMPDEST DUP6 PUSH2 0x42FE JUMP JUMPDEST DUP5 PUSH1 0x1F DUP3 GT PUSH1 0x1 EQ PUSH2 0x17D0 JUMPI SWAP1 DUP1 PUSH2 0x15B2 SWAP3 PUSH1 0x0 SWAP2 PUSH2 0x17C5 JUMPI JUMPDEST POP DUP2 PUSH1 0x1 SHL SWAP2 PUSH1 0x0 NOT SWAP1 PUSH1 0x3 SHL SHR NOT AND OR SWAP1 JUMP JUMPDEST DUP3 SSTORE JUMPDEST PUSH1 0x1 SWAP2 DUP3 DUP2 ADD DUP5 MLOAD DUP4 DUP2 GT PUSH2 0xBEE JUMPI PUSH2 0x15D8 DUP2 PUSH2 0x15D2 DUP5 SLOAD PUSH2 0x3AC2 JUMP JUMPDEST DUP5 PUSH2 0x42FE JUMP JUMPDEST DUP7 PUSH1 0x1F DUP3 GT PUSH1 0x1 EQ PUSH2 0x1761 JUMPI DUP2 PUSH1 0x2 SWAP5 SWAP4 SWAP3 PUSH2 0x1609 SWAP3 PUSH1 0x0 SWAP2 PUSH2 0x1756 JUMPI POP DUP2 PUSH1 0x1 SHL SWAP2 PUSH1 0x0 NOT SWAP1 PUSH1 0x3 SHL SHR NOT AND OR SWAP1 JUMP JUMPDEST SWAP1 SSTORE JUMPDEST ADD SWAP2 DUP7 MLOAD SWAP2 DUP3 GT PUSH2 0xBEE JUMPI PUSH2 0x1625 DUP3 PUSH2 0x157E DUP6 SLOAD PUSH2 0x3AC2 JUMP JUMPDEST DUP5 SWAP1 PUSH1 0x1F DUP4 GT PUSH1 0x1 EQ PUSH2 0x16C5 JUMPI POP SWAP4 PUSH32 0x39DFEE1413BB413BA51702FE3CD693CD3B02628FBAC61358818D502B7AF50095 SWAP6 SWAP4 PUSH2 0x16B5 SWAP4 PUSH2 0x1682 DUP5 PUSH2 0x16A6 SWAP6 PUSH2 0x1699 SWAP10 PUSH1 0x0 SWAP2 PUSH2 0x16BA JUMPI POP DUP2 PUSH1 0x1 SHL SWAP2 PUSH1 0x0 NOT SWAP1 PUSH1 0x3 SHL SHR NOT AND OR SWAP1 JUMP JUMPDEST SWAP1 SSTORE JUMPDEST PUSH1 0x40 MLOAD SWAP6 DUP7 SWAP6 PUSH1 0x60 DUP8 MSTORE PUSH1 0x60 DUP8 ADD SWAP1 PUSH2 0x3A87 JUMP JUMPDEST SWAP2 DUP6 DUP4 SUB SWAP1 DUP7 ADD MSTORE PUSH2 0x3A87 JUMP JUMPDEST DUP3 DUP2 SUB PUSH1 0x40 DUP5 ADD MSTORE CALLER SWAP6 PUSH2 0x3A87 JUMP JUMPDEST SUB SWAP1 LOG2 STOP JUMPDEST SWAP1 POP DUP12 ADD MLOAD DUP13 PUSH2 0x159E JUMP JUMPDEST SWAP2 SWAP1 PUSH1 0x1F NOT DUP3 AND SWAP1 DUP5 PUSH1 0x0 MSTORE DUP7 PUSH1 0x0 KECCAK256 SWAP2 PUSH1 0x0 JUMPDEST DUP11 DUP3 DUP3 LT PUSH2 0x1742 JUMPI POP POP SWAP4 DUP4 PUSH32 0x39DFEE1413BB413BA51702FE3CD693CD3B02628FBAC61358818D502B7AF50095 SWAP10 SWAP8 SWAP4 PUSH2 0x16B5 SWAP8 SWAP4 PUSH2 0x1699 SWAP11 SWAP7 PUSH2 0x16A6 SWAP9 LT PUSH2 0x1729 JUMPI JUMPDEST POP POP DUP2 SHL ADD SWAP1 SSTORE PUSH2 0x1685 JUMP JUMPDEST DUP13 ADD MLOAD PUSH1 0x0 NOT PUSH1 0xF8 DUP5 PUSH1 0x3 SHL AND SHR NOT AND SWAP1 SSTORE DUP12 DUP1 PUSH2 0x171D JUMP JUMPDEST DUP4 ADD MLOAD DUP5 SSTORE SWAP3 DUP6 ADD SWAP3 SWAP2 DUP9 ADD SWAP2 DUP9 ADD PUSH2 0x16D9 JUMP JUMPDEST SWAP1 POP DUP9 ADD MLOAD DUP13 PUSH2 0x159E JUMP JUMPDEST PUSH1 0x0 DUP4 DUP2 MSTORE DUP9 DUP2 KECCAK256 PUSH1 0x1F NOT DUP5 AND SWAP6 SWAP5 SWAP4 DUP9 SWAP4 SWAP1 SWAP3 JUMPDEST DUP12 DUP9 DUP3 LT PUSH2 0x17AF JUMPI POP POP DUP3 PUSH1 0x2 SWAP8 LT PUSH2 0x1796 JUMPI JUMPDEST POP POP DUP2 SHL ADD SWAP1 SSTORE PUSH2 0x160C JUMP JUMPDEST DUP10 ADD MLOAD PUSH1 0x0 NOT PUSH1 0xF8 DUP5 PUSH1 0x3 SHL AND SHR NOT AND SWAP1 SSTORE DUP12 DUP1 PUSH2 0x178A JUMP JUMPDEST DUP3 DUP13 ADD MLOAD DUP5 SSTORE DUP11 SWAP6 SWAP1 SWAP4 ADD SWAP3 SWAP2 DUP3 ADD SWAP2 ADD PUSH2 0x1776 JUMP JUMPDEST SWAP1 POP DUP8 ADD MLOAD DUP10 PUSH2 0x159E JUMP JUMPDEST PUSH1 0x1F NOT DUP3 AND SWAP1 DUP5 PUSH1 0x0 MSTORE DUP7 PUSH1 0x0 KECCAK256 SWAP2 PUSH1 0x0 JUMPDEST DUP9 DUP3 DUP3 LT PUSH2 0x181E JUMPI POP POP SWAP1 DUP4 PUSH1 0x1 SWAP5 SWAP4 SWAP3 LT PUSH2 0x1805 JUMPI JUMPDEST POP POP DUP2 SHL ADD DUP3 SSTORE PUSH2 0x15B5 JUMP JUMPDEST DUP9 ADD MLOAD PUSH1 0x0 NOT PUSH1 0xF8 DUP5 PUSH1 0x3 SHL AND SHR NOT AND SWAP1 SSTORE DUP9 DUP1 PUSH2 0x17F9 JUMP JUMPDEST PUSH1 0x1 DUP5 SWAP6 DUP3 SWAP4 SWAP6 DUP14 ADD MLOAD DUP2 SSTORE ADD SWAP5 ADD SWAP3 ADD PUSH2 0x17E2 JUMP JUMPDEST PUSH1 0xFF NOT AND PUSH1 0x1 OR SWAP1 SSTORE PUSH1 0x0 PUSH1 0x3 DUP4 ADD DUP2 SWAP1 SSTORE PUSH1 0x4 DUP4 ADD SSTORE DUP7 DUP1 PUSH2 0x1565 JUMP JUMPDEST CALLVALUE PUSH2 0x3C0 JUMPI PUSH1 0x40 CALLDATASIZE PUSH1 0x3 NOT ADD SLT PUSH2 0x3C0 JUMPI PUSH2 0x186B PUSH2 0x3A38 JUMP JUMPDEST PUSH1 0x24 CALLDATALOAD SWAP1 DUP2 ISZERO ISZERO SWAP1 DUP2 DUP4 SUB PUSH2 0x3C0 JUMPI PUSH1 0x1 PUSH1 0x1 PUSH1 0xA0 SHL SUB AND SWAP2 DUP3 ISZERO PUSH2 0x18E7 JUMPI PUSH2 0x18B9 SWAP1 CALLER PUSH1 0x0 MSTORE PUSH1 0x5 PUSH1 0x20 MSTORE PUSH1 0x40 PUSH1 0x0 KECCAK256 DUP5 PUSH1 0x0 MSTORE PUSH1 0x20 MSTORE PUSH1 0x40 PUSH1 0x0 KECCAK256 SWAP1 PUSH1 0xFF DUP1 NOT DUP4 SLOAD AND SWAP2 ISZERO ISZERO AND OR SWAP1 SSTORE JUMP JUMPDEST PUSH1 0x40 MLOAD SWAP1 DUP2 MSTORE PUSH32 0x17307EAB39AB6107E8899845AD3D59BD9653F200F220920489CA2B5937696C31 PUSH1 0x20 CALLER SWAP3 LOG3 STOP JUMPDEST PUSH1 0x40 MLOAD PUSH4 0xB611743 PUSH1 0xE3 SHL DUP2 MSTORE PUSH1 0x4 DUP2 ADD DUP5 SWAP1 MSTORE PUSH1 0x24 SWAP1 REVERT JUMPDEST CALLVALUE PUSH2 0x3C0 JUMPI PUSH1 0x0 CALLDATASIZE PUSH1 0x3 NOT ADD SLT PUSH2 0x3C0 JUMPI PUSH1 0x40 MLOAD PUSH1 0x0 PUSH1 0x1 DUP3 PUSH1 0x1 SLOAD SWAP3 PUSH2 0x1926 DUP5 PUSH2 0x3AC2 JUMP JUMPDEST SWAP3 DUP4 DUP4 MSTORE PUSH1 0x20 SWAP5 DUP6 PUSH1 0x1 DUP3 AND SWAP2 DUP3 PUSH1 0x0 EQ PUSH2 0x19C3 JUMPI POP POP PUSH1 0x1 EQ PUSH2 0x1966 JUMPI JUMPDEST POP PUSH2 0x1952 SWAP3 POP SUB DUP4 PUSH2 0x3C1A JUMP JUMPDEST PUSH2 0x651 PUSH1 0x40 MLOAD SWAP3 DUP3 DUP5 SWAP4 DUP5 MSTORE DUP4 ADD SWAP1 PUSH2 0x3A87 JUMP JUMPDEST DUP5 SWAP2 POP PUSH1 0x1 PUSH1 0x0 MSTORE PUSH32 0xB10E2D527612073B26EECDFD717E6A320CF44B4AFAC2B0732D9FCBE2B7FA0CF6 SWAP1 PUSH1 0x0 SWAP2 JUMPDEST DUP6 DUP4 LT PUSH2 0x19AB JUMPI POP POP PUSH2 0x1952 SWAP4 POP DUP3 ADD ADD DUP6 PUSH2 0x1945 JUMP JUMPDEST DUP1 SLOAD DUP4 DUP10 ADD DUP6 ADD MSTORE DUP8 SWAP5 POP DUP7 SWAP4 SWAP1 SWAP3 ADD SWAP2 DUP2 ADD PUSH2 0x1994 JUMP JUMPDEST PUSH1 0xFF NOT AND DUP6 DUP3 ADD MSTORE PUSH2 0x1952 SWAP6 ISZERO ISZERO PUSH1 0x5 SHL DUP6 ADD ADD SWAP3 POP DUP8 SWAP2 POP PUSH2 0x1945 SWAP1 POP JUMP JUMPDEST CALLVALUE PUSH2 0x3C0 JUMPI PUSH1 0x0 CALLDATASIZE PUSH1 0x3 NOT ADD SLT PUSH2 0x3C0 JUMPI PUSH1 0x40 MLOAD DUP1 PUSH1 0x17 SLOAD SWAP2 DUP3 DUP2 MSTORE PUSH1 0x20 DUP1 SWAP2 ADD SWAP3 PUSH1 0x17 PUSH1 0x0 MSTORE PUSH32 0xC624B66CC0138B8FABC209247F72D758E1CF3343756D543BADBF24212BED8C15 SWAP2 PUSH1 0x0 SWAP1 JUMPDEST DUP3 DUP3 LT PUSH2 0x1A53 JUMPI PUSH2 0x651 DUP6 PUSH2 0x1A47 DUP2 DUP10 SUB DUP3 PUSH2 0x3C1A JUMP JUMPDEST PUSH1 0x40 MLOAD SWAP2 DUP3 SWAP2 DUP3 PUSH2 0x3DB8 JUMP JUMPDEST DUP4 SLOAD PUSH1 0x1 PUSH1 0x1 PUSH1 0xA0 SHL SUB AND DUP7 MSTORE SWAP5 DUP6 ADD SWAP5 PUSH1 0x1 SWAP4 DUP5 ADD SWAP4 SWAP1 SWAP2 ADD SWAP1 PUSH2 0x1A30 JUMP JUMPDEST CALLVALUE PUSH2 0x3C0 JUMPI PUSH1 0x0 CALLDATASIZE PUSH1 0x3 NOT ADD SLT PUSH2 0x3C0 JUMPI PUSH1 0xA SLOAD PUSH1 0x40 MLOAD PUSH1 0x1 PUSH1 0x1 PUSH1 0xA0 SHL SUB SWAP1 SWAP2 AND DUP2 MSTORE PUSH1 0x20 SWAP1 RETURN JUMPDEST CALLVALUE PUSH2 0x3C0 JUMPI PUSH1 0x20 DUP1 PUSH1 0x3 NOT CALLDATASIZE ADD SLT PUSH2 0x3C0 JUMPI PUSH2 0x1AB6 PUSH2 0x3A38 JUMP JUMPDEST CALLER PUSH1 0x0 MSTORE PUSH1 0x16 DUP3 MSTORE PUSH1 0xFF PUSH1 0x40 PUSH1 0x0 KECCAK256 SLOAD AND DUP1 ISZERO PUSH2 0x1CBA JUMPI JUMPDEST PUSH2 0x1AD7 SWAP1 PUSH2 0x3EB0 JUMP JUMPDEST PUSH1 0x1 PUSH1 0x1 PUSH1 0xA0 SHL SUB SWAP1 DUP2 AND PUSH1 0x0 DUP2 DUP2 MSTORE PUSH1 0x15 DUP5 MSTORE PUSH1 0x40 SWAP1 KECCAK256 SLOAD SWAP1 SWAP3 SWAP1 PUSH1 0xFF AND ISZERO PUSH2 0x1C76 JUMPI DUP2 PUSH1 0xA SLOAD AND DUP4 EQ PUSH2 0x1C27 JUMPI PUSH1 0x15 SWAP1 DUP4 PUSH1 0x0 MSTORE MSTORE PUSH1 0x40 PUSH1 0x0 KECCAK256 PUSH1 0xFF NOT DUP2 SLOAD AND SWAP1 SSTORE PUSH1 0x0 SWAP1 JUMPDEST PUSH1 0x18 SWAP2 DUP3 SLOAD DUP1 DUP3 LT ISZERO PUSH2 0x1C1E JUMPI DUP3 SWAP1 DUP6 PUSH2 0x1B38 DUP5 PUSH2 0x3D2D JUMP JUMPDEST SWAP4 SWAP1 SLOAD PUSH1 0x3 SWAP5 DUP6 SHL SHR AND EQ PUSH2 0x1B53 JUMPI POP POP PUSH1 0x1 ADD SWAP2 POP PUSH2 0x1B1F JUMP JUMPDEST PUSH1 0x0 NOT SWAP4 SWAP2 SWAP3 SWAP2 DUP2 DUP6 ADD SWAP2 DUP3 GT PUSH2 0x1C08 JUMPI PUSH2 0x1B9E SWAP4 PUSH2 0x1B74 PUSH2 0x1B80 SWAP4 PUSH2 0x3D2D JUMP JUMPDEST SWAP1 SLOAD SWAP2 SHL SHR AND SWAP2 PUSH2 0x3D2D JUMP JUMPDEST SWAP1 SWAP2 SWAP1 PUSH1 0x1 DUP1 PUSH1 0xA0 SHL SUB DUP1 DUP5 SLOAD SWAP3 PUSH1 0x3 SHL SWAP4 AND DUP4 SHL SWAP3 SHL NOT AND OR SWAP1 SSTORE JUMP JUMPDEST DUP2 SLOAD DUP1 ISZERO PUSH2 0x1BF2 JUMPI ADD SWAP1 PUSH2 0x1BC9 PUSH2 0x1BB4 DUP4 PUSH2 0x3D2D JUMP JUMPDEST DUP2 SLOAD SWAP1 PUSH1 0x1 DUP1 PUSH1 0xA0 SHL SUB SWAP1 PUSH1 0x3 SHL SHL NOT AND SWAP1 SSTORE JUMP JUMPDEST SSTORE JUMPDEST PUSH32 0x535611FB62FA2A833988F283B779E417E996813E44046F521D76C17B5943B08C PUSH1 0x0 DUP1 LOG2 STOP JUMPDEST PUSH4 0x4E487B71 PUSH1 0xE0 SHL PUSH1 0x0 MSTORE PUSH1 0x31 PUSH1 0x4 MSTORE PUSH1 0x24 PUSH1 0x0 REVERT JUMPDEST PUSH4 0x4E487B71 PUSH1 0xE0 SHL PUSH1 0x0 MSTORE PUSH1 0x11 PUSH1 0x4 MSTORE PUSH1 0x24 PUSH1 0x0 REVERT JUMPDEST POP POP POP POP PUSH2 0x1BCB JUMP JUMPDEST PUSH1 0x84 SWAP1 PUSH1 0x40 MLOAD SWAP1 PUSH3 0x461BCD PUSH1 0xE5 SHL DUP3 MSTORE PUSH1 0x4 DUP3 ADD MSTORE PUSH1 0x22 PUSH1 0x24 DUP3 ADD MSTORE PUSH32 0x43616E6E6F742072656D6F7665206F776E65722066726F6D2077686974656C69 PUSH1 0x44 DUP3 ADD MSTORE PUSH2 0x1CDD PUSH1 0xF2 SHL PUSH1 0x64 DUP3 ADD MSTORE REVERT JUMPDEST PUSH1 0x64 SWAP1 PUSH1 0x40 MLOAD SWAP1 PUSH3 0x461BCD PUSH1 0xE5 SHL DUP3 MSTORE PUSH1 0x4 DUP3 ADD MSTORE PUSH1 0x17 PUSH1 0x24 DUP3 ADD MSTORE PUSH32 0x41646472657373206E6F742077686974656C6973746564000000000000000000 PUSH1 0x44 DUP3 ADD MSTORE REVERT JUMPDEST POP PUSH1 0xA SLOAD PUSH1 0x1 PUSH1 0x1 PUSH1 0xA0 SHL SUB AND CALLER EQ PUSH2 0x1ACE JUMP JUMPDEST CALLVALUE PUSH2 0x3C0 JUMPI PUSH1 0x0 CALLDATASIZE PUSH1 0x3 NOT ADD SLT PUSH2 0x3C0 JUMPI PUSH2 0x1CE7 PUSH2 0x4CA7 JUMP JUMPDEST PUSH2 0x1CEF PUSH2 0x4CD3 JUMP JUMPDEST PUSH1 0x1 PUSH1 0xFF NOT PUSH1 0xC SLOAD AND OR PUSH1 0xC SSTORE PUSH32 0x62E78CEA01BEE320CD4E420270B5EA74000D11B0C9F74754EBDBFC544B05A258 PUSH1 0x20 PUSH1 0x40 MLOAD CALLER DUP2 MSTORE LOG1 STOP JUMPDEST CALLVALUE PUSH2 0x3C0 JUMPI PUSH1 0x0 CALLDATASIZE PUSH1 0x3 NOT ADD SLT PUSH2 0x3C0 JUMPI PUSH1 0x20 PUSH1 0x12 SLOAD PUSH1 0x40 MLOAD SWAP1 DUP2 MSTORE RETURN JUMPDEST CALLVALUE PUSH2 0x3C0 JUMPI PUSH1 0x0 CALLDATASIZE PUSH1 0x3 NOT ADD SLT PUSH2 0x3C0 JUMPI CALLER PUSH1 0x0 MSTORE PUSH1 0x16 PUSH1 0x20 MSTORE PUSH1 0xFF PUSH1 0x40 PUSH1 0x0 KECCAK256 SLOAD AND DUP1 ISZERO PUSH2 0x1DBD JUMPI JUMPDEST PUSH2 0x1D79 SWAP1 PUSH2 0x3EB0 JUMP JUMPDEST PUSH1 0x13 SLOAD PUSH1 0xFF DUP1 DUP3 AND ISZERO AND DUP1 SWAP2 PUSH1 0xFF NOT AND OR PUSH1 0x13 SSTORE PUSH1 0x40 MLOAD SWAP1 ISZERO ISZERO DUP2 MSTORE PUSH32 0x5F2930093A8ED3D18A75EC1318AA404A4CB74A9D542350560A7709642F444B58 PUSH1 0x20 CALLER SWAP3 LOG2 STOP JUMPDEST POP PUSH1 0xA SLOAD PUSH1 0x1 PUSH1 0x1 PUSH1 0xA0 SHL SUB AND CALLER EQ PUSH2 0x1D70 JUMP JUMPDEST CALLVALUE PUSH2 0x3C0 JUMPI PUSH1 0x0 CALLDATASIZE PUSH1 0x3 NOT ADD SLT PUSH2 0x3C0 JUMPI PUSH2 0x1DEA PUSH2 0x4CA7 JUMP JUMPDEST PUSH1 0xA DUP1 SLOAD PUSH1 0x1 PUSH1 0x1 PUSH1 0xA0 SHL SUB NOT DUP2 AND SWAP1 SWAP2 SSTORE PUSH1 0x0 SWAP1 PUSH1 0x1 PUSH1 0x1 PUSH1 0xA0 SHL SUB AND PUSH32 0x8BE0079C531659141344CD1FD0A4F28419497F9722A3DAAFE3B4186F6B6457E0 DUP3 DUP1 LOG3 STOP JUMPDEST CALLVALUE PUSH2 0x3C0 JUMPI PUSH1 0x20 CALLDATASIZE PUSH1 0x3 NOT ADD SLT PUSH2 0x3C0 JUMPI PUSH1 0x20 PUSH2 0x1E51 PUSH2 0x1E4C PUSH2 0x3A38 JUMP JUMPDEST PUSH2 0x42C5 JUMP JUMPDEST PUSH1 0x40 MLOAD SWAP1 DUP2 MSTORE RETURN JUMPDEST CALLVALUE PUSH2 0x3C0 JUMPI PUSH1 0x20 DUP1 PUSH1 0x3 NOT CALLDATASIZE ADD SLT PUSH2 0x3C0 JUMPI PUSH2 0x1E73 PUSH2 0x3A38 JUMP JUMPDEST SWAP1 CALLER PUSH1 0x0 MSTORE PUSH1 0x16 DUP2 MSTORE PUSH1 0xFF PUSH1 0x40 PUSH1 0x0 KECCAK256 SLOAD AND DUP1 ISZERO PUSH2 0x1FC5 JUMPI JUMPDEST PUSH2 0x1E95 SWAP1 PUSH2 0x3EB0 JUMP JUMPDEST PUSH1 0x1 PUSH1 0x1 PUSH1 0xA0 SHL SUB DUP3 AND PUSH1 0x0 DUP2 DUP2 MSTORE PUSH1 0x16 DUP4 MSTORE PUSH1 0x40 SWAP1 KECCAK256 SLOAD SWAP1 SWAP3 SWAP1 PUSH1 0xFF AND PUSH2 0x1F8D JUMPI DUP3 ISZERO PUSH2 0x1F56 JUMPI DUP3 PUSH1 0x0 MSTORE PUSH1 0x16 DUP3 MSTORE PUSH1 0x40 PUSH1 0x0 KECCAK256 SWAP2 PUSH1 0xFF NOT SWAP3 PUSH1 0x1 DUP5 DUP3 SLOAD AND OR SWAP1 SSTORE PUSH1 0x19 SLOAD SWAP1 PUSH1 0x1 PUSH1 0x40 SHL DUP3 LT ISZERO PUSH2 0xBEE JUMPI PUSH2 0x1EFE DUP4 PUSH2 0x1B80 DUP5 PUSH1 0x1 PUSH1 0x15 SWAP7 ADD PUSH1 0x19 SSTORE PUSH2 0x3CBF JUMP JUMPDEST DUP5 PUSH1 0x0 MSTORE MSTORE PUSH1 0x40 PUSH1 0x0 KECCAK256 DUP1 SLOAD PUSH1 0xFF DUP2 AND ISZERO PUSH2 0x1F3D JUMPI JUMPDEST CALLER DUP6 PUSH32 0xBF3F493C772C8C283FD124432C2D0F539AB343FAA04258FE88E52912D36B102B PUSH1 0x0 DUP1 LOG3 STOP JUMPDEST PUSH2 0x1F4D SWAP4 PUSH1 0x1 SWAP2 AND OR SWAP1 SSTORE PUSH2 0x42A2 JUMP JUMPDEST DUP2 DUP1 DUP1 DUP1 PUSH2 0x1F14 JUMP JUMPDEST PUSH1 0x40 MLOAD PUSH3 0x461BCD PUSH1 0xE5 SHL DUP2 MSTORE PUSH1 0x4 DUP2 ADD DUP4 SWAP1 MSTORE PUSH1 0xF PUSH1 0x24 DUP3 ADD MSTORE PUSH15 0x496E76616C69642061646472657373 PUSH1 0x88 SHL PUSH1 0x44 DUP3 ADD MSTORE PUSH1 0x64 SWAP1 REVERT JUMPDEST PUSH1 0x40 MLOAD PUSH3 0x461BCD PUSH1 0xE5 SHL DUP2 MSTORE PUSH1 0x4 DUP2 ADD DUP4 SWAP1 MSTORE PUSH1 0x10 PUSH1 0x24 DUP3 ADD MSTORE PUSH16 0x20B63932B0B23C9030B71030B236B4B7 PUSH1 0x81 SHL PUSH1 0x44 DUP3 ADD MSTORE PUSH1 0x64 SWAP1 REVERT JUMPDEST POP PUSH1 0xA SLOAD PUSH1 0x1 PUSH1 0x1 PUSH1 0xA0 SHL SUB AND CALLER EQ PUSH2 0x1E8C JUMP JUMPDEST CALLVALUE PUSH2 0x3C0 JUMPI PUSH1 0x20 CALLDATASIZE PUSH1 0x3 NOT ADD SLT PUSH2 0x3C0 JUMPI PUSH1 0x4 CALLDATALOAD PUSH1 0x19 SLOAD DUP2 LT ISZERO PUSH2 0x3C0 JUMPI PUSH2 0x2002 PUSH1 0x20 SWAP2 PUSH2 0x3CBF JUMP JUMPDEST SWAP1 SLOAD PUSH1 0x40 MLOAD PUSH1 0x3 SWAP3 SWAP1 SWAP3 SHL SHR PUSH1 0x1 PUSH1 0x1 PUSH1 0xA0 SHL SUB AND DUP2 MSTORE RETURN JUMPDEST CALLVALUE PUSH2 0x3C0 JUMPI PUSH1 0x0 CALLDATASIZE PUSH1 0x3 NOT ADD SLT PUSH2 0x3C0 JUMPI PUSH1 0x40 MLOAD DUP1 PUSH1 0x18 SLOAD SWAP2 DUP3 DUP2 MSTORE PUSH1 0x20 DUP1 SWAP2 ADD SWAP3 PUSH1 0x18 PUSH1 0x0 MSTORE PUSH32 0xB13D2D76D1F4B7BE834882E410B3E3A8AFAF69F83600AE24DB354391D2378D2E SWAP2 PUSH1 0x0 SWAP1 JUMPDEST DUP3 DUP3 LT PUSH2 0x207F JUMPI PUSH2 0x651 DUP6 PUSH2 0x1A47 DUP2 DUP10 SUB DUP3 PUSH2 0x3C1A JUMP JUMPDEST DUP4 SLOAD PUSH1 0x1 PUSH1 0x1 PUSH1 0xA0 SHL SUB AND DUP7 MSTORE SWAP5 DUP6 ADD SWAP5 PUSH1 0x1 SWAP4 DUP5 ADD SWAP4 SWAP1 SWAP2 ADD SWAP1 PUSH2 0x2068 JUMP JUMPDEST CALLVALUE PUSH2 0x3C0 JUMPI PUSH1 0x40 CALLDATASIZE PUSH1 0x3 NOT ADD SLT PUSH2 0x3C0 JUMPI PUSH2 0x20B8 PUSH2 0x3A38 JUMP JUMPDEST PUSH1 0x1 PUSH1 0x1 PUSH1 0xA0 SHL SUB AND PUSH1 0x0 SWAP1 DUP2 MSTORE PUSH1 0x1E PUSH1 0x20 MSTORE PUSH1 0x40 SWAP1 KECCAK256 DUP1 SLOAD PUSH1 0x24 CALLDATALOAD SWAP2 SWAP1 DUP3 LT ISZERO PUSH2 0x3C0 JUMPI PUSH1 0x20 SWAP2 PUSH2 0x20E9 SWAP2 PUSH2 0x3D64 JUMP JUMPDEST SWAP1 SLOAD PUSH1 0x40 MLOAD SWAP2 PUSH1 0x3 SHL SHR DUP2 MSTORE RETURN JUMPDEST CALLVALUE PUSH2 0x3C0 JUMPI PUSH1 0x20 CALLDATASIZE PUSH1 0x3 NOT ADD SLT PUSH2 0x3C0 JUMPI PUSH1 0x4 CALLDATALOAD PUSH1 0x0 MSTORE PUSH1 0x1C PUSH1 0x20 MSTORE PUSH1 0x80 PUSH1 0x40 PUSH1 0x0 KECCAK256 DUP1 SLOAD SWAP1 PUSH1 0x1 DUP2 ADD SLOAD SWAP1 PUSH1 0x3 PUSH1 0x1 DUP1 PUSH1 0xA0 SHL SUB PUSH1 0x2 DUP4 ADD SLOAD AND SWAP2 ADD SLOAD SWAP2 PUSH1 0x40 MLOAD SWAP4 DUP5 MSTORE PUSH1 0x20 DUP5 ADD MSTORE PUSH1 0x40 DUP4 ADD MSTORE PUSH1 0x60 DUP3 ADD MSTORE RETURN JUMPDEST CALLVALUE PUSH2 0x3C0 JUMPI PUSH1 0x20 CALLDATASIZE PUSH1 0x3 NOT ADD SLT PUSH2 0x3C0 JUMPI PUSH2 0x2166 PUSH2 0x3A38 JUMP JUMPDEST PUSH2 0x216E PUSH2 0x4CA7 JUMP JUMPDEST PUSH1 0x1 PUSH1 0x1 PUSH1 0xA0 SHL SUB AND DUP1 ISZERO PUSH2 0x2195 JUMPI PUSH1 0x1 PUSH1 0x1 PUSH1 0x60 SHL SUB PUSH1 0xA0 SHL PUSH1 0x10 SLOAD AND OR PUSH1 0x10 SSTORE PUSH1 0x0 DUP1 RETURN JUMPDEST PUSH1 0x40 MLOAD PUSH3 0x461BCD PUSH1 0xE5 SHL DUP2 MSTORE PUSH1 0x20 PUSH1 0x4 DUP3 ADD MSTORE PUSH1 0x1F PUSH1 0x24 DUP3 ADD MSTORE PUSH32 0x547265617375727920616464726573732063616E6E6F74206265207A65726F00 PUSH1 0x44 DUP3 ADD MSTORE PUSH1 0x64 SWAP1 REVERT JUMPDEST CALLVALUE PUSH2 0x3C0 JUMPI PUSH1 0x0 CALLDATASIZE PUSH1 0x3 NOT ADD SLT PUSH2 0x3C0 JUMPI PUSH1 0x40 MLOAD DUP1 PUSH1 0x19 SLOAD SWAP2 DUP3 DUP2 MSTORE PUSH1 0x20 DUP1 SWAP2 ADD SWAP3 PUSH1 0x19 PUSH1 0x0 MSTORE PUSH32 0x944998273E477B495144FB8794C914197F3CCB46BE2900F4698FD0EF743C9695 SWAP2 PUSH1 0x0 SWAP1 JUMPDEST DUP3 DUP3 LT PUSH2 0x223E JUMPI PUSH2 0x651 DUP6 PUSH2 0x1A47 DUP2 DUP10 SUB DUP3 PUSH2 0x3C1A JUMP JUMPDEST DUP4 SLOAD PUSH1 0x1 PUSH1 0x1 PUSH1 0xA0 SHL SUB AND DUP7 MSTORE SWAP5 DUP6 ADD SWAP5 PUSH1 0x1 SWAP4 DUP5 ADD SWAP4 SWAP1 SWAP2 ADD SWAP1 PUSH2 0x2227 JUMP JUMPDEST CALLVALUE PUSH2 0x3C0 JUMPI PUSH1 0x20 CALLDATASIZE PUSH1 0x3 NOT ADD SLT PUSH2 0x3C0 JUMPI PUSH1 0x4 CALLDATALOAD PUSH1 0x18 SLOAD DUP2 LT ISZERO PUSH2 0x3C0 JUMPI PUSH2 0x2002 PUSH1 0x20 SWAP2 PUSH2 0x3D2D JUMP JUMPDEST CALLVALUE PUSH2 0x3C0 JUMPI PUSH1 0x20 CALLDATASIZE PUSH1 0x3 NOT ADD SLT PUSH2 0x3C0 JUMPI PUSH1 0x20 PUSH2 0x22A5 PUSH1 0x4 CALLDATALOAD PUSH2 0x4C6C JUMP JUMPDEST PUSH1 0x40 MLOAD PUSH1 0x1 PUSH1 0x1 PUSH1 0xA0 SHL SUB SWAP1 SWAP2 AND DUP2 MSTORE RETURN JUMPDEST CALLVALUE PUSH2 0x3C0 JUMPI PUSH1 0x20 CALLDATASIZE PUSH1 0x3 NOT ADD SLT PUSH2 0x3C0 JUMPI PUSH1 0x1 PUSH1 0x1 PUSH1 0xA0 SHL SUB PUSH2 0x22D8 PUSH2 0x3A38 JUMP JUMPDEST AND PUSH1 0x0 MSTORE PUSH1 0x14 PUSH1 0x20 MSTORE PUSH1 0x20 PUSH1 0xFF PUSH1 0x40 PUSH1 0x0 KECCAK256 SLOAD AND PUSH1 0x40 MLOAD SWAP1 ISZERO ISZERO DUP2 MSTORE RETURN JUMPDEST CALLVALUE PUSH2 0x3C0 JUMPI PUSH1 0x0 CALLDATASIZE PUSH1 0x3 NOT ADD SLT PUSH2 0x3C0 JUMPI CALLER PUSH1 0x0 MSTORE PUSH1 0x14 PUSH1 0x20 MSTORE PUSH1 0xFF PUSH1 0x40 PUSH1 0x0 KECCAK256 SLOAD AND PUSH2 0x2417 JUMPI CALLER PUSH1 0x0 MSTORE PUSH1 0x15 PUSH1 0x20 MSTORE PUSH1 0xFF PUSH1 0x40 PUSH1 0x0 KECCAK256 SLOAD AND PUSH2 0x23DC JUMPI CALLER PUSH1 0x0 MSTORE PUSH1 0x14 PUSH1 0x20 MSTORE PUSH1 0x40 PUSH1 0x0 KECCAK256 PUSH1 0x1 PUSH1 0xFF NOT DUP3 SLOAD AND OR SWAP1 SSTORE PUSH1 0x17 SLOAD PUSH1 0x1 PUSH1 0x40 SHL DUP2 LT ISZERO PUSH2 0xBEE JUMPI PUSH1 0x1 DUP2 ADD DUP1 PUSH1 0x17 SSTORE DUP2 LT ISZERO PUSH2 0x23C6 JUMPI PUSH32 0xC624B66CC0138B8FABC209247F72D758E1CF3343756D543BADBF24212BED8C15 ADD CALLER PUSH1 0x1 PUSH1 0x1 PUSH1 0x60 SHL SUB PUSH1 0xA0 SHL DUP3 SLOAD AND OR SWAP1 SSTORE CALLER PUSH32 0xD01371A65BC20DA9AF65AAF8149474FD747E562E207A3687CF65A809766A205A PUSH1 0x0 DUP1 LOG2 STOP JUMPDEST PUSH4 0x4E487B71 PUSH1 0xE0 SHL PUSH1 0x0 MSTORE PUSH1 0x32 PUSH1 0x4 MSTORE PUSH1 0x24 PUSH1 0x0 REVERT JUMPDEST PUSH1 0x40 MLOAD PUSH3 0x461BCD PUSH1 0xE5 SHL DUP2 MSTORE PUSH1 0x20 PUSH1 0x4 DUP3 ADD MSTORE PUSH1 0x13 PUSH1 0x24 DUP3 ADD MSTORE PUSH19 0x105B1C9958591E481DDA1A5D195B1A5CDD1959 PUSH1 0x6A SHL PUSH1 0x44 DUP3 ADD MSTORE PUSH1 0x64 SWAP1 REVERT JUMPDEST PUSH1 0x40 MLOAD PUSH3 0x461BCD PUSH1 0xE5 SHL DUP2 MSTORE PUSH1 0x20 PUSH1 0x4 DUP3 ADD MSTORE PUSH1 0x1B PUSH1 0x24 DUP3 ADD MSTORE PUSH32 0x416C7265616479207265676973746572656420696E7465726573740000000000 PUSH1 0x44 DUP3 ADD MSTORE PUSH1 0x64 SWAP1 REVERT JUMPDEST CALLVALUE PUSH2 0x3C0 JUMPI PUSH1 0x0 CALLDATASIZE PUSH1 0x3 NOT ADD SLT PUSH2 0x3C0 JUMPI PUSH1 0x20 PUSH1 0xFF PUSH1 0xC SLOAD AND PUSH1 0x40 MLOAD SWAP1 ISZERO ISZERO DUP2 MSTORE RETURN JUMPDEST CALLVALUE PUSH2 0x3C0 JUMPI PUSH2 0x248D CALLDATASIZE PUSH2 0x3AAC JUMP JUMPDEST SWAP1 DUP1 PUSH1 0x0 MSTORE PUSH1 0x1B PUSH1 0x20 MSTORE PUSH2 0x24B2 PUSH1 0x1 DUP1 PUSH1 0xA0 SHL SUB PUSH1 0x1 PUSH1 0x40 PUSH1 0x0 KECCAK256 ADD SLOAD AND CALLER EQ PUSH2 0x3E5F JUMP JUMPDEST PUSH1 0x0 MSTORE PUSH1 0x1B PUSH1 0x20 MSTORE PUSH1 0x6 PUSH1 0x40 PUSH1 0x0 KECCAK256 ADD SSTORE PUSH1 0x0 DUP1 RETURN JUMPDEST CALLVALUE PUSH2 0x3C0 JUMPI PUSH1 0x0 CALLDATASIZE PUSH1 0x3 NOT ADD SLT PUSH2 0x3C0 JUMPI PUSH1 0x20 PUSH1 0x11 SLOAD PUSH1 0x40 MLOAD SWAP1 DUP2 MSTORE RETURN JUMPDEST CALLVALUE PUSH2 0x3C0 JUMPI PUSH1 0x0 CALLDATASIZE PUSH1 0x3 NOT ADD SLT PUSH2 0x3C0 JUMPI PUSH1 0x20 PUSH1 0xFF PUSH1 0x13 SLOAD AND PUSH1 0x40 MLOAD SWAP1 ISZERO ISZERO DUP2 MSTORE RETURN JUMPDEST CALLVALUE PUSH2 0x3C0 JUMPI PUSH1 0x40 CALLDATASIZE PUSH1 0x3 NOT ADD SLT PUSH2 0x3C0 JUMPI PUSH2 0x2522 PUSH2 0x3A38 JUMP JUMPDEST PUSH1 0x1 PUSH1 0x1 PUSH1 0xA0 SHL SUB AND PUSH1 0x0 SWAP1 DUP2 MSTORE PUSH1 0x1F PUSH1 0x20 MSTORE PUSH1 0x40 SWAP1 KECCAK256 DUP1 SLOAD PUSH1 0x24 CALLDATALOAD SWAP2 SWAP1 DUP3 LT ISZERO PUSH2 0x3C0 JUMPI PUSH1 0x20 SWAP2 PUSH2 0x20E9 SWAP2 PUSH2 0x3D64 JUMP JUMPDEST CALLVALUE PUSH2 0x3C0 JUMPI PUSH1 0x20 CALLDATASIZE PUSH1 0x3 NOT ADD SLT PUSH2 0x3C0 JUMPI PUSH1 0x4 CALLDATALOAD PUSH1 0x8 SLOAD DUP2 LT ISZERO PUSH2 0x257C JUMPI PUSH2 0x20E9 PUSH1 0x20 SWAP2 PUSH2 0x3CF6 JUMP JUMPDEST PUSH1 0x44 SWAP1 PUSH1 0x40 MLOAD SWAP1 PUSH4 0x295F44F7 PUSH1 0xE2 SHL DUP3 MSTORE PUSH1 0x0 PUSH1 0x4 DUP4 ADD MSTORE PUSH1 0x24 DUP3 ADD MSTORE REVERT JUMPDEST CALLVALUE PUSH2 0x3C0 JUMPI PUSH1 0x20 CALLDATASIZE PUSH1 0x3 NOT ADD SLT PUSH2 0x3C0 JUMPI PUSH1 0x1 PUSH1 0x1 PUSH1 0xA0 SHL SUB PUSH2 0x25BC PUSH2 0x3A38 JUMP JUMPDEST AND PUSH1 0x0 MSTORE PUSH1 0x16 PUSH1 0x20 MSTORE PUSH1 0x20 PUSH1 0xFF PUSH1 0x40 PUSH1 0x0 KECCAK256 SLOAD AND PUSH1 0x40 MLOAD SWAP1 ISZERO ISZERO DUP2 MSTORE RETURN JUMPDEST CALLVALUE PUSH2 0x3C0 JUMPI PUSH1 0x0 CALLDATASIZE PUSH1 0x3 NOT ADD SLT PUSH2 0x3C0 JUMPI PUSH1 0x20 PUSH1 0xE SLOAD PUSH1 0x40 MLOAD SWAP1 DUP2 MSTORE RETURN JUMPDEST CALLVALUE PUSH2 0x3C0 JUMPI PUSH1 0x20 DUP1 PUSH1 0x3 NOT CALLDATASIZE ADD SLT PUSH2 0x3C0 JUMPI PUSH1 0x4 CALLDATALOAD PUSH1 0x0 DUP2 DUP2 MSTORE PUSH1 0x2 DUP4 MSTORE PUSH1 0x40 SWAP1 KECCAK256 SLOAD PUSH1 0x1 PUSH1 0x1 PUSH1 0xA0 SHL SUB SWAP2 SWAP1 PUSH2 0x2632 SWAP1 DUP4 AND ISZERO ISZERO PUSH2 0x415E JUMP JUMPDEST PUSH1 0x0 MSTORE PUSH1 0x1C DUP3 MSTORE PUSH1 0x40 PUSH1 0x0 KECCAK256 SWAP1 PUSH1 0x40 MLOAD SWAP1 PUSH2 0x264C DUP3 PUSH2 0x3B92 JUMP JUMPDEST DUP3 SLOAD DUP3 MSTORE PUSH2 0x27AB PUSH1 0x1 DUP5 ADD SLOAD DUP6 DUP5 ADD SWAP1 DUP1 DUP3 MSTORE PUSH1 0x60 PUSH1 0x3 DUP6 PUSH1 0x2 DUP10 ADD SLOAD AND SWAP8 PUSH1 0x40 DUP9 ADD SWAP9 DUP10 MSTORE ADD SLOAD SWAP6 ADD SWAP5 DUP6 MSTORE PUSH1 0x0 MSTORE PUSH1 0x1B DUP7 MSTORE PUSH2 0x279D PUSH1 0x40 PUSH1 0x0 KECCAK256 SWAP2 PUSH2 0x278F PUSH1 0x40 MLOAD SWAP2 PUSH2 0x2699 DUP4 PUSH2 0x3BAD JUMP JUMPDEST DUP5 SLOAD DUP4 MSTORE DUP7 PUSH1 0x1 DUP7 ADD SLOAD AND DUP11 DUP5 ADD MSTORE PUSH1 0x40 MLOAD SWAP7 PUSH2 0x26C4 DUP9 PUSH2 0x26BD DUP2 PUSH1 0x2 DUP11 ADD PUSH2 0x3AFC JUMP JUMPDEST SUB DUP10 PUSH2 0x3C1A JUMP JUMPDEST PUSH1 0x40 DUP5 ADD SWAP8 DUP9 MSTORE PUSH1 0x40 MLOAD SWAP2 PUSH2 0x26E0 DUP4 PUSH2 0x147A DUP2 PUSH1 0x3 DUP12 ADD PUSH2 0x3AFC JUMP JUMPDEST PUSH1 0x60 DUP6 ADD SWAP3 DUP4 MSTORE PUSH1 0x40 MLOAD SWAP5 PUSH2 0x2703 DUP7 PUSH2 0x26FC DUP2 PUSH1 0x4 DUP13 ADD PUSH2 0x3AFC JUMP JUMPDEST SUB DUP8 PUSH2 0x3C1A JUMP JUMPDEST PUSH1 0x80 DUP2 ADD SWAP6 DUP7 MSTORE PUSH2 0x140 PUSH1 0xA PUSH1 0x40 MLOAD SWAP10 PUSH2 0x272B DUP12 PUSH2 0x2724 DUP2 PUSH1 0x5 DUP6 ADD PUSH2 0x3AFC JUMP JUMPDEST SUB DUP13 PUSH2 0x3C1A JUMP JUMPDEST DUP11 PUSH1 0xA0 DUP6 ADD MSTORE PUSH1 0x6 DUP2 ADD SLOAD PUSH1 0xC0 DUP6 ADD MSTORE PUSH1 0x7 DUP2 ADD SLOAD PUSH1 0xE0 DUP6 ADD MSTORE PUSH1 0x8 DUP2 ADD SLOAD PUSH2 0x100 DUP6 ADD MSTORE PUSH1 0xFF PUSH1 0x9 DUP3 ADD SLOAD AND ISZERO ISZERO PUSH2 0x120 DUP6 ADD MSTORE ADD SLOAD SWAP2 ADD MSTORE MLOAD SWAP10 MLOAD AND SWAP7 MLOAD SWAP1 MLOAD SWAP3 MLOAD MLOAD SWAP8 MLOAD SWAP7 PUSH1 0x40 MLOAD SWAP11 DUP12 SWAP11 DUP12 MSTORE DUP11 ADD MSTORE PUSH1 0xE0 PUSH1 0x40 DUP11 ADD MSTORE PUSH1 0xE0 DUP10 ADD SWAP1 PUSH2 0x3A87 JUMP JUMPDEST SWAP1 DUP8 DUP3 SUB PUSH1 0x60 DUP10 ADD MSTORE PUSH2 0x3A87 JUMP JUMPDEST SWAP1 DUP6 DUP3 SUB PUSH1 0x80 DUP8 ADD MSTORE PUSH2 0x3A87 JUMP JUMPDEST SWAP2 PUSH1 0xA0 DUP5 ADD MSTORE PUSH1 0xC0 DUP4 ADD MSTORE SUB SWAP1 RETURN JUMPDEST CALLVALUE PUSH2 0x3C0 JUMPI PUSH1 0x20 CALLDATASIZE PUSH1 0x3 NOT ADD SLT PUSH2 0x3C0 JUMPI PUSH1 0x4 CALLDATALOAD PUSH1 0x0 MSTORE PUSH1 0x1B PUSH1 0x20 MSTORE PUSH1 0x40 PUSH1 0x0 KECCAK256 DUP1 SLOAD SWAP1 PUSH1 0x1 DUP1 PUSH1 0xA0 SHL SUB PUSH1 0x1 DUP3 ADD SLOAD AND SWAP1 PUSH1 0x40 MLOAD PUSH2 0x2800 DUP2 PUSH2 0x1199 DUP2 PUSH1 0x2 DUP7 ADD PUSH2 0x3AFC JUMP JUMPDEST PUSH1 0x40 MLOAD SWAP2 PUSH2 0x2815 DUP4 PUSH2 0x147A DUP2 PUSH1 0x3 DUP6 ADD PUSH2 0x3AFC JUMP JUMPDEST PUSH1 0x40 MLOAD SWAP3 PUSH2 0x2831 DUP5 PUSH2 0x282A DUP2 PUSH1 0x4 DUP7 ADD PUSH2 0x3AFC JUMP JUMPDEST SUB DUP6 PUSH2 0x3C1A JUMP JUMPDEST PUSH1 0x40 MLOAD SWAP4 PUSH2 0x2846 DUP6 PUSH2 0x149D DUP2 PUSH1 0x5 DUP8 ADD PUSH2 0x3AFC JUMP JUMPDEST PUSH2 0x28BC PUSH1 0x6 DUP5 ADD SLOAD SWAP6 PUSH2 0x28AE PUSH1 0x7 DUP7 ADD SLOAD SWAP4 PUSH2 0x28A0 PUSH1 0x8 DUP9 ADD SLOAD SWAP7 PUSH2 0x2892 PUSH1 0xA PUSH1 0xFF PUSH1 0x9 DUP13 ADD SLOAD AND SWAP11 ADD SLOAD SWAP11 PUSH1 0x40 MLOAD SWAP15 DUP16 SWAP15 DUP16 SWAP1 PUSH2 0x160 SWAP3 DUP3 MSTORE PUSH1 0x20 DUP3 ADD MSTORE DUP2 PUSH1 0x40 DUP3 ADD MSTORE ADD SWAP1 PUSH2 0x3A87 JUMP JUMPDEST DUP13 DUP2 SUB PUSH1 0x60 DUP15 ADD MSTORE SWAP1 PUSH2 0x3A87 JUMP JUMPDEST SWAP1 DUP11 DUP3 SUB PUSH1 0x80 DUP13 ADD MSTORE PUSH2 0x3A87 JUMP JUMPDEST SWAP1 DUP9 DUP3 SUB PUSH1 0xA0 DUP11 ADD MSTORE PUSH2 0x3A87 JUMP JUMPDEST SWAP5 PUSH1 0xC0 DUP8 ADD MSTORE PUSH1 0xE0 DUP7 ADD MSTORE PUSH2 0x100 DUP6 ADD MSTORE ISZERO ISZERO PUSH2 0x120 DUP5 ADD MSTORE PUSH2 0x140 DUP4 ADD MSTORE SUB SWAP1 RETURN JUMPDEST CALLVALUE PUSH2 0x3C0 JUMPI PUSH1 0x20 DUP1 PUSH1 0x3 NOT CALLDATASIZE ADD SLT PUSH2 0x3C0 JUMPI PUSH1 0x4 CALLDATALOAD PUSH1 0x12 SLOAD DUP2 GT ISZERO DUP1 PUSH2 0x2961 JUMPI JUMPDEST PUSH2 0x2909 SWAP1 PUSH2 0x41F2 JUMP JUMPDEST PUSH1 0x0 MSTORE PUSH1 0x1D PUSH1 0x20 MSTORE PUSH1 0x40 PUSH1 0x0 KECCAK256 SWAP1 PUSH1 0x40 MLOAD SWAP1 DUP2 PUSH1 0x20 DUP5 SLOAD SWAP2 DUP3 DUP2 MSTORE ADD SWAP4 PUSH1 0x0 MSTORE PUSH1 0x20 PUSH1 0x0 KECCAK256 SWAP2 PUSH1 0x0 SWAP1 JUMPDEST DUP3 DUP3 LT PUSH2 0x294A JUMPI PUSH2 0x651 DUP6 PUSH2 0x645 DUP2 DUP10 SUB DUP3 PUSH2 0x3C1A JUMP JUMPDEST DUP4 SLOAD DUP7 MSTORE SWAP5 DUP6 ADD SWAP5 PUSH1 0x1 SWAP4 DUP5 ADD SWAP4 SWAP1 SWAP2 ADD SWAP1 PUSH2 0x2933 JUMP JUMPDEST POP DUP1 ISZERO ISZERO PUSH2 0x2900 JUMP JUMPDEST CALLVALUE PUSH2 0x3C0 JUMPI PUSH2 0x10E2 PUSH2 0x297B CALLDATASIZE PUSH2 0x3C8A JUMP JUMPDEST SWAP1 PUSH1 0x40 MLOAD SWAP3 PUSH2 0x2989 DUP5 PUSH2 0x3BC9 JUMP JUMPDEST PUSH1 0x0 DUP5 MSTORE PUSH2 0x4354 JUMP JUMPDEST CALLVALUE PUSH2 0x3C0 JUMPI PUSH1 0x0 CALLDATASIZE PUSH1 0x3 NOT ADD SLT PUSH2 0x3C0 JUMPI PUSH2 0x29AB PUSH2 0x4CA7 JUMP JUMPDEST PUSH1 0xC SLOAD PUSH1 0xFF DUP2 AND ISZERO PUSH2 0x29EA JUMPI PUSH1 0xFF NOT AND PUSH1 0xC SSTORE PUSH32 0x5DB9EE0A495BF2E6FF9C91A7834C1BA4FDD244A5E8AA4E537BD38AEAE4B073AA PUSH1 0x20 PUSH1 0x40 MLOAD CALLER DUP2 MSTORE LOG1 STOP JUMPDEST PUSH1 0x40 MLOAD PUSH4 0x8DFC202B PUSH1 0xE0 SHL DUP2 MSTORE PUSH1 0x4 SWAP1 REVERT JUMPDEST PUSH1 0x20 DUP1 PUSH1 0x3 NOT CALLDATASIZE ADD SLT PUSH2 0x3C0 JUMPI PUSH1 0x4 CALLDATALOAD PUSH2 0x2A14 PUSH2 0x4CD3 JUMP JUMPDEST PUSH2 0x2A1C PUSH2 0x4CF1 JUMP JUMPDEST PUSH1 0xFF PUSH1 0x13 SLOAD AND PUSH2 0x2F22 JUMPI JUMPDEST PUSH1 0x12 SLOAD DUP2 GT ISZERO DUP1 PUSH2 0x2F19 JUMPI JUMPDEST PUSH2 0x2A3C SWAP1 PUSH2 0x41F2 JUMP JUMPDEST DUP1 PUSH1 0x0 MSTORE PUSH1 0x1B DUP3 MSTORE PUSH1 0x40 PUSH1 0x0 KECCAK256 PUSH1 0xFF PUSH1 0x9 DUP3 ADD SLOAD AND ISZERO PUSH2 0x2EDD JUMPI PUSH1 0x8 DUP2 ADD SWAP2 DUP3 SLOAD PUSH1 0x7 DUP4 ADD SLOAD GT ISZERO PUSH2 0x2EA6 JUMPI PUSH1 0x6 DUP3 ADD SWAP2 DUP3 SLOAD DUP1 CALLVALUE LT PUSH2 0x2E6A JUMPI PUSH2 0x2710 PUSH2 0x2A85 PUSH1 0xD SLOAD DUP4 PUSH2 0x41A1 JUMP JUMPDEST DIV SWAP5 PUSH2 0x2A91 DUP7 DUP4 PUSH2 0x3EEB JUMP JUMPDEST SWAP2 PUSH2 0x2A9D PUSH1 0x11 SLOAD PUSH2 0x4232 JUMP JUMPDEST SWAP7 DUP8 PUSH1 0x11 SSTORE CALLER ISZERO PUSH2 0x2E51 JUMPI PUSH1 0x0 DUP9 DUP2 MSTORE PUSH1 0x2 DUP11 MSTORE PUSH1 0x40 SWAP1 KECCAK256 SLOAD PUSH1 0x1 PUSH1 0x1 PUSH1 0xA0 SHL SUB SWAP5 SWAP1 DUP6 AND DUP1 ISZERO SWAP5 SWAP1 DUP6 ISZERO SWAP1 DUP2 PUSH2 0x2E1E JUMPI JUMPDEST CALLER PUSH1 0x0 MSTORE PUSH1 0x3 DUP14 MSTORE PUSH1 0x40 PUSH1 0x0 KECCAK256 PUSH1 0x1 DUP2 SLOAD ADD SWAP1 SSTORE DUP12 PUSH1 0x0 MSTORE PUSH1 0x2 DUP14 MSTORE DUP12 DUP14 PUSH1 0x40 PUSH1 0x0 KECCAK256 SWAP9 PUSH1 0x1 PUSH1 0x1 PUSH1 0x60 SHL SUB PUSH1 0xA0 SHL SWAP10 CALLER DUP12 DUP3 SLOAD AND OR SWAP1 SSTORE DUP3 CALLER DUP6 PUSH32 0xDDF252AD1BE2C89B69C2B068FC378DAA952BA7F163C4A11628F55A4DF523B3EF PUSH1 0x0 DUP1 LOG4 ISZERO PUSH2 0x2D9C JUMPI PUSH1 0x9 SWAP1 PUSH1 0x8 SLOAD SWAP3 PUSH1 0x0 MSTORE MSTORE PUSH1 0x40 PUSH1 0x0 KECCAK256 SSTORE PUSH2 0x2B4E DUP13 PUSH2 0x4241 JUMP JUMPDEST CALLER SUB PUSH2 0x2D5A JUMPI JUMPDEST PUSH2 0x2D41 JUMPI DUP11 PUSH1 0x3 DUP12 PUSH1 0x1 DUP2 SWAP11 ADD SWAP8 DUP10 DUP10 SLOAD AND SWAP1 DUP13 PUSH1 0x1C PUSH1 0x40 MLOAD SWAP7 PUSH2 0x2B78 DUP9 PUSH2 0x3B92 JUMP JUMPDEST DUP6 DUP9 MSTORE DUP1 DUP9 ADD SWAP3 DUP4 MSTORE PUSH1 0x40 DUP9 ADD SWAP5 DUP6 MSTORE PUSH1 0x60 DUP9 ADD SWAP6 TIMESTAMP DUP8 MSTORE PUSH1 0x0 MSTORE MSTORE PUSH1 0x40 PUSH1 0x0 KECCAK256 SWAP6 MLOAD DUP7 SSTORE MLOAD PUSH1 0x1 DUP7 ADD SSTORE DUP11 PUSH1 0x2 DUP7 ADD SWAP3 MLOAD AND SWAP1 DUP3 SLOAD AND OR SWAP1 SSTORE MLOAD SWAP2 ADD SSTORE PUSH2 0x2BC0 DUP2 SLOAD PUSH2 0x4232 JUMP JUMPDEST SWAP1 SSTORE DUP7 PUSH1 0x0 MSTORE PUSH1 0x1D DUP11 MSTORE PUSH2 0x2BD8 DUP7 PUSH1 0x40 PUSH1 0x0 KECCAK256 PUSH2 0x427F JUMP JUMPDEST CALLER PUSH1 0x0 MSTORE PUSH1 0x1F DUP11 MSTORE PUSH2 0x2BEE DUP7 PUSH1 0x40 PUSH1 0x0 KECCAK256 PUSH2 0x427F JUMP JUMPDEST CALLER PUSH1 0x0 MSTORE PUSH1 0x1A DUP11 MSTORE PUSH1 0x4 PUSH1 0x40 PUSH1 0x0 KECCAK256 PUSH1 0x5 DUP2 ADD DUP1 SLOAD PUSH1 0xFF DUP2 AND ISZERO PUSH2 0x2D24 JUMPI JUMPDEST POP POP ADD PUSH2 0x2C1A DUP2 SLOAD PUSH2 0x4232 JUMP JUMPDEST SWAP1 SSTORE DUP1 ISZERO DUP1 ISZERO PUSH2 0x2CF6 JUMPI JUMPDEST POP POP DUP1 ISZERO DUP1 ISZERO PUSH2 0x2CC7 JUMPI JUMPDEST POP POP DUP1 CALLVALUE GT PUSH2 0x2C88 JUMPI JUMPDEST POP SLOAD SWAP4 SLOAD PUSH1 0x40 DUP1 MLOAD SWAP3 SWAP1 SWAP6 AND PUSH1 0x1 PUSH1 0x1 PUSH1 0xA0 SHL SUB AND DUP3 MSTORE PUSH1 0x20 DUP3 ADD MSTORE CALLER SWAP4 PUSH32 0x7B238A56A5F8DF7AFF12A10BBCB3A1CCC190C62531D3850884533F05551E1DD9 SWAP2 LOG4 PUSH1 0x1 PUSH1 0xB SSTORE PUSH1 0x40 MLOAD SWAP1 DUP2 MSTORE RETURN JUMPDEST PUSH1 0x0 DUP1 DUP1 SWAP4 SWAP6 POP PUSH2 0x2C9A DUP2 SWAP4 CALLVALUE PUSH2 0x3EEB JUMP JUMPDEST DUP2 DUP2 ISZERO PUSH2 0x2CBE JUMPI JUMPDEST CALLER SWAP1 CALL ISZERO PUSH2 0x2CB2 JUMPI DUP5 SWAP2 DUP8 PUSH2 0x2C3A JUMP JUMPDEST PUSH1 0x40 MLOAD RETURNDATASIZE PUSH1 0x0 DUP3 RETURNDATACOPY RETURNDATASIZE SWAP1 REVERT JUMPDEST POP PUSH2 0x8FC PUSH2 0x2CA2 JUMP JUMPDEST PUSH1 0x0 DUP1 SWAP4 SWAP7 POP DUP1 SWAP3 DUP2 SWAP3 DUP8 PUSH1 0x10 SLOAD AND SWAP1 DUP4 SWAP1 PUSH2 0x2CED JUMPI JUMPDEST CALL ISZERO PUSH2 0x2CB2 JUMPI DUP6 SWAP3 DUP9 DUP1 PUSH2 0x2C30 JUMP JUMPDEST POP PUSH2 0x8FC PUSH2 0x2CDE JUMP JUMPDEST PUSH1 0x0 DUP1 SWAP4 SWAP8 POP DUP1 SWAP3 DUP2 SWAP3 DUP9 DUP9 SLOAD AND SWAP1 DUP4 SWAP1 PUSH2 0x2D1B JUMPI JUMPDEST CALL ISZERO PUSH2 0x2CB2 JUMPI DUP7 SWAP4 DUP10 DUP1 PUSH2 0x2C25 JUMP JUMPDEST POP PUSH2 0x8FC PUSH2 0x2D0C JUMP JUMPDEST PUSH1 0xFF NOT AND PUSH1 0x1 OR SWAP1 SSTORE PUSH1 0x0 PUSH1 0x3 DUP3 ADD DUP2 SWAP1 SSTORE DUP3 DUP3 ADD SSTORE DUP13 DUP1 PUSH2 0x2C0D JUMP JUMPDEST PUSH1 0x40 MLOAD PUSH4 0x39E35637 PUSH1 0xE1 SHL DUP2 MSTORE PUSH1 0x0 PUSH1 0x4 DUP3 ADD MSTORE PUSH1 0x24 SWAP1 REVERT JUMPDEST PUSH2 0x2D63 CALLER PUSH2 0x42C5 JUMP JUMPDEST PUSH1 0x0 NOT DUP2 ADD SWAP1 DUP2 GT PUSH2 0x1C08 JUMPI CALLER PUSH1 0x0 MSTORE PUSH1 0x6 DUP14 MSTORE PUSH1 0x40 PUSH1 0x0 KECCAK256 DUP2 PUSH1 0x0 MSTORE DUP14 MSTORE DUP12 PUSH1 0x40 PUSH1 0x0 KECCAK256 SSTORE DUP12 PUSH1 0x0 MSTORE PUSH1 0x7 DUP14 MSTORE PUSH1 0x40 PUSH1 0x0 KECCAK256 SSTORE PUSH2 0x2B55 JUMP JUMPDEST POP POP CALLER DUP2 EQ PUSH2 0x2B4E JUMPI DUP12 DUP14 PUSH1 0x7 PUSH2 0x2DB2 DUP5 PUSH2 0x42C5 JUMP JUMPDEST SWAP2 DUP4 PUSH1 0x0 MSTORE DUP2 DUP2 MSTORE PUSH1 0x40 PUSH1 0x0 KECCAK256 SLOAD SWAP4 DUP6 PUSH1 0x0 MSTORE PUSH1 0x6 DUP3 MSTORE PUSH1 0x40 PUSH1 0x0 KECCAK256 SWAP5 DUP5 DUP2 SUB PUSH2 0x2DF4 JUMPI JUMPDEST POP PUSH1 0x0 MSTORE MSTORE PUSH1 0x0 PUSH1 0x40 DUP2 KECCAK256 SSTORE PUSH1 0x0 MSTORE DUP14 MSTORE PUSH1 0x0 PUSH1 0x40 DUP2 KECCAK256 SSTORE PUSH2 0x2B4E JUMP JUMPDEST DUP5 PUSH1 0x0 MSTORE DUP6 DUP4 MSTORE PUSH1 0x40 PUSH1 0x0 KECCAK256 SLOAD DUP2 PUSH1 0x0 MSTORE DUP1 PUSH1 0x40 PUSH1 0x0 KECCAK256 SSTORE PUSH1 0x0 MSTORE DUP4 DUP4 MSTORE PUSH1 0x40 PUSH1 0x0 KECCAK256 SSTORE CODESIZE PUSH2 0x2DD7 JUMP JUMPDEST PUSH1 0x0 DUP13 DUP2 MSTORE PUSH1 0x4 PUSH1 0x20 MSTORE PUSH1 0x40 DUP1 DUP3 KECCAK256 DUP1 SLOAD PUSH1 0x1 PUSH1 0x1 PUSH1 0xA0 SHL SUB NOT AND SWAP1 SSTORE DUP3 DUP3 MSTORE PUSH1 0x3 DUP16 MSTORE SWAP1 KECCAK256 DUP1 SLOAD PUSH1 0x0 NOT ADD SWAP1 SSTORE PUSH2 0x2ACF JUMP JUMPDEST PUSH1 0x40 MLOAD PUSH4 0x32505749 PUSH1 0xE1 SHL DUP2 MSTORE PUSH1 0x0 PUSH1 0x4 DUP3 ADD MSTORE PUSH1 0x24 SWAP1 REVERT JUMPDEST PUSH1 0x40 MLOAD PUSH3 0x461BCD PUSH1 0xE5 SHL DUP2 MSTORE PUSH1 0x4 DUP2 ADD DUP8 SWAP1 MSTORE PUSH1 0x14 PUSH1 0x24 DUP3 ADD MSTORE PUSH20 0x125B9CDD59999A58DA595B9D081C185E5B595B9D PUSH1 0x62 SHL PUSH1 0x44 DUP3 ADD MSTORE PUSH1 0x64 SWAP1 REVERT JUMPDEST PUSH1 0x40 MLOAD PUSH3 0x461BCD PUSH1 0xE5 SHL DUP2 MSTORE PUSH1 0x4 DUP2 ADD DUP6 SWAP1 MSTORE PUSH1 0xF PUSH1 0x24 DUP3 ADD MSTORE PUSH15 0x14D95C9A595CC81CDBDB19081BDD5D PUSH1 0x8A SHL PUSH1 0x44 DUP3 ADD MSTORE PUSH1 0x64 SWAP1 REVERT JUMPDEST PUSH1 0x40 MLOAD PUSH3 0x461BCD PUSH1 0xE5 SHL DUP2 MSTORE PUSH1 0x4 DUP2 ADD DUP5 SWAP1 MSTORE PUSH1 0x14 PUSH1 0x24 DUP3 ADD MSTORE PUSH20 0x536572696573206973206E6F7420616374697665 PUSH1 0x60 SHL PUSH1 0x44 DUP3 ADD MSTORE PUSH1 0x64 SWAP1 REVERT JUMPDEST POP DUP1 ISZERO ISZERO PUSH2 0x2A33 JUMP JUMPDEST CALLER PUSH1 0x0 MSTORE PUSH1 0x15 DUP3 MSTORE PUSH1 0xFF PUSH1 0x40 PUSH1 0x0 KECCAK256 SLOAD AND DUP1 ISZERO PUSH2 0x2F48 JUMPI JUMPDEST PUSH2 0x2F43 SWAP1 PUSH2 0x41B4 JUMP JUMPDEST PUSH2 0x2A27 JUMP JUMPDEST POP PUSH1 0xA SLOAD PUSH1 0x1 PUSH1 0x1 PUSH1 0xA0 SHL SUB AND CALLER EQ PUSH2 0x2F3A JUMP JUMPDEST CALLVALUE PUSH2 0x3C0 JUMPI PUSH1 0x20 DUP1 PUSH1 0x3 NOT CALLDATASIZE ADD SLT PUSH2 0x3C0 JUMPI PUSH1 0x4 CALLDATALOAD PUSH1 0x0 DUP2 DUP2 MSTORE PUSH1 0x2 DUP4 MSTORE PUSH1 0x40 SWAP1 KECCAK256 SLOAD PUSH2 0x30B9 SWAP3 PUSH1 0x1 PUSH1 0x1 PUSH1 0xA0 SHL SUB SWAP3 PUSH2 0x651 SWAP3 PUSH2 0x2F9D SWAP1 DUP6 AND ISZERO ISZERO PUSH2 0x415E JUMP JUMPDEST PUSH1 0x0 MSTORE PUSH1 0x1C DUP2 MSTORE PUSH1 0x40 PUSH1 0x0 KECCAK256 PUSH1 0x40 MLOAD PUSH2 0x2FB5 DUP2 PUSH2 0x3B92 JUMP JUMPDEST DUP2 SLOAD DUP2 MSTORE PUSH1 0x60 PUSH1 0x3 PUSH1 0x1 DUP5 ADD SLOAD SWAP4 DUP5 DUP7 DUP6 ADD MSTORE DUP8 PUSH1 0x2 DUP3 ADD SLOAD AND PUSH1 0x40 DUP6 ADD MSTORE ADD SLOAD SWAP2 ADD MSTORE PUSH1 0x0 MSTORE PUSH1 0x1B DUP2 MSTORE PUSH1 0x40 PUSH1 0x0 KECCAK256 SWAP3 PUSH1 0x40 MLOAD SWAP1 PUSH2 0x2FF3 DUP3 PUSH2 0x3BAD JUMP JUMPDEST DUP5 SLOAD DUP3 MSTORE PUSH1 0x1 DUP6 ADD SLOAD AND DUP3 DUP3 ADD MSTORE PUSH1 0x40 MLOAD PUSH2 0x3015 DUP2 PUSH2 0x1199 DUP2 PUSH1 0x2 DUP10 ADD PUSH2 0x3AFC JUMP JUMPDEST PUSH1 0x40 DUP3 ADD MSTORE PUSH1 0x40 MLOAD PUSH2 0x302E DUP2 PUSH2 0x1199 DUP2 PUSH1 0x3 DUP10 ADD PUSH2 0x3AFC JUMP JUMPDEST PUSH1 0x60 DUP3 ADD MSTORE PUSH1 0x40 MLOAD SWAP1 PUSH2 0x3048 DUP3 PUSH2 0x12F1 DUP2 PUSH1 0x4 DUP10 ADD PUSH2 0x3AFC JUMP JUMPDEST PUSH1 0x80 DUP2 ADD SWAP2 DUP3 MSTORE PUSH2 0x140 PUSH1 0xA PUSH1 0x40 MLOAD SWAP7 PUSH2 0x3069 DUP9 PUSH2 0x26BD DUP2 PUSH1 0x5 DUP6 ADD PUSH2 0x3AFC JUMP JUMPDEST DUP8 PUSH1 0xA0 DUP6 ADD MSTORE PUSH1 0x6 DUP2 ADD SLOAD PUSH1 0xC0 DUP6 ADD MSTORE PUSH1 0x7 DUP2 ADD SLOAD PUSH1 0xE0 DUP6 ADD MSTORE PUSH1 0x8 DUP2 ADD SLOAD PUSH2 0x100 DUP6 ADD MSTORE PUSH1 0xFF PUSH1 0x9 DUP3 ADD SLOAD AND ISZERO ISZERO PUSH2 0x120 DUP6 ADD MSTORE ADD SLOAD SWAP2 ADD MSTORE MLOAD SWAP3 PUSH1 0x40 MLOAD SWAP5 DUP6 SWAP5 PUSH1 0x40 DUP7 MSTORE PUSH1 0x40 DUP7 ADD SWAP1 PUSH2 0x3A87 JUMP JUMPDEST SWAP2 DUP5 DUP4 SUB SWAP1 DUP6 ADD MSTORE PUSH2 0x3A87 JUMP JUMPDEST CALLVALUE PUSH2 0x3C0 JUMPI PUSH1 0x20 CALLDATASIZE PUSH1 0x3 NOT ADD SLT PUSH2 0x3C0 JUMPI PUSH1 0x1 PUSH1 0x1 PUSH1 0xA0 SHL SUB PUSH2 0x30E7 PUSH2 0x3A38 JUMP JUMPDEST AND PUSH1 0x0 MSTORE PUSH1 0x15 PUSH1 0x20 MSTORE PUSH1 0x20 PUSH1 0xFF PUSH1 0x40 PUSH1 0x0 KECCAK256 SLOAD AND PUSH1 0x40 MLOAD SWAP1 ISZERO ISZERO DUP2 MSTORE RETURN JUMPDEST CALLVALUE PUSH2 0x3C0 JUMPI PUSH1 0x0 CALLDATASIZE PUSH1 0x3 NOT ADD SLT PUSH2 0x3C0 JUMPI PUSH1 0x20 PUSH1 0x40 MLOAD PUSH2 0x3E8 DUP2 MSTORE RETURN JUMPDEST CALLVALUE PUSH2 0x3C0 JUMPI PUSH1 0x20 DUP1 PUSH1 0x3 NOT CALLDATASIZE ADD SLT PUSH2 0x3C0 JUMPI PUSH1 0x1 PUSH1 0x1 PUSH1 0xA0 SHL SUB PUSH2 0x3144 PUSH2 0x3A38 JUMP JUMPDEST AND PUSH1 0x0 MSTORE PUSH1 0x1E PUSH1 0x20 MSTORE PUSH1 0x40 PUSH1 0x0 KECCAK256 SWAP1 PUSH1 0x40 MLOAD SWAP1 DUP2 PUSH1 0x20 DUP5 SLOAD SWAP2 DUP3 DUP2 MSTORE ADD SWAP4 PUSH1 0x0 MSTORE PUSH1 0x20 PUSH1 0x0 KECCAK256 SWAP2 PUSH1 0x0 SWAP1 JUMPDEST DUP3 DUP3 LT PUSH2 0x3186 JUMPI PUSH2 0x651 DUP6 PUSH2 0x645 DUP2 DUP10 SUB DUP3 PUSH2 0x3C1A JUMP JUMPDEST DUP4 SLOAD DUP7 MSTORE SWAP5 DUP6 ADD SWAP5 PUSH1 0x1 SWAP4 DUP5 ADD SWAP4 SWAP1 SWAP2 ADD SWAP1 PUSH2 0x316F JUMP JUMPDEST CALLVALUE PUSH2 0x3C0 JUMPI PUSH1 0x40 CALLDATASIZE PUSH1 0x3 NOT ADD SLT PUSH2 0x3C0 JUMPI PUSH2 0x31B6 PUSH2 0x3A38 JUMP JUMPDEST PUSH1 0x24 CALLDATALOAD SWAP1 PUSH2 0x31C3 DUP2 PUSH2 0x42C5 JUMP JUMPDEST DUP3 LT ISZERO PUSH2 0x31F6 JUMPI PUSH1 0x1 DUP1 PUSH1 0xA0 SHL SUB AND PUSH1 0x0 MSTORE PUSH1 0x6 PUSH1 0x20 MSTORE PUSH1 0x40 PUSH1 0x0 KECCAK256 SWAP1 PUSH1 0x0 MSTORE PUSH1 0x20 MSTORE PUSH1 0x20 PUSH1 0x40 PUSH1 0x0 KECCAK256 SLOAD PUSH1 0x40 MLOAD SWAP1 DUP2 MSTORE RETURN JUMPDEST PUSH1 0x40 MLOAD PUSH4 0x295F44F7 PUSH1 0xE2 SHL DUP2 MSTORE PUSH1 0x1 PUSH1 0x1 PUSH1 0xA0 SHL SUB SWAP2 SWAP1 SWAP2 AND PUSH1 0x4 DUP3 ADD MSTORE PUSH1 0x24 DUP2 ADD SWAP2 SWAP1 SWAP2 MSTORE PUSH1 0x44 SWAP1 REVERT JUMPDEST CALLVALUE PUSH2 0x3C0 JUMPI PUSH2 0x322F CALLDATASIZE PUSH2 0x3AAC JUMP JUMPDEST SWAP1 PUSH1 0x0 MSTORE PUSH1 0x1D PUSH1 0x20 MSTORE PUSH1 0x40 PUSH1 0x0 KECCAK256 DUP1 SLOAD DUP3 LT ISZERO PUSH2 0x3C0 JUMPI PUSH1 0x20 SWAP2 PUSH2 0x20E9 SWAP2 PUSH2 0x3D64 JUMP JUMPDEST CALLVALUE PUSH2 0x3C0 JUMPI PUSH2 0x3260 CALLDATASIZE PUSH2 0x3AAC JUMP JUMPDEST PUSH1 0x0 DUP3 DUP2 MSTORE PUSH1 0x2 PUSH1 0x20 MSTORE PUSH1 0x40 SWAP1 KECCAK256 SLOAD SWAP1 SWAP2 PUSH1 0x1 PUSH1 0x1 PUSH1 0xA0 SHL SUB SWAP2 PUSH2 0x3287 SWAP1 DUP4 AND ISZERO ISZERO PUSH2 0x415E JUMP JUMPDEST PUSH1 0x0 MSTORE PUSH1 0x1C PUSH1 0x20 MSTORE PUSH1 0x40 PUSH1 0x0 KECCAK256 PUSH1 0x40 MLOAD PUSH2 0x32A0 DUP2 PUSH2 0x3B92 JUMP JUMPDEST DUP2 SLOAD DUP2 MSTORE PUSH1 0x60 PUSH1 0x3 PUSH1 0x1 DUP5 ADD SLOAD SWAP4 DUP5 PUSH1 0x20 DUP6 ADD MSTORE DUP6 PUSH1 0x2 DUP3 ADD SLOAD AND PUSH1 0x40 DUP6 ADD MSTORE ADD SLOAD SWAP2 ADD MSTORE PUSH1 0x0 MSTORE PUSH1 0x1B PUSH1 0x20 MSTORE PUSH2 0x2710 PUSH2 0x33AA PUSH1 0x40 PUSH1 0x0 KECCAK256 SWAP4 PUSH1 0x40 MLOAD PUSH2 0x32E5 DUP2 PUSH2 0x3BAD JUMP JUMPDEST DUP6 SLOAD DUP2 MSTORE PUSH2 0x140 PUSH1 0xA DUP7 PUSH1 0x1 DUP10 ADD SLOAD AND SWAP8 PUSH1 0x20 DUP5 ADD SWAP9 DUP10 MSTORE PUSH1 0x40 MLOAD PUSH2 0x3311 DUP2 PUSH2 0x1199 DUP2 PUSH1 0x2 DUP7 ADD PUSH2 0x3AFC JUMP JUMPDEST PUSH1 0x40 DUP6 ADD MSTORE PUSH1 0x40 MLOAD PUSH2 0x332A DUP2 PUSH2 0x1199 DUP2 PUSH1 0x3 DUP7 ADD PUSH2 0x3AFC JUMP JUMPDEST PUSH1 0x60 DUP6 ADD MSTORE PUSH1 0x40 MLOAD PUSH2 0x3343 DUP2 PUSH2 0x1199 DUP2 PUSH1 0x4 DUP7 ADD PUSH2 0x3AFC JUMP JUMPDEST PUSH1 0x80 DUP6 ADD MSTORE PUSH1 0x40 MLOAD PUSH2 0x335C DUP2 PUSH2 0x1199 DUP2 PUSH1 0x5 DUP7 ADD PUSH2 0x3AFC JUMP JUMPDEST PUSH1 0xA0 DUP6 ADD MSTORE PUSH1 0x6 DUP2 ADD SLOAD PUSH1 0xC0 DUP6 ADD MSTORE PUSH1 0x7 DUP2 ADD SLOAD PUSH1 0xE0 DUP6 ADD MSTORE PUSH1 0x8 DUP2 ADD SLOAD PUSH2 0x100 DUP6 ADD MSTORE PUSH1 0xFF PUSH1 0x9 DUP3 ADD SLOAD AND ISZERO ISZERO PUSH2 0x120 DUP6 ADD MSTORE ADD SLOAD SWAP2 ADD MSTORE PUSH2 0x33A4 PUSH1 0xE SLOAD PUSH1 0xF SLOAD SWAP1 PUSH2 0x3EA3 JUMP JUMPDEST SWAP1 PUSH2 0x41A1 JUMP JUMPDEST SWAP3 MLOAD PUSH1 0x40 DUP1 MLOAD SWAP4 SWAP1 SWAP2 AND PUSH1 0x1 PUSH1 0x1 PUSH1 0xA0 SHL SUB AND DUP4 MSTORE SWAP3 DIV PUSH1 0x20 DUP3 ADD MSTORE RETURN JUMPDEST CALLVALUE PUSH2 0x3C0 JUMPI PUSH2 0x10E2 PUSH2 0x33D9 CALLDATASIZE PUSH2 0x3C8A JUMP JUMPDEST SWAP2 PUSH2 0x3EF8 JUMP JUMPDEST CALLVALUE PUSH2 0x3C0 JUMPI PUSH1 0x0 CALLDATASIZE PUSH1 0x3 NOT ADD SLT PUSH2 0x3C0 JUMPI PUSH1 0x20 PUSH1 0x8 SLOAD PUSH1 0x40 MLOAD SWAP1 DUP2 MSTORE RETURN JUMPDEST CALLVALUE PUSH2 0x3C0 JUMPI PUSH1 0x20 DUP1 PUSH1 0x3 NOT CALLDATASIZE ADD SLT PUSH2 0x3C0 JUMPI PUSH2 0x3417 PUSH2 0x3A38 JUMP JUMPDEST CALLER PUSH1 0x0 MSTORE PUSH1 0x16 DUP3 MSTORE PUSH1 0xFF PUSH1 0x40 PUSH1 0x0 KECCAK256 SLOAD AND DUP1 ISZERO PUSH2 0x35C4 JUMPI JUMPDEST PUSH2 0x3438 SWAP1 PUSH2 0x3EB0 JUMP JUMPDEST PUSH1 0x1 DUP1 PUSH1 0xA0 SHL SUB DUP1 SWAP2 AND SWAP2 DUP3 PUSH1 0x0 MSTORE PUSH1 0x16 DUP2 MSTORE PUSH2 0x345C PUSH1 0xFF PUSH1 0x40 PUSH1 0x0 KECCAK256 SLOAD AND PUSH2 0x3EB0 JUMP JUMPDEST DUP2 PUSH1 0xA SLOAD AND DUP4 EQ PUSH2 0x3580 JUMPI CALLER DUP4 EQ PUSH2 0x3532 JUMPI PUSH1 0x16 SWAP1 DUP4 PUSH1 0x0 MSTORE MSTORE PUSH1 0x40 PUSH1 0x0 KECCAK256 PUSH1 0xFF NOT DUP2 SLOAD AND SWAP1 SSTORE PUSH1 0x0 SWAP1 JUMPDEST PUSH1 0x19 SWAP2 DUP3 SLOAD DUP1 DUP3 LT ISZERO PUSH2 0x3529 JUMPI DUP3 SWAP1 DUP6 PUSH2 0x34A0 DUP5 PUSH2 0x3CBF JUMP JUMPDEST SWAP4 SWAP1 SLOAD PUSH1 0x3 SWAP5 DUP6 SHL SHR AND EQ PUSH2 0x34BB JUMPI POP POP PUSH1 0x1 ADD SWAP2 POP PUSH2 0x3487 JUMP JUMPDEST PUSH1 0x0 NOT SWAP4 SWAP2 SWAP3 SWAP2 DUP2 DUP6 ADD SWAP2 DUP3 GT PUSH2 0x1C08 JUMPI PUSH2 0x34E8 SWAP4 PUSH2 0x34DC PUSH2 0x1B80 SWAP4 PUSH2 0x3CBF JUMP JUMPDEST SWAP1 SLOAD SWAP2 SHL SHR AND SWAP2 PUSH2 0x3CBF JUMP JUMPDEST DUP2 SLOAD DUP1 ISZERO PUSH2 0x1BF2 JUMPI ADD SWAP1 PUSH2 0x34FE PUSH2 0x1BB4 DUP4 PUSH2 0x3CBF JUMP JUMPDEST SSTORE JUMPDEST CALLER SWAP1 PUSH32 0xDB9D5D31320DAF5BC7181D565B6DA4D12E30F0F4D5AA324A992426C14A1D19CE PUSH1 0x0 DUP1 LOG3 STOP JUMPDEST POP POP POP POP PUSH2 0x3500 JUMP JUMPDEST PUSH1 0x84 SWAP1 PUSH1 0x40 MLOAD SWAP1 PUSH3 0x461BCD PUSH1 0xE5 SHL DUP3 MSTORE PUSH1 0x4 DUP3 ADD MSTORE PUSH1 0x21 PUSH1 0x24 DUP3 ADD MSTORE PUSH32 0x43616E6E6F742072656D6F766520796F757273656C662066726F6D2061646D69 PUSH1 0x44 DUP3 ADD MSTORE PUSH1 0x37 PUSH1 0xF9 SHL PUSH1 0x64 DUP3 ADD MSTORE REVERT JUMPDEST PUSH1 0x64 SWAP1 PUSH1 0x40 MLOAD SWAP1 PUSH3 0x461BCD PUSH1 0xE5 SHL DUP3 MSTORE PUSH1 0x4 DUP3 ADD MSTORE PUSH1 0x1E PUSH1 0x24 DUP3 ADD MSTORE PUSH32 0x43616E6E6F742072656D6F7665206F776E65722066726F6D2061646D696E0000 PUSH1 0x44 DUP3 ADD MSTORE REVERT JUMPDEST POP PUSH1 0xA SLOAD PUSH1 0x1 PUSH1 0x1 PUSH1 0xA0 SHL SUB AND CALLER EQ PUSH2 0x342F JUMP JUMPDEST CALLVALUE PUSH2 0x3C0 JUMPI PUSH1 0x20 CALLDATASIZE PUSH1 0x3 NOT ADD SLT PUSH2 0x3C0 JUMPI PUSH1 0x1 PUSH1 0x1 PUSH1 0xA0 SHL SUB PUSH2 0x35F9 PUSH2 0x3A38 JUMP JUMPDEST AND PUSH1 0x0 MSTORE PUSH1 0x1A PUSH1 0x20 MSTORE PUSH1 0x40 PUSH1 0x0 KECCAK256 PUSH1 0x40 MLOAD PUSH2 0x3618 DUP2 PUSH2 0x1199 DUP2 DUP6 PUSH2 0x3AFC JUMP JUMPDEST PUSH2 0x651 PUSH1 0x40 MLOAD SWAP3 PUSH2 0x3630 DUP5 PUSH2 0x282A DUP2 PUSH1 0x1 DUP6 ADD PUSH2 0x3AFC JUMP JUMPDEST PUSH1 0x40 MLOAD SWAP1 PUSH2 0x3645 DUP3 PUSH2 0x12F1 DUP2 PUSH1 0x2 DUP6 ADD PUSH2 0x3AFC JUMP JUMPDEST PUSH1 0x3 DUP2 ADD SLOAD PUSH1 0xFF PUSH1 0x5 PUSH1 0x4 DUP5 ADD SLOAD SWAP4 ADD SLOAD AND SWAP3 PUSH1 0x40 MLOAD SWAP7 DUP8 SWAP7 DUP8 PUSH2 0x3C3B JUMP JUMPDEST CALLVALUE PUSH2 0x3C0 JUMPI PUSH2 0x3672 CALLDATASIZE PUSH2 0x3AAC JUMP JUMPDEST SWAP1 PUSH2 0x367B PUSH2 0x4CA7 JUMP JUMPDEST PUSH2 0x7D0 PUSH2 0x3688 DUP4 DUP4 PUSH2 0x3EA3 JUMP JUMPDEST GT PUSH2 0x3695 JUMPI PUSH1 0xE SSTORE PUSH1 0xF SSTORE STOP JUMPDEST PUSH1 0x40 MLOAD PUSH3 0x461BCD PUSH1 0xE5 SHL DUP2 MSTORE PUSH1 0x20 PUSH1 0x4 DUP3 ADD MSTORE PUSH1 0x1C PUSH1 0x24 DUP3 ADD MSTORE PUSH32 0x546F74616C20666565732063616E6E6F74206578636565642032302500000000 PUSH1 0x44 DUP3 ADD MSTORE PUSH1 0x64 SWAP1 REVERT JUMPDEST CALLVALUE PUSH2 0x3C0 JUMPI PUSH1 0x20 CALLDATASIZE PUSH1 0x3 NOT ADD SLT PUSH2 0x3C0 JUMPI PUSH1 0x4 CALLDATALOAD PUSH2 0x36F6 PUSH2 0x4CA7 JUMP JUMPDEST PUSH2 0x3E8 DUP2 GT PUSH2 0x3738 JUMPI PUSH1 0x40 PUSH32 0xD347E206F25A89B917FC9482F1A2D294D749BAA4DC9BDE7FB495EE11FE491643 SWAP2 PUSH1 0xD SLOAD SWAP1 DUP1 PUSH1 0xD SSTORE DUP3 MLOAD SWAP2 DUP3 MSTORE PUSH1 0x20 DUP3 ADD MSTORE LOG1 STOP JUMPDEST PUSH1 0x40 MLOAD PUSH3 0x461BCD PUSH1 0xE5 SHL DUP2 MSTORE PUSH1 0x20 PUSH1 0x4 DUP3 ADD MSTORE PUSH1 0xC PUSH1 0x24 DUP3 ADD MSTORE PUSH12 0x8CCACA40E8DEDE40D0D2CED PUSH1 0xA3 SHL PUSH1 0x44 DUP3 ADD MSTORE PUSH1 0x64 SWAP1 REVERT JUMPDEST CALLVALUE PUSH2 0x3C0 JUMPI PUSH1 0x20 CALLDATASIZE PUSH1 0x3 NOT ADD SLT PUSH2 0x3C0 JUMPI PUSH1 0x4 CALLDATALOAD DUP1 PUSH1 0x0 MSTORE PUSH1 0x1B PUSH1 0x20 MSTORE PUSH2 0x37A4 PUSH1 0x1 DUP1 PUSH1 0xA0 SHL SUB PUSH1 0x1 PUSH1 0x40 PUSH1 0x0 KECCAK256 ADD SLOAD AND CALLER EQ PUSH2 0x3E5F JUMP JUMPDEST PUSH1 0x0 SWAP1 DUP2 MSTORE PUSH1 0x1B PUSH1 0x20 MSTORE PUSH1 0x40 SWAP1 KECCAK256 PUSH1 0x9 ADD DUP1 SLOAD PUSH1 0xFF DUP2 DUP2 AND ISZERO AND PUSH1 0xFF NOT SWAP1 SWAP2 AND OR SWAP1 SSTORE STOP JUMPDEST CALLVALUE PUSH2 0x3C0 JUMPI PUSH1 0x40 CALLDATASIZE PUSH1 0x3 NOT ADD SLT PUSH2 0x3C0 JUMPI PUSH2 0x37E2 PUSH2 0x3A38 JUMP JUMPDEST PUSH1 0x24 CALLDATALOAD PUSH2 0x37EE DUP2 PUSH2 0x4C6C JUMP JUMPDEST CALLER ISZERO ISZERO DUP1 PUSH2 0x389D JUMPI JUMPDEST DUP1 PUSH2 0x3870 JUMPI JUMPDEST PUSH2 0x3858 JUMPI PUSH1 0x1 PUSH1 0x1 PUSH1 0xA0 SHL SUB SWAP3 DUP4 AND SWAP3 DUP3 SWAP2 DUP5 SWAP2 AND PUSH32 0x8C5BE1E5EBEC7D5BD14F71427D1E84F3DD0314C0F7B2291E5B200AC8C7C3B925 PUSH1 0x0 DUP1 LOG4 PUSH1 0x0 SWAP1 DUP2 MSTORE PUSH1 0x4 PUSH1 0x20 MSTORE PUSH1 0x40 SWAP1 KECCAK256 DUP1 SLOAD PUSH1 0x1 PUSH1 0x1 PUSH1 0xA0 SHL SUB NOT AND SWAP1 SWAP2 OR SWAP1 SSTORE STOP JUMPDEST PUSH1 0x40 MLOAD PUSH4 0xA9FBF51F PUSH1 0xE0 SHL DUP2 MSTORE CALLER PUSH1 0x4 DUP3 ADD MSTORE PUSH1 0x24 SWAP1 REVERT JUMPDEST POP PUSH1 0x1 DUP1 PUSH1 0xA0 SHL SUB DUP2 AND PUSH1 0x0 MSTORE PUSH1 0x5 PUSH1 0x20 MSTORE PUSH1 0x40 PUSH1 0x0 KECCAK256 CALLER PUSH1 0x0 MSTORE PUSH1 0x20 MSTORE PUSH1 0xFF PUSH1 0x40 PUSH1 0x0 KECCAK256 SLOAD AND ISZERO PUSH2 0x37FD JUMP JUMPDEST POP PUSH1 0x1 PUSH1 0x1 PUSH1 0xA0 SHL SUB DUP2 AND CALLER EQ ISZERO PUSH2 0x37F7 JUMP JUMPDEST CALLVALUE PUSH2 0x3C0 JUMPI PUSH1 0x20 CALLDATASIZE PUSH1 0x3 NOT ADD SLT PUSH2 0x3C0 JUMPI PUSH1 0x4 CALLDATALOAD PUSH2 0x38CD DUP2 PUSH2 0x4C6C JUMP JUMPDEST POP PUSH1 0x0 MSTORE PUSH1 0x4 PUSH1 0x20 MSTORE PUSH1 0x20 PUSH1 0x1 DUP1 PUSH1 0xA0 SHL SUB PUSH1 0x40 PUSH1 0x0 KECCAK256 SLOAD AND PUSH1 0x40 MLOAD SWAP1 DUP2 MSTORE RETURN JUMPDEST CALLVALUE PUSH2 0x3C0 JUMPI PUSH1 0x0 CALLDATASIZE PUSH1 0x3 NOT ADD SLT PUSH2 0x3C0 JUMPI PUSH1 0x40 MLOAD PUSH1 0x0 DUP1 SLOAD SWAP1 DUP3 PUSH2 0x3911 DUP4 PUSH2 0x3AC2 JUMP JUMPDEST SWAP2 DUP3 DUP3 MSTORE PUSH1 0x20 SWAP4 PUSH1 0x1 SWAP1 DUP6 PUSH1 0x1 DUP3 AND SWAP2 DUP3 PUSH1 0x0 EQ PUSH2 0x19C3 JUMPI POP POP PUSH1 0x1 EQ PUSH2 0x393F JUMPI POP PUSH2 0x1952 SWAP3 POP SUB DUP4 PUSH2 0x3C1A JUMP JUMPDEST PUSH1 0x0 DUP1 DUP1 MSTORE DUP6 SWAP3 POP SWAP1 PUSH32 0x290DECD9548B62A8D60345A988386FC84BA6BC95484008F6362F93160EF3E563 JUMPDEST DUP6 DUP4 LT PUSH2 0x3981 JUMPI POP POP PUSH2 0x1952 SWAP4 POP DUP3 ADD ADD DUP6 PUSH2 0x1945 JUMP JUMPDEST DUP1 SLOAD DUP4 DUP10 ADD DUP6 ADD MSTORE DUP8 SWAP5 POP DUP7 SWAP4 SWAP1 SWAP3 ADD SWAP2 DUP2 ADD PUSH2 0x396A JUMP JUMPDEST CALLVALUE PUSH2 0x3C0 JUMPI PUSH1 0x20 CALLDATASIZE PUSH1 0x3 NOT ADD SLT PUSH2 0x3C0 JUMPI PUSH1 0x4 CALLDATALOAD SWAP1 PUSH4 0xFFFFFFFF PUSH1 0xE0 SHL DUP3 AND DUP1 SWAP3 SUB PUSH2 0x3C0 JUMPI PUSH1 0x20 SWAP2 PUSH4 0x152A902D PUSH1 0xE1 SHL DUP2 EQ SWAP1 DUP2 ISZERO PUSH2 0x39DB JUMPI JUMPDEST POP ISZERO ISZERO DUP2 MSTORE RETURN JUMPDEST PUSH4 0x780E9D63 PUSH1 0xE0 SHL DUP2 EQ SWAP2 POP DUP2 ISZERO PUSH2 0x39F5 JUMPI JUMPDEST POP DUP4 PUSH2 0x39D4 JUMP JUMPDEST PUSH4 0x80AC58CD PUSH1 0xE0 SHL DUP2 EQ SWAP2 POP DUP2 ISZERO PUSH2 0x3A27 JUMPI JUMPDEST DUP2 ISZERO PUSH2 0x3A16 JUMPI JUMPDEST POP DUP4 PUSH2 0x39EE JUMP JUMPDEST PUSH4 0x1FFC9A7 PUSH1 0xE0 SHL EQ SWAP1 POP DUP4 PUSH2 0x3A0F JUMP JUMPDEST PUSH4 0x5B5E139F PUSH1 0xE0 SHL DUP2 EQ SWAP2 POP PUSH2 0x3A08 JUMP JUMPDEST PUSH1 0x4 CALLDATALOAD SWAP1 PUSH1 0x1 PUSH1 0x1 PUSH1 0xA0 SHL SUB DUP3 AND DUP3 SUB PUSH2 0x3C0 JUMPI JUMP JUMPDEST PUSH1 0x24 CALLDATALOAD SWAP1 PUSH1 0x1 PUSH1 0x1 PUSH1 0xA0 SHL SUB DUP3 AND DUP3 SUB PUSH2 0x3C0 JUMPI JUMP JUMPDEST PUSH1 0x0 JUMPDEST DUP4 DUP2 LT PUSH2 0x3A77 JUMPI POP POP PUSH1 0x0 SWAP2 ADD MSTORE JUMP JUMPDEST DUP2 DUP2 ADD MLOAD DUP4 DUP3 ADD MSTORE PUSH1 0x20 ADD PUSH2 0x3A67 JUMP JUMPDEST SWAP1 PUSH1 0x20 SWAP2 PUSH2 0x3AA0 DUP2 MLOAD DUP1 SWAP3 DUP2 DUP6 MSTORE DUP6 DUP1 DUP7 ADD SWAP2 ADD PUSH2 0x3A64 JUMP JUMPDEST PUSH1 0x1F ADD PUSH1 0x1F NOT AND ADD ADD SWAP1 JUMP JUMPDEST PUSH1 0x40 SWAP1 PUSH1 0x3 NOT ADD SLT PUSH2 0x3C0 JUMPI PUSH1 0x4 CALLDATALOAD SWAP1 PUSH1 0x24 CALLDATALOAD SWAP1 JUMP JUMPDEST SWAP1 PUSH1 0x1 DUP3 DUP2 SHR SWAP3 AND DUP1 ISZERO PUSH2 0x3AF2 JUMPI JUMPDEST PUSH1 0x20 DUP4 LT EQ PUSH2 0x3ADC JUMPI JUMP JUMPDEST PUSH4 0x4E487B71 PUSH1 0xE0 SHL PUSH1 0x0 MSTORE PUSH1 0x22 PUSH1 0x4 MSTORE PUSH1 0x24 PUSH1 0x0 REVERT JUMPDEST SWAP2 PUSH1 0x7F AND SWAP2 PUSH2 0x3AD1 JUMP JUMPDEST DUP1 SLOAD PUSH1 0x0 SWAP4 SWAP3 PUSH2 0x3B0B DUP3 PUSH2 0x3AC2 JUMP JUMPDEST SWAP2 DUP3 DUP3 MSTORE PUSH1 0x20 SWAP4 PUSH1 0x1 SWAP2 PUSH1 0x1 DUP2 AND SWAP1 DUP2 PUSH1 0x0 EQ PUSH2 0x3B73 JUMPI POP PUSH1 0x1 EQ PUSH2 0x3B32 JUMPI JUMPDEST POP POP POP POP POP JUMP JUMPDEST SWAP1 SWAP4 SWAP5 SWAP6 POP PUSH1 0x0 SWAP3 SWAP2 SWAP3 MSTORE DUP4 PUSH1 0x0 KECCAK256 SWAP3 DUP5 PUSH1 0x0 SWAP5 JUMPDEST DUP4 DUP7 LT PUSH2 0x3B5F JUMPI POP POP POP POP ADD ADD SWAP1 CODESIZE DUP1 DUP1 DUP1 DUP1 PUSH2 0x3B2B JUMP JUMPDEST DUP1 SLOAD DUP6 DUP8 ADD DUP4 ADD MSTORE SWAP5 ADD SWAP4 DUP6 SWAP1 DUP3 ADD PUSH2 0x3B47 JUMP JUMPDEST PUSH1 0xFF NOT AND DUP7 DUP6 ADD MSTORE POP POP POP SWAP1 ISZERO ISZERO PUSH1 0x5 SHL ADD ADD SWAP2 POP CODESIZE DUP1 DUP1 DUP1 DUP1 PUSH2 0x3B2B JUMP JUMPDEST PUSH1 0x80 DUP2 ADD SWAP1 DUP2 LT PUSH1 0x1 PUSH1 0x1 PUSH1 0x40 SHL SUB DUP3 GT OR PUSH2 0xBEE JUMPI PUSH1 0x40 MSTORE JUMP JUMPDEST PUSH2 0x160 DUP2 ADD SWAP1 DUP2 LT PUSH1 0x1 PUSH1 0x1 PUSH1 0x40 SHL SUB DUP3 GT OR PUSH2 0xBEE JUMPI PUSH1 0x40 MSTORE JUMP JUMPDEST PUSH1 0x20 DUP2 ADD SWAP1 DUP2 LT PUSH1 0x1 PUSH1 0x1 PUSH1 0x40 SHL SUB DUP3 GT OR PUSH2 0xBEE JUMPI PUSH1 0x40 MSTORE JUMP JUMPDEST PUSH1 0x40 DUP2 ADD SWAP1 DUP2 LT PUSH1 0x1 PUSH1 0x1 PUSH1 0x40 SHL SUB DUP3 GT OR PUSH2 0xBEE JUMPI PUSH1 0x40 MSTORE JUMP JUMPDEST PUSH1 0x60 DUP2 ADD SWAP1 DUP2 LT PUSH1 0x1 PUSH1 0x1 PUSH1 0x40 SHL SUB DUP3 GT OR PUSH2 0xBEE JUMPI PUSH1 0x40 MSTORE JUMP JUMPDEST SWAP1 PUSH1 0x1F DUP1 NOT SWAP2 ADD AND DUP2 ADD SWAP1 DUP2 LT PUSH1 0x1 PUSH1 0x1 PUSH1 0x40 SHL SUB DUP3 GT OR PUSH2 0xBEE JUMPI PUSH1 0x40 MSTORE JUMP JUMPDEST SWAP5 SWAP2 SWAP3 PUSH2 0x3C6A PUSH1 0xA0 SWAP6 SWAP9 SWAP8 SWAP5 PUSH2 0x3C5C PUSH2 0x3C78 SWAP5 PUSH1 0xC0 DUP11 MSTORE PUSH1 0xC0 DUP11 ADD SWAP1 PUSH2 0x3A87 JUMP JUMPDEST SWAP1 DUP9 DUP3 SUB PUSH1 0x20 DUP11 ADD MSTORE PUSH2 0x3A87 JUMP JUMPDEST SWAP1 DUP7 DUP3 SUB PUSH1 0x40 DUP9 ADD MSTORE PUSH2 0x3A87 JUMP JUMPDEST SWAP6 PUSH1 0x60 DUP6 ADD MSTORE PUSH1 0x80 DUP5 ADD MSTORE ISZERO ISZERO SWAP2 ADD MSTORE JUMP JUMPDEST PUSH1 0x60 SWAP1 PUSH1 0x3 NOT ADD SLT PUSH2 0x3C0 JUMPI PUSH1 0x1 PUSH1 0x1 PUSH1 0xA0 SHL SUB SWAP1 PUSH1 0x4 CALLDATALOAD DUP3 DUP2 AND DUP2 SUB PUSH2 0x3C0 JUMPI SWAP2 PUSH1 0x24 CALLDATALOAD SWAP1 DUP2 AND DUP2 SUB PUSH2 0x3C0 JUMPI SWAP1 PUSH1 0x44 CALLDATALOAD SWAP1 JUMP JUMPDEST PUSH1 0x19 SLOAD DUP2 LT ISZERO PUSH2 0x23C6 JUMPI PUSH1 0x19 PUSH1 0x0 MSTORE PUSH32 0x944998273E477B495144FB8794C914197F3CCB46BE2900F4698FD0EF743C9695 ADD SWAP1 PUSH1 0x0 SWAP1 JUMP JUMPDEST PUSH1 0x8 SLOAD DUP2 LT ISZERO PUSH2 0x23C6 JUMPI PUSH1 0x8 PUSH1 0x0 MSTORE PUSH32 0xF3F7A9FE364FAAB93B216DA50A3214154F22A0A2B415B23A84C8169E8B636EE3 ADD SWAP1 PUSH1 0x0 SWAP1 JUMP JUMPDEST PUSH1 0x18 SLOAD DUP2 LT ISZERO PUSH2 0x23C6 JUMPI PUSH1 0x18 PUSH1 0x0 MSTORE PUSH32 0xB13D2D76D1F4B7BE834882E410B3E3A8AFAF69F83600AE24DB354391D2378D2E ADD SWAP1 PUSH1 0x0 SWAP1 JUMP JUMPDEST DUP1 SLOAD DUP3 LT ISZERO PUSH2 0x23C6 JUMPI PUSH1 0x0 MSTORE PUSH1 0x20 PUSH1 0x0 KECCAK256 ADD SWAP1 PUSH1 0x0 SWAP1 JUMP JUMPDEST PUSH1 0x20 SWAP1 PUSH1 0x20 PUSH1 0x40 DUP2 DUP4 ADD SWAP3 DUP3 DUP2 MSTORE DUP6 MLOAD DUP1 SWAP5 MSTORE ADD SWAP4 ADD SWAP2 PUSH1 0x0 JUMPDEST DUP3 DUP2 LT PUSH2 0x3DA4 JUMPI POP POP POP POP SWAP1 JUMP JUMPDEST DUP4 MLOAD DUP6 MSTORE SWAP4 DUP2 ADD SWAP4 SWAP3 DUP2 ADD SWAP3 PUSH1 0x1 ADD PUSH2 0x3D96 JUMP JUMPDEST PUSH1 0x20 SWAP1 PUSH1 0x20 PUSH1 0x40 DUP2 DUP4 ADD SWAP3 DUP3 DUP2 MSTORE DUP6 MLOAD DUP1 SWAP5 MSTORE ADD SWAP4 ADD SWAP2 PUSH1 0x0 JUMPDEST DUP3 DUP2 LT PUSH2 0x3DE0 JUMPI POP POP POP POP SWAP1 JUMP JUMPDEST DUP4 MLOAD PUSH1 0x1 PUSH1 0x1 PUSH1 0xA0 SHL SUB AND DUP6 MSTORE SWAP4 DUP2 ADD SWAP4 SWAP3 DUP2 ADD SWAP3 PUSH1 0x1 ADD PUSH2 0x3DD2 JUMP JUMPDEST PUSH1 0x1 PUSH1 0x1 PUSH1 0x40 SHL SUB DUP2 GT PUSH2 0xBEE JUMPI PUSH1 0x1F ADD PUSH1 0x1F NOT AND PUSH1 0x20 ADD SWAP1 JUMP JUMPDEST DUP2 PUSH1 0x1F DUP3 ADD SLT ISZERO PUSH2 0x3C0 JUMPI DUP1 CALLDATALOAD SWAP1 PUSH2 0x3E2F DUP3 PUSH2 0x3DFD JUMP JUMPDEST SWAP3 PUSH2 0x3E3D PUSH1 0x40 MLOAD SWAP5 DUP6 PUSH2 0x3C1A JUMP JUMPDEST DUP3 DUP5 MSTORE PUSH1 0x20 DUP4 DUP4 ADD ADD GT PUSH2 0x3C0 JUMPI DUP2 PUSH1 0x0 SWAP3 PUSH1 0x20 DUP1 SWAP4 ADD DUP4 DUP7 ADD CALLDATACOPY DUP4 ADD ADD MSTORE SWAP1 JUMP JUMPDEST ISZERO PUSH2 0x3E66 JUMPI JUMP JUMPDEST PUSH1 0x40 MLOAD PUSH3 0x461BCD PUSH1 0xE5 SHL DUP2 MSTORE PUSH1 0x20 PUSH1 0x4 DUP3 ADD MSTORE PUSH1 0x15 PUSH1 0x24 DUP3 ADD MSTORE PUSH21 0x139BDD081D1A19481CD95C9A595CC8185C9D1A5CDD PUSH1 0x5A SHL PUSH1 0x44 DUP3 ADD MSTORE PUSH1 0x64 SWAP1 REVERT JUMPDEST SWAP2 SWAP1 DUP3 ADD DUP1 SWAP3 GT PUSH2 0x1C08 JUMPI JUMP JUMPDEST ISZERO PUSH2 0x3EB7 JUMPI JUMP JUMPDEST PUSH1 0x40 MLOAD PUSH3 0x461BCD PUSH1 0xE5 SHL DUP2 MSTORE PUSH1 0x20 PUSH1 0x4 DUP3 ADD MSTORE PUSH1 0xC PUSH1 0x24 DUP3 ADD MSTORE PUSH12 0x2737BA1030B71030B236B4B7 PUSH1 0xA1 SHL PUSH1 0x44 DUP3 ADD MSTORE PUSH1 0x64 SWAP1 REVERT JUMPDEST SWAP2 SWAP1 DUP3 SUB SWAP2 DUP3 GT PUSH2 0x1C08 JUMPI JUMP JUMPDEST PUSH1 0x1 PUSH1 0x1 PUSH1 0xA0 SHL SUB DUP3 DUP2 AND SWAP4 SWAP2 DUP5 ISZERO PUSH2 0x2E51 JUMPI PUSH1 0x0 SWAP5 DUP4 DUP7 MSTORE PUSH1 0x20 SWAP6 PUSH1 0x2 DUP8 MSTORE PUSH1 0x40 SWAP7 DUP5 DUP9 DUP4 KECCAK256 SLOAD AND SWAP7 CALLER ISZERO ISZERO DUP1 PUSH2 0x40D0 JUMPI JUMPDEST POP DUP8 ISZERO DUP1 ISZERO PUSH2 0x409D JUMPI JUMPDEST DUP5 DUP5 MSTORE PUSH1 0x3 DUP4 MSTORE DUP10 DUP5 KECCAK256 DUP1 SLOAD PUSH1 0x1 ADD SWAP1 SSTORE DUP8 DUP5 MSTORE PUSH1 0x2 DUP4 MSTORE DUP10 DUP5 KECCAK256 DUP1 SLOAD PUSH1 0x1 PUSH1 0x1 PUSH1 0xA0 SHL SUB NOT AND DUP7 OR SWAP1 SSTORE DUP8 DUP6 DUP11 PUSH32 0xDDF252AD1BE2C89B69C2B068FC378DAA952BA7F163C4A11628F55A4DF523B3EF DUP8 DUP1 LOG4 ISZERO PUSH2 0x4031 JUMPI PUSH1 0x8 SLOAD DUP8 DUP5 MSTORE PUSH1 0x9 DUP4 MSTORE DUP10 DUP5 KECCAK256 SSTORE PUSH2 0x3FA3 DUP8 PUSH2 0x4241 JUMP JUMPDEST DUP4 DUP9 SUB PUSH2 0x3FDF JUMPI JUMPDEST POP POP POP POP AND SWAP3 DUP4 DUP4 SUB PUSH2 0x3FBE JUMPI POP POP POP POP JUMP JUMPDEST PUSH1 0x64 SWAP5 POP MLOAD SWAP3 PUSH4 0x64283D7B PUSH1 0xE0 SHL DUP5 MSTORE PUSH1 0x4 DUP5 ADD MSTORE PUSH1 0x24 DUP4 ADD MSTORE PUSH1 0x44 DUP3 ADD MSTORE REVERT JUMPDEST PUSH2 0x3FE8 SWAP1 PUSH2 0x42C5 JUMP JUMPDEST PUSH1 0x0 NOT DUP2 ADD SWAP4 SWAP1 DUP5 GT PUSH2 0x401D JUMPI DUP3 SWAP2 PUSH1 0x7 SWAP2 DUP11 SWAP5 MSTORE PUSH1 0x6 DUP2 MSTORE DUP4 DUP4 KECCAK256 DUP6 DUP5 MSTORE DUP2 MSTORE DUP8 DUP5 DUP5 KECCAK256 SSTORE DUP8 DUP4 MSTORE MSTORE KECCAK256 SSTORE CODESIZE DUP1 DUP1 DUP1 PUSH2 0x3FAB JUMP JUMPDEST PUSH4 0x4E487B71 PUSH1 0xE0 SHL DUP4 MSTORE PUSH1 0x11 PUSH1 0x4 MSTORE PUSH1 0x24 DUP4 REVERT JUMPDEST DUP8 DUP5 EQ PUSH2 0x3FA3 JUMPI PUSH2 0x4041 DUP9 PUSH2 0x42C5 JUMP JUMPDEST DUP8 DUP5 MSTORE PUSH1 0x7 DUP4 MSTORE DUP10 DUP5 KECCAK256 SLOAD SWAP1 DUP10 DUP6 MSTORE PUSH1 0x6 DUP5 MSTORE DUP11 DUP6 KECCAK256 SWAP2 DUP2 DUP2 SUB PUSH2 0x407B JUMPI JUMPDEST POP DUP9 DUP6 MSTORE PUSH1 0x7 DUP5 MSTORE DUP5 DUP12 DUP2 KECCAK256 SSTORE DUP5 MSTORE DUP3 MSTORE DUP3 DUP10 DUP2 KECCAK256 SSTORE PUSH2 0x3FA3 JUMP JUMPDEST DUP2 DUP7 MSTORE DUP3 DUP6 MSTORE DUP12 DUP7 KECCAK256 SLOAD DUP2 DUP8 MSTORE DUP1 DUP14 DUP9 KECCAK256 SSTORE DUP7 MSTORE PUSH1 0x7 DUP6 MSTORE DUP12 DUP7 KECCAK256 SSTORE CODESIZE PUSH2 0x4060 JUMP JUMPDEST PUSH1 0x0 DUP9 DUP2 MSTORE PUSH1 0x4 PUSH1 0x20 MSTORE PUSH1 0x40 SWAP1 KECCAK256 DUP1 SLOAD PUSH1 0x1 PUSH1 0x1 PUSH1 0xA0 SHL SUB NOT AND SWAP1 SSTORE DUP9 DUP5 MSTORE PUSH1 0x3 DUP4 MSTORE DUP10 DUP5 KECCAK256 DUP1 SLOAD PUSH1 0x0 NOT ADD SWAP1 SSTORE PUSH2 0x3F35 JUMP JUMPDEST DUP1 PUSH2 0x411D JUMPI JUMPDEST ISZERO PUSH2 0x40E1 JUMPI CODESIZE PUSH2 0x3F2B JUMP JUMPDEST DUP9 DUP8 DUP10 PUSH2 0x40FE JUMPI PUSH1 0x24 SWAP2 MLOAD SWAP1 PUSH4 0x7E273289 PUSH1 0xE0 SHL DUP3 MSTORE PUSH1 0x4 DUP3 ADD MSTORE REVERT JUMPDEST SWAP1 MLOAD PUSH4 0x177E802F PUSH1 0xE0 SHL DUP2 MSTORE CALLER PUSH1 0x4 DUP3 ADD MSTORE PUSH1 0x24 DUP2 ADD SWAP2 SWAP1 SWAP2 MSTORE PUSH1 0x44 SWAP1 REVERT JUMPDEST POP CALLER DUP9 EQ DUP1 ISZERO PUSH2 0x4142 JUMPI JUMPDEST DUP1 PUSH2 0x40D6 JUMPI POP DUP7 DUP4 MSTORE PUSH1 0x4 DUP3 MSTORE CALLER DUP7 DUP11 DUP6 KECCAK256 SLOAD AND EQ PUSH2 0x40D6 JUMP JUMPDEST POP DUP8 DUP4 MSTORE PUSH1 0x5 DUP3 MSTORE DUP9 DUP4 KECCAK256 CALLER DUP5 MSTORE DUP3 MSTORE PUSH1 0xFF DUP10 DUP5 KECCAK256 SLOAD AND PUSH2 0x4128 JUMP JUMPDEST ISZERO PUSH2 0x4165 JUMPI JUMP JUMPDEST PUSH1 0x40 MLOAD PUSH3 0x461BCD PUSH1 0xE5 SHL DUP2 MSTORE PUSH1 0x20 PUSH1 0x4 DUP3 ADD MSTORE PUSH1 0x14 PUSH1 0x24 DUP3 ADD MSTORE PUSH20 0x151BDAD95B88191BD95CC81B9BDD08195E1A5CDD PUSH1 0x62 SHL PUSH1 0x44 DUP3 ADD MSTORE PUSH1 0x64 SWAP1 REVERT JUMPDEST DUP2 DUP2 MUL SWAP3 SWAP2 DUP2 ISZERO SWAP2 DUP5 DIV EQ OR ISZERO PUSH2 0x1C08 JUMPI JUMP JUMPDEST ISZERO PUSH2 0x41BB JUMPI JUMP JUMPDEST PUSH1 0x40 MLOAD PUSH3 0x461BCD PUSH1 0xE5 SHL DUP2 MSTORE PUSH1 0x20 PUSH1 0x4 DUP3 ADD MSTORE PUSH1 0xF PUSH1 0x24 DUP3 ADD MSTORE PUSH15 0x139BDD081DDA1A5D195B1A5CDD1959 PUSH1 0x8A SHL PUSH1 0x44 DUP3 ADD MSTORE PUSH1 0x64 SWAP1 REVERT JUMPDEST ISZERO PUSH2 0x41F9 JUMPI JUMP JUMPDEST PUSH1 0x40 MLOAD PUSH3 0x461BCD PUSH1 0xE5 SHL DUP2 MSTORE PUSH1 0x20 PUSH1 0x4 DUP3 ADD MSTORE PUSH1 0x11 PUSH1 0x24 DUP3 ADD MSTORE PUSH17 0x125B9D985B1A59081CD95C9A595CC81251 PUSH1 0x7A SHL PUSH1 0x44 DUP3 ADD MSTORE PUSH1 0x64 SWAP1 REVERT JUMPDEST PUSH1 0x0 NOT DUP2 EQ PUSH2 0x1C08 JUMPI PUSH1 0x1 ADD SWAP1 JUMP JUMPDEST PUSH1 0x8 SLOAD SWAP1 PUSH1 0x1 PUSH1 0x40 SHL DUP3 LT ISZERO PUSH2 0xBEE JUMPI PUSH2 0x4264 DUP3 PUSH1 0x1 PUSH2 0x427D SWAP5 ADD PUSH1 0x8 SSTORE PUSH2 0x3CF6 JUMP JUMPDEST SWAP1 SWAP2 SWAP1 DUP3 SLOAD SWAP1 PUSH1 0x3 SHL SWAP2 DUP3 SHL SWAP2 PUSH1 0x0 NOT SWAP1 SHL NOT AND OR SWAP1 SSTORE JUMP JUMPDEST JUMP JUMPDEST SWAP1 DUP2 SLOAD SWAP2 PUSH1 0x1 PUSH1 0x40 SHL DUP4 LT ISZERO PUSH2 0xBEE JUMPI DUP3 PUSH2 0x4264 SWAP2 PUSH1 0x1 PUSH2 0x427D SWAP6 ADD DUP2 SSTORE PUSH2 0x3D64 JUMP JUMPDEST PUSH1 0x18 SLOAD SWAP1 PUSH1 0x1 PUSH1 0x40 SHL DUP3 LT ISZERO PUSH2 0xBEE JUMPI PUSH2 0x1B80 DUP3 PUSH1 0x1 PUSH2 0x427D SWAP5 ADD PUSH1 0x18 SSTORE PUSH2 0x3D2D JUMP JUMPDEST PUSH1 0x1 PUSH1 0x1 PUSH1 0xA0 SHL SUB AND DUP1 ISZERO PUSH2 0x42E5 JUMPI PUSH1 0x0 MSTORE PUSH1 0x3 PUSH1 0x20 MSTORE PUSH1 0x40 PUSH1 0x0 KECCAK256 SLOAD SWAP1 JUMP JUMPDEST PUSH1 0x40 MLOAD PUSH4 0x22718AD9 PUSH1 0xE2 SHL DUP2 MSTORE PUSH1 0x0 PUSH1 0x4 DUP3 ADD MSTORE PUSH1 0x24 SWAP1 REVERT JUMPDEST SWAP1 PUSH1 0x1F DUP2 GT PUSH2 0x430C JUMPI POP POP POP JUMP JUMPDEST PUSH1 0x0 SWAP2 PUSH1 0x0 MSTORE PUSH1 0x20 PUSH1 0x0 KECCAK256 SWAP1 PUSH1 0x20 PUSH1 0x1F DUP6 ADD PUSH1 0x5 SHR DUP4 ADD SWAP5 LT PUSH2 0x434A JUMPI JUMPDEST PUSH1 0x1F ADD PUSH1 0x5 SHR ADD SWAP2 JUMPDEST DUP3 DUP2 LT PUSH2 0x433F JUMPI POP POP POP JUMP JUMPDEST DUP2 DUP2 SSTORE PUSH1 0x1 ADD PUSH2 0x4333 JUMP JUMPDEST SWAP1 SWAP3 POP DUP3 SWAP1 PUSH2 0x432A JUMP JUMPDEST PUSH2 0x435F DUP4 DUP4 DUP4 PUSH2 0x3EF8 JUMP JUMPDEST DUP2 EXTCODESIZE PUSH2 0x436C JUMPI JUMPDEST POP POP POP POP JUMP JUMPDEST PUSH1 0x40 MLOAD PUSH4 0xA85BD01 PUSH1 0xE1 SHL DUP1 DUP3 MSTORE CALLER PUSH1 0x4 DUP4 ADD MSTORE PUSH1 0x1 PUSH1 0x1 PUSH1 0xA0 SHL SUB SWAP3 DUP4 AND PUSH1 0x24 DUP4 ADD MSTORE PUSH1 0x44 DUP3 ADD SWAP5 SWAP1 SWAP5 MSTORE PUSH1 0x80 PUSH1 0x64 DUP3 ADD MSTORE PUSH1 0x20 SWAP6 SWAP3 SWAP1 SWAP2 AND SWAP4 SWAP1 SWAP3 SWAP1 DUP4 SWAP1 PUSH2 0x43BA SWAP1 PUSH1 0x84 DUP4 ADD SWAP1 PUSH2 0x3A87 JUMP JUMPDEST SUB SWAP3 DUP6 DUP2 PUSH1 0x0 SWAP6 DUP2 DUP8 DUP10 GAS CALL DUP5 SWAP2 DUP2 PUSH2 0x4463 JUMPI JUMPDEST POP PUSH2 0x442E JUMPI POP POP POP RETURNDATASIZE PUSH1 0x0 EQ PUSH2 0x4426 JUMPI RETURNDATASIZE PUSH2 0x43E8 DUP2 PUSH2 0x3DFD JUMP JUMPDEST SWAP1 PUSH2 0x43F6 PUSH1 0x40 MLOAD SWAP3 DUP4 PUSH2 0x3C1A JUMP JUMPDEST DUP2 MSTORE DUP1 SWAP2 DUP5 RETURNDATASIZE SWAP3 ADD RETURNDATACOPY JUMPDEST DUP1 MLOAD SWAP3 DUP4 PUSH2 0x4421 JUMPI PUSH1 0x40 MLOAD PUSH4 0x32505749 PUSH1 0xE1 SHL DUP2 MSTORE PUSH1 0x4 DUP2 ADD DUP5 SWAP1 MSTORE PUSH1 0x24 SWAP1 REVERT JUMPDEST ADD SWAP1 POP REVERT JUMPDEST POP PUSH1 0x60 PUSH2 0x4400 JUMP JUMPDEST SWAP2 SWAP5 POP SWAP2 POP PUSH4 0xFFFFFFFF PUSH1 0xE0 SHL AND SUB PUSH2 0x444B JUMPI POP CODESIZE DUP1 DUP1 DUP1 PUSH2 0x4366 JUMP JUMPDEST PUSH1 0x24 SWAP1 PUSH1 0x40 MLOAD SWAP1 PUSH4 0x32505749 PUSH1 0xE1 SHL DUP3 MSTORE PUSH1 0x4 DUP3 ADD MSTORE REVERT JUMPDEST SWAP1 SWAP2 POP DUP7 DUP2 DUP2 RETURNDATASIZE DUP4 GT PUSH2 0x44A0 JUMPI JUMPDEST PUSH2 0x447B DUP2 DUP4 PUSH2 0x3C1A JUMP JUMPDEST DUP2 ADD SUB SLT PUSH2 0x449C JUMPI MLOAD PUSH1 0x1 PUSH1 0x1 PUSH1 0xE0 SHL SUB NOT DUP2 AND DUP2 SUB PUSH2 0x449C JUMPI SWAP1 CODESIZE PUSH2 0x43CE JUMP JUMPDEST DUP5 DUP1 REVERT JUMPDEST POP RETURNDATASIZE PUSH2 0x4471 JUMP JUMPDEST PUSH1 0x0 DUP2 DUP2 MSTORE PUSH1 0x2 PUSH1 0x20 MSTORE PUSH1 0x40 SWAP1 KECCAK256 SLOAD PUSH2 0x44CA SWAP1 PUSH1 0x1 PUSH1 0x1 PUSH1 0xA0 SHL SUB AND ISZERO ISZERO PUSH2 0x415E JUMP JUMPDEST DUP1 PUSH1 0x0 MSTORE PUSH1 0x1C PUSH1 0x20 MSTORE PUSH1 0x40 PUSH1 0x0 KECCAK256 PUSH1 0x40 MLOAD PUSH2 0x44E4 DUP2 PUSH2 0x3B92 JUMP JUMPDEST DUP2 SLOAD DUP2 MSTORE PUSH1 0x60 PUSH1 0x3 PUSH1 0x1 DUP5 ADD SLOAD SWAP4 DUP5 PUSH1 0x20 DUP6 ADD MSTORE PUSH1 0x1 DUP1 PUSH1 0xA0 SHL SUB PUSH1 0x2 DUP3 ADD SLOAD AND PUSH1 0x40 DUP6 ADD MSTORE ADD SLOAD SWAP2 ADD MSTORE PUSH1 0x0 MSTORE PUSH1 0x1B PUSH1 0x20 MSTORE PUSH1 0x40 PUSH1 0x0 KECCAK256 SWAP1 PUSH1 0x40 MLOAD SWAP2 PUSH2 0x452A DUP4 PUSH2 0x3BAD JUMP JUMPDEST DUP1 SLOAD DUP4 MSTORE PUSH1 0x1 DUP2 ADD SLOAD PUSH1 0x1 PUSH1 0x1 PUSH1 0xA0 SHL SUB AND PUSH1 0x20 DUP5 ADD MSTORE PUSH1 0x40 MLOAD PUSH2 0x4555 DUP2 PUSH2 0x1199 DUP2 PUSH1 0x2 DUP7 ADD PUSH2 0x3AFC JUMP JUMPDEST PUSH1 0x40 DUP5 ADD MSTORE PUSH1 0x40 MLOAD PUSH2 0x456E DUP2 PUSH2 0x1199 DUP2 PUSH1 0x3 DUP7 ADD PUSH2 0x3AFC JUMP JUMPDEST PUSH1 0x60 DUP5 ADD MSTORE PUSH1 0x40 MLOAD PUSH2 0x4587 DUP2 PUSH2 0x1199 DUP2 PUSH1 0x4 DUP7 ADD PUSH2 0x3AFC JUMP JUMPDEST PUSH1 0x80 DUP5 ADD MSTORE PUSH1 0xA PUSH1 0x40 MLOAD SWAP2 PUSH2 0x45A3 DUP4 PUSH2 0x147A DUP2 PUSH1 0x5 DUP6 ADD PUSH2 0x3AFC JUMP JUMPDEST DUP3 PUSH1 0xA0 DUP7 ADD MSTORE PUSH1 0x6 DUP2 ADD SLOAD PUSH1 0xC0 DUP7 ADD MSTORE PUSH1 0x7 DUP2 ADD SLOAD PUSH1 0xE0 DUP7 ADD MSTORE PUSH1 0x8 DUP2 ADD SLOAD PUSH2 0x100 DUP7 ADD MSTORE PUSH1 0xFF PUSH1 0x9 DUP3 ADD SLOAD AND ISZERO ISZERO PUSH2 0x120 DUP7 ADD MSTORE ADD SLOAD PUSH2 0x140 DUP5 ADD MSTORE PUSH1 0x80 DUP4 ADD MLOAD DUP1 MLOAD PUSH2 0x461A JUMPI POP POP PUSH2 0x45F7 SWAP2 POP PUSH2 0x4C6C JUMP JUMPDEST POP PUSH1 0x0 PUSH1 0x40 MLOAD PUSH2 0x4606 DUP2 PUSH2 0x3BC9 JUMP JUMPDEST MSTORE PUSH1 0x40 MLOAD PUSH2 0x4613 DUP2 PUSH2 0x3BC9 JUMP JUMPDEST PUSH1 0x0 DUP2 MSTORE SWAP1 JUMP JUMPDEST PUSH1 0x33 PUSH2 0x462B PUSH2 0x468F SWAP3 SWAP5 SWAP4 SWAP5 PUSH2 0x4D57 JUMP JUMPDEST SWAP4 PUSH1 0x40 MLOAD SWAP5 DUP6 SWAP2 PUSH11 0x646174613A696D6167652F PUSH1 0xA8 SHL PUSH1 0x20 DUP5 ADD MSTORE PUSH2 0x465A DUP2 MLOAD DUP1 SWAP3 PUSH1 0x20 PUSH1 0x2B DUP8 ADD SWAP2 ADD PUSH2 0x3A64 JUMP JUMPDEST DUP3 ADD PUSH8 0xED8985CD94D8D0B PUSH1 0xC2 SHL PUSH1 0x2B DUP3 ADD MSTORE PUSH2 0x4680 DUP3 MLOAD DUP1 SWAP4 PUSH1 0x20 DUP8 DUP6 ADD SWAP2 ADD PUSH2 0x3A64 JUMP JUMPDEST ADD SUB PUSH1 0x13 DUP2 ADD DUP6 MSTORE ADD DUP4 PUSH2 0x3C1A JUMP JUMPDEST PUSH1 0x40 DUP4 ADD MLOAD SWAP2 PUSH2 0x469E DUP3 PUSH2 0x4FB3 JUMP JUMPDEST SWAP4 PUSH1 0x60 DUP2 ADD MLOAD SWAP3 PUSH2 0x46B8 PUSH2 0x46B2 DUP4 MLOAD PUSH2 0x4FB3 JUMP JUMPDEST SWAP2 PUSH2 0x4FB3 JUMP JUMPDEST SWAP1 PUSH2 0x46C6 PUSH1 0xE0 DUP5 ADD MLOAD PUSH2 0x4FB3 JUMP JUMPDEST SWAP5 PUSH2 0x46D4 PUSH1 0xC0 DUP6 ADD MLOAD PUSH2 0x4FB3 JUMP JUMPDEST PUSH2 0x46E2 PUSH1 0x80 DUP7 ADD MLOAD MLOAD PUSH2 0x4FB3 JUMP JUMPDEST PUSH1 0xA0 DUP7 ADD MLOAD PUSH1 0x20 SWAP1 SWAP7 ADD MLOAD PUSH1 0x40 MLOAD SWAP8 SWAP2 SWAP5 SWAP2 SWAP1 PUSH1 0x1 PUSH1 0x1 PUSH1 0xA0 SHL SUB AND PUSH2 0x4707 DUP10 PUSH2 0x3BE4 JUMP JUMPDEST PUSH1 0x10 DUP10 MSTORE PUSH16 0x181899199A1A9B1B9C1CB0B131B232B3 PUSH1 0x81 SHL PUSH1 0x20 DUP11 ADD MSTORE PUSH1 0x40 MLOAD SWAP9 PUSH2 0x4731 DUP11 PUSH2 0x3BFF JUMP JUMPDEST PUSH1 0x2A DUP11 MSTORE PUSH1 0x40 CALLDATASIZE PUSH1 0x20 DUP13 ADD CALLDATACOPY DUP10 MLOAD ISZERO PUSH2 0x23C6 JUMPI PUSH1 0x30 PUSH1 0x20 DUP12 ADD MSTORE8 DUP10 MLOAD PUSH1 0x1 LT ISZERO PUSH2 0x23C6 JUMPI PUSH1 0x78 PUSH1 0x21 DUP12 ADD MSTORE8 PUSH1 0x0 JUMPDEST PUSH1 0x14 DUP2 LT PUSH2 0x4BC5 JUMPI POP POP POP PUSH1 0x40 MLOAD SWAP11 DUP12 DUP1 SWAP12 PUSH9 0x3D913730B6B2911D11 PUSH1 0xB9 SHL PUSH1 0x20 DUP4 ADD MSTORE DUP1 MLOAD PUSH1 0x29 DUP2 SWAP4 ADD SWAP2 PUSH1 0x20 ADD SWAP2 PUSH2 0x4798 SWAP3 PUSH2 0x3A64 JUMP JUMPDEST DUP12 ADD PUSH1 0x29 DUP2 ADD PUSH2 0x2023 PUSH1 0xF0 SHL SWAP1 MSTORE DUP2 MLOAD SWAP2 DUP3 PUSH1 0x2B DUP4 ADD SWAP2 PUSH1 0x20 ADD SWAP2 PUSH2 0x47BC SWAP3 PUSH2 0x3A64 JUMP JUMPDEST ADD SWAP4 PUSH2 0x88B PUSH1 0xF2 SHL SWAP5 DUP6 PUSH1 0x2B DUP3 ADD MSTORE PUSH15 0x113232B9B1B934B83A34B7B7111D11 PUSH1 0x89 SHL PUSH1 0x2D DUP3 ADD MSTORE DUP2 MLOAD SWAP2 DUP3 PUSH1 0x3C DUP4 ADD SWAP2 PUSH1 0x20 ADD SWAP2 PUSH2 0x47F9 SWAP3 PUSH2 0x3A64 JUMP JUMPDEST ADD DUP5 PUSH1 0x3C DUP3 ADD MSTORE PUSH9 0x1134B6B0B3B2911D11 PUSH1 0xB9 SHL PUSH1 0x3E DUP3 ADD MSTORE DUP2 MLOAD SWAP2 DUP3 PUSH1 0x47 DUP4 ADD SWAP2 PUSH1 0x20 ADD SWAP2 PUSH2 0x4828 SWAP3 PUSH2 0x3A64 JUMP JUMPDEST ADD PUSH1 0x47 DUP2 ADD SWAP4 SWAP1 SWAP4 MSTORE PUSH14 0x2261747472696275746573223A5B PUSH1 0x90 SHL PUSH1 0x49 DUP5 ADD MSTORE PUSH32 0x7B2274726169745F74797065223A22546F6B656E205374616E64617264222C22 PUSH1 0x57 DUP5 ADD MSTORE PUSH18 0x1D985B1D59488E88915490CB4DCC8C489F4B PUSH1 0x72 SHL PUSH1 0x77 DUP5 ADD MSTORE PUSH32 0x7B2274726169745F74797065223A2253746F72616765222C2276616C7565223A PUSH1 0x89 DUP5 ADD MSTORE PUSH12 0x893DB8B58DA185A5B889F4B PUSH1 0xA2 SHL PUSH1 0xA9 DUP5 ADD MSTORE PUSH32 0x7B2274726169745F74797065223A22536572696573204944222C2276616C7565 PUSH1 0xB5 DUP5 ADD MSTORE PUSH2 0x111D PUSH1 0xF1 SHL PUSH1 0xD5 DUP5 ADD DUP2 SWAP1 MSTORE DUP2 MLOAD SWAP1 SWAP4 SWAP1 SWAP2 PUSH2 0x4910 SWAP1 DUP4 SWAP1 PUSH1 0xD7 DUP5 ADD SWAP1 PUSH1 0x20 ADD PUSH2 0x3A64 JUMP JUMPDEST ADD SWAP1 PUSH2 0x1F4B PUSH1 0xF2 SHL DUP1 SWAP6 DUP4 DUP3 PUSH1 0xD7 DUP2 SWAP7 ADD MSTORE PUSH1 0xD9 DUP2 ADD PUSH32 0x7B2274726169745F74797065223A2245646974696F6E222C2276616C7565223A SWAP1 MSTORE DUP2 MLOAD SWAP2 DUP3 PUSH1 0xF9 DUP4 ADD SWAP2 PUSH1 0x20 ADD SWAP2 PUSH2 0x495F SWAP3 PUSH2 0x3A64 JUMP JUMPDEST ADD SWAP9 DUP2 PUSH1 0xF9 DUP12 ADD MSTORE PUSH1 0xFB DUP11 ADD PUSH32 0x7B2274726169745F74797065223A224D617820537570706C79222C2276616C75 SWAP1 MSTORE PUSH3 0x32911D PUSH1 0xE9 SHL PUSH2 0x11B DUP12 ADD MSTORE PUSH2 0x11E SWAP10 DUP2 MLOAD SWAP2 DUP3 DUP13 DUP4 ADD SWAP2 PUSH1 0x20 ADD SWAP2 PUSH2 0x49B4 SWAP3 PUSH2 0x3A64 JUMP JUMPDEST ADD SWAP9 DUP10 ADD MSTORE PUSH32 0x7B2274726169745F74797065223A225072696365202857656929222C2276616C PUSH2 0x120 DUP10 ADD MSTORE PUSH4 0x3AB2911D PUSH1 0xE1 SHL PUSH2 0x140 DUP10 ADD MSTORE DUP1 MLOAD PUSH2 0x144 SWAP9 SWAP1 SWAP2 PUSH2 0x4A08 SWAP1 DUP4 SWAP1 DUP12 DUP5 ADD SWAP1 PUSH1 0x20 ADD PUSH2 0x3A64 JUMP JUMPDEST ADD SWAP7 DUP8 ADD MSTORE PUSH2 0x146 DUP7 ADD PUSH32 0x7B2274726169745F74797065223A2246696C652053697A65222C2276616C7565 SWAP1 MSTORE PUSH2 0x166 DUP7 ADD MSTORE PUSH2 0x168 SWAP5 DUP2 MLOAD SWAP2 DUP3 DUP8 DUP4 ADD SWAP2 PUSH1 0x20 ADD SWAP2 PUSH2 0x4A54 SWAP3 PUSH2 0x3A64 JUMP JUMPDEST ADD SWAP4 DUP5 ADD MSTORE PUSH32 0x7B2274726169745F74797065223A2246696C652054797065222C2276616C7565 PUSH2 0x16A DUP5 ADD MSTORE PUSH3 0x111D11 PUSH1 0xE9 SHL PUSH2 0x18A DUP5 ADD MSTORE DUP1 MLOAD PUSH2 0x18D SWAP4 SWAP1 SWAP2 PUSH2 0x4AA7 SWAP1 DUP4 SWAP1 DUP7 DUP5 ADD SWAP1 PUSH1 0x20 ADD PUSH2 0x3A64 JUMP JUMPDEST PUSH3 0x89F4B PUSH1 0xEA SHL SWAP2 ADD SWAP3 DUP4 ADD MSTORE PUSH32 0x7B2274726169745F74797065223A2243726561746F72222C2276616C7565223A PUSH2 0x190 DUP4 ADD MSTORE PUSH1 0x11 PUSH1 0xF9 SHL PUSH2 0x1B0 DUP4 ADD MSTORE DUP1 MLOAD PUSH2 0x1B1 SWAP3 SWAP1 SWAP2 PUSH2 0x4B00 SWAP1 DUP4 SWAP1 DUP6 DUP5 ADD SWAP1 PUSH1 0x20 ADD PUSH2 0x3A64 JUMP JUMPDEST PUSH2 0x227D PUSH1 0xF0 SHL SWAP2 ADD SWAP2 DUP3 ADD MSTORE PUSH2 0x174B PUSH1 0xF2 SHL PUSH2 0x1B3 DUP3 ADD MSTORE PUSH32 0x2270726F70657274696573223A7B2263617465676F7279223A22696D61676522 PUSH2 0x1B5 DUP3 ADD MSTORE PUSH2 0x7D7D PUSH1 0xF0 SHL PUSH2 0x1D5 DUP3 ADD MSTORE SUB PUSH2 0x1B7 DUP2 ADD DUP3 MSTORE PUSH2 0x4B61 SWAP1 PUSH2 0x1D7 ADD DUP3 PUSH2 0x3C1A JUMP JUMPDEST PUSH2 0x4B6A SWAP1 PUSH2 0x4D57 JUMP JUMPDEST PUSH1 0x40 MLOAD DUP1 SWAP2 PUSH1 0x20 DUP3 ADD PUSH32 0x646174613A6170706C69636174696F6E2F6A736F6E3B6261736536342C000000 SWAP1 MSTORE DUP1 MLOAD SWAP1 DUP2 PUSH1 0x3D DUP5 ADD SWAP2 PUSH1 0x20 ADD SWAP2 PUSH2 0x4BAC SWAP3 PUSH2 0x3A64 JUMP JUMPDEST DUP2 ADD SUB PUSH1 0x1D DUP2 ADD DUP3 MSTORE PUSH1 0x3D ADD PUSH2 0x4BC2 SWAP1 DUP3 PUSH2 0x3C1A JUMP JUMPDEST SWAP1 JUMP JUMPDEST PUSH1 0xC DUP2 ADD DUP2 GT PUSH2 0x1C08 JUMPI PUSH1 0x20 PUSH1 0xC DUP3 ADD LT ISZERO PUSH2 0x23C6 JUMPI DUP3 PUSH1 0xC DUP3 ADD BYTE PUSH1 0xFF PUSH1 0xF8 SHL PUSH2 0x4BF6 PUSH1 0xF DUP4 PUSH1 0x4 SHR AND DUP6 PUSH2 0x4D46 JUMP JUMPDEST MLOAD AND DUP3 DUP1 PUSH1 0x1 SHL DIV PUSH1 0x2 EQ DUP4 ISZERO OR ISZERO PUSH2 0x1C08 JUMPI DUP3 PUSH1 0x1 SHL PUSH1 0x2 ADD SWAP1 DUP2 PUSH1 0x2 GT PUSH2 0x1C08 JUMPI PUSH1 0x0 BYTE SWAP1 PUSH2 0x4C27 SWAP1 DUP15 PUSH2 0x4D46 JUMP JUMPDEST MSTORE8 PUSH1 0x1 PUSH1 0x1 PUSH1 0xF8 SHL SUB NOT SWAP1 PUSH2 0x4C3F SWAP1 PUSH1 0xF AND DUP5 PUSH2 0x4D46 JUMP JUMPDEST MLOAD AND SWAP1 DUP1 PUSH1 0x1 SHL PUSH1 0x3 ADD PUSH1 0x3 GT PUSH2 0x1C08 JUMPI PUSH1 0x1 SWAP2 PUSH1 0x0 BYTE PUSH2 0x4C65 PUSH1 0x3 DUP4 DUP6 SHL ADD DUP15 PUSH2 0x4D46 JUMP JUMPDEST MSTORE8 ADD PUSH2 0x475F JUMP JUMPDEST PUSH1 0x0 DUP2 DUP2 MSTORE PUSH1 0x2 PUSH1 0x20 MSTORE PUSH1 0x40 SWAP1 KECCAK256 SLOAD PUSH1 0x1 PUSH1 0x1 PUSH1 0xA0 SHL SUB AND SWAP1 DUP2 ISZERO PUSH2 0x4C8F JUMPI POP SWAP1 JUMP JUMPDEST PUSH1 0x24 SWAP1 PUSH1 0x40 MLOAD SWAP1 PUSH4 0x7E273289 PUSH1 0xE0 SHL DUP3 MSTORE PUSH1 0x4 DUP3 ADD MSTORE REVERT JUMPDEST PUSH1 0xA SLOAD PUSH1 0x1 PUSH1 0x1 PUSH1 0xA0 SHL SUB AND CALLER SUB PUSH2 0x4CBB JUMPI JUMP JUMPDEST PUSH1 0x40 MLOAD PUSH4 0x118CDAA7 PUSH1 0xE0 SHL DUP2 MSTORE CALLER PUSH1 0x4 DUP3 ADD MSTORE PUSH1 0x24 SWAP1 REVERT JUMPDEST PUSH1 0xFF PUSH1 0xC SLOAD AND PUSH2 0x4CDF JUMPI JUMP JUMPDEST PUSH1 0x40 MLOAD PUSH4 0xD93C0665 PUSH1 0xE0 SHL DUP2 MSTORE PUSH1 0x4 SWAP1 REVERT JUMPDEST PUSH1 0x2 PUSH1 0xB SLOAD EQ PUSH2 0x4D02 JUMPI PUSH1 0x2 PUSH1 0xB SSTORE JUMP JUMPDEST PUSH1 0x40 MLOAD PUSH4 0x3EE5AEB5 PUSH1 0xE0 SHL DUP2 MSTORE PUSH1 0x4 SWAP1 REVERT JUMPDEST SWAP1 PUSH2 0x4D1E DUP3 PUSH2 0x3DFD JUMP JUMPDEST PUSH2 0x4D2B PUSH1 0x40 MLOAD SWAP2 DUP3 PUSH2 0x3C1A JUMP JUMPDEST DUP3 DUP2 MSTORE DUP1 SWAP3 PUSH2 0x4D3C PUSH1 0x1F NOT SWAP2 PUSH2 0x3DFD JUMP JUMPDEST ADD SWAP1 PUSH1 0x20 CALLDATASIZE SWAP2 ADD CALLDATACOPY JUMP JUMPDEST SWAP1 DUP2 MLOAD DUP2 LT ISZERO PUSH2 0x23C6 JUMPI ADD PUSH1 0x20 ADD SWAP1 JUMP JUMPDEST SWAP1 DUP2 MLOAD ISZERO PUSH2 0x4FA5 JUMPI PUSH1 0x40 MLOAD SWAP2 PUSH2 0x4D6C DUP4 PUSH2 0x3BFF JUMP JUMPDEST PUSH1 0x40 DUP4 MSTORE PUSH32 0x4142434445464748494A4B4C4D4E4F505152535455565758595A616263646566 PUSH1 0x20 DUP5 ADD MSTORE PUSH32 0x6768696A6B6C6D6E6F707172737475767778797A303132333435363738392B2F PUSH1 0x40 DUP5 ADD MSTORE DUP1 MLOAD SWAP2 PUSH1 0x2 SWAP1 PUSH1 0x2 DUP5 ADD DUP1 SWAP5 GT PUSH2 0x1C08 JUMPI PUSH1 0x3 SWAP4 DUP5 SWAP1 DIV PUSH1 0x2 DUP2 SWAP1 SHL SWAP6 SWAP1 PUSH1 0x1 PUSH1 0x1 PUSH1 0xFE SHL SUB DUP2 AND SUB PUSH2 0x1C08 JUMPI PUSH2 0x4DF2 DUP7 PUSH2 0x4D14 JUMP JUMPDEST SWAP4 PUSH1 0x0 SWAP3 DUP4 JUMPDEST DUP3 MLOAD DUP2 LT ISZERO PUSH2 0x4F33 JUMPI PUSH2 0x4E0B DUP2 DUP5 PUSH2 0x4D46 JUMP JUMPDEST MLOAD PUSH1 0x1 DUP3 ADD DUP1 DUP4 GT PUSH2 0x1C08 JUMPI DUP5 MLOAD PUSH1 0x0 SWAP2 SWAP1 DUP2 LT ISZERO PUSH2 0x4F2C JUMPI PUSH2 0x4E2F SWAP2 POP DUP6 PUSH2 0x4D46 JUMP JUMPDEST MLOAD PUSH1 0xF8 SHR SWAP1 JUMPDEST DUP8 DUP4 ADD DUP1 DUP5 GT PUSH2 0x1C08 JUMPI DUP6 MLOAD PUSH3 0xFF0000 SWAP2 PUSH1 0x0 SWAP2 DUP2 LT ISZERO PUSH2 0x4F25 JUMPI PUSH2 0x4E5B SWAP2 POP DUP8 PUSH2 0x4D46 JUMP JUMPDEST MLOAD PUSH1 0xF8 SHR SWAP3 JUMPDEST PUSH1 0x8 SHL SWAP2 PUSH1 0xE8 SHR AND OR OR PUSH2 0x4EE9 PUSH1 0xFF PUSH1 0xF8 SHL SWAP2 PUSH1 0x3F SWAP1 DUP4 PUSH2 0x4E87 DUP4 DUP4 PUSH1 0x12 SHR AND DUP11 PUSH2 0x4D46 JUMP JUMPDEST MLOAD AND SWAP9 PUSH2 0x4EA1 PUSH2 0x4E96 DUP3 PUSH2 0x4232 JUMP JUMPDEST SWAP11 PUSH1 0x0 BYTE SWAP2 DUP14 PUSH2 0x4D46 JUMP JUMPDEST MSTORE8 DUP4 PUSH2 0x4EB2 DUP4 DUP4 PUSH1 0xC SHR AND DUP11 PUSH2 0x4D46 JUMP JUMPDEST MLOAD AND SWAP9 PUSH2 0x4EC1 PUSH2 0x4E96 DUP3 PUSH2 0x4232 JUMP JUMPDEST MSTORE8 DUP4 PUSH2 0x4ED2 DUP4 DUP4 PUSH1 0x6 SHR AND DUP11 PUSH2 0x4D46 JUMP JUMPDEST MLOAD AND SWAP9 PUSH2 0x4EE1 PUSH2 0x4E96 DUP3 PUSH2 0x4232 JUMP JUMPDEST MSTORE8 AND DUP7 PUSH2 0x4D46 JUMP JUMPDEST MLOAD AND SWAP5 PUSH2 0x4F03 PUSH2 0x4EF8 DUP3 PUSH2 0x4232 JUMP JUMPDEST SWAP7 PUSH1 0x0 BYTE SWAP2 DUP10 PUSH2 0x4D46 JUMP JUMPDEST MSTORE8 DUP8 DUP2 ADD DUP1 SWAP2 GT ISZERO PUSH2 0x4DF8 JUMPI PUSH4 0x4E487B71 PUSH1 0xE0 SHL PUSH1 0x0 MSTORE PUSH1 0x11 PUSH1 0x4 MSTORE PUSH1 0x24 PUSH1 0x0 REVERT JUMPDEST POP SWAP3 PUSH2 0x4E61 JUMP JUMPDEST POP SWAP1 PUSH2 0x4E35 JUMP JUMPDEST POP SWAP7 SWAP5 SWAP6 POP SWAP2 POP POP PUSH1 0x3 SWAP2 POP MLOAD MOD PUSH1 0x1 DUP2 EQ PUSH1 0x0 EQ PUSH2 0x4F82 JUMPI POP PUSH1 0x0 NOT DUP2 ADD DUP2 DUP2 GT PUSH2 0x1C08 JUMPI PUSH2 0x4F65 PUSH1 0x3D SWAP2 DUP5 PUSH2 0x4D46 JUMP JUMPDEST MSTORE8 PUSH1 0x1 NOT DUP2 ADD SWAP1 DUP2 GT PUSH2 0x1C08 JUMPI PUSH2 0x4F7E PUSH1 0x3D SWAP2 DUP4 PUSH2 0x4D46 JUMP JUMPDEST MSTORE8 SWAP1 JUMP JUMPDEST PUSH1 0x2 EQ PUSH2 0x4F8D JUMPI POP SWAP1 JUMP JUMPDEST PUSH1 0x0 NOT DUP2 ADD SWAP1 DUP2 GT PUSH2 0x1C08 JUMPI PUSH2 0x4F7E PUSH1 0x3D SWAP2 DUP4 PUSH2 0x4D46 JUMP JUMPDEST SWAP1 POP PUSH1 0x40 MLOAD PUSH2 0x4613 DUP2 PUSH2 0x3BC9 JUMP JUMPDEST DUP1 ISZERO PUSH2 0x5033 JUMPI DUP1 PUSH1 0x0 DUP2 DUP1 JUMPDEST PUSH2 0x501B JUMPI POP PUSH2 0x4FCD DUP2 PUSH2 0x4D14 JUMP JUMPDEST SWAP3 JUMPDEST PUSH2 0x4FD8 JUMPI POP POP SWAP1 JUMP JUMPDEST PUSH1 0x0 NOT DUP2 ADD SWAP1 DUP2 GT PUSH2 0x1C08 JUMPI DUP1 SWAP2 PUSH1 0xA SWAP2 PUSH1 0x30 DUP4 DUP4 MOD DUP2 ADD DUP1 SWAP2 GT PUSH2 0x1C08 JUMPI PUSH1 0xF8 SHL PUSH1 0x1 PUSH1 0x1 PUSH1 0xF8 SHL SUB NOT AND PUSH1 0x0 BYTE SWAP1 PUSH2 0x5012 SWAP1 DUP7 PUSH2 0x4D46 JUMP JUMPDEST MSTORE8 DIV SWAP1 DUP2 PUSH2 0x4FCF JUMP JUMPDEST SWAP2 POP PUSH2 0x5028 PUSH1 0xA SWAP2 PUSH2 0x4232 JUMP JUMPDEST SWAP2 DIV DUP1 DUP4 SWAP3 SWAP2 PUSH2 0x4FBF JUMP JUMPDEST POP PUSH1 0x40 MLOAD PUSH2 0x5040 DUP2 PUSH2 0x3BE4 JUMP JUMPDEST PUSH1 0x1 DUP2 MSTORE PUSH1 0x3 PUSH1 0xFC SHL PUSH1 0x20 DUP3 ADD MSTORE SWAP1 JUMP JUMPDEST SWAP1 PUSH1 0x40 MLOAD SWAP2 PUSH1 0x20 SWAP3 PUSH2 0x507F DUP5 DUP3 DUP2 PUSH2 0x5072 DUP2 DUP4 ADD SWAP7 DUP8 DUP2 MLOAD SWAP4 DUP5 SWAP3 ADD PUSH2 0x3A64 JUMP JUMPDEST DUP2 ADD SUB DUP1 DUP5 MSTORE ADD DUP3 PUSH2 0x3C1A JUMP JUMPDEST MLOAD SWAP1 KECCAK256 SWAP2 PUSH2 0x509F PUSH1 0x40 MLOAD SWAP2 DUP3 DUP2 PUSH2 0x5072 DUP2 DUP4 ADD SWAP7 DUP8 DUP2 MLOAD SWAP4 DUP5 SWAP3 ADD PUSH2 0x3A64 JUMP JUMPDEST MLOAD SWAP1 KECCAK256 EQ SWAP1 JUMP INVALID LOG2 PUSH5 0x6970667358 0x22 SLT KECCAK256 SHR 0xAB DUP6 0xAA SWAP7 0xD5 0xE4 SWAP3 MSTORE8 SWAP4 PUSH21 0x2534DD6EB975F1A65D7D143B7F6D1ED136F7E7746B PUSH5 0x736F6C6343 STOP ADDMOD XOR STOP CALLER "},"methodIdentifiers":{"MAX_PLATFORM_FEE()":"3998a681","addAdmin(address)":"70480275","adminAddressList(uint256)":"6e977223","adminAddresses(address)":"4ed38faf","approve(address,uint256)":"095ea7b3","approveAddresses(address[])":"f0f4d0cb","artistProfiles(address)":"171212d5","artistSeries(address,uint256)":"6980d1a4","artworkSeries(uint256)":"466e0a8e","balanceOf(address)":"70a08231","collectorTokens(address,uint256)":"5024fd8c","createArtworkSeries(string,string,bytes,string,uint256,uint256)":"cd28774d","getAdminAddresses()":"64ddfa29","getApproved(uint256)":"081812fc","getArtistProfile(address)":"b3b30640","getArtistSeries(address)":"393dbf9b","getArtworkImageData(uint256)":"3b5221e2","getArtworkSeries(uint256)":"b6d8ed16","getCollectorTokens(address)":"e0f8b313","getCurrentSeriesId()":"8043c6c0","getCurrentTokenId()":"56189236","getIndividualArtwork(uint256)":"47f60fc0","getInterestedAddresses()":"8dc8b4da","getSecondaryFees(uint256,uint256)":"b7195763","getSeriesTokens(uint256)":"44e433d0","getWhitelistedAddresses()":"6d028027","individualArtworks(uint256)":"67de246c","interestedAddressList(uint256)":"e084ffda","interestedAddresses(address)":"4bf56fd1","isAdmin(address)":"24d7806c","isApprovedForAll(address,address)":"e985e9c5","isInterested(address)":"62afcf00","isWhitelistEnabled()":"184d69ab","isWhitelisted(address)":"3af32abf","name()":"06fdde03","owner()":"8da5cb5b","ownerOf(uint256)":"6352211e","pause()":"8456cb59","paused()":"5c975abb","platformFeePercentage()":"cdd78cfc","purchaseFromSeries(uint256)":"3dead461","registerInterest()":"5f5fff4d","removeAdmin(address)":"1785f53c","removeFromWhitelist(address)":"8ab1d681","renounceOwnership()":"715018a6","royaltyInfo(uint256,uint256)":"2a55205a","safeTransferFrom(address,address,uint256)":"42842e0e","safeTransferFrom(address,address,uint256,bytes)":"b88d4fde","secondaryArtistRoyalty()":"ecceec82","secondaryPlatformFee()":"489b3711","seriesTokens(uint256,uint256)":"2b14d65a","setApprovalForAll(address,bool)":"a22cb465","setPlatformFee(uint256)":"12e8e2c3","setSecondaryFees(uint256,uint256)":"1447ba1c","setTreasuryAddress(address)":"6605bfda","supportsInterface(bytes4)":"01ffc9a7","symbol()":"95d89b41","toggleSeriesStatus(uint256)":"0a92dd53","toggleWhitelist()":"7e15144b","tokenByIndex(uint256)":"4f6ccce7","tokenOfOwnerByIndex(address,uint256)":"2f745c59","tokenURI(uint256)":"c87b56dd","totalSupply()":"18160ddd","transferFrom(address,address,uint256)":"23b872dd","transferOwnership(address)":"f2fde38b","treasuryAddress()":"c5f956af","unpause()":"3f4ba83a","updateArtistProfile(string,string,string)":"b23cd1a6","updateSeriesPrice(uint256,uint256)":"56fb0139","whitelistEnabled()":"51fb012d","whitelistedAddressList(uint256)":"63c770d8","whitelistedAddresses(address)":"06c933d8"}}}}}