{"contracts/PermalinkMarketplaceERC721.sol":{"PermalinkMarketplace":{"abi":[{"inputs":[{"internalType":"address","name":"_permalinkNFT","type":"address"},{"internalType":"address","name":"_permalinkContract","type":"address"},{"internalType":"address","name":"_platformTreasury","type":"address"},{"internalType":"address","name":"initialOwner","type":"address"}],"stateMutability":"nonpayable","type":"constructor"},{"inputs":[],"name":"EnforcedPause","type":"error"},{"inputs":[],"name":"ExpectedPause","type":"error"},{"inputs":[{"internalType":"address","name":"owner","type":"address"}],"name":"OwnableInvalidOwner","type":"error"},{"inputs":[{"internalType":"address","name":"account","type":"address"}],"name":"OwnableUnauthorizedAccount","type":"error"},{"inputs":[],"name":"ReentrancyGuardReentrantCall","type":"error"},{"anonymous":false,"inputs":[{"indexed":true,"internalType":"bytes32","name":"listingId","type":"bytes32"},{"indexed":true,"internalType":"uint256","name":"tokenId","type":"uint256"},{"indexed":true,"internalType":"address","name":"seller","type":"address"},{"indexed":false,"internalType":"uint256","name":"price","type":"uint256"}],"name":"Listed","type":"event"},{"anonymous":false,"inputs":[{"indexed":true,"internalType":"bytes32","name":"offerId","type":"bytes32"},{"indexed":true,"internalType":"uint256","name":"tokenId","type":"uint256"},{"indexed":true,"internalType":"address","name":"seller","type":"address"},{"indexed":false,"internalType":"address","name":"buyer","type":"address"},{"indexed":false,"internalType":"uint256","name":"price","type":"uint256"}],"name":"OfferAccepted","type":"event"},{"anonymous":false,"inputs":[{"indexed":true,"internalType":"bytes32","name":"offerId","type":"bytes32"},{"indexed":true,"internalType":"address","name":"buyer","type":"address"}],"name":"OfferCancelled","type":"event"},{"anonymous":false,"inputs":[{"indexed":true,"internalType":"bytes32","name":"offerId","type":"bytes32"},{"indexed":true,"internalType":"uint256","name":"tokenId","type":"uint256"},{"indexed":true,"internalType":"address","name":"buyer","type":"address"},{"indexed":false,"internalType":"uint256","name":"price","type":"uint256"},{"indexed":false,"internalType":"uint256","name":"expiresAt","type":"uint256"}],"name":"OfferMade","type":"event"},{"anonymous":false,"inputs":[{"indexed":true,"internalType":"address","name":"previousOwner","type":"address"},{"indexed":true,"internalType":"address","name":"newOwner","type":"address"}],"name":"OwnershipTransferred","type":"event"},{"anonymous":false,"inputs":[{"indexed":false,"internalType":"address","name":"account","type":"address"}],"name":"Paused","type":"event"},{"anonymous":false,"inputs":[{"indexed":true,"internalType":"bytes32","name":"listingId","type":"bytes32"},{"indexed":true,"internalType":"uint256","name":"tokenId","type":"uint256"},{"indexed":true,"internalType":"address","name":"seller","type":"address"},{"indexed":false,"internalType":"address","name":"buyer","type":"address"},{"indexed":false,"internalType":"uint256","name":"price","type":"uint256"},{"indexed":false,"internalType":"uint256","name":"artistRoyalty","type":"uint256"},{"indexed":false,"internalType":"uint256","name":"platformRoyalty","type":"uint256"},{"indexed":false,"internalType":"uint256","name":"marketplaceFee","type":"uint256"}],"name":"Sale","type":"event"},{"anonymous":false,"inputs":[{"indexed":true,"internalType":"bytes32","name":"listingId","type":"bytes32"},{"indexed":true,"internalType":"address","name":"seller","type":"address"}],"name":"Unlisted","type":"event"},{"anonymous":false,"inputs":[{"indexed":false,"internalType":"address","name":"account","type":"address"}],"name":"Unpaused","type":"event"},{"inputs":[],"name":"MAX_MARKETPLACE_FEE","outputs":[{"internalType":"uint256","name":"","type":"uint256"}],"stateMutability":"view","type":"function"},{"inputs":[{"internalType":"bytes32","name":"offerId","type":"bytes32"}],"name":"acceptOffer","outputs":[],"stateMutability":"nonpayable","type":"function"},{"inputs":[{"internalType":"bytes32","name":"listingId","type":"bytes32"}],"name":"buyFromListing","outputs":[],"stateMutability":"payable","type":"function"},{"inputs":[{"internalType":"bytes32","name":"listingId","type":"bytes32"}],"name":"cancelListing","outputs":[],"stateMutability":"nonpayable","type":"function"},{"inputs":[{"internalType":"bytes32","name":"offerId","type":"bytes32"}],"name":"cancelOffer","outputs":[],"stateMutability":"nonpayable","type":"function"},{"inputs":[{"internalType":"uint256","name":"tokenId","type":"uint256"},{"internalType":"uint256","name":"price","type":"uint256"}],"name":"createListing","outputs":[{"internalType":"bytes32","name":"","type":"bytes32"}],"stateMutability":"nonpayable","type":"function"},{"inputs":[],"name":"emergencyWithdraw","outputs":[],"stateMutability":"nonpayable","type":"function"},{"inputs":[{"internalType":"bytes32","name":"listingId","type":"bytes32"}],"name":"getListing","outputs":[{"internalType":"uint256","name":"tokenId","type":"uint256"},{"internalType":"uint256","name":"price","type":"uint256"},{"internalType":"address","name":"seller","type":"address"},{"internalType":"uint256","name":"listedAt","type":"uint256"},{"internalType":"bool","name":"isActive","type":"bool"}],"stateMutability":"view","type":"function"},{"inputs":[{"internalType":"bytes32","name":"offerId","type":"bytes32"}],"name":"getOffer","outputs":[{"internalType":"uint256","name":"tokenId","type":"uint256"},{"internalType":"uint256","name":"price","type":"uint256"},{"internalType":"address","name":"buyer","type":"address"},{"internalType":"uint256","name":"expiresAt","type":"uint256"},{"internalType":"bool","name":"isActive","type":"bool"}],"stateMutability":"view","type":"function"},{"inputs":[{"internalType":"uint256","name":"tokenId","type":"uint256"}],"name":"getTokenListings","outputs":[{"internalType":"bytes32[]","name":"","type":"bytes32[]"}],"stateMutability":"view","type":"function"},{"inputs":[{"internalType":"uint256","name":"tokenId","type":"uint256"}],"name":"getTokenOffers","outputs":[{"internalType":"bytes32[]","name":"","type":"bytes32[]"}],"stateMutability":"view","type":"function"},{"inputs":[{"internalType":"address","name":"user","type":"address"}],"name":"getUserListings","outputs":[{"internalType":"bytes32[]","name":"","type":"bytes32[]"}],"stateMutability":"view","type":"function"},{"inputs":[{"internalType":"address","name":"user","type":"address"}],"name":"getUserOffers","outputs":[{"internalType":"bytes32[]","name":"","type":"bytes32[]"}],"stateMutability":"view","type":"function"},{"inputs":[{"internalType":"bytes32","name":"","type":"bytes32"}],"name":"listings","outputs":[{"internalType":"uint256","name":"tokenId","type":"uint256"},{"internalType":"uint256","name":"price","type":"uint256"},{"internalType":"address","name":"seller","type":"address"},{"internalType":"uint256","name":"listedAt","type":"uint256"},{"internalType":"bool","name":"isActive","type":"bool"}],"stateMutability":"view","type":"function"},{"inputs":[{"internalType":"uint256","name":"tokenId","type":"uint256"},{"internalType":"uint256","name":"duration","type":"uint256"}],"name":"makeOffer","outputs":[{"internalType":"bytes32","name":"","type":"bytes32"}],"stateMutability":"payable","type":"function"},{"inputs":[],"name":"marketplaceFee","outputs":[{"internalType":"uint256","name":"","type":"uint256"}],"stateMutability":"view","type":"function"},{"inputs":[{"internalType":"bytes32","name":"","type":"bytes32"}],"name":"offers","outputs":[{"internalType":"uint256","name":"tokenId","type":"uint256"},{"internalType":"uint256","name":"price","type":"uint256"},{"internalType":"address","name":"buyer","type":"address"},{"internalType":"uint256","name":"expiresAt","type":"uint256"},{"internalType":"bool","name":"isActive","type":"bool"}],"stateMutability":"view","type":"function"},{"inputs":[{"internalType":"address","name":"","type":"address"},{"internalType":"address","name":"","type":"address"},{"internalType":"uint256","name":"","type":"uint256"},{"internalType":"bytes","name":"","type":"bytes"}],"name":"onERC721Received","outputs":[{"internalType":"bytes4","name":"","type":"bytes4"}],"stateMutability":"nonpayable","type":"function"},{"inputs":[],"name":"owner","outputs":[{"internalType":"address","name":"","type":"address"}],"stateMutability":"view","type":"function"},{"inputs":[],"name":"pause","outputs":[],"stateMutability":"nonpayable","type":"function"},{"inputs":[],"name":"paused","outputs":[{"internalType":"bool","name":"","type":"bool"}],"stateMutability":"view","type":"function"},{"inputs":[],"name":"permalinkContract","outputs":[{"internalType":"contract IPermalinkERC721","name":"","type":"address"}],"stateMutability":"view","type":"function"},{"inputs":[],"name":"permalinkNFT","outputs":[{"internalType":"contract IERC721","name":"","type":"address"}],"stateMutability":"view","type":"function"},{"inputs":[],"name":"platformTreasury","outputs":[{"internalType":"address","name":"","type":"address"}],"stateMutability":"view","type":"function"},{"inputs":[],"name":"renounceOwnership","outputs":[],"stateMutability":"nonpayable","type":"function"},{"inputs":[{"internalType":"uint256","name":"_fee","type":"uint256"}],"name":"setMarketplaceFee","outputs":[],"stateMutability":"nonpayable","type":"function"},{"inputs":[{"internalType":"uint256","name":"","type":"uint256"},{"internalType":"uint256","name":"","type":"uint256"}],"name":"tokenListings","outputs":[{"internalType":"bytes32","name":"","type":"bytes32"}],"stateMutability":"view","type":"function"},{"inputs":[{"internalType":"uint256","name":"","type":"uint256"},{"internalType":"uint256","name":"","type":"uint256"}],"name":"tokenOffers","outputs":[{"internalType":"bytes32","name":"","type":"bytes32"}],"stateMutability":"view","type":"function"},{"inputs":[{"internalType":"address","name":"newOwner","type":"address"}],"name":"transferOwnership","outputs":[],"stateMutability":"nonpayable","type":"function"},{"inputs":[],"name":"unpause","outputs":[],"stateMutability":"nonpayable","type":"function"},{"inputs":[{"internalType":"address","name":"","type":"address"},{"internalType":"uint256","name":"","type":"uint256"}],"name":"userListings","outputs":[{"internalType":"bytes32","name":"","type":"bytes32"}],"stateMutability":"view","type":"function"},{"inputs":[{"internalType":"address","name":"","type":"address"},{"internalType":"uint256","name":"","type":"uint256"}],"name":"userOffers","outputs":[{"internalType":"bytes32","name":"","type":"bytes32"}],"stateMutability":"view","type":"function"}],"evm":{"bytecode":{"linkReferences":{},"object":"60e0346200015e57601f620020c538819003918201601f19168301916001600160401b0383118484101762000163578084926080946040528339810103126200015e576200004d8162000179565b906200005c6020820162000179565b620000786060620000706040850162000179565b930162000179565b60016000556001600160a01b039081169390919084156200014557600180546001600160a01b0319811687179091556040519584929183167f8be0079c531659141344cd1fd0a4f28419497f9722a3daafe3b4186f6b6457e0600080a36064600255166080521660a05260c052611f3690816200018f82396080518181816105b301528181610a6901528181610d980152818161164c0152611819015260a05181818161067a01528181610e2001526113fa015260c0518181816103a1015281816107e90152610fd00152f35b604051631e4fbdf760e01b815260006004820152602490fd5b600080fd5b634e487b7160e01b600052604160045260246000fd5b51906001600160a01b03821682036200015e5756fe60a06040818152600460805260805136101561001a57600080fd5b600091823560e01c90816301388d3714611a665750806305b7cdd3146117c157806311fc9fed14611757578063150b7a02146116a4578063175c0d161461167b578063230dc278146116385780633f4ba83a146115c757806340cfece214611595578063474d3ff0146115415780635c975abb1461151b578063661d2c2c146114a45780636a16696414611486578063715018a614611429578063827898f3146113e65780638456cb591461138657806386cfa7d31461133f5780638da5cb5b146113175780639299e552146112675780639407ea9814611204578063944985f5146111d257806396fd5b9314610d24578063a79123a914610a1e578063b596a15e14610540578063bd5fec65146104eb578063c18b8db414610498578063ca28ae841461047c578063d597b8c81461041f578063db2e21bc146103d0578063e138818c1461038d578063eb18a9d814610304578063f2fde38b146102745763f952279e1461018857600080fd5b346102705760203660031901126102705760805135906101a6611eb1565b818352608051602052808320608051810180546101c560ff8216611e51565b60028301546001600160a01b0316330361023c5785600181948294839460ff191690550154818115610233575b3390f115610228575033907f71452125ef8fc453ad578ac435d03568465f10677a9b0edfa96a5da9c5cd26198380a36001815580f35b51913d9150823e3d90fd5b506108fc6101f2565b6064845162461bcd60e51b81526020608051820152600d60248201526c2737ba103a343290313abcb2b960991b6044820152fd5b5080fd5b50346102705760203660031901126102705761028e611b25565b610296611ed4565b6001600160a01b039081169182156102ec5750600154826bffffffffffffffffffffffff60a01b821617600155167f8be0079c531659141344cd1fd0a4f28419497f9722a3daafe3b4186f6b6457e0600080a380f35b51631e4fbdf760e01b81526080518101849052602490fd5b5034610270576020906020600319360112610389576001600160a01b03610329611b25565b168352600760205280832092815180936020865492838152019583526020832092905b8282106103725761036e8686610364828b0383611b81565b5191829182611ace565b0390f35b83548752958601956001938401939091019061034c565b8280fd5b5034610270578160031936011261027057517f00000000000000000000000000000000000000000000000000000000000000006001600160a01b03168152602090f35b50346102705781600319360112610270576103e9611ed4565b8180808060018060a01b03600154164790828215610416575bf11561040c575080f35b51903d90823e3d90fd5b506108fc610402565b50903461047957602036600319011261047957816104499160805135815260805160205220611ccd565b9061036e82519160208401519360018060a01b038282015116608060608301519201511515925195869586611ba3565b80fd5b5034610270578160031936011261027057602090516101f48152f35b50346102705760203660031901126102705780916080513581526003602052209061036e82549160018401549360018060a01b0360028201541660ff600383015492608051015416925195869586611ba3565b5034610270578060031936011261027057610504611b25565b6001600160a01b03168252600860205280822080546024359390841015610479575060209261053291611bd4565b91905490519160031b1c8152f35b5034610270576020806003193601126103895761055b611e90565b610563611eb1565b608051358352608051815281832090608051820161058460ff825416611e51565b600383015442116109e957825484516331a9108f60e11b815260805181018290526001600160a01b03949087907f00000000000000000000000000000000000000000000000000000000000000008716908681602481855afa801561097c5783906109b3575b6105f8915088163314611da1565b875163e985e9c560e01b8152608051339082019081523060208201528790829081906040010381855afa90811561097c578391610986575b508015610911575b61064190611e05565b60018301549461271061065660025488611d58565b0491895163b719576360e01b8152866080518201528760248201526080816044818d7f0000000000000000000000000000000000000000000000000000000000000000165afa928315610907578a978691868b89958a986108c0575b506106c5866106c56106ca948b94611d94565b611d94565b9160028a019d8e541690863b156108bc578f51632142170760e11b8152608051339082019081526001600160a01b039093166020840152604083019190915295899187919082908490829060600103925af19485156108b2578895610896575b50805460ff1916905580158015610863575b505087821591821561082d575b505050509080159081156107d9575b50505080159081156107a5575b505050549354169184519283528201527f77a2900f7e93c4908e50c596b7c9b69b378007ac204f113be8e3422607c312dd33936080513592a46001815580f35b82809291819287600154169083906107d0575bf1156107c657863880610765565b85513d88823e3d90fd5b506108fc6107b8565b8280929181928290610824575b897f00000000000000000000000000000000000000000000000000000000000000001690f11561081857813880610758565b508651903d90823e3d90fd5b506108fc6107e6565b9284939284939284938492610859575b1690f11561084f578238808781610749565b88513d84823e3d90fd5b6108fc925061083d565b9380809395928193829061088d575b3390f115610883578491388061073c565b8a513d86823e3d90fd5b506108fc610872565b6108a290959195611b6d565b6108ae5786933861072a565b8680fd5b8e513d8a823e3d90fd5b8980fd5b6106ca9298506106c596506106c595506108f19060803d608011610900575b6108e98183611b81565b810190611d6b565b509990975090959092506106b2565b503d6108df565b8b513d87823e3d90fd5b50875163020604bf60e21b815260805181018590528681602481855afa801561097c578390610946575b881630149050610638565b508681813d8311610975575b61095c8183611b81565b810103126103895761097061064191611c02565b61093b565b503d610952565b89513d85823e3d90fd5b6109a69150873d89116109ac575b61099e8183611b81565b810190611ded565b38610630565b503d610994565b508681813d83116109e2575b6109c98183611b81565b81010312610389576109dd6105f891611c02565b6105ea565b503d6109bf565b835162461bcd60e51b81526080518101839052600d60248201526c13d999995c88195e1c1a5c9959609a1b6044820152606490fd5b50903461047957610a2e36611b0a565b929091610a39611e90565b610a41611eb1565b8315610ce05781516331a9108f60e11b81526080518101849052602094906001600160a01b037f00000000000000000000000000000000000000000000000000000000000000008116918781602481865afa8015610c9c578590610ca6575b610aae915082163314611da1565b845163e985e9c560e01b8152608051339082019081523060208201529092908890849081906040010381845afa928315610c9c579088918694610c7d575b508315610bf4575b50505090610b0460019392611e05565b610b0f600954611c16565b600981905584513360601b6bffffffffffffffffffffffff191688820190815260148101889052603481018490524260548201526074810192909252610b6281609484015b03601f198101835282611b81565b51902094610b9c8551610b7481611b3b565b8281528389820152338782015242606082015285608082015287855260038952868520611c3b565b80835260058752610baf86868520611c93565b33835260078752610bc286868520611c93565b8451918252857f9476dae4c844ddee04811d7a3e992629b37d00ef03ae388a57f5cb1d5f59d61e883394a45551908152f35b6024935086519384809263020604bf60e21b82528a6080518301525afa918215610c73578492610c2d575b50163014610b048638610af4565b9091508681813d8311610c6c575b610c458183611b81565b81010312610c68576001939291610c5e610b0492611c02565b9293945090610c1f565b8380fd5b503d610c3b565b85513d86823e3d90fd5b610c95919450823d84116109ac5761099e8183611b81565b9238610aec565b86513d87823e3d90fd5b508781813d8311610cd9575b610cbc8183611b81565b81010312610cd557610cd0610aae91611c02565b610aa0565b8480fd5b503d610cb2565b6064825162461bcd60e51b81526020608051820152601c60248201527f5072696365206d7573742062652067726561746572207468616e2030000000006044820152fd5b506020806003193601126103895760805135610d3e611e90565b610d46611eb1565b80845260038252828420916080518301610d6360ff825416611d17565b6002840180546001600160a01b03969195919087169033821461118e57825481516331a9108f60e11b815260805181018290527f00000000000000000000000000000000000000000000000000000000000000008a169991949087816024818e5afa908c8215611183578692859290611146575b501603611101576001810154998a34106110c557612710610dfa6002548d611d58565b049684519563b719576360e01b8752876080518801528c60248801528d608088604481897f0000000000000000000000000000000000000000000000000000000000000000165afa98891561081857908e949392918b8296839b849d611089575b506106c58c6106c58f9394610e6f95611d94565b94803b15610389578951632142170760e11b81526080516001600160a01b039095169481019485523360208601526040850192909252909283919082908490829060600103925af1801561107d57611066575b508d9291839160ff198154169055858d8215928315611031575b5050915050861591878315611008575b5050505085158015610fbf575b508615878115610f95575b50508a803411610f5e575b50509160a09593917fdd2c22156f0075bd3b88d4001fd42cda224daa3818ab66c54393b9d157ab959d979593549954169981519533875286015284015260608301526080820152a46001815580f35b8180610f6b819334611d94565b818115610f8c575b3390f115610f82578a8a610f0f565b82513d8c823e3d90fd5b506108fc610f73565b8280929181928760015416908390610fb6575bf115610f82578a3887610f04565b506108fc610fa8565b868291610ffe575b828092918192877f00000000000000000000000000000000000000000000000000000000000000001690f115610f82578a38610ef9565b6108fc9150610fc7565b8493849384938492611027575b1690f115610f82578a38838187610eec565b6108fc9250611015565b849384938493541690839061105d575bf115611051578138858d82610edc565b508351903d90823e3d90fd5b506108fc611041565b611074909e9193929e611b6d565b9c909138610ec2565b8f8851903d90823e3d90fd5b9297509b50995060803d6080116110be575b6110a58183611b81565b81016110b091611d6b565b509b909a919691908b610e5b565b503d61109b565b835162461bcd60e51b815260805181018990526014602482015273125b9cdd59999a58da595b9d081c185e5b595b9d60621b6044820152606490fd5b825162461bcd60e51b81526080518101889052601b60248201527f53656c6c6572206e6f206c6f6e676572206f776e7320746f6b656e00000000006044820152606490fd5b925050508781813d831161117c575b61115f8183611b81565b8101031261117857826111728692611c02565b38610dd7565b8b80fd5b503d611155565b8551903d90823e3d90fd5b5162461bcd60e51b81526080518101859052601860248201527f43616e6e6f74206275792066726f6d20796f757273656c6600000000000000006044820152606490fd5b5034610270576111e136611b0a565b929081526006602052818120908154841015610479575060209261053291611bd4565b5034610270576020366003190112610270576080513590611223611ed4565b6101f48211611233575060025580f35b5162461bcd60e51b8152608051602090820152600c60248201526b08ccaca40e8dede40d0d2ced60a31b6044820152606490fd5b5034610270576020366003190112610270576080513590818352600360205280832060805181019182549161129e60ff8416611d17565b600201546001600160a01b031633036112e1575060ff1916905533907fd79d80f6ec1a88062761ea9e96514b31f6c3429ac7764829d8770cd9cc32cf238380a380f35b5162461bcd60e51b8152608051602090820152600e60248201526d2737ba103a34329039b2b63632b960911b6044820152606490fd5b503461027057816003193601126102705760015490516001600160a01b039091168152602090f35b5034610270578060031936011261027057611358611b25565b6001600160a01b03168252600760205280822080546024359390841015610479575060209261053291611bd4565b503461027057816003193601126102705760207f62e78cea01bee320cd4e420270b5ea74000d11b0c9f74754ebdbfc544b05a258916113c3611ed4565b6113cb611e90565b6001805460ff60a01b1916600160a01b17905551338152a180f35b5034610270578160031936011261027057517f00000000000000000000000000000000000000000000000000000000000000006001600160a01b03168152602090f35b8234610479578060031936011261047957611442611ed4565b600180546001600160a01b0319811690915581906001600160a01b03167f8be0079c531659141344cd1fd0a4f28419497f9722a3daafe3b4186f6b6457e08280a380f35b50346102705781600319360112610270576020906002549051908152f35b5034610270576020906020600319360112610389576001600160a01b036114c9611b25565b168352600860205280832092815180936020865492838152019583526020832092905b8282106115045761036e8686610364828b0383611b81565b8354875295860195600193840193909101906114ec565b503461027057816003193601126102705760209060ff60015460a01c1690519015158152f35b5034610270576020366003190112610270578091608051358152608051602052209061036e82549160018401549360018060a01b0360028201541660ff600383015492608051015416925195869586611ba3565b5034610270576115a436611b0a565b929081526005602052818120908154841015610479575060209261053291611bd4565b50346102705781600319360112610270576115e0611ed4565b60015460ff8160a01c16156116265760ff60a01b1916600155513381527f5db9ee0a495bf2e6ff9c91a7834c1ba4fdd244a5e8aa4e537bd38aeae4b073aa90602090a180f35b5051638dfc202b60e01b815260805190fd5b5034610270578160031936011261027057517f00000000000000000000000000000000000000000000000000000000000000006001600160a01b03168152602090f35b509034610479576020366003190112610479578161044991608051358152600360205220611ccd565b5034610270576080366003190112610270576116be611b25565b506024356001600160a01b03811603610270576064359167ffffffffffffffff80841161027057366023850112156102705783608051013590811161174157825193611714601f8301601f191660200186611b81565b818552366024838301011161038957906020948160248794018483013701015251630a85bd0160e11b8152f35b634e487b7160e01b825260805160419052602482fd5b503461027057602090602060031936011261038957608051358352600560205280832092815180936020865492838152019583526020832092905b8282106117aa5761036e8686610364828b0383611b81565b835487529586019560019384019390910190611792565b506117cb36611b0a565b9190926117d6611e90565b6117de611eb1565b3415611a225782151580611a15575b156119de5781516331a9108f60e11b81526080518101859052602094906001600160a01b0386826024817f000000000000000000000000000000000000000000000000000000000000000085165afa918215610c735784926119a7575b501633146119625761185d600a54611c16565b600a81905583513360601b6bffffffffffffffffffffffff19168782019081526014810184905234603482015242605482015260748101929092526118a58160948401610b54565b5190209342019081421161194c5790600192916118ef85516118c681611b3b565b828152348982015233878201528360608201528560808201528785526080518952868520611c3b565b8083526006875261190286868520611c93565b3383526008875261191586868520611c93565b84519134835287830152857fe8185081bf7f538b159b0a7e80f766ee1241903eabe47bc96993b7250a743caa863394a45551908152f35b634e487b7160e01b835260805160119052602483fd5b825162461bcd60e51b81526080518101869052601960248201527f43616e6e6f74206f66666572206f6e206f776e20746f6b656e000000000000006044820152606490fd5b9091508681813d83116119d7575b6119bf8183611b81565b81010312610c68576119d090611c02565b903861184a565b503d6119b5565b6064825162461bcd60e51b81526020608051820152601060248201526f24b73b30b634b210323ab930ba34b7b760811b6044820152fd5b5062278d008311156117ed565b6064825162461bcd60e51b81526020608051820152601c60248201527f4f66666572206d7573742062652067726561746572207468616e2030000000006044820152fd5b9190503461038957602080600319360112610c685792608051358152600660205281812093845490818552602085019583526020832092905b828210611ab75761036e8686610364828b0383611b81565b835487529586019560019384019390910190611a9f565b602090602060408183019282815285518094520193019160005b828110611af6575050505090565b835185529381019392810192600101611ae8565b6040906003190112611b20576004359060243590565b600080fd5b600435906001600160a01b0382168203611b2057565b60a0810190811067ffffffffffffffff821117611b5757604052565b634e487b7160e01b600052604160045260246000fd5b67ffffffffffffffff8111611b5757604052565b90601f8019910116810190811067ffffffffffffffff821117611b5757604052565b90815260208101919091526001600160a01b0390911660408201526060810191909152901515608082015260a00190565b8054821015611bec5760005260206000200190600090565b634e487b7160e01b600052603260045260246000fd5b51906001600160a01b0382168203611b2057565b6000198114611c255760010190565b634e487b7160e01b600052601160045260246000fd5b600460809183518155602084015160018201556002810160018060a01b036040860151166bffffffffffffffffffffffff60a01b8254161790556060840151600382015501910151151560ff80198354169116179055565b805468010000000000000000811015611b5757611cb591600182018155611bd4565b819291549060031b91821b91600019901b1916179055565b90604051611cda81611b3b565b825481526001830154602082015260028301546001600160a01b031660408201526003830154606082015260049092015460ff1615156080830152565b15611d1e57565b60405162461bcd60e51b81526020600482015260126024820152714c697374696e67206e6f742061637469766560701b6044820152606490fd5b81810292918115918404141715611c2557565b9190826080910312611b2057611d8082611c02565b916020810151916060604083015192015190565b91908203918211611c2557565b15611da857565b60405162461bcd60e51b815260206004820152601860248201527f596f7520646f6e2774206f776e207468697320746f6b656e00000000000000006044820152606490fd5b90816020910312611b2057518015158103611b205790565b15611e0c57565b60405162461bcd60e51b815260206004820152601860248201527f4d61726b6574706c616365206e6f7420617070726f76656400000000000000006044820152606490fd5b15611e5857565b60405162461bcd60e51b815260206004820152601060248201526f4f66666572206e6f742061637469766560801b6044820152606490fd5b60ff60015460a01c16611e9f57565b60405163d93c066560e01b8152600490fd5b600260005414611ec2576002600055565b604051633ee5aeb560e01b8152600490fd5b6001546001600160a01b03163303611ee857565b60405163118cdaa760e01b8152336004820152602490fdfea2646970667358221220678eb35015d37d2dc69078f23ddb97cebed8485e9ef123ff9ad1acc822ea8df764736f6c63430008180033","opcodes":"PUSH1 0xE0 CALLVALUE PUSH3 0x15E JUMPI PUSH1 0x1F PUSH3 0x20C5 CODESIZE DUP2 SWAP1 SUB SWAP2 DUP3 ADD PUSH1 0x1F NOT AND DUP4 ADD SWAP2 PUSH1 0x1 PUSH1 0x1 PUSH1 0x40 SHL SUB DUP4 GT DUP5 DUP5 LT OR PUSH3 0x163 JUMPI DUP1 DUP5 SWAP3 PUSH1 0x80 SWAP5 PUSH1 0x40 MSTORE DUP4 CODECOPY DUP2 ADD SUB SLT PUSH3 0x15E JUMPI PUSH3 0x4D DUP2 PUSH3 0x179 JUMP JUMPDEST SWAP1 PUSH3 0x5C PUSH1 0x20 DUP3 ADD PUSH3 0x179 JUMP JUMPDEST PUSH3 0x78 PUSH1 0x60 PUSH3 0x70 PUSH1 0x40 DUP6 ADD PUSH3 0x179 JUMP JUMPDEST SWAP4 ADD PUSH3 0x179 JUMP JUMPDEST PUSH1 0x1 PUSH1 0x0 SSTORE PUSH1 0x1 PUSH1 0x1 PUSH1 0xA0 SHL SUB SWAP1 DUP2 AND SWAP4 SWAP1 SWAP2 SWAP1 DUP5 ISZERO PUSH3 0x145 JUMPI PUSH1 0x1 DUP1 SLOAD PUSH1 0x1 PUSH1 0x1 PUSH1 0xA0 SHL SUB NOT DUP2 AND DUP8 OR SWAP1 SWAP2 SSTORE PUSH1 0x40 MLOAD SWAP6 DUP5 SWAP3 SWAP2 DUP4 AND PUSH32 0x8BE0079C531659141344CD1FD0A4F28419497F9722A3DAAFE3B4186F6B6457E0 PUSH1 0x0 DUP1 LOG3 PUSH1 0x64 PUSH1 0x2 SSTORE AND PUSH1 0x80 MSTORE AND PUSH1 0xA0 MSTORE PUSH1 0xC0 MSTORE PUSH2 0x1F36 SWAP1 DUP2 PUSH3 0x18F DUP3 CODECOPY PUSH1 0x80 MLOAD DUP2 DUP2 DUP2 PUSH2 0x5B3 ADD MSTORE DUP2 DUP2 PUSH2 0xA69 ADD MSTORE DUP2 DUP2 PUSH2 0xD98 ADD MSTORE DUP2 DUP2 PUSH2 0x164C ADD MSTORE PUSH2 0x1819 ADD MSTORE PUSH1 0xA0 MLOAD DUP2 DUP2 DUP2 PUSH2 0x67A ADD MSTORE DUP2 DUP2 PUSH2 0xE20 ADD MSTORE PUSH2 0x13FA ADD MSTORE PUSH1 0xC0 MLOAD DUP2 DUP2 DUP2 PUSH2 0x3A1 ADD MSTORE DUP2 DUP2 PUSH2 0x7E9 ADD MSTORE PUSH2 0xFD0 ADD MSTORE RETURN JUMPDEST PUSH1 0x40 MLOAD PUSH4 0x1E4FBDF7 PUSH1 0xE0 SHL DUP2 MSTORE PUSH1 0x0 PUSH1 0x4 DUP3 ADD MSTORE PUSH1 0x24 SWAP1 REVERT JUMPDEST PUSH1 0x0 DUP1 REVERT JUMPDEST PUSH4 0x4E487B71 PUSH1 0xE0 SHL PUSH1 0x0 MSTORE PUSH1 0x41 PUSH1 0x4 MSTORE PUSH1 0x24 PUSH1 0x0 REVERT JUMPDEST MLOAD SWAP1 PUSH1 0x1 PUSH1 0x1 PUSH1 0xA0 SHL SUB DUP3 AND DUP3 SUB PUSH3 0x15E JUMPI JUMP INVALID PUSH1 0xA0 PUSH1 0x40 DUP2 DUP2 MSTORE PUSH1 0x4 PUSH1 0x80 MSTORE PUSH1 0x80 MLOAD CALLDATASIZE LT ISZERO PUSH2 0x1A JUMPI PUSH1 0x0 DUP1 REVERT JUMPDEST PUSH1 0x0 SWAP2 DUP3 CALLDATALOAD PUSH1 0xE0 SHR SWAP1 DUP2 PUSH4 0x1388D37 EQ PUSH2 0x1A66 JUMPI POP DUP1 PUSH4 0x5B7CDD3 EQ PUSH2 0x17C1 JUMPI DUP1 PUSH4 0x11FC9FED EQ PUSH2 0x1757 JUMPI DUP1 PUSH4 0x150B7A02 EQ PUSH2 0x16A4 JUMPI DUP1 PUSH4 0x175C0D16 EQ PUSH2 0x167B JUMPI DUP1 PUSH4 0x230DC278 EQ PUSH2 0x1638 JUMPI DUP1 PUSH4 0x3F4BA83A EQ PUSH2 0x15C7 JUMPI DUP1 PUSH4 0x40CFECE2 EQ PUSH2 0x1595 JUMPI DUP1 PUSH4 0x474D3FF0 EQ PUSH2 0x1541 JUMPI DUP1 PUSH4 0x5C975ABB EQ PUSH2 0x151B JUMPI DUP1 PUSH4 0x661D2C2C EQ PUSH2 0x14A4 JUMPI DUP1 PUSH4 0x6A166964 EQ PUSH2 0x1486 JUMPI DUP1 PUSH4 0x715018A6 EQ PUSH2 0x1429 JUMPI DUP1 PUSH4 0x827898F3 EQ PUSH2 0x13E6 JUMPI DUP1 PUSH4 0x8456CB59 EQ PUSH2 0x1386 JUMPI DUP1 PUSH4 0x86CFA7D3 EQ PUSH2 0x133F JUMPI DUP1 PUSH4 0x8DA5CB5B EQ PUSH2 0x1317 JUMPI DUP1 PUSH4 0x9299E552 EQ PUSH2 0x1267 JUMPI DUP1 PUSH4 0x9407EA98 EQ PUSH2 0x1204 JUMPI DUP1 PUSH4 0x944985F5 EQ PUSH2 0x11D2 JUMPI DUP1 PUSH4 0x96FD5B93 EQ PUSH2 0xD24 JUMPI DUP1 PUSH4 0xA79123A9 EQ PUSH2 0xA1E JUMPI DUP1 PUSH4 0xB596A15E EQ PUSH2 0x540 JUMPI DUP1 PUSH4 0xBD5FEC65 EQ PUSH2 0x4EB JUMPI DUP1 PUSH4 0xC18B8DB4 EQ PUSH2 0x498 JUMPI DUP1 PUSH4 0xCA28AE84 EQ PUSH2 0x47C JUMPI DUP1 PUSH4 0xD597B8C8 EQ PUSH2 0x41F JUMPI DUP1 PUSH4 0xDB2E21BC EQ PUSH2 0x3D0 JUMPI DUP1 PUSH4 0xE138818C EQ PUSH2 0x38D JUMPI DUP1 PUSH4 0xEB18A9D8 EQ PUSH2 0x304 JUMPI DUP1 PUSH4 0xF2FDE38B EQ PUSH2 0x274 JUMPI PUSH4 0xF952279E EQ PUSH2 0x188 JUMPI PUSH1 0x0 DUP1 REVERT JUMPDEST CALLVALUE PUSH2 0x270 JUMPI PUSH1 0x20 CALLDATASIZE PUSH1 0x3 NOT ADD SLT PUSH2 0x270 JUMPI PUSH1 0x80 MLOAD CALLDATALOAD SWAP1 PUSH2 0x1A6 PUSH2 0x1EB1 JUMP JUMPDEST DUP2 DUP4 MSTORE PUSH1 0x80 MLOAD PUSH1 0x20 MSTORE DUP1 DUP4 KECCAK256 PUSH1 0x80 MLOAD DUP2 ADD DUP1 SLOAD PUSH2 0x1C5 PUSH1 0xFF DUP3 AND PUSH2 0x1E51 JUMP JUMPDEST PUSH1 0x2 DUP4 ADD SLOAD PUSH1 0x1 PUSH1 0x1 PUSH1 0xA0 SHL SUB AND CALLER SUB PUSH2 0x23C JUMPI DUP6 PUSH1 0x1 DUP2 SWAP5 DUP3 SWAP5 DUP4 SWAP5 PUSH1 0xFF NOT AND SWAP1 SSTORE ADD SLOAD DUP2 DUP2 ISZERO PUSH2 0x233 JUMPI JUMPDEST CALLER SWAP1 CALL ISZERO PUSH2 0x228 JUMPI POP CALLER SWAP1 PUSH32 0x71452125EF8FC453AD578AC435D03568465F10677A9B0EDFA96A5DA9C5CD2619 DUP4 DUP1 LOG3 PUSH1 0x1 DUP2 SSTORE DUP1 RETURN JUMPDEST MLOAD SWAP2 RETURNDATASIZE SWAP2 POP DUP3 RETURNDATACOPY RETURNDATASIZE SWAP1 REVERT JUMPDEST POP PUSH2 0x8FC PUSH2 0x1F2 JUMP JUMPDEST PUSH1 0x64 DUP5 MLOAD PUSH3 0x461BCD PUSH1 0xE5 SHL DUP2 MSTORE PUSH1 0x20 PUSH1 0x80 MLOAD DUP3 ADD MSTORE PUSH1 0xD PUSH1 0x24 DUP3 ADD MSTORE PUSH13 0x2737BA103A343290313ABCB2B9 PUSH1 0x99 SHL PUSH1 0x44 DUP3 ADD MSTORE REVERT JUMPDEST POP DUP1 REVERT JUMPDEST POP CALLVALUE PUSH2 0x270 JUMPI PUSH1 0x20 CALLDATASIZE PUSH1 0x3 NOT ADD SLT PUSH2 0x270 JUMPI PUSH2 0x28E PUSH2 0x1B25 JUMP JUMPDEST PUSH2 0x296 PUSH2 0x1ED4 JUMP JUMPDEST PUSH1 0x1 PUSH1 0x1 PUSH1 0xA0 SHL SUB SWAP1 DUP2 AND SWAP2 DUP3 ISZERO PUSH2 0x2EC JUMPI POP PUSH1 0x1 SLOAD DUP3 PUSH12 0xFFFFFFFFFFFFFFFFFFFFFFFF PUSH1 0xA0 SHL DUP3 AND OR PUSH1 0x1 SSTORE AND PUSH32 0x8BE0079C531659141344CD1FD0A4F28419497F9722A3DAAFE3B4186F6B6457E0 PUSH1 0x0 DUP1 LOG3 DUP1 RETURN JUMPDEST MLOAD PUSH4 0x1E4FBDF7 PUSH1 0xE0 SHL DUP2 MSTORE PUSH1 0x80 MLOAD DUP2 ADD DUP5 SWAP1 MSTORE PUSH1 0x24 SWAP1 REVERT JUMPDEST POP CALLVALUE PUSH2 0x270 JUMPI PUSH1 0x20 SWAP1 PUSH1 0x20 PUSH1 0x3 NOT CALLDATASIZE ADD SLT PUSH2 0x389 JUMPI PUSH1 0x1 PUSH1 0x1 PUSH1 0xA0 SHL SUB PUSH2 0x329 PUSH2 0x1B25 JUMP JUMPDEST AND DUP4 MSTORE PUSH1 0x7 PUSH1 0x20 MSTORE DUP1 DUP4 KECCAK256 SWAP3 DUP2 MLOAD DUP1 SWAP4 PUSH1 0x20 DUP7 SLOAD SWAP3 DUP4 DUP2 MSTORE ADD SWAP6 DUP4 MSTORE PUSH1 0x20 DUP4 KECCAK256 SWAP3 SWAP1 JUMPDEST DUP3 DUP3 LT PUSH2 0x372 JUMPI PUSH2 0x36E DUP7 DUP7 PUSH2 0x364 DUP3 DUP12 SUB DUP4 PUSH2 0x1B81 JUMP JUMPDEST MLOAD SWAP2 DUP3 SWAP2 DUP3 PUSH2 0x1ACE JUMP JUMPDEST SUB SWAP1 RETURN JUMPDEST DUP4 SLOAD DUP8 MSTORE SWAP6 DUP7 ADD SWAP6 PUSH1 0x1 SWAP4 DUP5 ADD SWAP4 SWAP1 SWAP2 ADD SWAP1 PUSH2 0x34C JUMP JUMPDEST DUP3 DUP1 REVERT JUMPDEST POP CALLVALUE PUSH2 0x270 JUMPI DUP2 PUSH1 0x3 NOT CALLDATASIZE ADD SLT PUSH2 0x270 JUMPI MLOAD PUSH32 0x0 PUSH1 0x1 PUSH1 0x1 PUSH1 0xA0 SHL SUB AND DUP2 MSTORE PUSH1 0x20 SWAP1 RETURN JUMPDEST POP CALLVALUE PUSH2 0x270 JUMPI DUP2 PUSH1 0x3 NOT CALLDATASIZE ADD SLT PUSH2 0x270 JUMPI PUSH2 0x3E9 PUSH2 0x1ED4 JUMP JUMPDEST DUP2 DUP1 DUP1 DUP1 PUSH1 0x1 DUP1 PUSH1 0xA0 SHL SUB PUSH1 0x1 SLOAD AND SELFBALANCE SWAP1 DUP3 DUP3 ISZERO PUSH2 0x416 JUMPI JUMPDEST CALL ISZERO PUSH2 0x40C JUMPI POP DUP1 RETURN JUMPDEST MLOAD SWAP1 RETURNDATASIZE SWAP1 DUP3 RETURNDATACOPY RETURNDATASIZE SWAP1 REVERT JUMPDEST POP PUSH2 0x8FC PUSH2 0x402 JUMP JUMPDEST POP SWAP1 CALLVALUE PUSH2 0x479 JUMPI PUSH1 0x20 CALLDATASIZE PUSH1 0x3 NOT ADD SLT PUSH2 0x479 JUMPI DUP2 PUSH2 0x449 SWAP2 PUSH1 0x80 MLOAD CALLDATALOAD DUP2 MSTORE PUSH1 0x80 MLOAD PUSH1 0x20 MSTORE KECCAK256 PUSH2 0x1CCD JUMP JUMPDEST SWAP1 PUSH2 0x36E DUP3 MLOAD SWAP2 PUSH1 0x20 DUP5 ADD MLOAD SWAP4 PUSH1 0x1 DUP1 PUSH1 0xA0 SHL SUB DUP3 DUP3 ADD MLOAD AND PUSH1 0x80 PUSH1 0x60 DUP4 ADD MLOAD SWAP3 ADD MLOAD ISZERO ISZERO SWAP3 MLOAD SWAP6 DUP7 SWAP6 DUP7 PUSH2 0x1BA3 JUMP JUMPDEST DUP1 REVERT JUMPDEST POP CALLVALUE PUSH2 0x270 JUMPI DUP2 PUSH1 0x3 NOT CALLDATASIZE ADD SLT PUSH2 0x270 JUMPI PUSH1 0x20 SWAP1 MLOAD PUSH2 0x1F4 DUP2 MSTORE RETURN JUMPDEST POP CALLVALUE PUSH2 0x270 JUMPI PUSH1 0x20 CALLDATASIZE PUSH1 0x3 NOT ADD SLT PUSH2 0x270 JUMPI DUP1 SWAP2 PUSH1 0x80 MLOAD CALLDATALOAD DUP2 MSTORE PUSH1 0x3 PUSH1 0x20 MSTORE KECCAK256 SWAP1 PUSH2 0x36E DUP3 SLOAD SWAP2 PUSH1 0x1 DUP5 ADD SLOAD SWAP4 PUSH1 0x1 DUP1 PUSH1 0xA0 SHL SUB PUSH1 0x2 DUP3 ADD SLOAD AND PUSH1 0xFF PUSH1 0x3 DUP4 ADD SLOAD SWAP3 PUSH1 0x80 MLOAD ADD SLOAD AND SWAP3 MLOAD SWAP6 DUP7 SWAP6 DUP7 PUSH2 0x1BA3 JUMP JUMPDEST POP CALLVALUE PUSH2 0x270 JUMPI DUP1 PUSH1 0x3 NOT CALLDATASIZE ADD SLT PUSH2 0x270 JUMPI PUSH2 0x504 PUSH2 0x1B25 JUMP JUMPDEST PUSH1 0x1 PUSH1 0x1 PUSH1 0xA0 SHL SUB AND DUP3 MSTORE PUSH1 0x8 PUSH1 0x20 MSTORE DUP1 DUP3 KECCAK256 DUP1 SLOAD PUSH1 0x24 CALLDATALOAD SWAP4 SWAP1 DUP5 LT ISZERO PUSH2 0x479 JUMPI POP PUSH1 0x20 SWAP3 PUSH2 0x532 SWAP2 PUSH2 0x1BD4 JUMP JUMPDEST SWAP2 SWAP1 SLOAD SWAP1 MLOAD SWAP2 PUSH1 0x3 SHL SHR DUP2 MSTORE RETURN JUMPDEST POP CALLVALUE PUSH2 0x270 JUMPI PUSH1 0x20 DUP1 PUSH1 0x3 NOT CALLDATASIZE ADD SLT PUSH2 0x389 JUMPI PUSH2 0x55B PUSH2 0x1E90 JUMP JUMPDEST PUSH2 0x563 PUSH2 0x1EB1 JUMP JUMPDEST PUSH1 0x80 MLOAD CALLDATALOAD DUP4 MSTORE PUSH1 0x80 MLOAD DUP2 MSTORE DUP2 DUP4 KECCAK256 SWAP1 PUSH1 0x80 MLOAD DUP3 ADD PUSH2 0x584 PUSH1 0xFF DUP3 SLOAD AND PUSH2 0x1E51 JUMP JUMPDEST PUSH1 0x3 DUP4 ADD SLOAD TIMESTAMP GT PUSH2 0x9E9 JUMPI DUP3 SLOAD DUP5 MLOAD PUSH4 0x31A9108F PUSH1 0xE1 SHL DUP2 MSTORE PUSH1 0x80 MLOAD DUP2 ADD DUP3 SWAP1 MSTORE PUSH1 0x1 PUSH1 0x1 PUSH1 0xA0 SHL SUB SWAP5 SWAP1 DUP8 SWAP1 PUSH32 0x0 DUP8 AND SWAP1 DUP7 DUP2 PUSH1 0x24 DUP2 DUP6 GAS STATICCALL DUP1 ISZERO PUSH2 0x97C JUMPI DUP4 SWAP1 PUSH2 0x9B3 JUMPI JUMPDEST PUSH2 0x5F8 SWAP2 POP DUP9 AND CALLER EQ PUSH2 0x1DA1 JUMP JUMPDEST DUP8 MLOAD PUSH4 0xE985E9C5 PUSH1 0xE0 SHL DUP2 MSTORE PUSH1 0x80 MLOAD CALLER SWAP1 DUP3 ADD SWAP1 DUP2 MSTORE ADDRESS PUSH1 0x20 DUP3 ADD MSTORE DUP8 SWAP1 DUP3 SWAP1 DUP2 SWAP1 PUSH1 0x40 ADD SUB DUP2 DUP6 GAS STATICCALL SWAP1 DUP2 ISZERO PUSH2 0x97C JUMPI DUP4 SWAP2 PUSH2 0x986 JUMPI JUMPDEST POP DUP1 ISZERO PUSH2 0x911 JUMPI JUMPDEST PUSH2 0x641 SWAP1 PUSH2 0x1E05 JUMP JUMPDEST PUSH1 0x1 DUP4 ADD SLOAD SWAP5 PUSH2 0x2710 PUSH2 0x656 PUSH1 0x2 SLOAD DUP9 PUSH2 0x1D58 JUMP JUMPDEST DIV SWAP2 DUP10 MLOAD PUSH4 0xB7195763 PUSH1 0xE0 SHL DUP2 MSTORE DUP7 PUSH1 0x80 MLOAD DUP3 ADD MSTORE DUP8 PUSH1 0x24 DUP3 ADD MSTORE PUSH1 0x80 DUP2 PUSH1 0x44 DUP2 DUP14 PUSH32 0x0 AND GAS STATICCALL SWAP3 DUP4 ISZERO PUSH2 0x907 JUMPI DUP11 SWAP8 DUP7 SWAP2 DUP7 DUP12 DUP10 SWAP6 DUP11 SWAP9 PUSH2 0x8C0 JUMPI JUMPDEST POP PUSH2 0x6C5 DUP7 PUSH2 0x6C5 PUSH2 0x6CA SWAP5 DUP12 SWAP5 PUSH2 0x1D94 JUMP JUMPDEST PUSH2 0x1D94 JUMP JUMPDEST SWAP2 PUSH1 0x2 DUP11 ADD SWAP14 DUP15 SLOAD AND SWAP1 DUP7 EXTCODESIZE ISZERO PUSH2 0x8BC JUMPI DUP16 MLOAD PUSH4 0x21421707 PUSH1 0xE1 SHL DUP2 MSTORE PUSH1 0x80 MLOAD CALLER SWAP1 DUP3 ADD SWAP1 DUP2 MSTORE PUSH1 0x1 PUSH1 0x1 PUSH1 0xA0 SHL SUB SWAP1 SWAP4 AND PUSH1 0x20 DUP5 ADD MSTORE PUSH1 0x40 DUP4 ADD SWAP2 SWAP1 SWAP2 MSTORE SWAP6 DUP10 SWAP2 DUP8 SWAP2 SWAP1 DUP3 SWAP1 DUP5 SWAP1 DUP3 SWAP1 PUSH1 0x60 ADD SUB SWAP3 GAS CALL SWAP5 DUP6 ISZERO PUSH2 0x8B2 JUMPI DUP9 SWAP6 PUSH2 0x896 JUMPI JUMPDEST POP DUP1 SLOAD PUSH1 0xFF NOT AND SWAP1 SSTORE DUP1 ISZERO DUP1 ISZERO PUSH2 0x863 JUMPI JUMPDEST POP POP DUP8 DUP3 ISZERO SWAP2 DUP3 ISZERO PUSH2 0x82D JUMPI JUMPDEST POP POP POP POP SWAP1 DUP1 ISZERO SWAP1 DUP2 ISZERO PUSH2 0x7D9 JUMPI JUMPDEST POP POP POP DUP1 ISZERO SWAP1 DUP2 ISZERO PUSH2 0x7A5 JUMPI JUMPDEST POP POP POP SLOAD SWAP4 SLOAD AND SWAP2 DUP5 MLOAD SWAP3 DUP4 MSTORE DUP3 ADD MSTORE PUSH32 0x77A2900F7E93C4908E50C596B7C9B69B378007AC204F113BE8E3422607C312DD CALLER SWAP4 PUSH1 0x80 MLOAD CALLDATALOAD SWAP3 LOG4 PUSH1 0x1 DUP2 SSTORE DUP1 RETURN JUMPDEST DUP3 DUP1 SWAP3 SWAP2 DUP2 SWAP3 DUP8 PUSH1 0x1 SLOAD AND SWAP1 DUP4 SWAP1 PUSH2 0x7D0 JUMPI JUMPDEST CALL ISZERO PUSH2 0x7C6 JUMPI DUP7 CODESIZE DUP1 PUSH2 0x765 JUMP JUMPDEST DUP6 MLOAD RETURNDATASIZE DUP9 DUP3 RETURNDATACOPY RETURNDATASIZE SWAP1 REVERT JUMPDEST POP PUSH2 0x8FC PUSH2 0x7B8 JUMP JUMPDEST DUP3 DUP1 SWAP3 SWAP2 DUP2 SWAP3 DUP3 SWAP1 PUSH2 0x824 JUMPI JUMPDEST DUP10 PUSH32 0x0 AND SWAP1 CALL ISZERO PUSH2 0x818 JUMPI DUP2 CODESIZE DUP1 PUSH2 0x758 JUMP JUMPDEST POP DUP7 MLOAD SWAP1 RETURNDATASIZE SWAP1 DUP3 RETURNDATACOPY RETURNDATASIZE SWAP1 REVERT JUMPDEST POP PUSH2 0x8FC PUSH2 0x7E6 JUMP JUMPDEST SWAP3 DUP5 SWAP4 SWAP3 DUP5 SWAP4 SWAP3 DUP5 SWAP4 DUP5 SWAP3 PUSH2 0x859 JUMPI JUMPDEST AND SWAP1 CALL ISZERO PUSH2 0x84F JUMPI DUP3 CODESIZE DUP1 DUP8 DUP2 PUSH2 0x749 JUMP JUMPDEST DUP9 MLOAD RETURNDATASIZE DUP5 DUP3 RETURNDATACOPY RETURNDATASIZE SWAP1 REVERT JUMPDEST PUSH2 0x8FC SWAP3 POP PUSH2 0x83D JUMP JUMPDEST SWAP4 DUP1 DUP1 SWAP4 SWAP6 SWAP3 DUP2 SWAP4 DUP3 SWAP1 PUSH2 0x88D JUMPI JUMPDEST CALLER SWAP1 CALL ISZERO PUSH2 0x883 JUMPI DUP5 SWAP2 CODESIZE DUP1 PUSH2 0x73C JUMP JUMPDEST DUP11 MLOAD RETURNDATASIZE DUP7 DUP3 RETURNDATACOPY RETURNDATASIZE SWAP1 REVERT JUMPDEST POP PUSH2 0x8FC PUSH2 0x872 JUMP JUMPDEST PUSH2 0x8A2 SWAP1 SWAP6 SWAP2 SWAP6 PUSH2 0x1B6D JUMP JUMPDEST PUSH2 0x8AE JUMPI DUP7 SWAP4 CODESIZE PUSH2 0x72A JUMP JUMPDEST DUP7 DUP1 REVERT JUMPDEST DUP15 MLOAD RETURNDATASIZE DUP11 DUP3 RETURNDATACOPY RETURNDATASIZE SWAP1 REVERT JUMPDEST DUP10 DUP1 REVERT JUMPDEST PUSH2 0x6CA SWAP3 SWAP9 POP PUSH2 0x6C5 SWAP7 POP PUSH2 0x6C5 SWAP6 POP PUSH2 0x8F1 SWAP1 PUSH1 0x80 RETURNDATASIZE PUSH1 0x80 GT PUSH2 0x900 JUMPI JUMPDEST PUSH2 0x8E9 DUP2 DUP4 PUSH2 0x1B81 JUMP JUMPDEST DUP2 ADD SWAP1 PUSH2 0x1D6B JUMP JUMPDEST POP SWAP10 SWAP1 SWAP8 POP SWAP1 SWAP6 SWAP1 SWAP3 POP PUSH2 0x6B2 JUMP JUMPDEST POP RETURNDATASIZE PUSH2 0x8DF JUMP JUMPDEST DUP12 MLOAD RETURNDATASIZE DUP8 DUP3 RETURNDATACOPY RETURNDATASIZE SWAP1 REVERT JUMPDEST POP DUP8 MLOAD PUSH4 0x20604BF PUSH1 0xE2 SHL DUP2 MSTORE PUSH1 0x80 MLOAD DUP2 ADD DUP6 SWAP1 MSTORE DUP7 DUP2 PUSH1 0x24 DUP2 DUP6 GAS STATICCALL DUP1 ISZERO PUSH2 0x97C JUMPI DUP4 SWAP1 PUSH2 0x946 JUMPI JUMPDEST DUP9 AND ADDRESS EQ SWAP1 POP PUSH2 0x638 JUMP JUMPDEST POP DUP7 DUP2 DUP2 RETURNDATASIZE DUP4 GT PUSH2 0x975 JUMPI JUMPDEST PUSH2 0x95C DUP2 DUP4 PUSH2 0x1B81 JUMP JUMPDEST DUP2 ADD SUB SLT PUSH2 0x389 JUMPI PUSH2 0x970 PUSH2 0x641 SWAP2 PUSH2 0x1C02 JUMP JUMPDEST PUSH2 0x93B JUMP JUMPDEST POP RETURNDATASIZE PUSH2 0x952 JUMP JUMPDEST DUP10 MLOAD RETURNDATASIZE DUP6 DUP3 RETURNDATACOPY RETURNDATASIZE SWAP1 REVERT JUMPDEST PUSH2 0x9A6 SWAP2 POP DUP8 RETURNDATASIZE DUP10 GT PUSH2 0x9AC JUMPI JUMPDEST PUSH2 0x99E DUP2 DUP4 PUSH2 0x1B81 JUMP JUMPDEST DUP2 ADD SWAP1 PUSH2 0x1DED JUMP JUMPDEST CODESIZE PUSH2 0x630 JUMP JUMPDEST POP RETURNDATASIZE PUSH2 0x994 JUMP JUMPDEST POP DUP7 DUP2 DUP2 RETURNDATASIZE DUP4 GT PUSH2 0x9E2 JUMPI JUMPDEST PUSH2 0x9C9 DUP2 DUP4 PUSH2 0x1B81 JUMP JUMPDEST DUP2 ADD SUB SLT PUSH2 0x389 JUMPI PUSH2 0x9DD PUSH2 0x5F8 SWAP2 PUSH2 0x1C02 JUMP JUMPDEST PUSH2 0x5EA JUMP JUMPDEST POP RETURNDATASIZE PUSH2 0x9BF JUMP JUMPDEST DUP4 MLOAD PUSH3 0x461BCD PUSH1 0xE5 SHL DUP2 MSTORE PUSH1 0x80 MLOAD DUP2 ADD DUP4 SWAP1 MSTORE PUSH1 0xD PUSH1 0x24 DUP3 ADD MSTORE PUSH13 0x13D999995C88195E1C1A5C9959 PUSH1 0x9A SHL PUSH1 0x44 DUP3 ADD MSTORE PUSH1 0x64 SWAP1 REVERT JUMPDEST POP SWAP1 CALLVALUE PUSH2 0x479 JUMPI PUSH2 0xA2E CALLDATASIZE PUSH2 0x1B0A JUMP JUMPDEST SWAP3 SWAP1 SWAP2 PUSH2 0xA39 PUSH2 0x1E90 JUMP JUMPDEST PUSH2 0xA41 PUSH2 0x1EB1 JUMP JUMPDEST DUP4 ISZERO PUSH2 0xCE0 JUMPI DUP2 MLOAD PUSH4 0x31A9108F PUSH1 0xE1 SHL DUP2 MSTORE PUSH1 0x80 MLOAD DUP2 ADD DUP5 SWAP1 MSTORE PUSH1 0x20 SWAP5 SWAP1 PUSH1 0x1 PUSH1 0x1 PUSH1 0xA0 SHL SUB PUSH32 0x0 DUP2 AND SWAP2 DUP8 DUP2 PUSH1 0x24 DUP2 DUP7 GAS STATICCALL DUP1 ISZERO PUSH2 0xC9C JUMPI DUP6 SWAP1 PUSH2 0xCA6 JUMPI JUMPDEST PUSH2 0xAAE SWAP2 POP DUP3 AND CALLER EQ PUSH2 0x1DA1 JUMP JUMPDEST DUP5 MLOAD PUSH4 0xE985E9C5 PUSH1 0xE0 SHL DUP2 MSTORE PUSH1 0x80 MLOAD CALLER SWAP1 DUP3 ADD SWAP1 DUP2 MSTORE ADDRESS PUSH1 0x20 DUP3 ADD MSTORE SWAP1 SWAP3 SWAP1 DUP9 SWAP1 DUP5 SWAP1 DUP2 SWAP1 PUSH1 0x40 ADD SUB DUP2 DUP5 GAS STATICCALL SWAP3 DUP4 ISZERO PUSH2 0xC9C JUMPI SWAP1 DUP9 SWAP2 DUP7 SWAP5 PUSH2 0xC7D JUMPI JUMPDEST POP DUP4 ISZERO PUSH2 0xBF4 JUMPI JUMPDEST POP POP POP SWAP1 PUSH2 0xB04 PUSH1 0x1 SWAP4 SWAP3 PUSH2 0x1E05 JUMP JUMPDEST PUSH2 0xB0F PUSH1 0x9 SLOAD PUSH2 0x1C16 JUMP JUMPDEST PUSH1 0x9 DUP2 SWAP1 SSTORE DUP5 MLOAD CALLER PUSH1 0x60 SHL PUSH12 0xFFFFFFFFFFFFFFFFFFFFFFFF NOT AND DUP9 DUP3 ADD SWAP1 DUP2 MSTORE PUSH1 0x14 DUP2 ADD DUP9 SWAP1 MSTORE PUSH1 0x34 DUP2 ADD DUP5 SWAP1 MSTORE TIMESTAMP PUSH1 0x54 DUP3 ADD MSTORE PUSH1 0x74 DUP2 ADD SWAP3 SWAP1 SWAP3 MSTORE PUSH2 0xB62 DUP2 PUSH1 0x94 DUP5 ADD JUMPDEST SUB PUSH1 0x1F NOT DUP2 ADD DUP4 MSTORE DUP3 PUSH2 0x1B81 JUMP JUMPDEST MLOAD SWAP1 KECCAK256 SWAP5 PUSH2 0xB9C DUP6 MLOAD PUSH2 0xB74 DUP2 PUSH2 0x1B3B JUMP JUMPDEST DUP3 DUP2 MSTORE DUP4 DUP10 DUP3 ADD MSTORE CALLER DUP8 DUP3 ADD MSTORE TIMESTAMP PUSH1 0x60 DUP3 ADD MSTORE DUP6 PUSH1 0x80 DUP3 ADD MSTORE DUP8 DUP6 MSTORE PUSH1 0x3 DUP10 MSTORE DUP7 DUP6 KECCAK256 PUSH2 0x1C3B JUMP JUMPDEST DUP1 DUP4 MSTORE PUSH1 0x5 DUP8 MSTORE PUSH2 0xBAF DUP7 DUP7 DUP6 KECCAK256 PUSH2 0x1C93 JUMP JUMPDEST CALLER DUP4 MSTORE PUSH1 0x7 DUP8 MSTORE PUSH2 0xBC2 DUP7 DUP7 DUP6 KECCAK256 PUSH2 0x1C93 JUMP JUMPDEST DUP5 MLOAD SWAP2 DUP3 MSTORE DUP6 PUSH32 0x9476DAE4C844DDEE04811D7A3E992629B37D00EF03AE388A57F5CB1D5F59D61E DUP9 CALLER SWAP5 LOG4 SSTORE MLOAD SWAP1 DUP2 MSTORE RETURN JUMPDEST PUSH1 0x24 SWAP4 POP DUP7 MLOAD SWAP4 DUP5 DUP1 SWAP3 PUSH4 0x20604BF PUSH1 0xE2 SHL DUP3 MSTORE DUP11 PUSH1 0x80 MLOAD DUP4 ADD MSTORE GAS STATICCALL SWAP2 DUP3 ISZERO PUSH2 0xC73 JUMPI DUP5 SWAP3 PUSH2 0xC2D JUMPI JUMPDEST POP AND ADDRESS EQ PUSH2 0xB04 DUP7 CODESIZE PUSH2 0xAF4 JUMP JUMPDEST SWAP1 SWAP2 POP DUP7 DUP2 DUP2 RETURNDATASIZE DUP4 GT PUSH2 0xC6C JUMPI JUMPDEST PUSH2 0xC45 DUP2 DUP4 PUSH2 0x1B81 JUMP JUMPDEST DUP2 ADD SUB SLT PUSH2 0xC68 JUMPI PUSH1 0x1 SWAP4 SWAP3 SWAP2 PUSH2 0xC5E PUSH2 0xB04 SWAP3 PUSH2 0x1C02 JUMP JUMPDEST SWAP3 SWAP4 SWAP5 POP SWAP1 PUSH2 0xC1F JUMP JUMPDEST DUP4 DUP1 REVERT JUMPDEST POP RETURNDATASIZE PUSH2 0xC3B JUMP JUMPDEST DUP6 MLOAD RETURNDATASIZE DUP7 DUP3 RETURNDATACOPY RETURNDATASIZE SWAP1 REVERT JUMPDEST PUSH2 0xC95 SWAP2 SWAP5 POP DUP3 RETURNDATASIZE DUP5 GT PUSH2 0x9AC JUMPI PUSH2 0x99E DUP2 DUP4 PUSH2 0x1B81 JUMP JUMPDEST SWAP3 CODESIZE PUSH2 0xAEC JUMP JUMPDEST DUP7 MLOAD RETURNDATASIZE DUP8 DUP3 RETURNDATACOPY RETURNDATASIZE SWAP1 REVERT JUMPDEST POP DUP8 DUP2 DUP2 RETURNDATASIZE DUP4 GT PUSH2 0xCD9 JUMPI JUMPDEST PUSH2 0xCBC DUP2 DUP4 PUSH2 0x1B81 JUMP JUMPDEST DUP2 ADD SUB SLT PUSH2 0xCD5 JUMPI PUSH2 0xCD0 PUSH2 0xAAE SWAP2 PUSH2 0x1C02 JUMP JUMPDEST PUSH2 0xAA0 JUMP JUMPDEST DUP5 DUP1 REVERT JUMPDEST POP RETURNDATASIZE PUSH2 0xCB2 JUMP JUMPDEST PUSH1 0x64 DUP3 MLOAD PUSH3 0x461BCD PUSH1 0xE5 SHL DUP2 MSTORE PUSH1 0x20 PUSH1 0x80 MLOAD DUP3 ADD MSTORE PUSH1 0x1C PUSH1 0x24 DUP3 ADD MSTORE PUSH32 0x5072696365206D7573742062652067726561746572207468616E203000000000 PUSH1 0x44 DUP3 ADD MSTORE REVERT JUMPDEST POP PUSH1 0x20 DUP1 PUSH1 0x3 NOT CALLDATASIZE ADD SLT PUSH2 0x389 JUMPI PUSH1 0x80 MLOAD CALLDATALOAD PUSH2 0xD3E PUSH2 0x1E90 JUMP JUMPDEST PUSH2 0xD46 PUSH2 0x1EB1 JUMP JUMPDEST DUP1 DUP5 MSTORE PUSH1 0x3 DUP3 MSTORE DUP3 DUP5 KECCAK256 SWAP2 PUSH1 0x80 MLOAD DUP4 ADD PUSH2 0xD63 PUSH1 0xFF DUP3 SLOAD AND PUSH2 0x1D17 JUMP JUMPDEST PUSH1 0x2 DUP5 ADD DUP1 SLOAD PUSH1 0x1 PUSH1 0x1 PUSH1 0xA0 SHL SUB SWAP7 SWAP2 SWAP6 SWAP2 SWAP1 DUP8 AND SWAP1 CALLER DUP3 EQ PUSH2 0x118E JUMPI DUP3 SLOAD DUP2 MLOAD PUSH4 0x31A9108F PUSH1 0xE1 SHL DUP2 MSTORE PUSH1 0x80 MLOAD DUP2 ADD DUP3 SWAP1 MSTORE PUSH32 0x0 DUP11 AND SWAP10 SWAP2 SWAP5 SWAP1 DUP8 DUP2 PUSH1 0x24 DUP2 DUP15 GAS STATICCALL SWAP1 DUP13 DUP3 ISZERO PUSH2 0x1183 JUMPI DUP7 SWAP3 DUP6 SWAP3 SWAP1 PUSH2 0x1146 JUMPI JUMPDEST POP AND SUB PUSH2 0x1101 JUMPI PUSH1 0x1 DUP2 ADD SLOAD SWAP10 DUP11 CALLVALUE LT PUSH2 0x10C5 JUMPI PUSH2 0x2710 PUSH2 0xDFA PUSH1 0x2 SLOAD DUP14 PUSH2 0x1D58 JUMP JUMPDEST DIV SWAP7 DUP5 MLOAD SWAP6 PUSH4 0xB7195763 PUSH1 0xE0 SHL DUP8 MSTORE DUP8 PUSH1 0x80 MLOAD DUP9 ADD MSTORE DUP13 PUSH1 0x24 DUP9 ADD MSTORE DUP14 PUSH1 0x80 DUP9 PUSH1 0x44 DUP2 DUP10 PUSH32 0x0 AND GAS STATICCALL SWAP9 DUP10 ISZERO PUSH2 0x818 JUMPI SWAP1 DUP15 SWAP5 SWAP4 SWAP3 SWAP2 DUP12 DUP3 SWAP7 DUP4 SWAP12 DUP5 SWAP14 PUSH2 0x1089 JUMPI JUMPDEST POP PUSH2 0x6C5 DUP13 PUSH2 0x6C5 DUP16 SWAP4 SWAP5 PUSH2 0xE6F SWAP6 PUSH2 0x1D94 JUMP JUMPDEST SWAP5 DUP1 EXTCODESIZE ISZERO PUSH2 0x389 JUMPI DUP10 MLOAD PUSH4 0x21421707 PUSH1 0xE1 SHL DUP2 MSTORE PUSH1 0x80 MLOAD PUSH1 0x1 PUSH1 0x1 PUSH1 0xA0 SHL SUB SWAP1 SWAP6 AND SWAP5 DUP2 ADD SWAP5 DUP6 MSTORE CALLER PUSH1 0x20 DUP7 ADD MSTORE PUSH1 0x40 DUP6 ADD SWAP3 SWAP1 SWAP3 MSTORE SWAP1 SWAP3 DUP4 SWAP2 SWAP1 DUP3 SWAP1 DUP5 SWAP1 DUP3 SWAP1 PUSH1 0x60 ADD SUB SWAP3 GAS CALL DUP1 ISZERO PUSH2 0x107D JUMPI PUSH2 0x1066 JUMPI JUMPDEST POP DUP14 SWAP3 SWAP2 DUP4 SWAP2 PUSH1 0xFF NOT DUP2 SLOAD AND SWAP1 SSTORE DUP6 DUP14 DUP3 ISZERO SWAP3 DUP4 ISZERO PUSH2 0x1031 JUMPI JUMPDEST POP POP SWAP2 POP POP DUP7 ISZERO SWAP2 DUP8 DUP4 ISZERO PUSH2 0x1008 JUMPI JUMPDEST POP POP POP POP DUP6 ISZERO DUP1 ISZERO PUSH2 0xFBF JUMPI JUMPDEST POP DUP7 ISZERO DUP8 DUP2 ISZERO PUSH2 0xF95 JUMPI JUMPDEST POP POP DUP11 DUP1 CALLVALUE GT PUSH2 0xF5E JUMPI JUMPDEST POP POP SWAP2 PUSH1 0xA0 SWAP6 SWAP4 SWAP2 PUSH32 0xDD2C22156F0075BD3B88D4001FD42CDA224DAA3818AB66C54393B9D157AB959D SWAP8 SWAP6 SWAP4 SLOAD SWAP10 SLOAD AND SWAP10 DUP2 MLOAD SWAP6 CALLER DUP8 MSTORE DUP7 ADD MSTORE DUP5 ADD MSTORE PUSH1 0x60 DUP4 ADD MSTORE PUSH1 0x80 DUP3 ADD MSTORE LOG4 PUSH1 0x1 DUP2 SSTORE DUP1 RETURN JUMPDEST DUP2 DUP1 PUSH2 0xF6B DUP2 SWAP4 CALLVALUE PUSH2 0x1D94 JUMP JUMPDEST DUP2 DUP2 ISZERO PUSH2 0xF8C JUMPI JUMPDEST CALLER SWAP1 CALL ISZERO PUSH2 0xF82 JUMPI DUP11 DUP11 PUSH2 0xF0F JUMP JUMPDEST DUP3 MLOAD RETURNDATASIZE DUP13 DUP3 RETURNDATACOPY RETURNDATASIZE SWAP1 REVERT JUMPDEST POP PUSH2 0x8FC PUSH2 0xF73 JUMP JUMPDEST DUP3 DUP1 SWAP3 SWAP2 DUP2 SWAP3 DUP8 PUSH1 0x1 SLOAD AND SWAP1 DUP4 SWAP1 PUSH2 0xFB6 JUMPI JUMPDEST CALL ISZERO PUSH2 0xF82 JUMPI DUP11 CODESIZE DUP8 PUSH2 0xF04 JUMP JUMPDEST POP PUSH2 0x8FC PUSH2 0xFA8 JUMP JUMPDEST DUP7 DUP3 SWAP2 PUSH2 0xFFE JUMPI JUMPDEST DUP3 DUP1 SWAP3 SWAP2 DUP2 SWAP3 DUP8 PUSH32 0x0 AND SWAP1 CALL ISZERO PUSH2 0xF82 JUMPI DUP11 CODESIZE PUSH2 0xEF9 JUMP JUMPDEST PUSH2 0x8FC SWAP2 POP PUSH2 0xFC7 JUMP JUMPDEST DUP5 SWAP4 DUP5 SWAP4 DUP5 SWAP4 DUP5 SWAP3 PUSH2 0x1027 JUMPI JUMPDEST AND SWAP1 CALL ISZERO PUSH2 0xF82 JUMPI DUP11 CODESIZE DUP4 DUP2 DUP8 PUSH2 0xEEC JUMP JUMPDEST PUSH2 0x8FC SWAP3 POP PUSH2 0x1015 JUMP JUMPDEST DUP5 SWAP4 DUP5 SWAP4 DUP5 SWAP4 SLOAD AND SWAP1 DUP4 SWAP1 PUSH2 0x105D JUMPI JUMPDEST CALL ISZERO PUSH2 0x1051 JUMPI DUP2 CODESIZE DUP6 DUP14 DUP3 PUSH2 0xEDC JUMP JUMPDEST POP DUP4 MLOAD SWAP1 RETURNDATASIZE SWAP1 DUP3 RETURNDATACOPY RETURNDATASIZE SWAP1 REVERT JUMPDEST POP PUSH2 0x8FC PUSH2 0x1041 JUMP JUMPDEST PUSH2 0x1074 SWAP1 SWAP15 SWAP2 SWAP4 SWAP3 SWAP15 PUSH2 0x1B6D JUMP JUMPDEST SWAP13 SWAP1 SWAP2 CODESIZE PUSH2 0xEC2 JUMP JUMPDEST DUP16 DUP9 MLOAD SWAP1 RETURNDATASIZE SWAP1 DUP3 RETURNDATACOPY RETURNDATASIZE SWAP1 REVERT JUMPDEST SWAP3 SWAP8 POP SWAP12 POP SWAP10 POP PUSH1 0x80 RETURNDATASIZE PUSH1 0x80 GT PUSH2 0x10BE JUMPI JUMPDEST PUSH2 0x10A5 DUP2 DUP4 PUSH2 0x1B81 JUMP JUMPDEST DUP2 ADD PUSH2 0x10B0 SWAP2 PUSH2 0x1D6B JUMP JUMPDEST POP SWAP12 SWAP1 SWAP11 SWAP2 SWAP7 SWAP2 SWAP1 DUP12 PUSH2 0xE5B JUMP JUMPDEST POP RETURNDATASIZE PUSH2 0x109B JUMP JUMPDEST DUP4 MLOAD PUSH3 0x461BCD PUSH1 0xE5 SHL DUP2 MSTORE PUSH1 0x80 MLOAD DUP2 ADD DUP10 SWAP1 MSTORE PUSH1 0x14 PUSH1 0x24 DUP3 ADD MSTORE PUSH20 0x125B9CDD59999A58DA595B9D081C185E5B595B9D PUSH1 0x62 SHL PUSH1 0x44 DUP3 ADD MSTORE PUSH1 0x64 SWAP1 REVERT JUMPDEST DUP3 MLOAD PUSH3 0x461BCD PUSH1 0xE5 SHL DUP2 MSTORE PUSH1 0x80 MLOAD DUP2 ADD DUP9 SWAP1 MSTORE PUSH1 0x1B PUSH1 0x24 DUP3 ADD MSTORE PUSH32 0x53656C6C6572206E6F206C6F6E676572206F776E7320746F6B656E0000000000 PUSH1 0x44 DUP3 ADD MSTORE PUSH1 0x64 SWAP1 REVERT JUMPDEST SWAP3 POP POP POP DUP8 DUP2 DUP2 RETURNDATASIZE DUP4 GT PUSH2 0x117C JUMPI JUMPDEST PUSH2 0x115F DUP2 DUP4 PUSH2 0x1B81 JUMP JUMPDEST DUP2 ADD SUB SLT PUSH2 0x1178 JUMPI DUP3 PUSH2 0x1172 DUP7 SWAP3 PUSH2 0x1C02 JUMP JUMPDEST CODESIZE PUSH2 0xDD7 JUMP JUMPDEST DUP12 DUP1 REVERT JUMPDEST POP RETURNDATASIZE PUSH2 0x1155 JUMP JUMPDEST DUP6 MLOAD SWAP1 RETURNDATASIZE SWAP1 DUP3 RETURNDATACOPY RETURNDATASIZE SWAP1 REVERT JUMPDEST MLOAD PUSH3 0x461BCD PUSH1 0xE5 SHL DUP2 MSTORE PUSH1 0x80 MLOAD DUP2 ADD DUP6 SWAP1 MSTORE PUSH1 0x18 PUSH1 0x24 DUP3 ADD MSTORE PUSH32 0x43616E6E6F74206275792066726F6D20796F757273656C660000000000000000 PUSH1 0x44 DUP3 ADD MSTORE PUSH1 0x64 SWAP1 REVERT JUMPDEST POP CALLVALUE PUSH2 0x270 JUMPI PUSH2 0x11E1 CALLDATASIZE PUSH2 0x1B0A JUMP JUMPDEST SWAP3 SWAP1 DUP2 MSTORE PUSH1 0x6 PUSH1 0x20 MSTORE DUP2 DUP2 KECCAK256 SWAP1 DUP2 SLOAD DUP5 LT ISZERO PUSH2 0x479 JUMPI POP PUSH1 0x20 SWAP3 PUSH2 0x532 SWAP2 PUSH2 0x1BD4 JUMP JUMPDEST POP CALLVALUE PUSH2 0x270 JUMPI PUSH1 0x20 CALLDATASIZE PUSH1 0x3 NOT ADD SLT PUSH2 0x270 JUMPI PUSH1 0x80 MLOAD CALLDATALOAD SWAP1 PUSH2 0x1223 PUSH2 0x1ED4 JUMP JUMPDEST PUSH2 0x1F4 DUP3 GT PUSH2 0x1233 JUMPI POP PUSH1 0x2 SSTORE DUP1 RETURN JUMPDEST MLOAD PUSH3 0x461BCD PUSH1 0xE5 SHL DUP2 MSTORE PUSH1 0x80 MLOAD PUSH1 0x20 SWAP1 DUP3 ADD MSTORE PUSH1 0xC PUSH1 0x24 DUP3 ADD MSTORE PUSH12 0x8CCACA40E8DEDE40D0D2CED PUSH1 0xA3 SHL PUSH1 0x44 DUP3 ADD MSTORE PUSH1 0x64 SWAP1 REVERT JUMPDEST POP CALLVALUE PUSH2 0x270 JUMPI PUSH1 0x20 CALLDATASIZE PUSH1 0x3 NOT ADD SLT PUSH2 0x270 JUMPI PUSH1 0x80 MLOAD CALLDATALOAD SWAP1 DUP2 DUP4 MSTORE PUSH1 0x3 PUSH1 0x20 MSTORE DUP1 DUP4 KECCAK256 PUSH1 0x80 MLOAD DUP2 ADD SWAP2 DUP3 SLOAD SWAP2 PUSH2 0x129E PUSH1 0xFF DUP5 AND PUSH2 0x1D17 JUMP JUMPDEST PUSH1 0x2 ADD SLOAD PUSH1 0x1 PUSH1 0x1 PUSH1 0xA0 SHL SUB AND CALLER SUB PUSH2 0x12E1 JUMPI POP PUSH1 0xFF NOT AND SWAP1 SSTORE CALLER SWAP1 PUSH32 0xD79D80F6EC1A88062761EA9E96514B31F6C3429AC7764829D8770CD9CC32CF23 DUP4 DUP1 LOG3 DUP1 RETURN JUMPDEST MLOAD PUSH3 0x461BCD PUSH1 0xE5 SHL DUP2 MSTORE PUSH1 0x80 MLOAD PUSH1 0x20 SWAP1 DUP3 ADD MSTORE PUSH1 0xE PUSH1 0x24 DUP3 ADD MSTORE PUSH14 0x2737BA103A34329039B2B63632B9 PUSH1 0x91 SHL PUSH1 0x44 DUP3 ADD MSTORE PUSH1 0x64 SWAP1 REVERT JUMPDEST POP CALLVALUE PUSH2 0x270 JUMPI DUP2 PUSH1 0x3 NOT CALLDATASIZE ADD SLT PUSH2 0x270 JUMPI PUSH1 0x1 SLOAD SWAP1 MLOAD PUSH1 0x1 PUSH1 0x1 PUSH1 0xA0 SHL SUB SWAP1 SWAP2 AND DUP2 MSTORE PUSH1 0x20 SWAP1 RETURN JUMPDEST POP CALLVALUE PUSH2 0x270 JUMPI DUP1 PUSH1 0x3 NOT CALLDATASIZE ADD SLT PUSH2 0x270 JUMPI PUSH2 0x1358 PUSH2 0x1B25 JUMP JUMPDEST PUSH1 0x1 PUSH1 0x1 PUSH1 0xA0 SHL SUB AND DUP3 MSTORE PUSH1 0x7 PUSH1 0x20 MSTORE DUP1 DUP3 KECCAK256 DUP1 SLOAD PUSH1 0x24 CALLDATALOAD SWAP4 SWAP1 DUP5 LT ISZERO PUSH2 0x479 JUMPI POP PUSH1 0x20 SWAP3 PUSH2 0x532 SWAP2 PUSH2 0x1BD4 JUMP JUMPDEST POP CALLVALUE PUSH2 0x270 JUMPI DUP2 PUSH1 0x3 NOT CALLDATASIZE ADD SLT PUSH2 0x270 JUMPI PUSH1 0x20 PUSH32 0x62E78CEA01BEE320CD4E420270B5EA74000D11B0C9F74754EBDBFC544B05A258 SWAP2 PUSH2 0x13C3 PUSH2 0x1ED4 JUMP JUMPDEST PUSH2 0x13CB PUSH2 0x1E90 JUMP JUMPDEST PUSH1 0x1 DUP1 SLOAD PUSH1 0xFF PUSH1 0xA0 SHL NOT AND PUSH1 0x1 PUSH1 0xA0 SHL OR SWAP1 SSTORE MLOAD CALLER DUP2 MSTORE LOG1 DUP1 RETURN JUMPDEST POP CALLVALUE PUSH2 0x270 JUMPI DUP2 PUSH1 0x3 NOT CALLDATASIZE ADD SLT PUSH2 0x270 JUMPI MLOAD PUSH32 0x0 PUSH1 0x1 PUSH1 0x1 PUSH1 0xA0 SHL SUB AND DUP2 MSTORE PUSH1 0x20 SWAP1 RETURN JUMPDEST DUP3 CALLVALUE PUSH2 0x479 JUMPI DUP1 PUSH1 0x3 NOT CALLDATASIZE ADD SLT PUSH2 0x479 JUMPI PUSH2 0x1442 PUSH2 0x1ED4 JUMP JUMPDEST PUSH1 0x1 DUP1 SLOAD PUSH1 0x1 PUSH1 0x1 PUSH1 0xA0 SHL SUB NOT DUP2 AND SWAP1 SWAP2 SSTORE DUP2 SWAP1 PUSH1 0x1 PUSH1 0x1 PUSH1 0xA0 SHL SUB AND PUSH32 0x8BE0079C531659141344CD1FD0A4F28419497F9722A3DAAFE3B4186F6B6457E0 DUP3 DUP1 LOG3 DUP1 RETURN JUMPDEST POP CALLVALUE PUSH2 0x270 JUMPI DUP2 PUSH1 0x3 NOT CALLDATASIZE ADD SLT PUSH2 0x270 JUMPI PUSH1 0x20 SWAP1 PUSH1 0x2 SLOAD SWAP1 MLOAD SWAP1 DUP2 MSTORE RETURN JUMPDEST POP CALLVALUE PUSH2 0x270 JUMPI PUSH1 0x20 SWAP1 PUSH1 0x20 PUSH1 0x3 NOT CALLDATASIZE ADD SLT PUSH2 0x389 JUMPI PUSH1 0x1 PUSH1 0x1 PUSH1 0xA0 SHL SUB PUSH2 0x14C9 PUSH2 0x1B25 JUMP JUMPDEST AND DUP4 MSTORE PUSH1 0x8 PUSH1 0x20 MSTORE DUP1 DUP4 KECCAK256 SWAP3 DUP2 MLOAD DUP1 SWAP4 PUSH1 0x20 DUP7 SLOAD SWAP3 DUP4 DUP2 MSTORE ADD SWAP6 DUP4 MSTORE PUSH1 0x20 DUP4 KECCAK256 SWAP3 SWAP1 JUMPDEST DUP3 DUP3 LT PUSH2 0x1504 JUMPI PUSH2 0x36E DUP7 DUP7 PUSH2 0x364 DUP3 DUP12 SUB DUP4 PUSH2 0x1B81 JUMP JUMPDEST DUP4 SLOAD DUP8 MSTORE SWAP6 DUP7 ADD SWAP6 PUSH1 0x1 SWAP4 DUP5 ADD SWAP4 SWAP1 SWAP2 ADD SWAP1 PUSH2 0x14EC JUMP JUMPDEST POP CALLVALUE PUSH2 0x270 JUMPI DUP2 PUSH1 0x3 NOT CALLDATASIZE ADD SLT PUSH2 0x270 JUMPI PUSH1 0x20 SWAP1 PUSH1 0xFF PUSH1 0x1 SLOAD PUSH1 0xA0 SHR AND SWAP1 MLOAD SWAP1 ISZERO ISZERO DUP2 MSTORE RETURN JUMPDEST POP CALLVALUE PUSH2 0x270 JUMPI PUSH1 0x20 CALLDATASIZE PUSH1 0x3 NOT ADD SLT PUSH2 0x270 JUMPI DUP1 SWAP2 PUSH1 0x80 MLOAD CALLDATALOAD DUP2 MSTORE PUSH1 0x80 MLOAD PUSH1 0x20 MSTORE KECCAK256 SWAP1 PUSH2 0x36E DUP3 SLOAD SWAP2 PUSH1 0x1 DUP5 ADD SLOAD SWAP4 PUSH1 0x1 DUP1 PUSH1 0xA0 SHL SUB PUSH1 0x2 DUP3 ADD SLOAD AND PUSH1 0xFF PUSH1 0x3 DUP4 ADD SLOAD SWAP3 PUSH1 0x80 MLOAD ADD SLOAD AND SWAP3 MLOAD SWAP6 DUP7 SWAP6 DUP7 PUSH2 0x1BA3 JUMP JUMPDEST POP CALLVALUE PUSH2 0x270 JUMPI PUSH2 0x15A4 CALLDATASIZE PUSH2 0x1B0A JUMP JUMPDEST SWAP3 SWAP1 DUP2 MSTORE PUSH1 0x5 PUSH1 0x20 MSTORE DUP2 DUP2 KECCAK256 SWAP1 DUP2 SLOAD DUP5 LT ISZERO PUSH2 0x479 JUMPI POP PUSH1 0x20 SWAP3 PUSH2 0x532 SWAP2 PUSH2 0x1BD4 JUMP JUMPDEST POP CALLVALUE PUSH2 0x270 JUMPI DUP2 PUSH1 0x3 NOT CALLDATASIZE ADD SLT PUSH2 0x270 JUMPI PUSH2 0x15E0 PUSH2 0x1ED4 JUMP JUMPDEST PUSH1 0x1 SLOAD PUSH1 0xFF DUP2 PUSH1 0xA0 SHR AND ISZERO PUSH2 0x1626 JUMPI PUSH1 0xFF PUSH1 0xA0 SHL NOT AND PUSH1 0x1 SSTORE MLOAD CALLER DUP2 MSTORE PUSH32 0x5DB9EE0A495BF2E6FF9C91A7834C1BA4FDD244A5E8AA4E537BD38AEAE4B073AA SWAP1 PUSH1 0x20 SWAP1 LOG1 DUP1 RETURN JUMPDEST POP MLOAD PUSH4 0x8DFC202B PUSH1 0xE0 SHL DUP2 MSTORE PUSH1 0x80 MLOAD SWAP1 REVERT JUMPDEST POP CALLVALUE PUSH2 0x270 JUMPI DUP2 PUSH1 0x3 NOT CALLDATASIZE ADD SLT PUSH2 0x270 JUMPI MLOAD PUSH32 0x0 PUSH1 0x1 PUSH1 0x1 PUSH1 0xA0 SHL SUB AND DUP2 MSTORE PUSH1 0x20 SWAP1 RETURN JUMPDEST POP SWAP1 CALLVALUE PUSH2 0x479 JUMPI PUSH1 0x20 CALLDATASIZE PUSH1 0x3 NOT ADD SLT PUSH2 0x479 JUMPI DUP2 PUSH2 0x449 SWAP2 PUSH1 0x80 MLOAD CALLDATALOAD DUP2 MSTORE PUSH1 0x3 PUSH1 0x20 MSTORE KECCAK256 PUSH2 0x1CCD JUMP JUMPDEST POP CALLVALUE PUSH2 0x270 JUMPI PUSH1 0x80 CALLDATASIZE PUSH1 0x3 NOT ADD SLT PUSH2 0x270 JUMPI PUSH2 0x16BE PUSH2 0x1B25 JUMP JUMPDEST POP PUSH1 0x24 CALLDATALOAD PUSH1 0x1 PUSH1 0x1 PUSH1 0xA0 SHL SUB DUP2 AND SUB PUSH2 0x270 JUMPI PUSH1 0x64 CALLDATALOAD SWAP2 PUSH8 0xFFFFFFFFFFFFFFFF DUP1 DUP5 GT PUSH2 0x270 JUMPI CALLDATASIZE PUSH1 0x23 DUP6 ADD SLT ISZERO PUSH2 0x270 JUMPI DUP4 PUSH1 0x80 MLOAD ADD CALLDATALOAD SWAP1 DUP2 GT PUSH2 0x1741 JUMPI DUP3 MLOAD SWAP4 PUSH2 0x1714 PUSH1 0x1F DUP4 ADD PUSH1 0x1F NOT AND PUSH1 0x20 ADD DUP7 PUSH2 0x1B81 JUMP JUMPDEST DUP2 DUP6 MSTORE CALLDATASIZE PUSH1 0x24 DUP4 DUP4 ADD ADD GT PUSH2 0x389 JUMPI SWAP1 PUSH1 0x20 SWAP5 DUP2 PUSH1 0x24 DUP8 SWAP5 ADD DUP5 DUP4 ADD CALLDATACOPY ADD ADD MSTORE MLOAD PUSH4 0xA85BD01 PUSH1 0xE1 SHL DUP2 MSTORE RETURN JUMPDEST PUSH4 0x4E487B71 PUSH1 0xE0 SHL DUP3 MSTORE PUSH1 0x80 MLOAD PUSH1 0x41 SWAP1 MSTORE PUSH1 0x24 DUP3 REVERT JUMPDEST POP CALLVALUE PUSH2 0x270 JUMPI PUSH1 0x20 SWAP1 PUSH1 0x20 PUSH1 0x3 NOT CALLDATASIZE ADD SLT PUSH2 0x389 JUMPI PUSH1 0x80 MLOAD CALLDATALOAD DUP4 MSTORE PUSH1 0x5 PUSH1 0x20 MSTORE DUP1 DUP4 KECCAK256 SWAP3 DUP2 MLOAD DUP1 SWAP4 PUSH1 0x20 DUP7 SLOAD SWAP3 DUP4 DUP2 MSTORE ADD SWAP6 DUP4 MSTORE PUSH1 0x20 DUP4 KECCAK256 SWAP3 SWAP1 JUMPDEST DUP3 DUP3 LT PUSH2 0x17AA JUMPI PUSH2 0x36E DUP7 DUP7 PUSH2 0x364 DUP3 DUP12 SUB DUP4 PUSH2 0x1B81 JUMP JUMPDEST DUP4 SLOAD DUP8 MSTORE SWAP6 DUP7 ADD SWAP6 PUSH1 0x1 SWAP4 DUP5 ADD SWAP4 SWAP1 SWAP2 ADD SWAP1 PUSH2 0x1792 JUMP JUMPDEST POP PUSH2 0x17CB CALLDATASIZE PUSH2 0x1B0A JUMP JUMPDEST SWAP2 SWAP1 SWAP3 PUSH2 0x17D6 PUSH2 0x1E90 JUMP JUMPDEST PUSH2 0x17DE PUSH2 0x1EB1 JUMP JUMPDEST CALLVALUE ISZERO PUSH2 0x1A22 JUMPI DUP3 ISZERO ISZERO DUP1 PUSH2 0x1A15 JUMPI JUMPDEST ISZERO PUSH2 0x19DE JUMPI DUP2 MLOAD PUSH4 0x31A9108F PUSH1 0xE1 SHL DUP2 MSTORE PUSH1 0x80 MLOAD DUP2 ADD DUP6 SWAP1 MSTORE PUSH1 0x20 SWAP5 SWAP1 PUSH1 0x1 PUSH1 0x1 PUSH1 0xA0 SHL SUB DUP7 DUP3 PUSH1 0x24 DUP2 PUSH32 0x0 DUP6 AND GAS STATICCALL SWAP2 DUP3 ISZERO PUSH2 0xC73 JUMPI DUP5 SWAP3 PUSH2 0x19A7 JUMPI JUMPDEST POP AND CALLER EQ PUSH2 0x1962 JUMPI PUSH2 0x185D PUSH1 0xA SLOAD PUSH2 0x1C16 JUMP JUMPDEST PUSH1 0xA DUP2 SWAP1 SSTORE DUP4 MLOAD CALLER PUSH1 0x60 SHL PUSH12 0xFFFFFFFFFFFFFFFFFFFFFFFF NOT AND DUP8 DUP3 ADD SWAP1 DUP2 MSTORE PUSH1 0x14 DUP2 ADD DUP5 SWAP1 MSTORE CALLVALUE PUSH1 0x34 DUP3 ADD MSTORE TIMESTAMP PUSH1 0x54 DUP3 ADD MSTORE PUSH1 0x74 DUP2 ADD SWAP3 SWAP1 SWAP3 MSTORE PUSH2 0x18A5 DUP2 PUSH1 0x94 DUP5 ADD PUSH2 0xB54 JUMP JUMPDEST MLOAD SWAP1 KECCAK256 SWAP4 TIMESTAMP ADD SWAP1 DUP2 TIMESTAMP GT PUSH2 0x194C JUMPI SWAP1 PUSH1 0x1 SWAP3 SWAP2 PUSH2 0x18EF DUP6 MLOAD PUSH2 0x18C6 DUP2 PUSH2 0x1B3B JUMP JUMPDEST DUP3 DUP2 MSTORE CALLVALUE DUP10 DUP3 ADD MSTORE CALLER DUP8 DUP3 ADD MSTORE DUP4 PUSH1 0x60 DUP3 ADD MSTORE DUP6 PUSH1 0x80 DUP3 ADD MSTORE DUP8 DUP6 MSTORE PUSH1 0x80 MLOAD DUP10 MSTORE DUP7 DUP6 KECCAK256 PUSH2 0x1C3B JUMP JUMPDEST DUP1 DUP4 MSTORE PUSH1 0x6 DUP8 MSTORE PUSH2 0x1902 DUP7 DUP7 DUP6 KECCAK256 PUSH2 0x1C93 JUMP JUMPDEST CALLER DUP4 MSTORE PUSH1 0x8 DUP8 MSTORE PUSH2 0x1915 DUP7 DUP7 DUP6 KECCAK256 PUSH2 0x1C93 JUMP JUMPDEST DUP5 MLOAD SWAP2 CALLVALUE DUP4 MSTORE DUP8 DUP4 ADD MSTORE DUP6 PUSH32 0xE8185081BF7F538B159B0A7E80F766EE1241903EABE47BC96993B7250A743CAA DUP7 CALLER SWAP5 LOG4 SSTORE MLOAD SWAP1 DUP2 MSTORE RETURN JUMPDEST PUSH4 0x4E487B71 PUSH1 0xE0 SHL DUP4 MSTORE PUSH1 0x80 MLOAD PUSH1 0x11 SWAP1 MSTORE PUSH1 0x24 DUP4 REVERT JUMPDEST DUP3 MLOAD PUSH3 0x461BCD PUSH1 0xE5 SHL DUP2 MSTORE PUSH1 0x80 MLOAD DUP2 ADD DUP7 SWAP1 MSTORE PUSH1 0x19 PUSH1 0x24 DUP3 ADD MSTORE PUSH32 0x43616E6E6F74206F66666572206F6E206F776E20746F6B656E00000000000000 PUSH1 0x44 DUP3 ADD MSTORE PUSH1 0x64 SWAP1 REVERT JUMPDEST SWAP1 SWAP2 POP DUP7 DUP2 DUP2 RETURNDATASIZE DUP4 GT PUSH2 0x19D7 JUMPI JUMPDEST PUSH2 0x19BF DUP2 DUP4 PUSH2 0x1B81 JUMP JUMPDEST DUP2 ADD SUB SLT PUSH2 0xC68 JUMPI PUSH2 0x19D0 SWAP1 PUSH2 0x1C02 JUMP JUMPDEST SWAP1 CODESIZE PUSH2 0x184A JUMP JUMPDEST POP RETURNDATASIZE PUSH2 0x19B5 JUMP JUMPDEST PUSH1 0x64 DUP3 MLOAD PUSH3 0x461BCD PUSH1 0xE5 SHL DUP2 MSTORE PUSH1 0x20 PUSH1 0x80 MLOAD DUP3 ADD MSTORE PUSH1 0x10 PUSH1 0x24 DUP3 ADD MSTORE PUSH16 0x24B73B30B634B210323AB930BA34B7B7 PUSH1 0x81 SHL PUSH1 0x44 DUP3 ADD MSTORE REVERT JUMPDEST POP PUSH3 0x278D00 DUP4 GT ISZERO PUSH2 0x17ED JUMP JUMPDEST PUSH1 0x64 DUP3 MLOAD PUSH3 0x461BCD PUSH1 0xE5 SHL DUP2 MSTORE PUSH1 0x20 PUSH1 0x80 MLOAD DUP3 ADD MSTORE PUSH1 0x1C PUSH1 0x24 DUP3 ADD MSTORE PUSH32 0x4F66666572206D7573742062652067726561746572207468616E203000000000 PUSH1 0x44 DUP3 ADD MSTORE REVERT JUMPDEST SWAP2 SWAP1 POP CALLVALUE PUSH2 0x389 JUMPI PUSH1 0x20 DUP1 PUSH1 0x3 NOT CALLDATASIZE ADD SLT PUSH2 0xC68 JUMPI SWAP3 PUSH1 0x80 MLOAD CALLDATALOAD DUP2 MSTORE PUSH1 0x6 PUSH1 0x20 MSTORE DUP2 DUP2 KECCAK256 SWAP4 DUP5 SLOAD SWAP1 DUP2 DUP6 MSTORE PUSH1 0x20 DUP6 ADD SWAP6 DUP4 MSTORE PUSH1 0x20 DUP4 KECCAK256 SWAP3 SWAP1 JUMPDEST DUP3 DUP3 LT PUSH2 0x1AB7 JUMPI PUSH2 0x36E DUP7 DUP7 PUSH2 0x364 DUP3 DUP12 SUB DUP4 PUSH2 0x1B81 JUMP JUMPDEST DUP4 SLOAD DUP8 MSTORE SWAP6 DUP7 ADD SWAP6 PUSH1 0x1 SWAP4 DUP5 ADD SWAP4 SWAP1 SWAP2 ADD SWAP1 PUSH2 0x1A9F JUMP JUMPDEST PUSH1 0x20 SWAP1 PUSH1 0x20 PUSH1 0x40 DUP2 DUP4 ADD SWAP3 DUP3 DUP2 MSTORE DUP6 MLOAD DUP1 SWAP5 MSTORE ADD SWAP4 ADD SWAP2 PUSH1 0x0 JUMPDEST DUP3 DUP2 LT PUSH2 0x1AF6 JUMPI POP POP POP POP SWAP1 JUMP JUMPDEST DUP4 MLOAD DUP6 MSTORE SWAP4 DUP2 ADD SWAP4 SWAP3 DUP2 ADD SWAP3 PUSH1 0x1 ADD PUSH2 0x1AE8 JUMP JUMPDEST PUSH1 0x40 SWAP1 PUSH1 0x3 NOT ADD SLT PUSH2 0x1B20 JUMPI PUSH1 0x4 CALLDATALOAD SWAP1 PUSH1 0x24 CALLDATALOAD SWAP1 JUMP JUMPDEST PUSH1 0x0 DUP1 REVERT JUMPDEST PUSH1 0x4 CALLDATALOAD SWAP1 PUSH1 0x1 PUSH1 0x1 PUSH1 0xA0 SHL SUB DUP3 AND DUP3 SUB PUSH2 0x1B20 JUMPI JUMP JUMPDEST PUSH1 0xA0 DUP2 ADD SWAP1 DUP2 LT PUSH8 0xFFFFFFFFFFFFFFFF DUP3 GT OR PUSH2 0x1B57 JUMPI PUSH1 0x40 MSTORE JUMP JUMPDEST PUSH4 0x4E487B71 PUSH1 0xE0 SHL PUSH1 0x0 MSTORE PUSH1 0x41 PUSH1 0x4 MSTORE PUSH1 0x24 PUSH1 0x0 REVERT JUMPDEST PUSH8 0xFFFFFFFFFFFFFFFF DUP2 GT PUSH2 0x1B57 JUMPI PUSH1 0x40 MSTORE JUMP JUMPDEST SWAP1 PUSH1 0x1F DUP1 NOT SWAP2 ADD AND DUP2 ADD SWAP1 DUP2 LT PUSH8 0xFFFFFFFFFFFFFFFF DUP3 GT OR PUSH2 0x1B57 JUMPI PUSH1 0x40 MSTORE JUMP JUMPDEST SWAP1 DUP2 MSTORE PUSH1 0x20 DUP2 ADD SWAP2 SWAP1 SWAP2 MSTORE PUSH1 0x1 PUSH1 0x1 PUSH1 0xA0 SHL SUB SWAP1 SWAP2 AND PUSH1 0x40 DUP3 ADD MSTORE PUSH1 0x60 DUP2 ADD SWAP2 SWAP1 SWAP2 MSTORE SWAP1 ISZERO ISZERO PUSH1 0x80 DUP3 ADD MSTORE PUSH1 0xA0 ADD SWAP1 JUMP JUMPDEST DUP1 SLOAD DUP3 LT ISZERO PUSH2 0x1BEC JUMPI PUSH1 0x0 MSTORE PUSH1 0x20 PUSH1 0x0 KECCAK256 ADD SWAP1 PUSH1 0x0 SWAP1 JUMP JUMPDEST PUSH4 0x4E487B71 PUSH1 0xE0 SHL PUSH1 0x0 MSTORE PUSH1 0x32 PUSH1 0x4 MSTORE PUSH1 0x24 PUSH1 0x0 REVERT JUMPDEST MLOAD SWAP1 PUSH1 0x1 PUSH1 0x1 PUSH1 0xA0 SHL SUB DUP3 AND DUP3 SUB PUSH2 0x1B20 JUMPI JUMP JUMPDEST PUSH1 0x0 NOT DUP2 EQ PUSH2 0x1C25 JUMPI PUSH1 0x1 ADD SWAP1 JUMP JUMPDEST PUSH4 0x4E487B71 PUSH1 0xE0 SHL PUSH1 0x0 MSTORE PUSH1 0x11 PUSH1 0x4 MSTORE PUSH1 0x24 PUSH1 0x0 REVERT JUMPDEST PUSH1 0x4 PUSH1 0x80 SWAP2 DUP4 MLOAD DUP2 SSTORE PUSH1 0x20 DUP5 ADD MLOAD PUSH1 0x1 DUP3 ADD SSTORE PUSH1 0x2 DUP2 ADD PUSH1 0x1 DUP1 PUSH1 0xA0 SHL SUB PUSH1 0x40 DUP7 ADD MLOAD AND PUSH12 0xFFFFFFFFFFFFFFFFFFFFFFFF PUSH1 0xA0 SHL DUP3 SLOAD AND OR SWAP1 SSTORE PUSH1 0x60 DUP5 ADD MLOAD PUSH1 0x3 DUP3 ADD SSTORE ADD SWAP2 ADD MLOAD ISZERO ISZERO PUSH1 0xFF DUP1 NOT DUP4 SLOAD AND SWAP2 AND OR SWAP1 SSTORE JUMP JUMPDEST DUP1 SLOAD PUSH9 0x10000000000000000 DUP2 LT ISZERO PUSH2 0x1B57 JUMPI PUSH2 0x1CB5 SWAP2 PUSH1 0x1 DUP3 ADD DUP2 SSTORE PUSH2 0x1BD4 JUMP JUMPDEST DUP2 SWAP3 SWAP2 SLOAD SWAP1 PUSH1 0x3 SHL SWAP2 DUP3 SHL SWAP2 PUSH1 0x0 NOT SWAP1 SHL NOT AND OR SWAP1 SSTORE JUMP JUMPDEST SWAP1 PUSH1 0x40 MLOAD PUSH2 0x1CDA DUP2 PUSH2 0x1B3B JUMP JUMPDEST DUP3 SLOAD DUP2 MSTORE PUSH1 0x1 DUP4 ADD SLOAD PUSH1 0x20 DUP3 ADD MSTORE PUSH1 0x2 DUP4 ADD SLOAD PUSH1 0x1 PUSH1 0x1 PUSH1 0xA0 SHL SUB AND PUSH1 0x40 DUP3 ADD MSTORE PUSH1 0x3 DUP4 ADD SLOAD PUSH1 0x60 DUP3 ADD MSTORE PUSH1 0x4 SWAP1 SWAP3 ADD SLOAD PUSH1 0xFF AND ISZERO ISZERO PUSH1 0x80 DUP4 ADD MSTORE JUMP JUMPDEST ISZERO PUSH2 0x1D1E JUMPI JUMP JUMPDEST PUSH1 0x40 MLOAD PUSH3 0x461BCD PUSH1 0xE5 SHL DUP2 MSTORE PUSH1 0x20 PUSH1 0x4 DUP3 ADD MSTORE PUSH1 0x12 PUSH1 0x24 DUP3 ADD MSTORE PUSH18 0x4C697374696E67206E6F7420616374697665 PUSH1 0x70 SHL PUSH1 0x44 DUP3 ADD MSTORE PUSH1 0x64 SWAP1 REVERT JUMPDEST DUP2 DUP2 MUL SWAP3 SWAP2 DUP2 ISZERO SWAP2 DUP5 DIV EQ OR ISZERO PUSH2 0x1C25 JUMPI JUMP JUMPDEST SWAP2 SWAP1 DUP3 PUSH1 0x80 SWAP2 SUB SLT PUSH2 0x1B20 JUMPI PUSH2 0x1D80 DUP3 PUSH2 0x1C02 JUMP JUMPDEST SWAP2 PUSH1 0x20 DUP2 ADD MLOAD SWAP2 PUSH1 0x60 PUSH1 0x40 DUP4 ADD MLOAD SWAP3 ADD MLOAD SWAP1 JUMP JUMPDEST SWAP2 SWAP1 DUP3 SUB SWAP2 DUP3 GT PUSH2 0x1C25 JUMPI JUMP JUMPDEST ISZERO PUSH2 0x1DA8 JUMPI JUMP JUMPDEST PUSH1 0x40 MLOAD PUSH3 0x461BCD PUSH1 0xE5 SHL DUP2 MSTORE PUSH1 0x20 PUSH1 0x4 DUP3 ADD MSTORE PUSH1 0x18 PUSH1 0x24 DUP3 ADD MSTORE PUSH32 0x596F7520646F6E2774206F776E207468697320746F6B656E0000000000000000 PUSH1 0x44 DUP3 ADD MSTORE PUSH1 0x64 SWAP1 REVERT JUMPDEST SWAP1 DUP2 PUSH1 0x20 SWAP2 SUB SLT PUSH2 0x1B20 JUMPI MLOAD DUP1 ISZERO ISZERO DUP2 SUB PUSH2 0x1B20 JUMPI SWAP1 JUMP JUMPDEST ISZERO PUSH2 0x1E0C JUMPI JUMP JUMPDEST PUSH1 0x40 MLOAD PUSH3 0x461BCD PUSH1 0xE5 SHL DUP2 MSTORE PUSH1 0x20 PUSH1 0x4 DUP3 ADD MSTORE PUSH1 0x18 PUSH1 0x24 DUP3 ADD MSTORE PUSH32 0x4D61726B6574706C616365206E6F7420617070726F7665640000000000000000 PUSH1 0x44 DUP3 ADD MSTORE PUSH1 0x64 SWAP1 REVERT JUMPDEST ISZERO PUSH2 0x1E58 JUMPI JUMP JUMPDEST PUSH1 0x40 MLOAD PUSH3 0x461BCD PUSH1 0xE5 SHL DUP2 MSTORE PUSH1 0x20 PUSH1 0x4 DUP3 ADD MSTORE PUSH1 0x10 PUSH1 0x24 DUP3 ADD MSTORE PUSH16 0x4F66666572206E6F7420616374697665 PUSH1 0x80 SHL PUSH1 0x44 DUP3 ADD MSTORE PUSH1 0x64 SWAP1 REVERT JUMPDEST PUSH1 0xFF PUSH1 0x1 SLOAD PUSH1 0xA0 SHR AND PUSH2 0x1E9F JUMPI JUMP JUMPDEST PUSH1 0x40 MLOAD PUSH4 0xD93C0665 PUSH1 0xE0 SHL DUP2 MSTORE PUSH1 0x4 SWAP1 REVERT JUMPDEST PUSH1 0x2 PUSH1 0x0 SLOAD EQ PUSH2 0x1EC2 JUMPI PUSH1 0x2 PUSH1 0x0 SSTORE JUMP JUMPDEST PUSH1 0x40 MLOAD PUSH4 0x3EE5AEB5 PUSH1 0xE0 SHL DUP2 MSTORE PUSH1 0x4 SWAP1 REVERT JUMPDEST PUSH1 0x1 SLOAD PUSH1 0x1 PUSH1 0x1 PUSH1 0xA0 SHL SUB AND CALLER SUB PUSH2 0x1EE8 JUMPI JUMP JUMPDEST PUSH1 0x40 MLOAD PUSH4 0x118CDAA7 PUSH1 0xE0 SHL DUP2 MSTORE CALLER PUSH1 0x4 DUP3 ADD MSTORE PUSH1 0x24 SWAP1 REVERT INVALID LOG2 PUSH5 0x6970667358 0x22 SLT KECCAK256 PUSH8 0x8EB35015D37D2DC6 SWAP1 PUSH25 0xF23DDB97CEBED8485E9EF123FF9AD1ACC822EA8DF764736F6C PUSH4 0x43000818 STOP CALLER "},"methodIdentifiers":{"MAX_MARKETPLACE_FEE()":"ca28ae84","acceptOffer(bytes32)":"b596a15e","buyFromListing(bytes32)":"96fd5b93","cancelListing(bytes32)":"9299e552","cancelOffer(bytes32)":"f952279e","createListing(uint256,uint256)":"a79123a9","emergencyWithdraw()":"db2e21bc","getListing(bytes32)":"175c0d16","getOffer(bytes32)":"d597b8c8","getTokenListings(uint256)":"11fc9fed","getTokenOffers(uint256)":"01388d37","getUserListings(address)":"eb18a9d8","getUserOffers(address)":"661d2c2c","listings(bytes32)":"c18b8db4","makeOffer(uint256,uint256)":"05b7cdd3","marketplaceFee()":"6a166964","offers(bytes32)":"474d3ff0","onERC721Received(address,address,uint256,bytes)":"150b7a02","owner()":"8da5cb5b","pause()":"8456cb59","paused()":"5c975abb","permalinkContract()":"827898f3","permalinkNFT()":"230dc278","platformTreasury()":"e138818c","renounceOwnership()":"715018a6","setMarketplaceFee(uint256)":"9407ea98","tokenListings(uint256,uint256)":"40cfece2","tokenOffers(uint256,uint256)":"944985f5","transferOwnership(address)":"f2fde38b","unpause()":"3f4ba83a","userListings(address,uint256)":"86cfa7d3","userOffers(address,uint256)":"bd5fec65"}}}}}