{"contracts/Permalink.sol":{"Permalink":{"abi":[{"inputs":[{"internalType":"address","name":"initialOwner","type":"address"}],"stateMutability":"nonpayable","type":"constructor"},{"inputs":[{"internalType":"address","name":"sender","type":"address"},{"internalType":"uint256","name":"balance","type":"uint256"},{"internalType":"uint256","name":"needed","type":"uint256"},{"internalType":"uint256","name":"tokenId","type":"uint256"}],"name":"ERC1155InsufficientBalance","type":"error"},{"inputs":[{"internalType":"address","name":"approver","type":"address"}],"name":"ERC1155InvalidApprover","type":"error"},{"inputs":[{"internalType":"uint256","name":"idsLength","type":"uint256"},{"internalType":"uint256","name":"valuesLength","type":"uint256"}],"name":"ERC1155InvalidArrayLength","type":"error"},{"inputs":[{"internalType":"address","name":"operator","type":"address"}],"name":"ERC1155InvalidOperator","type":"error"},{"inputs":[{"internalType":"address","name":"receiver","type":"address"}],"name":"ERC1155InvalidReceiver","type":"error"},{"inputs":[{"internalType":"address","name":"sender","type":"address"}],"name":"ERC1155InvalidSender","type":"error"},{"inputs":[{"internalType":"address","name":"operator","type":"address"},{"internalType":"address","name":"owner","type":"address"}],"name":"ERC1155MissingApprovalForAll","type":"error"},{"inputs":[],"name":"EnforcedPause","type":"error"},{"inputs":[],"name":"ExpectedPause","type":"error"},{"inputs":[{"internalType":"address","name":"owner","type":"address"}],"name":"OwnableInvalidOwner","type":"error"},{"inputs":[{"internalType":"address","name":"account","type":"address"}],"name":"OwnableUnauthorizedAccount","type":"error"},{"inputs":[],"name":"ReentrancyGuardReentrantCall","type":"error"},{"anonymous":false,"inputs":[{"indexed":true,"internalType":"address","name":"account","type":"address"},{"indexed":true,"internalType":"address","name":"operator","type":"address"},{"indexed":false,"internalType":"bool","name":"approved","type":"bool"}],"name":"ApprovalForAll","type":"event"},{"anonymous":false,"inputs":[{"indexed":true,"internalType":"address","name":"artist","type":"address"},{"indexed":false,"internalType":"string","name":"name","type":"string"},{"indexed":false,"internalType":"string","name":"bio","type":"string"},{"indexed":false,"internalType":"string","name":"avatarURI","type":"string"}],"name":"ArtistProfileUpdated","type":"event"},{"anonymous":false,"inputs":[{"indexed":true,"internalType":"uint256","name":"tokenId","type":"uint256"},{"indexed":true,"internalType":"address","name":"artist","type":"address"},{"indexed":false,"internalType":"string","name":"title","type":"string"},{"indexed":false,"internalType":"uint256","name":"price","type":"uint256"},{"indexed":false,"internalType":"uint256","name":"maxSupply","type":"uint256"}],"name":"ArtworkMinted","type":"event"},{"anonymous":false,"inputs":[{"indexed":true,"internalType":"uint256","name":"tokenId","type":"uint256"},{"indexed":true,"internalType":"address","name":"buyer","type":"address"},{"indexed":true,"internalType":"address","name":"artist","type":"address"},{"indexed":false,"internalType":"uint256","name":"amount","type":"uint256"},{"indexed":false,"internalType":"uint256","name":"price","type":"uint256"}],"name":"ArtworkPurchased","type":"event"},{"anonymous":false,"inputs":[{"indexed":true,"internalType":"address","name":"previousOwner","type":"address"},{"indexed":true,"internalType":"address","name":"newOwner","type":"address"}],"name":"OwnershipTransferred","type":"event"},{"anonymous":false,"inputs":[{"indexed":false,"internalType":"address","name":"account","type":"address"}],"name":"Paused","type":"event"},{"anonymous":false,"inputs":[{"indexed":false,"internalType":"uint256","name":"oldFee","type":"uint256"},{"indexed":false,"internalType":"uint256","name":"newFee","type":"uint256"}],"name":"PlatformFeeUpdated","type":"event"},{"anonymous":false,"inputs":[{"indexed":true,"internalType":"address","name":"operator","type":"address"},{"indexed":true,"internalType":"address","name":"from","type":"address"},{"indexed":true,"internalType":"address","name":"to","type":"address"},{"indexed":false,"internalType":"uint256[]","name":"ids","type":"uint256[]"},{"indexed":false,"internalType":"uint256[]","name":"values","type":"uint256[]"}],"name":"TransferBatch","type":"event"},{"anonymous":false,"inputs":[{"indexed":true,"internalType":"address","name":"operator","type":"address"},{"indexed":true,"internalType":"address","name":"from","type":"address"},{"indexed":true,"internalType":"address","name":"to","type":"address"},{"indexed":false,"internalType":"uint256","name":"id","type":"uint256"},{"indexed":false,"internalType":"uint256","name":"value","type":"uint256"}],"name":"TransferSingle","type":"event"},{"anonymous":false,"inputs":[{"indexed":false,"internalType":"string","name":"value","type":"string"},{"indexed":true,"internalType":"uint256","name":"id","type":"uint256"}],"name":"URI","type":"event"},{"anonymous":false,"inputs":[{"indexed":false,"internalType":"address","name":"account","type":"address"}],"name":"Unpaused","type":"event"},{"inputs":[],"name":"ARTIST_ROYALTY_PERCENTAGE","outputs":[{"internalType":"uint256","name":"","type":"uint256"}],"stateMutability":"view","type":"function"},{"inputs":[],"name":"MAX_PLATFORM_FEE","outputs":[{"internalType":"uint256","name":"","type":"uint256"}],"stateMutability":"view","type":"function"},{"inputs":[{"internalType":"address","name":"","type":"address"}],"name":"artistProfiles","outputs":[{"internalType":"string","name":"name","type":"string"},{"internalType":"string","name":"bio","type":"string"},{"internalType":"string","name":"avatarURI","type":"string"},{"internalType":"uint256","name":"totalCreated","type":"uint256"},{"internalType":"uint256","name":"totalCollected","type":"uint256"},{"internalType":"bool","name":"isRegistered","type":"bool"}],"stateMutability":"view","type":"function"},{"inputs":[{"internalType":"address","name":"","type":"address"},{"internalType":"uint256","name":"","type":"uint256"}],"name":"artistTokens","outputs":[{"internalType":"uint256","name":"","type":"uint256"}],"stateMutability":"view","type":"function"},{"inputs":[{"internalType":"uint256","name":"","type":"uint256"}],"name":"artworks","outputs":[{"internalType":"uint256","name":"tokenId","type":"uint256"},{"internalType":"address","name":"artist","type":"address"},{"internalType":"string","name":"title","type":"string"},{"internalType":"string","name":"description","type":"string"},{"internalType":"string","name":"metadataURI","type":"string"},{"internalType":"uint256","name":"price","type":"uint256"},{"internalType":"uint256","name":"maxSupply","type":"uint256"},{"internalType":"uint256","name":"currentSupply","type":"uint256"},{"internalType":"bool","name":"isActive","type":"bool"},{"internalType":"uint256","name":"createdAt","type":"uint256"}],"stateMutability":"view","type":"function"},{"inputs":[{"internalType":"address","name":"account","type":"address"},{"internalType":"uint256","name":"id","type":"uint256"}],"name":"balanceOf","outputs":[{"internalType":"uint256","name":"","type":"uint256"}],"stateMutability":"view","type":"function"},{"inputs":[{"internalType":"address[]","name":"accounts","type":"address[]"},{"internalType":"uint256[]","name":"ids","type":"uint256[]"}],"name":"balanceOfBatch","outputs":[{"internalType":"uint256[]","name":"","type":"uint256[]"}],"stateMutability":"view","type":"function"},{"inputs":[{"internalType":"address","name":"","type":"address"},{"internalType":"uint256","name":"","type":"uint256"}],"name":"collectorTokens","outputs":[{"internalType":"uint256","name":"","type":"uint256"}],"stateMutability":"view","type":"function"},{"inputs":[{"internalType":"uint256","name":"id","type":"uint256"}],"name":"exists","outputs":[{"internalType":"bool","name":"","type":"bool"}],"stateMutability":"view","type":"function"},{"inputs":[{"internalType":"address","name":"artist","type":"address"}],"name":"getArtistProfile","outputs":[{"internalType":"string","name":"artistName","type":"string"},{"internalType":"string","name":"bio","type":"string"},{"internalType":"string","name":"avatarURI","type":"string"},{"internalType":"uint256","name":"totalCreated","type":"uint256"},{"internalType":"uint256","name":"totalCollected","type":"uint256"},{"internalType":"bool","name":"isRegistered","type":"bool"}],"stateMutability":"view","type":"function"},{"inputs":[{"internalType":"address","name":"artist","type":"address"}],"name":"getArtistTokens","outputs":[{"internalType":"uint256[]","name":"","type":"uint256[]"}],"stateMutability":"view","type":"function"},{"inputs":[{"internalType":"uint256","name":"tokenId","type":"uint256"}],"name":"getArtwork","outputs":[{"internalType":"address","name":"artist","type":"address"},{"internalType":"string","name":"title","type":"string"},{"internalType":"string","name":"description","type":"string"},{"internalType":"string","name":"metadataURI","type":"string"},{"internalType":"uint256","name":"price","type":"uint256"},{"internalType":"uint256","name":"maxSupply","type":"uint256"},{"internalType":"uint256","name":"currentSupply","type":"uint256"},{"internalType":"bool","name":"isActive","type":"bool"},{"internalType":"uint256","name":"createdAt","type":"uint256"}],"stateMutability":"view","type":"function"},{"inputs":[{"internalType":"address","name":"collector","type":"address"}],"name":"getCollectorTokens","outputs":[{"internalType":"uint256[]","name":"","type":"uint256[]"}],"stateMutability":"view","type":"function"},{"inputs":[],"name":"getCurrentTokenId","outputs":[{"internalType":"uint256","name":"","type":"uint256"}],"stateMutability":"view","type":"function"},{"inputs":[{"internalType":"address","name":"account","type":"address"},{"internalType":"address","name":"operator","type":"address"}],"name":"isApprovedForAll","outputs":[{"internalType":"bool","name":"","type":"bool"}],"stateMutability":"view","type":"function"},{"inputs":[{"internalType":"string","name":"_title","type":"string"},{"internalType":"string","name":"_description","type":"string"},{"internalType":"string","name":"_metadataURI","type":"string"},{"internalType":"uint256","name":"_price","type":"uint256"},{"internalType":"uint256","name":"_maxSupply","type":"uint256"}],"name":"mintArtwork","outputs":[{"internalType":"uint256","name":"","type":"uint256"}],"stateMutability":"nonpayable","type":"function"},{"inputs":[],"name":"name","outputs":[{"internalType":"string","name":"","type":"string"}],"stateMutability":"view","type":"function"},{"inputs":[],"name":"owner","outputs":[{"internalType":"address","name":"","type":"address"}],"stateMutability":"view","type":"function"},{"inputs":[],"name":"pause","outputs":[],"stateMutability":"nonpayable","type":"function"},{"inputs":[],"name":"paused","outputs":[{"internalType":"bool","name":"","type":"bool"}],"stateMutability":"view","type":"function"},{"inputs":[],"name":"platformFeePercentage","outputs":[{"internalType":"uint256","name":"","type":"uint256"}],"stateMutability":"view","type":"function"},{"inputs":[{"internalType":"uint256","name":"tokenId","type":"uint256"},{"internalType":"uint256","name":"amount","type":"uint256"}],"name":"purchaseArtwork","outputs":[],"stateMutability":"payable","type":"function"},{"inputs":[],"name":"renounceOwnership","outputs":[],"stateMutability":"nonpayable","type":"function"},{"inputs":[{"internalType":"address","name":"from","type":"address"},{"internalType":"address","name":"to","type":"address"},{"internalType":"uint256[]","name":"ids","type":"uint256[]"},{"internalType":"uint256[]","name":"values","type":"uint256[]"},{"internalType":"bytes","name":"data","type":"bytes"}],"name":"safeBatchTransferFrom","outputs":[],"stateMutability":"nonpayable","type":"function"},{"inputs":[{"internalType":"address","name":"from","type":"address"},{"internalType":"address","name":"to","type":"address"},{"internalType":"uint256","name":"id","type":"uint256"},{"internalType":"uint256","name":"value","type":"uint256"},{"internalType":"bytes","name":"data","type":"bytes"}],"name":"safeTransferFrom","outputs":[],"stateMutability":"nonpayable","type":"function"},{"inputs":[{"internalType":"address","name":"operator","type":"address"},{"internalType":"bool","name":"approved","type":"bool"}],"name":"setApprovalForAll","outputs":[],"stateMutability":"nonpayable","type":"function"},{"inputs":[{"internalType":"uint256","name":"_platformFeePercentage","type":"uint256"}],"name":"setPlatformFee","outputs":[],"stateMutability":"nonpayable","type":"function"},{"inputs":[{"internalType":"string","name":"newURI","type":"string"}],"name":"setURI","outputs":[],"stateMutability":"nonpayable","type":"function"},{"inputs":[{"internalType":"bytes4","name":"interfaceId","type":"bytes4"}],"name":"supportsInterface","outputs":[{"internalType":"bool","name":"","type":"bool"}],"stateMutability":"view","type":"function"},{"inputs":[],"name":"symbol","outputs":[{"internalType":"string","name":"","type":"string"}],"stateMutability":"view","type":"function"},{"inputs":[{"internalType":"uint256","name":"tokenId","type":"uint256"}],"name":"toggleArtworkStatus","outputs":[],"stateMutability":"nonpayable","type":"function"},{"inputs":[{"internalType":"uint256","name":"","type":"uint256"}],"name":"tokenToArtist","outputs":[{"internalType":"address","name":"","type":"address"}],"stateMutability":"view","type":"function"},{"inputs":[],"name":"totalSupply","outputs":[{"internalType":"uint256","name":"","type":"uint256"}],"stateMutability":"view","type":"function"},{"inputs":[{"internalType":"uint256","name":"id","type":"uint256"}],"name":"totalSupply","outputs":[{"internalType":"uint256","name":"","type":"uint256"}],"stateMutability":"view","type":"function"},{"inputs":[{"internalType":"address","name":"newOwner","type":"address"}],"name":"transferOwnership","outputs":[],"stateMutability":"nonpayable","type":"function"},{"inputs":[],"name":"unpause","outputs":[],"stateMutability":"nonpayable","type":"function"},{"inputs":[{"internalType":"string","name":"_name","type":"string"},{"internalType":"string","name":"_bio","type":"string"},{"internalType":"string","name":"_avatarURI","type":"string"}],"name":"updateArtistProfile","outputs":[],"stateMutability":"nonpayable","type":"function"},{"inputs":[{"internalType":"uint256","name":"tokenId","type":"uint256"},{"internalType":"uint256","name":"newPrice","type":"uint256"}],"name":"updateArtworkPrice","outputs":[],"stateMutability":"nonpayable","type":"function"},{"inputs":[{"internalType":"uint256","name":"","type":"uint256"}],"name":"uri","outputs":[{"internalType":"string","name":"","type":"string"}],"stateMutability":"view","type":"function"},{"inputs":[],"name":"withdrawPlatformFees","outputs":[],"stateMutability":"nonpayable","type":"function"}],"evm":{"bytecode":{"linkReferences":{},"object":"60803462000267576001600160401b0390601f620031e738819003918201601f1916830192919084841183851017620002515781602092849260409687528339810103126200026757516001600160a01b03929083811690819003620002675782519360208501858110848211176200025157845262000084600095868152620002c2565b81156200023957600580546001600160a01b031981168417909155167f8be0079c531659141344cd1fd0a4f28419497f9722a3daafe3b4186f6b6457e08580a36001600655620000d66008546200026c565b601f8111620001f8575b507f5065726d616c696e6b000000000000000000000000000000000000000000001260085560095462000113906200026c565b601f8111620001b7575b50600a64504c494e4b60d81b0160095560fa600a55600b8390558151906060820190811182821017620001a3578252602c81527f68747470733a2f2f6170692e7065726d616c696e6b2e6172742f6d657461646160208201526b3a3097bdb4b23e973539b7b760a11b828201526200019590620002c2565b51612df09081620003f78239f35b634e487b7160e01b84526041600452602484fd5b60098452620001f190601f0160051c7f6e1540171b6c0c960b71a7020d9f60077f6af931a8bbf590da0223dacf75c7af90810190620002a9565b386200011d565b600884526200023290601f0160051c7ff3f7a9fe364faab93b216da50a3214154f22a0a2b415b23a84c8169e8b636ee390810190620002a9565b38620000e0565b8351631e4fbdf760e01b815260048101869052602490fd5b634e487b7160e01b600052604160045260246000fd5b600080fd5b90600182811c921680156200029e575b60208310146200028857565b634e487b7160e01b600052602260045260246000fd5b91607f16916200027c565b818110620002b5575050565b60008155600101620002a9565b80519091906001600160401b0381116200025157620002e36002546200026c565b601f811162000397575b50602080601f83116001146200032d575081929360009262000321575b50508160011b916000199060031b1c191617600255565b0151905038806200030a565b90601f1983169460026000526020600020926000905b8782106200037e57505083600195961062000364575b505050811b01600255565b015160001960f88460031b161c1916905538808062000359565b8060018596829496860151815501950193019062000343565b6002600052620003e4907f405787fa12a823e0f2b7631cc41b3ba8828b3321ca811111fa75cd3aa3bb5ace601f840160051c81019160208510620003eb575b601f0160051c0190620002a9565b38620002ed565b9091508190620003d656fe6080604052600436101561001257600080fd5b60003560e01c8062fdd58e1461029157806301ffc9a71461028c57806302fe53051461028757806306fdde03146102825780630e89341c1461027d57806312e8e2c314610278578063167ddf6e14610273578063171212d51461026e57806318160ddd1461026957806320903b3f146102645780632eb2c2d61461025f57806335c2aab91461025a5780633998a6811461024b5780633f4ba83a146102555780634b602673146102505780634cf4bb061461024b5780634e1273f4146102465780634f558e79146102415780635001257e1461023c5780635024fd8c14610237578063552906ce14610232578063561892361461022d5780635b42a8fe146102285780635c975abb14610223578063715018a61461021e5780638456cb59146102195780638da5cb5b1461021457806392a05fe71461020f57806395d89b411461020a578063a22cb46514610205578063b23cd1a614610200578063b3b30640146101fb578063bd85b039146101f6578063cc0ad6e7146101f1578063cdd78cfc146101ec578063d0b7830b146101e7578063e0f8b313146101e2578063e985e9c5146101dd578063f242432a146101d85763f2fde38b146101d357600080fd5b611c3d565b611b20565b611ac3565b611a48565b6119c5565b6119a7565b61192c565b611900565b611859565b611760565b6116a4565b6115fc565b6115b2565b611589565b61152f565b6114d1565b6114ae565b611455565b611437565b611166565b61110e565b611090565b611062565b610fa8565b610de4565b610edc565b610e01565b610db0565b610c88565b610b8b565b610b6d565b610af9565b610988565b610887565b6107be565b6106d5565b610481565b61033a565b6102db565b600435906001600160a01b03821682036102ac57565b600080fd5b602435906001600160a01b03821682036102ac57565b35906001600160a01b03821682036102ac57565b346102ac5760403660031901126102ac57602061031f6102f9610296565b6024356000526000835260406000209060018060a01b0316600052602052604060002090565b54604051908152f35b6001600160e01b03198116036102ac57565b346102ac5760203660031901126102ac57602060043561035981610328565b63ffffffff60e01b16636cdb3d1360e11b8114908115610397575b8115610386575b506040519015158152f35b6301ffc9a760e01b1490503861037b565b6303a24d0760e21b81149150610374565b634e487b7160e01b600052604160045260246000fd5b60c081019081106001600160401b038211176103d957604052565b6103a8565b90601f801991011681019081106001600160401b038211176103d957604052565b6040519061014082018281106001600160401b038211176103d957604052565b6001600160401b0381116103d957601f01601f191660200190565b81601f820112156102ac578035906104518261041f565b9261045f60405194856103de565b828452602083830101116102ac57816000926020809301838601378301015290565b346102ac576020806003193601126102ac576001600160401b036004358181116102ac576104b390369060040161043a565b916104bc61251a565b82519182116103d9576104d9826104d46002546105a2565b611faf565b602090601f831160011461051b5750819061050b93600092610510575b50508160011b916000199060031b1c19161790565b600255005b0151905038806104f6565b90601f1983169361054e60026000527f405787fa12a823e0f2b7631cc41b3ba8828b3321ca811111fa75cd3aa3bb5ace90565b926000905b86821061058a5750508360019510610571575b505050811b01600255005b015160001960f88460031b161c19169055388080610566565b80600185968294968601518155019501930190610553565b90600182811c921680156105d2575b60208310146105bc57565b634e487b7160e01b600052602260045260246000fd5b91607f16916105b1565b906040519182600082546105ef816105a2565b9081845260209460019160018116908160001461065f5750600114610620575b50505061061e925003836103de565b565b600090815285812095935091905b81831061064757505061061e935082010138808061060f565b8554888401850152948501948794509183019161062e565b9250505061061e94925060ff191682840152151560051b82010138808061060f565b919082519283825260005b8481106106ad575050826000602080949584010152601f8019910116010190565b60208183018101518483018201520161068c565b9060206106d2928181520190610681565b90565b346102ac576000806003193601126107bb576040519080600854906106f9826105a2565b8085529160209160019182811690811561078e5750600114610736575b61073286610726818803826103de565b604051918291826106c1565b0390f35b9350600884527ff3f7a9fe364faab93b216da50a3214154f22a0a2b415b23a84c8169e8b636ee35b83851061077b575050505081016020016107268261073238610716565b805486860184015293820193810161075e565b90508695506107329693506020925061072694915060ff191682840152151560051b820101929338610716565b80fd5b346102ac576020806003193601126102ac576040516000916002546107e2816105a2565b80845290600190818116908115610867575060011461080c575b61073284610726818803826103de565b600260009081529294507f405787fa12a823e0f2b7631cc41b3ba8828b3321ca811111fa75cd3aa3bb5ace5b82841061085457505050816107329361072692820101936107fc565b8054858501870152928501928101610838565b60ff1916858501525050151560051b8201019150610726816107326107fc565b346102ac5760203660031901126102ac576004356108a361251a565b6103e881116108e957600a8054908290556040805191825260208201929092527fd347e206f25a89b917fc9482f1a2d294d749baa4dc9bde7fb495ee11fe4916439190a1005b60405162461bcd60e51b815260206004820152600c60248201526b08ccaca40e8dede40d0d2ced60a31b6044820152606490fd5b959261095f9061095161096d946101009a97949d9c9b989d6101209060018060a01b03168b528060208c01528a0190610681565b9088820360408a0152610681565b908682036060880152610681565b97608085015260a084015260c0830152151560e08201520152565b346102ac5760203660031901126102ac57600435600b5481111580610aa1575b6109b190611ccb565b600052600d60205260406000206109c66103ff565b8154815260018201546001600160a01b03166020820190815290919061073290610120906109f6600285016105dc565b9360408601948552610a0a600382016105dc565b9560608101968752610a1e600483016105dc565b9260808201938452600583015460a08301908152610a94610a8160068601549360c0860194855260078701549560e081019687526009610a6260088a015460ff1690565b151561010083019081529801549901899052516001600160a01b031690565b9851995195519151925193519451151590565b94604051998a998a61091d565b508015156109a8565b949192610ad960a095989794610acb610ae79460c08a5260c08a0190610681565b9088820360208a0152610681565b908682036040880152610681565b95606085015260808401521515910152565b346102ac5760203660031901126102ac576001600160a01b03610b1a610296565b16600052600c6020526040600020610b31816105dc565b610732610b40600184016105dc565b92610b4d600282016105dc565b90600381015460ff60056004840154930154169260405196879687610aaa565b346102ac5760003660031901126102ac576020600454604051908152f35b346102ac5760a03660031901126102ac576001600160401b036004358181116102ac57610bbc90369060040161043a565b906024358181116102ac57610bd590369060040161043a565b6044359182116102ac5761073292610bf4610c0193369060040161043a565b6084359260643592611d0a565b6040519081529081906020820190565b6001600160401b0381116103d95760051b60200190565b9080601f830112156102ac576020908235610c4281610c11565b93610c5060405195866103de565b81855260208086019260051b8201019283116102ac57602001905b828210610c79575050505090565b81358152908301908301610c6b565b346102ac5760a03660031901126102ac57610ca1610296565b610ca96102b1565b90604435916001600160401b03908184116102ac57610ccd60049436908601610c28565b906064358381116102ac57610ce59036908701610c28565b926084359081116102ac57610cfd903690870161043a565b936001600160a01b03808216903382141580610d8c575b610d5f57831615610d475715610d3057610d2e9550612661565b005b604051626a0d4560e21b8152600081880152602490fd5b604051632bfa23e760e11b8152600081890152602490fd5b6040805163711bec9160e11b815233818b019081526001600160a01b038616602082015290918291010390fd5b50600082815260016020908152604080832033845290915290205460ff1615610d14565b346102ac5760203660031901126102ac57600435600052600e602052602060018060a01b0360406000205416604051908152f35b346102ac5760003660031901126102ac5760206040516103e88152f35b346102ac5760003660031901126102ac57610e1a61251a565b60075460ff811615610e595760ff19166007557f5db9ee0a495bf2e6ff9c91a7834c1ba4fdd244a5e8aa4e537bd38aeae4b073aa6020604051338152a1005b604051638dfc202b60e01b8152600490fd5b9693610ea4610ec094610eb2936101209b98959e9d9c999e610140918c5260018060a01b031660208c01528060408c01528a0190610681565b9088820360608a0152610681565b908682036080880152610681565b9760a085015260c084015260e083015215156101008201520152565b346102ac5760203660031901126102ac576004356000908152600d60205260409020805460018201546001600160a01b03169161073290610f1f600282016105dc565b90610f2c600382016105dc565b610f38600483016105dc565b6005830154600684015491600785015493600960ff600888015416960154966040519a8b9a8b610e6b565b90815180825260208080930193019160005b828110610f83575050505090565b835185529381019392810192600101610f75565b9060206106d2928181520190610f63565b346102ac5760403660031901126102ac576004356001600160401b038082116102ac57366023830112156102ac578160040135610fe481610c11565b92610ff260405194856103de565b8184526020916024602086019160051b830101913683116102ac57602401905b82821061104b57856024358681116102ac576107329161103961103f923690600401610c28565b90612260565b60405191829182610f97565b838091611057846102c7565b815201910190611012565b346102ac5760203660031901126102ac57600435600052600360205260206040600020541515604051908152f35b346102ac5760403660031901126102ac57600435600090808252600e6020526110c660018060a01b03604084205416331461231f565b8152600d602052602435600560408320015580f35b634e487b7160e01b600052603260045260246000fd5b80548210156111095760005260206000200190600090565b6110db565b346102ac5760403660031901126102ac57611127610296565b6001600160a01b03166000908152601060205260409020805460243591908210156102ac57602091611158916110f1565b90546040519160031b1c8152f35b60403660031901126102ac57602435600435611180612546565b611188612564565b600b548111158061142e575b61119d90611ccb565b6111b181600052600d602052604060002090565b916111c86111c3600885015460ff1690565b61235c565b6111d38115156123a0565b60078301916111f26111e68385546123ec565b600686015410156123f9565b6005840193611202838654612451565b61120e81341015612464565b611243611228611220600a5484612451565b612710900490565b61123e6112376112208561243a565b91846124a7565b6124a7565b9461125761124f6124b4565b868633612587565b6112628582546123ec565b9055336000908152600c602052604090206004906005810161128c611288825460ff1690565b1590565b611410575b500161129e8582546123ec565b905560009460005b336000908152601060205260409020548110156114055733600090815260106020526040902085906112e7906112dd9084906110f1565b90549060031b1c90565b146112f4576001016112a6565b5090919293945060015b156113e6575b8015801561139c575b5050803411611369575b506001015492546040805193845260208401919091526001600160a01b039093169233927f465c604f8dcf4d2dba83e76f95c4cb5876f0976ec008a9326b6d4b209142bb459190a4610d2e6001600655565b600080806113788194346124a7565b818115611393575b3390f11561138e5738611317565b6124d7565b506108fc611380565b600080809381936113c86113bc6113bc60018b015460018060a01b031690565b6001600160a01b031690565b9083906113dd575bf11561138e57388061130d565b506108fc6113d0565b3360009081526010602052604090206114009085906121f0565b611304565b5090919293946112fe565b805460ff191660011790556000600382015560008282015538611291565b50801515611194565b346102ac5760003660031901126102ac576020600b54604051908152f35b346102ac5760203660031901126102ac57600435600090808252600e60205261148b60018060a01b03604084205416331461231f565b8152600d60205260408120600801805460ff818116151660ff1990911617905580f35b346102ac5760003660031901126102ac57602060ff600754166040519015158152f35b346102ac576000806003193601126107bb576114eb61251a565b600580546001600160a01b0319811690915581906001600160a01b03167f8be0079c531659141344cd1fd0a4f28419497f9722a3daafe3b4186f6b6457e08280a380f35b346102ac5760003660031901126102ac5761154861251a565b611550612546565b600160ff1960075416176007557f62e78cea01bee320cd4e420270b5ea74000d11b0c9f74754ebdbfc544b05a2586020604051338152a1005b346102ac5760003660031901126102ac576005546040516001600160a01b039091168152602090f35b346102ac5760403660031901126102ac576115cb610296565b6001600160a01b03166000908152600f60205260409020805460243591908210156102ac57602091611158916110f1565b346102ac576000806003193601126107bb57604051908060095490611620826105a2565b8085529160209160019182811690811561078e575060011461164c5761073286610726818803826103de565b9350600984527f6e1540171b6c0c960b71a7020d9f60077f6af931a8bbf590da0223dacf75c7af5b838510611691575050505081016020016107268261073238610716565b8054868601840152938201938101611674565b346102ac5760403660031901126102ac576116bd610296565b60243590811515908183036102ac576001600160a01b0381169283156117485761170961171a9233600052600160205260406000209060018060a01b0316600052602052604060002090565b9060ff801983541691151516179055565b6040519081527f17307eab39ab6107e8899845ad3d59bd9653f200f220920489ca2b5937696c3160203392a3005b60405162ced3e160e81b815260006004820152602490fd5b346102ac5760603660031901126102ac576001600160401b036004358181116102ac5761179190369060040161043a565b6024358281116102ac576117a990369060040161043a565b916044359081116102ac576117e37f39dfee1413bb413ba51702fe3cd693cd3b02628fbac61358818d502b7af5009591369060040161043a565b600093338552600c602052611825826002604088206005810160ff8154161561183c575b506118128882612077565b61181f8560018301612077565b01612077565b6118366040519283923396846124e3565b0390a280f35b805460ff1916600117905588600382015588600482015538611807565b346102ac5760203660031901126102ac576001600160a01b0361187a610296565b16600052600c6020526040600020604051611894816103be565b61189d826105dc565b81526107326118ae600184016105dc565b91602081019283526118c2600285016105dc565b93846040830152600381015480606084015260ff60056004840154938460808701520154161515928360a08201525194519560405196879687610aaa565b346102ac5760203660031901126102ac5760043560005260036020526020604060002054604051908152f35b346102ac576020806003193601126102ac576001600160a01b0361194e610296565b16600052600f6020526040600020906040519081602084549182815201936000526020600020916000905b828210611990576107328561103f818903826103de565b835486529485019460019384019390910190611979565b346102ac5760003660031901126102ac576020600a54604051908152f35b346102ac576000806003193601126107bb576119df61251a565b478015611a0d576005548291829182918291611a03906001600160a01b03166113bc565b82f11561138e5780f35b60405162461bcd60e51b81526020600482015260136024820152724e6f206665657320746f20776974686472617760681b6044820152606490fd5b346102ac576020806003193601126102ac576001600160a01b03611a6a610296565b1660005260106020526040600020906040519081602084549182815201936000526020600020916000905b828210611aac576107328561103f818903826103de565b835486529485019460019384019390910190611a95565b346102ac5760403660031901126102ac57602060ff611b14611ae3610296565b611aeb6102b1565b6001600160a01b0391821660009081526001865260408082209290931681526020919091522090565b54166040519015158152f35b346102ac5760a03660031901126102ac57611b39610296565b611b416102b1565b6084356001600160401b0381116102ac57611b6090369060040161043a565b906001600160a01b03838116903382141580611c19575b611bf257821615611bd95715611bc157610d2e92611bb96064356044359160405192600184526020840152604083019160018352606084015260808301604052565b929091612661565b604051626a0d4560e21b815260006004820152602490fd5b604051632bfa23e760e11b815260006004820152602490fd5b60405163711bec9160e11b81523360048201526001600160a01b0386166024820152604490fd5b50600082815260016020908152604080832033845290915290205460ff1615611b77565b346102ac5760203660031901126102ac57611c56610296565b611c5e61251a565b6001600160a01b03908116908115611cb257600554826bffffffffffffffffffffffff60a01b821617600555167f8be0079c531659141344cd1fd0a4f28419497f9722a3daafe3b4186f6b6457e0600080a3005b604051631e4fbdf760e01b815260006004820152602490fd5b15611cd257565b60405162461bcd60e51b815260206004820152601060248201526f125b9d985b1a59081d1bdad95b88125160821b6044820152606490fd5b92937f84d4c409f4bea14c1185cf0ecfe21eaf370da5995ba50142890ed3774bee03a49194611d37612546565b611d3f612564565b611d4a821515611e9f565b611d5685511515611ef5565b611d6284511515611f39565b611d75611d70600b54611f9b565b600b55565b611de1600b54968795611d866103ff565b87815233602082015291886040840152606083015260808201528260a08201528360c0820152600060e0820152611dc1610100820160019052565b42610120820152611ddc86600052600d602052604060002090565b612140565b611e1833611df986600052600e602052604060002090565b80546001600160a01b0319166001600160a01b03909216919091179055565b336000908152600f60205260409020611e329085906121f0565b336000908152600c6020526040902060039060058101611e56611288825460ff1690565b611e87575b5001611e678154611f9b565b9055611e7a60405192839233978461222a565b0390a36106d26001600655565b805460ff191660011790556000600482015538611e5b565b15611ea657565b60405162461bcd60e51b815260206004820152602160248201527f4d617820737570706c79206d7573742062652067726561746572207468616e206044820152600360fc1b6064820152608490fd5b15611efc57565b60405162461bcd60e51b81526020600482015260156024820152745469746c652063616e6e6f7420626520656d70747960581b6044820152606490fd5b15611f4057565b60405162461bcd60e51b815260206004820152601c60248201527f4d65746164617461205552492063616e6e6f7420626520656d707479000000006044820152606490fd5b634e487b7160e01b600052601160045260246000fd5b6000198114611faa5760010190565b611f85565b601f8111611fbb575050565b60009060026000527f405787fa12a823e0f2b7631cc41b3ba8828b3321ca811111fa75cd3aa3bb5ace906020601f850160051c83019410612017575b601f0160051c01915b82811061200c57505050565b818155600101612000565b9092508290611ff7565b90601f811161202f57505050565b6000916000526020600020906020601f850160051c8301941061206d575b601f0160051c01915b82811061206257505050565b818155600101612056565b909250829061204d565b91909182516001600160401b0381116103d95761209e8161209884546105a2565b84612021565b602080601f83116001146120d5575081906120d19394956000926105105750508160011b916000199060031b1c19161790565b9055565b90601f198316956120eb85600052602060002090565b926000905b8882106121285750508360019596971061210f575b505050811b019055565b015160001960f88460031b161c19169055388080612105565b806001859682949686015181550195019301906120f0565b8151815560208201516001820180546001600160a01b0319166001600160a01b039092169190911790559060099061012090612183604082015160028601612077565b612194606082015160038601612077565b6121a5608082015160048601612077565b60a0810151600585015560c0810151600685015560e081015160078501556121e96121d4610100830151151590565b600886019060ff801983541691151516179055565b0151910155565b8054680100000000000000008110156103d957612212916001820181556110f1565b819291549060031b91821b91600019901b1916179055565b61224260409295949395606083526060830190610681565b9460208201520152565b80518210156111095760209160051b010190565b919091805183518082036122fd57505080519061229561227f83610c11565b9261228d60405194856103de565b808452610c11565b60209190601f1901368484013760005b81518110156122f557600581901b8281018401519087018401516000908152602081815260408083206001600160a01b0390941683529290522054600191906122ee828761224c565b52016122a5565b509193505050565b604051635b05999160e01b815260048101919091526024810191909152604490fd5b1561232657565b60405162461bcd60e51b815260206004820152600e60248201526d139bdd081d1a1948185c9d1a5cdd60921b6044820152606490fd5b1561236357565b60405162461bcd60e51b8152602060048201526015602482015274417274776f726b206973206e6f742061637469766560581b6044820152606490fd5b156123a757565b60405162461bcd60e51b815260206004820152601d60248201527f416d6f756e74206d7573742062652067726561746572207468616e20300000006044820152606490fd5b91908201809211611faa57565b1561240057565b60405162461bcd60e51b815260206004820152601260248201527145786365656473206d617820737570706c7960701b6044820152606490fd5b906103e891828102928184041490151715611faa57565b81810292918115918404141715611faa57565b1561246b57565b60405162461bcd60e51b8152602060048201526014602482015273125b9cdd59999a58da595b9d081c185e5b595b9d60621b6044820152606490fd5b91908203918211611faa57565b60405190602082018281106001600160401b038211176103d95760405260008252565b6040513d6000823e3d90fd5b9161250c906124fe6106d29593606086526060860190610681565b908482036020860152610681565b916040818403910152610681565b6005546001600160a01b0316330361252e57565b60405163118cdaa760e01b8152336004820152602490fd5b60ff6007541661255257565b60405163d93c066560e01b8152600490fd5b600260065414612575576002600655565b604051633ee5aeb560e01b8152600490fd5b93916001600160a01b03851615611bd9576125bf60405192600184526020840152604083019160018352606084015260808301604052565b90916125cc828487612ae1565b600094855b845187101561261f576126176001918860051b90612605602080848a010151938a0101516000526003602052604060002090565b6126108382546123ec565b90556123ec565b9601956125d1565b612639919594929650612634906004546123ec565b600455565b8051600103612657579060208061061e959301519101519133612a50565b61061e9333612856565b9193929061267182868386612c13565b6001600160a01b0383811615612730575b811615806126cf575b15612698575b5050505050565b84516001036126be576020806126b49601519201519233612a85565b3880808080612691565b6126ca94919233612951565b6126b4565b94936000939091845b8651861015612718576001908660051b90612709602080848a010151938b0101516000526003602052604060002090565b828154039055019501946126d8565b61272b9193969792955060045403600455565b61268b565b959192600094916000955b87518710156127775761276f6001918860051b90612605602080848c010151938d0101516000526003602052604060002090565b96019561273b565b61278f919396506126349098929594986004546123ec565b612682565b908160209103126102ac57516106d281610328565b926127d86106d295936127e69360018060a01b031686526000602087015260a0604087015260a0860190610f63565b908482036060860152610f63565b916080818403910152610681565b93906106d295936127d8916127e69460018060a01b03809216885216602087015260a0604087015260a0860190610f63565b3d15612851573d906128378261041f565b9161284560405193846103de565b82523d6000602084013e565b606090565b9293919093843b612868575050505050565b60209161288b604051948593849363bc197c8160e01b98898652600486016127a9565b038160006001600160a01b0388165af160009181612920575b506128e357826128b2612826565b80519190826128dc57604051632bfa23e760e11b81526001600160a01b0383166004820152602490fd5b9050602001fd5b6001600160e01b031916036128fd57503880808080612691565b604051632bfa23e760e11b81526001600160a01b03919091166004820152602490fd5b61294391925060203d60201161294a575b61293b81836103de565b810190612794565b90386128a4565b503d612931565b939290949194853b612966575b505050505050565b612989602093604051958694859463bc197c8160e01b998a8752600487016127f4565b038160006001600160a01b0388165af1600091816129cb575b506129b057826128b2612826565b6001600160e01b031916036128fd575038808080808061295e565b6129e591925060203d60201161294a5761293b81836103de565b90386129a2565b909260a0926106d29594600180861b0316835260006020840152604083015260608201528160808201520190610681565b91926106d295949160a094600180871b038092168552166020840152604083015260608201528160808201520190610681565b9293919093843b612a62575050505050565b60209161288b604051948593849363f23a6e6160e01b98898652600486016129ec565b939290949194853b612a9957505050505050565b612989602093604051958694859463f23a6e6160e01b998a875260048701612a1d565b9091612ad36106d293604084526040840190610f63565b916020818403910152610f63565b91909182518251908181036122fd57505060005b8351811015612b7357600581901b84810160209081015191850101516001929184906001600160a01b038216612b2f575b50505001612af5565b612b6991612b4a612b61926000526000602052604060002090565b9060018060a01b0316600052602052604060002090565b9182546123ec565b9055388381612b26565b50916001815114600014612bd4576020908101519181015160408051938452918301526001600160a01b039092169160009133917fc3d58168c5ae7397731d063d5bbf3d657854427343f4c083240f7aacaa2d0f629190819081015b0390a4565b7f4a39dc06d4c0dbc64b70af90fd698a233a518aa5d07e595d983b8c0526c8f7fb612bcf6000939460405191829160018060a01b031696339583612abc565b93929180518351908181036122fd57505060005b8151811015612d1557600581901b82810160209081015191860101516001600160a01b0392918590898516612c8f575b6001948216612c6a575b50505001612c27565b612c8591612b4a612b61926000526000602052604060002090565b9055388481612c61565b9192939050612cac89612b4a846000526000602052604060002090565b54838110612cde5791869184600196959403612cd68c612b4a856000526000602052604060002090565b559450612c57565b6040516303dee4c560e01b81526001600160a01b038b16600482015260248101919091526044810184905260648101839052608490fd5b508051939493919291600103612d77576020908101519181015160408051938452918301526001600160a01b03928316939092169133917fc3d58168c5ae7397731d063d5bbf3d657854427343f4c083240f7aacaa2d0f629181908101612bcf565b6040516001600160a01b03938416949093169233927f4a39dc06d4c0dbc64b70af90fd698a233a518aa5d07e595d983b8c0526c8f7fb928291612bcf9183612abc56fea2646970667358221220232562cbb8080d6fbb95d7101b551db333040a68c5d959ba665e3f3aa87125b564736f6c63430008180033","opcodes":"PUSH1 0x80 CALLVALUE PUSH3 0x267 JUMPI PUSH1 0x1 PUSH1 0x1 PUSH1 0x40 SHL SUB SWAP1 PUSH1 0x1F PUSH3 0x31E7 CODESIZE DUP2 SWAP1 SUB SWAP2 DUP3 ADD PUSH1 0x1F NOT AND DUP4 ADD SWAP3 SWAP2 SWAP1 DUP5 DUP5 GT DUP4 DUP6 LT OR PUSH3 0x251 JUMPI DUP2 PUSH1 0x20 SWAP3 DUP5 SWAP3 PUSH1 0x40 SWAP7 DUP8 MSTORE DUP4 CODECOPY DUP2 ADD SUB SLT PUSH3 0x267 JUMPI MLOAD PUSH1 0x1 PUSH1 0x1 PUSH1 0xA0 SHL SUB SWAP3 SWAP1 DUP4 DUP2 AND SWAP1 DUP2 SWAP1 SUB PUSH3 0x267 JUMPI DUP3 MLOAD SWAP4 PUSH1 0x20 DUP6 ADD DUP6 DUP2 LT DUP5 DUP3 GT OR PUSH3 0x251 JUMPI DUP5 MSTORE PUSH3 0x84 PUSH1 0x0 SWAP6 DUP7 DUP2 MSTORE PUSH3 0x2C2 JUMP JUMPDEST DUP2 ISZERO PUSH3 0x239 JUMPI PUSH1 0x5 DUP1 SLOAD PUSH1 0x1 PUSH1 0x1 PUSH1 0xA0 SHL SUB NOT DUP2 AND DUP5 OR SWAP1 SWAP2 SSTORE AND PUSH32 0x8BE0079C531659141344CD1FD0A4F28419497F9722A3DAAFE3B4186F6B6457E0 DUP6 DUP1 LOG3 PUSH1 0x1 PUSH1 0x6 SSTORE PUSH3 0xD6 PUSH1 0x8 SLOAD PUSH3 0x26C JUMP JUMPDEST PUSH1 0x1F DUP2 GT PUSH3 0x1F8 JUMPI JUMPDEST POP PUSH32 0x5065726D616C696E6B0000000000000000000000000000000000000000000012 PUSH1 0x8 SSTORE PUSH1 0x9 SLOAD PUSH3 0x113 SWAP1 PUSH3 0x26C JUMP JUMPDEST PUSH1 0x1F DUP2 GT PUSH3 0x1B7 JUMPI JUMPDEST POP PUSH1 0xA PUSH5 0x504C494E4B PUSH1 0xD8 SHL ADD PUSH1 0x9 SSTORE PUSH1 0xFA PUSH1 0xA SSTORE PUSH1 0xB DUP4 SWAP1 SSTORE DUP2 MLOAD SWAP1 PUSH1 0x60 DUP3 ADD SWAP1 DUP2 GT DUP3 DUP3 LT OR PUSH3 0x1A3 JUMPI DUP3 MSTORE PUSH1 0x2C DUP2 MSTORE PUSH32 0x68747470733A2F2F6170692E7065726D616C696E6B2E6172742F6D6574616461 PUSH1 0x20 DUP3 ADD MSTORE PUSH12 0x3A3097BDB4B23E973539B7B7 PUSH1 0xA1 SHL DUP3 DUP3 ADD MSTORE PUSH3 0x195 SWAP1 PUSH3 0x2C2 JUMP JUMPDEST MLOAD PUSH2 0x2DF0 SWAP1 DUP2 PUSH3 0x3F7 DUP3 CODECOPY RETURN JUMPDEST PUSH4 0x4E487B71 PUSH1 0xE0 SHL DUP5 MSTORE PUSH1 0x41 PUSH1 0x4 MSTORE PUSH1 0x24 DUP5 REVERT JUMPDEST PUSH1 0x9 DUP5 MSTORE PUSH3 0x1F1 SWAP1 PUSH1 0x1F ADD PUSH1 0x5 SHR PUSH32 0x6E1540171B6C0C960B71A7020D9F60077F6AF931A8BBF590DA0223DACF75C7AF SWAP1 DUP2 ADD SWAP1 PUSH3 0x2A9 JUMP JUMPDEST CODESIZE PUSH3 0x11D JUMP JUMPDEST PUSH1 0x8 DUP5 MSTORE PUSH3 0x232 SWAP1 PUSH1 0x1F ADD PUSH1 0x5 SHR PUSH32 0xF3F7A9FE364FAAB93B216DA50A3214154F22A0A2B415B23A84C8169E8B636EE3 SWAP1 DUP2 ADD SWAP1 PUSH3 0x2A9 JUMP JUMPDEST CODESIZE PUSH3 0xE0 JUMP JUMPDEST DUP4 MLOAD PUSH4 0x1E4FBDF7 PUSH1 0xE0 SHL DUP2 MSTORE PUSH1 0x4 DUP2 ADD DUP7 SWAP1 MSTORE PUSH1 0x24 SWAP1 REVERT JUMPDEST PUSH4 0x4E487B71 PUSH1 0xE0 SHL PUSH1 0x0 MSTORE PUSH1 0x41 PUSH1 0x4 MSTORE PUSH1 0x24 PUSH1 0x0 REVERT JUMPDEST PUSH1 0x0 DUP1 REVERT JUMPDEST SWAP1 PUSH1 0x1 DUP3 DUP2 SHR SWAP3 AND DUP1 ISZERO PUSH3 0x29E JUMPI JUMPDEST PUSH1 0x20 DUP4 LT EQ PUSH3 0x288 JUMPI JUMP JUMPDEST PUSH4 0x4E487B71 PUSH1 0xE0 SHL PUSH1 0x0 MSTORE PUSH1 0x22 PUSH1 0x4 MSTORE PUSH1 0x24 PUSH1 0x0 REVERT JUMPDEST SWAP2 PUSH1 0x7F AND SWAP2 PUSH3 0x27C JUMP JUMPDEST DUP2 DUP2 LT PUSH3 0x2B5 JUMPI POP POP JUMP JUMPDEST PUSH1 0x0 DUP2 SSTORE PUSH1 0x1 ADD PUSH3 0x2A9 JUMP JUMPDEST DUP1 MLOAD SWAP1 SWAP2 SWAP1 PUSH1 0x1 PUSH1 0x1 PUSH1 0x40 SHL SUB DUP2 GT PUSH3 0x251 JUMPI PUSH3 0x2E3 PUSH1 0x2 SLOAD PUSH3 0x26C JUMP JUMPDEST PUSH1 0x1F DUP2 GT PUSH3 0x397 JUMPI JUMPDEST POP PUSH1 0x20 DUP1 PUSH1 0x1F DUP4 GT PUSH1 0x1 EQ PUSH3 0x32D JUMPI POP DUP2 SWAP3 SWAP4 PUSH1 0x0 SWAP3 PUSH3 0x321 JUMPI JUMPDEST POP POP DUP2 PUSH1 0x1 SHL SWAP2 PUSH1 0x0 NOT SWAP1 PUSH1 0x3 SHL SHR NOT AND OR PUSH1 0x2 SSTORE JUMP JUMPDEST ADD MLOAD SWAP1 POP CODESIZE DUP1 PUSH3 0x30A JUMP JUMPDEST SWAP1 PUSH1 0x1F NOT DUP4 AND SWAP5 PUSH1 0x2 PUSH1 0x0 MSTORE PUSH1 0x20 PUSH1 0x0 KECCAK256 SWAP3 PUSH1 0x0 SWAP1 JUMPDEST DUP8 DUP3 LT PUSH3 0x37E JUMPI POP POP DUP4 PUSH1 0x1 SWAP6 SWAP7 LT PUSH3 0x364 JUMPI JUMPDEST POP POP POP DUP2 SHL ADD PUSH1 0x2 SSTORE JUMP JUMPDEST ADD MLOAD PUSH1 0x0 NOT PUSH1 0xF8 DUP5 PUSH1 0x3 SHL AND SHR NOT AND SWAP1 SSTORE CODESIZE DUP1 DUP1 PUSH3 0x359 JUMP JUMPDEST DUP1 PUSH1 0x1 DUP6 SWAP7 DUP3 SWAP5 SWAP7 DUP7 ADD MLOAD DUP2 SSTORE ADD SWAP6 ADD SWAP4 ADD SWAP1 PUSH3 0x343 JUMP JUMPDEST PUSH1 0x2 PUSH1 0x0 MSTORE PUSH3 0x3E4 SWAP1 PUSH32 0x405787FA12A823E0F2B7631CC41B3BA8828B3321CA811111FA75CD3AA3BB5ACE PUSH1 0x1F DUP5 ADD PUSH1 0x5 SHR DUP2 ADD SWAP2 PUSH1 0x20 DUP6 LT PUSH3 0x3EB JUMPI JUMPDEST PUSH1 0x1F ADD PUSH1 0x5 SHR ADD SWAP1 PUSH3 0x2A9 JUMP JUMPDEST CODESIZE PUSH3 0x2ED JUMP JUMPDEST SWAP1 SWAP2 POP DUP2 SWAP1 PUSH3 0x3D6 JUMP INVALID PUSH1 0x80 PUSH1 0x40 MSTORE PUSH1 0x4 CALLDATASIZE LT ISZERO PUSH2 0x12 JUMPI PUSH1 0x0 DUP1 REVERT JUMPDEST PUSH1 0x0 CALLDATALOAD PUSH1 0xE0 SHR DUP1 PUSH3 0xFDD58E EQ PUSH2 0x291 JUMPI DUP1 PUSH4 0x1FFC9A7 EQ PUSH2 0x28C JUMPI DUP1 PUSH4 0x2FE5305 EQ PUSH2 0x287 JUMPI DUP1 PUSH4 0x6FDDE03 EQ PUSH2 0x282 JUMPI DUP1 PUSH4 0xE89341C EQ PUSH2 0x27D JUMPI DUP1 PUSH4 0x12E8E2C3 EQ PUSH2 0x278 JUMPI DUP1 PUSH4 0x167DDF6E EQ PUSH2 0x273 JUMPI DUP1 PUSH4 0x171212D5 EQ PUSH2 0x26E JUMPI DUP1 PUSH4 0x18160DDD EQ PUSH2 0x269 JUMPI DUP1 PUSH4 0x20903B3F EQ PUSH2 0x264 JUMPI DUP1 PUSH4 0x2EB2C2D6 EQ PUSH2 0x25F JUMPI DUP1 PUSH4 0x35C2AAB9 EQ PUSH2 0x25A JUMPI DUP1 PUSH4 0x3998A681 EQ PUSH2 0x24B JUMPI DUP1 PUSH4 0x3F4BA83A EQ PUSH2 0x255 JUMPI DUP1 PUSH4 0x4B602673 EQ PUSH2 0x250 JUMPI DUP1 PUSH4 0x4CF4BB06 EQ PUSH2 0x24B JUMPI DUP1 PUSH4 0x4E1273F4 EQ PUSH2 0x246 JUMPI DUP1 PUSH4 0x4F558E79 EQ PUSH2 0x241 JUMPI DUP1 PUSH4 0x5001257E EQ PUSH2 0x23C JUMPI DUP1 PUSH4 0x5024FD8C EQ PUSH2 0x237 JUMPI DUP1 PUSH4 0x552906CE EQ PUSH2 0x232 JUMPI DUP1 PUSH4 0x56189236 EQ PUSH2 0x22D JUMPI DUP1 PUSH4 0x5B42A8FE EQ PUSH2 0x228 JUMPI DUP1 PUSH4 0x5C975ABB EQ PUSH2 0x223 JUMPI DUP1 PUSH4 0x715018A6 EQ PUSH2 0x21E JUMPI DUP1 PUSH4 0x8456CB59 EQ PUSH2 0x219 JUMPI DUP1 PUSH4 0x8DA5CB5B EQ PUSH2 0x214 JUMPI DUP1 PUSH4 0x92A05FE7 EQ PUSH2 0x20F JUMPI DUP1 PUSH4 0x95D89B41 EQ PUSH2 0x20A JUMPI DUP1 PUSH4 0xA22CB465 EQ PUSH2 0x205 JUMPI DUP1 PUSH4 0xB23CD1A6 EQ PUSH2 0x200 JUMPI DUP1 PUSH4 0xB3B30640 EQ PUSH2 0x1FB JUMPI DUP1 PUSH4 0xBD85B039 EQ PUSH2 0x1F6 JUMPI DUP1 PUSH4 0xCC0AD6E7 EQ PUSH2 0x1F1 JUMPI DUP1 PUSH4 0xCDD78CFC EQ PUSH2 0x1EC JUMPI DUP1 PUSH4 0xD0B7830B EQ PUSH2 0x1E7 JUMPI DUP1 PUSH4 0xE0F8B313 EQ PUSH2 0x1E2 JUMPI DUP1 PUSH4 0xE985E9C5 EQ PUSH2 0x1DD JUMPI DUP1 PUSH4 0xF242432A EQ PUSH2 0x1D8 JUMPI PUSH4 0xF2FDE38B EQ PUSH2 0x1D3 JUMPI PUSH1 0x0 DUP1 REVERT JUMPDEST PUSH2 0x1C3D JUMP JUMPDEST PUSH2 0x1B20 JUMP JUMPDEST PUSH2 0x1AC3 JUMP JUMPDEST PUSH2 0x1A48 JUMP JUMPDEST PUSH2 0x19C5 JUMP JUMPDEST PUSH2 0x19A7 JUMP JUMPDEST PUSH2 0x192C JUMP JUMPDEST PUSH2 0x1900 JUMP JUMPDEST PUSH2 0x1859 JUMP JUMPDEST PUSH2 0x1760 JUMP JUMPDEST PUSH2 0x16A4 JUMP JUMPDEST PUSH2 0x15FC JUMP JUMPDEST PUSH2 0x15B2 JUMP JUMPDEST PUSH2 0x1589 JUMP JUMPDEST PUSH2 0x152F JUMP JUMPDEST PUSH2 0x14D1 JUMP JUMPDEST PUSH2 0x14AE JUMP JUMPDEST PUSH2 0x1455 JUMP JUMPDEST PUSH2 0x1437 JUMP JUMPDEST PUSH2 0x1166 JUMP JUMPDEST PUSH2 0x110E JUMP JUMPDEST PUSH2 0x1090 JUMP JUMPDEST PUSH2 0x1062 JUMP JUMPDEST PUSH2 0xFA8 JUMP JUMPDEST PUSH2 0xDE4 JUMP JUMPDEST PUSH2 0xEDC JUMP JUMPDEST PUSH2 0xE01 JUMP JUMPDEST PUSH2 0xDB0 JUMP JUMPDEST PUSH2 0xC88 JUMP JUMPDEST PUSH2 0xB8B JUMP JUMPDEST PUSH2 0xB6D JUMP JUMPDEST PUSH2 0xAF9 JUMP JUMPDEST PUSH2 0x988 JUMP JUMPDEST PUSH2 0x887 JUMP JUMPDEST PUSH2 0x7BE JUMP JUMPDEST PUSH2 0x6D5 JUMP JUMPDEST PUSH2 0x481 JUMP JUMPDEST PUSH2 0x33A JUMP JUMPDEST PUSH2 0x2DB JUMP JUMPDEST PUSH1 0x4 CALLDATALOAD SWAP1 PUSH1 0x1 PUSH1 0x1 PUSH1 0xA0 SHL SUB DUP3 AND DUP3 SUB PUSH2 0x2AC JUMPI JUMP JUMPDEST PUSH1 0x0 DUP1 REVERT JUMPDEST PUSH1 0x24 CALLDATALOAD SWAP1 PUSH1 0x1 PUSH1 0x1 PUSH1 0xA0 SHL SUB DUP3 AND DUP3 SUB PUSH2 0x2AC JUMPI JUMP JUMPDEST CALLDATALOAD SWAP1 PUSH1 0x1 PUSH1 0x1 PUSH1 0xA0 SHL SUB DUP3 AND DUP3 SUB PUSH2 0x2AC JUMPI JUMP JUMPDEST CALLVALUE PUSH2 0x2AC JUMPI PUSH1 0x40 CALLDATASIZE PUSH1 0x3 NOT ADD SLT PUSH2 0x2AC JUMPI PUSH1 0x20 PUSH2 0x31F PUSH2 0x2F9 PUSH2 0x296 JUMP JUMPDEST PUSH1 0x24 CALLDATALOAD PUSH1 0x0 MSTORE PUSH1 0x0 DUP4 MSTORE PUSH1 0x40 PUSH1 0x0 KECCAK256 SWAP1 PUSH1 0x1 DUP1 PUSH1 0xA0 SHL SUB AND PUSH1 0x0 MSTORE PUSH1 0x20 MSTORE PUSH1 0x40 PUSH1 0x0 KECCAK256 SWAP1 JUMP JUMPDEST SLOAD PUSH1 0x40 MLOAD SWAP1 DUP2 MSTORE RETURN JUMPDEST PUSH1 0x1 PUSH1 0x1 PUSH1 0xE0 SHL SUB NOT DUP2 AND SUB PUSH2 0x2AC JUMPI JUMP JUMPDEST CALLVALUE PUSH2 0x2AC JUMPI PUSH1 0x20 CALLDATASIZE PUSH1 0x3 NOT ADD SLT PUSH2 0x2AC JUMPI PUSH1 0x20 PUSH1 0x4 CALLDATALOAD PUSH2 0x359 DUP2 PUSH2 0x328 JUMP JUMPDEST PUSH4 0xFFFFFFFF PUSH1 0xE0 SHL AND PUSH4 0x6CDB3D13 PUSH1 0xE1 SHL DUP2 EQ SWAP1 DUP2 ISZERO PUSH2 0x397 JUMPI JUMPDEST DUP2 ISZERO PUSH2 0x386 JUMPI JUMPDEST POP PUSH1 0x40 MLOAD SWAP1 ISZERO ISZERO DUP2 MSTORE RETURN JUMPDEST PUSH4 0x1FFC9A7 PUSH1 0xE0 SHL EQ SWAP1 POP CODESIZE PUSH2 0x37B JUMP JUMPDEST PUSH4 0x3A24D07 PUSH1 0xE2 SHL DUP2 EQ SWAP2 POP PUSH2 0x374 JUMP JUMPDEST PUSH4 0x4E487B71 PUSH1 0xE0 SHL PUSH1 0x0 MSTORE PUSH1 0x41 PUSH1 0x4 MSTORE PUSH1 0x24 PUSH1 0x0 REVERT JUMPDEST PUSH1 0xC0 DUP2 ADD SWAP1 DUP2 LT PUSH1 0x1 PUSH1 0x1 PUSH1 0x40 SHL SUB DUP3 GT OR PUSH2 0x3D9 JUMPI PUSH1 0x40 MSTORE JUMP JUMPDEST PUSH2 0x3A8 JUMP JUMPDEST SWAP1 PUSH1 0x1F DUP1 NOT SWAP2 ADD AND DUP2 ADD SWAP1 DUP2 LT PUSH1 0x1 PUSH1 0x1 PUSH1 0x40 SHL SUB DUP3 GT OR PUSH2 0x3D9 JUMPI PUSH1 0x40 MSTORE JUMP JUMPDEST PUSH1 0x40 MLOAD SWAP1 PUSH2 0x140 DUP3 ADD DUP3 DUP2 LT PUSH1 0x1 PUSH1 0x1 PUSH1 0x40 SHL SUB DUP3 GT OR PUSH2 0x3D9 JUMPI PUSH1 0x40 MSTORE JUMP JUMPDEST PUSH1 0x1 PUSH1 0x1 PUSH1 0x40 SHL SUB DUP2 GT PUSH2 0x3D9 JUMPI PUSH1 0x1F ADD PUSH1 0x1F NOT AND PUSH1 0x20 ADD SWAP1 JUMP JUMPDEST DUP2 PUSH1 0x1F DUP3 ADD SLT ISZERO PUSH2 0x2AC JUMPI DUP1 CALLDATALOAD SWAP1 PUSH2 0x451 DUP3 PUSH2 0x41F JUMP JUMPDEST SWAP3 PUSH2 0x45F PUSH1 0x40 MLOAD SWAP5 DUP6 PUSH2 0x3DE JUMP JUMPDEST DUP3 DUP5 MSTORE PUSH1 0x20 DUP4 DUP4 ADD ADD GT PUSH2 0x2AC JUMPI DUP2 PUSH1 0x0 SWAP3 PUSH1 0x20 DUP1 SWAP4 ADD DUP4 DUP7 ADD CALLDATACOPY DUP4 ADD ADD MSTORE SWAP1 JUMP JUMPDEST CALLVALUE PUSH2 0x2AC JUMPI PUSH1 0x20 DUP1 PUSH1 0x3 NOT CALLDATASIZE ADD SLT PUSH2 0x2AC JUMPI PUSH1 0x1 PUSH1 0x1 PUSH1 0x40 SHL SUB PUSH1 0x4 CALLDATALOAD DUP2 DUP2 GT PUSH2 0x2AC JUMPI PUSH2 0x4B3 SWAP1 CALLDATASIZE SWAP1 PUSH1 0x4 ADD PUSH2 0x43A JUMP JUMPDEST SWAP2 PUSH2 0x4BC PUSH2 0x251A JUMP JUMPDEST DUP3 MLOAD SWAP2 DUP3 GT PUSH2 0x3D9 JUMPI PUSH2 0x4D9 DUP3 PUSH2 0x4D4 PUSH1 0x2 SLOAD PUSH2 0x5A2 JUMP JUMPDEST PUSH2 0x1FAF JUMP JUMPDEST PUSH1 0x20 SWAP1 PUSH1 0x1F DUP4 GT PUSH1 0x1 EQ PUSH2 0x51B JUMPI POP DUP2 SWAP1 PUSH2 0x50B SWAP4 PUSH1 0x0 SWAP3 PUSH2 0x510 JUMPI JUMPDEST POP POP DUP2 PUSH1 0x1 SHL SWAP2 PUSH1 0x0 NOT SWAP1 PUSH1 0x3 SHL SHR NOT AND OR SWAP1 JUMP JUMPDEST PUSH1 0x2 SSTORE STOP JUMPDEST ADD MLOAD SWAP1 POP CODESIZE DUP1 PUSH2 0x4F6 JUMP JUMPDEST SWAP1 PUSH1 0x1F NOT DUP4 AND SWAP4 PUSH2 0x54E PUSH1 0x2 PUSH1 0x0 MSTORE PUSH32 0x405787FA12A823E0F2B7631CC41B3BA8828B3321CA811111FA75CD3AA3BB5ACE SWAP1 JUMP JUMPDEST SWAP3 PUSH1 0x0 SWAP1 JUMPDEST DUP7 DUP3 LT PUSH2 0x58A JUMPI POP POP DUP4 PUSH1 0x1 SWAP6 LT PUSH2 0x571 JUMPI JUMPDEST POP POP POP DUP2 SHL ADD PUSH1 0x2 SSTORE STOP JUMPDEST ADD MLOAD PUSH1 0x0 NOT PUSH1 0xF8 DUP5 PUSH1 0x3 SHL AND SHR NOT AND SWAP1 SSTORE CODESIZE DUP1 DUP1 PUSH2 0x566 JUMP JUMPDEST DUP1 PUSH1 0x1 DUP6 SWAP7 DUP3 SWAP5 SWAP7 DUP7 ADD MLOAD DUP2 SSTORE ADD SWAP6 ADD SWAP4 ADD SWAP1 PUSH2 0x553 JUMP JUMPDEST SWAP1 PUSH1 0x1 DUP3 DUP2 SHR SWAP3 AND DUP1 ISZERO PUSH2 0x5D2 JUMPI JUMPDEST PUSH1 0x20 DUP4 LT EQ PUSH2 0x5BC JUMPI JUMP JUMPDEST PUSH4 0x4E487B71 PUSH1 0xE0 SHL PUSH1 0x0 MSTORE PUSH1 0x22 PUSH1 0x4 MSTORE PUSH1 0x24 PUSH1 0x0 REVERT JUMPDEST SWAP2 PUSH1 0x7F AND SWAP2 PUSH2 0x5B1 JUMP JUMPDEST SWAP1 PUSH1 0x40 MLOAD SWAP2 DUP3 PUSH1 0x0 DUP3 SLOAD PUSH2 0x5EF DUP2 PUSH2 0x5A2 JUMP JUMPDEST SWAP1 DUP2 DUP5 MSTORE PUSH1 0x20 SWAP5 PUSH1 0x1 SWAP2 PUSH1 0x1 DUP2 AND SWAP1 DUP2 PUSH1 0x0 EQ PUSH2 0x65F JUMPI POP PUSH1 0x1 EQ PUSH2 0x620 JUMPI JUMPDEST POP POP POP PUSH2 0x61E SWAP3 POP SUB DUP4 PUSH2 0x3DE JUMP JUMPDEST JUMP JUMPDEST PUSH1 0x0 SWAP1 DUP2 MSTORE DUP6 DUP2 KECCAK256 SWAP6 SWAP4 POP SWAP2 SWAP1 JUMPDEST DUP2 DUP4 LT PUSH2 0x647 JUMPI POP POP PUSH2 0x61E SWAP4 POP DUP3 ADD ADD CODESIZE DUP1 DUP1 PUSH2 0x60F JUMP JUMPDEST DUP6 SLOAD DUP9 DUP5 ADD DUP6 ADD MSTORE SWAP5 DUP6 ADD SWAP5 DUP8 SWAP5 POP SWAP2 DUP4 ADD SWAP2 PUSH2 0x62E JUMP JUMPDEST SWAP3 POP POP POP PUSH2 0x61E SWAP5 SWAP3 POP PUSH1 0xFF NOT AND DUP3 DUP5 ADD MSTORE ISZERO ISZERO PUSH1 0x5 SHL DUP3 ADD ADD CODESIZE DUP1 DUP1 PUSH2 0x60F JUMP JUMPDEST SWAP2 SWAP1 DUP3 MLOAD SWAP3 DUP4 DUP3 MSTORE PUSH1 0x0 JUMPDEST DUP5 DUP2 LT PUSH2 0x6AD JUMPI POP POP DUP3 PUSH1 0x0 PUSH1 0x20 DUP1 SWAP5 SWAP6 DUP5 ADD ADD MSTORE PUSH1 0x1F DUP1 NOT SWAP2 ADD AND ADD ADD SWAP1 JUMP JUMPDEST PUSH1 0x20 DUP2 DUP4 ADD DUP2 ADD MLOAD DUP5 DUP4 ADD DUP3 ADD MSTORE ADD PUSH2 0x68C JUMP JUMPDEST SWAP1 PUSH1 0x20 PUSH2 0x6D2 SWAP3 DUP2 DUP2 MSTORE ADD SWAP1 PUSH2 0x681 JUMP JUMPDEST SWAP1 JUMP JUMPDEST CALLVALUE PUSH2 0x2AC JUMPI PUSH1 0x0 DUP1 PUSH1 0x3 NOT CALLDATASIZE ADD SLT PUSH2 0x7BB JUMPI PUSH1 0x40 MLOAD SWAP1 DUP1 PUSH1 0x8 SLOAD SWAP1 PUSH2 0x6F9 DUP3 PUSH2 0x5A2 JUMP JUMPDEST DUP1 DUP6 MSTORE SWAP2 PUSH1 0x20 SWAP2 PUSH1 0x1 SWAP2 DUP3 DUP2 AND SWAP1 DUP2 ISZERO PUSH2 0x78E JUMPI POP PUSH1 0x1 EQ PUSH2 0x736 JUMPI JUMPDEST PUSH2 0x732 DUP7 PUSH2 0x726 DUP2 DUP9 SUB DUP3 PUSH2 0x3DE JUMP JUMPDEST PUSH1 0x40 MLOAD SWAP2 DUP3 SWAP2 DUP3 PUSH2 0x6C1 JUMP JUMPDEST SUB SWAP1 RETURN JUMPDEST SWAP4 POP PUSH1 0x8 DUP5 MSTORE PUSH32 0xF3F7A9FE364FAAB93B216DA50A3214154F22A0A2B415B23A84C8169E8B636EE3 JUMPDEST DUP4 DUP6 LT PUSH2 0x77B JUMPI POP POP POP POP DUP2 ADD PUSH1 0x20 ADD PUSH2 0x726 DUP3 PUSH2 0x732 CODESIZE PUSH2 0x716 JUMP JUMPDEST DUP1 SLOAD DUP7 DUP7 ADD DUP5 ADD MSTORE SWAP4 DUP3 ADD SWAP4 DUP2 ADD PUSH2 0x75E JUMP JUMPDEST SWAP1 POP DUP7 SWAP6 POP PUSH2 0x732 SWAP7 SWAP4 POP PUSH1 0x20 SWAP3 POP PUSH2 0x726 SWAP5 SWAP2 POP PUSH1 0xFF NOT AND DUP3 DUP5 ADD MSTORE ISZERO ISZERO PUSH1 0x5 SHL DUP3 ADD ADD SWAP3 SWAP4 CODESIZE PUSH2 0x716 JUMP JUMPDEST DUP1 REVERT JUMPDEST CALLVALUE PUSH2 0x2AC JUMPI PUSH1 0x20 DUP1 PUSH1 0x3 NOT CALLDATASIZE ADD SLT PUSH2 0x2AC JUMPI PUSH1 0x40 MLOAD PUSH1 0x0 SWAP2 PUSH1 0x2 SLOAD PUSH2 0x7E2 DUP2 PUSH2 0x5A2 JUMP JUMPDEST DUP1 DUP5 MSTORE SWAP1 PUSH1 0x1 SWAP1 DUP2 DUP2 AND SWAP1 DUP2 ISZERO PUSH2 0x867 JUMPI POP PUSH1 0x1 EQ PUSH2 0x80C JUMPI JUMPDEST PUSH2 0x732 DUP5 PUSH2 0x726 DUP2 DUP9 SUB DUP3 PUSH2 0x3DE JUMP JUMPDEST PUSH1 0x2 PUSH1 0x0 SWAP1 DUP2 MSTORE SWAP3 SWAP5 POP PUSH32 0x405787FA12A823E0F2B7631CC41B3BA8828B3321CA811111FA75CD3AA3BB5ACE JUMPDEST DUP3 DUP5 LT PUSH2 0x854 JUMPI POP POP POP DUP2 PUSH2 0x732 SWAP4 PUSH2 0x726 SWAP3 DUP3 ADD ADD SWAP4 PUSH2 0x7FC JUMP JUMPDEST DUP1 SLOAD DUP6 DUP6 ADD DUP8 ADD MSTORE SWAP3 DUP6 ADD SWAP3 DUP2 ADD PUSH2 0x838 JUMP JUMPDEST PUSH1 0xFF NOT AND DUP6 DUP6 ADD MSTORE POP POP ISZERO ISZERO PUSH1 0x5 SHL DUP3 ADD ADD SWAP2 POP PUSH2 0x726 DUP2 PUSH2 0x732 PUSH2 0x7FC JUMP JUMPDEST CALLVALUE PUSH2 0x2AC JUMPI PUSH1 0x20 CALLDATASIZE PUSH1 0x3 NOT ADD SLT PUSH2 0x2AC JUMPI PUSH1 0x4 CALLDATALOAD PUSH2 0x8A3 PUSH2 0x251A JUMP JUMPDEST PUSH2 0x3E8 DUP2 GT PUSH2 0x8E9 JUMPI PUSH1 0xA DUP1 SLOAD SWAP1 DUP3 SWAP1 SSTORE PUSH1 0x40 DUP1 MLOAD SWAP2 DUP3 MSTORE PUSH1 0x20 DUP3 ADD SWAP3 SWAP1 SWAP3 MSTORE PUSH32 0xD347E206F25A89B917FC9482F1A2D294D749BAA4DC9BDE7FB495EE11FE491643 SWAP2 SWAP1 LOG1 STOP JUMPDEST PUSH1 0x40 MLOAD PUSH3 0x461BCD PUSH1 0xE5 SHL DUP2 MSTORE PUSH1 0x20 PUSH1 0x4 DUP3 ADD MSTORE PUSH1 0xC PUSH1 0x24 DUP3 ADD MSTORE PUSH12 0x8CCACA40E8DEDE40D0D2CED PUSH1 0xA3 SHL PUSH1 0x44 DUP3 ADD MSTORE PUSH1 0x64 SWAP1 REVERT JUMPDEST SWAP6 SWAP3 PUSH2 0x95F SWAP1 PUSH2 0x951 PUSH2 0x96D SWAP5 PUSH2 0x100 SWAP11 SWAP8 SWAP5 SWAP14 SWAP13 SWAP12 SWAP9 SWAP14 PUSH2 0x120 SWAP1 PUSH1 0x1 DUP1 PUSH1 0xA0 SHL SUB AND DUP12 MSTORE DUP1 PUSH1 0x20 DUP13 ADD MSTORE DUP11 ADD SWAP1 PUSH2 0x681 JUMP JUMPDEST SWAP1 DUP9 DUP3 SUB PUSH1 0x40 DUP11 ADD MSTORE PUSH2 0x681 JUMP JUMPDEST SWAP1 DUP7 DUP3 SUB PUSH1 0x60 DUP9 ADD MSTORE PUSH2 0x681 JUMP JUMPDEST SWAP8 PUSH1 0x80 DUP6 ADD MSTORE PUSH1 0xA0 DUP5 ADD MSTORE PUSH1 0xC0 DUP4 ADD MSTORE ISZERO ISZERO PUSH1 0xE0 DUP3 ADD MSTORE ADD MSTORE JUMP JUMPDEST CALLVALUE PUSH2 0x2AC JUMPI PUSH1 0x20 CALLDATASIZE PUSH1 0x3 NOT ADD SLT PUSH2 0x2AC JUMPI PUSH1 0x4 CALLDATALOAD PUSH1 0xB SLOAD DUP2 GT ISZERO DUP1 PUSH2 0xAA1 JUMPI JUMPDEST PUSH2 0x9B1 SWAP1 PUSH2 0x1CCB JUMP JUMPDEST PUSH1 0x0 MSTORE PUSH1 0xD PUSH1 0x20 MSTORE PUSH1 0x40 PUSH1 0x0 KECCAK256 PUSH2 0x9C6 PUSH2 0x3FF JUMP JUMPDEST DUP2 SLOAD DUP2 MSTORE PUSH1 0x1 DUP3 ADD SLOAD PUSH1 0x1 PUSH1 0x1 PUSH1 0xA0 SHL SUB AND PUSH1 0x20 DUP3 ADD SWAP1 DUP2 MSTORE SWAP1 SWAP2 SWAP1 PUSH2 0x732 SWAP1 PUSH2 0x120 SWAP1 PUSH2 0x9F6 PUSH1 0x2 DUP6 ADD PUSH2 0x5DC JUMP JUMPDEST SWAP4 PUSH1 0x40 DUP7 ADD SWAP5 DUP6 MSTORE PUSH2 0xA0A PUSH1 0x3 DUP3 ADD PUSH2 0x5DC JUMP JUMPDEST SWAP6 PUSH1 0x60 DUP2 ADD SWAP7 DUP8 MSTORE PUSH2 0xA1E PUSH1 0x4 DUP4 ADD PUSH2 0x5DC JUMP JUMPDEST SWAP3 PUSH1 0x80 DUP3 ADD SWAP4 DUP5 MSTORE PUSH1 0x5 DUP4 ADD SLOAD PUSH1 0xA0 DUP4 ADD SWAP1 DUP2 MSTORE PUSH2 0xA94 PUSH2 0xA81 PUSH1 0x6 DUP7 ADD SLOAD SWAP4 PUSH1 0xC0 DUP7 ADD SWAP5 DUP6 MSTORE PUSH1 0x7 DUP8 ADD SLOAD SWAP6 PUSH1 0xE0 DUP2 ADD SWAP7 DUP8 MSTORE PUSH1 0x9 PUSH2 0xA62 PUSH1 0x8 DUP11 ADD SLOAD PUSH1 0xFF AND SWAP1 JUMP JUMPDEST ISZERO ISZERO PUSH2 0x100 DUP4 ADD SWAP1 DUP2 MSTORE SWAP9 ADD SLOAD SWAP10 ADD DUP10 SWAP1 MSTORE MLOAD PUSH1 0x1 PUSH1 0x1 PUSH1 0xA0 SHL SUB AND SWAP1 JUMP JUMPDEST SWAP9 MLOAD SWAP10 MLOAD SWAP6 MLOAD SWAP2 MLOAD SWAP3 MLOAD SWAP4 MLOAD SWAP5 MLOAD ISZERO ISZERO SWAP1 JUMP JUMPDEST SWAP5 PUSH1 0x40 MLOAD SWAP10 DUP11 SWAP10 DUP11 PUSH2 0x91D JUMP JUMPDEST POP DUP1 ISZERO ISZERO PUSH2 0x9A8 JUMP JUMPDEST SWAP5 SWAP2 SWAP3 PUSH2 0xAD9 PUSH1 0xA0 SWAP6 SWAP9 SWAP8 SWAP5 PUSH2 0xACB PUSH2 0xAE7 SWAP5 PUSH1 0xC0 DUP11 MSTORE PUSH1 0xC0 DUP11 ADD SWAP1 PUSH2 0x681 JUMP JUMPDEST SWAP1 DUP9 DUP3 SUB PUSH1 0x20 DUP11 ADD MSTORE PUSH2 0x681 JUMP JUMPDEST SWAP1 DUP7 DUP3 SUB PUSH1 0x40 DUP9 ADD MSTORE PUSH2 0x681 JUMP JUMPDEST SWAP6 PUSH1 0x60 DUP6 ADD MSTORE PUSH1 0x80 DUP5 ADD MSTORE ISZERO ISZERO SWAP2 ADD MSTORE JUMP JUMPDEST CALLVALUE PUSH2 0x2AC JUMPI PUSH1 0x20 CALLDATASIZE PUSH1 0x3 NOT ADD SLT PUSH2 0x2AC JUMPI PUSH1 0x1 PUSH1 0x1 PUSH1 0xA0 SHL SUB PUSH2 0xB1A PUSH2 0x296 JUMP JUMPDEST AND PUSH1 0x0 MSTORE PUSH1 0xC PUSH1 0x20 MSTORE PUSH1 0x40 PUSH1 0x0 KECCAK256 PUSH2 0xB31 DUP2 PUSH2 0x5DC JUMP JUMPDEST PUSH2 0x732 PUSH2 0xB40 PUSH1 0x1 DUP5 ADD PUSH2 0x5DC JUMP JUMPDEST SWAP3 PUSH2 0xB4D PUSH1 0x2 DUP3 ADD PUSH2 0x5DC JUMP JUMPDEST SWAP1 PUSH1 0x3 DUP2 ADD SLOAD PUSH1 0xFF PUSH1 0x5 PUSH1 0x4 DUP5 ADD SLOAD SWAP4 ADD SLOAD AND SWAP3 PUSH1 0x40 MLOAD SWAP7 DUP8 SWAP7 DUP8 PUSH2 0xAAA JUMP JUMPDEST CALLVALUE PUSH2 0x2AC JUMPI PUSH1 0x0 CALLDATASIZE PUSH1 0x3 NOT ADD SLT PUSH2 0x2AC JUMPI PUSH1 0x20 PUSH1 0x4 SLOAD PUSH1 0x40 MLOAD SWAP1 DUP2 MSTORE RETURN JUMPDEST CALLVALUE PUSH2 0x2AC JUMPI PUSH1 0xA0 CALLDATASIZE PUSH1 0x3 NOT ADD SLT PUSH2 0x2AC JUMPI PUSH1 0x1 PUSH1 0x1 PUSH1 0x40 SHL SUB PUSH1 0x4 CALLDATALOAD DUP2 DUP2 GT PUSH2 0x2AC JUMPI PUSH2 0xBBC SWAP1 CALLDATASIZE SWAP1 PUSH1 0x4 ADD PUSH2 0x43A JUMP JUMPDEST SWAP1 PUSH1 0x24 CALLDATALOAD DUP2 DUP2 GT PUSH2 0x2AC JUMPI PUSH2 0xBD5 SWAP1 CALLDATASIZE SWAP1 PUSH1 0x4 ADD PUSH2 0x43A JUMP JUMPDEST PUSH1 0x44 CALLDATALOAD SWAP2 DUP3 GT PUSH2 0x2AC JUMPI PUSH2 0x732 SWAP3 PUSH2 0xBF4 PUSH2 0xC01 SWAP4 CALLDATASIZE SWAP1 PUSH1 0x4 ADD PUSH2 0x43A JUMP JUMPDEST PUSH1 0x84 CALLDATALOAD SWAP3 PUSH1 0x64 CALLDATALOAD SWAP3 PUSH2 0x1D0A JUMP JUMPDEST PUSH1 0x40 MLOAD SWAP1 DUP2 MSTORE SWAP1 DUP2 SWAP1 PUSH1 0x20 DUP3 ADD SWAP1 JUMP JUMPDEST PUSH1 0x1 PUSH1 0x1 PUSH1 0x40 SHL SUB DUP2 GT PUSH2 0x3D9 JUMPI PUSH1 0x5 SHL PUSH1 0x20 ADD SWAP1 JUMP JUMPDEST SWAP1 DUP1 PUSH1 0x1F DUP4 ADD SLT ISZERO PUSH2 0x2AC JUMPI PUSH1 0x20 SWAP1 DUP3 CALLDATALOAD PUSH2 0xC42 DUP2 PUSH2 0xC11 JUMP JUMPDEST SWAP4 PUSH2 0xC50 PUSH1 0x40 MLOAD SWAP6 DUP7 PUSH2 0x3DE JUMP JUMPDEST DUP2 DUP6 MSTORE PUSH1 0x20 DUP1 DUP7 ADD SWAP3 PUSH1 0x5 SHL DUP3 ADD ADD SWAP3 DUP4 GT PUSH2 0x2AC JUMPI PUSH1 0x20 ADD SWAP1 JUMPDEST DUP3 DUP3 LT PUSH2 0xC79 JUMPI POP POP POP POP SWAP1 JUMP JUMPDEST DUP2 CALLDATALOAD DUP2 MSTORE SWAP1 DUP4 ADD SWAP1 DUP4 ADD PUSH2 0xC6B JUMP JUMPDEST CALLVALUE PUSH2 0x2AC JUMPI PUSH1 0xA0 CALLDATASIZE PUSH1 0x3 NOT ADD SLT PUSH2 0x2AC JUMPI PUSH2 0xCA1 PUSH2 0x296 JUMP JUMPDEST PUSH2 0xCA9 PUSH2 0x2B1 JUMP JUMPDEST SWAP1 PUSH1 0x44 CALLDATALOAD SWAP2 PUSH1 0x1 PUSH1 0x1 PUSH1 0x40 SHL SUB SWAP1 DUP2 DUP5 GT PUSH2 0x2AC JUMPI PUSH2 0xCCD PUSH1 0x4 SWAP5 CALLDATASIZE SWAP1 DUP7 ADD PUSH2 0xC28 JUMP JUMPDEST SWAP1 PUSH1 0x64 CALLDATALOAD DUP4 DUP2 GT PUSH2 0x2AC JUMPI PUSH2 0xCE5 SWAP1 CALLDATASIZE SWAP1 DUP8 ADD PUSH2 0xC28 JUMP JUMPDEST SWAP3 PUSH1 0x84 CALLDATALOAD SWAP1 DUP2 GT PUSH2 0x2AC JUMPI PUSH2 0xCFD SWAP1 CALLDATASIZE SWAP1 DUP8 ADD PUSH2 0x43A JUMP JUMPDEST SWAP4 PUSH1 0x1 PUSH1 0x1 PUSH1 0xA0 SHL SUB DUP1 DUP3 AND SWAP1 CALLER DUP3 EQ ISZERO DUP1 PUSH2 0xD8C JUMPI JUMPDEST PUSH2 0xD5F JUMPI DUP4 AND ISZERO PUSH2 0xD47 JUMPI ISZERO PUSH2 0xD30 JUMPI PUSH2 0xD2E SWAP6 POP PUSH2 0x2661 JUMP JUMPDEST STOP JUMPDEST PUSH1 0x40 MLOAD PUSH3 0x6A0D45 PUSH1 0xE2 SHL DUP2 MSTORE PUSH1 0x0 DUP2 DUP9 ADD MSTORE PUSH1 0x24 SWAP1 REVERT JUMPDEST PUSH1 0x40 MLOAD PUSH4 0x2BFA23E7 PUSH1 0xE1 SHL DUP2 MSTORE PUSH1 0x0 DUP2 DUP10 ADD MSTORE PUSH1 0x24 SWAP1 REVERT JUMPDEST PUSH1 0x40 DUP1 MLOAD PUSH4 0x711BEC91 PUSH1 0xE1 SHL DUP2 MSTORE CALLER DUP2 DUP12 ADD SWAP1 DUP2 MSTORE PUSH1 0x1 PUSH1 0x1 PUSH1 0xA0 SHL SUB DUP7 AND PUSH1 0x20 DUP3 ADD MSTORE SWAP1 SWAP2 DUP3 SWAP2 ADD SUB SWAP1 REVERT JUMPDEST POP PUSH1 0x0 DUP3 DUP2 MSTORE PUSH1 0x1 PUSH1 0x20 SWAP1 DUP2 MSTORE PUSH1 0x40 DUP1 DUP4 KECCAK256 CALLER DUP5 MSTORE SWAP1 SWAP2 MSTORE SWAP1 KECCAK256 SLOAD PUSH1 0xFF AND ISZERO PUSH2 0xD14 JUMP JUMPDEST CALLVALUE PUSH2 0x2AC JUMPI PUSH1 0x20 CALLDATASIZE PUSH1 0x3 NOT ADD SLT PUSH2 0x2AC JUMPI PUSH1 0x4 CALLDATALOAD PUSH1 0x0 MSTORE PUSH1 0xE PUSH1 0x20 MSTORE PUSH1 0x20 PUSH1 0x1 DUP1 PUSH1 0xA0 SHL SUB PUSH1 0x40 PUSH1 0x0 KECCAK256 SLOAD AND PUSH1 0x40 MLOAD SWAP1 DUP2 MSTORE RETURN JUMPDEST CALLVALUE PUSH2 0x2AC JUMPI PUSH1 0x0 CALLDATASIZE PUSH1 0x3 NOT ADD SLT PUSH2 0x2AC JUMPI PUSH1 0x20 PUSH1 0x40 MLOAD PUSH2 0x3E8 DUP2 MSTORE RETURN JUMPDEST CALLVALUE PUSH2 0x2AC JUMPI PUSH1 0x0 CALLDATASIZE PUSH1 0x3 NOT ADD SLT PUSH2 0x2AC JUMPI PUSH2 0xE1A PUSH2 0x251A JUMP JUMPDEST PUSH1 0x7 SLOAD PUSH1 0xFF DUP2 AND ISZERO PUSH2 0xE59 JUMPI PUSH1 0xFF NOT AND PUSH1 0x7 SSTORE PUSH32 0x5DB9EE0A495BF2E6FF9C91A7834C1BA4FDD244A5E8AA4E537BD38AEAE4B073AA PUSH1 0x20 PUSH1 0x40 MLOAD CALLER DUP2 MSTORE LOG1 STOP JUMPDEST PUSH1 0x40 MLOAD PUSH4 0x8DFC202B PUSH1 0xE0 SHL DUP2 MSTORE PUSH1 0x4 SWAP1 REVERT JUMPDEST SWAP7 SWAP4 PUSH2 0xEA4 PUSH2 0xEC0 SWAP5 PUSH2 0xEB2 SWAP4 PUSH2 0x120 SWAP12 SWAP9 SWAP6 SWAP15 SWAP14 SWAP13 SWAP10 SWAP15 PUSH2 0x140 SWAP2 DUP13 MSTORE PUSH1 0x1 DUP1 PUSH1 0xA0 SHL SUB AND PUSH1 0x20 DUP13 ADD MSTORE DUP1 PUSH1 0x40 DUP13 ADD MSTORE DUP11 ADD SWAP1 PUSH2 0x681 JUMP JUMPDEST SWAP1 DUP9 DUP3 SUB PUSH1 0x60 DUP11 ADD MSTORE PUSH2 0x681 JUMP JUMPDEST SWAP1 DUP7 DUP3 SUB PUSH1 0x80 DUP9 ADD MSTORE PUSH2 0x681 JUMP JUMPDEST SWAP8 PUSH1 0xA0 DUP6 ADD MSTORE PUSH1 0xC0 DUP5 ADD MSTORE PUSH1 0xE0 DUP4 ADD MSTORE ISZERO ISZERO PUSH2 0x100 DUP3 ADD MSTORE ADD MSTORE JUMP JUMPDEST CALLVALUE PUSH2 0x2AC JUMPI PUSH1 0x20 CALLDATASIZE PUSH1 0x3 NOT ADD SLT PUSH2 0x2AC JUMPI PUSH1 0x4 CALLDATALOAD PUSH1 0x0 SWAP1 DUP2 MSTORE PUSH1 0xD PUSH1 0x20 MSTORE PUSH1 0x40 SWAP1 KECCAK256 DUP1 SLOAD PUSH1 0x1 DUP3 ADD SLOAD PUSH1 0x1 PUSH1 0x1 PUSH1 0xA0 SHL SUB AND SWAP2 PUSH2 0x732 SWAP1 PUSH2 0xF1F PUSH1 0x2 DUP3 ADD PUSH2 0x5DC JUMP JUMPDEST SWAP1 PUSH2 0xF2C PUSH1 0x3 DUP3 ADD PUSH2 0x5DC JUMP JUMPDEST PUSH2 0xF38 PUSH1 0x4 DUP4 ADD PUSH2 0x5DC JUMP JUMPDEST PUSH1 0x5 DUP4 ADD SLOAD PUSH1 0x6 DUP5 ADD SLOAD SWAP2 PUSH1 0x7 DUP6 ADD SLOAD SWAP4 PUSH1 0x9 PUSH1 0xFF PUSH1 0x8 DUP9 ADD SLOAD AND SWAP7 ADD SLOAD SWAP7 PUSH1 0x40 MLOAD SWAP11 DUP12 SWAP11 DUP12 PUSH2 0xE6B JUMP JUMPDEST SWAP1 DUP2 MLOAD DUP1 DUP3 MSTORE PUSH1 0x20 DUP1 DUP1 SWAP4 ADD SWAP4 ADD SWAP2 PUSH1 0x0 JUMPDEST DUP3 DUP2 LT PUSH2 0xF83 JUMPI POP POP POP POP SWAP1 JUMP JUMPDEST DUP4 MLOAD DUP6 MSTORE SWAP4 DUP2 ADD SWAP4 SWAP3 DUP2 ADD SWAP3 PUSH1 0x1 ADD PUSH2 0xF75 JUMP JUMPDEST SWAP1 PUSH1 0x20 PUSH2 0x6D2 SWAP3 DUP2 DUP2 MSTORE ADD SWAP1 PUSH2 0xF63 JUMP JUMPDEST CALLVALUE PUSH2 0x2AC JUMPI PUSH1 0x40 CALLDATASIZE PUSH1 0x3 NOT ADD SLT PUSH2 0x2AC JUMPI PUSH1 0x4 CALLDATALOAD PUSH1 0x1 PUSH1 0x1 PUSH1 0x40 SHL SUB DUP1 DUP3 GT PUSH2 0x2AC JUMPI CALLDATASIZE PUSH1 0x23 DUP4 ADD SLT ISZERO PUSH2 0x2AC JUMPI DUP2 PUSH1 0x4 ADD CALLDATALOAD PUSH2 0xFE4 DUP2 PUSH2 0xC11 JUMP JUMPDEST SWAP3 PUSH2 0xFF2 PUSH1 0x40 MLOAD SWAP5 DUP6 PUSH2 0x3DE JUMP JUMPDEST DUP2 DUP5 MSTORE PUSH1 0x20 SWAP2 PUSH1 0x24 PUSH1 0x20 DUP7 ADD SWAP2 PUSH1 0x5 SHL DUP4 ADD ADD SWAP2 CALLDATASIZE DUP4 GT PUSH2 0x2AC JUMPI PUSH1 0x24 ADD SWAP1 JUMPDEST DUP3 DUP3 LT PUSH2 0x104B JUMPI DUP6 PUSH1 0x24 CALLDATALOAD DUP7 DUP2 GT PUSH2 0x2AC JUMPI PUSH2 0x732 SWAP2 PUSH2 0x1039 PUSH2 0x103F SWAP3 CALLDATASIZE SWAP1 PUSH1 0x4 ADD PUSH2 0xC28 JUMP JUMPDEST SWAP1 PUSH2 0x2260 JUMP JUMPDEST PUSH1 0x40 MLOAD SWAP2 DUP3 SWAP2 DUP3 PUSH2 0xF97 JUMP JUMPDEST DUP4 DUP1 SWAP2 PUSH2 0x1057 DUP5 PUSH2 0x2C7 JUMP JUMPDEST DUP2 MSTORE ADD SWAP2 ADD SWAP1 PUSH2 0x1012 JUMP JUMPDEST CALLVALUE PUSH2 0x2AC JUMPI PUSH1 0x20 CALLDATASIZE PUSH1 0x3 NOT ADD SLT PUSH2 0x2AC JUMPI PUSH1 0x4 CALLDATALOAD PUSH1 0x0 MSTORE PUSH1 0x3 PUSH1 0x20 MSTORE PUSH1 0x20 PUSH1 0x40 PUSH1 0x0 KECCAK256 SLOAD ISZERO ISZERO PUSH1 0x40 MLOAD SWAP1 DUP2 MSTORE RETURN JUMPDEST CALLVALUE PUSH2 0x2AC JUMPI PUSH1 0x40 CALLDATASIZE PUSH1 0x3 NOT ADD SLT PUSH2 0x2AC JUMPI PUSH1 0x4 CALLDATALOAD PUSH1 0x0 SWAP1 DUP1 DUP3 MSTORE PUSH1 0xE PUSH1 0x20 MSTORE PUSH2 0x10C6 PUSH1 0x1 DUP1 PUSH1 0xA0 SHL SUB PUSH1 0x40 DUP5 KECCAK256 SLOAD AND CALLER EQ PUSH2 0x231F JUMP JUMPDEST DUP2 MSTORE PUSH1 0xD PUSH1 0x20 MSTORE PUSH1 0x24 CALLDATALOAD PUSH1 0x5 PUSH1 0x40 DUP4 KECCAK256 ADD SSTORE DUP1 RETURN JUMPDEST PUSH4 0x4E487B71 PUSH1 0xE0 SHL PUSH1 0x0 MSTORE PUSH1 0x32 PUSH1 0x4 MSTORE PUSH1 0x24 PUSH1 0x0 REVERT JUMPDEST DUP1 SLOAD DUP3 LT ISZERO PUSH2 0x1109 JUMPI PUSH1 0x0 MSTORE PUSH1 0x20 PUSH1 0x0 KECCAK256 ADD SWAP1 PUSH1 0x0 SWAP1 JUMP JUMPDEST PUSH2 0x10DB JUMP JUMPDEST CALLVALUE PUSH2 0x2AC JUMPI PUSH1 0x40 CALLDATASIZE PUSH1 0x3 NOT ADD SLT PUSH2 0x2AC JUMPI PUSH2 0x1127 PUSH2 0x296 JUMP JUMPDEST PUSH1 0x1 PUSH1 0x1 PUSH1 0xA0 SHL SUB AND PUSH1 0x0 SWAP1 DUP2 MSTORE PUSH1 0x10 PUSH1 0x20 MSTORE PUSH1 0x40 SWAP1 KECCAK256 DUP1 SLOAD PUSH1 0x24 CALLDATALOAD SWAP2 SWAP1 DUP3 LT ISZERO PUSH2 0x2AC JUMPI PUSH1 0x20 SWAP2 PUSH2 0x1158 SWAP2 PUSH2 0x10F1 JUMP JUMPDEST SWAP1 SLOAD PUSH1 0x40 MLOAD SWAP2 PUSH1 0x3 SHL SHR DUP2 MSTORE RETURN JUMPDEST PUSH1 0x40 CALLDATASIZE PUSH1 0x3 NOT ADD SLT PUSH2 0x2AC JUMPI PUSH1 0x24 CALLDATALOAD PUSH1 0x4 CALLDATALOAD PUSH2 0x1180 PUSH2 0x2546 JUMP JUMPDEST PUSH2 0x1188 PUSH2 0x2564 JUMP JUMPDEST PUSH1 0xB SLOAD DUP2 GT ISZERO DUP1 PUSH2 0x142E JUMPI JUMPDEST PUSH2 0x119D SWAP1 PUSH2 0x1CCB JUMP JUMPDEST PUSH2 0x11B1 DUP2 PUSH1 0x0 MSTORE PUSH1 0xD PUSH1 0x20 MSTORE PUSH1 0x40 PUSH1 0x0 KECCAK256 SWAP1 JUMP JUMPDEST SWAP2 PUSH2 0x11C8 PUSH2 0x11C3 PUSH1 0x8 DUP6 ADD SLOAD PUSH1 0xFF AND SWAP1 JUMP JUMPDEST PUSH2 0x235C JUMP JUMPDEST PUSH2 0x11D3 DUP2 ISZERO ISZERO PUSH2 0x23A0 JUMP JUMPDEST PUSH1 0x7 DUP4 ADD SWAP2 PUSH2 0x11F2 PUSH2 0x11E6 DUP4 DUP6 SLOAD PUSH2 0x23EC JUMP JUMPDEST PUSH1 0x6 DUP7 ADD SLOAD LT ISZERO PUSH2 0x23F9 JUMP JUMPDEST PUSH1 0x5 DUP5 ADD SWAP4 PUSH2 0x1202 DUP4 DUP7 SLOAD PUSH2 0x2451 JUMP JUMPDEST PUSH2 0x120E DUP2 CALLVALUE LT ISZERO PUSH2 0x2464 JUMP JUMPDEST PUSH2 0x1243 PUSH2 0x1228 PUSH2 0x1220 PUSH1 0xA SLOAD DUP5 PUSH2 0x2451 JUMP JUMPDEST PUSH2 0x2710 SWAP1 DIV SWAP1 JUMP JUMPDEST PUSH2 0x123E PUSH2 0x1237 PUSH2 0x1220 DUP6 PUSH2 0x243A JUMP JUMPDEST SWAP2 DUP5 PUSH2 0x24A7 JUMP JUMPDEST PUSH2 0x24A7 JUMP JUMPDEST SWAP5 PUSH2 0x1257 PUSH2 0x124F PUSH2 0x24B4 JUMP JUMPDEST DUP7 DUP7 CALLER PUSH2 0x2587 JUMP JUMPDEST PUSH2 0x1262 DUP6 DUP3 SLOAD PUSH2 0x23EC JUMP JUMPDEST SWAP1 SSTORE CALLER PUSH1 0x0 SWAP1 DUP2 MSTORE PUSH1 0xC PUSH1 0x20 MSTORE PUSH1 0x40 SWAP1 KECCAK256 PUSH1 0x4 SWAP1 PUSH1 0x5 DUP2 ADD PUSH2 0x128C PUSH2 0x1288 DUP3 SLOAD PUSH1 0xFF AND SWAP1 JUMP JUMPDEST ISZERO SWAP1 JUMP JUMPDEST PUSH2 0x1410 JUMPI JUMPDEST POP ADD PUSH2 0x129E DUP6 DUP3 SLOAD PUSH2 0x23EC JUMP JUMPDEST SWAP1 SSTORE PUSH1 0x0 SWAP5 PUSH1 0x0 JUMPDEST CALLER PUSH1 0x0 SWAP1 DUP2 MSTORE PUSH1 0x10 PUSH1 0x20 MSTORE PUSH1 0x40 SWAP1 KECCAK256 SLOAD DUP2 LT ISZERO PUSH2 0x1405 JUMPI CALLER PUSH1 0x0 SWAP1 DUP2 MSTORE PUSH1 0x10 PUSH1 0x20 MSTORE PUSH1 0x40 SWAP1 KECCAK256 DUP6 SWAP1 PUSH2 0x12E7 SWAP1 PUSH2 0x12DD SWAP1 DUP5 SWAP1 PUSH2 0x10F1 JUMP JUMPDEST SWAP1 SLOAD SWAP1 PUSH1 0x3 SHL SHR SWAP1 JUMP JUMPDEST EQ PUSH2 0x12F4 JUMPI PUSH1 0x1 ADD PUSH2 0x12A6 JUMP JUMPDEST POP SWAP1 SWAP2 SWAP3 SWAP4 SWAP5 POP PUSH1 0x1 JUMPDEST ISZERO PUSH2 0x13E6 JUMPI JUMPDEST DUP1 ISZERO DUP1 ISZERO PUSH2 0x139C JUMPI JUMPDEST POP POP DUP1 CALLVALUE GT PUSH2 0x1369 JUMPI JUMPDEST POP PUSH1 0x1 ADD SLOAD SWAP3 SLOAD PUSH1 0x40 DUP1 MLOAD SWAP4 DUP5 MSTORE PUSH1 0x20 DUP5 ADD SWAP2 SWAP1 SWAP2 MSTORE PUSH1 0x1 PUSH1 0x1 PUSH1 0xA0 SHL SUB SWAP1 SWAP4 AND SWAP3 CALLER SWAP3 PUSH32 0x465C604F8DCF4D2DBA83E76F95C4CB5876F0976EC008A9326B6D4B209142BB45 SWAP2 SWAP1 LOG4 PUSH2 0xD2E PUSH1 0x1 PUSH1 0x6 SSTORE JUMP JUMPDEST PUSH1 0x0 DUP1 DUP1 PUSH2 0x1378 DUP2 SWAP5 CALLVALUE PUSH2 0x24A7 JUMP JUMPDEST DUP2 DUP2 ISZERO PUSH2 0x1393 JUMPI JUMPDEST CALLER SWAP1 CALL ISZERO PUSH2 0x138E JUMPI CODESIZE PUSH2 0x1317 JUMP JUMPDEST PUSH2 0x24D7 JUMP JUMPDEST POP PUSH2 0x8FC PUSH2 0x1380 JUMP JUMPDEST PUSH1 0x0 DUP1 DUP1 SWAP4 DUP2 SWAP4 PUSH2 0x13C8 PUSH2 0x13BC PUSH2 0x13BC PUSH1 0x1 DUP12 ADD SLOAD PUSH1 0x1 DUP1 PUSH1 0xA0 SHL SUB AND SWAP1 JUMP JUMPDEST PUSH1 0x1 PUSH1 0x1 PUSH1 0xA0 SHL SUB AND SWAP1 JUMP JUMPDEST SWAP1 DUP4 SWAP1 PUSH2 0x13DD JUMPI JUMPDEST CALL ISZERO PUSH2 0x138E JUMPI CODESIZE DUP1 PUSH2 0x130D JUMP JUMPDEST POP PUSH2 0x8FC PUSH2 0x13D0 JUMP JUMPDEST CALLER PUSH1 0x0 SWAP1 DUP2 MSTORE PUSH1 0x10 PUSH1 0x20 MSTORE PUSH1 0x40 SWAP1 KECCAK256 PUSH2 0x1400 SWAP1 DUP6 SWAP1 PUSH2 0x21F0 JUMP JUMPDEST PUSH2 0x1304 JUMP JUMPDEST POP SWAP1 SWAP2 SWAP3 SWAP4 SWAP5 PUSH2 0x12FE JUMP JUMPDEST DUP1 SLOAD PUSH1 0xFF NOT AND PUSH1 0x1 OR SWAP1 SSTORE PUSH1 0x0 PUSH1 0x3 DUP3 ADD SSTORE PUSH1 0x0 DUP3 DUP3 ADD SSTORE CODESIZE PUSH2 0x1291 JUMP JUMPDEST POP DUP1 ISZERO ISZERO PUSH2 0x1194 JUMP JUMPDEST CALLVALUE PUSH2 0x2AC JUMPI PUSH1 0x0 CALLDATASIZE PUSH1 0x3 NOT ADD SLT PUSH2 0x2AC JUMPI PUSH1 0x20 PUSH1 0xB SLOAD PUSH1 0x40 MLOAD SWAP1 DUP2 MSTORE RETURN JUMPDEST CALLVALUE PUSH2 0x2AC JUMPI PUSH1 0x20 CALLDATASIZE PUSH1 0x3 NOT ADD SLT PUSH2 0x2AC JUMPI PUSH1 0x4 CALLDATALOAD PUSH1 0x0 SWAP1 DUP1 DUP3 MSTORE PUSH1 0xE PUSH1 0x20 MSTORE PUSH2 0x148B PUSH1 0x1 DUP1 PUSH1 0xA0 SHL SUB PUSH1 0x40 DUP5 KECCAK256 SLOAD AND CALLER EQ PUSH2 0x231F JUMP JUMPDEST DUP2 MSTORE PUSH1 0xD PUSH1 0x20 MSTORE PUSH1 0x40 DUP2 KECCAK256 PUSH1 0x8 ADD DUP1 SLOAD PUSH1 0xFF DUP2 DUP2 AND ISZERO AND PUSH1 0xFF NOT SWAP1 SWAP2 AND OR SWAP1 SSTORE DUP1 RETURN JUMPDEST CALLVALUE PUSH2 0x2AC JUMPI PUSH1 0x0 CALLDATASIZE PUSH1 0x3 NOT ADD SLT PUSH2 0x2AC JUMPI PUSH1 0x20 PUSH1 0xFF PUSH1 0x7 SLOAD AND PUSH1 0x40 MLOAD SWAP1 ISZERO ISZERO DUP2 MSTORE RETURN JUMPDEST CALLVALUE PUSH2 0x2AC JUMPI PUSH1 0x0 DUP1 PUSH1 0x3 NOT CALLDATASIZE ADD SLT PUSH2 0x7BB JUMPI PUSH2 0x14EB PUSH2 0x251A JUMP JUMPDEST PUSH1 0x5 DUP1 SLOAD PUSH1 0x1 PUSH1 0x1 PUSH1 0xA0 SHL SUB NOT DUP2 AND SWAP1 SWAP2 SSTORE DUP2 SWAP1 PUSH1 0x1 PUSH1 0x1 PUSH1 0xA0 SHL SUB AND PUSH32 0x8BE0079C531659141344CD1FD0A4F28419497F9722A3DAAFE3B4186F6B6457E0 DUP3 DUP1 LOG3 DUP1 RETURN JUMPDEST CALLVALUE PUSH2 0x2AC JUMPI PUSH1 0x0 CALLDATASIZE PUSH1 0x3 NOT ADD SLT PUSH2 0x2AC JUMPI PUSH2 0x1548 PUSH2 0x251A JUMP JUMPDEST PUSH2 0x1550 PUSH2 0x2546 JUMP JUMPDEST PUSH1 0x1 PUSH1 0xFF NOT PUSH1 0x7 SLOAD AND OR PUSH1 0x7 SSTORE PUSH32 0x62E78CEA01BEE320CD4E420270B5EA74000D11B0C9F74754EBDBFC544B05A258 PUSH1 0x20 PUSH1 0x40 MLOAD CALLER DUP2 MSTORE LOG1 STOP JUMPDEST CALLVALUE PUSH2 0x2AC JUMPI PUSH1 0x0 CALLDATASIZE PUSH1 0x3 NOT ADD SLT PUSH2 0x2AC JUMPI PUSH1 0x5 SLOAD PUSH1 0x40 MLOAD PUSH1 0x1 PUSH1 0x1 PUSH1 0xA0 SHL SUB SWAP1 SWAP2 AND DUP2 MSTORE PUSH1 0x20 SWAP1 RETURN JUMPDEST CALLVALUE PUSH2 0x2AC JUMPI PUSH1 0x40 CALLDATASIZE PUSH1 0x3 NOT ADD SLT PUSH2 0x2AC JUMPI PUSH2 0x15CB PUSH2 0x296 JUMP JUMPDEST PUSH1 0x1 PUSH1 0x1 PUSH1 0xA0 SHL SUB AND PUSH1 0x0 SWAP1 DUP2 MSTORE PUSH1 0xF PUSH1 0x20 MSTORE PUSH1 0x40 SWAP1 KECCAK256 DUP1 SLOAD PUSH1 0x24 CALLDATALOAD SWAP2 SWAP1 DUP3 LT ISZERO PUSH2 0x2AC JUMPI PUSH1 0x20 SWAP2 PUSH2 0x1158 SWAP2 PUSH2 0x10F1 JUMP JUMPDEST CALLVALUE PUSH2 0x2AC JUMPI PUSH1 0x0 DUP1 PUSH1 0x3 NOT CALLDATASIZE ADD SLT PUSH2 0x7BB JUMPI PUSH1 0x40 MLOAD SWAP1 DUP1 PUSH1 0x9 SLOAD SWAP1 PUSH2 0x1620 DUP3 PUSH2 0x5A2 JUMP JUMPDEST DUP1 DUP6 MSTORE SWAP2 PUSH1 0x20 SWAP2 PUSH1 0x1 SWAP2 DUP3 DUP2 AND SWAP1 DUP2 ISZERO PUSH2 0x78E JUMPI POP PUSH1 0x1 EQ PUSH2 0x164C JUMPI PUSH2 0x732 DUP7 PUSH2 0x726 DUP2 DUP9 SUB DUP3 PUSH2 0x3DE JUMP JUMPDEST SWAP4 POP PUSH1 0x9 DUP5 MSTORE PUSH32 0x6E1540171B6C0C960B71A7020D9F60077F6AF931A8BBF590DA0223DACF75C7AF JUMPDEST DUP4 DUP6 LT PUSH2 0x1691 JUMPI POP POP POP POP DUP2 ADD PUSH1 0x20 ADD PUSH2 0x726 DUP3 PUSH2 0x732 CODESIZE PUSH2 0x716 JUMP JUMPDEST DUP1 SLOAD DUP7 DUP7 ADD DUP5 ADD MSTORE SWAP4 DUP3 ADD SWAP4 DUP2 ADD PUSH2 0x1674 JUMP JUMPDEST CALLVALUE PUSH2 0x2AC JUMPI PUSH1 0x40 CALLDATASIZE PUSH1 0x3 NOT ADD SLT PUSH2 0x2AC JUMPI PUSH2 0x16BD PUSH2 0x296 JUMP JUMPDEST PUSH1 0x24 CALLDATALOAD SWAP1 DUP2 ISZERO ISZERO SWAP1 DUP2 DUP4 SUB PUSH2 0x2AC JUMPI PUSH1 0x1 PUSH1 0x1 PUSH1 0xA0 SHL SUB DUP2 AND SWAP3 DUP4 ISZERO PUSH2 0x1748 JUMPI PUSH2 0x1709 PUSH2 0x171A SWAP3 CALLER PUSH1 0x0 MSTORE PUSH1 0x1 PUSH1 0x20 MSTORE PUSH1 0x40 PUSH1 0x0 KECCAK256 SWAP1 PUSH1 0x1 DUP1 PUSH1 0xA0 SHL SUB AND PUSH1 0x0 MSTORE PUSH1 0x20 MSTORE PUSH1 0x40 PUSH1 0x0 KECCAK256 SWAP1 JUMP JUMPDEST SWAP1 PUSH1 0xFF DUP1 NOT DUP4 SLOAD AND SWAP2 ISZERO ISZERO AND OR SWAP1 SSTORE JUMP JUMPDEST PUSH1 0x40 MLOAD SWAP1 DUP2 MSTORE PUSH32 0x17307EAB39AB6107E8899845AD3D59BD9653F200F220920489CA2B5937696C31 PUSH1 0x20 CALLER SWAP3 LOG3 STOP JUMPDEST PUSH1 0x40 MLOAD PUSH3 0xCED3E1 PUSH1 0xE8 SHL DUP2 MSTORE PUSH1 0x0 PUSH1 0x4 DUP3 ADD MSTORE PUSH1 0x24 SWAP1 REVERT JUMPDEST CALLVALUE PUSH2 0x2AC JUMPI PUSH1 0x60 CALLDATASIZE PUSH1 0x3 NOT ADD SLT PUSH2 0x2AC JUMPI PUSH1 0x1 PUSH1 0x1 PUSH1 0x40 SHL SUB PUSH1 0x4 CALLDATALOAD DUP2 DUP2 GT PUSH2 0x2AC JUMPI PUSH2 0x1791 SWAP1 CALLDATASIZE SWAP1 PUSH1 0x4 ADD PUSH2 0x43A JUMP JUMPDEST PUSH1 0x24 CALLDATALOAD DUP3 DUP2 GT PUSH2 0x2AC JUMPI PUSH2 0x17A9 SWAP1 CALLDATASIZE SWAP1 PUSH1 0x4 ADD PUSH2 0x43A JUMP JUMPDEST SWAP2 PUSH1 0x44 CALLDATALOAD SWAP1 DUP2 GT PUSH2 0x2AC JUMPI PUSH2 0x17E3 PUSH32 0x39DFEE1413BB413BA51702FE3CD693CD3B02628FBAC61358818D502B7AF50095 SWAP2 CALLDATASIZE SWAP1 PUSH1 0x4 ADD PUSH2 0x43A JUMP JUMPDEST PUSH1 0x0 SWAP4 CALLER DUP6 MSTORE PUSH1 0xC PUSH1 0x20 MSTORE PUSH2 0x1825 DUP3 PUSH1 0x2 PUSH1 0x40 DUP9 KECCAK256 PUSH1 0x5 DUP2 ADD PUSH1 0xFF DUP2 SLOAD AND ISZERO PUSH2 0x183C JUMPI JUMPDEST POP PUSH2 0x1812 DUP9 DUP3 PUSH2 0x2077 JUMP JUMPDEST PUSH2 0x181F DUP6 PUSH1 0x1 DUP4 ADD PUSH2 0x2077 JUMP JUMPDEST ADD PUSH2 0x2077 JUMP JUMPDEST PUSH2 0x1836 PUSH1 0x40 MLOAD SWAP3 DUP4 SWAP3 CALLER SWAP7 DUP5 PUSH2 0x24E3 JUMP JUMPDEST SUB SWAP1 LOG2 DUP1 RETURN JUMPDEST DUP1 SLOAD PUSH1 0xFF NOT AND PUSH1 0x1 OR SWAP1 SSTORE DUP9 PUSH1 0x3 DUP3 ADD SSTORE DUP9 PUSH1 0x4 DUP3 ADD SSTORE CODESIZE PUSH2 0x1807 JUMP JUMPDEST CALLVALUE PUSH2 0x2AC JUMPI PUSH1 0x20 CALLDATASIZE PUSH1 0x3 NOT ADD SLT PUSH2 0x2AC JUMPI PUSH1 0x1 PUSH1 0x1 PUSH1 0xA0 SHL SUB PUSH2 0x187A PUSH2 0x296 JUMP JUMPDEST AND PUSH1 0x0 MSTORE PUSH1 0xC PUSH1 0x20 MSTORE PUSH1 0x40 PUSH1 0x0 KECCAK256 PUSH1 0x40 MLOAD PUSH2 0x1894 DUP2 PUSH2 0x3BE JUMP JUMPDEST PUSH2 0x189D DUP3 PUSH2 0x5DC JUMP JUMPDEST DUP2 MSTORE PUSH2 0x732 PUSH2 0x18AE PUSH1 0x1 DUP5 ADD PUSH2 0x5DC JUMP JUMPDEST SWAP2 PUSH1 0x20 DUP2 ADD SWAP3 DUP4 MSTORE PUSH2 0x18C2 PUSH1 0x2 DUP6 ADD PUSH2 0x5DC JUMP JUMPDEST SWAP4 DUP5 PUSH1 0x40 DUP4 ADD MSTORE PUSH1 0x3 DUP2 ADD SLOAD DUP1 PUSH1 0x60 DUP5 ADD MSTORE PUSH1 0xFF PUSH1 0x5 PUSH1 0x4 DUP5 ADD SLOAD SWAP4 DUP5 PUSH1 0x80 DUP8 ADD MSTORE ADD SLOAD AND ISZERO ISZERO SWAP3 DUP4 PUSH1 0xA0 DUP3 ADD MSTORE MLOAD SWAP5 MLOAD SWAP6 PUSH1 0x40 MLOAD SWAP7 DUP8 SWAP7 DUP8 PUSH2 0xAAA JUMP JUMPDEST CALLVALUE PUSH2 0x2AC JUMPI PUSH1 0x20 CALLDATASIZE PUSH1 0x3 NOT ADD SLT PUSH2 0x2AC JUMPI PUSH1 0x4 CALLDATALOAD PUSH1 0x0 MSTORE PUSH1 0x3 PUSH1 0x20 MSTORE PUSH1 0x20 PUSH1 0x40 PUSH1 0x0 KECCAK256 SLOAD PUSH1 0x40 MLOAD SWAP1 DUP2 MSTORE RETURN JUMPDEST CALLVALUE PUSH2 0x2AC JUMPI PUSH1 0x20 DUP1 PUSH1 0x3 NOT CALLDATASIZE ADD SLT PUSH2 0x2AC JUMPI PUSH1 0x1 PUSH1 0x1 PUSH1 0xA0 SHL SUB PUSH2 0x194E PUSH2 0x296 JUMP JUMPDEST AND PUSH1 0x0 MSTORE PUSH1 0xF PUSH1 0x20 MSTORE PUSH1 0x40 PUSH1 0x0 KECCAK256 SWAP1 PUSH1 0x40 MLOAD SWAP1 DUP2 PUSH1 0x20 DUP5 SLOAD SWAP2 DUP3 DUP2 MSTORE ADD SWAP4 PUSH1 0x0 MSTORE PUSH1 0x20 PUSH1 0x0 KECCAK256 SWAP2 PUSH1 0x0 SWAP1 JUMPDEST DUP3 DUP3 LT PUSH2 0x1990 JUMPI PUSH2 0x732 DUP6 PUSH2 0x103F DUP2 DUP10 SUB DUP3 PUSH2 0x3DE JUMP JUMPDEST DUP4 SLOAD DUP7 MSTORE SWAP5 DUP6 ADD SWAP5 PUSH1 0x1 SWAP4 DUP5 ADD SWAP4 SWAP1 SWAP2 ADD SWAP1 PUSH2 0x1979 JUMP JUMPDEST CALLVALUE PUSH2 0x2AC JUMPI PUSH1 0x0 CALLDATASIZE PUSH1 0x3 NOT ADD SLT PUSH2 0x2AC JUMPI PUSH1 0x20 PUSH1 0xA SLOAD PUSH1 0x40 MLOAD SWAP1 DUP2 MSTORE RETURN JUMPDEST CALLVALUE PUSH2 0x2AC JUMPI PUSH1 0x0 DUP1 PUSH1 0x3 NOT CALLDATASIZE ADD SLT PUSH2 0x7BB JUMPI PUSH2 0x19DF PUSH2 0x251A JUMP JUMPDEST SELFBALANCE DUP1 ISZERO PUSH2 0x1A0D JUMPI PUSH1 0x5 SLOAD DUP3 SWAP2 DUP3 SWAP2 DUP3 SWAP2 DUP3 SWAP2 PUSH2 0x1A03 SWAP1 PUSH1 0x1 PUSH1 0x1 PUSH1 0xA0 SHL SUB AND PUSH2 0x13BC JUMP JUMPDEST DUP3 CALL ISZERO PUSH2 0x138E JUMPI DUP1 RETURN JUMPDEST PUSH1 0x40 MLOAD PUSH3 0x461BCD PUSH1 0xE5 SHL DUP2 MSTORE PUSH1 0x20 PUSH1 0x4 DUP3 ADD MSTORE PUSH1 0x13 PUSH1 0x24 DUP3 ADD MSTORE PUSH19 0x4E6F206665657320746F207769746864726177 PUSH1 0x68 SHL PUSH1 0x44 DUP3 ADD MSTORE PUSH1 0x64 SWAP1 REVERT JUMPDEST CALLVALUE PUSH2 0x2AC JUMPI PUSH1 0x20 DUP1 PUSH1 0x3 NOT CALLDATASIZE ADD SLT PUSH2 0x2AC JUMPI PUSH1 0x1 PUSH1 0x1 PUSH1 0xA0 SHL SUB PUSH2 0x1A6A PUSH2 0x296 JUMP JUMPDEST AND PUSH1 0x0 MSTORE PUSH1 0x10 PUSH1 0x20 MSTORE PUSH1 0x40 PUSH1 0x0 KECCAK256 SWAP1 PUSH1 0x40 MLOAD SWAP1 DUP2 PUSH1 0x20 DUP5 SLOAD SWAP2 DUP3 DUP2 MSTORE ADD SWAP4 PUSH1 0x0 MSTORE PUSH1 0x20 PUSH1 0x0 KECCAK256 SWAP2 PUSH1 0x0 SWAP1 JUMPDEST DUP3 DUP3 LT PUSH2 0x1AAC JUMPI PUSH2 0x732 DUP6 PUSH2 0x103F DUP2 DUP10 SUB DUP3 PUSH2 0x3DE JUMP JUMPDEST DUP4 SLOAD DUP7 MSTORE SWAP5 DUP6 ADD SWAP5 PUSH1 0x1 SWAP4 DUP5 ADD SWAP4 SWAP1 SWAP2 ADD SWAP1 PUSH2 0x1A95 JUMP JUMPDEST CALLVALUE PUSH2 0x2AC JUMPI PUSH1 0x40 CALLDATASIZE PUSH1 0x3 NOT ADD SLT PUSH2 0x2AC JUMPI PUSH1 0x20 PUSH1 0xFF PUSH2 0x1B14 PUSH2 0x1AE3 PUSH2 0x296 JUMP JUMPDEST PUSH2 0x1AEB PUSH2 0x2B1 JUMP JUMPDEST PUSH1 0x1 PUSH1 0x1 PUSH1 0xA0 SHL SUB SWAP2 DUP3 AND PUSH1 0x0 SWAP1 DUP2 MSTORE PUSH1 0x1 DUP7 MSTORE PUSH1 0x40 DUP1 DUP3 KECCAK256 SWAP3 SWAP1 SWAP4 AND DUP2 MSTORE PUSH1 0x20 SWAP2 SWAP1 SWAP2 MSTORE KECCAK256 SWAP1 JUMP JUMPDEST SLOAD AND PUSH1 0x40 MLOAD SWAP1 ISZERO ISZERO DUP2 MSTORE RETURN JUMPDEST CALLVALUE PUSH2 0x2AC JUMPI PUSH1 0xA0 CALLDATASIZE PUSH1 0x3 NOT ADD SLT PUSH2 0x2AC JUMPI PUSH2 0x1B39 PUSH2 0x296 JUMP JUMPDEST PUSH2 0x1B41 PUSH2 0x2B1 JUMP JUMPDEST PUSH1 0x84 CALLDATALOAD PUSH1 0x1 PUSH1 0x1 PUSH1 0x40 SHL SUB DUP2 GT PUSH2 0x2AC JUMPI PUSH2 0x1B60 SWAP1 CALLDATASIZE SWAP1 PUSH1 0x4 ADD PUSH2 0x43A JUMP JUMPDEST SWAP1 PUSH1 0x1 PUSH1 0x1 PUSH1 0xA0 SHL SUB DUP4 DUP2 AND SWAP1 CALLER DUP3 EQ ISZERO DUP1 PUSH2 0x1C19 JUMPI JUMPDEST PUSH2 0x1BF2 JUMPI DUP3 AND ISZERO PUSH2 0x1BD9 JUMPI ISZERO PUSH2 0x1BC1 JUMPI PUSH2 0xD2E SWAP3 PUSH2 0x1BB9 PUSH1 0x64 CALLDATALOAD PUSH1 0x44 CALLDATALOAD SWAP2 PUSH1 0x40 MLOAD SWAP3 PUSH1 0x1 DUP5 MSTORE PUSH1 0x20 DUP5 ADD MSTORE PUSH1 0x40 DUP4 ADD SWAP2 PUSH1 0x1 DUP4 MSTORE PUSH1 0x60 DUP5 ADD MSTORE PUSH1 0x80 DUP4 ADD PUSH1 0x40 MSTORE JUMP JUMPDEST SWAP3 SWAP1 SWAP2 PUSH2 0x2661 JUMP JUMPDEST PUSH1 0x40 MLOAD PUSH3 0x6A0D45 PUSH1 0xE2 SHL DUP2 MSTORE PUSH1 0x0 PUSH1 0x4 DUP3 ADD MSTORE PUSH1 0x24 SWAP1 REVERT JUMPDEST PUSH1 0x40 MLOAD PUSH4 0x2BFA23E7 PUSH1 0xE1 SHL DUP2 MSTORE PUSH1 0x0 PUSH1 0x4 DUP3 ADD MSTORE PUSH1 0x24 SWAP1 REVERT JUMPDEST PUSH1 0x40 MLOAD PUSH4 0x711BEC91 PUSH1 0xE1 SHL DUP2 MSTORE CALLER PUSH1 0x4 DUP3 ADD MSTORE PUSH1 0x1 PUSH1 0x1 PUSH1 0xA0 SHL SUB DUP7 AND PUSH1 0x24 DUP3 ADD MSTORE PUSH1 0x44 SWAP1 REVERT JUMPDEST POP PUSH1 0x0 DUP3 DUP2 MSTORE PUSH1 0x1 PUSH1 0x20 SWAP1 DUP2 MSTORE PUSH1 0x40 DUP1 DUP4 KECCAK256 CALLER DUP5 MSTORE SWAP1 SWAP2 MSTORE SWAP1 KECCAK256 SLOAD PUSH1 0xFF AND ISZERO PUSH2 0x1B77 JUMP JUMPDEST CALLVALUE PUSH2 0x2AC JUMPI PUSH1 0x20 CALLDATASIZE PUSH1 0x3 NOT ADD SLT PUSH2 0x2AC JUMPI PUSH2 0x1C56 PUSH2 0x296 JUMP JUMPDEST PUSH2 0x1C5E PUSH2 0x251A JUMP JUMPDEST PUSH1 0x1 PUSH1 0x1 PUSH1 0xA0 SHL SUB SWAP1 DUP2 AND SWAP1 DUP2 ISZERO PUSH2 0x1CB2 JUMPI PUSH1 0x5 SLOAD DUP3 PUSH12 0xFFFFFFFFFFFFFFFFFFFFFFFF PUSH1 0xA0 SHL DUP3 AND OR PUSH1 0x5 SSTORE AND PUSH32 0x8BE0079C531659141344CD1FD0A4F28419497F9722A3DAAFE3B4186F6B6457E0 PUSH1 0x0 DUP1 LOG3 STOP JUMPDEST PUSH1 0x40 MLOAD PUSH4 0x1E4FBDF7 PUSH1 0xE0 SHL DUP2 MSTORE PUSH1 0x0 PUSH1 0x4 DUP3 ADD MSTORE PUSH1 0x24 SWAP1 REVERT JUMPDEST ISZERO PUSH2 0x1CD2 JUMPI JUMP JUMPDEST PUSH1 0x40 MLOAD PUSH3 0x461BCD PUSH1 0xE5 SHL DUP2 MSTORE PUSH1 0x20 PUSH1 0x4 DUP3 ADD MSTORE PUSH1 0x10 PUSH1 0x24 DUP3 ADD MSTORE PUSH16 0x125B9D985B1A59081D1BDAD95B881251 PUSH1 0x82 SHL PUSH1 0x44 DUP3 ADD MSTORE PUSH1 0x64 SWAP1 REVERT JUMPDEST SWAP3 SWAP4 PUSH32 0x84D4C409F4BEA14C1185CF0ECFE21EAF370DA5995BA50142890ED3774BEE03A4 SWAP2 SWAP5 PUSH2 0x1D37 PUSH2 0x2546 JUMP JUMPDEST PUSH2 0x1D3F PUSH2 0x2564 JUMP JUMPDEST PUSH2 0x1D4A DUP3 ISZERO ISZERO PUSH2 0x1E9F JUMP JUMPDEST PUSH2 0x1D56 DUP6 MLOAD ISZERO ISZERO PUSH2 0x1EF5 JUMP JUMPDEST PUSH2 0x1D62 DUP5 MLOAD ISZERO ISZERO PUSH2 0x1F39 JUMP JUMPDEST PUSH2 0x1D75 PUSH2 0x1D70 PUSH1 0xB SLOAD PUSH2 0x1F9B JUMP JUMPDEST PUSH1 0xB SSTORE JUMP JUMPDEST PUSH2 0x1DE1 PUSH1 0xB SLOAD SWAP7 DUP8 SWAP6 PUSH2 0x1D86 PUSH2 0x3FF JUMP JUMPDEST DUP8 DUP2 MSTORE CALLER PUSH1 0x20 DUP3 ADD MSTORE SWAP2 DUP9 PUSH1 0x40 DUP5 ADD MSTORE PUSH1 0x60 DUP4 ADD MSTORE PUSH1 0x80 DUP3 ADD MSTORE DUP3 PUSH1 0xA0 DUP3 ADD MSTORE DUP4 PUSH1 0xC0 DUP3 ADD MSTORE PUSH1 0x0 PUSH1 0xE0 DUP3 ADD MSTORE PUSH2 0x1DC1 PUSH2 0x100 DUP3 ADD PUSH1 0x1 SWAP1 MSTORE JUMP JUMPDEST TIMESTAMP PUSH2 0x120 DUP3 ADD MSTORE PUSH2 0x1DDC DUP7 PUSH1 0x0 MSTORE PUSH1 0xD PUSH1 0x20 MSTORE PUSH1 0x40 PUSH1 0x0 KECCAK256 SWAP1 JUMP JUMPDEST PUSH2 0x2140 JUMP JUMPDEST PUSH2 0x1E18 CALLER PUSH2 0x1DF9 DUP7 PUSH1 0x0 MSTORE PUSH1 0xE PUSH1 0x20 MSTORE PUSH1 0x40 PUSH1 0x0 KECCAK256 SWAP1 JUMP JUMPDEST DUP1 SLOAD PUSH1 0x1 PUSH1 0x1 PUSH1 0xA0 SHL SUB NOT AND PUSH1 0x1 PUSH1 0x1 PUSH1 0xA0 SHL SUB SWAP1 SWAP3 AND SWAP2 SWAP1 SWAP2 OR SWAP1 SSTORE JUMP JUMPDEST CALLER PUSH1 0x0 SWAP1 DUP2 MSTORE PUSH1 0xF PUSH1 0x20 MSTORE PUSH1 0x40 SWAP1 KECCAK256 PUSH2 0x1E32 SWAP1 DUP6 SWAP1 PUSH2 0x21F0 JUMP JUMPDEST CALLER PUSH1 0x0 SWAP1 DUP2 MSTORE PUSH1 0xC PUSH1 0x20 MSTORE PUSH1 0x40 SWAP1 KECCAK256 PUSH1 0x3 SWAP1 PUSH1 0x5 DUP2 ADD PUSH2 0x1E56 PUSH2 0x1288 DUP3 SLOAD PUSH1 0xFF AND SWAP1 JUMP JUMPDEST PUSH2 0x1E87 JUMPI JUMPDEST POP ADD PUSH2 0x1E67 DUP2 SLOAD PUSH2 0x1F9B JUMP JUMPDEST SWAP1 SSTORE PUSH2 0x1E7A PUSH1 0x40 MLOAD SWAP3 DUP4 SWAP3 CALLER SWAP8 DUP5 PUSH2 0x222A JUMP JUMPDEST SUB SWAP1 LOG3 PUSH2 0x6D2 PUSH1 0x1 PUSH1 0x6 SSTORE JUMP JUMPDEST DUP1 SLOAD PUSH1 0xFF NOT AND PUSH1 0x1 OR SWAP1 SSTORE PUSH1 0x0 PUSH1 0x4 DUP3 ADD SSTORE CODESIZE PUSH2 0x1E5B JUMP JUMPDEST ISZERO PUSH2 0x1EA6 JUMPI JUMP JUMPDEST PUSH1 0x40 MLOAD PUSH3 0x461BCD PUSH1 0xE5 SHL DUP2 MSTORE PUSH1 0x20 PUSH1 0x4 DUP3 ADD MSTORE PUSH1 0x21 PUSH1 0x24 DUP3 ADD MSTORE PUSH32 0x4D617820737570706C79206D7573742062652067726561746572207468616E20 PUSH1 0x44 DUP3 ADD MSTORE PUSH1 0x3 PUSH1 0xFC SHL PUSH1 0x64 DUP3 ADD MSTORE PUSH1 0x84 SWAP1 REVERT JUMPDEST ISZERO PUSH2 0x1EFC JUMPI JUMP JUMPDEST PUSH1 0x40 MLOAD PUSH3 0x461BCD PUSH1 0xE5 SHL DUP2 MSTORE PUSH1 0x20 PUSH1 0x4 DUP3 ADD MSTORE PUSH1 0x15 PUSH1 0x24 DUP3 ADD MSTORE PUSH21 0x5469746C652063616E6E6F7420626520656D707479 PUSH1 0x58 SHL PUSH1 0x44 DUP3 ADD MSTORE PUSH1 0x64 SWAP1 REVERT JUMPDEST ISZERO PUSH2 0x1F40 JUMPI JUMP JUMPDEST PUSH1 0x40 MLOAD PUSH3 0x461BCD PUSH1 0xE5 SHL DUP2 MSTORE PUSH1 0x20 PUSH1 0x4 DUP3 ADD MSTORE PUSH1 0x1C PUSH1 0x24 DUP3 ADD MSTORE PUSH32 0x4D65746164617461205552492063616E6E6F7420626520656D70747900000000 PUSH1 0x44 DUP3 ADD MSTORE PUSH1 0x64 SWAP1 REVERT JUMPDEST PUSH4 0x4E487B71 PUSH1 0xE0 SHL PUSH1 0x0 MSTORE PUSH1 0x11 PUSH1 0x4 MSTORE PUSH1 0x24 PUSH1 0x0 REVERT JUMPDEST PUSH1 0x0 NOT DUP2 EQ PUSH2 0x1FAA JUMPI PUSH1 0x1 ADD SWAP1 JUMP JUMPDEST PUSH2 0x1F85 JUMP JUMPDEST PUSH1 0x1F DUP2 GT PUSH2 0x1FBB JUMPI POP POP JUMP JUMPDEST PUSH1 0x0 SWAP1 PUSH1 0x2 PUSH1 0x0 MSTORE PUSH32 0x405787FA12A823E0F2B7631CC41B3BA8828B3321CA811111FA75CD3AA3BB5ACE SWAP1 PUSH1 0x20 PUSH1 0x1F DUP6 ADD PUSH1 0x5 SHR DUP4 ADD SWAP5 LT PUSH2 0x2017 JUMPI JUMPDEST PUSH1 0x1F ADD PUSH1 0x5 SHR ADD SWAP2 JUMPDEST DUP3 DUP2 LT PUSH2 0x200C JUMPI POP POP POP JUMP JUMPDEST DUP2 DUP2 SSTORE PUSH1 0x1 ADD PUSH2 0x2000 JUMP JUMPDEST SWAP1 SWAP3 POP DUP3 SWAP1 PUSH2 0x1FF7 JUMP JUMPDEST SWAP1 PUSH1 0x1F DUP2 GT PUSH2 0x202F JUMPI POP POP POP JUMP JUMPDEST PUSH1 0x0 SWAP2 PUSH1 0x0 MSTORE PUSH1 0x20 PUSH1 0x0 KECCAK256 SWAP1 PUSH1 0x20 PUSH1 0x1F DUP6 ADD PUSH1 0x5 SHR DUP4 ADD SWAP5 LT PUSH2 0x206D JUMPI JUMPDEST PUSH1 0x1F ADD PUSH1 0x5 SHR ADD SWAP2 JUMPDEST DUP3 DUP2 LT PUSH2 0x2062 JUMPI POP POP POP JUMP JUMPDEST DUP2 DUP2 SSTORE PUSH1 0x1 ADD PUSH2 0x2056 JUMP JUMPDEST SWAP1 SWAP3 POP DUP3 SWAP1 PUSH2 0x204D JUMP JUMPDEST SWAP2 SWAP1 SWAP2 DUP3 MLOAD PUSH1 0x1 PUSH1 0x1 PUSH1 0x40 SHL SUB DUP2 GT PUSH2 0x3D9 JUMPI PUSH2 0x209E DUP2 PUSH2 0x2098 DUP5 SLOAD PUSH2 0x5A2 JUMP JUMPDEST DUP5 PUSH2 0x2021 JUMP JUMPDEST PUSH1 0x20 DUP1 PUSH1 0x1F DUP4 GT PUSH1 0x1 EQ PUSH2 0x20D5 JUMPI POP DUP2 SWAP1 PUSH2 0x20D1 SWAP4 SWAP5 SWAP6 PUSH1 0x0 SWAP3 PUSH2 0x510 JUMPI POP POP DUP2 PUSH1 0x1 SHL SWAP2 PUSH1 0x0 NOT SWAP1 PUSH1 0x3 SHL SHR NOT AND OR SWAP1 JUMP JUMPDEST SWAP1 SSTORE JUMP JUMPDEST SWAP1 PUSH1 0x1F NOT DUP4 AND SWAP6 PUSH2 0x20EB DUP6 PUSH1 0x0 MSTORE PUSH1 0x20 PUSH1 0x0 KECCAK256 SWAP1 JUMP JUMPDEST SWAP3 PUSH1 0x0 SWAP1 JUMPDEST DUP9 DUP3 LT PUSH2 0x2128 JUMPI POP POP DUP4 PUSH1 0x1 SWAP6 SWAP7 SWAP8 LT PUSH2 0x210F JUMPI JUMPDEST POP POP POP DUP2 SHL ADD SWAP1 SSTORE JUMP JUMPDEST ADD MLOAD PUSH1 0x0 NOT PUSH1 0xF8 DUP5 PUSH1 0x3 SHL AND SHR NOT AND SWAP1 SSTORE CODESIZE DUP1 DUP1 PUSH2 0x2105 JUMP JUMPDEST DUP1 PUSH1 0x1 DUP6 SWAP7 DUP3 SWAP5 SWAP7 DUP7 ADD MLOAD DUP2 SSTORE ADD SWAP6 ADD SWAP4 ADD SWAP1 PUSH2 0x20F0 JUMP JUMPDEST DUP2 MLOAD DUP2 SSTORE PUSH1 0x20 DUP3 ADD MLOAD PUSH1 0x1 DUP3 ADD DUP1 SLOAD PUSH1 0x1 PUSH1 0x1 PUSH1 0xA0 SHL SUB NOT AND PUSH1 0x1 PUSH1 0x1 PUSH1 0xA0 SHL SUB SWAP1 SWAP3 AND SWAP2 SWAP1 SWAP2 OR SWAP1 SSTORE SWAP1 PUSH1 0x9 SWAP1 PUSH2 0x120 SWAP1 PUSH2 0x2183 PUSH1 0x40 DUP3 ADD MLOAD PUSH1 0x2 DUP7 ADD PUSH2 0x2077 JUMP JUMPDEST PUSH2 0x2194 PUSH1 0x60 DUP3 ADD MLOAD PUSH1 0x3 DUP7 ADD PUSH2 0x2077 JUMP JUMPDEST PUSH2 0x21A5 PUSH1 0x80 DUP3 ADD MLOAD PUSH1 0x4 DUP7 ADD PUSH2 0x2077 JUMP JUMPDEST PUSH1 0xA0 DUP2 ADD MLOAD PUSH1 0x5 DUP6 ADD SSTORE PUSH1 0xC0 DUP2 ADD MLOAD PUSH1 0x6 DUP6 ADD SSTORE PUSH1 0xE0 DUP2 ADD MLOAD PUSH1 0x7 DUP6 ADD SSTORE PUSH2 0x21E9 PUSH2 0x21D4 PUSH2 0x100 DUP4 ADD MLOAD ISZERO ISZERO SWAP1 JUMP JUMPDEST PUSH1 0x8 DUP7 ADD SWAP1 PUSH1 0xFF DUP1 NOT DUP4 SLOAD AND SWAP2 ISZERO ISZERO AND OR SWAP1 SSTORE JUMP JUMPDEST ADD MLOAD SWAP2 ADD SSTORE JUMP JUMPDEST DUP1 SLOAD PUSH9 0x10000000000000000 DUP2 LT ISZERO PUSH2 0x3D9 JUMPI PUSH2 0x2212 SWAP2 PUSH1 0x1 DUP3 ADD DUP2 SSTORE PUSH2 0x10F1 JUMP JUMPDEST DUP2 SWAP3 SWAP2 SLOAD SWAP1 PUSH1 0x3 SHL SWAP2 DUP3 SHL SWAP2 PUSH1 0x0 NOT SWAP1 SHL NOT AND OR SWAP1 SSTORE JUMP JUMPDEST PUSH2 0x2242 PUSH1 0x40 SWAP3 SWAP6 SWAP5 SWAP4 SWAP6 PUSH1 0x60 DUP4 MSTORE PUSH1 0x60 DUP4 ADD SWAP1 PUSH2 0x681 JUMP JUMPDEST SWAP5 PUSH1 0x20 DUP3 ADD MSTORE ADD MSTORE JUMP JUMPDEST DUP1 MLOAD DUP3 LT ISZERO PUSH2 0x1109 JUMPI PUSH1 0x20 SWAP2 PUSH1 0x5 SHL ADD ADD SWAP1 JUMP JUMPDEST SWAP2 SWAP1 SWAP2 DUP1 MLOAD DUP4 MLOAD DUP1 DUP3 SUB PUSH2 0x22FD JUMPI POP POP DUP1 MLOAD SWAP1 PUSH2 0x2295 PUSH2 0x227F DUP4 PUSH2 0xC11 JUMP JUMPDEST SWAP3 PUSH2 0x228D PUSH1 0x40 MLOAD SWAP5 DUP6 PUSH2 0x3DE JUMP JUMPDEST DUP1 DUP5 MSTORE PUSH2 0xC11 JUMP JUMPDEST PUSH1 0x20 SWAP2 SWAP1 PUSH1 0x1F NOT ADD CALLDATASIZE DUP5 DUP5 ADD CALLDATACOPY PUSH1 0x0 JUMPDEST DUP2 MLOAD DUP2 LT ISZERO PUSH2 0x22F5 JUMPI PUSH1 0x5 DUP2 SWAP1 SHL DUP3 DUP2 ADD DUP5 ADD MLOAD SWAP1 DUP8 ADD DUP5 ADD MLOAD PUSH1 0x0 SWAP1 DUP2 MSTORE PUSH1 0x20 DUP2 DUP2 MSTORE PUSH1 0x40 DUP1 DUP4 KECCAK256 PUSH1 0x1 PUSH1 0x1 PUSH1 0xA0 SHL SUB SWAP1 SWAP5 AND DUP4 MSTORE SWAP3 SWAP1 MSTORE KECCAK256 SLOAD PUSH1 0x1 SWAP2 SWAP1 PUSH2 0x22EE DUP3 DUP8 PUSH2 0x224C JUMP JUMPDEST MSTORE ADD PUSH2 0x22A5 JUMP JUMPDEST POP SWAP2 SWAP4 POP POP POP JUMP JUMPDEST PUSH1 0x40 MLOAD PUSH4 0x5B059991 PUSH1 0xE0 SHL DUP2 MSTORE PUSH1 0x4 DUP2 ADD SWAP2 SWAP1 SWAP2 MSTORE PUSH1 0x24 DUP2 ADD SWAP2 SWAP1 SWAP2 MSTORE PUSH1 0x44 SWAP1 REVERT JUMPDEST ISZERO PUSH2 0x2326 JUMPI JUMP JUMPDEST PUSH1 0x40 MLOAD PUSH3 0x461BCD PUSH1 0xE5 SHL DUP2 MSTORE PUSH1 0x20 PUSH1 0x4 DUP3 ADD MSTORE PUSH1 0xE PUSH1 0x24 DUP3 ADD MSTORE PUSH14 0x139BDD081D1A1948185C9D1A5CDD PUSH1 0x92 SHL PUSH1 0x44 DUP3 ADD MSTORE PUSH1 0x64 SWAP1 REVERT JUMPDEST ISZERO PUSH2 0x2363 JUMPI JUMP JUMPDEST PUSH1 0x40 MLOAD PUSH3 0x461BCD PUSH1 0xE5 SHL DUP2 MSTORE PUSH1 0x20 PUSH1 0x4 DUP3 ADD MSTORE PUSH1 0x15 PUSH1 0x24 DUP3 ADD MSTORE PUSH21 0x417274776F726B206973206E6F7420616374697665 PUSH1 0x58 SHL PUSH1 0x44 DUP3 ADD MSTORE PUSH1 0x64 SWAP1 REVERT JUMPDEST ISZERO PUSH2 0x23A7 JUMPI JUMP JUMPDEST PUSH1 0x40 MLOAD PUSH3 0x461BCD PUSH1 0xE5 SHL DUP2 MSTORE PUSH1 0x20 PUSH1 0x4 DUP3 ADD MSTORE PUSH1 0x1D PUSH1 0x24 DUP3 ADD MSTORE PUSH32 0x416D6F756E74206D7573742062652067726561746572207468616E2030000000 PUSH1 0x44 DUP3 ADD MSTORE PUSH1 0x64 SWAP1 REVERT JUMPDEST SWAP2 SWAP1 DUP3 ADD DUP1 SWAP3 GT PUSH2 0x1FAA JUMPI JUMP JUMPDEST ISZERO PUSH2 0x2400 JUMPI JUMP JUMPDEST PUSH1 0x40 MLOAD PUSH3 0x461BCD PUSH1 0xE5 SHL DUP2 MSTORE PUSH1 0x20 PUSH1 0x4 DUP3 ADD MSTORE PUSH1 0x12 PUSH1 0x24 DUP3 ADD MSTORE PUSH18 0x45786365656473206D617820737570706C79 PUSH1 0x70 SHL PUSH1 0x44 DUP3 ADD MSTORE PUSH1 0x64 SWAP1 REVERT JUMPDEST SWAP1 PUSH2 0x3E8 SWAP2 DUP3 DUP2 MUL SWAP3 DUP2 DUP5 DIV EQ SWAP1 ISZERO OR ISZERO PUSH2 0x1FAA JUMPI JUMP JUMPDEST DUP2 DUP2 MUL SWAP3 SWAP2 DUP2 ISZERO SWAP2 DUP5 DIV EQ OR ISZERO PUSH2 0x1FAA JUMPI JUMP JUMPDEST ISZERO PUSH2 0x246B JUMPI JUMP JUMPDEST PUSH1 0x40 MLOAD PUSH3 0x461BCD PUSH1 0xE5 SHL DUP2 MSTORE PUSH1 0x20 PUSH1 0x4 DUP3 ADD MSTORE PUSH1 0x14 PUSH1 0x24 DUP3 ADD MSTORE PUSH20 0x125B9CDD59999A58DA595B9D081C185E5B595B9D PUSH1 0x62 SHL PUSH1 0x44 DUP3 ADD MSTORE PUSH1 0x64 SWAP1 REVERT JUMPDEST SWAP2 SWAP1 DUP3 SUB SWAP2 DUP3 GT PUSH2 0x1FAA JUMPI JUMP JUMPDEST PUSH1 0x40 MLOAD SWAP1 PUSH1 0x20 DUP3 ADD DUP3 DUP2 LT PUSH1 0x1 PUSH1 0x1 PUSH1 0x40 SHL SUB DUP3 GT OR PUSH2 0x3D9 JUMPI PUSH1 0x40 MSTORE PUSH1 0x0 DUP3 MSTORE JUMP JUMPDEST PUSH1 0x40 MLOAD RETURNDATASIZE PUSH1 0x0 DUP3 RETURNDATACOPY RETURNDATASIZE SWAP1 REVERT JUMPDEST SWAP2 PUSH2 0x250C SWAP1 PUSH2 0x24FE PUSH2 0x6D2 SWAP6 SWAP4 PUSH1 0x60 DUP7 MSTORE PUSH1 0x60 DUP7 ADD SWAP1 PUSH2 0x681 JUMP JUMPDEST SWAP1 DUP5 DUP3 SUB PUSH1 0x20 DUP7 ADD MSTORE PUSH2 0x681 JUMP JUMPDEST SWAP2 PUSH1 0x40 DUP2 DUP5 SUB SWAP2 ADD MSTORE PUSH2 0x681 JUMP JUMPDEST PUSH1 0x5 SLOAD PUSH1 0x1 PUSH1 0x1 PUSH1 0xA0 SHL SUB AND CALLER SUB PUSH2 0x252E JUMPI JUMP JUMPDEST PUSH1 0x40 MLOAD PUSH4 0x118CDAA7 PUSH1 0xE0 SHL DUP2 MSTORE CALLER PUSH1 0x4 DUP3 ADD MSTORE PUSH1 0x24 SWAP1 REVERT JUMPDEST PUSH1 0xFF PUSH1 0x7 SLOAD AND PUSH2 0x2552 JUMPI JUMP JUMPDEST PUSH1 0x40 MLOAD PUSH4 0xD93C0665 PUSH1 0xE0 SHL DUP2 MSTORE PUSH1 0x4 SWAP1 REVERT JUMPDEST PUSH1 0x2 PUSH1 0x6 SLOAD EQ PUSH2 0x2575 JUMPI PUSH1 0x2 PUSH1 0x6 SSTORE JUMP JUMPDEST PUSH1 0x40 MLOAD PUSH4 0x3EE5AEB5 PUSH1 0xE0 SHL DUP2 MSTORE PUSH1 0x4 SWAP1 REVERT JUMPDEST SWAP4 SWAP2 PUSH1 0x1 PUSH1 0x1 PUSH1 0xA0 SHL SUB DUP6 AND ISZERO PUSH2 0x1BD9 JUMPI PUSH2 0x25BF PUSH1 0x40 MLOAD SWAP3 PUSH1 0x1 DUP5 MSTORE PUSH1 0x20 DUP5 ADD MSTORE PUSH1 0x40 DUP4 ADD SWAP2 PUSH1 0x1 DUP4 MSTORE PUSH1 0x60 DUP5 ADD MSTORE PUSH1 0x80 DUP4 ADD PUSH1 0x40 MSTORE JUMP JUMPDEST SWAP1 SWAP2 PUSH2 0x25CC DUP3 DUP5 DUP8 PUSH2 0x2AE1 JUMP JUMPDEST PUSH1 0x0 SWAP5 DUP6 JUMPDEST DUP5 MLOAD DUP8 LT ISZERO PUSH2 0x261F JUMPI PUSH2 0x2617 PUSH1 0x1 SWAP2 DUP9 PUSH1 0x5 SHL SWAP1 PUSH2 0x2605 PUSH1 0x20 DUP1 DUP5 DUP11 ADD ADD MLOAD SWAP4 DUP11 ADD ADD MLOAD PUSH1 0x0 MSTORE PUSH1 0x3 PUSH1 0x20 MSTORE PUSH1 0x40 PUSH1 0x0 KECCAK256 SWAP1 JUMP JUMPDEST PUSH2 0x2610 DUP4 DUP3 SLOAD PUSH2 0x23EC JUMP JUMPDEST SWAP1 SSTORE PUSH2 0x23EC JUMP JUMPDEST SWAP7 ADD SWAP6 PUSH2 0x25D1 JUMP JUMPDEST PUSH2 0x2639 SWAP2 SWAP6 SWAP5 SWAP3 SWAP7 POP PUSH2 0x2634 SWAP1 PUSH1 0x4 SLOAD PUSH2 0x23EC JUMP JUMPDEST PUSH1 0x4 SSTORE JUMP JUMPDEST DUP1 MLOAD PUSH1 0x1 SUB PUSH2 0x2657 JUMPI SWAP1 PUSH1 0x20 DUP1 PUSH2 0x61E SWAP6 SWAP4 ADD MLOAD SWAP2 ADD MLOAD SWAP2 CALLER PUSH2 0x2A50 JUMP JUMPDEST PUSH2 0x61E SWAP4 CALLER PUSH2 0x2856 JUMP JUMPDEST SWAP2 SWAP4 SWAP3 SWAP1 PUSH2 0x2671 DUP3 DUP7 DUP4 DUP7 PUSH2 0x2C13 JUMP JUMPDEST PUSH1 0x1 PUSH1 0x1 PUSH1 0xA0 SHL SUB DUP4 DUP2 AND ISZERO PUSH2 0x2730 JUMPI JUMPDEST DUP2 AND ISZERO DUP1 PUSH2 0x26CF JUMPI JUMPDEST ISZERO PUSH2 0x2698 JUMPI JUMPDEST POP POP POP POP POP JUMP JUMPDEST DUP5 MLOAD PUSH1 0x1 SUB PUSH2 0x26BE JUMPI PUSH1 0x20 DUP1 PUSH2 0x26B4 SWAP7 ADD MLOAD SWAP3 ADD MLOAD SWAP3 CALLER PUSH2 0x2A85 JUMP JUMPDEST CODESIZE DUP1 DUP1 DUP1 DUP1 PUSH2 0x2691 JUMP JUMPDEST PUSH2 0x26CA SWAP5 SWAP2 SWAP3 CALLER PUSH2 0x2951 JUMP JUMPDEST PUSH2 0x26B4 JUMP JUMPDEST SWAP5 SWAP4 PUSH1 0x0 SWAP4 SWAP1 SWAP2 DUP5 JUMPDEST DUP7 MLOAD DUP7 LT ISZERO PUSH2 0x2718 JUMPI PUSH1 0x1 SWAP1 DUP7 PUSH1 0x5 SHL SWAP1 PUSH2 0x2709 PUSH1 0x20 DUP1 DUP5 DUP11 ADD ADD MLOAD SWAP4 DUP12 ADD ADD MLOAD PUSH1 0x0 MSTORE PUSH1 0x3 PUSH1 0x20 MSTORE PUSH1 0x40 PUSH1 0x0 KECCAK256 SWAP1 JUMP JUMPDEST DUP3 DUP2 SLOAD SUB SWAP1 SSTORE ADD SWAP6 ADD SWAP5 PUSH2 0x26D8 JUMP JUMPDEST PUSH2 0x272B SWAP2 SWAP4 SWAP7 SWAP8 SWAP3 SWAP6 POP PUSH1 0x4 SLOAD SUB PUSH1 0x4 SSTORE JUMP JUMPDEST PUSH2 0x268B JUMP JUMPDEST SWAP6 SWAP2 SWAP3 PUSH1 0x0 SWAP5 SWAP2 PUSH1 0x0 SWAP6 JUMPDEST DUP8 MLOAD DUP8 LT ISZERO PUSH2 0x2777 JUMPI PUSH2 0x276F PUSH1 0x1 SWAP2 DUP9 PUSH1 0x5 SHL SWAP1 PUSH2 0x2605 PUSH1 0x20 DUP1 DUP5 DUP13 ADD ADD MLOAD SWAP4 DUP14 ADD ADD MLOAD PUSH1 0x0 MSTORE PUSH1 0x3 PUSH1 0x20 MSTORE PUSH1 0x40 PUSH1 0x0 KECCAK256 SWAP1 JUMP JUMPDEST SWAP7 ADD SWAP6 PUSH2 0x273B JUMP JUMPDEST PUSH2 0x278F SWAP2 SWAP4 SWAP7 POP PUSH2 0x2634 SWAP1 SWAP9 SWAP3 SWAP6 SWAP5 SWAP9 PUSH1 0x4 SLOAD PUSH2 0x23EC JUMP JUMPDEST PUSH2 0x2682 JUMP JUMPDEST SWAP1 DUP2 PUSH1 0x20 SWAP2 SUB SLT PUSH2 0x2AC JUMPI MLOAD PUSH2 0x6D2 DUP2 PUSH2 0x328 JUMP JUMPDEST SWAP3 PUSH2 0x27D8 PUSH2 0x6D2 SWAP6 SWAP4 PUSH2 0x27E6 SWAP4 PUSH1 0x1 DUP1 PUSH1 0xA0 SHL SUB AND DUP7 MSTORE PUSH1 0x0 PUSH1 0x20 DUP8 ADD MSTORE PUSH1 0xA0 PUSH1 0x40 DUP8 ADD MSTORE PUSH1 0xA0 DUP7 ADD SWAP1 PUSH2 0xF63 JUMP JUMPDEST SWAP1 DUP5 DUP3 SUB PUSH1 0x60 DUP7 ADD MSTORE PUSH2 0xF63 JUMP JUMPDEST SWAP2 PUSH1 0x80 DUP2 DUP5 SUB SWAP2 ADD MSTORE PUSH2 0x681 JUMP JUMPDEST SWAP4 SWAP1 PUSH2 0x6D2 SWAP6 SWAP4 PUSH2 0x27D8 SWAP2 PUSH2 0x27E6 SWAP5 PUSH1 0x1 DUP1 PUSH1 0xA0 SHL SUB DUP1 SWAP3 AND DUP9 MSTORE AND PUSH1 0x20 DUP8 ADD MSTORE PUSH1 0xA0 PUSH1 0x40 DUP8 ADD MSTORE PUSH1 0xA0 DUP7 ADD SWAP1 PUSH2 0xF63 JUMP JUMPDEST RETURNDATASIZE ISZERO PUSH2 0x2851 JUMPI RETURNDATASIZE SWAP1 PUSH2 0x2837 DUP3 PUSH2 0x41F JUMP JUMPDEST SWAP2 PUSH2 0x2845 PUSH1 0x40 MLOAD SWAP4 DUP5 PUSH2 0x3DE JUMP JUMPDEST DUP3 MSTORE RETURNDATASIZE PUSH1 0x0 PUSH1 0x20 DUP5 ADD RETURNDATACOPY JUMP JUMPDEST PUSH1 0x60 SWAP1 JUMP JUMPDEST SWAP3 SWAP4 SWAP2 SWAP1 SWAP4 DUP5 EXTCODESIZE PUSH2 0x2868 JUMPI POP POP POP POP POP JUMP JUMPDEST PUSH1 0x20 SWAP2 PUSH2 0x288B PUSH1 0x40 MLOAD SWAP5 DUP6 SWAP4 DUP5 SWAP4 PUSH4 0xBC197C81 PUSH1 0xE0 SHL SWAP9 DUP10 DUP7 MSTORE PUSH1 0x4 DUP7 ADD PUSH2 0x27A9 JUMP JUMPDEST SUB DUP2 PUSH1 0x0 PUSH1 0x1 PUSH1 0x1 PUSH1 0xA0 SHL SUB DUP9 AND GAS CALL PUSH1 0x0 SWAP2 DUP2 PUSH2 0x2920 JUMPI JUMPDEST POP PUSH2 0x28E3 JUMPI DUP3 PUSH2 0x28B2 PUSH2 0x2826 JUMP JUMPDEST DUP1 MLOAD SWAP2 SWAP1 DUP3 PUSH2 0x28DC JUMPI PUSH1 0x40 MLOAD PUSH4 0x2BFA23E7 PUSH1 0xE1 SHL DUP2 MSTORE PUSH1 0x1 PUSH1 0x1 PUSH1 0xA0 SHL SUB DUP4 AND PUSH1 0x4 DUP3 ADD MSTORE PUSH1 0x24 SWAP1 REVERT JUMPDEST SWAP1 POP PUSH1 0x20 ADD REVERT JUMPDEST PUSH1 0x1 PUSH1 0x1 PUSH1 0xE0 SHL SUB NOT AND SUB PUSH2 0x28FD JUMPI POP CODESIZE DUP1 DUP1 DUP1 DUP1 PUSH2 0x2691 JUMP JUMPDEST PUSH1 0x40 MLOAD PUSH4 0x2BFA23E7 PUSH1 0xE1 SHL DUP2 MSTORE PUSH1 0x1 PUSH1 0x1 PUSH1 0xA0 SHL SUB SWAP2 SWAP1 SWAP2 AND PUSH1 0x4 DUP3 ADD MSTORE PUSH1 0x24 SWAP1 REVERT JUMPDEST PUSH2 0x2943 SWAP2 SWAP3 POP PUSH1 0x20 RETURNDATASIZE PUSH1 0x20 GT PUSH2 0x294A JUMPI JUMPDEST PUSH2 0x293B DUP2 DUP4 PUSH2 0x3DE JUMP JUMPDEST DUP2 ADD SWAP1 PUSH2 0x2794 JUMP JUMPDEST SWAP1 CODESIZE PUSH2 0x28A4 JUMP JUMPDEST POP RETURNDATASIZE PUSH2 0x2931 JUMP JUMPDEST SWAP4 SWAP3 SWAP1 SWAP5 SWAP2 SWAP5 DUP6 EXTCODESIZE PUSH2 0x2966 JUMPI JUMPDEST POP POP POP POP POP POP JUMP JUMPDEST PUSH2 0x2989 PUSH1 0x20 SWAP4 PUSH1 0x40 MLOAD SWAP6 DUP7 SWAP5 DUP6 SWAP5 PUSH4 0xBC197C81 PUSH1 0xE0 SHL SWAP10 DUP11 DUP8 MSTORE PUSH1 0x4 DUP8 ADD PUSH2 0x27F4 JUMP JUMPDEST SUB DUP2 PUSH1 0x0 PUSH1 0x1 PUSH1 0x1 PUSH1 0xA0 SHL SUB DUP9 AND GAS CALL PUSH1 0x0 SWAP2 DUP2 PUSH2 0x29CB JUMPI JUMPDEST POP PUSH2 0x29B0 JUMPI DUP3 PUSH2 0x28B2 PUSH2 0x2826 JUMP JUMPDEST PUSH1 0x1 PUSH1 0x1 PUSH1 0xE0 SHL SUB NOT AND SUB PUSH2 0x28FD JUMPI POP CODESIZE DUP1 DUP1 DUP1 DUP1 DUP1 PUSH2 0x295E JUMP JUMPDEST PUSH2 0x29E5 SWAP2 SWAP3 POP PUSH1 0x20 RETURNDATASIZE PUSH1 0x20 GT PUSH2 0x294A JUMPI PUSH2 0x293B DUP2 DUP4 PUSH2 0x3DE JUMP JUMPDEST SWAP1 CODESIZE PUSH2 0x29A2 JUMP JUMPDEST SWAP1 SWAP3 PUSH1 0xA0 SWAP3 PUSH2 0x6D2 SWAP6 SWAP5 PUSH1 0x1 DUP1 DUP7 SHL SUB AND DUP4 MSTORE PUSH1 0x0 PUSH1 0x20 DUP5 ADD MSTORE PUSH1 0x40 DUP4 ADD MSTORE PUSH1 0x60 DUP3 ADD MSTORE DUP2 PUSH1 0x80 DUP3 ADD MSTORE ADD SWAP1 PUSH2 0x681 JUMP JUMPDEST SWAP2 SWAP3 PUSH2 0x6D2 SWAP6 SWAP5 SWAP2 PUSH1 0xA0 SWAP5 PUSH1 0x1 DUP1 DUP8 SHL SUB DUP1 SWAP3 AND DUP6 MSTORE AND PUSH1 0x20 DUP5 ADD MSTORE PUSH1 0x40 DUP4 ADD MSTORE PUSH1 0x60 DUP3 ADD MSTORE DUP2 PUSH1 0x80 DUP3 ADD MSTORE ADD SWAP1 PUSH2 0x681 JUMP JUMPDEST SWAP3 SWAP4 SWAP2 SWAP1 SWAP4 DUP5 EXTCODESIZE PUSH2 0x2A62 JUMPI POP POP POP POP POP JUMP JUMPDEST PUSH1 0x20 SWAP2 PUSH2 0x288B PUSH1 0x40 MLOAD SWAP5 DUP6 SWAP4 DUP5 SWAP4 PUSH4 0xF23A6E61 PUSH1 0xE0 SHL SWAP9 DUP10 DUP7 MSTORE PUSH1 0x4 DUP7 ADD PUSH2 0x29EC JUMP JUMPDEST SWAP4 SWAP3 SWAP1 SWAP5 SWAP2 SWAP5 DUP6 EXTCODESIZE PUSH2 0x2A99 JUMPI POP POP POP POP POP POP JUMP JUMPDEST PUSH2 0x2989 PUSH1 0x20 SWAP4 PUSH1 0x40 MLOAD SWAP6 DUP7 SWAP5 DUP6 SWAP5 PUSH4 0xF23A6E61 PUSH1 0xE0 SHL SWAP10 DUP11 DUP8 MSTORE PUSH1 0x4 DUP8 ADD PUSH2 0x2A1D JUMP JUMPDEST SWAP1 SWAP2 PUSH2 0x2AD3 PUSH2 0x6D2 SWAP4 PUSH1 0x40 DUP5 MSTORE PUSH1 0x40 DUP5 ADD SWAP1 PUSH2 0xF63 JUMP JUMPDEST SWAP2 PUSH1 0x20 DUP2 DUP5 SUB SWAP2 ADD MSTORE PUSH2 0xF63 JUMP JUMPDEST SWAP2 SWAP1 SWAP2 DUP3 MLOAD DUP3 MLOAD SWAP1 DUP2 DUP2 SUB PUSH2 0x22FD JUMPI POP POP PUSH1 0x0 JUMPDEST DUP4 MLOAD DUP2 LT ISZERO PUSH2 0x2B73 JUMPI PUSH1 0x5 DUP2 SWAP1 SHL DUP5 DUP2 ADD PUSH1 0x20 SWAP1 DUP2 ADD MLOAD SWAP2 DUP6 ADD ADD MLOAD PUSH1 0x1 SWAP3 SWAP2 DUP5 SWAP1 PUSH1 0x1 PUSH1 0x1 PUSH1 0xA0 SHL SUB DUP3 AND PUSH2 0x2B2F JUMPI JUMPDEST POP POP POP ADD PUSH2 0x2AF5 JUMP JUMPDEST PUSH2 0x2B69 SWAP2 PUSH2 0x2B4A PUSH2 0x2B61 SWAP3 PUSH1 0x0 MSTORE PUSH1 0x0 PUSH1 0x20 MSTORE PUSH1 0x40 PUSH1 0x0 KECCAK256 SWAP1 JUMP JUMPDEST SWAP1 PUSH1 0x1 DUP1 PUSH1 0xA0 SHL SUB AND PUSH1 0x0 MSTORE PUSH1 0x20 MSTORE PUSH1 0x40 PUSH1 0x0 KECCAK256 SWAP1 JUMP JUMPDEST SWAP2 DUP3 SLOAD PUSH2 0x23EC JUMP JUMPDEST SWAP1 SSTORE CODESIZE DUP4 DUP2 PUSH2 0x2B26 JUMP JUMPDEST POP SWAP2 PUSH1 0x1 DUP2 MLOAD EQ PUSH1 0x0 EQ PUSH2 0x2BD4 JUMPI PUSH1 0x20 SWAP1 DUP2 ADD MLOAD SWAP2 DUP2 ADD MLOAD PUSH1 0x40 DUP1 MLOAD SWAP4 DUP5 MSTORE SWAP2 DUP4 ADD MSTORE PUSH1 0x1 PUSH1 0x1 PUSH1 0xA0 SHL SUB SWAP1 SWAP3 AND SWAP2 PUSH1 0x0 SWAP2 CALLER SWAP2 PUSH32 0xC3D58168C5AE7397731D063D5BBF3D657854427343F4C083240F7AACAA2D0F62 SWAP2 SWAP1 DUP2 SWAP1 DUP2 ADD JUMPDEST SUB SWAP1 LOG4 JUMP JUMPDEST PUSH32 0x4A39DC06D4C0DBC64B70AF90FD698A233A518AA5D07E595D983B8C0526C8F7FB PUSH2 0x2BCF PUSH1 0x0 SWAP4 SWAP5 PUSH1 0x40 MLOAD SWAP2 DUP3 SWAP2 PUSH1 0x1 DUP1 PUSH1 0xA0 SHL SUB AND SWAP7 CALLER SWAP6 DUP4 PUSH2 0x2ABC JUMP JUMPDEST SWAP4 SWAP3 SWAP2 DUP1 MLOAD DUP4 MLOAD SWAP1 DUP2 DUP2 SUB PUSH2 0x22FD JUMPI POP POP PUSH1 0x0 JUMPDEST DUP2 MLOAD DUP2 LT ISZERO PUSH2 0x2D15 JUMPI PUSH1 0x5 DUP2 SWAP1 SHL DUP3 DUP2 ADD PUSH1 0x20 SWAP1 DUP2 ADD MLOAD SWAP2 DUP7 ADD ADD MLOAD PUSH1 0x1 PUSH1 0x1 PUSH1 0xA0 SHL SUB SWAP3 SWAP2 DUP6 SWAP1 DUP10 DUP6 AND PUSH2 0x2C8F JUMPI JUMPDEST PUSH1 0x1 SWAP5 DUP3 AND PUSH2 0x2C6A JUMPI JUMPDEST POP POP POP ADD PUSH2 0x2C27 JUMP JUMPDEST PUSH2 0x2C85 SWAP2 PUSH2 0x2B4A PUSH2 0x2B61 SWAP3 PUSH1 0x0 MSTORE PUSH1 0x0 PUSH1 0x20 MSTORE PUSH1 0x40 PUSH1 0x0 KECCAK256 SWAP1 JUMP JUMPDEST SWAP1 SSTORE CODESIZE DUP5 DUP2 PUSH2 0x2C61 JUMP JUMPDEST SWAP2 SWAP3 SWAP4 SWAP1 POP PUSH2 0x2CAC DUP10 PUSH2 0x2B4A DUP5 PUSH1 0x0 MSTORE PUSH1 0x0 PUSH1 0x20 MSTORE PUSH1 0x40 PUSH1 0x0 KECCAK256 SWAP1 JUMP JUMPDEST SLOAD DUP4 DUP2 LT PUSH2 0x2CDE JUMPI SWAP2 DUP7 SWAP2 DUP5 PUSH1 0x1 SWAP7 SWAP6 SWAP5 SUB PUSH2 0x2CD6 DUP13 PUSH2 0x2B4A DUP6 PUSH1 0x0 MSTORE PUSH1 0x0 PUSH1 0x20 MSTORE PUSH1 0x40 PUSH1 0x0 KECCAK256 SWAP1 JUMP JUMPDEST SSTORE SWAP5 POP PUSH2 0x2C57 JUMP JUMPDEST PUSH1 0x40 MLOAD PUSH4 0x3DEE4C5 PUSH1 0xE0 SHL DUP2 MSTORE PUSH1 0x1 PUSH1 0x1 PUSH1 0xA0 SHL SUB DUP12 AND PUSH1 0x4 DUP3 ADD MSTORE PUSH1 0x24 DUP2 ADD SWAP2 SWAP1 SWAP2 MSTORE PUSH1 0x44 DUP2 ADD DUP5 SWAP1 MSTORE PUSH1 0x64 DUP2 ADD DUP4 SWAP1 MSTORE PUSH1 0x84 SWAP1 REVERT JUMPDEST POP DUP1 MLOAD SWAP4 SWAP5 SWAP4 SWAP2 SWAP3 SWAP2 PUSH1 0x1 SUB PUSH2 0x2D77 JUMPI PUSH1 0x20 SWAP1 DUP2 ADD MLOAD SWAP2 DUP2 ADD MLOAD PUSH1 0x40 DUP1 MLOAD SWAP4 DUP5 MSTORE SWAP2 DUP4 ADD MSTORE PUSH1 0x1 PUSH1 0x1 PUSH1 0xA0 SHL SUB SWAP3 DUP4 AND SWAP4 SWAP1 SWAP3 AND SWAP2 CALLER SWAP2 PUSH32 0xC3D58168C5AE7397731D063D5BBF3D657854427343F4C083240F7AACAA2D0F62 SWAP2 DUP2 SWAP1 DUP2 ADD PUSH2 0x2BCF JUMP JUMPDEST PUSH1 0x40 MLOAD PUSH1 0x1 PUSH1 0x1 PUSH1 0xA0 SHL SUB SWAP4 DUP5 AND SWAP5 SWAP1 SWAP4 AND SWAP3 CALLER SWAP3 PUSH32 0x4A39DC06D4C0DBC64B70AF90FD698A233A518AA5D07E595D983B8C0526C8F7FB SWAP3 DUP3 SWAP2 PUSH2 0x2BCF SWAP2 DUP4 PUSH2 0x2ABC JUMP INVALID LOG2 PUSH5 0x6970667358 0x22 SLT KECCAK256 0x23 0x25 PUSH3 0xCBB808 0xD PUSH16 0xBB95D7101B551DB333040A68C5D959BA PUSH7 0x5E3F3AA87125B5 PUSH5 0x736F6C6343 STOP ADDMOD XOR STOP CALLER "},"methodIdentifiers":{"ARTIST_ROYALTY_PERCENTAGE()":"4cf4bb06","MAX_PLATFORM_FEE()":"3998a681","artistProfiles(address)":"171212d5","artistTokens(address,uint256)":"92a05fe7","artworks(uint256)":"4b602673","balanceOf(address,uint256)":"00fdd58e","balanceOfBatch(address[],uint256[])":"4e1273f4","collectorTokens(address,uint256)":"5024fd8c","exists(uint256)":"4f558e79","getArtistProfile(address)":"b3b30640","getArtistTokens(address)":"cc0ad6e7","getArtwork(uint256)":"167ddf6e","getCollectorTokens(address)":"e0f8b313","getCurrentTokenId()":"56189236","isApprovedForAll(address,address)":"e985e9c5","mintArtwork(string,string,string,uint256,uint256)":"20903b3f","name()":"06fdde03","owner()":"8da5cb5b","pause()":"8456cb59","paused()":"5c975abb","platformFeePercentage()":"cdd78cfc","purchaseArtwork(uint256,uint256)":"552906ce","renounceOwnership()":"715018a6","safeBatchTransferFrom(address,address,uint256[],uint256[],bytes)":"2eb2c2d6","safeTransferFrom(address,address,uint256,uint256,bytes)":"f242432a","setApprovalForAll(address,bool)":"a22cb465","setPlatformFee(uint256)":"12e8e2c3","setURI(string)":"02fe5305","supportsInterface(bytes4)":"01ffc9a7","symbol()":"95d89b41","toggleArtworkStatus(uint256)":"5b42a8fe","tokenToArtist(uint256)":"35c2aab9","totalSupply()":"18160ddd","totalSupply(uint256)":"bd85b039","transferOwnership(address)":"f2fde38b","unpause()":"3f4ba83a","updateArtistProfile(string,string,string)":"b23cd1a6","updateArtworkPrice(uint256,uint256)":"5001257e","uri(uint256)":"0e89341c","withdrawPlatformFees()":"d0b7830b"}}}}}