{"contracts/Permalink.sol":{"Permalink":{"abi":[{"inputs":[{"internalType":"address","name":"initialOwner","type":"address"},{"internalType":"address","name":"_treasuryAddress","type":"address"}],"stateMutability":"nonpayable","type":"constructor"},{"inputs":[{"internalType":"address","name":"sender","type":"address"},{"internalType":"uint256","name":"balance","type":"uint256"},{"internalType":"uint256","name":"needed","type":"uint256"},{"internalType":"uint256","name":"tokenId","type":"uint256"}],"name":"ERC1155InsufficientBalance","type":"error"},{"inputs":[{"internalType":"address","name":"approver","type":"address"}],"name":"ERC1155InvalidApprover","type":"error"},{"inputs":[{"internalType":"uint256","name":"idsLength","type":"uint256"},{"internalType":"uint256","name":"valuesLength","type":"uint256"}],"name":"ERC1155InvalidArrayLength","type":"error"},{"inputs":[{"internalType":"address","name":"operator","type":"address"}],"name":"ERC1155InvalidOperator","type":"error"},{"inputs":[{"internalType":"address","name":"receiver","type":"address"}],"name":"ERC1155InvalidReceiver","type":"error"},{"inputs":[{"internalType":"address","name":"sender","type":"address"}],"name":"ERC1155InvalidSender","type":"error"},{"inputs":[{"internalType":"address","name":"operator","type":"address"},{"internalType":"address","name":"owner","type":"address"}],"name":"ERC1155MissingApprovalForAll","type":"error"},{"inputs":[],"name":"EnforcedPause","type":"error"},{"inputs":[],"name":"ExpectedPause","type":"error"},{"inputs":[{"internalType":"address","name":"owner","type":"address"}],"name":"OwnableInvalidOwner","type":"error"},{"inputs":[{"internalType":"address","name":"account","type":"address"}],"name":"OwnableUnauthorizedAccount","type":"error"},{"inputs":[],"name":"ReentrancyGuardReentrantCall","type":"error"},{"anonymous":false,"inputs":[{"indexed":true,"internalType":"address","name":"addr","type":"address"}],"name":"AddressRegisteredInterest","type":"event"},{"anonymous":false,"inputs":[{"indexed":true,"internalType":"address","name":"addr","type":"address"}],"name":"AddressRemovedFromWhitelist","type":"event"},{"anonymous":false,"inputs":[{"indexed":true,"internalType":"address","name":"addr","type":"address"}],"name":"AddressWhitelisted","type":"event"},{"anonymous":false,"inputs":[{"indexed":true,"internalType":"address","name":"admin","type":"address"},{"indexed":true,"internalType":"address","name":"addedBy","type":"address"}],"name":"AdminAdded","type":"event"},{"anonymous":false,"inputs":[{"indexed":true,"internalType":"address","name":"admin","type":"address"},{"indexed":true,"internalType":"address","name":"removedBy","type":"address"}],"name":"AdminRemoved","type":"event"},{"anonymous":false,"inputs":[{"indexed":true,"internalType":"address","name":"account","type":"address"},{"indexed":true,"internalType":"address","name":"operator","type":"address"},{"indexed":false,"internalType":"bool","name":"approved","type":"bool"}],"name":"ApprovalForAll","type":"event"},{"anonymous":false,"inputs":[{"indexed":true,"internalType":"address","name":"artist","type":"address"},{"indexed":false,"internalType":"string","name":"name","type":"string"},{"indexed":false,"internalType":"string","name":"bio","type":"string"},{"indexed":false,"internalType":"string","name":"avatarURI","type":"string"}],"name":"ArtistProfileUpdated","type":"event"},{"anonymous":false,"inputs":[{"indexed":true,"internalType":"uint256","name":"tokenId","type":"uint256"},{"indexed":true,"internalType":"address","name":"artist","type":"address"},{"indexed":false,"internalType":"string","name":"title","type":"string"},{"indexed":false,"internalType":"uint256","name":"price","type":"uint256"},{"indexed":false,"internalType":"uint256","name":"maxSupply","type":"uint256"},{"indexed":false,"internalType":"uint256","name":"imageSize","type":"uint256"}],"name":"ArtworkMinted","type":"event"},{"anonymous":false,"inputs":[{"indexed":true,"internalType":"uint256","name":"tokenId","type":"uint256"},{"indexed":true,"internalType":"address","name":"buyer","type":"address"},{"indexed":true,"internalType":"address","name":"artist","type":"address"},{"indexed":false,"internalType":"uint256","name":"amount","type":"uint256"},{"indexed":false,"internalType":"uint256","name":"price","type":"uint256"}],"name":"ArtworkPurchased","type":"event"},{"anonymous":false,"inputs":[{"indexed":true,"internalType":"address","name":"previousOwner","type":"address"},{"indexed":true,"internalType":"address","name":"newOwner","type":"address"}],"name":"OwnershipTransferred","type":"event"},{"anonymous":false,"inputs":[{"indexed":false,"internalType":"address","name":"account","type":"address"}],"name":"Paused","type":"event"},{"anonymous":false,"inputs":[{"indexed":false,"internalType":"uint256","name":"oldFee","type":"uint256"},{"indexed":false,"internalType":"uint256","name":"newFee","type":"uint256"}],"name":"PlatformFeeUpdated","type":"event"},{"anonymous":false,"inputs":[{"indexed":true,"internalType":"address","name":"operator","type":"address"},{"indexed":true,"internalType":"address","name":"from","type":"address"},{"indexed":true,"internalType":"address","name":"to","type":"address"},{"indexed":false,"internalType":"uint256[]","name":"ids","type":"uint256[]"},{"indexed":false,"internalType":"uint256[]","name":"values","type":"uint256[]"}],"name":"TransferBatch","type":"event"},{"anonymous":false,"inputs":[{"indexed":true,"internalType":"address","name":"operator","type":"address"},{"indexed":true,"internalType":"address","name":"from","type":"address"},{"indexed":true,"internalType":"address","name":"to","type":"address"},{"indexed":false,"internalType":"uint256","name":"id","type":"uint256"},{"indexed":false,"internalType":"uint256","name":"value","type":"uint256"}],"name":"TransferSingle","type":"event"},{"anonymous":false,"inputs":[{"indexed":false,"internalType":"string","name":"value","type":"string"},{"indexed":true,"internalType":"uint256","name":"id","type":"uint256"}],"name":"URI","type":"event"},{"anonymous":false,"inputs":[{"indexed":false,"internalType":"address","name":"account","type":"address"}],"name":"Unpaused","type":"event"},{"anonymous":false,"inputs":[{"indexed":false,"internalType":"bool","name":"enabled","type":"bool"},{"indexed":true,"internalType":"address","name":"toggledBy","type":"address"}],"name":"WhitelistToggled","type":"event"},{"inputs":[],"name":"MAX_PLATFORM_FEE","outputs":[{"internalType":"uint256","name":"","type":"uint256"}],"stateMutability":"view","type":"function"},{"inputs":[{"internalType":"address","name":"addr","type":"address"}],"name":"addAdmin","outputs":[],"stateMutability":"nonpayable","type":"function"},{"inputs":[{"internalType":"uint256","name":"","type":"uint256"}],"name":"adminAddressList","outputs":[{"internalType":"address","name":"","type":"address"}],"stateMutability":"view","type":"function"},{"inputs":[{"internalType":"address","name":"","type":"address"}],"name":"adminAddresses","outputs":[{"internalType":"bool","name":"","type":"bool"}],"stateMutability":"view","type":"function"},{"inputs":[{"internalType":"address[]","name":"addresses","type":"address[]"}],"name":"approveAddresses","outputs":[],"stateMutability":"nonpayable","type":"function"},{"inputs":[{"internalType":"address","name":"","type":"address"}],"name":"artistProfiles","outputs":[{"internalType":"string","name":"name","type":"string"},{"internalType":"string","name":"bio","type":"string"},{"internalType":"string","name":"avatarURI","type":"string"},{"internalType":"uint256","name":"totalCreated","type":"uint256"},{"internalType":"uint256","name":"totalCollected","type":"uint256"},{"internalType":"bool","name":"isRegistered","type":"bool"}],"stateMutability":"view","type":"function"},{"inputs":[{"internalType":"address","name":"","type":"address"},{"internalType":"uint256","name":"","type":"uint256"}],"name":"artistTokens","outputs":[{"internalType":"uint256","name":"","type":"uint256"}],"stateMutability":"view","type":"function"},{"inputs":[{"internalType":"uint256","name":"","type":"uint256"}],"name":"artworks","outputs":[{"internalType":"uint256","name":"tokenId","type":"uint256"},{"internalType":"address","name":"artist","type":"address"},{"internalType":"string","name":"title","type":"string"},{"internalType":"string","name":"description","type":"string"},{"internalType":"bytes","name":"imageData","type":"bytes"},{"internalType":"string","name":"imageType","type":"string"},{"internalType":"uint256","name":"price","type":"uint256"},{"internalType":"uint256","name":"maxSupply","type":"uint256"},{"internalType":"uint256","name":"currentSupply","type":"uint256"},{"internalType":"bool","name":"isActive","type":"bool"},{"internalType":"uint256","name":"createdAt","type":"uint256"}],"stateMutability":"view","type":"function"},{"inputs":[{"internalType":"address","name":"account","type":"address"},{"internalType":"uint256","name":"id","type":"uint256"}],"name":"balanceOf","outputs":[{"internalType":"uint256","name":"","type":"uint256"}],"stateMutability":"view","type":"function"},{"inputs":[{"internalType":"address[]","name":"accounts","type":"address[]"},{"internalType":"uint256[]","name":"ids","type":"uint256[]"}],"name":"balanceOfBatch","outputs":[{"internalType":"uint256[]","name":"","type":"uint256[]"}],"stateMutability":"view","type":"function"},{"inputs":[{"internalType":"address","name":"","type":"address"},{"internalType":"uint256","name":"","type":"uint256"}],"name":"collectorTokens","outputs":[{"internalType":"uint256","name":"","type":"uint256"}],"stateMutability":"view","type":"function"},{"inputs":[{"internalType":"uint256","name":"id","type":"uint256"}],"name":"exists","outputs":[{"internalType":"bool","name":"","type":"bool"}],"stateMutability":"view","type":"function"},{"inputs":[],"name":"getAdminAddresses","outputs":[{"internalType":"address[]","name":"","type":"address[]"}],"stateMutability":"view","type":"function"},{"inputs":[{"internalType":"address","name":"artist","type":"address"}],"name":"getArtistProfile","outputs":[{"internalType":"string","name":"artistName","type":"string"},{"internalType":"string","name":"bio","type":"string"},{"internalType":"string","name":"avatarURI","type":"string"},{"internalType":"uint256","name":"totalCreated","type":"uint256"},{"internalType":"uint256","name":"totalCollected","type":"uint256"},{"internalType":"bool","name":"isRegistered","type":"bool"}],"stateMutability":"view","type":"function"},{"inputs":[{"internalType":"address","name":"artist","type":"address"}],"name":"getArtistTokens","outputs":[{"internalType":"uint256[]","name":"","type":"uint256[]"}],"stateMutability":"view","type":"function"},{"inputs":[{"internalType":"uint256","name":"tokenId","type":"uint256"}],"name":"getArtwork","outputs":[{"internalType":"address","name":"artist","type":"address"},{"internalType":"string","name":"title","type":"string"},{"internalType":"string","name":"description","type":"string"},{"internalType":"string","name":"imageType","type":"string"},{"internalType":"uint256","name":"imageSize","type":"uint256"},{"internalType":"uint256","name":"price","type":"uint256"},{"internalType":"uint256","name":"maxSupply","type":"uint256"},{"internalType":"uint256","name":"currentSupply","type":"uint256"},{"internalType":"bool","name":"isActive","type":"bool"},{"internalType":"uint256","name":"createdAt","type":"uint256"}],"stateMutability":"view","type":"function"},{"inputs":[{"internalType":"uint256","name":"tokenId","type":"uint256"}],"name":"getArtworkImageData","outputs":[{"internalType":"bytes","name":"imageData","type":"bytes"},{"internalType":"string","name":"imageType","type":"string"}],"stateMutability":"view","type":"function"},{"inputs":[{"internalType":"address","name":"collector","type":"address"}],"name":"getCollectorTokens","outputs":[{"internalType":"uint256[]","name":"","type":"uint256[]"}],"stateMutability":"view","type":"function"},{"inputs":[],"name":"getCurrentTokenId","outputs":[{"internalType":"uint256","name":"","type":"uint256"}],"stateMutability":"view","type":"function"},{"inputs":[],"name":"getInterestedAddresses","outputs":[{"internalType":"address[]","name":"","type":"address[]"}],"stateMutability":"view","type":"function"},{"inputs":[{"internalType":"uint256","name":"tokenId","type":"uint256"},{"internalType":"uint256","name":"salePrice","type":"uint256"}],"name":"getSecondaryFees","outputs":[{"internalType":"address","name":"artist","type":"address"},{"internalType":"uint256","name":"artistRoyalty","type":"uint256"},{"internalType":"uint256","name":"platformFee","type":"uint256"},{"internalType":"uint256","name":"totalFees","type":"uint256"}],"stateMutability":"view","type":"function"},{"inputs":[],"name":"getWhitelistedAddresses","outputs":[{"internalType":"address[]","name":"","type":"address[]"}],"stateMutability":"view","type":"function"},{"inputs":[{"internalType":"uint256","name":"","type":"uint256"}],"name":"interestedAddressList","outputs":[{"internalType":"address","name":"","type":"address"}],"stateMutability":"view","type":"function"},{"inputs":[{"internalType":"address","name":"","type":"address"}],"name":"interestedAddresses","outputs":[{"internalType":"bool","name":"","type":"bool"}],"stateMutability":"view","type":"function"},{"inputs":[{"internalType":"address","name":"addr","type":"address"}],"name":"isAdmin","outputs":[{"internalType":"bool","name":"","type":"bool"}],"stateMutability":"view","type":"function"},{"inputs":[{"internalType":"address","name":"account","type":"address"},{"internalType":"address","name":"operator","type":"address"}],"name":"isApprovedForAll","outputs":[{"internalType":"bool","name":"","type":"bool"}],"stateMutability":"view","type":"function"},{"inputs":[{"internalType":"address","name":"addr","type":"address"}],"name":"isInterested","outputs":[{"internalType":"bool","name":"","type":"bool"}],"stateMutability":"view","type":"function"},{"inputs":[],"name":"isWhitelistEnabled","outputs":[{"internalType":"bool","name":"","type":"bool"}],"stateMutability":"view","type":"function"},{"inputs":[{"internalType":"address","name":"addr","type":"address"}],"name":"isWhitelisted","outputs":[{"internalType":"bool","name":"","type":"bool"}],"stateMutability":"view","type":"function"},{"inputs":[{"internalType":"string","name":"_title","type":"string"},{"internalType":"string","name":"_description","type":"string"},{"internalType":"bytes","name":"_imageData","type":"bytes"},{"internalType":"string","name":"_imageType","type":"string"},{"internalType":"uint256","name":"_price","type":"uint256"},{"internalType":"uint256","name":"_maxSupply","type":"uint256"}],"name":"mintArtwork","outputs":[{"internalType":"uint256","name":"","type":"uint256"}],"stateMutability":"nonpayable","type":"function"},{"inputs":[],"name":"name","outputs":[{"internalType":"string","name":"","type":"string"}],"stateMutability":"view","type":"function"},{"inputs":[],"name":"owner","outputs":[{"internalType":"address","name":"","type":"address"}],"stateMutability":"view","type":"function"},{"inputs":[],"name":"pause","outputs":[],"stateMutability":"nonpayable","type":"function"},{"inputs":[],"name":"paused","outputs":[{"internalType":"bool","name":"","type":"bool"}],"stateMutability":"view","type":"function"},{"inputs":[],"name":"platformFeePercentage","outputs":[{"internalType":"uint256","name":"","type":"uint256"}],"stateMutability":"view","type":"function"},{"inputs":[{"internalType":"uint256","name":"tokenId","type":"uint256"},{"internalType":"uint256","name":"amount","type":"uint256"}],"name":"purchaseArtwork","outputs":[],"stateMutability":"payable","type":"function"},{"inputs":[],"name":"registerInterest","outputs":[],"stateMutability":"nonpayable","type":"function"},{"inputs":[{"internalType":"address","name":"addr","type":"address"}],"name":"removeAdmin","outputs":[],"stateMutability":"nonpayable","type":"function"},{"inputs":[{"internalType":"address","name":"addr","type":"address"}],"name":"removeFromWhitelist","outputs":[],"stateMutability":"nonpayable","type":"function"},{"inputs":[],"name":"renounceOwnership","outputs":[],"stateMutability":"nonpayable","type":"function"},{"inputs":[{"internalType":"uint256","name":"tokenId","type":"uint256"},{"internalType":"uint256","name":"salePrice","type":"uint256"}],"name":"royaltyInfo","outputs":[{"internalType":"address","name":"receiver","type":"address"},{"internalType":"uint256","name":"royaltyAmount","type":"uint256"}],"stateMutability":"view","type":"function"},{"inputs":[{"internalType":"address","name":"from","type":"address"},{"internalType":"address","name":"to","type":"address"},{"internalType":"uint256[]","name":"ids","type":"uint256[]"},{"internalType":"uint256[]","name":"values","type":"uint256[]"},{"internalType":"bytes","name":"data","type":"bytes"}],"name":"safeBatchTransferFrom","outputs":[],"stateMutability":"nonpayable","type":"function"},{"inputs":[{"internalType":"address","name":"from","type":"address"},{"internalType":"address","name":"to","type":"address"},{"internalType":"uint256","name":"id","type":"uint256"},{"internalType":"uint256","name":"value","type":"uint256"},{"internalType":"bytes","name":"data","type":"bytes"}],"name":"safeTransferFrom","outputs":[],"stateMutability":"nonpayable","type":"function"},{"inputs":[],"name":"secondaryArtistRoyalty","outputs":[{"internalType":"uint256","name":"","type":"uint256"}],"stateMutability":"view","type":"function"},{"inputs":[],"name":"secondaryPlatformFee","outputs":[{"internalType":"uint256","name":"","type":"uint256"}],"stateMutability":"view","type":"function"},{"inputs":[{"internalType":"address","name":"operator","type":"address"},{"internalType":"bool","name":"approved","type":"bool"}],"name":"setApprovalForAll","outputs":[],"stateMutability":"nonpayable","type":"function"},{"inputs":[{"internalType":"uint256","name":"_platformFeePercentage","type":"uint256"}],"name":"setPlatformFee","outputs":[],"stateMutability":"nonpayable","type":"function"},{"inputs":[{"internalType":"uint256","name":"_platformFee","type":"uint256"},{"internalType":"uint256","name":"_artistRoyalty","type":"uint256"}],"name":"setSecondaryFees","outputs":[],"stateMutability":"nonpayable","type":"function"},{"inputs":[{"internalType":"address","name":"_treasuryAddress","type":"address"}],"name":"setTreasuryAddress","outputs":[],"stateMutability":"nonpayable","type":"function"},{"inputs":[{"internalType":"string","name":"newURI","type":"string"}],"name":"setURI","outputs":[],"stateMutability":"nonpayable","type":"function"},{"inputs":[{"internalType":"bytes4","name":"interfaceId","type":"bytes4"}],"name":"supportsInterface","outputs":[{"internalType":"bool","name":"","type":"bool"}],"stateMutability":"view","type":"function"},{"inputs":[],"name":"symbol","outputs":[{"internalType":"string","name":"","type":"string"}],"stateMutability":"view","type":"function"},{"inputs":[{"internalType":"uint256","name":"tokenId","type":"uint256"}],"name":"toggleArtworkStatus","outputs":[],"stateMutability":"nonpayable","type":"function"},{"inputs":[],"name":"toggleWhitelist","outputs":[],"stateMutability":"nonpayable","type":"function"},{"inputs":[{"internalType":"uint256","name":"","type":"uint256"}],"name":"tokenToArtist","outputs":[{"internalType":"address","name":"","type":"address"}],"stateMutability":"view","type":"function"},{"inputs":[],"name":"totalSupply","outputs":[{"internalType":"uint256","name":"","type":"uint256"}],"stateMutability":"view","type":"function"},{"inputs":[{"internalType":"uint256","name":"id","type":"uint256"}],"name":"totalSupply","outputs":[{"internalType":"uint256","name":"","type":"uint256"}],"stateMutability":"view","type":"function"},{"inputs":[{"internalType":"address","name":"newOwner","type":"address"}],"name":"transferOwnership","outputs":[],"stateMutability":"nonpayable","type":"function"},{"inputs":[],"name":"treasuryAddress","outputs":[{"internalType":"address","name":"","type":"address"}],"stateMutability":"view","type":"function"},{"inputs":[],"name":"unpause","outputs":[],"stateMutability":"nonpayable","type":"function"},{"inputs":[{"internalType":"string","name":"_name","type":"string"},{"internalType":"string","name":"_bio","type":"string"},{"internalType":"string","name":"_avatarURI","type":"string"}],"name":"updateArtistProfile","outputs":[],"stateMutability":"nonpayable","type":"function"},{"inputs":[{"internalType":"uint256","name":"tokenId","type":"uint256"},{"internalType":"uint256","name":"newPrice","type":"uint256"}],"name":"updateArtworkPrice","outputs":[],"stateMutability":"nonpayable","type":"function"},{"inputs":[{"internalType":"uint256","name":"tokenId","type":"uint256"}],"name":"uri","outputs":[{"internalType":"string","name":"","type":"string"}],"stateMutability":"view","type":"function"},{"inputs":[],"name":"whitelistEnabled","outputs":[{"internalType":"bool","name":"","type":"bool"}],"stateMutability":"view","type":"function"},{"inputs":[{"internalType":"uint256","name":"","type":"uint256"}],"name":"whitelistedAddressList","outputs":[{"internalType":"address","name":"","type":"address"}],"stateMutability":"view","type":"function"},{"inputs":[{"internalType":"address","name":"","type":"address"}],"name":"whitelistedAddresses","outputs":[{"internalType":"bool","name":"","type":"bool"}],"stateMutability":"view","type":"function"},{"inputs":[],"name":"withdrawPlatformFees","outputs":[],"stateMutability":"nonpayable","type":"function"}],"evm":{"bytecode":{"linkReferences":{},"object":"608034620003775762005a41906001600160401b0390601f9038849003828101601f191682019084821183831017620003615780839160409788948552833981010312620003775762000052816200037c565b906200006260208092016200037c565b855190828201828110878211176200036157875262000086600092838152620003e7565b6001600160a01b039384169485156200034957600580546001600160a01b03198082168917909255909790879087167f8be0079c531659141344cd1fd0a4f28419497f9722a3daafe3b4186f6b6457e08680a360019586600655620000ed60085462000391565b83811162000328575b507f5065726d616c696e6b0000000000000000000000000000000000000000000012600855600954620001299062000391565b83811162000307575b50600a64504c494e4b60d81b0160095560fa600a5560fa600b556102ee600c5584600e5560ff19938785600f541617600f5516918215620002c557508851906060820190811182821017620002b1578952602c81527f68747470733a2f2f6170692e7065726d616c696e6b2e6172742f6d6574616461858201526b3a3097bdb4b23e973539b7b760a11b89820152620001cb90620003e7565b86600d541617600d55848252601283528682208482825416179055601183528387832091825416179055601554926801000000000000000093848110156200029d57818101806015558110156200028957601583528383200185878254161790556014549384101562000275578301806014558310156200026157601481522001918254161790555161552590816200051c8239f35b634e487b7160e01b81526032600452602490fd5b634e487b7160e01b82526041600452602482fd5b634e487b7160e01b83526032600452602483fd5b634e487b7160e01b83526041600452602483fd5b634e487b7160e01b85526041600452602485fd5b856064918b519162461bcd60e51b8352600483015260248201527f547265617375727920616464726573732063616e6e6f74206265207a65726f006044820152fd5b600986528686206200032191850160051c810190620003ce565b3862000132565b600886528686206200034291850160051c810190620003ce565b38620000f6565b8751631e4fbdf760e01b815260048101849052602490fd5b634e487b7160e01b600052604160045260246000fd5b600080fd5b51906001600160a01b03821682036200037757565b90600182811c92168015620003c3575b6020831014620003ad57565b634e487b7160e01b600052602260045260246000fd5b91607f1691620003a1565b818110620003da575050565b60008155600101620003ce565b80519091906001600160401b03811162000361576200040860025462000391565b601f8111620004bc575b50602080601f831160011462000452575081929360009262000446575b50508160011b916000199060031b1c191617600255565b0151905038806200042f565b90601f1983169460026000526020600020926000905b878210620004a357505083600195961062000489575b505050811b01600255565b015160001960f88460031b161c191690553880806200047e565b8060018596829496860151815501950193019062000468565b600260005262000509907f405787fa12a823e0f2b7631cc41b3ba8828b3321ca811111fa75cd3aa3bb5ace601f840160051c8101916020851062000510575b601f0160051c0190620003ce565b3862000412565b9091508190620004fb56fe6080604052600436101561001257600080fd5b60003560e01c8062fdd58e1461043257806301ffc9a71461042d57806302fe53051461042857806306c933d8146103e757806306fdde03146104235780630e89341c1461041e57806312e8e2c3146104195780631447ba1c14610414578063167ddf6e1461040f578063171212d51461040a5780631785f53c1461040557806318160ddd14610400578063184d69ab146103b557806324d7806c146103c95780632a55205a146103fb5780632eb2c2d6146103f657806335c2aab9146103f15780633998a681146103ec5780633af32abf146103e75780633b5221e2146103e25780633f4ba83a146103dd578063489b3711146103d85780634b602673146103d35780634bf56fd1146103975780634e1273f4146103ce5780634ed38faf146103c95780634f558e79146103c45780635001257e146103bf5780635024fd8c146103ba57806351fb012d146103b5578063552906ce146103b057806356189236146103ab5780635b42a8fe146103a65780635c975abb146103a15780635f5fff4d1461039c57806362afcf001461039757806363c770d81461039257806364ddfa291461038d5780636605bfda146103885780636d028027146103835780636e9772231461037e5780637048027514610379578063715018a6146103745780637e15144b1461036f5780638456cb591461036a5780638ab1d681146103655780638da5cb5b146103605780638dc8b4da1461035b57806392a05fe71461035657806395d89b4114610351578063a22cb4651461034c578063b23cd1a614610347578063b3b3064014610342578063b71957631461033d578063bd85b03914610338578063c5f956af14610333578063c71959b41461032e578063cc0ad6e714610329578063cdd78cfc14610324578063d0b7830b1461031f578063e084ffda1461031a578063e0f8b31314610315578063e985e9c514610310578063ecceec821461030b578063f0f4d0cb14610306578063f242432a146103015763f2fde38b146102fc57600080fd5b612f7b565b612e56565b612d01565b612ce3565b612c7b565b612c00565b612ba5565b612b22565b612b04565b612a89565b6129e9565b6129c0565b612994565b61284a565b6127a0565b6126a7565b6125e7565b61253f565b6124f1565b61246d565b612444565b612305565b6122ab565b612220565b6121c2565b61208d565b612044565b611fd2565b611f41565b611ec3565b611e35565b6116ec565b611d53565b611d30565b611cd7565b611cb9565b611981565b611009565b611925565b61185d565b61182f565b61102c565b611773565b611658565b611534565b6114ca565b6113c5565b610768565b611383565b61134f565b611222565b61106e565b610feb565b610e52565b610dd9565b610c4f565b610b5b565b610ac5565b610a92565b6109a9565b610647565b6104b0565b61044d565b6001600160a01b0381160361044857565b600080fd5b3461044857604036600319011261044857602061049560043561046f81610437565b6024356000526000835260406000209060018060a01b0316600052602052604060002090565b54604051908152f35b6001600160e01b031981160361044857565b346104485760203660031901126104485760206004356104cf8161049e565b63ffffffff60e01b1663152a902d60e11b81149081156104f5575b506040519015158152f35b636cdb3d1360e11b811491508115610527575b8115610516575b50386104ea565b6301ffc9a760e01b1490503861050f565b6303a24d0760e21b81149150610508565b634e487b7160e01b600052604160045260246000fd5b60c081019081106001600160401b0382111761056957604052565b610538565b604081019081106001600160401b0382111761056957604052565b606081019081106001600160401b0382111761056957604052565b90601f801991011681019081106001600160401b0382111761056957604052565b6040519061016082018281106001600160401b0382111761056957604052565b6001600160401b03811161056957601f01601f191660200190565b81601f8201121561044857803590610617826105e5565b9261062560405194856105a4565b8284526020838301011161044857816000926020809301838601378301015290565b3461044857602080600319360112610448576001600160401b0360043581811161044857610679903690600401610600565b91610682614142565b82519182116105695761069f8261069a6002546107aa565b6139a9565b602090601f83116001146106e1575081906106d1936000926106d6575b50508160011b916000199060031b1c19161790565b600255005b0151905038806106bc565b90601f1983169361071460026000527f405787fa12a823e0f2b7631cc41b3ba8828b3321ca811111fa75cd3aa3bb5ace90565b926000905b8682106107505750508360019510610737575b505050811b01600255005b015160001960f88460031b161c1916905538808061072c565b80600185968294968601518155019501930190610719565b346104485760203660031901126104485760043561078581610437565b60018060a01b03166000526011602052602060ff604060002054166040519015158152f35b90600182811c921680156107da575b60208310146107c457565b634e487b7160e01b600052602260045260246000fd5b91607f16916107b9565b60405190600082600254916107f8836107aa565b808352926020906001908181169081156108865750600114610825575b5050610823925003836105a4565b565b91509260026000527f405787fa12a823e0f2b7631cc41b3ba8828b3321ca811111fa75cd3aa3bb5ace936000925b82841061086e57506108239450505081016020013880610815565b85548885018301529485019487945092810192610853565b9150506020925061082394915060ff191682840152151560051b8201013880610815565b906040519182600082546108bd816107aa565b9081845260209460019160018116908160001461092b57506001146108ec575b505050610823925003836105a4565b600090815285812095935091905b81831061091357505061082393508201013880806108dd565b855488840185015294850194879450918301916108fa565b9250505061082394925060ff191682840152151560051b8201013880806108dd565b60005b8381106109605750506000910152565b8181015183820152602001610950565b906020916109898151809281855285808601910161094d565b601f01601f1916010190565b9060206109a6928181520190610970565b90565b3461044857600080600319360112610a8f576040519080600854906109cd826107aa565b80855291602091600191828116908115610a625750600114610a0a575b610a06866109fa818803826105a4565b60405191829182610995565b0390f35b9350600884527ff3f7a9fe364faab93b216da50a3214154f22a0a2b415b23a84c8169e8b636ee35b838510610a4f575050505081016020016109fa82610a06386109ea565b8054868601840152938201938101610a32565b9050869550610a06969350602092506109fa94915060ff191682840152151560051b8201019293386109ea565b80fd5b3461044857602036600319011261044857610a06610ab16004356130a9565b604051918291602083526020830190610970565b3461044857602036600319011261044857600435610ae1614142565b6103e88111610b2757600a8054908290556040805191825260208201929092527fd347e206f25a89b917fc9482f1a2d294d749baa4dc9bde7fb495ee11fe4916439190a1005b60405162461bcd60e51b815260206004820152600c60248201526b08ccaca40e8dede40d0d2ced60a31b6044820152606490fd5b3461044857604036600319011261044857602435600435610b7a614142565b818101808211610bd9576107d010610b9457600b55600c55005b60405162461bcd60e51b815260206004820152601c60248201527f546f74616c20666565732063616e6e6f742065786365656420323025000000006044820152606490fd5b61318e565b96939061012098959b9a999693610c12610c2e94610c20936101409060018060a01b03168c528060208d01528b0190610970565b9089820360408b0152610970565b908782036060890152610970565b98608086015260a085015260c084015260e083015215156101008201520152565b3461044857602036600319011261044857600435600e5481111580610d81575b610c7890613213565b60005260176020526040600020610c8d6105c5565b8154815260018201546001600160a01b031660208201908152909190610a069061014090610cbd600285016108aa565b9360408601948552610cd1600382016108aa565b9560608101968752610ce560048301611552565b9260808201938452610cf9600584016108aa565b9360a0830194855260068401549060c08401918252610d74610d5e60078701549460e087019586526008880154966101008101978852600a610d3f60098b015460ff1690565b151561012083019081529901549a018a9052516001600160a01b031690565b99519a5196519151519251935194519551151590565b956040519a8b9a8b610bde565b50801515610c6f565b949192610db960a095989794610dab610dc79460c08a5260c08a0190610970565b9088820360208a0152610970565b908682036040880152610970565b95606085015260808401521515910152565b3461044857602036600319011261044857600435610df681610437565b6001600160a01b03166000908152601660205260409020610e16816108aa565b610a06610e25600184016108aa565b92610e32600282016108aa565b90600381015460ff60056004840154930154169260405196879687610d8a565b3461044857602036600319011261044857600435610e6f81610437565b600090338252601260205260ff6040832054168015610fd7575b610e9290613252565b6001600160a01b0381166000908152601260205260409020610ebf90610eba905b5460ff1690565b613252565b6005546001600160a01b0382811692610f1392610f0992610ee3911685141561328d565b610eef338514156132d9565b6001600160a01b0316600090815260126020526040902090565b805460ff19169055565b815b6015549081811015610fd05782610f52610f46610f31846118be565b905460039190911b1c6001600160a01b031690565b6001600160a01b031690565b14610f61576001915001610f15565b610f81610f7b610f31610f76610f9f9561332f565b6118be565b916118be565b90919060018060a01b038084549260031b9316831b921b1916179055565b610fa761335a565b33907fdb9d5d31320daf5bc7181d565b6da4d12e30f0f4d5aa324a992426c14a1d19ce8380a380f35b5050610fa7565b506005546001600160a01b03163314610e89565b34610448576000366003190112610448576020600454604051908152f35b3461044857600036600319011261044857602060ff600f54166040519015158152f35b346104485760203660031901126104485760043561104981610437565b60018060a01b03166000526012602052602060ff604060002054166040519015158152f35b3461044857604036600319011261044857600435600e54811115806111a2575b61109790613213565b600052601760205260406000206110ac6105c5565b8154815260018201546001600160a01b0316602082019081529161014090600a906110d9600282016108aa565b60408501526110ea600382016108aa565b60608501526110fb60048201611552565b608085015261110c600582016108aa565b60a0850152600681015460c0850152600781015460e0850152600881015461010085015261114b611141600983015460ff1690565b1515610120860152565b0154910152611186611178611170611168600b54600c5490613206565b602435613446565b612710900490565b91516001600160a01b031690565b604080516001600160a01b039290921682526020820192909252f35b5080151561108e565b6001600160401b0381116105695760051b60200190565b9080601f830112156104485760209082356111dc816111ab565b936111ea60405195866105a4565b81855260208086019260051b82010192831161044857602001905b828210611213575050505090565b81358152908301908301611205565b346104485760a0366003190112610448576004803561124081610437565b60243561124c81610437565b6001600160401b03906044358281116104485761126c90369086016111c2565b906064358381116104485761128490369087016111c2565b926084359081116104485761129c9036908701610600565b936001600160a01b0380821690338214158061132b575b6112fe578316156112e657156112cf576112cd9550614d01565b005b604051626a0d4560e21b8152600081880152602490fd5b604051632bfa23e760e11b8152600081890152602490fd5b6040805163711bec9160e11b815233818b019081526001600160a01b038616602082015290918291010390fd5b50600082815260016020908152604080832033845290915290205460ff16156112b3565b34610448576020366003190112610448576004356000526018602052602060018060a01b0360406000205416604051908152f35b346104485760003660031901126104485760206040516103e88152f35b90916113b76109a693604084526040840190610970565b916020818403910152610970565b3461044857602036600319011261044857600435600e54811115806114c1575b6113ee90613213565b600052601760205260406000206114036105c5565b81548152600182015461142a906001600160a01b03165b6001600160a01b03166020830152565b611436600283016108aa565b6040820152611447600383016108aa565b606082015261145860048301611552565b9060808101918252610140600a611471600586016108aa565b9460a08401958652600681015460c0850152600781015460e085015260088101546101008501526114a9611141600983015460ff1690565b015491015251905190610a06604051928392836113a0565b508015156113e5565b34610448576000366003190112610448576114e3614142565b60075460ff8116156115225760ff19166007557f5db9ee0a495bf2e6ff9c91a7834c1ba4fdd244a5e8aa4e537bd38aeae4b073aa6020604051338152a1005b604051638dfc202b60e01b8152600490fd5b34610448576000366003190112610448576020600b54604051908152f35b90604051918260008254611565816107aa565b9081845260209460019160018116908160001461092b575060011461159357505050610823925003836105a4565b600090815285812095935091905b8183106115ba57505061082393508201013880806108dd565b855488840185015294850194879450918301916115a1565b97949061163b946116116101409b9895999e9d9c9961162d9561161f9460408e610160938493825260018060a01b0316602082015201528c0190610970565b908a820360608c0152610970565b9088820360808a0152610970565b9086820360a0880152610970565b9760c085015260e084015261010083015215156101208201520152565b34610448576020366003190112610448576004356000908152601760205260409020805460018201546001600160a01b031691610a069061169b600282016108aa565b906116a8600382016108aa565b6116b460048301611552565b6116c0600584016108aa565b600684015490600785015492600886015494600a60ff600989015416970154976040519b8c9b8c6115d2565b346104485760203660031901126104485760043561170981610437565b60018060a01b03166000526010602052602060ff604060002054166040519015158152f35b90815180825260208080930193019160005b82811061174e575050505090565b835185529381019392810192600101611740565b9060206109a692818152019061172e565b34610448576040366003190112610448576004356001600160401b0380821161044857366023830112156104485781600401356117af816111ab565b926117bd60405194856105a4565b8184526020916024602086019160051b8301019136831161044857602401905b828210611816578560243586811161044857610a069161180461180a9236906004016111c2565b9061346d565b60405191829182611762565b838091833561182481610437565b8152019101906117dd565b3461044857602036600319011261044857600435600052600360205260206040600020541515604051908152f35b3461044857604036600319011261044857600435600090808252601860205261189360018060a01b03604084205416331461352c565b81526017602052602435600660408320015580f35b634e487b7160e01b600052603260045260246000fd5b6015548110156118e35760156000526000805160206154b08339815191520190600090565b6118a8565b6014548110156118e35760146000526000805160206154d08339815191520190600090565b80548210156118e35760005260206000200190600090565b346104485760403660031901126104485760043561194281610437565b6001600160a01b03166000908152601a6020526040902080546024359190821015610448576020916119739161190d565b90546040519160031b1c8152f35b60403660031901126104485760243560043561199b6145eb565b6119a3614609565b60ff600f5416611c7e575b600e5481111580611c75575b6119c390613213565b6119d7816000526017602052604060002090565b916119ee6119e9600985015460ff1690565b6135a7565b6119f98115156135eb565b6008830191611a18611a0c838554613206565b60078601541015613637565b6006840193611a28838654613446565b611a3481341015613678565b611a43611170600a5483613446565b611a4d818361334d565b95611a61611a596136bb565b87873361462c565b611a6c868254613206565b905533600090815260166020526040902060049060058101611a96611a92825460ff1690565b1590565b611c57575b5001611aa8868254613206565b905560009560005b336000908152601a6020526040902054811015611c4b57336000908152601a602052604090208690611af190611ae790849061190d565b90549060031b1c90565b14611afe57600101611ab0565b509091929394955060015b15611c2c575b80158015611bee575b505080158015611bb2575b5050803411611b7f575b506001015492546040805193845260208401919091526001600160a01b039093169233927f465c604f8dcf4d2dba83e76f95c4cb5876f0976ec008a9326b6d4b209142bb459190a46112cd6001600655565b60008080611b8e81943461334d565b818115611ba9575b3390f115611ba45738611b2d565b613713565b506108fc611b96565b60008080938193611bd0610f46610f46600d5460018060a01b031690565b908390611be5575bf115611ba4573880611b23565b506108fc611bd8565b60008080938193611c0e610f46610f4660018c015460018060a01b031690565b908390611c23575bf115611ba4573880611b18565b506108fc611c16565b336000908152601a60205260409020611c469086906136de565b611b0f565b50909192939495611b09565b805460ff191660011790556000600382015560008282015538611a9b565b508015156119ba565b33600052601160205260ff604060002054168015611ca5575b611ca090613569565b6119ae565b506005546001600160a01b03163314611c97565b34610448576000366003190112610448576020600e54604051908152f35b34610448576020366003190112610448576004356000908082526018602052611d0d60018060a01b03604084205416331461352c565b8152601760205260408120600901805460ff818116151660ff1990911617905580f35b3461044857600036600319011261044857602060ff600754166040519015158152f35b3461044857600080600319360112610a8f57338152601060205260ff604082205416611df057336000908152601160205260409020611d9e90611d9990611a9290610eb3565b61371f565b336000908152601060205260409020611dbf905b805460ff19166001179055565b611dc833613761565b337fd01371a65bc20da9af65aaf8149474fd747e562e207a3687cf65a809766a205a8280a280f35b60405162461bcd60e51b815260206004820152601b60248201527f416c7265616479207265676973746572656420696e74657265737400000000006044820152606490fd5b34610448576020366003190112610448576004356014548110156104485760146000526000805160206154d083398151915201546040516001600160a01b039091168152602090f35b602090602060408183019282815285518094520193019160005b828110611ea6575050505090565b83516001600160a01b031685529381019392810192600101611e98565b3461044857600036600319011261044857604051806015549182815260208091019260156000526000805160206154b0833981519152916000905b828210611f2157610a0685611f15818903826105a4565b60405191829182611e7e565b83546001600160a01b031686529485019460019384019390910190611efe565b3461044857602036600319011261044857600435611f5e81610437565b611f66614142565b6001600160a01b03168015611f8d576001600160601b0360a01b600d541617600d55600080f35b60405162461bcd60e51b815260206004820152601f60248201527f547265617375727920616464726573732063616e6e6f74206265207a65726f006044820152606490fd5b3461044857600036600319011261044857604051806014549182815260208091019260146000526000805160206154d0833981519152916000905b82821061202457610a0685611f15818903826105a4565b83546001600160a01b03168652948501946001938401939091019061200d565b34610448576020366003190112610448576004356015548110156104485760156000526000805160206154b083398151915201546040516001600160a01b039091168152602090f35b34610448576020366003190112610448576004356120aa81610437565b600090338252601260205260ff60408320541680156121ae575b6120cd90613252565b6001600160a01b038116808352601260205260408320549091906120f49060ff1615613872565b6120ff8215156138b1565b6001600160a01b038116600090815260126020526040902061212090611db2565b612129816137c8565b6001600160a01b038116600090815260116020526040902061214e90611a9290610eb3565b61217d575b5033907fbf3f493c772c8c283fd124432c2d0f539ab343faa04258fe88e52912d36b102b8380a380f35b6001600160a01b03811660009081526011602052604090206121a891906121a390611db2565b61381d565b38612153565b506005546001600160a01b031633146120c4565b3461044857600080600319360112610a8f576121dc614142565b600580546001600160a01b0319811690915581906001600160a01b03167f8be0079c531659141344cd1fd0a4f28419497f9722a3daafe3b4186f6b6457e08280a380f35b3461044857600080600319360112610a8f57338152601260205260ff6040822054168015612297575b61225290613252565b600f5460ff8082161516809160ff191617600f5560405190151581527f5f2930093a8ed3d18a75ec1318aa404a4cb74a9d542350560a7709642f444b5860203392a280f35b506005546001600160a01b03163314612249565b34610448576000366003190112610448576122c4614142565b6122cc6145eb565b600160ff1960075416176007557f62e78cea01bee320cd4e420270b5ea74000d11b0c9f74754ebdbfc544b05a2586020604051338152a1005b346104485760203660031901126104485760043561232281610437565b600090338252601260205260ff6040832054168015612430575b61234590613252565b6001600160a01b038116600090815260116020526040902061236f9061236a90610eb3565b6138ef565b6005546001600160a01b03828116926123ad92610f0992612393911685141561393b565b6001600160a01b0316600090815260116020526040902090565b815b601454908181101561242957826123cb610f46610f31846118e8565b146123da5760019150016123af565b610f816123f4610f316123ef6123fa9561332f565b6118e8565b916118e8565b6124026133c4565b7f535611fb62fa2a833988f283b779e417e996813e44046f521d76c17b5943b08c8280a280f35b5050612402565b506005546001600160a01b0316331461233c565b34610448576000366003190112610448576005546040516001600160a01b039091168152602090f35b3461044857600036600319011261044857604051806013549182815260208091019260136000527f66de8ffda797e3de9c05e8fc57b3bf0ec28a930d40b0d285d93c06501cf6a090916000905b8282106124d157610a0685611f15818903826105a4565b83546001600160a01b0316865294850194600193840193909101906124ba565b346104485760403660031901126104485760043561250e81610437565b6001600160a01b0316600090815260196020526040902080546024359190821015610448576020916119739161190d565b3461044857600080600319360112610a8f57604051908060095490612563826107aa565b80855291602091600191828116908115610a62575060011461258f57610a06866109fa818803826105a4565b9350600984527f6e1540171b6c0c960b71a7020d9f60077f6af931a8bbf590da0223dacf75c7af5b8385106125d4575050505081016020016109fa82610a06386109ea565b80548686018401529382019381016125b7565b346104485760403660031901126104485760043561260481610437565b6024359081151590818303610448576001600160a01b03811692831561268f576126506126619233600052600160205260406000209060018060a01b0316600052602052604060002090565b9060ff801983541691151516179055565b6040519081527f17307eab39ab6107e8899845ad3d59bd9653f200f220920489ca2b5937696c3160203392a3005b60405162ced3e160e81b815260006004820152602490fd5b34610448576060366003190112610448576001600160401b03600435818111610448576126d8903690600401610600565b602435828111610448576126f0903690600401610600565b916044359081116104485761272a7f39dfee1413bb413ba51702fe3cd693cd3b02628fbac61358818d502b7af50095913690600401610600565b600093338552601660205261276c826002604088206005810160ff81541615612783575b506127598882613a44565b6127668560018301613a44565b01613a44565b61277d604051928392339684613b0d565b0390a280f35b805460ff191660011790558860038201558860048201553861274e565b34610448576020366003190112610448576004356127bd81610437565b60018060a01b0316600052601660205260406000206040516127de8161054e565b6127e7826108aa565b8152610a066127f8600184016108aa565b916020810192835261280c600285016108aa565b93846040830152600381015480606084015260ff60056004840154938460808701520154161515928360a08201525194519560405196879687610d8a565b346104485760403660031901126104485760043560243590600e548111158061298b575b61287790613213565b6000526017602052604060002061288c6105c5565b8154815260018201546001600160a01b0316602082019081529161014090600a906128b9600282016108aa565b60408501526128ca600382016108aa565b60608501526128db60048201611552565b60808501526128ec600582016108aa565b60a0850152600681015460c0850152600781015460e08501526008810154610100850152612921611141600983015460ff1690565b015491015260018060a01b03905116610a06612952611170612948611170600c5487613446565b94600b5490613446565b61295c8185613206565b604080516001600160a01b03909516855260208501959095529383015260608201929092529081906080820190565b5080151561286e565b346104485760203660031901126104485760043560005260036020526020604060002054604051908152f35b3461044857600036600319011261044857600d546040516001600160a01b039091168152602090f35b346104485760c0366003190112610448576001600160401b0360043581811161044857612a1a903690600401610600565b9060243581811161044857612a33903690600401610600565b60443582811161044857612a4b903690600401610600565b9260643592831161044857610a0693612a6b612a79943690600401610600565b9060a4359360843593613b44565b6040519081529081906020820190565b346104485760208060031936011261044857600435612aa781610437565b6001600160a01b0316600090815260196020908152604080832090518154808252918452828420928101949093905b828210612aed57610a068561180a818903826105a4565b835486529485019460019384019390910190612ad6565b34610448576000366003190112610448576020600a54604051908152f35b3461044857600080600319360112610a8f57612b3c614142565b478015612b6a57600d548291829182918291612b60906001600160a01b0316610f46565b82f115611ba45780f35b60405162461bcd60e51b81526020600482015260136024820152724e6f206665657320746f20776974686472617760681b6044820152606490fd5b34610448576020366003190112610448576004356013548110156104485760136000527f66de8ffda797e3de9c05e8fc57b3bf0ec28a930d40b0d285d93c06501cf6a09001546040516001600160a01b039091168152602090f35b346104485760208060031936011261044857600435612c1e81610437565b6001600160a01b03166000908152601a6020908152604080832090518154808252918452828420928101949093905b828210612c6457610a068561180a818903826105a4565b835486529485019460019384019390910190612c4d565b3461044857604036600319011261044857602060ff612cd7600435612c9f81610437565b60243590612cac82610437565b60018060a01b03166000526001845260406000209060018060a01b0316600052602052604060002090565b54166040519015158152f35b34610448576000366003190112610448576020600c54604051908152f35b34610448576020366003190112610448576004356001600160401b0380821161044857366023830112156104485781600401359081116104485760246005923660248460051b8301011161044857600093338552601260205260ff6040862054168015612e42575b612d7290613252565b845b848110612d7f578580f35b8084600192841b85010135612d9381610437565b6001600160a01b0381166000908152601060205260409020612dbd90612db890610eb3565b6140b1565b612de7612de2611a92610eb38460018060a01b03166000526011602052604060002090565b6140f6565b6001600160a01b0381166000908152601160205260409020612e0890611db2565b612e118161381d565b828060a01b03167f4f783c179409b4127238bc9c990bc99b9a651666a0d20b51d6c42849eb88466d8880a201612d74565b506005546001600160a01b03163314612d69565b346104485760a036600319011261044857600435612e7381610437565b602435612e7f81610437565b6084356001600160401b03811161044857612e9e903690600401610600565b906001600160a01b03838116903382141580612f57575b612f3057821615612f175715612eff576112cd92612ef76064356044359160405192600184526020840152604083019160018352606084015260808301604052565b929091614d01565b604051626a0d4560e21b815260006004820152602490fd5b604051632bfa23e760e11b815260006004820152602490fd5b60405163711bec9160e11b81523360048201526001600160a01b0386166024820152604490fd5b50600082815260016020908152604080832033845290915290205460ff1615612eb5565b3461044857602036600319011261044857600435612f9881610437565b612fa0614142565b6001600160a01b03908116908115612fef57600554826001600160601b0360a01b821617600555167f8be0079c531659141344cd1fd0a4f28419497f9722a3daafe3b4186f6b6457e0600080a3005b604051631e4fbdf760e01b815260006004820152602490fd5b90600a6130136105c5565b8354815260018401546001600160a01b0316602082015292613037600282016108aa565b6040850152613048600382016108aa565b606085015261305960048201611552565b608085015261306a600582016108aa565b60a0850152600681015460c0850152600781015460e0850152600881015461010085015261309f611141600983015460ff1690565b0154610140830152565b600e5481111580613185575b6130c3575b506109a66107e4565b80600052601760205260406000206130d96105c5565b8154815260018201546130f4906001600160a01b031661141a565b613100600283016108aa565b6040820152613111600383016108aa565b6060820152610140600a61312760048501611552565b936080840194855261313b600582016108aa565b60a0850152600681015460c0850152600781015460e08501526008810154610100850152613170611141600983015460ff1690565b01549101525151156130ba576109a690614185565b508015156130b5565b634e487b7160e01b600052601160045260246000fd5b9060028201809211610bd957565b9060038201809211610bd957565b9060018201809211610bd957565b6030019081603011610bd957565b90600c8201809211610bd957565b6002019081600211610bd957565b6003019081600311610bd957565b91908201809211610bd957565b1561321a57565b60405162461bcd60e51b815260206004820152601060248201526f125b9d985b1a59081d1bdad95b88125160821b6044820152606490fd5b1561325957565b60405162461bcd60e51b815260206004820152600c60248201526b2737ba1030b71030b236b4b760a11b6044820152606490fd5b1561329457565b60405162461bcd60e51b815260206004820152601e60248201527f43616e6e6f742072656d6f7665206f776e65722066726f6d2061646d696e00006044820152606490fd5b156132e057565b60405162461bcd60e51b815260206004820152602160248201527f43616e6e6f742072656d6f766520796f757273656c662066726f6d2061646d696044820152603760f91b6064820152608490fd5b600019810191908211610bd957565b600119810191908211610bd957565b91908203918211610bd957565b60155480156133ae57600019810190808210156118e3577f55f448fdea98c4d29eb340757ef0a66cd03dbb9538908a6a81d96026b71ec474906015600052016001600160601b0360a01b8154169055601555565b634e487b7160e01b600052603160045260246000fd5b60145480156133ae57600019810190808210156118e3577fce6d7b5282bd9a3661ae061feed1dbda4e52ab073b1f9285be6e155d9c38d4eb906014600052016001600160601b0360a01b8154169055601455565b600281901b91906001600160fe1b03811603610bd957565b908160011b9180830460021490151715610bd957565b81810292918115918404141715610bd957565b80518210156118e35760209160051b010190565b9190918051835180820361350a5750508051906134a261348c836111ab565b9261349a60405194856105a4565b8084526111ab565b60209190601f1901368484013760005b815181101561350257600581901b8281018401519087018401516000908152602081815260408083206001600160a01b0390941683529290522054600191906134fb8287613459565b52016134b2565b509193505050565b604051635b05999160e01b815260048101919091526024810191909152604490fd5b1561353357565b60405162461bcd60e51b815260206004820152600e60248201526d139bdd081d1a1948185c9d1a5cdd60921b6044820152606490fd5b1561357057565b60405162461bcd60e51b815260206004820152600f60248201526e139bdd081dda1a5d195b1a5cdd1959608a1b6044820152606490fd5b156135ae57565b60405162461bcd60e51b8152602060048201526015602482015274417274776f726b206973206e6f742061637469766560581b6044820152606490fd5b156135f257565b60405162461bcd60e51b815260206004820152601d60248201527f416d6f756e74206d7573742062652067726561746572207468616e20300000006044820152606490fd5b1561363e57565b60405162461bcd60e51b815260206004820152601260248201527145786365656473206d617820737570706c7960701b6044820152606490fd5b1561367f57565b60405162461bcd60e51b8152602060048201526014602482015273125b9cdd59999a58da595b9d081c185e5b595b9d60621b6044820152606490fd5b60405190602082018281106001600160401b038211176105695760405260008252565b8054600160401b811015610569576136fb9160018201815561190d565b819291549060031b91821b91600019901b1916179055565b6040513d6000823e3d90fd5b1561372657565b60405162461bcd60e51b8152602060048201526013602482015272105b1c9958591e481dda1a5d195b1a5cdd1959606a1b6044820152606490fd5b60135490600160401b8210156105695760018201806013558210156118e35760136000527f66de8ffda797e3de9c05e8fc57b3bf0ec28a930d40b0d285d93c06501cf6a09090910180546001600160a01b0319166001600160a01b03909216919091179055565b60155490600160401b8210156105695760018201806015558210156118e35760156000526000805160206154b083398151915290910180546001600160a01b0319166001600160a01b03909216919091179055565b60145490600160401b8210156105695760018201806014558210156118e35760146000526000805160206154d083398151915290910180546001600160a01b0319166001600160a01b03909216919091179055565b1561387957565b60405162461bcd60e51b815260206004820152601060248201526f20b63932b0b23c9030b71030b236b4b760811b6044820152606490fd5b156138b857565b60405162461bcd60e51b815260206004820152600f60248201526e496e76616c6964206164647265737360881b6044820152606490fd5b156138f657565b60405162461bcd60e51b815260206004820152601760248201527f41646472657373206e6f742077686974656c69737465640000000000000000006044820152606490fd5b1561394257565b60405162461bcd60e51b815260206004820152602260248201527f43616e6e6f742072656d6f7665206f776e65722066726f6d2077686974656c696044820152611cdd60f21b6064820152608490fd5b81811061399d575050565b60008155600101613992565b90601f82116139b6575050565b6108239160026000527f405787fa12a823e0f2b7631cc41b3ba8828b3321ca811111fa75cd3aa3bb5ace906020601f840160051c83019310613a00575b601f0160051c0190613992565b90915081906139f3565b9190601f8111613a1957505050565b610823926000526020600020906020601f840160051c83019310613a0057601f0160051c0190613992565b91909182516001600160401b03811161056957613a6b81613a6584546107aa565b84613a0a565b602080601f8311600114613aa257508190613a9e9394956000926106d65750508160011b916000199060031b1c19161790565b9055565b90601f19831695613ab885600052602060002090565b926000905b888210613af557505083600195969710613adc575b505050811b019055565b015160001960f88460031b161c19169055388080613ad2565b80600185968294968601518155019501930190613abd565b91613b3690613b286109a69593606086526060860190610970565b908482036020860152610970565b916040818403910152610970565b93613cf47f4ddc8815460a355e3d190e794ec142559a99d61ae53cf57df333c9286e76c54893969296613b756145eb565b613b7d614609565b60ff600f5416613d19575b613b93841515613d54565b613b9f87511515613daa565b613bab81511515613dee565b613bba61400082511115613e3a565b613bc686511515613e86565b613bd7613bd2876147a2565b613ed2565b613bea613be5600e54613f13565b600e55565b613c5d600e54988997613bfb6105c5565b898152336020820152918a6040840152606083015283608083015260a08201528460c08201528560e08201526000610100820152613c3d610120820160019052565b42610140820152613c58886000526017602052604060002090565b613fc7565b613c9433613c75886000526018602052604060002090565b80546001600160a01b0319166001600160a01b03909216919091179055565b336000908152601960205260409020613cae9087906136de565b33600090815260166020526040902060039060058101613cd2611a92825460ff1690565b613d01575b5001613ce38154613f13565b905551604051938493339885614089565b0390a36109a66001600655565b805460ff191660011790556000600482015538613cd7565b33600052601160205260ff604060002054168015613d40575b613d3b90613569565b613b88565b506005546001600160a01b03163314613d32565b15613d5b57565b60405162461bcd60e51b815260206004820152602160248201527f4d617820737570706c79206d7573742062652067726561746572207468616e206044820152600360fc1b6064820152608490fd5b15613db157565b60405162461bcd60e51b81526020600482015260156024820152745469746c652063616e6e6f7420626520656d70747960581b6044820152606490fd5b15613df557565b60405162461bcd60e51b815260206004820152601a60248201527f496d61676520646174612063616e6e6f7420626520656d7074790000000000006044820152606490fd5b15613e4157565b60405162461bcd60e51b815260206004820152601a60248201527f496d61676520746f6f206c61726765202831364b42206d6178290000000000006044820152606490fd5b15613e8d57565b60405162461bcd60e51b815260206004820152601a60248201527f496d61676520747970652063616e6e6f7420626520656d7074790000000000006044820152606490fd5b15613ed957565b60405162461bcd60e51b8152602060048201526012602482015271496e76616c696420696d616765207479706560701b6044820152606490fd5b6000198114610bd95760010190565b91909182516001600160401b03811161056957613f4381613a6584546107aa565b602080601f8311600114613f7657508190613a9e9394956000926106d65750508160011b916000199060031b1c19161790565b90601f19831695613f8c85600052602060002090565b926000905b888210613faf57505083600195969710613adc57505050811b019055565b80600185968294968601518155019501930190613f91565b8151815560208201516001820180546001600160a01b0319166001600160a01b0390921691909117905590600a906101409061400a604082015160028601613a44565b61401b606082015160038601613a44565b61402c608082015160048601613f22565b61403d60a082015160058601613a44565b60c0810151600685015560e08101516007850155610100810151600885015561408261406d610120830151151590565b600986019060ff801983541691151516179055565b0151910155565b90926140a2606093969594608084526080840190610970565b95602083015260408201520152565b156140b857565b60405162461bcd60e51b81526020600482015260166024820152751059191c995cdcc81b9bdd081a5b9d195c995cdd195960521b6044820152606490fd5b156140fd57565b60405162461bcd60e51b815260206004820152601b60248201527f4164647265737320616c72656164792077686974656c697374656400000000006044820152606490fd5b6005546001600160a01b0316330361415657565b60405163118cdaa760e01b8152336004820152602490fd5b906141816020928281519485920161094d565b0190565b614199816000526017602052604060002090565b6141a290613008565b60a08101918251608083019283516141b990614962565b6040516a646174613a696d6167652f60a81b602082015292839190602b83016141e19161416e565b670ed8985cd94d8d0b60c21b81526008016141fb9161416e565b0394601f1995868101845261421090846105a4565b60408201519361421f90614b59565b9460608301519360e084015161423490614b59565b61010085015161424390614b59565b9160c086015161425290614b59565b93515161425e90614b59565b94516020909601516001600160a01b031661427890614c25565b604051683d913730b6b2911d1160b91b6020820152998a9991989160298b016142a09161416e565b61202360f01b81526002016142b49161416e565b61088b60f21b81526002016e113232b9b1b934b83a34b7b7111d1160891b8152600f016142e09161416e565b61088b60f21b8152600201681134b6b0b3b2911d1160b91b81526009016143069161416e565b61088b60f21b81526002016d2261747472696275746573223a5b60901b8152600e017f7b2274726169745f74797065223a22546f6b656e205374616e64617264222c228152721d985b1d59488e88915490cb4c4c4d4d489f4b606a1b60208201526033017f7b2274726169745f74797065223a2253746f72616765222c2276616c7565223a81526b0893db8b58da185a5b889f4b60a21b6020820152602c017f7b2274726169745f74797065223a224d617820537570706c79222c2276616c7581526232911d60e91b60208201526023016143e09161416e565b611f4b60f21b81526002017f7b2274726169745f74797065223a2243757272656e7420537570706c79222c228152663b30b63ab2911d60c91b602082015260270161442a9161416e565b611f4b60f21b81526002017f7b2274726169745f74797065223a225072696365202857656929222c2276616c8152633ab2911d60e11b60208201526024016144719161416e565b611f4b60f21b81526002017f7b2274726169745f74797065223a2246696c652053697a65222c2276616c7565815261111d60f11b60208201526022016144b69161416e565b611f4b60f21b81526002017f7b2274726169745f74797065223a2246696c652054797065222c2276616c7565815262111d1160e91b60208201526023016144fc9161416e565b62089f4b60ea1b81526003017f7b2274726169745f74797065223a2243726561746f72222c2276616c7565223a8152601160f91b60208201526021016145419161416e565b61227d60f01b815260020161174b60f21b81526002017f2270726f70657274696573223a7b2263617465676f7279223a22696d616765228152617d7d60f01b602082015260220103828101825261459890826105a4565b6145a190614962565b6040517f646174613a6170706c69636174696f6e2f6a736f6e3b6261736536342c000000602082015291908290603d82016145db9161416e565b0390810182526109a690826105a4565b60ff600754166145f757565b60405163d93c066560e01b8152600490fd5b60026006541461461a576002600655565b604051633ee5aeb560e01b8152600490fd5b93916001600160a01b03851615612f175761466460405192600184526020840152604083019160018352606084015260808301604052565b90916146718284876151d6565b600094855b84518710156146c4576146bc6001918860051b906146aa602080848a010151938a0101516000526003602052604060002090565b6146b5838254613206565b9055613206565b960195614676565b6146de9195949296506146d990600454613206565b600455565b80516001036146fc5790602080610823959301519101519133615145565b6108239333614f4b565b604051906147138261056e565b6003825262706e6760e81b6020830152565b604051906147328261056e565b600382526233b4b360e91b6020830152565b604051906147518261056e565b60048252630776562760e41b6020830152565b604051906147718261056e565b600382526273766760e81b6020830152565b604051906147908261056e565b600382526207a69760ec1b6020830152565b6147c86040516147b18161056e565b60048152636a70656760e01b602082015282614e34565b90811561485b575b8115614848575b8115614835575b8115614822575b8115614809575b81156147f6575090565b6109a69150614803614783565b90614e34565b905061481c614816614764565b82614e34565b906147ec565b905061482f614816614744565b906147e5565b9050614842614816614725565b906147de565b9050614855614816614706565b906147d7565b905061488260405161486c8161056e565b60038152626a706760e81b602082015282614e34565b906147d0565b6040519061489582610589565b604082527f6768696a6b6c6d6e6f707172737475767778797a303132333435363738392b2f6040837f4142434445464748494a4b4c4d4e4f505152535455565758595a61626364656660208201520152565b604051906148f482610589565b602a82526040366020840137565b9061490c826105e5565b61491960405191826105a4565b828152809261492a601f19916105e5565b0190602036910137565b8051156118e35760200190565b8051600110156118e35760210190565b9081518110156118e3570160200190565b805115614b5057614971614888565b9061498e61498961498283516131a4565b6003900490565b613418565b9161499883614902565b91600094855b8251811015614af35780614ac46149c46149de6149d86149d26149c4614ae2978a614951565b516001600160f81b03191690565b60f81c90565b60ff1690565b6149e7846131c0565b875111600090600014614aed5750614a106149d86149d26149c4614a0a886131c0565b8b614951565b905b614a1b856131a4565b885111600090600014614ae75750614a446149d86149d26149c4614a3e896131a4565b8c614951565b915b60081b9060101b1717603f90614a646149c4838360121c168b614951565b9b614a7c614a7182613f13565b9d60001a918c614951565b53614a8f6149c48383600c1c168b614951565b9b614a9c614a7182613f13565b53614aaf6149c4838360061c168b614951565b9b614abc614a7182613f13565b531687614951565b97614adc614ad182613f13565b9960001a9188614951565b536131b2565b61499e565b91614a46565b90614a12565b50945060039150929192510660018114600014614b375750614b33614b2d82603d614b27614b21829661332f565b87614951565b5361333e565b83614951565b5390565b600214614b42575090565b614b33614b2d603d9261332f565b506109a66136bb565b8015614bdb576000818181805b614bc35750614b7481614902565b935b614b805750505090565b614b899061332f565b90600a90614bae614b9e6149d88484066131ce565b60f81b6001600160f81b03191690565b841a614bba8487614951565b53049081614b76565b9150614bd0600a91613f13565b910480849291614b66565b50604051614be88161056e565b60018152600360fc1b602082015290565b60405190614c068261056e565b601082526f181899199a1a9b1b9c1cb0b131b232b360811b6020830152565b6001600160a01b0316614c36614bf9565b614c3e6148e7565b916030614c4a84614934565b536078614c5684614941565b5360009060005b60148110614c6c575050505090565b614c75816131dc565b90602091828110156118e357614c996149c48592600f9384911a60041c1688614951565b614cb7614cad614ca885613430565b6131ea565b91871a9189614951565b53614cc1826131dc565b928310156118e3576149c4614cdc91856001951a1687614951565b614cfa614cf0614ceb84613430565b6131f8565b91861a9188614951565b5301614c5d565b91939290614d1182868386615308565b6001600160a01b0383811615614dd0575b81161580614d6f575b15614d38575b5050505050565b8451600103614d5e57602080614d54960151920151923361517a565b3880808080614d31565b614d6a94919233615046565b614d54565b94936000939091845b8651861015614db8576001908660051b90614da9602080848a010151938b0101516000526003602052604060002090565b82815403905501950194614d78565b614dcb9193969792955060045403600455565b614d2b565b959192600094916000955b8751871015614e1757614e0f6001918860051b906146aa602080848c010151938d0101516000526003602052604060002090565b960195614ddb565b614e2f919396506146d9909892959498600454613206565b614d22565b9060405191602092614e62848281614e55818301968781519384920161094d565b81010380845201826105a4565b51902091614e82604051918281614e55818301968781519384920161094d565b5190201490565b9081602091031261044857516109a68161049e565b92614ecd6109a69593614edb9360018060a01b031686526000602087015260a0604087015260a086019061172e565b90848203606086015261172e565b916080818403910152610970565b93906109a69593614ecd91614edb9460018060a01b03809216885216602087015260a0604087015260a086019061172e565b3d15614f46573d90614f2c826105e5565b91614f3a60405193846105a4565b82523d6000602084013e565b606090565b9293919093843b614f5d575050505050565b602091614f80604051948593849363bc197c8160e01b9889865260048601614e9e565b038160006001600160a01b0388165af160009181615015575b50614fd85782614fa7614f1b565b8051919082614fd157604051632bfa23e760e11b81526001600160a01b0383166004820152602490fd5b9050602001fd5b6001600160e01b03191603614ff257503880808080614d31565b604051632bfa23e760e11b81526001600160a01b03919091166004820152602490fd5b61503891925060203d60201161503f575b61503081836105a4565b810190614e89565b9038614f99565b503d615026565b939290949194853b61505b575b505050505050565b61507e602093604051958694859463bc197c8160e01b998a875260048701614ee9565b038160006001600160a01b0388165af1600091816150c0575b506150a55782614fa7614f1b565b6001600160e01b03191603614ff25750388080808080615053565b6150da91925060203d60201161503f5761503081836105a4565b9038615097565b909260a0926109a69594600180861b0316835260006020840152604083015260608201528160808201520190610970565b91926109a695949160a094600180871b038092168552166020840152604083015260608201528160808201520190610970565b9293919093843b615157575050505050565b602091614f80604051948593849363f23a6e6160e01b98898652600486016150e1565b939290949194853b61518e57505050505050565b61507e602093604051958694859463f23a6e6160e01b998a875260048701615112565b90916151c86109a69360408452604084019061172e565b91602081840391015261172e565b919091825182519081810361350a57505060005b835181101561526857600581901b84810160209081015191850101516001929184906001600160a01b038216615224575b505050016151ea565b61525e9161523f615256926000526000602052604060002090565b9060018060a01b0316600052602052604060002090565b918254613206565b905538838161521b565b509160018151146000146152c9576020908101519181015160408051938452918301526001600160a01b039092169160009133917fc3d58168c5ae7397731d063d5bbf3d657854427343f4c083240f7aacaa2d0f629190819081015b0390a4565b7f4a39dc06d4c0dbc64b70af90fd698a233a518aa5d07e595d983b8c0526c8f7fb6152c46000939460405191829160018060a01b0316963395836151b1565b939291805183519081810361350a57505060005b815181101561540a57600581901b82810160209081015191860101516001600160a01b0392918590898516615384575b600194821661535f575b5050500161531c565b61537a9161523f615256926000526000602052604060002090565b9055388481615356565b91929390506153a18961523f846000526000602052604060002090565b548381106153d357918691846001969594036153cb8c61523f856000526000602052604060002090565b55945061534c565b6040516303dee4c560e01b81526001600160a01b038b16600482015260248101919091526044810184905260648101839052608490fd5b50805193949391929160010361546c576020908101519181015160408051938452918301526001600160a01b03928316939092169133917fc3d58168c5ae7397731d063d5bbf3d657854427343f4c083240f7aacaa2d0f6291819081016152c4565b6040516001600160a01b03938416949093169233927f4a39dc06d4c0dbc64b70af90fd698a233a518aa5d07e595d983b8c0526c8f7fb9282916152c491836151b156fe55f448fdea98c4d29eb340757ef0a66cd03dbb9538908a6a81d96026b71ec475ce6d7b5282bd9a3661ae061feed1dbda4e52ab073b1f9285be6e155d9c38d4eca264697066735822122068200bd2ccc3d442af85a6b18663d7fa13c6b542488f289fd2acc82d490a647664736f6c63430008180033","opcodes":"PUSH1 0x80 CALLVALUE PUSH3 0x377 JUMPI PUSH3 0x5A41 SWAP1 PUSH1 0x1 PUSH1 0x1 PUSH1 0x40 SHL SUB SWAP1 PUSH1 0x1F SWAP1 CODESIZE DUP5 SWAP1 SUB DUP3 DUP2 ADD PUSH1 0x1F NOT AND DUP3 ADD SWAP1 DUP5 DUP3 GT DUP4 DUP4 LT OR PUSH3 0x361 JUMPI DUP1 DUP4 SWAP2 PUSH1 0x40 SWAP8 DUP9 SWAP5 DUP6 MSTORE DUP4 CODECOPY DUP2 ADD SUB SLT PUSH3 0x377 JUMPI PUSH3 0x52 DUP2 PUSH3 0x37C JUMP JUMPDEST SWAP1 PUSH3 0x62 PUSH1 0x20 DUP1 SWAP3 ADD PUSH3 0x37C JUMP JUMPDEST DUP6 MLOAD SWAP1 DUP3 DUP3 ADD DUP3 DUP2 LT DUP8 DUP3 GT OR PUSH3 0x361 JUMPI DUP8 MSTORE PUSH3 0x86 PUSH1 0x0 SWAP3 DUP4 DUP2 MSTORE PUSH3 0x3E7 JUMP JUMPDEST PUSH1 0x1 PUSH1 0x1 PUSH1 0xA0 SHL SUB SWAP4 DUP5 AND SWAP5 DUP6 ISZERO PUSH3 0x349 JUMPI PUSH1 0x5 DUP1 SLOAD PUSH1 0x1 PUSH1 0x1 PUSH1 0xA0 SHL SUB NOT DUP1 DUP3 AND DUP10 OR SWAP1 SWAP3 SSTORE SWAP1 SWAP8 SWAP1 DUP8 SWAP1 DUP8 AND PUSH32 0x8BE0079C531659141344CD1FD0A4F28419497F9722A3DAAFE3B4186F6B6457E0 DUP7 DUP1 LOG3 PUSH1 0x1 SWAP6 DUP7 PUSH1 0x6 SSTORE PUSH3 0xED PUSH1 0x8 SLOAD PUSH3 0x391 JUMP JUMPDEST DUP4 DUP2 GT PUSH3 0x328 JUMPI JUMPDEST POP PUSH32 0x5065726D616C696E6B0000000000000000000000000000000000000000000012 PUSH1 0x8 SSTORE PUSH1 0x9 SLOAD PUSH3 0x129 SWAP1 PUSH3 0x391 JUMP JUMPDEST DUP4 DUP2 GT PUSH3 0x307 JUMPI JUMPDEST POP PUSH1 0xA PUSH5 0x504C494E4B PUSH1 0xD8 SHL ADD PUSH1 0x9 SSTORE PUSH1 0xFA PUSH1 0xA SSTORE PUSH1 0xFA PUSH1 0xB SSTORE PUSH2 0x2EE PUSH1 0xC SSTORE DUP5 PUSH1 0xE SSTORE PUSH1 0xFF NOT SWAP4 DUP8 DUP6 PUSH1 0xF SLOAD AND OR PUSH1 0xF SSTORE AND SWAP2 DUP3 ISZERO PUSH3 0x2C5 JUMPI POP DUP9 MLOAD SWAP1 PUSH1 0x60 DUP3 ADD SWAP1 DUP2 GT DUP3 DUP3 LT OR PUSH3 0x2B1 JUMPI DUP10 MSTORE PUSH1 0x2C DUP2 MSTORE PUSH32 0x68747470733A2F2F6170692E7065726D616C696E6B2E6172742F6D6574616461 DUP6 DUP3 ADD MSTORE PUSH12 0x3A3097BDB4B23E973539B7B7 PUSH1 0xA1 SHL DUP10 DUP3 ADD MSTORE PUSH3 0x1CB SWAP1 PUSH3 0x3E7 JUMP JUMPDEST DUP7 PUSH1 0xD SLOAD AND OR PUSH1 0xD SSTORE DUP5 DUP3 MSTORE PUSH1 0x12 DUP4 MSTORE DUP7 DUP3 KECCAK256 DUP5 DUP3 DUP3 SLOAD AND OR SWAP1 SSTORE PUSH1 0x11 DUP4 MSTORE DUP4 DUP8 DUP4 KECCAK256 SWAP2 DUP3 SLOAD AND OR SWAP1 SSTORE PUSH1 0x15 SLOAD SWAP3 PUSH9 0x10000000000000000 SWAP4 DUP5 DUP2 LT ISZERO PUSH3 0x29D JUMPI DUP2 DUP2 ADD DUP1 PUSH1 0x15 SSTORE DUP2 LT ISZERO PUSH3 0x289 JUMPI PUSH1 0x15 DUP4 MSTORE DUP4 DUP4 KECCAK256 ADD DUP6 DUP8 DUP3 SLOAD AND OR SWAP1 SSTORE PUSH1 0x14 SLOAD SWAP4 DUP5 LT ISZERO PUSH3 0x275 JUMPI DUP4 ADD DUP1 PUSH1 0x14 SSTORE DUP4 LT ISZERO PUSH3 0x261 JUMPI PUSH1 0x14 DUP2 MSTORE KECCAK256 ADD SWAP2 DUP3 SLOAD AND OR SWAP1 SSTORE MLOAD PUSH2 0x5525 SWAP1 DUP2 PUSH3 0x51C DUP3 CODECOPY RETURN JUMPDEST PUSH4 0x4E487B71 PUSH1 0xE0 SHL DUP2 MSTORE PUSH1 0x32 PUSH1 0x4 MSTORE PUSH1 0x24 SWAP1 REVERT JUMPDEST PUSH4 0x4E487B71 PUSH1 0xE0 SHL DUP3 MSTORE PUSH1 0x41 PUSH1 0x4 MSTORE PUSH1 0x24 DUP3 REVERT JUMPDEST PUSH4 0x4E487B71 PUSH1 0xE0 SHL DUP4 MSTORE PUSH1 0x32 PUSH1 0x4 MSTORE PUSH1 0x24 DUP4 REVERT JUMPDEST PUSH4 0x4E487B71 PUSH1 0xE0 SHL DUP4 MSTORE PUSH1 0x41 PUSH1 0x4 MSTORE PUSH1 0x24 DUP4 REVERT JUMPDEST PUSH4 0x4E487B71 PUSH1 0xE0 SHL DUP6 MSTORE PUSH1 0x41 PUSH1 0x4 MSTORE PUSH1 0x24 DUP6 REVERT JUMPDEST DUP6 PUSH1 0x64 SWAP2 DUP12 MLOAD SWAP2 PUSH3 0x461BCD PUSH1 0xE5 SHL DUP4 MSTORE PUSH1 0x4 DUP4 ADD MSTORE PUSH1 0x24 DUP3 ADD MSTORE PUSH32 0x547265617375727920616464726573732063616E6E6F74206265207A65726F00 PUSH1 0x44 DUP3 ADD MSTORE REVERT JUMPDEST PUSH1 0x9 DUP7 MSTORE DUP7 DUP7 KECCAK256 PUSH3 0x321 SWAP2 DUP6 ADD PUSH1 0x5 SHR DUP2 ADD SWAP1 PUSH3 0x3CE JUMP JUMPDEST CODESIZE PUSH3 0x132 JUMP JUMPDEST PUSH1 0x8 DUP7 MSTORE DUP7 DUP7 KECCAK256 PUSH3 0x342 SWAP2 DUP6 ADD PUSH1 0x5 SHR DUP2 ADD SWAP1 PUSH3 0x3CE JUMP JUMPDEST CODESIZE PUSH3 0xF6 JUMP JUMPDEST DUP8 MLOAD PUSH4 0x1E4FBDF7 PUSH1 0xE0 SHL DUP2 MSTORE PUSH1 0x4 DUP2 ADD DUP5 SWAP1 MSTORE PUSH1 0x24 SWAP1 REVERT JUMPDEST PUSH4 0x4E487B71 PUSH1 0xE0 SHL PUSH1 0x0 MSTORE PUSH1 0x41 PUSH1 0x4 MSTORE PUSH1 0x24 PUSH1 0x0 REVERT JUMPDEST PUSH1 0x0 DUP1 REVERT JUMPDEST MLOAD SWAP1 PUSH1 0x1 PUSH1 0x1 PUSH1 0xA0 SHL SUB DUP3 AND DUP3 SUB PUSH3 0x377 JUMPI JUMP JUMPDEST SWAP1 PUSH1 0x1 DUP3 DUP2 SHR SWAP3 AND DUP1 ISZERO PUSH3 0x3C3 JUMPI JUMPDEST PUSH1 0x20 DUP4 LT EQ PUSH3 0x3AD JUMPI JUMP JUMPDEST PUSH4 0x4E487B71 PUSH1 0xE0 SHL PUSH1 0x0 MSTORE PUSH1 0x22 PUSH1 0x4 MSTORE PUSH1 0x24 PUSH1 0x0 REVERT JUMPDEST SWAP2 PUSH1 0x7F AND SWAP2 PUSH3 0x3A1 JUMP JUMPDEST DUP2 DUP2 LT PUSH3 0x3DA JUMPI POP POP JUMP JUMPDEST PUSH1 0x0 DUP2 SSTORE PUSH1 0x1 ADD PUSH3 0x3CE JUMP JUMPDEST DUP1 MLOAD SWAP1 SWAP2 SWAP1 PUSH1 0x1 PUSH1 0x1 PUSH1 0x40 SHL SUB DUP2 GT PUSH3 0x361 JUMPI PUSH3 0x408 PUSH1 0x2 SLOAD PUSH3 0x391 JUMP JUMPDEST PUSH1 0x1F DUP2 GT PUSH3 0x4BC JUMPI JUMPDEST POP PUSH1 0x20 DUP1 PUSH1 0x1F DUP4 GT PUSH1 0x1 EQ PUSH3 0x452 JUMPI POP DUP2 SWAP3 SWAP4 PUSH1 0x0 SWAP3 PUSH3 0x446 JUMPI JUMPDEST POP POP DUP2 PUSH1 0x1 SHL SWAP2 PUSH1 0x0 NOT SWAP1 PUSH1 0x3 SHL SHR NOT AND OR PUSH1 0x2 SSTORE JUMP JUMPDEST ADD MLOAD SWAP1 POP CODESIZE DUP1 PUSH3 0x42F JUMP JUMPDEST SWAP1 PUSH1 0x1F NOT DUP4 AND SWAP5 PUSH1 0x2 PUSH1 0x0 MSTORE PUSH1 0x20 PUSH1 0x0 KECCAK256 SWAP3 PUSH1 0x0 SWAP1 JUMPDEST DUP8 DUP3 LT PUSH3 0x4A3 JUMPI POP POP DUP4 PUSH1 0x1 SWAP6 SWAP7 LT PUSH3 0x489 JUMPI JUMPDEST POP POP POP DUP2 SHL ADD PUSH1 0x2 SSTORE JUMP JUMPDEST ADD MLOAD PUSH1 0x0 NOT PUSH1 0xF8 DUP5 PUSH1 0x3 SHL AND SHR NOT AND SWAP1 SSTORE CODESIZE DUP1 DUP1 PUSH3 0x47E JUMP JUMPDEST DUP1 PUSH1 0x1 DUP6 SWAP7 DUP3 SWAP5 SWAP7 DUP7 ADD MLOAD DUP2 SSTORE ADD SWAP6 ADD SWAP4 ADD SWAP1 PUSH3 0x468 JUMP JUMPDEST PUSH1 0x2 PUSH1 0x0 MSTORE PUSH3 0x509 SWAP1 PUSH32 0x405787FA12A823E0F2B7631CC41B3BA8828B3321CA811111FA75CD3AA3BB5ACE PUSH1 0x1F DUP5 ADD PUSH1 0x5 SHR DUP2 ADD SWAP2 PUSH1 0x20 DUP6 LT PUSH3 0x510 JUMPI JUMPDEST PUSH1 0x1F ADD PUSH1 0x5 SHR ADD SWAP1 PUSH3 0x3CE JUMP JUMPDEST CODESIZE PUSH3 0x412 JUMP JUMPDEST SWAP1 SWAP2 POP DUP2 SWAP1 PUSH3 0x4FB JUMP INVALID PUSH1 0x80 PUSH1 0x40 MSTORE PUSH1 0x4 CALLDATASIZE LT ISZERO PUSH2 0x12 JUMPI PUSH1 0x0 DUP1 REVERT JUMPDEST PUSH1 0x0 CALLDATALOAD PUSH1 0xE0 SHR DUP1 PUSH3 0xFDD58E EQ PUSH2 0x432 JUMPI DUP1 PUSH4 0x1FFC9A7 EQ PUSH2 0x42D JUMPI DUP1 PUSH4 0x2FE5305 EQ PUSH2 0x428 JUMPI DUP1 PUSH4 0x6C933D8 EQ PUSH2 0x3E7 JUMPI DUP1 PUSH4 0x6FDDE03 EQ PUSH2 0x423 JUMPI DUP1 PUSH4 0xE89341C EQ PUSH2 0x41E JUMPI DUP1 PUSH4 0x12E8E2C3 EQ PUSH2 0x419 JUMPI DUP1 PUSH4 0x1447BA1C EQ PUSH2 0x414 JUMPI DUP1 PUSH4 0x167DDF6E EQ PUSH2 0x40F JUMPI DUP1 PUSH4 0x171212D5 EQ PUSH2 0x40A JUMPI DUP1 PUSH4 0x1785F53C EQ PUSH2 0x405 JUMPI DUP1 PUSH4 0x18160DDD EQ PUSH2 0x400 JUMPI DUP1 PUSH4 0x184D69AB EQ PUSH2 0x3B5 JUMPI DUP1 PUSH4 0x24D7806C EQ PUSH2 0x3C9 JUMPI DUP1 PUSH4 0x2A55205A EQ PUSH2 0x3FB JUMPI DUP1 PUSH4 0x2EB2C2D6 EQ PUSH2 0x3F6 JUMPI DUP1 PUSH4 0x35C2AAB9 EQ PUSH2 0x3F1 JUMPI DUP1 PUSH4 0x3998A681 EQ PUSH2 0x3EC JUMPI DUP1 PUSH4 0x3AF32ABF EQ PUSH2 0x3E7 JUMPI DUP1 PUSH4 0x3B5221E2 EQ PUSH2 0x3E2 JUMPI DUP1 PUSH4 0x3F4BA83A EQ PUSH2 0x3DD JUMPI DUP1 PUSH4 0x489B3711 EQ PUSH2 0x3D8 JUMPI DUP1 PUSH4 0x4B602673 EQ PUSH2 0x3D3 JUMPI DUP1 PUSH4 0x4BF56FD1 EQ PUSH2 0x397 JUMPI DUP1 PUSH4 0x4E1273F4 EQ PUSH2 0x3CE JUMPI DUP1 PUSH4 0x4ED38FAF EQ PUSH2 0x3C9 JUMPI DUP1 PUSH4 0x4F558E79 EQ PUSH2 0x3C4 JUMPI DUP1 PUSH4 0x5001257E EQ PUSH2 0x3BF JUMPI DUP1 PUSH4 0x5024FD8C EQ PUSH2 0x3BA JUMPI DUP1 PUSH4 0x51FB012D EQ PUSH2 0x3B5 JUMPI DUP1 PUSH4 0x552906CE EQ PUSH2 0x3B0 JUMPI DUP1 PUSH4 0x56189236 EQ PUSH2 0x3AB JUMPI DUP1 PUSH4 0x5B42A8FE EQ PUSH2 0x3A6 JUMPI DUP1 PUSH4 0x5C975ABB EQ PUSH2 0x3A1 JUMPI DUP1 PUSH4 0x5F5FFF4D EQ PUSH2 0x39C JUMPI DUP1 PUSH4 0x62AFCF00 EQ PUSH2 0x397 JUMPI DUP1 PUSH4 0x63C770D8 EQ PUSH2 0x392 JUMPI DUP1 PUSH4 0x64DDFA29 EQ PUSH2 0x38D JUMPI DUP1 PUSH4 0x6605BFDA EQ PUSH2 0x388 JUMPI DUP1 PUSH4 0x6D028027 EQ PUSH2 0x383 JUMPI DUP1 PUSH4 0x6E977223 EQ PUSH2 0x37E JUMPI DUP1 PUSH4 0x70480275 EQ PUSH2 0x379 JUMPI DUP1 PUSH4 0x715018A6 EQ PUSH2 0x374 JUMPI DUP1 PUSH4 0x7E15144B EQ PUSH2 0x36F JUMPI DUP1 PUSH4 0x8456CB59 EQ PUSH2 0x36A JUMPI DUP1 PUSH4 0x8AB1D681 EQ PUSH2 0x365 JUMPI DUP1 PUSH4 0x8DA5CB5B EQ PUSH2 0x360 JUMPI DUP1 PUSH4 0x8DC8B4DA EQ PUSH2 0x35B JUMPI DUP1 PUSH4 0x92A05FE7 EQ PUSH2 0x356 JUMPI DUP1 PUSH4 0x95D89B41 EQ PUSH2 0x351 JUMPI DUP1 PUSH4 0xA22CB465 EQ PUSH2 0x34C JUMPI DUP1 PUSH4 0xB23CD1A6 EQ PUSH2 0x347 JUMPI DUP1 PUSH4 0xB3B30640 EQ PUSH2 0x342 JUMPI DUP1 PUSH4 0xB7195763 EQ PUSH2 0x33D JUMPI DUP1 PUSH4 0xBD85B039 EQ PUSH2 0x338 JUMPI DUP1 PUSH4 0xC5F956AF EQ PUSH2 0x333 JUMPI DUP1 PUSH4 0xC71959B4 EQ PUSH2 0x32E JUMPI DUP1 PUSH4 0xCC0AD6E7 EQ PUSH2 0x329 JUMPI DUP1 PUSH4 0xCDD78CFC EQ PUSH2 0x324 JUMPI DUP1 PUSH4 0xD0B7830B EQ PUSH2 0x31F JUMPI DUP1 PUSH4 0xE084FFDA EQ PUSH2 0x31A JUMPI DUP1 PUSH4 0xE0F8B313 EQ PUSH2 0x315 JUMPI DUP1 PUSH4 0xE985E9C5 EQ PUSH2 0x310 JUMPI DUP1 PUSH4 0xECCEEC82 EQ PUSH2 0x30B JUMPI DUP1 PUSH4 0xF0F4D0CB EQ PUSH2 0x306 JUMPI DUP1 PUSH4 0xF242432A EQ PUSH2 0x301 JUMPI PUSH4 0xF2FDE38B EQ PUSH2 0x2FC JUMPI PUSH1 0x0 DUP1 REVERT JUMPDEST PUSH2 0x2F7B JUMP JUMPDEST PUSH2 0x2E56 JUMP JUMPDEST PUSH2 0x2D01 JUMP JUMPDEST PUSH2 0x2CE3 JUMP JUMPDEST PUSH2 0x2C7B JUMP JUMPDEST PUSH2 0x2C00 JUMP JUMPDEST PUSH2 0x2BA5 JUMP JUMPDEST PUSH2 0x2B22 JUMP JUMPDEST PUSH2 0x2B04 JUMP JUMPDEST PUSH2 0x2A89 JUMP JUMPDEST PUSH2 0x29E9 JUMP JUMPDEST PUSH2 0x29C0 JUMP JUMPDEST PUSH2 0x2994 JUMP JUMPDEST PUSH2 0x284A JUMP JUMPDEST PUSH2 0x27A0 JUMP JUMPDEST PUSH2 0x26A7 JUMP JUMPDEST PUSH2 0x25E7 JUMP JUMPDEST PUSH2 0x253F JUMP JUMPDEST PUSH2 0x24F1 JUMP JUMPDEST PUSH2 0x246D JUMP JUMPDEST PUSH2 0x2444 JUMP JUMPDEST PUSH2 0x2305 JUMP JUMPDEST PUSH2 0x22AB JUMP JUMPDEST PUSH2 0x2220 JUMP JUMPDEST PUSH2 0x21C2 JUMP JUMPDEST PUSH2 0x208D JUMP JUMPDEST PUSH2 0x2044 JUMP JUMPDEST PUSH2 0x1FD2 JUMP JUMPDEST PUSH2 0x1F41 JUMP JUMPDEST PUSH2 0x1EC3 JUMP JUMPDEST PUSH2 0x1E35 JUMP JUMPDEST PUSH2 0x16EC JUMP JUMPDEST PUSH2 0x1D53 JUMP JUMPDEST PUSH2 0x1D30 JUMP JUMPDEST PUSH2 0x1CD7 JUMP JUMPDEST PUSH2 0x1CB9 JUMP JUMPDEST PUSH2 0x1981 JUMP JUMPDEST PUSH2 0x1009 JUMP JUMPDEST PUSH2 0x1925 JUMP JUMPDEST PUSH2 0x185D JUMP JUMPDEST PUSH2 0x182F JUMP JUMPDEST PUSH2 0x102C JUMP JUMPDEST PUSH2 0x1773 JUMP JUMPDEST PUSH2 0x1658 JUMP JUMPDEST PUSH2 0x1534 JUMP JUMPDEST PUSH2 0x14CA JUMP JUMPDEST PUSH2 0x13C5 JUMP JUMPDEST PUSH2 0x768 JUMP JUMPDEST PUSH2 0x1383 JUMP JUMPDEST PUSH2 0x134F JUMP JUMPDEST PUSH2 0x1222 JUMP JUMPDEST PUSH2 0x106E JUMP JUMPDEST PUSH2 0xFEB JUMP JUMPDEST PUSH2 0xE52 JUMP JUMPDEST PUSH2 0xDD9 JUMP JUMPDEST PUSH2 0xC4F JUMP JUMPDEST PUSH2 0xB5B JUMP JUMPDEST PUSH2 0xAC5 JUMP JUMPDEST PUSH2 0xA92 JUMP JUMPDEST PUSH2 0x9A9 JUMP JUMPDEST PUSH2 0x647 JUMP JUMPDEST PUSH2 0x4B0 JUMP JUMPDEST PUSH2 0x44D JUMP JUMPDEST PUSH1 0x1 PUSH1 0x1 PUSH1 0xA0 SHL SUB DUP2 AND SUB PUSH2 0x448 JUMPI JUMP JUMPDEST PUSH1 0x0 DUP1 REVERT JUMPDEST CALLVALUE PUSH2 0x448 JUMPI PUSH1 0x40 CALLDATASIZE PUSH1 0x3 NOT ADD SLT PUSH2 0x448 JUMPI PUSH1 0x20 PUSH2 0x495 PUSH1 0x4 CALLDATALOAD PUSH2 0x46F DUP2 PUSH2 0x437 JUMP JUMPDEST PUSH1 0x24 CALLDATALOAD PUSH1 0x0 MSTORE PUSH1 0x0 DUP4 MSTORE PUSH1 0x40 PUSH1 0x0 KECCAK256 SWAP1 PUSH1 0x1 DUP1 PUSH1 0xA0 SHL SUB AND PUSH1 0x0 MSTORE PUSH1 0x20 MSTORE PUSH1 0x40 PUSH1 0x0 KECCAK256 SWAP1 JUMP JUMPDEST SLOAD PUSH1 0x40 MLOAD SWAP1 DUP2 MSTORE RETURN JUMPDEST PUSH1 0x1 PUSH1 0x1 PUSH1 0xE0 SHL SUB NOT DUP2 AND SUB PUSH2 0x448 JUMPI JUMP JUMPDEST CALLVALUE PUSH2 0x448 JUMPI PUSH1 0x20 CALLDATASIZE PUSH1 0x3 NOT ADD SLT PUSH2 0x448 JUMPI PUSH1 0x20 PUSH1 0x4 CALLDATALOAD PUSH2 0x4CF DUP2 PUSH2 0x49E JUMP JUMPDEST PUSH4 0xFFFFFFFF PUSH1 0xE0 SHL AND PUSH4 0x152A902D PUSH1 0xE1 SHL DUP2 EQ SWAP1 DUP2 ISZERO PUSH2 0x4F5 JUMPI JUMPDEST POP PUSH1 0x40 MLOAD SWAP1 ISZERO ISZERO DUP2 MSTORE RETURN JUMPDEST PUSH4 0x6CDB3D13 PUSH1 0xE1 SHL DUP2 EQ SWAP2 POP DUP2 ISZERO PUSH2 0x527 JUMPI JUMPDEST DUP2 ISZERO PUSH2 0x516 JUMPI JUMPDEST POP CODESIZE PUSH2 0x4EA JUMP JUMPDEST PUSH4 0x1FFC9A7 PUSH1 0xE0 SHL EQ SWAP1 POP CODESIZE PUSH2 0x50F JUMP JUMPDEST PUSH4 0x3A24D07 PUSH1 0xE2 SHL DUP2 EQ SWAP2 POP PUSH2 0x508 JUMP JUMPDEST PUSH4 0x4E487B71 PUSH1 0xE0 SHL PUSH1 0x0 MSTORE PUSH1 0x41 PUSH1 0x4 MSTORE PUSH1 0x24 PUSH1 0x0 REVERT JUMPDEST PUSH1 0xC0 DUP2 ADD SWAP1 DUP2 LT PUSH1 0x1 PUSH1 0x1 PUSH1 0x40 SHL SUB DUP3 GT OR PUSH2 0x569 JUMPI PUSH1 0x40 MSTORE JUMP JUMPDEST PUSH2 0x538 JUMP JUMPDEST PUSH1 0x40 DUP2 ADD SWAP1 DUP2 LT PUSH1 0x1 PUSH1 0x1 PUSH1 0x40 SHL SUB DUP3 GT OR PUSH2 0x569 JUMPI PUSH1 0x40 MSTORE JUMP JUMPDEST PUSH1 0x60 DUP2 ADD SWAP1 DUP2 LT PUSH1 0x1 PUSH1 0x1 PUSH1 0x40 SHL SUB DUP3 GT OR PUSH2 0x569 JUMPI PUSH1 0x40 MSTORE JUMP JUMPDEST SWAP1 PUSH1 0x1F DUP1 NOT SWAP2 ADD AND DUP2 ADD SWAP1 DUP2 LT PUSH1 0x1 PUSH1 0x1 PUSH1 0x40 SHL SUB DUP3 GT OR PUSH2 0x569 JUMPI PUSH1 0x40 MSTORE JUMP JUMPDEST PUSH1 0x40 MLOAD SWAP1 PUSH2 0x160 DUP3 ADD DUP3 DUP2 LT PUSH1 0x1 PUSH1 0x1 PUSH1 0x40 SHL SUB DUP3 GT OR PUSH2 0x569 JUMPI PUSH1 0x40 MSTORE JUMP JUMPDEST PUSH1 0x1 PUSH1 0x1 PUSH1 0x40 SHL SUB DUP2 GT PUSH2 0x569 JUMPI PUSH1 0x1F ADD PUSH1 0x1F NOT AND PUSH1 0x20 ADD SWAP1 JUMP JUMPDEST DUP2 PUSH1 0x1F DUP3 ADD SLT ISZERO PUSH2 0x448 JUMPI DUP1 CALLDATALOAD SWAP1 PUSH2 0x617 DUP3 PUSH2 0x5E5 JUMP JUMPDEST SWAP3 PUSH2 0x625 PUSH1 0x40 MLOAD SWAP5 DUP6 PUSH2 0x5A4 JUMP JUMPDEST DUP3 DUP5 MSTORE PUSH1 0x20 DUP4 DUP4 ADD ADD GT PUSH2 0x448 JUMPI DUP2 PUSH1 0x0 SWAP3 PUSH1 0x20 DUP1 SWAP4 ADD DUP4 DUP7 ADD CALLDATACOPY DUP4 ADD ADD MSTORE SWAP1 JUMP JUMPDEST CALLVALUE PUSH2 0x448 JUMPI PUSH1 0x20 DUP1 PUSH1 0x3 NOT CALLDATASIZE ADD SLT PUSH2 0x448 JUMPI PUSH1 0x1 PUSH1 0x1 PUSH1 0x40 SHL SUB PUSH1 0x4 CALLDATALOAD DUP2 DUP2 GT PUSH2 0x448 JUMPI PUSH2 0x679 SWAP1 CALLDATASIZE SWAP1 PUSH1 0x4 ADD PUSH2 0x600 JUMP JUMPDEST SWAP2 PUSH2 0x682 PUSH2 0x4142 JUMP JUMPDEST DUP3 MLOAD SWAP2 DUP3 GT PUSH2 0x569 JUMPI PUSH2 0x69F DUP3 PUSH2 0x69A PUSH1 0x2 SLOAD PUSH2 0x7AA JUMP JUMPDEST PUSH2 0x39A9 JUMP JUMPDEST PUSH1 0x20 SWAP1 PUSH1 0x1F DUP4 GT PUSH1 0x1 EQ PUSH2 0x6E1 JUMPI POP DUP2 SWAP1 PUSH2 0x6D1 SWAP4 PUSH1 0x0 SWAP3 PUSH2 0x6D6 JUMPI JUMPDEST POP POP DUP2 PUSH1 0x1 SHL SWAP2 PUSH1 0x0 NOT SWAP1 PUSH1 0x3 SHL SHR NOT AND OR SWAP1 JUMP JUMPDEST PUSH1 0x2 SSTORE STOP JUMPDEST ADD MLOAD SWAP1 POP CODESIZE DUP1 PUSH2 0x6BC JUMP JUMPDEST SWAP1 PUSH1 0x1F NOT DUP4 AND SWAP4 PUSH2 0x714 PUSH1 0x2 PUSH1 0x0 MSTORE PUSH32 0x405787FA12A823E0F2B7631CC41B3BA8828B3321CA811111FA75CD3AA3BB5ACE SWAP1 JUMP JUMPDEST SWAP3 PUSH1 0x0 SWAP1 JUMPDEST DUP7 DUP3 LT PUSH2 0x750 JUMPI POP POP DUP4 PUSH1 0x1 SWAP6 LT PUSH2 0x737 JUMPI JUMPDEST POP POP POP DUP2 SHL ADD PUSH1 0x2 SSTORE STOP JUMPDEST ADD MLOAD PUSH1 0x0 NOT PUSH1 0xF8 DUP5 PUSH1 0x3 SHL AND SHR NOT AND SWAP1 SSTORE CODESIZE DUP1 DUP1 PUSH2 0x72C JUMP JUMPDEST DUP1 PUSH1 0x1 DUP6 SWAP7 DUP3 SWAP5 SWAP7 DUP7 ADD MLOAD DUP2 SSTORE ADD SWAP6 ADD SWAP4 ADD SWAP1 PUSH2 0x719 JUMP JUMPDEST CALLVALUE PUSH2 0x448 JUMPI PUSH1 0x20 CALLDATASIZE PUSH1 0x3 NOT ADD SLT PUSH2 0x448 JUMPI PUSH1 0x4 CALLDATALOAD PUSH2 0x785 DUP2 PUSH2 0x437 JUMP JUMPDEST PUSH1 0x1 DUP1 PUSH1 0xA0 SHL SUB AND PUSH1 0x0 MSTORE PUSH1 0x11 PUSH1 0x20 MSTORE PUSH1 0x20 PUSH1 0xFF PUSH1 0x40 PUSH1 0x0 KECCAK256 SLOAD AND PUSH1 0x40 MLOAD SWAP1 ISZERO ISZERO DUP2 MSTORE RETURN JUMPDEST SWAP1 PUSH1 0x1 DUP3 DUP2 SHR SWAP3 AND DUP1 ISZERO PUSH2 0x7DA JUMPI JUMPDEST PUSH1 0x20 DUP4 LT EQ PUSH2 0x7C4 JUMPI JUMP JUMPDEST PUSH4 0x4E487B71 PUSH1 0xE0 SHL PUSH1 0x0 MSTORE PUSH1 0x22 PUSH1 0x4 MSTORE PUSH1 0x24 PUSH1 0x0 REVERT JUMPDEST SWAP2 PUSH1 0x7F AND SWAP2 PUSH2 0x7B9 JUMP JUMPDEST PUSH1 0x40 MLOAD SWAP1 PUSH1 0x0 DUP3 PUSH1 0x2 SLOAD SWAP2 PUSH2 0x7F8 DUP4 PUSH2 0x7AA JUMP JUMPDEST DUP1 DUP4 MSTORE SWAP3 PUSH1 0x20 SWAP1 PUSH1 0x1 SWAP1 DUP2 DUP2 AND SWAP1 DUP2 ISZERO PUSH2 0x886 JUMPI POP PUSH1 0x1 EQ PUSH2 0x825 JUMPI JUMPDEST POP POP PUSH2 0x823 SWAP3 POP SUB DUP4 PUSH2 0x5A4 JUMP JUMPDEST JUMP JUMPDEST SWAP2 POP SWAP3 PUSH1 0x2 PUSH1 0x0 MSTORE PUSH32 0x405787FA12A823E0F2B7631CC41B3BA8828B3321CA811111FA75CD3AA3BB5ACE SWAP4 PUSH1 0x0 SWAP3 JUMPDEST DUP3 DUP5 LT PUSH2 0x86E JUMPI POP PUSH2 0x823 SWAP5 POP POP POP DUP2 ADD PUSH1 0x20 ADD CODESIZE DUP1 PUSH2 0x815 JUMP JUMPDEST DUP6 SLOAD DUP9 DUP6 ADD DUP4 ADD MSTORE SWAP5 DUP6 ADD SWAP5 DUP8 SWAP5 POP SWAP3 DUP2 ADD SWAP3 PUSH2 0x853 JUMP JUMPDEST SWAP2 POP POP PUSH1 0x20 SWAP3 POP PUSH2 0x823 SWAP5 SWAP2 POP PUSH1 0xFF NOT AND DUP3 DUP5 ADD MSTORE ISZERO ISZERO PUSH1 0x5 SHL DUP3 ADD ADD CODESIZE DUP1 PUSH2 0x815 JUMP JUMPDEST SWAP1 PUSH1 0x40 MLOAD SWAP2 DUP3 PUSH1 0x0 DUP3 SLOAD PUSH2 0x8BD DUP2 PUSH2 0x7AA JUMP JUMPDEST SWAP1 DUP2 DUP5 MSTORE PUSH1 0x20 SWAP5 PUSH1 0x1 SWAP2 PUSH1 0x1 DUP2 AND SWAP1 DUP2 PUSH1 0x0 EQ PUSH2 0x92B JUMPI POP PUSH1 0x1 EQ PUSH2 0x8EC JUMPI JUMPDEST POP POP POP PUSH2 0x823 SWAP3 POP SUB DUP4 PUSH2 0x5A4 JUMP JUMPDEST PUSH1 0x0 SWAP1 DUP2 MSTORE DUP6 DUP2 KECCAK256 SWAP6 SWAP4 POP SWAP2 SWAP1 JUMPDEST DUP2 DUP4 LT PUSH2 0x913 JUMPI POP POP PUSH2 0x823 SWAP4 POP DUP3 ADD ADD CODESIZE DUP1 DUP1 PUSH2 0x8DD JUMP JUMPDEST DUP6 SLOAD DUP9 DUP5 ADD DUP6 ADD MSTORE SWAP5 DUP6 ADD SWAP5 DUP8 SWAP5 POP SWAP2 DUP4 ADD SWAP2 PUSH2 0x8FA JUMP JUMPDEST SWAP3 POP POP POP PUSH2 0x823 SWAP5 SWAP3 POP PUSH1 0xFF NOT AND DUP3 DUP5 ADD MSTORE ISZERO ISZERO PUSH1 0x5 SHL DUP3 ADD ADD CODESIZE DUP1 DUP1 PUSH2 0x8DD JUMP JUMPDEST PUSH1 0x0 JUMPDEST DUP4 DUP2 LT PUSH2 0x960 JUMPI POP POP PUSH1 0x0 SWAP2 ADD MSTORE JUMP JUMPDEST DUP2 DUP2 ADD MLOAD DUP4 DUP3 ADD MSTORE PUSH1 0x20 ADD PUSH2 0x950 JUMP JUMPDEST SWAP1 PUSH1 0x20 SWAP2 PUSH2 0x989 DUP2 MLOAD DUP1 SWAP3 DUP2 DUP6 MSTORE DUP6 DUP1 DUP7 ADD SWAP2 ADD PUSH2 0x94D JUMP JUMPDEST PUSH1 0x1F ADD PUSH1 0x1F NOT AND ADD ADD SWAP1 JUMP JUMPDEST SWAP1 PUSH1 0x20 PUSH2 0x9A6 SWAP3 DUP2 DUP2 MSTORE ADD SWAP1 PUSH2 0x970 JUMP JUMPDEST SWAP1 JUMP JUMPDEST CALLVALUE PUSH2 0x448 JUMPI PUSH1 0x0 DUP1 PUSH1 0x3 NOT CALLDATASIZE ADD SLT PUSH2 0xA8F JUMPI PUSH1 0x40 MLOAD SWAP1 DUP1 PUSH1 0x8 SLOAD SWAP1 PUSH2 0x9CD DUP3 PUSH2 0x7AA JUMP JUMPDEST DUP1 DUP6 MSTORE SWAP2 PUSH1 0x20 SWAP2 PUSH1 0x1 SWAP2 DUP3 DUP2 AND SWAP1 DUP2 ISZERO PUSH2 0xA62 JUMPI POP PUSH1 0x1 EQ PUSH2 0xA0A JUMPI JUMPDEST PUSH2 0xA06 DUP7 PUSH2 0x9FA DUP2 DUP9 SUB DUP3 PUSH2 0x5A4 JUMP JUMPDEST PUSH1 0x40 MLOAD SWAP2 DUP3 SWAP2 DUP3 PUSH2 0x995 JUMP JUMPDEST SUB SWAP1 RETURN JUMPDEST SWAP4 POP PUSH1 0x8 DUP5 MSTORE PUSH32 0xF3F7A9FE364FAAB93B216DA50A3214154F22A0A2B415B23A84C8169E8B636EE3 JUMPDEST DUP4 DUP6 LT PUSH2 0xA4F JUMPI POP POP POP POP DUP2 ADD PUSH1 0x20 ADD PUSH2 0x9FA DUP3 PUSH2 0xA06 CODESIZE PUSH2 0x9EA JUMP JUMPDEST DUP1 SLOAD DUP7 DUP7 ADD DUP5 ADD MSTORE SWAP4 DUP3 ADD SWAP4 DUP2 ADD PUSH2 0xA32 JUMP JUMPDEST SWAP1 POP DUP7 SWAP6 POP PUSH2 0xA06 SWAP7 SWAP4 POP PUSH1 0x20 SWAP3 POP PUSH2 0x9FA SWAP5 SWAP2 POP PUSH1 0xFF NOT AND DUP3 DUP5 ADD MSTORE ISZERO ISZERO PUSH1 0x5 SHL DUP3 ADD ADD SWAP3 SWAP4 CODESIZE PUSH2 0x9EA JUMP JUMPDEST DUP1 REVERT JUMPDEST CALLVALUE PUSH2 0x448 JUMPI PUSH1 0x20 CALLDATASIZE PUSH1 0x3 NOT ADD SLT PUSH2 0x448 JUMPI PUSH2 0xA06 PUSH2 0xAB1 PUSH1 0x4 CALLDATALOAD PUSH2 0x30A9 JUMP JUMPDEST PUSH1 0x40 MLOAD SWAP2 DUP3 SWAP2 PUSH1 0x20 DUP4 MSTORE PUSH1 0x20 DUP4 ADD SWAP1 PUSH2 0x970 JUMP JUMPDEST CALLVALUE PUSH2 0x448 JUMPI PUSH1 0x20 CALLDATASIZE PUSH1 0x3 NOT ADD SLT PUSH2 0x448 JUMPI PUSH1 0x4 CALLDATALOAD PUSH2 0xAE1 PUSH2 0x4142 JUMP JUMPDEST PUSH2 0x3E8 DUP2 GT PUSH2 0xB27 JUMPI PUSH1 0xA DUP1 SLOAD SWAP1 DUP3 SWAP1 SSTORE PUSH1 0x40 DUP1 MLOAD SWAP2 DUP3 MSTORE PUSH1 0x20 DUP3 ADD SWAP3 SWAP1 SWAP3 MSTORE PUSH32 0xD347E206F25A89B917FC9482F1A2D294D749BAA4DC9BDE7FB495EE11FE491643 SWAP2 SWAP1 LOG1 STOP JUMPDEST PUSH1 0x40 MLOAD PUSH3 0x461BCD PUSH1 0xE5 SHL DUP2 MSTORE PUSH1 0x20 PUSH1 0x4 DUP3 ADD MSTORE PUSH1 0xC PUSH1 0x24 DUP3 ADD MSTORE PUSH12 0x8CCACA40E8DEDE40D0D2CED PUSH1 0xA3 SHL PUSH1 0x44 DUP3 ADD MSTORE PUSH1 0x64 SWAP1 REVERT JUMPDEST CALLVALUE PUSH2 0x448 JUMPI PUSH1 0x40 CALLDATASIZE PUSH1 0x3 NOT ADD SLT PUSH2 0x448 JUMPI PUSH1 0x24 CALLDATALOAD PUSH1 0x4 CALLDATALOAD PUSH2 0xB7A PUSH2 0x4142 JUMP JUMPDEST DUP2 DUP2 ADD DUP1 DUP3 GT PUSH2 0xBD9 JUMPI PUSH2 0x7D0 LT PUSH2 0xB94 JUMPI PUSH1 0xB SSTORE PUSH1 0xC SSTORE STOP JUMPDEST PUSH1 0x40 MLOAD PUSH3 0x461BCD PUSH1 0xE5 SHL DUP2 MSTORE PUSH1 0x20 PUSH1 0x4 DUP3 ADD MSTORE PUSH1 0x1C PUSH1 0x24 DUP3 ADD MSTORE PUSH32 0x546F74616C20666565732063616E6E6F74206578636565642032302500000000 PUSH1 0x44 DUP3 ADD MSTORE PUSH1 0x64 SWAP1 REVERT JUMPDEST PUSH2 0x318E JUMP JUMPDEST SWAP7 SWAP4 SWAP1 PUSH2 0x120 SWAP9 SWAP6 SWAP12 SWAP11 SWAP10 SWAP7 SWAP4 PUSH2 0xC12 PUSH2 0xC2E SWAP5 PUSH2 0xC20 SWAP4 PUSH2 0x140 SWAP1 PUSH1 0x1 DUP1 PUSH1 0xA0 SHL SUB AND DUP13 MSTORE DUP1 PUSH1 0x20 DUP14 ADD MSTORE DUP12 ADD SWAP1 PUSH2 0x970 JUMP JUMPDEST SWAP1 DUP10 DUP3 SUB PUSH1 0x40 DUP12 ADD MSTORE PUSH2 0x970 JUMP JUMPDEST SWAP1 DUP8 DUP3 SUB PUSH1 0x60 DUP10 ADD MSTORE PUSH2 0x970 JUMP JUMPDEST SWAP9 PUSH1 0x80 DUP7 ADD MSTORE PUSH1 0xA0 DUP6 ADD MSTORE PUSH1 0xC0 DUP5 ADD MSTORE PUSH1 0xE0 DUP4 ADD MSTORE ISZERO ISZERO PUSH2 0x100 DUP3 ADD MSTORE ADD MSTORE JUMP JUMPDEST CALLVALUE PUSH2 0x448 JUMPI PUSH1 0x20 CALLDATASIZE PUSH1 0x3 NOT ADD SLT PUSH2 0x448 JUMPI PUSH1 0x4 CALLDATALOAD PUSH1 0xE SLOAD DUP2 GT ISZERO DUP1 PUSH2 0xD81 JUMPI JUMPDEST PUSH2 0xC78 SWAP1 PUSH2 0x3213 JUMP JUMPDEST PUSH1 0x0 MSTORE PUSH1 0x17 PUSH1 0x20 MSTORE PUSH1 0x40 PUSH1 0x0 KECCAK256 PUSH2 0xC8D PUSH2 0x5C5 JUMP JUMPDEST DUP2 SLOAD DUP2 MSTORE PUSH1 0x1 DUP3 ADD SLOAD PUSH1 0x1 PUSH1 0x1 PUSH1 0xA0 SHL SUB AND PUSH1 0x20 DUP3 ADD SWAP1 DUP2 MSTORE SWAP1 SWAP2 SWAP1 PUSH2 0xA06 SWAP1 PUSH2 0x140 SWAP1 PUSH2 0xCBD PUSH1 0x2 DUP6 ADD PUSH2 0x8AA JUMP JUMPDEST SWAP4 PUSH1 0x40 DUP7 ADD SWAP5 DUP6 MSTORE PUSH2 0xCD1 PUSH1 0x3 DUP3 ADD PUSH2 0x8AA JUMP JUMPDEST SWAP6 PUSH1 0x60 DUP2 ADD SWAP7 DUP8 MSTORE PUSH2 0xCE5 PUSH1 0x4 DUP4 ADD PUSH2 0x1552 JUMP JUMPDEST SWAP3 PUSH1 0x80 DUP3 ADD SWAP4 DUP5 MSTORE PUSH2 0xCF9 PUSH1 0x5 DUP5 ADD PUSH2 0x8AA JUMP JUMPDEST SWAP4 PUSH1 0xA0 DUP4 ADD SWAP5 DUP6 MSTORE PUSH1 0x6 DUP5 ADD SLOAD SWAP1 PUSH1 0xC0 DUP5 ADD SWAP2 DUP3 MSTORE PUSH2 0xD74 PUSH2 0xD5E PUSH1 0x7 DUP8 ADD SLOAD SWAP5 PUSH1 0xE0 DUP8 ADD SWAP6 DUP7 MSTORE PUSH1 0x8 DUP9 ADD SLOAD SWAP7 PUSH2 0x100 DUP2 ADD SWAP8 DUP9 MSTORE PUSH1 0xA PUSH2 0xD3F PUSH1 0x9 DUP12 ADD SLOAD PUSH1 0xFF AND SWAP1 JUMP JUMPDEST ISZERO ISZERO PUSH2 0x120 DUP4 ADD SWAP1 DUP2 MSTORE SWAP10 ADD SLOAD SWAP11 ADD DUP11 SWAP1 MSTORE MLOAD PUSH1 0x1 PUSH1 0x1 PUSH1 0xA0 SHL SUB AND SWAP1 JUMP JUMPDEST SWAP10 MLOAD SWAP11 MLOAD SWAP7 MLOAD SWAP2 MLOAD MLOAD SWAP3 MLOAD SWAP4 MLOAD SWAP5 MLOAD SWAP6 MLOAD ISZERO ISZERO SWAP1 JUMP JUMPDEST SWAP6 PUSH1 0x40 MLOAD SWAP11 DUP12 SWAP11 DUP12 PUSH2 0xBDE JUMP JUMPDEST POP DUP1 ISZERO ISZERO PUSH2 0xC6F JUMP JUMPDEST SWAP5 SWAP2 SWAP3 PUSH2 0xDB9 PUSH1 0xA0 SWAP6 SWAP9 SWAP8 SWAP5 PUSH2 0xDAB PUSH2 0xDC7 SWAP5 PUSH1 0xC0 DUP11 MSTORE PUSH1 0xC0 DUP11 ADD SWAP1 PUSH2 0x970 JUMP JUMPDEST SWAP1 DUP9 DUP3 SUB PUSH1 0x20 DUP11 ADD MSTORE PUSH2 0x970 JUMP JUMPDEST SWAP1 DUP7 DUP3 SUB PUSH1 0x40 DUP9 ADD MSTORE PUSH2 0x970 JUMP JUMPDEST SWAP6 PUSH1 0x60 DUP6 ADD MSTORE PUSH1 0x80 DUP5 ADD MSTORE ISZERO ISZERO SWAP2 ADD MSTORE JUMP JUMPDEST CALLVALUE PUSH2 0x448 JUMPI PUSH1 0x20 CALLDATASIZE PUSH1 0x3 NOT ADD SLT PUSH2 0x448 JUMPI PUSH1 0x4 CALLDATALOAD PUSH2 0xDF6 DUP2 PUSH2 0x437 JUMP JUMPDEST PUSH1 0x1 PUSH1 0x1 PUSH1 0xA0 SHL SUB AND PUSH1 0x0 SWAP1 DUP2 MSTORE PUSH1 0x16 PUSH1 0x20 MSTORE PUSH1 0x40 SWAP1 KECCAK256 PUSH2 0xE16 DUP2 PUSH2 0x8AA JUMP JUMPDEST PUSH2 0xA06 PUSH2 0xE25 PUSH1 0x1 DUP5 ADD PUSH2 0x8AA JUMP JUMPDEST SWAP3 PUSH2 0xE32 PUSH1 0x2 DUP3 ADD PUSH2 0x8AA JUMP JUMPDEST SWAP1 PUSH1 0x3 DUP2 ADD SLOAD PUSH1 0xFF PUSH1 0x5 PUSH1 0x4 DUP5 ADD SLOAD SWAP4 ADD SLOAD AND SWAP3 PUSH1 0x40 MLOAD SWAP7 DUP8 SWAP7 DUP8 PUSH2 0xD8A JUMP JUMPDEST CALLVALUE PUSH2 0x448 JUMPI PUSH1 0x20 CALLDATASIZE PUSH1 0x3 NOT ADD SLT PUSH2 0x448 JUMPI PUSH1 0x4 CALLDATALOAD PUSH2 0xE6F DUP2 PUSH2 0x437 JUMP JUMPDEST PUSH1 0x0 SWAP1 CALLER DUP3 MSTORE PUSH1 0x12 PUSH1 0x20 MSTORE PUSH1 0xFF PUSH1 0x40 DUP4 KECCAK256 SLOAD AND DUP1 ISZERO PUSH2 0xFD7 JUMPI JUMPDEST PUSH2 0xE92 SWAP1 PUSH2 0x3252 JUMP JUMPDEST PUSH1 0x1 PUSH1 0x1 PUSH1 0xA0 SHL SUB DUP2 AND PUSH1 0x0 SWAP1 DUP2 MSTORE PUSH1 0x12 PUSH1 0x20 MSTORE PUSH1 0x40 SWAP1 KECCAK256 PUSH2 0xEBF SWAP1 PUSH2 0xEBA SWAP1 JUMPDEST SLOAD PUSH1 0xFF AND SWAP1 JUMP JUMPDEST PUSH2 0x3252 JUMP JUMPDEST PUSH1 0x5 SLOAD PUSH1 0x1 PUSH1 0x1 PUSH1 0xA0 SHL SUB DUP3 DUP2 AND SWAP3 PUSH2 0xF13 SWAP3 PUSH2 0xF09 SWAP3 PUSH2 0xEE3 SWAP2 AND DUP6 EQ ISZERO PUSH2 0x328D JUMP JUMPDEST PUSH2 0xEEF CALLER DUP6 EQ ISZERO PUSH2 0x32D9 JUMP JUMPDEST PUSH1 0x1 PUSH1 0x1 PUSH1 0xA0 SHL SUB AND PUSH1 0x0 SWAP1 DUP2 MSTORE PUSH1 0x12 PUSH1 0x20 MSTORE PUSH1 0x40 SWAP1 KECCAK256 SWAP1 JUMP JUMPDEST DUP1 SLOAD PUSH1 0xFF NOT AND SWAP1 SSTORE JUMP JUMPDEST DUP2 JUMPDEST PUSH1 0x15 SLOAD SWAP1 DUP2 DUP2 LT ISZERO PUSH2 0xFD0 JUMPI DUP3 PUSH2 0xF52 PUSH2 0xF46 PUSH2 0xF31 DUP5 PUSH2 0x18BE JUMP JUMPDEST SWAP1 SLOAD PUSH1 0x3 SWAP2 SWAP1 SWAP2 SHL SHR PUSH1 0x1 PUSH1 0x1 PUSH1 0xA0 SHL SUB AND SWAP1 JUMP JUMPDEST PUSH1 0x1 PUSH1 0x1 PUSH1 0xA0 SHL SUB AND SWAP1 JUMP JUMPDEST EQ PUSH2 0xF61 JUMPI PUSH1 0x1 SWAP2 POP ADD PUSH2 0xF15 JUMP JUMPDEST PUSH2 0xF81 PUSH2 0xF7B PUSH2 0xF31 PUSH2 0xF76 PUSH2 0xF9F SWAP6 PUSH2 0x332F JUMP JUMPDEST PUSH2 0x18BE JUMP JUMPDEST SWAP2 PUSH2 0x18BE JUMP JUMPDEST SWAP1 SWAP2 SWAP1 PUSH1 0x1 DUP1 PUSH1 0xA0 SHL SUB DUP1 DUP5 SLOAD SWAP3 PUSH1 0x3 SHL SWAP4 AND DUP4 SHL SWAP3 SHL NOT AND OR SWAP1 SSTORE JUMP JUMPDEST PUSH2 0xFA7 PUSH2 0x335A JUMP JUMPDEST CALLER SWAP1 PUSH32 0xDB9D5D31320DAF5BC7181D565B6DA4D12E30F0F4D5AA324A992426C14A1D19CE DUP4 DUP1 LOG3 DUP1 RETURN JUMPDEST POP POP PUSH2 0xFA7 JUMP JUMPDEST POP PUSH1 0x5 SLOAD PUSH1 0x1 PUSH1 0x1 PUSH1 0xA0 SHL SUB AND CALLER EQ PUSH2 0xE89 JUMP JUMPDEST CALLVALUE PUSH2 0x448 JUMPI PUSH1 0x0 CALLDATASIZE PUSH1 0x3 NOT ADD SLT PUSH2 0x448 JUMPI PUSH1 0x20 PUSH1 0x4 SLOAD PUSH1 0x40 MLOAD SWAP1 DUP2 MSTORE RETURN JUMPDEST CALLVALUE PUSH2 0x448 JUMPI PUSH1 0x0 CALLDATASIZE PUSH1 0x3 NOT ADD SLT PUSH2 0x448 JUMPI PUSH1 0x20 PUSH1 0xFF PUSH1 0xF SLOAD AND PUSH1 0x40 MLOAD SWAP1 ISZERO ISZERO DUP2 MSTORE RETURN JUMPDEST CALLVALUE PUSH2 0x448 JUMPI PUSH1 0x20 CALLDATASIZE PUSH1 0x3 NOT ADD SLT PUSH2 0x448 JUMPI PUSH1 0x4 CALLDATALOAD PUSH2 0x1049 DUP2 PUSH2 0x437 JUMP JUMPDEST PUSH1 0x1 DUP1 PUSH1 0xA0 SHL SUB AND PUSH1 0x0 MSTORE PUSH1 0x12 PUSH1 0x20 MSTORE PUSH1 0x20 PUSH1 0xFF PUSH1 0x40 PUSH1 0x0 KECCAK256 SLOAD AND PUSH1 0x40 MLOAD SWAP1 ISZERO ISZERO DUP2 MSTORE RETURN JUMPDEST CALLVALUE PUSH2 0x448 JUMPI PUSH1 0x40 CALLDATASIZE PUSH1 0x3 NOT ADD SLT PUSH2 0x448 JUMPI PUSH1 0x4 CALLDATALOAD PUSH1 0xE SLOAD DUP2 GT ISZERO DUP1 PUSH2 0x11A2 JUMPI JUMPDEST PUSH2 0x1097 SWAP1 PUSH2 0x3213 JUMP JUMPDEST PUSH1 0x0 MSTORE PUSH1 0x17 PUSH1 0x20 MSTORE PUSH1 0x40 PUSH1 0x0 KECCAK256 PUSH2 0x10AC PUSH2 0x5C5 JUMP JUMPDEST DUP2 SLOAD DUP2 MSTORE PUSH1 0x1 DUP3 ADD SLOAD PUSH1 0x1 PUSH1 0x1 PUSH1 0xA0 SHL SUB AND PUSH1 0x20 DUP3 ADD SWAP1 DUP2 MSTORE SWAP2 PUSH2 0x140 SWAP1 PUSH1 0xA SWAP1 PUSH2 0x10D9 PUSH1 0x2 DUP3 ADD PUSH2 0x8AA JUMP JUMPDEST PUSH1 0x40 DUP6 ADD MSTORE PUSH2 0x10EA PUSH1 0x3 DUP3 ADD PUSH2 0x8AA JUMP JUMPDEST PUSH1 0x60 DUP6 ADD MSTORE PUSH2 0x10FB PUSH1 0x4 DUP3 ADD PUSH2 0x1552 JUMP JUMPDEST PUSH1 0x80 DUP6 ADD MSTORE PUSH2 0x110C PUSH1 0x5 DUP3 ADD PUSH2 0x8AA JUMP JUMPDEST PUSH1 0xA0 DUP6 ADD MSTORE PUSH1 0x6 DUP2 ADD SLOAD PUSH1 0xC0 DUP6 ADD MSTORE PUSH1 0x7 DUP2 ADD SLOAD PUSH1 0xE0 DUP6 ADD MSTORE PUSH1 0x8 DUP2 ADD SLOAD PUSH2 0x100 DUP6 ADD MSTORE PUSH2 0x114B PUSH2 0x1141 PUSH1 0x9 DUP4 ADD SLOAD PUSH1 0xFF AND SWAP1 JUMP JUMPDEST ISZERO ISZERO PUSH2 0x120 DUP7 ADD MSTORE JUMP JUMPDEST ADD SLOAD SWAP2 ADD MSTORE PUSH2 0x1186 PUSH2 0x1178 PUSH2 0x1170 PUSH2 0x1168 PUSH1 0xB SLOAD PUSH1 0xC SLOAD SWAP1 PUSH2 0x3206 JUMP JUMPDEST PUSH1 0x24 CALLDATALOAD PUSH2 0x3446 JUMP JUMPDEST PUSH2 0x2710 SWAP1 DIV SWAP1 JUMP JUMPDEST SWAP2 MLOAD PUSH1 0x1 PUSH1 0x1 PUSH1 0xA0 SHL SUB AND SWAP1 JUMP JUMPDEST PUSH1 0x40 DUP1 MLOAD PUSH1 0x1 PUSH1 0x1 PUSH1 0xA0 SHL SUB SWAP3 SWAP1 SWAP3 AND DUP3 MSTORE PUSH1 0x20 DUP3 ADD SWAP3 SWAP1 SWAP3 MSTORE RETURN JUMPDEST POP DUP1 ISZERO ISZERO PUSH2 0x108E JUMP JUMPDEST PUSH1 0x1 PUSH1 0x1 PUSH1 0x40 SHL SUB DUP2 GT PUSH2 0x569 JUMPI PUSH1 0x5 SHL PUSH1 0x20 ADD SWAP1 JUMP JUMPDEST SWAP1 DUP1 PUSH1 0x1F DUP4 ADD SLT ISZERO PUSH2 0x448 JUMPI PUSH1 0x20 SWAP1 DUP3 CALLDATALOAD PUSH2 0x11DC DUP2 PUSH2 0x11AB JUMP JUMPDEST SWAP4 PUSH2 0x11EA PUSH1 0x40 MLOAD SWAP6 DUP7 PUSH2 0x5A4 JUMP JUMPDEST DUP2 DUP6 MSTORE PUSH1 0x20 DUP1 DUP7 ADD SWAP3 PUSH1 0x5 SHL DUP3 ADD ADD SWAP3 DUP4 GT PUSH2 0x448 JUMPI PUSH1 0x20 ADD SWAP1 JUMPDEST DUP3 DUP3 LT PUSH2 0x1213 JUMPI POP POP POP POP SWAP1 JUMP JUMPDEST DUP2 CALLDATALOAD DUP2 MSTORE SWAP1 DUP4 ADD SWAP1 DUP4 ADD PUSH2 0x1205 JUMP JUMPDEST CALLVALUE PUSH2 0x448 JUMPI PUSH1 0xA0 CALLDATASIZE PUSH1 0x3 NOT ADD SLT PUSH2 0x448 JUMPI PUSH1 0x4 DUP1 CALLDATALOAD PUSH2 0x1240 DUP2 PUSH2 0x437 JUMP JUMPDEST PUSH1 0x24 CALLDATALOAD PUSH2 0x124C DUP2 PUSH2 0x437 JUMP JUMPDEST PUSH1 0x1 PUSH1 0x1 PUSH1 0x40 SHL SUB SWAP1 PUSH1 0x44 CALLDATALOAD DUP3 DUP2 GT PUSH2 0x448 JUMPI PUSH2 0x126C SWAP1 CALLDATASIZE SWAP1 DUP7 ADD PUSH2 0x11C2 JUMP JUMPDEST SWAP1 PUSH1 0x64 CALLDATALOAD DUP4 DUP2 GT PUSH2 0x448 JUMPI PUSH2 0x1284 SWAP1 CALLDATASIZE SWAP1 DUP8 ADD PUSH2 0x11C2 JUMP JUMPDEST SWAP3 PUSH1 0x84 CALLDATALOAD SWAP1 DUP2 GT PUSH2 0x448 JUMPI PUSH2 0x129C SWAP1 CALLDATASIZE SWAP1 DUP8 ADD PUSH2 0x600 JUMP JUMPDEST SWAP4 PUSH1 0x1 PUSH1 0x1 PUSH1 0xA0 SHL SUB DUP1 DUP3 AND SWAP1 CALLER DUP3 EQ ISZERO DUP1 PUSH2 0x132B JUMPI JUMPDEST PUSH2 0x12FE JUMPI DUP4 AND ISZERO PUSH2 0x12E6 JUMPI ISZERO PUSH2 0x12CF JUMPI PUSH2 0x12CD SWAP6 POP PUSH2 0x4D01 JUMP JUMPDEST STOP JUMPDEST PUSH1 0x40 MLOAD PUSH3 0x6A0D45 PUSH1 0xE2 SHL DUP2 MSTORE PUSH1 0x0 DUP2 DUP9 ADD MSTORE PUSH1 0x24 SWAP1 REVERT JUMPDEST PUSH1 0x40 MLOAD PUSH4 0x2BFA23E7 PUSH1 0xE1 SHL DUP2 MSTORE PUSH1 0x0 DUP2 DUP10 ADD MSTORE PUSH1 0x24 SWAP1 REVERT JUMPDEST PUSH1 0x40 DUP1 MLOAD PUSH4 0x711BEC91 PUSH1 0xE1 SHL DUP2 MSTORE CALLER DUP2 DUP12 ADD SWAP1 DUP2 MSTORE PUSH1 0x1 PUSH1 0x1 PUSH1 0xA0 SHL SUB DUP7 AND PUSH1 0x20 DUP3 ADD MSTORE SWAP1 SWAP2 DUP3 SWAP2 ADD SUB SWAP1 REVERT JUMPDEST POP PUSH1 0x0 DUP3 DUP2 MSTORE PUSH1 0x1 PUSH1 0x20 SWAP1 DUP2 MSTORE PUSH1 0x40 DUP1 DUP4 KECCAK256 CALLER DUP5 MSTORE SWAP1 SWAP2 MSTORE SWAP1 KECCAK256 SLOAD PUSH1 0xFF AND ISZERO PUSH2 0x12B3 JUMP JUMPDEST CALLVALUE PUSH2 0x448 JUMPI PUSH1 0x20 CALLDATASIZE PUSH1 0x3 NOT ADD SLT PUSH2 0x448 JUMPI PUSH1 0x4 CALLDATALOAD PUSH1 0x0 MSTORE PUSH1 0x18 PUSH1 0x20 MSTORE PUSH1 0x20 PUSH1 0x1 DUP1 PUSH1 0xA0 SHL SUB PUSH1 0x40 PUSH1 0x0 KECCAK256 SLOAD AND PUSH1 0x40 MLOAD SWAP1 DUP2 MSTORE RETURN JUMPDEST CALLVALUE PUSH2 0x448 JUMPI PUSH1 0x0 CALLDATASIZE PUSH1 0x3 NOT ADD SLT PUSH2 0x448 JUMPI PUSH1 0x20 PUSH1 0x40 MLOAD PUSH2 0x3E8 DUP2 MSTORE RETURN JUMPDEST SWAP1 SWAP2 PUSH2 0x13B7 PUSH2 0x9A6 SWAP4 PUSH1 0x40 DUP5 MSTORE PUSH1 0x40 DUP5 ADD SWAP1 PUSH2 0x970 JUMP JUMPDEST SWAP2 PUSH1 0x20 DUP2 DUP5 SUB SWAP2 ADD MSTORE PUSH2 0x970 JUMP JUMPDEST CALLVALUE PUSH2 0x448 JUMPI PUSH1 0x20 CALLDATASIZE PUSH1 0x3 NOT ADD SLT PUSH2 0x448 JUMPI PUSH1 0x4 CALLDATALOAD PUSH1 0xE SLOAD DUP2 GT ISZERO DUP1 PUSH2 0x14C1 JUMPI JUMPDEST PUSH2 0x13EE SWAP1 PUSH2 0x3213 JUMP JUMPDEST PUSH1 0x0 MSTORE PUSH1 0x17 PUSH1 0x20 MSTORE PUSH1 0x40 PUSH1 0x0 KECCAK256 PUSH2 0x1403 PUSH2 0x5C5 JUMP JUMPDEST DUP2 SLOAD DUP2 MSTORE PUSH1 0x1 DUP3 ADD SLOAD PUSH2 0x142A SWAP1 PUSH1 0x1 PUSH1 0x1 PUSH1 0xA0 SHL SUB AND JUMPDEST PUSH1 0x1 PUSH1 0x1 PUSH1 0xA0 SHL SUB AND PUSH1 0x20 DUP4 ADD MSTORE JUMP JUMPDEST PUSH2 0x1436 PUSH1 0x2 DUP4 ADD PUSH2 0x8AA JUMP JUMPDEST PUSH1 0x40 DUP3 ADD MSTORE PUSH2 0x1447 PUSH1 0x3 DUP4 ADD PUSH2 0x8AA JUMP JUMPDEST PUSH1 0x60 DUP3 ADD MSTORE PUSH2 0x1458 PUSH1 0x4 DUP4 ADD PUSH2 0x1552 JUMP JUMPDEST SWAP1 PUSH1 0x80 DUP2 ADD SWAP2 DUP3 MSTORE PUSH2 0x140 PUSH1 0xA PUSH2 0x1471 PUSH1 0x5 DUP7 ADD PUSH2 0x8AA JUMP JUMPDEST SWAP5 PUSH1 0xA0 DUP5 ADD SWAP6 DUP7 MSTORE PUSH1 0x6 DUP2 ADD SLOAD PUSH1 0xC0 DUP6 ADD MSTORE PUSH1 0x7 DUP2 ADD SLOAD PUSH1 0xE0 DUP6 ADD MSTORE PUSH1 0x8 DUP2 ADD SLOAD PUSH2 0x100 DUP6 ADD MSTORE PUSH2 0x14A9 PUSH2 0x1141 PUSH1 0x9 DUP4 ADD SLOAD PUSH1 0xFF AND SWAP1 JUMP JUMPDEST ADD SLOAD SWAP2 ADD MSTORE MLOAD SWAP1 MLOAD SWAP1 PUSH2 0xA06 PUSH1 0x40 MLOAD SWAP3 DUP4 SWAP3 DUP4 PUSH2 0x13A0 JUMP JUMPDEST POP DUP1 ISZERO ISZERO PUSH2 0x13E5 JUMP JUMPDEST CALLVALUE PUSH2 0x448 JUMPI PUSH1 0x0 CALLDATASIZE PUSH1 0x3 NOT ADD SLT PUSH2 0x448 JUMPI PUSH2 0x14E3 PUSH2 0x4142 JUMP JUMPDEST PUSH1 0x7 SLOAD PUSH1 0xFF DUP2 AND ISZERO PUSH2 0x1522 JUMPI PUSH1 0xFF NOT AND PUSH1 0x7 SSTORE PUSH32 0x5DB9EE0A495BF2E6FF9C91A7834C1BA4FDD244A5E8AA4E537BD38AEAE4B073AA PUSH1 0x20 PUSH1 0x40 MLOAD CALLER DUP2 MSTORE LOG1 STOP JUMPDEST PUSH1 0x40 MLOAD PUSH4 0x8DFC202B PUSH1 0xE0 SHL DUP2 MSTORE PUSH1 0x4 SWAP1 REVERT JUMPDEST CALLVALUE PUSH2 0x448 JUMPI PUSH1 0x0 CALLDATASIZE PUSH1 0x3 NOT ADD SLT PUSH2 0x448 JUMPI PUSH1 0x20 PUSH1 0xB SLOAD PUSH1 0x40 MLOAD SWAP1 DUP2 MSTORE RETURN JUMPDEST SWAP1 PUSH1 0x40 MLOAD SWAP2 DUP3 PUSH1 0x0 DUP3 SLOAD PUSH2 0x1565 DUP2 PUSH2 0x7AA JUMP JUMPDEST SWAP1 DUP2 DUP5 MSTORE PUSH1 0x20 SWAP5 PUSH1 0x1 SWAP2 PUSH1 0x1 DUP2 AND SWAP1 DUP2 PUSH1 0x0 EQ PUSH2 0x92B JUMPI POP PUSH1 0x1 EQ PUSH2 0x1593 JUMPI POP POP POP PUSH2 0x823 SWAP3 POP SUB DUP4 PUSH2 0x5A4 JUMP JUMPDEST PUSH1 0x0 SWAP1 DUP2 MSTORE DUP6 DUP2 KECCAK256 SWAP6 SWAP4 POP SWAP2 SWAP1 JUMPDEST DUP2 DUP4 LT PUSH2 0x15BA JUMPI POP POP PUSH2 0x823 SWAP4 POP DUP3 ADD ADD CODESIZE DUP1 DUP1 PUSH2 0x8DD JUMP JUMPDEST DUP6 SLOAD DUP9 DUP5 ADD DUP6 ADD MSTORE SWAP5 DUP6 ADD SWAP5 DUP8 SWAP5 POP SWAP2 DUP4 ADD SWAP2 PUSH2 0x15A1 JUMP JUMPDEST SWAP8 SWAP5 SWAP1 PUSH2 0x163B SWAP5 PUSH2 0x1611 PUSH2 0x140 SWAP12 SWAP9 SWAP6 SWAP10 SWAP15 SWAP14 SWAP13 SWAP10 PUSH2 0x162D SWAP6 PUSH2 0x161F SWAP5 PUSH1 0x40 DUP15 PUSH2 0x160 SWAP4 DUP5 SWAP4 DUP3 MSTORE PUSH1 0x1 DUP1 PUSH1 0xA0 SHL SUB AND PUSH1 0x20 DUP3 ADD MSTORE ADD MSTORE DUP13 ADD SWAP1 PUSH2 0x970 JUMP JUMPDEST SWAP1 DUP11 DUP3 SUB PUSH1 0x60 DUP13 ADD MSTORE PUSH2 0x970 JUMP JUMPDEST SWAP1 DUP9 DUP3 SUB PUSH1 0x80 DUP11 ADD MSTORE PUSH2 0x970 JUMP JUMPDEST SWAP1 DUP7 DUP3 SUB PUSH1 0xA0 DUP9 ADD MSTORE PUSH2 0x970 JUMP JUMPDEST SWAP8 PUSH1 0xC0 DUP6 ADD MSTORE PUSH1 0xE0 DUP5 ADD MSTORE PUSH2 0x100 DUP4 ADD MSTORE ISZERO ISZERO PUSH2 0x120 DUP3 ADD MSTORE ADD MSTORE JUMP JUMPDEST CALLVALUE PUSH2 0x448 JUMPI PUSH1 0x20 CALLDATASIZE PUSH1 0x3 NOT ADD SLT PUSH2 0x448 JUMPI PUSH1 0x4 CALLDATALOAD PUSH1 0x0 SWAP1 DUP2 MSTORE PUSH1 0x17 PUSH1 0x20 MSTORE PUSH1 0x40 SWAP1 KECCAK256 DUP1 SLOAD PUSH1 0x1 DUP3 ADD SLOAD PUSH1 0x1 PUSH1 0x1 PUSH1 0xA0 SHL SUB AND SWAP2 PUSH2 0xA06 SWAP1 PUSH2 0x169B PUSH1 0x2 DUP3 ADD PUSH2 0x8AA JUMP JUMPDEST SWAP1 PUSH2 0x16A8 PUSH1 0x3 DUP3 ADD PUSH2 0x8AA JUMP JUMPDEST PUSH2 0x16B4 PUSH1 0x4 DUP4 ADD PUSH2 0x1552 JUMP JUMPDEST PUSH2 0x16C0 PUSH1 0x5 DUP5 ADD PUSH2 0x8AA JUMP JUMPDEST PUSH1 0x6 DUP5 ADD SLOAD SWAP1 PUSH1 0x7 DUP6 ADD SLOAD SWAP3 PUSH1 0x8 DUP7 ADD SLOAD SWAP5 PUSH1 0xA PUSH1 0xFF PUSH1 0x9 DUP10 ADD SLOAD AND SWAP8 ADD SLOAD SWAP8 PUSH1 0x40 MLOAD SWAP12 DUP13 SWAP12 DUP13 PUSH2 0x15D2 JUMP JUMPDEST CALLVALUE PUSH2 0x448 JUMPI PUSH1 0x20 CALLDATASIZE PUSH1 0x3 NOT ADD SLT PUSH2 0x448 JUMPI PUSH1 0x4 CALLDATALOAD PUSH2 0x1709 DUP2 PUSH2 0x437 JUMP JUMPDEST PUSH1 0x1 DUP1 PUSH1 0xA0 SHL SUB AND PUSH1 0x0 MSTORE PUSH1 0x10 PUSH1 0x20 MSTORE PUSH1 0x20 PUSH1 0xFF PUSH1 0x40 PUSH1 0x0 KECCAK256 SLOAD AND PUSH1 0x40 MLOAD SWAP1 ISZERO ISZERO DUP2 MSTORE RETURN JUMPDEST SWAP1 DUP2 MLOAD DUP1 DUP3 MSTORE PUSH1 0x20 DUP1 DUP1 SWAP4 ADD SWAP4 ADD SWAP2 PUSH1 0x0 JUMPDEST DUP3 DUP2 LT PUSH2 0x174E JUMPI POP POP POP POP SWAP1 JUMP JUMPDEST DUP4 MLOAD DUP6 MSTORE SWAP4 DUP2 ADD SWAP4 SWAP3 DUP2 ADD SWAP3 PUSH1 0x1 ADD PUSH2 0x1740 JUMP JUMPDEST SWAP1 PUSH1 0x20 PUSH2 0x9A6 SWAP3 DUP2 DUP2 MSTORE ADD SWAP1 PUSH2 0x172E JUMP JUMPDEST CALLVALUE PUSH2 0x448 JUMPI PUSH1 0x40 CALLDATASIZE PUSH1 0x3 NOT ADD SLT PUSH2 0x448 JUMPI PUSH1 0x4 CALLDATALOAD PUSH1 0x1 PUSH1 0x1 PUSH1 0x40 SHL SUB DUP1 DUP3 GT PUSH2 0x448 JUMPI CALLDATASIZE PUSH1 0x23 DUP4 ADD SLT ISZERO PUSH2 0x448 JUMPI DUP2 PUSH1 0x4 ADD CALLDATALOAD PUSH2 0x17AF DUP2 PUSH2 0x11AB JUMP JUMPDEST SWAP3 PUSH2 0x17BD PUSH1 0x40 MLOAD SWAP5 DUP6 PUSH2 0x5A4 JUMP JUMPDEST DUP2 DUP5 MSTORE PUSH1 0x20 SWAP2 PUSH1 0x24 PUSH1 0x20 DUP7 ADD SWAP2 PUSH1 0x5 SHL DUP4 ADD ADD SWAP2 CALLDATASIZE DUP4 GT PUSH2 0x448 JUMPI PUSH1 0x24 ADD SWAP1 JUMPDEST DUP3 DUP3 LT PUSH2 0x1816 JUMPI DUP6 PUSH1 0x24 CALLDATALOAD DUP7 DUP2 GT PUSH2 0x448 JUMPI PUSH2 0xA06 SWAP2 PUSH2 0x1804 PUSH2 0x180A SWAP3 CALLDATASIZE SWAP1 PUSH1 0x4 ADD PUSH2 0x11C2 JUMP JUMPDEST SWAP1 PUSH2 0x346D JUMP JUMPDEST PUSH1 0x40 MLOAD SWAP2 DUP3 SWAP2 DUP3 PUSH2 0x1762 JUMP JUMPDEST DUP4 DUP1 SWAP2 DUP4 CALLDATALOAD PUSH2 0x1824 DUP2 PUSH2 0x437 JUMP JUMPDEST DUP2 MSTORE ADD SWAP2 ADD SWAP1 PUSH2 0x17DD JUMP JUMPDEST CALLVALUE PUSH2 0x448 JUMPI PUSH1 0x20 CALLDATASIZE PUSH1 0x3 NOT ADD SLT PUSH2 0x448 JUMPI PUSH1 0x4 CALLDATALOAD PUSH1 0x0 MSTORE PUSH1 0x3 PUSH1 0x20 MSTORE PUSH1 0x20 PUSH1 0x40 PUSH1 0x0 KECCAK256 SLOAD ISZERO ISZERO PUSH1 0x40 MLOAD SWAP1 DUP2 MSTORE RETURN JUMPDEST CALLVALUE PUSH2 0x448 JUMPI PUSH1 0x40 CALLDATASIZE PUSH1 0x3 NOT ADD SLT PUSH2 0x448 JUMPI PUSH1 0x4 CALLDATALOAD PUSH1 0x0 SWAP1 DUP1 DUP3 MSTORE PUSH1 0x18 PUSH1 0x20 MSTORE PUSH2 0x1893 PUSH1 0x1 DUP1 PUSH1 0xA0 SHL SUB PUSH1 0x40 DUP5 KECCAK256 SLOAD AND CALLER EQ PUSH2 0x352C JUMP JUMPDEST DUP2 MSTORE PUSH1 0x17 PUSH1 0x20 MSTORE PUSH1 0x24 CALLDATALOAD PUSH1 0x6 PUSH1 0x40 DUP4 KECCAK256 ADD SSTORE DUP1 RETURN JUMPDEST PUSH4 0x4E487B71 PUSH1 0xE0 SHL PUSH1 0x0 MSTORE PUSH1 0x32 PUSH1 0x4 MSTORE PUSH1 0x24 PUSH1 0x0 REVERT JUMPDEST PUSH1 0x15 SLOAD DUP2 LT ISZERO PUSH2 0x18E3 JUMPI PUSH1 0x15 PUSH1 0x0 MSTORE PUSH1 0x0 DUP1 MLOAD PUSH1 0x20 PUSH2 0x54B0 DUP4 CODECOPY DUP2 MLOAD SWAP2 MSTORE ADD SWAP1 PUSH1 0x0 SWAP1 JUMP JUMPDEST PUSH2 0x18A8 JUMP JUMPDEST PUSH1 0x14 SLOAD DUP2 LT ISZERO PUSH2 0x18E3 JUMPI PUSH1 0x14 PUSH1 0x0 MSTORE PUSH1 0x0 DUP1 MLOAD PUSH1 0x20 PUSH2 0x54D0 DUP4 CODECOPY DUP2 MLOAD SWAP2 MSTORE ADD SWAP1 PUSH1 0x0 SWAP1 JUMP JUMPDEST DUP1 SLOAD DUP3 LT ISZERO PUSH2 0x18E3 JUMPI PUSH1 0x0 MSTORE PUSH1 0x20 PUSH1 0x0 KECCAK256 ADD SWAP1 PUSH1 0x0 SWAP1 JUMP JUMPDEST CALLVALUE PUSH2 0x448 JUMPI PUSH1 0x40 CALLDATASIZE PUSH1 0x3 NOT ADD SLT PUSH2 0x448 JUMPI PUSH1 0x4 CALLDATALOAD PUSH2 0x1942 DUP2 PUSH2 0x437 JUMP JUMPDEST PUSH1 0x1 PUSH1 0x1 PUSH1 0xA0 SHL SUB AND PUSH1 0x0 SWAP1 DUP2 MSTORE PUSH1 0x1A PUSH1 0x20 MSTORE PUSH1 0x40 SWAP1 KECCAK256 DUP1 SLOAD PUSH1 0x24 CALLDATALOAD SWAP2 SWAP1 DUP3 LT ISZERO PUSH2 0x448 JUMPI PUSH1 0x20 SWAP2 PUSH2 0x1973 SWAP2 PUSH2 0x190D JUMP JUMPDEST SWAP1 SLOAD PUSH1 0x40 MLOAD SWAP2 PUSH1 0x3 SHL SHR DUP2 MSTORE RETURN JUMPDEST PUSH1 0x40 CALLDATASIZE PUSH1 0x3 NOT ADD SLT PUSH2 0x448 JUMPI PUSH1 0x24 CALLDATALOAD PUSH1 0x4 CALLDATALOAD PUSH2 0x199B PUSH2 0x45EB JUMP JUMPDEST PUSH2 0x19A3 PUSH2 0x4609 JUMP JUMPDEST PUSH1 0xFF PUSH1 0xF SLOAD AND PUSH2 0x1C7E JUMPI JUMPDEST PUSH1 0xE SLOAD DUP2 GT ISZERO DUP1 PUSH2 0x1C75 JUMPI JUMPDEST PUSH2 0x19C3 SWAP1 PUSH2 0x3213 JUMP JUMPDEST PUSH2 0x19D7 DUP2 PUSH1 0x0 MSTORE PUSH1 0x17 PUSH1 0x20 MSTORE PUSH1 0x40 PUSH1 0x0 KECCAK256 SWAP1 JUMP JUMPDEST SWAP2 PUSH2 0x19EE PUSH2 0x19E9 PUSH1 0x9 DUP6 ADD SLOAD PUSH1 0xFF AND SWAP1 JUMP JUMPDEST PUSH2 0x35A7 JUMP JUMPDEST PUSH2 0x19F9 DUP2 ISZERO ISZERO PUSH2 0x35EB JUMP JUMPDEST PUSH1 0x8 DUP4 ADD SWAP2 PUSH2 0x1A18 PUSH2 0x1A0C DUP4 DUP6 SLOAD PUSH2 0x3206 JUMP JUMPDEST PUSH1 0x7 DUP7 ADD SLOAD LT ISZERO PUSH2 0x3637 JUMP JUMPDEST PUSH1 0x6 DUP5 ADD SWAP4 PUSH2 0x1A28 DUP4 DUP7 SLOAD PUSH2 0x3446 JUMP JUMPDEST PUSH2 0x1A34 DUP2 CALLVALUE LT ISZERO PUSH2 0x3678 JUMP JUMPDEST PUSH2 0x1A43 PUSH2 0x1170 PUSH1 0xA SLOAD DUP4 PUSH2 0x3446 JUMP JUMPDEST PUSH2 0x1A4D DUP2 DUP4 PUSH2 0x334D JUMP JUMPDEST SWAP6 PUSH2 0x1A61 PUSH2 0x1A59 PUSH2 0x36BB JUMP JUMPDEST DUP8 DUP8 CALLER PUSH2 0x462C JUMP JUMPDEST PUSH2 0x1A6C DUP7 DUP3 SLOAD PUSH2 0x3206 JUMP JUMPDEST SWAP1 SSTORE CALLER PUSH1 0x0 SWAP1 DUP2 MSTORE PUSH1 0x16 PUSH1 0x20 MSTORE PUSH1 0x40 SWAP1 KECCAK256 PUSH1 0x4 SWAP1 PUSH1 0x5 DUP2 ADD PUSH2 0x1A96 PUSH2 0x1A92 DUP3 SLOAD PUSH1 0xFF AND SWAP1 JUMP JUMPDEST ISZERO SWAP1 JUMP JUMPDEST PUSH2 0x1C57 JUMPI JUMPDEST POP ADD PUSH2 0x1AA8 DUP7 DUP3 SLOAD PUSH2 0x3206 JUMP JUMPDEST SWAP1 SSTORE PUSH1 0x0 SWAP6 PUSH1 0x0 JUMPDEST CALLER PUSH1 0x0 SWAP1 DUP2 MSTORE PUSH1 0x1A PUSH1 0x20 MSTORE PUSH1 0x40 SWAP1 KECCAK256 SLOAD DUP2 LT ISZERO PUSH2 0x1C4B JUMPI CALLER PUSH1 0x0 SWAP1 DUP2 MSTORE PUSH1 0x1A PUSH1 0x20 MSTORE PUSH1 0x40 SWAP1 KECCAK256 DUP7 SWAP1 PUSH2 0x1AF1 SWAP1 PUSH2 0x1AE7 SWAP1 DUP5 SWAP1 PUSH2 0x190D JUMP JUMPDEST SWAP1 SLOAD SWAP1 PUSH1 0x3 SHL SHR SWAP1 JUMP JUMPDEST EQ PUSH2 0x1AFE JUMPI PUSH1 0x1 ADD PUSH2 0x1AB0 JUMP JUMPDEST POP SWAP1 SWAP2 SWAP3 SWAP4 SWAP5 SWAP6 POP PUSH1 0x1 JUMPDEST ISZERO PUSH2 0x1C2C JUMPI JUMPDEST DUP1 ISZERO DUP1 ISZERO PUSH2 0x1BEE JUMPI JUMPDEST POP POP DUP1 ISZERO DUP1 ISZERO PUSH2 0x1BB2 JUMPI JUMPDEST POP POP DUP1 CALLVALUE GT PUSH2 0x1B7F JUMPI JUMPDEST POP PUSH1 0x1 ADD SLOAD SWAP3 SLOAD PUSH1 0x40 DUP1 MLOAD SWAP4 DUP5 MSTORE PUSH1 0x20 DUP5 ADD SWAP2 SWAP1 SWAP2 MSTORE PUSH1 0x1 PUSH1 0x1 PUSH1 0xA0 SHL SUB SWAP1 SWAP4 AND SWAP3 CALLER SWAP3 PUSH32 0x465C604F8DCF4D2DBA83E76F95C4CB5876F0976EC008A9326B6D4B209142BB45 SWAP2 SWAP1 LOG4 PUSH2 0x12CD PUSH1 0x1 PUSH1 0x6 SSTORE JUMP JUMPDEST PUSH1 0x0 DUP1 DUP1 PUSH2 0x1B8E DUP2 SWAP5 CALLVALUE PUSH2 0x334D JUMP JUMPDEST DUP2 DUP2 ISZERO PUSH2 0x1BA9 JUMPI JUMPDEST CALLER SWAP1 CALL ISZERO PUSH2 0x1BA4 JUMPI CODESIZE PUSH2 0x1B2D JUMP JUMPDEST PUSH2 0x3713 JUMP JUMPDEST POP PUSH2 0x8FC PUSH2 0x1B96 JUMP JUMPDEST PUSH1 0x0 DUP1 DUP1 SWAP4 DUP2 SWAP4 PUSH2 0x1BD0 PUSH2 0xF46 PUSH2 0xF46 PUSH1 0xD SLOAD PUSH1 0x1 DUP1 PUSH1 0xA0 SHL SUB AND SWAP1 JUMP JUMPDEST SWAP1 DUP4 SWAP1 PUSH2 0x1BE5 JUMPI JUMPDEST CALL ISZERO PUSH2 0x1BA4 JUMPI CODESIZE DUP1 PUSH2 0x1B23 JUMP JUMPDEST POP PUSH2 0x8FC PUSH2 0x1BD8 JUMP JUMPDEST PUSH1 0x0 DUP1 DUP1 SWAP4 DUP2 SWAP4 PUSH2 0x1C0E PUSH2 0xF46 PUSH2 0xF46 PUSH1 0x1 DUP13 ADD SLOAD PUSH1 0x1 DUP1 PUSH1 0xA0 SHL SUB AND SWAP1 JUMP JUMPDEST SWAP1 DUP4 SWAP1 PUSH2 0x1C23 JUMPI JUMPDEST CALL ISZERO PUSH2 0x1BA4 JUMPI CODESIZE DUP1 PUSH2 0x1B18 JUMP JUMPDEST POP PUSH2 0x8FC PUSH2 0x1C16 JUMP JUMPDEST CALLER PUSH1 0x0 SWAP1 DUP2 MSTORE PUSH1 0x1A PUSH1 0x20 MSTORE PUSH1 0x40 SWAP1 KECCAK256 PUSH2 0x1C46 SWAP1 DUP7 SWAP1 PUSH2 0x36DE JUMP JUMPDEST PUSH2 0x1B0F JUMP JUMPDEST POP SWAP1 SWAP2 SWAP3 SWAP4 SWAP5 SWAP6 PUSH2 0x1B09 JUMP JUMPDEST DUP1 SLOAD PUSH1 0xFF NOT AND PUSH1 0x1 OR SWAP1 SSTORE PUSH1 0x0 PUSH1 0x3 DUP3 ADD SSTORE PUSH1 0x0 DUP3 DUP3 ADD SSTORE CODESIZE PUSH2 0x1A9B JUMP JUMPDEST POP DUP1 ISZERO ISZERO PUSH2 0x19BA JUMP JUMPDEST CALLER PUSH1 0x0 MSTORE PUSH1 0x11 PUSH1 0x20 MSTORE PUSH1 0xFF PUSH1 0x40 PUSH1 0x0 KECCAK256 SLOAD AND DUP1 ISZERO PUSH2 0x1CA5 JUMPI JUMPDEST PUSH2 0x1CA0 SWAP1 PUSH2 0x3569 JUMP JUMPDEST PUSH2 0x19AE JUMP JUMPDEST POP PUSH1 0x5 SLOAD PUSH1 0x1 PUSH1 0x1 PUSH1 0xA0 SHL SUB AND CALLER EQ PUSH2 0x1C97 JUMP JUMPDEST CALLVALUE PUSH2 0x448 JUMPI PUSH1 0x0 CALLDATASIZE PUSH1 0x3 NOT ADD SLT PUSH2 0x448 JUMPI PUSH1 0x20 PUSH1 0xE SLOAD PUSH1 0x40 MLOAD SWAP1 DUP2 MSTORE RETURN JUMPDEST CALLVALUE PUSH2 0x448 JUMPI PUSH1 0x20 CALLDATASIZE PUSH1 0x3 NOT ADD SLT PUSH2 0x448 JUMPI PUSH1 0x4 CALLDATALOAD PUSH1 0x0 SWAP1 DUP1 DUP3 MSTORE PUSH1 0x18 PUSH1 0x20 MSTORE PUSH2 0x1D0D PUSH1 0x1 DUP1 PUSH1 0xA0 SHL SUB PUSH1 0x40 DUP5 KECCAK256 SLOAD AND CALLER EQ PUSH2 0x352C JUMP JUMPDEST DUP2 MSTORE PUSH1 0x17 PUSH1 0x20 MSTORE PUSH1 0x40 DUP2 KECCAK256 PUSH1 0x9 ADD DUP1 SLOAD PUSH1 0xFF DUP2 DUP2 AND ISZERO AND PUSH1 0xFF NOT SWAP1 SWAP2 AND OR SWAP1 SSTORE DUP1 RETURN JUMPDEST CALLVALUE PUSH2 0x448 JUMPI PUSH1 0x0 CALLDATASIZE PUSH1 0x3 NOT ADD SLT PUSH2 0x448 JUMPI PUSH1 0x20 PUSH1 0xFF PUSH1 0x7 SLOAD AND PUSH1 0x40 MLOAD SWAP1 ISZERO ISZERO DUP2 MSTORE RETURN JUMPDEST CALLVALUE PUSH2 0x448 JUMPI PUSH1 0x0 DUP1 PUSH1 0x3 NOT CALLDATASIZE ADD SLT PUSH2 0xA8F JUMPI CALLER DUP2 MSTORE PUSH1 0x10 PUSH1 0x20 MSTORE PUSH1 0xFF PUSH1 0x40 DUP3 KECCAK256 SLOAD AND PUSH2 0x1DF0 JUMPI CALLER PUSH1 0x0 SWAP1 DUP2 MSTORE PUSH1 0x11 PUSH1 0x20 MSTORE PUSH1 0x40 SWAP1 KECCAK256 PUSH2 0x1D9E SWAP1 PUSH2 0x1D99 SWAP1 PUSH2 0x1A92 SWAP1 PUSH2 0xEB3 JUMP JUMPDEST PUSH2 0x371F JUMP JUMPDEST CALLER PUSH1 0x0 SWAP1 DUP2 MSTORE PUSH1 0x10 PUSH1 0x20 MSTORE PUSH1 0x40 SWAP1 KECCAK256 PUSH2 0x1DBF SWAP1 JUMPDEST DUP1 SLOAD PUSH1 0xFF NOT AND PUSH1 0x1 OR SWAP1 SSTORE JUMP JUMPDEST PUSH2 0x1DC8 CALLER PUSH2 0x3761 JUMP JUMPDEST CALLER PUSH32 0xD01371A65BC20DA9AF65AAF8149474FD747E562E207A3687CF65A809766A205A DUP3 DUP1 LOG2 DUP1 RETURN JUMPDEST PUSH1 0x40 MLOAD PUSH3 0x461BCD PUSH1 0xE5 SHL DUP2 MSTORE PUSH1 0x20 PUSH1 0x4 DUP3 ADD MSTORE PUSH1 0x1B PUSH1 0x24 DUP3 ADD MSTORE PUSH32 0x416C7265616479207265676973746572656420696E7465726573740000000000 PUSH1 0x44 DUP3 ADD MSTORE PUSH1 0x64 SWAP1 REVERT JUMPDEST CALLVALUE PUSH2 0x448 JUMPI PUSH1 0x20 CALLDATASIZE PUSH1 0x3 NOT ADD SLT PUSH2 0x448 JUMPI PUSH1 0x4 CALLDATALOAD PUSH1 0x14 SLOAD DUP2 LT ISZERO PUSH2 0x448 JUMPI PUSH1 0x14 PUSH1 0x0 MSTORE PUSH1 0x0 DUP1 MLOAD PUSH1 0x20 PUSH2 0x54D0 DUP4 CODECOPY DUP2 MLOAD SWAP2 MSTORE ADD SLOAD PUSH1 0x40 MLOAD PUSH1 0x1 PUSH1 0x1 PUSH1 0xA0 SHL SUB SWAP1 SWAP2 AND DUP2 MSTORE PUSH1 0x20 SWAP1 RETURN JUMPDEST PUSH1 0x20 SWAP1 PUSH1 0x20 PUSH1 0x40 DUP2 DUP4 ADD SWAP3 DUP3 DUP2 MSTORE DUP6 MLOAD DUP1 SWAP5 MSTORE ADD SWAP4 ADD SWAP2 PUSH1 0x0 JUMPDEST DUP3 DUP2 LT PUSH2 0x1EA6 JUMPI POP POP POP POP SWAP1 JUMP JUMPDEST DUP4 MLOAD PUSH1 0x1 PUSH1 0x1 PUSH1 0xA0 SHL SUB AND DUP6 MSTORE SWAP4 DUP2 ADD SWAP4 SWAP3 DUP2 ADD SWAP3 PUSH1 0x1 ADD PUSH2 0x1E98 JUMP JUMPDEST CALLVALUE PUSH2 0x448 JUMPI PUSH1 0x0 CALLDATASIZE PUSH1 0x3 NOT ADD SLT PUSH2 0x448 JUMPI PUSH1 0x40 MLOAD DUP1 PUSH1 0x15 SLOAD SWAP2 DUP3 DUP2 MSTORE PUSH1 0x20 DUP1 SWAP2 ADD SWAP3 PUSH1 0x15 PUSH1 0x0 MSTORE PUSH1 0x0 DUP1 MLOAD PUSH1 0x20 PUSH2 0x54B0 DUP4 CODECOPY DUP2 MLOAD SWAP2 MSTORE SWAP2 PUSH1 0x0 SWAP1 JUMPDEST DUP3 DUP3 LT PUSH2 0x1F21 JUMPI PUSH2 0xA06 DUP6 PUSH2 0x1F15 DUP2 DUP10 SUB DUP3 PUSH2 0x5A4 JUMP JUMPDEST PUSH1 0x40 MLOAD SWAP2 DUP3 SWAP2 DUP3 PUSH2 0x1E7E JUMP JUMPDEST DUP4 SLOAD PUSH1 0x1 PUSH1 0x1 PUSH1 0xA0 SHL SUB AND DUP7 MSTORE SWAP5 DUP6 ADD SWAP5 PUSH1 0x1 SWAP4 DUP5 ADD SWAP4 SWAP1 SWAP2 ADD SWAP1 PUSH2 0x1EFE JUMP JUMPDEST CALLVALUE PUSH2 0x448 JUMPI PUSH1 0x20 CALLDATASIZE PUSH1 0x3 NOT ADD SLT PUSH2 0x448 JUMPI PUSH1 0x4 CALLDATALOAD PUSH2 0x1F5E DUP2 PUSH2 0x437 JUMP JUMPDEST PUSH2 0x1F66 PUSH2 0x4142 JUMP JUMPDEST PUSH1 0x1 PUSH1 0x1 PUSH1 0xA0 SHL SUB AND DUP1 ISZERO PUSH2 0x1F8D JUMPI PUSH1 0x1 PUSH1 0x1 PUSH1 0x60 SHL SUB PUSH1 0xA0 SHL PUSH1 0xD SLOAD AND OR PUSH1 0xD SSTORE PUSH1 0x0 DUP1 RETURN JUMPDEST PUSH1 0x40 MLOAD PUSH3 0x461BCD PUSH1 0xE5 SHL DUP2 MSTORE PUSH1 0x20 PUSH1 0x4 DUP3 ADD MSTORE PUSH1 0x1F PUSH1 0x24 DUP3 ADD MSTORE PUSH32 0x547265617375727920616464726573732063616E6E6F74206265207A65726F00 PUSH1 0x44 DUP3 ADD MSTORE PUSH1 0x64 SWAP1 REVERT JUMPDEST CALLVALUE PUSH2 0x448 JUMPI PUSH1 0x0 CALLDATASIZE PUSH1 0x3 NOT ADD SLT PUSH2 0x448 JUMPI PUSH1 0x40 MLOAD DUP1 PUSH1 0x14 SLOAD SWAP2 DUP3 DUP2 MSTORE PUSH1 0x20 DUP1 SWAP2 ADD SWAP3 PUSH1 0x14 PUSH1 0x0 MSTORE PUSH1 0x0 DUP1 MLOAD PUSH1 0x20 PUSH2 0x54D0 DUP4 CODECOPY DUP2 MLOAD SWAP2 MSTORE SWAP2 PUSH1 0x0 SWAP1 JUMPDEST DUP3 DUP3 LT PUSH2 0x2024 JUMPI PUSH2 0xA06 DUP6 PUSH2 0x1F15 DUP2 DUP10 SUB DUP3 PUSH2 0x5A4 JUMP JUMPDEST DUP4 SLOAD PUSH1 0x1 PUSH1 0x1 PUSH1 0xA0 SHL SUB AND DUP7 MSTORE SWAP5 DUP6 ADD SWAP5 PUSH1 0x1 SWAP4 DUP5 ADD SWAP4 SWAP1 SWAP2 ADD SWAP1 PUSH2 0x200D JUMP JUMPDEST CALLVALUE PUSH2 0x448 JUMPI PUSH1 0x20 CALLDATASIZE PUSH1 0x3 NOT ADD SLT PUSH2 0x448 JUMPI PUSH1 0x4 CALLDATALOAD PUSH1 0x15 SLOAD DUP2 LT ISZERO PUSH2 0x448 JUMPI PUSH1 0x15 PUSH1 0x0 MSTORE PUSH1 0x0 DUP1 MLOAD PUSH1 0x20 PUSH2 0x54B0 DUP4 CODECOPY DUP2 MLOAD SWAP2 MSTORE ADD SLOAD PUSH1 0x40 MLOAD PUSH1 0x1 PUSH1 0x1 PUSH1 0xA0 SHL SUB SWAP1 SWAP2 AND DUP2 MSTORE PUSH1 0x20 SWAP1 RETURN JUMPDEST CALLVALUE PUSH2 0x448 JUMPI PUSH1 0x20 CALLDATASIZE PUSH1 0x3 NOT ADD SLT PUSH2 0x448 JUMPI PUSH1 0x4 CALLDATALOAD PUSH2 0x20AA DUP2 PUSH2 0x437 JUMP JUMPDEST PUSH1 0x0 SWAP1 CALLER DUP3 MSTORE PUSH1 0x12 PUSH1 0x20 MSTORE PUSH1 0xFF PUSH1 0x40 DUP4 KECCAK256 SLOAD AND DUP1 ISZERO PUSH2 0x21AE JUMPI JUMPDEST PUSH2 0x20CD SWAP1 PUSH2 0x3252 JUMP JUMPDEST PUSH1 0x1 PUSH1 0x1 PUSH1 0xA0 SHL SUB DUP2 AND DUP1 DUP4 MSTORE PUSH1 0x12 PUSH1 0x20 MSTORE PUSH1 0x40 DUP4 KECCAK256 SLOAD SWAP1 SWAP2 SWAP1 PUSH2 0x20F4 SWAP1 PUSH1 0xFF AND ISZERO PUSH2 0x3872 JUMP JUMPDEST PUSH2 0x20FF DUP3 ISZERO ISZERO PUSH2 0x38B1 JUMP JUMPDEST PUSH1 0x1 PUSH1 0x1 PUSH1 0xA0 SHL SUB DUP2 AND PUSH1 0x0 SWAP1 DUP2 MSTORE PUSH1 0x12 PUSH1 0x20 MSTORE PUSH1 0x40 SWAP1 KECCAK256 PUSH2 0x2120 SWAP1 PUSH2 0x1DB2 JUMP JUMPDEST PUSH2 0x2129 DUP2 PUSH2 0x37C8 JUMP JUMPDEST PUSH1 0x1 PUSH1 0x1 PUSH1 0xA0 SHL SUB DUP2 AND PUSH1 0x0 SWAP1 DUP2 MSTORE PUSH1 0x11 PUSH1 0x20 MSTORE PUSH1 0x40 SWAP1 KECCAK256 PUSH2 0x214E SWAP1 PUSH2 0x1A92 SWAP1 PUSH2 0xEB3 JUMP JUMPDEST PUSH2 0x217D JUMPI JUMPDEST POP CALLER SWAP1 PUSH32 0xBF3F493C772C8C283FD124432C2D0F539AB343FAA04258FE88E52912D36B102B DUP4 DUP1 LOG3 DUP1 RETURN JUMPDEST PUSH1 0x1 PUSH1 0x1 PUSH1 0xA0 SHL SUB DUP2 AND PUSH1 0x0 SWAP1 DUP2 MSTORE PUSH1 0x11 PUSH1 0x20 MSTORE PUSH1 0x40 SWAP1 KECCAK256 PUSH2 0x21A8 SWAP2 SWAP1 PUSH2 0x21A3 SWAP1 PUSH2 0x1DB2 JUMP JUMPDEST PUSH2 0x381D JUMP JUMPDEST CODESIZE PUSH2 0x2153 JUMP JUMPDEST POP PUSH1 0x5 SLOAD PUSH1 0x1 PUSH1 0x1 PUSH1 0xA0 SHL SUB AND CALLER EQ PUSH2 0x20C4 JUMP JUMPDEST CALLVALUE PUSH2 0x448 JUMPI PUSH1 0x0 DUP1 PUSH1 0x3 NOT CALLDATASIZE ADD SLT PUSH2 0xA8F JUMPI PUSH2 0x21DC PUSH2 0x4142 JUMP JUMPDEST PUSH1 0x5 DUP1 SLOAD PUSH1 0x1 PUSH1 0x1 PUSH1 0xA0 SHL SUB NOT DUP2 AND SWAP1 SWAP2 SSTORE DUP2 SWAP1 PUSH1 0x1 PUSH1 0x1 PUSH1 0xA0 SHL SUB AND PUSH32 0x8BE0079C531659141344CD1FD0A4F28419497F9722A3DAAFE3B4186F6B6457E0 DUP3 DUP1 LOG3 DUP1 RETURN JUMPDEST CALLVALUE PUSH2 0x448 JUMPI PUSH1 0x0 DUP1 PUSH1 0x3 NOT CALLDATASIZE ADD SLT PUSH2 0xA8F JUMPI CALLER DUP2 MSTORE PUSH1 0x12 PUSH1 0x20 MSTORE PUSH1 0xFF PUSH1 0x40 DUP3 KECCAK256 SLOAD AND DUP1 ISZERO PUSH2 0x2297 JUMPI JUMPDEST PUSH2 0x2252 SWAP1 PUSH2 0x3252 JUMP JUMPDEST PUSH1 0xF SLOAD PUSH1 0xFF DUP1 DUP3 AND ISZERO AND DUP1 SWAP2 PUSH1 0xFF NOT AND OR PUSH1 0xF SSTORE PUSH1 0x40 MLOAD SWAP1 ISZERO ISZERO DUP2 MSTORE PUSH32 0x5F2930093A8ED3D18A75EC1318AA404A4CB74A9D542350560A7709642F444B58 PUSH1 0x20 CALLER SWAP3 LOG2 DUP1 RETURN JUMPDEST POP PUSH1 0x5 SLOAD PUSH1 0x1 PUSH1 0x1 PUSH1 0xA0 SHL SUB AND CALLER EQ PUSH2 0x2249 JUMP JUMPDEST CALLVALUE PUSH2 0x448 JUMPI PUSH1 0x0 CALLDATASIZE PUSH1 0x3 NOT ADD SLT PUSH2 0x448 JUMPI PUSH2 0x22C4 PUSH2 0x4142 JUMP JUMPDEST PUSH2 0x22CC PUSH2 0x45EB JUMP JUMPDEST PUSH1 0x1 PUSH1 0xFF NOT PUSH1 0x7 SLOAD AND OR PUSH1 0x7 SSTORE PUSH32 0x62E78CEA01BEE320CD4E420270B5EA74000D11B0C9F74754EBDBFC544B05A258 PUSH1 0x20 PUSH1 0x40 MLOAD CALLER DUP2 MSTORE LOG1 STOP JUMPDEST CALLVALUE PUSH2 0x448 JUMPI PUSH1 0x20 CALLDATASIZE PUSH1 0x3 NOT ADD SLT PUSH2 0x448 JUMPI PUSH1 0x4 CALLDATALOAD PUSH2 0x2322 DUP2 PUSH2 0x437 JUMP JUMPDEST PUSH1 0x0 SWAP1 CALLER DUP3 MSTORE PUSH1 0x12 PUSH1 0x20 MSTORE PUSH1 0xFF PUSH1 0x40 DUP4 KECCAK256 SLOAD AND DUP1 ISZERO PUSH2 0x2430 JUMPI JUMPDEST PUSH2 0x2345 SWAP1 PUSH2 0x3252 JUMP JUMPDEST PUSH1 0x1 PUSH1 0x1 PUSH1 0xA0 SHL SUB DUP2 AND PUSH1 0x0 SWAP1 DUP2 MSTORE PUSH1 0x11 PUSH1 0x20 MSTORE PUSH1 0x40 SWAP1 KECCAK256 PUSH2 0x236F SWAP1 PUSH2 0x236A SWAP1 PUSH2 0xEB3 JUMP JUMPDEST PUSH2 0x38EF JUMP JUMPDEST PUSH1 0x5 SLOAD PUSH1 0x1 PUSH1 0x1 PUSH1 0xA0 SHL SUB DUP3 DUP2 AND SWAP3 PUSH2 0x23AD SWAP3 PUSH2 0xF09 SWAP3 PUSH2 0x2393 SWAP2 AND DUP6 EQ ISZERO PUSH2 0x393B JUMP JUMPDEST PUSH1 0x1 PUSH1 0x1 PUSH1 0xA0 SHL SUB AND PUSH1 0x0 SWAP1 DUP2 MSTORE PUSH1 0x11 PUSH1 0x20 MSTORE PUSH1 0x40 SWAP1 KECCAK256 SWAP1 JUMP JUMPDEST DUP2 JUMPDEST PUSH1 0x14 SLOAD SWAP1 DUP2 DUP2 LT ISZERO PUSH2 0x2429 JUMPI DUP3 PUSH2 0x23CB PUSH2 0xF46 PUSH2 0xF31 DUP5 PUSH2 0x18E8 JUMP JUMPDEST EQ PUSH2 0x23DA JUMPI PUSH1 0x1 SWAP2 POP ADD PUSH2 0x23AF JUMP JUMPDEST PUSH2 0xF81 PUSH2 0x23F4 PUSH2 0xF31 PUSH2 0x23EF PUSH2 0x23FA SWAP6 PUSH2 0x332F JUMP JUMPDEST PUSH2 0x18E8 JUMP JUMPDEST SWAP2 PUSH2 0x18E8 JUMP JUMPDEST PUSH2 0x2402 PUSH2 0x33C4 JUMP JUMPDEST PUSH32 0x535611FB62FA2A833988F283B779E417E996813E44046F521D76C17B5943B08C DUP3 DUP1 LOG2 DUP1 RETURN JUMPDEST POP POP PUSH2 0x2402 JUMP JUMPDEST POP PUSH1 0x5 SLOAD PUSH1 0x1 PUSH1 0x1 PUSH1 0xA0 SHL SUB AND CALLER EQ PUSH2 0x233C JUMP JUMPDEST CALLVALUE PUSH2 0x448 JUMPI PUSH1 0x0 CALLDATASIZE PUSH1 0x3 NOT ADD SLT PUSH2 0x448 JUMPI PUSH1 0x5 SLOAD PUSH1 0x40 MLOAD PUSH1 0x1 PUSH1 0x1 PUSH1 0xA0 SHL SUB SWAP1 SWAP2 AND DUP2 MSTORE PUSH1 0x20 SWAP1 RETURN JUMPDEST CALLVALUE PUSH2 0x448 JUMPI PUSH1 0x0 CALLDATASIZE PUSH1 0x3 NOT ADD SLT PUSH2 0x448 JUMPI PUSH1 0x40 MLOAD DUP1 PUSH1 0x13 SLOAD SWAP2 DUP3 DUP2 MSTORE PUSH1 0x20 DUP1 SWAP2 ADD SWAP3 PUSH1 0x13 PUSH1 0x0 MSTORE PUSH32 0x66DE8FFDA797E3DE9C05E8FC57B3BF0EC28A930D40B0D285D93C06501CF6A090 SWAP2 PUSH1 0x0 SWAP1 JUMPDEST DUP3 DUP3 LT PUSH2 0x24D1 JUMPI PUSH2 0xA06 DUP6 PUSH2 0x1F15 DUP2 DUP10 SUB DUP3 PUSH2 0x5A4 JUMP JUMPDEST DUP4 SLOAD PUSH1 0x1 PUSH1 0x1 PUSH1 0xA0 SHL SUB AND DUP7 MSTORE SWAP5 DUP6 ADD SWAP5 PUSH1 0x1 SWAP4 DUP5 ADD SWAP4 SWAP1 SWAP2 ADD SWAP1 PUSH2 0x24BA JUMP JUMPDEST CALLVALUE PUSH2 0x448 JUMPI PUSH1 0x40 CALLDATASIZE PUSH1 0x3 NOT ADD SLT PUSH2 0x448 JUMPI PUSH1 0x4 CALLDATALOAD PUSH2 0x250E DUP2 PUSH2 0x437 JUMP JUMPDEST PUSH1 0x1 PUSH1 0x1 PUSH1 0xA0 SHL SUB AND PUSH1 0x0 SWAP1 DUP2 MSTORE PUSH1 0x19 PUSH1 0x20 MSTORE PUSH1 0x40 SWAP1 KECCAK256 DUP1 SLOAD PUSH1 0x24 CALLDATALOAD SWAP2 SWAP1 DUP3 LT ISZERO PUSH2 0x448 JUMPI PUSH1 0x20 SWAP2 PUSH2 0x1973 SWAP2 PUSH2 0x190D JUMP JUMPDEST CALLVALUE PUSH2 0x448 JUMPI PUSH1 0x0 DUP1 PUSH1 0x3 NOT CALLDATASIZE ADD SLT PUSH2 0xA8F JUMPI PUSH1 0x40 MLOAD SWAP1 DUP1 PUSH1 0x9 SLOAD SWAP1 PUSH2 0x2563 DUP3 PUSH2 0x7AA JUMP JUMPDEST DUP1 DUP6 MSTORE SWAP2 PUSH1 0x20 SWAP2 PUSH1 0x1 SWAP2 DUP3 DUP2 AND SWAP1 DUP2 ISZERO PUSH2 0xA62 JUMPI POP PUSH1 0x1 EQ PUSH2 0x258F JUMPI PUSH2 0xA06 DUP7 PUSH2 0x9FA DUP2 DUP9 SUB DUP3 PUSH2 0x5A4 JUMP JUMPDEST SWAP4 POP PUSH1 0x9 DUP5 MSTORE PUSH32 0x6E1540171B6C0C960B71A7020D9F60077F6AF931A8BBF590DA0223DACF75C7AF JUMPDEST DUP4 DUP6 LT PUSH2 0x25D4 JUMPI POP POP POP POP DUP2 ADD PUSH1 0x20 ADD PUSH2 0x9FA DUP3 PUSH2 0xA06 CODESIZE PUSH2 0x9EA JUMP JUMPDEST DUP1 SLOAD DUP7 DUP7 ADD DUP5 ADD MSTORE SWAP4 DUP3 ADD SWAP4 DUP2 ADD PUSH2 0x25B7 JUMP JUMPDEST CALLVALUE PUSH2 0x448 JUMPI PUSH1 0x40 CALLDATASIZE PUSH1 0x3 NOT ADD SLT PUSH2 0x448 JUMPI PUSH1 0x4 CALLDATALOAD PUSH2 0x2604 DUP2 PUSH2 0x437 JUMP JUMPDEST PUSH1 0x24 CALLDATALOAD SWAP1 DUP2 ISZERO ISZERO SWAP1 DUP2 DUP4 SUB PUSH2 0x448 JUMPI PUSH1 0x1 PUSH1 0x1 PUSH1 0xA0 SHL SUB DUP2 AND SWAP3 DUP4 ISZERO PUSH2 0x268F JUMPI PUSH2 0x2650 PUSH2 0x2661 SWAP3 CALLER PUSH1 0x0 MSTORE PUSH1 0x1 PUSH1 0x20 MSTORE PUSH1 0x40 PUSH1 0x0 KECCAK256 SWAP1 PUSH1 0x1 DUP1 PUSH1 0xA0 SHL SUB AND PUSH1 0x0 MSTORE PUSH1 0x20 MSTORE PUSH1 0x40 PUSH1 0x0 KECCAK256 SWAP1 JUMP JUMPDEST SWAP1 PUSH1 0xFF DUP1 NOT DUP4 SLOAD AND SWAP2 ISZERO ISZERO AND OR SWAP1 SSTORE JUMP JUMPDEST PUSH1 0x40 MLOAD SWAP1 DUP2 MSTORE PUSH32 0x17307EAB39AB6107E8899845AD3D59BD9653F200F220920489CA2B5937696C31 PUSH1 0x20 CALLER SWAP3 LOG3 STOP JUMPDEST PUSH1 0x40 MLOAD PUSH3 0xCED3E1 PUSH1 0xE8 SHL DUP2 MSTORE PUSH1 0x0 PUSH1 0x4 DUP3 ADD MSTORE PUSH1 0x24 SWAP1 REVERT JUMPDEST CALLVALUE PUSH2 0x448 JUMPI PUSH1 0x60 CALLDATASIZE PUSH1 0x3 NOT ADD SLT PUSH2 0x448 JUMPI PUSH1 0x1 PUSH1 0x1 PUSH1 0x40 SHL SUB PUSH1 0x4 CALLDATALOAD DUP2 DUP2 GT PUSH2 0x448 JUMPI PUSH2 0x26D8 SWAP1 CALLDATASIZE SWAP1 PUSH1 0x4 ADD PUSH2 0x600 JUMP JUMPDEST PUSH1 0x24 CALLDATALOAD DUP3 DUP2 GT PUSH2 0x448 JUMPI PUSH2 0x26F0 SWAP1 CALLDATASIZE SWAP1 PUSH1 0x4 ADD PUSH2 0x600 JUMP JUMPDEST SWAP2 PUSH1 0x44 CALLDATALOAD SWAP1 DUP2 GT PUSH2 0x448 JUMPI PUSH2 0x272A PUSH32 0x39DFEE1413BB413BA51702FE3CD693CD3B02628FBAC61358818D502B7AF50095 SWAP2 CALLDATASIZE SWAP1 PUSH1 0x4 ADD PUSH2 0x600 JUMP JUMPDEST PUSH1 0x0 SWAP4 CALLER DUP6 MSTORE PUSH1 0x16 PUSH1 0x20 MSTORE PUSH2 0x276C DUP3 PUSH1 0x2 PUSH1 0x40 DUP9 KECCAK256 PUSH1 0x5 DUP2 ADD PUSH1 0xFF DUP2 SLOAD AND ISZERO PUSH2 0x2783 JUMPI JUMPDEST POP PUSH2 0x2759 DUP9 DUP3 PUSH2 0x3A44 JUMP JUMPDEST PUSH2 0x2766 DUP6 PUSH1 0x1 DUP4 ADD PUSH2 0x3A44 JUMP JUMPDEST ADD PUSH2 0x3A44 JUMP JUMPDEST PUSH2 0x277D PUSH1 0x40 MLOAD SWAP3 DUP4 SWAP3 CALLER SWAP7 DUP5 PUSH2 0x3B0D JUMP JUMPDEST SUB SWAP1 LOG2 DUP1 RETURN JUMPDEST DUP1 SLOAD PUSH1 0xFF NOT AND PUSH1 0x1 OR SWAP1 SSTORE DUP9 PUSH1 0x3 DUP3 ADD SSTORE DUP9 PUSH1 0x4 DUP3 ADD SSTORE CODESIZE PUSH2 0x274E JUMP JUMPDEST CALLVALUE PUSH2 0x448 JUMPI PUSH1 0x20 CALLDATASIZE PUSH1 0x3 NOT ADD SLT PUSH2 0x448 JUMPI PUSH1 0x4 CALLDATALOAD PUSH2 0x27BD DUP2 PUSH2 0x437 JUMP JUMPDEST PUSH1 0x1 DUP1 PUSH1 0xA0 SHL SUB AND PUSH1 0x0 MSTORE PUSH1 0x16 PUSH1 0x20 MSTORE PUSH1 0x40 PUSH1 0x0 KECCAK256 PUSH1 0x40 MLOAD PUSH2 0x27DE DUP2 PUSH2 0x54E JUMP JUMPDEST PUSH2 0x27E7 DUP3 PUSH2 0x8AA JUMP JUMPDEST DUP2 MSTORE PUSH2 0xA06 PUSH2 0x27F8 PUSH1 0x1 DUP5 ADD PUSH2 0x8AA JUMP JUMPDEST SWAP2 PUSH1 0x20 DUP2 ADD SWAP3 DUP4 MSTORE PUSH2 0x280C PUSH1 0x2 DUP6 ADD PUSH2 0x8AA JUMP JUMPDEST SWAP4 DUP5 PUSH1 0x40 DUP4 ADD MSTORE PUSH1 0x3 DUP2 ADD SLOAD DUP1 PUSH1 0x60 DUP5 ADD MSTORE PUSH1 0xFF PUSH1 0x5 PUSH1 0x4 DUP5 ADD SLOAD SWAP4 DUP5 PUSH1 0x80 DUP8 ADD MSTORE ADD SLOAD AND ISZERO ISZERO SWAP3 DUP4 PUSH1 0xA0 DUP3 ADD MSTORE MLOAD SWAP5 MLOAD SWAP6 PUSH1 0x40 MLOAD SWAP7 DUP8 SWAP7 DUP8 PUSH2 0xD8A JUMP JUMPDEST CALLVALUE PUSH2 0x448 JUMPI PUSH1 0x40 CALLDATASIZE PUSH1 0x3 NOT ADD SLT PUSH2 0x448 JUMPI PUSH1 0x4 CALLDATALOAD PUSH1 0x24 CALLDATALOAD SWAP1 PUSH1 0xE SLOAD DUP2 GT ISZERO DUP1 PUSH2 0x298B JUMPI JUMPDEST PUSH2 0x2877 SWAP1 PUSH2 0x3213 JUMP JUMPDEST PUSH1 0x0 MSTORE PUSH1 0x17 PUSH1 0x20 MSTORE PUSH1 0x40 PUSH1 0x0 KECCAK256 PUSH2 0x288C PUSH2 0x5C5 JUMP JUMPDEST DUP2 SLOAD DUP2 MSTORE PUSH1 0x1 DUP3 ADD SLOAD PUSH1 0x1 PUSH1 0x1 PUSH1 0xA0 SHL SUB AND PUSH1 0x20 DUP3 ADD SWAP1 DUP2 MSTORE SWAP2 PUSH2 0x140 SWAP1 PUSH1 0xA SWAP1 PUSH2 0x28B9 PUSH1 0x2 DUP3 ADD PUSH2 0x8AA JUMP JUMPDEST PUSH1 0x40 DUP6 ADD MSTORE PUSH2 0x28CA PUSH1 0x3 DUP3 ADD PUSH2 0x8AA JUMP JUMPDEST PUSH1 0x60 DUP6 ADD MSTORE PUSH2 0x28DB PUSH1 0x4 DUP3 ADD PUSH2 0x1552 JUMP JUMPDEST PUSH1 0x80 DUP6 ADD MSTORE PUSH2 0x28EC PUSH1 0x5 DUP3 ADD PUSH2 0x8AA JUMP JUMPDEST PUSH1 0xA0 DUP6 ADD MSTORE PUSH1 0x6 DUP2 ADD SLOAD PUSH1 0xC0 DUP6 ADD MSTORE PUSH1 0x7 DUP2 ADD SLOAD PUSH1 0xE0 DUP6 ADD MSTORE PUSH1 0x8 DUP2 ADD SLOAD PUSH2 0x100 DUP6 ADD MSTORE PUSH2 0x2921 PUSH2 0x1141 PUSH1 0x9 DUP4 ADD SLOAD PUSH1 0xFF AND SWAP1 JUMP JUMPDEST ADD SLOAD SWAP2 ADD MSTORE PUSH1 0x1 DUP1 PUSH1 0xA0 SHL SUB SWAP1 MLOAD AND PUSH2 0xA06 PUSH2 0x2952 PUSH2 0x1170 PUSH2 0x2948 PUSH2 0x1170 PUSH1 0xC SLOAD DUP8 PUSH2 0x3446 JUMP JUMPDEST SWAP5 PUSH1 0xB SLOAD SWAP1 PUSH2 0x3446 JUMP JUMPDEST PUSH2 0x295C DUP2 DUP6 PUSH2 0x3206 JUMP JUMPDEST PUSH1 0x40 DUP1 MLOAD PUSH1 0x1 PUSH1 0x1 PUSH1 0xA0 SHL SUB SWAP1 SWAP6 AND DUP6 MSTORE PUSH1 0x20 DUP6 ADD SWAP6 SWAP1 SWAP6 MSTORE SWAP4 DUP4 ADD MSTORE PUSH1 0x60 DUP3 ADD SWAP3 SWAP1 SWAP3 MSTORE SWAP1 DUP2 SWAP1 PUSH1 0x80 DUP3 ADD SWAP1 JUMP JUMPDEST POP DUP1 ISZERO ISZERO PUSH2 0x286E JUMP JUMPDEST CALLVALUE PUSH2 0x448 JUMPI PUSH1 0x20 CALLDATASIZE PUSH1 0x3 NOT ADD SLT PUSH2 0x448 JUMPI PUSH1 0x4 CALLDATALOAD PUSH1 0x0 MSTORE PUSH1 0x3 PUSH1 0x20 MSTORE PUSH1 0x20 PUSH1 0x40 PUSH1 0x0 KECCAK256 SLOAD PUSH1 0x40 MLOAD SWAP1 DUP2 MSTORE RETURN JUMPDEST CALLVALUE PUSH2 0x448 JUMPI PUSH1 0x0 CALLDATASIZE PUSH1 0x3 NOT ADD SLT PUSH2 0x448 JUMPI PUSH1 0xD SLOAD PUSH1 0x40 MLOAD PUSH1 0x1 PUSH1 0x1 PUSH1 0xA0 SHL SUB SWAP1 SWAP2 AND DUP2 MSTORE PUSH1 0x20 SWAP1 RETURN JUMPDEST CALLVALUE PUSH2 0x448 JUMPI PUSH1 0xC0 CALLDATASIZE PUSH1 0x3 NOT ADD SLT PUSH2 0x448 JUMPI PUSH1 0x1 PUSH1 0x1 PUSH1 0x40 SHL SUB PUSH1 0x4 CALLDATALOAD DUP2 DUP2 GT PUSH2 0x448 JUMPI PUSH2 0x2A1A SWAP1 CALLDATASIZE SWAP1 PUSH1 0x4 ADD PUSH2 0x600 JUMP JUMPDEST SWAP1 PUSH1 0x24 CALLDATALOAD DUP2 DUP2 GT PUSH2 0x448 JUMPI PUSH2 0x2A33 SWAP1 CALLDATASIZE SWAP1 PUSH1 0x4 ADD PUSH2 0x600 JUMP JUMPDEST PUSH1 0x44 CALLDATALOAD DUP3 DUP2 GT PUSH2 0x448 JUMPI PUSH2 0x2A4B SWAP1 CALLDATASIZE SWAP1 PUSH1 0x4 ADD PUSH2 0x600 JUMP JUMPDEST SWAP3 PUSH1 0x64 CALLDATALOAD SWAP3 DUP4 GT PUSH2 0x448 JUMPI PUSH2 0xA06 SWAP4 PUSH2 0x2A6B PUSH2 0x2A79 SWAP5 CALLDATASIZE SWAP1 PUSH1 0x4 ADD PUSH2 0x600 JUMP JUMPDEST SWAP1 PUSH1 0xA4 CALLDATALOAD SWAP4 PUSH1 0x84 CALLDATALOAD SWAP4 PUSH2 0x3B44 JUMP JUMPDEST PUSH1 0x40 MLOAD SWAP1 DUP2 MSTORE SWAP1 DUP2 SWAP1 PUSH1 0x20 DUP3 ADD SWAP1 JUMP JUMPDEST CALLVALUE PUSH2 0x448 JUMPI PUSH1 0x20 DUP1 PUSH1 0x3 NOT CALLDATASIZE ADD SLT PUSH2 0x448 JUMPI PUSH1 0x4 CALLDATALOAD PUSH2 0x2AA7 DUP2 PUSH2 0x437 JUMP JUMPDEST PUSH1 0x1 PUSH1 0x1 PUSH1 0xA0 SHL SUB AND PUSH1 0x0 SWAP1 DUP2 MSTORE PUSH1 0x19 PUSH1 0x20 SWAP1 DUP2 MSTORE PUSH1 0x40 DUP1 DUP4 KECCAK256 SWAP1 MLOAD DUP2 SLOAD DUP1 DUP3 MSTORE SWAP2 DUP5 MSTORE DUP3 DUP5 KECCAK256 SWAP3 DUP2 ADD SWAP5 SWAP1 SWAP4 SWAP1 JUMPDEST DUP3 DUP3 LT PUSH2 0x2AED JUMPI PUSH2 0xA06 DUP6 PUSH2 0x180A DUP2 DUP10 SUB DUP3 PUSH2 0x5A4 JUMP JUMPDEST DUP4 SLOAD DUP7 MSTORE SWAP5 DUP6 ADD SWAP5 PUSH1 0x1 SWAP4 DUP5 ADD SWAP4 SWAP1 SWAP2 ADD SWAP1 PUSH2 0x2AD6 JUMP JUMPDEST CALLVALUE PUSH2 0x448 JUMPI PUSH1 0x0 CALLDATASIZE PUSH1 0x3 NOT ADD SLT PUSH2 0x448 JUMPI PUSH1 0x20 PUSH1 0xA SLOAD PUSH1 0x40 MLOAD SWAP1 DUP2 MSTORE RETURN JUMPDEST CALLVALUE PUSH2 0x448 JUMPI PUSH1 0x0 DUP1 PUSH1 0x3 NOT CALLDATASIZE ADD SLT PUSH2 0xA8F JUMPI PUSH2 0x2B3C PUSH2 0x4142 JUMP JUMPDEST SELFBALANCE DUP1 ISZERO PUSH2 0x2B6A JUMPI PUSH1 0xD SLOAD DUP3 SWAP2 DUP3 SWAP2 DUP3 SWAP2 DUP3 SWAP2 PUSH2 0x2B60 SWAP1 PUSH1 0x1 PUSH1 0x1 PUSH1 0xA0 SHL SUB AND PUSH2 0xF46 JUMP JUMPDEST DUP3 CALL ISZERO PUSH2 0x1BA4 JUMPI DUP1 RETURN JUMPDEST PUSH1 0x40 MLOAD PUSH3 0x461BCD PUSH1 0xE5 SHL DUP2 MSTORE PUSH1 0x20 PUSH1 0x4 DUP3 ADD MSTORE PUSH1 0x13 PUSH1 0x24 DUP3 ADD MSTORE PUSH19 0x4E6F206665657320746F207769746864726177 PUSH1 0x68 SHL PUSH1 0x44 DUP3 ADD MSTORE PUSH1 0x64 SWAP1 REVERT JUMPDEST CALLVALUE PUSH2 0x448 JUMPI PUSH1 0x20 CALLDATASIZE PUSH1 0x3 NOT ADD SLT PUSH2 0x448 JUMPI PUSH1 0x4 CALLDATALOAD PUSH1 0x13 SLOAD DUP2 LT ISZERO PUSH2 0x448 JUMPI PUSH1 0x13 PUSH1 0x0 MSTORE PUSH32 0x66DE8FFDA797E3DE9C05E8FC57B3BF0EC28A930D40B0D285D93C06501CF6A090 ADD SLOAD PUSH1 0x40 MLOAD PUSH1 0x1 PUSH1 0x1 PUSH1 0xA0 SHL SUB SWAP1 SWAP2 AND DUP2 MSTORE PUSH1 0x20 SWAP1 RETURN JUMPDEST CALLVALUE PUSH2 0x448 JUMPI PUSH1 0x20 DUP1 PUSH1 0x3 NOT CALLDATASIZE ADD SLT PUSH2 0x448 JUMPI PUSH1 0x4 CALLDATALOAD PUSH2 0x2C1E DUP2 PUSH2 0x437 JUMP JUMPDEST PUSH1 0x1 PUSH1 0x1 PUSH1 0xA0 SHL SUB AND PUSH1 0x0 SWAP1 DUP2 MSTORE PUSH1 0x1A PUSH1 0x20 SWAP1 DUP2 MSTORE PUSH1 0x40 DUP1 DUP4 KECCAK256 SWAP1 MLOAD DUP2 SLOAD DUP1 DUP3 MSTORE SWAP2 DUP5 MSTORE DUP3 DUP5 KECCAK256 SWAP3 DUP2 ADD SWAP5 SWAP1 SWAP4 SWAP1 JUMPDEST DUP3 DUP3 LT PUSH2 0x2C64 JUMPI PUSH2 0xA06 DUP6 PUSH2 0x180A DUP2 DUP10 SUB DUP3 PUSH2 0x5A4 JUMP JUMPDEST DUP4 SLOAD DUP7 MSTORE SWAP5 DUP6 ADD SWAP5 PUSH1 0x1 SWAP4 DUP5 ADD SWAP4 SWAP1 SWAP2 ADD SWAP1 PUSH2 0x2C4D JUMP JUMPDEST CALLVALUE PUSH2 0x448 JUMPI PUSH1 0x40 CALLDATASIZE PUSH1 0x3 NOT ADD SLT PUSH2 0x448 JUMPI PUSH1 0x20 PUSH1 0xFF PUSH2 0x2CD7 PUSH1 0x4 CALLDATALOAD PUSH2 0x2C9F DUP2 PUSH2 0x437 JUMP JUMPDEST PUSH1 0x24 CALLDATALOAD SWAP1 PUSH2 0x2CAC DUP3 PUSH2 0x437 JUMP JUMPDEST PUSH1 0x1 DUP1 PUSH1 0xA0 SHL SUB AND PUSH1 0x0 MSTORE PUSH1 0x1 DUP5 MSTORE PUSH1 0x40 PUSH1 0x0 KECCAK256 SWAP1 PUSH1 0x1 DUP1 PUSH1 0xA0 SHL SUB AND PUSH1 0x0 MSTORE PUSH1 0x20 MSTORE PUSH1 0x40 PUSH1 0x0 KECCAK256 SWAP1 JUMP JUMPDEST SLOAD AND PUSH1 0x40 MLOAD SWAP1 ISZERO ISZERO DUP2 MSTORE RETURN JUMPDEST CALLVALUE PUSH2 0x448 JUMPI PUSH1 0x0 CALLDATASIZE PUSH1 0x3 NOT ADD SLT PUSH2 0x448 JUMPI PUSH1 0x20 PUSH1 0xC SLOAD PUSH1 0x40 MLOAD SWAP1 DUP2 MSTORE RETURN JUMPDEST CALLVALUE PUSH2 0x448 JUMPI PUSH1 0x20 CALLDATASIZE PUSH1 0x3 NOT ADD SLT PUSH2 0x448 JUMPI PUSH1 0x4 CALLDATALOAD PUSH1 0x1 PUSH1 0x1 PUSH1 0x40 SHL SUB DUP1 DUP3 GT PUSH2 0x448 JUMPI CALLDATASIZE PUSH1 0x23 DUP4 ADD SLT ISZERO PUSH2 0x448 JUMPI DUP2 PUSH1 0x4 ADD CALLDATALOAD SWAP1 DUP2 GT PUSH2 0x448 JUMPI PUSH1 0x24 PUSH1 0x5 SWAP3 CALLDATASIZE PUSH1 0x24 DUP5 PUSH1 0x5 SHL DUP4 ADD ADD GT PUSH2 0x448 JUMPI PUSH1 0x0 SWAP4 CALLER DUP6 MSTORE PUSH1 0x12 PUSH1 0x20 MSTORE PUSH1 0xFF PUSH1 0x40 DUP7 KECCAK256 SLOAD AND DUP1 ISZERO PUSH2 0x2E42 JUMPI JUMPDEST PUSH2 0x2D72 SWAP1 PUSH2 0x3252 JUMP JUMPDEST DUP5 JUMPDEST DUP5 DUP2 LT PUSH2 0x2D7F JUMPI DUP6 DUP1 RETURN JUMPDEST DUP1 DUP5 PUSH1 0x1 SWAP3 DUP5 SHL DUP6 ADD ADD CALLDATALOAD PUSH2 0x2D93 DUP2 PUSH2 0x437 JUMP JUMPDEST PUSH1 0x1 PUSH1 0x1 PUSH1 0xA0 SHL SUB DUP2 AND PUSH1 0x0 SWAP1 DUP2 MSTORE PUSH1 0x10 PUSH1 0x20 MSTORE PUSH1 0x40 SWAP1 KECCAK256 PUSH2 0x2DBD SWAP1 PUSH2 0x2DB8 SWAP1 PUSH2 0xEB3 JUMP JUMPDEST PUSH2 0x40B1 JUMP JUMPDEST PUSH2 0x2DE7 PUSH2 0x2DE2 PUSH2 0x1A92 PUSH2 0xEB3 DUP5 PUSH1 0x1 DUP1 PUSH1 0xA0 SHL SUB AND PUSH1 0x0 MSTORE PUSH1 0x11 PUSH1 0x20 MSTORE PUSH1 0x40 PUSH1 0x0 KECCAK256 SWAP1 JUMP JUMPDEST PUSH2 0x40F6 JUMP JUMPDEST PUSH1 0x1 PUSH1 0x1 PUSH1 0xA0 SHL SUB DUP2 AND PUSH1 0x0 SWAP1 DUP2 MSTORE PUSH1 0x11 PUSH1 0x20 MSTORE PUSH1 0x40 SWAP1 KECCAK256 PUSH2 0x2E08 SWAP1 PUSH2 0x1DB2 JUMP JUMPDEST PUSH2 0x2E11 DUP2 PUSH2 0x381D JUMP JUMPDEST DUP3 DUP1 PUSH1 0xA0 SHL SUB AND PUSH32 0x4F783C179409B4127238BC9C990BC99B9A651666A0D20B51D6C42849EB88466D DUP9 DUP1 LOG2 ADD PUSH2 0x2D74 JUMP JUMPDEST POP PUSH1 0x5 SLOAD PUSH1 0x1 PUSH1 0x1 PUSH1 0xA0 SHL SUB AND CALLER EQ PUSH2 0x2D69 JUMP JUMPDEST CALLVALUE PUSH2 0x448 JUMPI PUSH1 0xA0 CALLDATASIZE PUSH1 0x3 NOT ADD SLT PUSH2 0x448 JUMPI PUSH1 0x4 CALLDATALOAD PUSH2 0x2E73 DUP2 PUSH2 0x437 JUMP JUMPDEST PUSH1 0x24 CALLDATALOAD PUSH2 0x2E7F DUP2 PUSH2 0x437 JUMP JUMPDEST PUSH1 0x84 CALLDATALOAD PUSH1 0x1 PUSH1 0x1 PUSH1 0x40 SHL SUB DUP2 GT PUSH2 0x448 JUMPI PUSH2 0x2E9E SWAP1 CALLDATASIZE SWAP1 PUSH1 0x4 ADD PUSH2 0x600 JUMP JUMPDEST SWAP1 PUSH1 0x1 PUSH1 0x1 PUSH1 0xA0 SHL SUB DUP4 DUP2 AND SWAP1 CALLER DUP3 EQ ISZERO DUP1 PUSH2 0x2F57 JUMPI JUMPDEST PUSH2 0x2F30 JUMPI DUP3 AND ISZERO PUSH2 0x2F17 JUMPI ISZERO PUSH2 0x2EFF JUMPI PUSH2 0x12CD SWAP3 PUSH2 0x2EF7 PUSH1 0x64 CALLDATALOAD PUSH1 0x44 CALLDATALOAD SWAP2 PUSH1 0x40 MLOAD SWAP3 PUSH1 0x1 DUP5 MSTORE PUSH1 0x20 DUP5 ADD MSTORE PUSH1 0x40 DUP4 ADD SWAP2 PUSH1 0x1 DUP4 MSTORE PUSH1 0x60 DUP5 ADD MSTORE PUSH1 0x80 DUP4 ADD PUSH1 0x40 MSTORE JUMP JUMPDEST SWAP3 SWAP1 SWAP2 PUSH2 0x4D01 JUMP JUMPDEST PUSH1 0x40 MLOAD PUSH3 0x6A0D45 PUSH1 0xE2 SHL DUP2 MSTORE PUSH1 0x0 PUSH1 0x4 DUP3 ADD MSTORE PUSH1 0x24 SWAP1 REVERT JUMPDEST PUSH1 0x40 MLOAD PUSH4 0x2BFA23E7 PUSH1 0xE1 SHL DUP2 MSTORE PUSH1 0x0 PUSH1 0x4 DUP3 ADD MSTORE PUSH1 0x24 SWAP1 REVERT JUMPDEST PUSH1 0x40 MLOAD PUSH4 0x711BEC91 PUSH1 0xE1 SHL DUP2 MSTORE CALLER PUSH1 0x4 DUP3 ADD MSTORE PUSH1 0x1 PUSH1 0x1 PUSH1 0xA0 SHL SUB DUP7 AND PUSH1 0x24 DUP3 ADD MSTORE PUSH1 0x44 SWAP1 REVERT JUMPDEST POP PUSH1 0x0 DUP3 DUP2 MSTORE PUSH1 0x1 PUSH1 0x20 SWAP1 DUP2 MSTORE PUSH1 0x40 DUP1 DUP4 KECCAK256 CALLER DUP5 MSTORE SWAP1 SWAP2 MSTORE SWAP1 KECCAK256 SLOAD PUSH1 0xFF AND ISZERO PUSH2 0x2EB5 JUMP JUMPDEST CALLVALUE PUSH2 0x448 JUMPI PUSH1 0x20 CALLDATASIZE PUSH1 0x3 NOT ADD SLT PUSH2 0x448 JUMPI PUSH1 0x4 CALLDATALOAD PUSH2 0x2F98 DUP2 PUSH2 0x437 JUMP JUMPDEST PUSH2 0x2FA0 PUSH2 0x4142 JUMP JUMPDEST PUSH1 0x1 PUSH1 0x1 PUSH1 0xA0 SHL SUB SWAP1 DUP2 AND SWAP1 DUP2 ISZERO PUSH2 0x2FEF JUMPI PUSH1 0x5 SLOAD DUP3 PUSH1 0x1 PUSH1 0x1 PUSH1 0x60 SHL SUB PUSH1 0xA0 SHL DUP3 AND OR PUSH1 0x5 SSTORE AND PUSH32 0x8BE0079C531659141344CD1FD0A4F28419497F9722A3DAAFE3B4186F6B6457E0 PUSH1 0x0 DUP1 LOG3 STOP JUMPDEST PUSH1 0x40 MLOAD PUSH4 0x1E4FBDF7 PUSH1 0xE0 SHL DUP2 MSTORE PUSH1 0x0 PUSH1 0x4 DUP3 ADD MSTORE PUSH1 0x24 SWAP1 REVERT JUMPDEST SWAP1 PUSH1 0xA PUSH2 0x3013 PUSH2 0x5C5 JUMP JUMPDEST DUP4 SLOAD DUP2 MSTORE PUSH1 0x1 DUP5 ADD SLOAD PUSH1 0x1 PUSH1 0x1 PUSH1 0xA0 SHL SUB AND PUSH1 0x20 DUP3 ADD MSTORE SWAP3 PUSH2 0x3037 PUSH1 0x2 DUP3 ADD PUSH2 0x8AA JUMP JUMPDEST PUSH1 0x40 DUP6 ADD MSTORE PUSH2 0x3048 PUSH1 0x3 DUP3 ADD PUSH2 0x8AA JUMP JUMPDEST PUSH1 0x60 DUP6 ADD MSTORE PUSH2 0x3059 PUSH1 0x4 DUP3 ADD PUSH2 0x1552 JUMP JUMPDEST PUSH1 0x80 DUP6 ADD MSTORE PUSH2 0x306A PUSH1 0x5 DUP3 ADD PUSH2 0x8AA JUMP JUMPDEST PUSH1 0xA0 DUP6 ADD MSTORE PUSH1 0x6 DUP2 ADD SLOAD PUSH1 0xC0 DUP6 ADD MSTORE PUSH1 0x7 DUP2 ADD SLOAD PUSH1 0xE0 DUP6 ADD MSTORE PUSH1 0x8 DUP2 ADD SLOAD PUSH2 0x100 DUP6 ADD MSTORE PUSH2 0x309F PUSH2 0x1141 PUSH1 0x9 DUP4 ADD SLOAD PUSH1 0xFF AND SWAP1 JUMP JUMPDEST ADD SLOAD PUSH2 0x140 DUP4 ADD MSTORE JUMP JUMPDEST PUSH1 0xE SLOAD DUP2 GT ISZERO DUP1 PUSH2 0x3185 JUMPI JUMPDEST PUSH2 0x30C3 JUMPI JUMPDEST POP PUSH2 0x9A6 PUSH2 0x7E4 JUMP JUMPDEST DUP1 PUSH1 0x0 MSTORE PUSH1 0x17 PUSH1 0x20 MSTORE PUSH1 0x40 PUSH1 0x0 KECCAK256 PUSH2 0x30D9 PUSH2 0x5C5 JUMP JUMPDEST DUP2 SLOAD DUP2 MSTORE PUSH1 0x1 DUP3 ADD SLOAD PUSH2 0x30F4 SWAP1 PUSH1 0x1 PUSH1 0x1 PUSH1 0xA0 SHL SUB AND PUSH2 0x141A JUMP JUMPDEST PUSH2 0x3100 PUSH1 0x2 DUP4 ADD PUSH2 0x8AA JUMP JUMPDEST PUSH1 0x40 DUP3 ADD MSTORE PUSH2 0x3111 PUSH1 0x3 DUP4 ADD PUSH2 0x8AA JUMP JUMPDEST PUSH1 0x60 DUP3 ADD MSTORE PUSH2 0x140 PUSH1 0xA PUSH2 0x3127 PUSH1 0x4 DUP6 ADD PUSH2 0x1552 JUMP JUMPDEST SWAP4 PUSH1 0x80 DUP5 ADD SWAP5 DUP6 MSTORE PUSH2 0x313B PUSH1 0x5 DUP3 ADD PUSH2 0x8AA JUMP JUMPDEST PUSH1 0xA0 DUP6 ADD MSTORE PUSH1 0x6 DUP2 ADD SLOAD PUSH1 0xC0 DUP6 ADD MSTORE PUSH1 0x7 DUP2 ADD SLOAD PUSH1 0xE0 DUP6 ADD MSTORE PUSH1 0x8 DUP2 ADD SLOAD PUSH2 0x100 DUP6 ADD MSTORE PUSH2 0x3170 PUSH2 0x1141 PUSH1 0x9 DUP4 ADD SLOAD PUSH1 0xFF AND SWAP1 JUMP JUMPDEST ADD SLOAD SWAP2 ADD MSTORE MLOAD MLOAD ISZERO PUSH2 0x30BA JUMPI PUSH2 0x9A6 SWAP1 PUSH2 0x4185 JUMP JUMPDEST POP DUP1 ISZERO ISZERO PUSH2 0x30B5 JUMP JUMPDEST PUSH4 0x4E487B71 PUSH1 0xE0 SHL PUSH1 0x0 MSTORE PUSH1 0x11 PUSH1 0x4 MSTORE PUSH1 0x24 PUSH1 0x0 REVERT JUMPDEST SWAP1 PUSH1 0x2 DUP3 ADD DUP1 SWAP3 GT PUSH2 0xBD9 JUMPI JUMP JUMPDEST SWAP1 PUSH1 0x3 DUP3 ADD DUP1 SWAP3 GT PUSH2 0xBD9 JUMPI JUMP JUMPDEST SWAP1 PUSH1 0x1 DUP3 ADD DUP1 SWAP3 GT PUSH2 0xBD9 JUMPI JUMP JUMPDEST PUSH1 0x30 ADD SWAP1 DUP2 PUSH1 0x30 GT PUSH2 0xBD9 JUMPI JUMP JUMPDEST SWAP1 PUSH1 0xC DUP3 ADD DUP1 SWAP3 GT PUSH2 0xBD9 JUMPI JUMP JUMPDEST PUSH1 0x2 ADD SWAP1 DUP2 PUSH1 0x2 GT PUSH2 0xBD9 JUMPI JUMP JUMPDEST PUSH1 0x3 ADD SWAP1 DUP2 PUSH1 0x3 GT PUSH2 0xBD9 JUMPI JUMP JUMPDEST SWAP2 SWAP1 DUP3 ADD DUP1 SWAP3 GT PUSH2 0xBD9 JUMPI JUMP JUMPDEST ISZERO PUSH2 0x321A JUMPI JUMP JUMPDEST PUSH1 0x40 MLOAD PUSH3 0x461BCD PUSH1 0xE5 SHL DUP2 MSTORE PUSH1 0x20 PUSH1 0x4 DUP3 ADD MSTORE PUSH1 0x10 PUSH1 0x24 DUP3 ADD MSTORE PUSH16 0x125B9D985B1A59081D1BDAD95B881251 PUSH1 0x82 SHL PUSH1 0x44 DUP3 ADD MSTORE PUSH1 0x64 SWAP1 REVERT JUMPDEST ISZERO PUSH2 0x3259 JUMPI JUMP JUMPDEST PUSH1 0x40 MLOAD PUSH3 0x461BCD PUSH1 0xE5 SHL DUP2 MSTORE PUSH1 0x20 PUSH1 0x4 DUP3 ADD MSTORE PUSH1 0xC PUSH1 0x24 DUP3 ADD MSTORE PUSH12 0x2737BA1030B71030B236B4B7 PUSH1 0xA1 SHL PUSH1 0x44 DUP3 ADD MSTORE PUSH1 0x64 SWAP1 REVERT JUMPDEST ISZERO PUSH2 0x3294 JUMPI JUMP JUMPDEST PUSH1 0x40 MLOAD PUSH3 0x461BCD PUSH1 0xE5 SHL DUP2 MSTORE PUSH1 0x20 PUSH1 0x4 DUP3 ADD MSTORE PUSH1 0x1E PUSH1 0x24 DUP3 ADD MSTORE PUSH32 0x43616E6E6F742072656D6F7665206F776E65722066726F6D2061646D696E0000 PUSH1 0x44 DUP3 ADD MSTORE PUSH1 0x64 SWAP1 REVERT JUMPDEST ISZERO PUSH2 0x32E0 JUMPI JUMP JUMPDEST PUSH1 0x40 MLOAD PUSH3 0x461BCD PUSH1 0xE5 SHL DUP2 MSTORE PUSH1 0x20 PUSH1 0x4 DUP3 ADD MSTORE PUSH1 0x21 PUSH1 0x24 DUP3 ADD MSTORE PUSH32 0x43616E6E6F742072656D6F766520796F757273656C662066726F6D2061646D69 PUSH1 0x44 DUP3 ADD MSTORE PUSH1 0x37 PUSH1 0xF9 SHL PUSH1 0x64 DUP3 ADD MSTORE PUSH1 0x84 SWAP1 REVERT JUMPDEST PUSH1 0x0 NOT DUP2 ADD SWAP2 SWAP1 DUP3 GT PUSH2 0xBD9 JUMPI JUMP JUMPDEST PUSH1 0x1 NOT DUP2 ADD SWAP2 SWAP1 DUP3 GT PUSH2 0xBD9 JUMPI JUMP JUMPDEST SWAP2 SWAP1 DUP3 SUB SWAP2 DUP3 GT PUSH2 0xBD9 JUMPI JUMP JUMPDEST PUSH1 0x15 SLOAD DUP1 ISZERO PUSH2 0x33AE JUMPI PUSH1 0x0 NOT DUP2 ADD SWAP1 DUP1 DUP3 LT ISZERO PUSH2 0x18E3 JUMPI PUSH32 0x55F448FDEA98C4D29EB340757EF0A66CD03DBB9538908A6A81D96026B71EC474 SWAP1 PUSH1 0x15 PUSH1 0x0 MSTORE ADD PUSH1 0x1 PUSH1 0x1 PUSH1 0x60 SHL SUB PUSH1 0xA0 SHL DUP2 SLOAD AND SWAP1 SSTORE PUSH1 0x15 SSTORE JUMP JUMPDEST PUSH4 0x4E487B71 PUSH1 0xE0 SHL PUSH1 0x0 MSTORE PUSH1 0x31 PUSH1 0x4 MSTORE PUSH1 0x24 PUSH1 0x0 REVERT JUMPDEST PUSH1 0x14 SLOAD DUP1 ISZERO PUSH2 0x33AE JUMPI PUSH1 0x0 NOT DUP2 ADD SWAP1 DUP1 DUP3 LT ISZERO PUSH2 0x18E3 JUMPI PUSH32 0xCE6D7B5282BD9A3661AE061FEED1DBDA4E52AB073B1F9285BE6E155D9C38D4EB SWAP1 PUSH1 0x14 PUSH1 0x0 MSTORE ADD PUSH1 0x1 PUSH1 0x1 PUSH1 0x60 SHL SUB PUSH1 0xA0 SHL DUP2 SLOAD AND SWAP1 SSTORE PUSH1 0x14 SSTORE JUMP JUMPDEST PUSH1 0x2 DUP2 SWAP1 SHL SWAP2 SWAP1 PUSH1 0x1 PUSH1 0x1 PUSH1 0xFE SHL SUB DUP2 AND SUB PUSH2 0xBD9 JUMPI JUMP JUMPDEST SWAP1 DUP2 PUSH1 0x1 SHL SWAP2 DUP1 DUP4 DIV PUSH1 0x2 EQ SWAP1 ISZERO OR ISZERO PUSH2 0xBD9 JUMPI JUMP JUMPDEST DUP2 DUP2 MUL SWAP3 SWAP2 DUP2 ISZERO SWAP2 DUP5 DIV EQ OR ISZERO PUSH2 0xBD9 JUMPI JUMP JUMPDEST DUP1 MLOAD DUP3 LT ISZERO PUSH2 0x18E3 JUMPI PUSH1 0x20 SWAP2 PUSH1 0x5 SHL ADD ADD SWAP1 JUMP JUMPDEST SWAP2 SWAP1 SWAP2 DUP1 MLOAD DUP4 MLOAD DUP1 DUP3 SUB PUSH2 0x350A JUMPI POP POP DUP1 MLOAD SWAP1 PUSH2 0x34A2 PUSH2 0x348C DUP4 PUSH2 0x11AB JUMP JUMPDEST SWAP3 PUSH2 0x349A PUSH1 0x40 MLOAD SWAP5 DUP6 PUSH2 0x5A4 JUMP JUMPDEST DUP1 DUP5 MSTORE PUSH2 0x11AB JUMP JUMPDEST PUSH1 0x20 SWAP2 SWAP1 PUSH1 0x1F NOT ADD CALLDATASIZE DUP5 DUP5 ADD CALLDATACOPY PUSH1 0x0 JUMPDEST DUP2 MLOAD DUP2 LT ISZERO PUSH2 0x3502 JUMPI PUSH1 0x5 DUP2 SWAP1 SHL DUP3 DUP2 ADD DUP5 ADD MLOAD SWAP1 DUP8 ADD DUP5 ADD MLOAD PUSH1 0x0 SWAP1 DUP2 MSTORE PUSH1 0x20 DUP2 DUP2 MSTORE PUSH1 0x40 DUP1 DUP4 KECCAK256 PUSH1 0x1 PUSH1 0x1 PUSH1 0xA0 SHL SUB SWAP1 SWAP5 AND DUP4 MSTORE SWAP3 SWAP1 MSTORE KECCAK256 SLOAD PUSH1 0x1 SWAP2 SWAP1 PUSH2 0x34FB DUP3 DUP8 PUSH2 0x3459 JUMP JUMPDEST MSTORE ADD PUSH2 0x34B2 JUMP JUMPDEST POP SWAP2 SWAP4 POP POP POP JUMP JUMPDEST PUSH1 0x40 MLOAD PUSH4 0x5B059991 PUSH1 0xE0 SHL DUP2 MSTORE PUSH1 0x4 DUP2 ADD SWAP2 SWAP1 SWAP2 MSTORE PUSH1 0x24 DUP2 ADD SWAP2 SWAP1 SWAP2 MSTORE PUSH1 0x44 SWAP1 REVERT JUMPDEST ISZERO PUSH2 0x3533 JUMPI JUMP JUMPDEST PUSH1 0x40 MLOAD PUSH3 0x461BCD PUSH1 0xE5 SHL DUP2 MSTORE PUSH1 0x20 PUSH1 0x4 DUP3 ADD MSTORE PUSH1 0xE PUSH1 0x24 DUP3 ADD MSTORE PUSH14 0x139BDD081D1A1948185C9D1A5CDD PUSH1 0x92 SHL PUSH1 0x44 DUP3 ADD MSTORE PUSH1 0x64 SWAP1 REVERT JUMPDEST ISZERO PUSH2 0x3570 JUMPI JUMP JUMPDEST PUSH1 0x40 MLOAD PUSH3 0x461BCD PUSH1 0xE5 SHL DUP2 MSTORE PUSH1 0x20 PUSH1 0x4 DUP3 ADD MSTORE PUSH1 0xF PUSH1 0x24 DUP3 ADD MSTORE PUSH15 0x139BDD081DDA1A5D195B1A5CDD1959 PUSH1 0x8A SHL PUSH1 0x44 DUP3 ADD MSTORE PUSH1 0x64 SWAP1 REVERT JUMPDEST ISZERO PUSH2 0x35AE JUMPI JUMP JUMPDEST PUSH1 0x40 MLOAD PUSH3 0x461BCD PUSH1 0xE5 SHL DUP2 MSTORE PUSH1 0x20 PUSH1 0x4 DUP3 ADD MSTORE PUSH1 0x15 PUSH1 0x24 DUP3 ADD MSTORE PUSH21 0x417274776F726B206973206E6F7420616374697665 PUSH1 0x58 SHL PUSH1 0x44 DUP3 ADD MSTORE PUSH1 0x64 SWAP1 REVERT JUMPDEST ISZERO PUSH2 0x35F2 JUMPI JUMP JUMPDEST PUSH1 0x40 MLOAD PUSH3 0x461BCD PUSH1 0xE5 SHL DUP2 MSTORE PUSH1 0x20 PUSH1 0x4 DUP3 ADD MSTORE PUSH1 0x1D PUSH1 0x24 DUP3 ADD MSTORE PUSH32 0x416D6F756E74206D7573742062652067726561746572207468616E2030000000 PUSH1 0x44 DUP3 ADD MSTORE PUSH1 0x64 SWAP1 REVERT JUMPDEST ISZERO PUSH2 0x363E JUMPI JUMP JUMPDEST PUSH1 0x40 MLOAD PUSH3 0x461BCD PUSH1 0xE5 SHL DUP2 MSTORE PUSH1 0x20 PUSH1 0x4 DUP3 ADD MSTORE PUSH1 0x12 PUSH1 0x24 DUP3 ADD MSTORE PUSH18 0x45786365656473206D617820737570706C79 PUSH1 0x70 SHL PUSH1 0x44 DUP3 ADD MSTORE PUSH1 0x64 SWAP1 REVERT JUMPDEST ISZERO PUSH2 0x367F JUMPI JUMP JUMPDEST PUSH1 0x40 MLOAD PUSH3 0x461BCD PUSH1 0xE5 SHL DUP2 MSTORE PUSH1 0x20 PUSH1 0x4 DUP3 ADD MSTORE PUSH1 0x14 PUSH1 0x24 DUP3 ADD MSTORE PUSH20 0x125B9CDD59999A58DA595B9D081C185E5B595B9D PUSH1 0x62 SHL PUSH1 0x44 DUP3 ADD MSTORE PUSH1 0x64 SWAP1 REVERT JUMPDEST PUSH1 0x40 MLOAD SWAP1 PUSH1 0x20 DUP3 ADD DUP3 DUP2 LT PUSH1 0x1 PUSH1 0x1 PUSH1 0x40 SHL SUB DUP3 GT OR PUSH2 0x569 JUMPI PUSH1 0x40 MSTORE PUSH1 0x0 DUP3 MSTORE JUMP JUMPDEST DUP1 SLOAD PUSH1 0x1 PUSH1 0x40 SHL DUP2 LT ISZERO PUSH2 0x569 JUMPI PUSH2 0x36FB SWAP2 PUSH1 0x1 DUP3 ADD DUP2 SSTORE PUSH2 0x190D JUMP JUMPDEST DUP2 SWAP3 SWAP2 SLOAD SWAP1 PUSH1 0x3 SHL SWAP2 DUP3 SHL SWAP2 PUSH1 0x0 NOT SWAP1 SHL NOT AND OR SWAP1 SSTORE JUMP JUMPDEST PUSH1 0x40 MLOAD RETURNDATASIZE PUSH1 0x0 DUP3 RETURNDATACOPY RETURNDATASIZE SWAP1 REVERT JUMPDEST ISZERO PUSH2 0x3726 JUMPI JUMP JUMPDEST PUSH1 0x40 MLOAD PUSH3 0x461BCD PUSH1 0xE5 SHL DUP2 MSTORE PUSH1 0x20 PUSH1 0x4 DUP3 ADD MSTORE PUSH1 0x13 PUSH1 0x24 DUP3 ADD MSTORE PUSH19 0x105B1C9958591E481DDA1A5D195B1A5CDD1959 PUSH1 0x6A SHL PUSH1 0x44 DUP3 ADD MSTORE PUSH1 0x64 SWAP1 REVERT JUMPDEST PUSH1 0x13 SLOAD SWAP1 PUSH1 0x1 PUSH1 0x40 SHL DUP3 LT ISZERO PUSH2 0x569 JUMPI PUSH1 0x1 DUP3 ADD DUP1 PUSH1 0x13 SSTORE DUP3 LT ISZERO PUSH2 0x18E3 JUMPI PUSH1 0x13 PUSH1 0x0 MSTORE PUSH32 0x66DE8FFDA797E3DE9C05E8FC57B3BF0EC28A930D40B0D285D93C06501CF6A090 SWAP1 SWAP2 ADD DUP1 SLOAD PUSH1 0x1 PUSH1 0x1 PUSH1 0xA0 SHL SUB NOT AND PUSH1 0x1 PUSH1 0x1 PUSH1 0xA0 SHL SUB SWAP1 SWAP3 AND SWAP2 SWAP1 SWAP2 OR SWAP1 SSTORE JUMP JUMPDEST PUSH1 0x15 SLOAD SWAP1 PUSH1 0x1 PUSH1 0x40 SHL DUP3 LT ISZERO PUSH2 0x569 JUMPI PUSH1 0x1 DUP3 ADD DUP1 PUSH1 0x15 SSTORE DUP3 LT ISZERO PUSH2 0x18E3 JUMPI PUSH1 0x15 PUSH1 0x0 MSTORE PUSH1 0x0 DUP1 MLOAD PUSH1 0x20 PUSH2 0x54B0 DUP4 CODECOPY DUP2 MLOAD SWAP2 MSTORE SWAP1 SWAP2 ADD DUP1 SLOAD PUSH1 0x1 PUSH1 0x1 PUSH1 0xA0 SHL SUB NOT AND PUSH1 0x1 PUSH1 0x1 PUSH1 0xA0 SHL SUB SWAP1 SWAP3 AND SWAP2 SWAP1 SWAP2 OR SWAP1 SSTORE JUMP JUMPDEST PUSH1 0x14 SLOAD SWAP1 PUSH1 0x1 PUSH1 0x40 SHL DUP3 LT ISZERO PUSH2 0x569 JUMPI PUSH1 0x1 DUP3 ADD DUP1 PUSH1 0x14 SSTORE DUP3 LT ISZERO PUSH2 0x18E3 JUMPI PUSH1 0x14 PUSH1 0x0 MSTORE PUSH1 0x0 DUP1 MLOAD PUSH1 0x20 PUSH2 0x54D0 DUP4 CODECOPY DUP2 MLOAD SWAP2 MSTORE SWAP1 SWAP2 ADD DUP1 SLOAD PUSH1 0x1 PUSH1 0x1 PUSH1 0xA0 SHL SUB NOT AND PUSH1 0x1 PUSH1 0x1 PUSH1 0xA0 SHL SUB SWAP1 SWAP3 AND SWAP2 SWAP1 SWAP2 OR SWAP1 SSTORE JUMP JUMPDEST ISZERO PUSH2 0x3879 JUMPI JUMP JUMPDEST PUSH1 0x40 MLOAD PUSH3 0x461BCD PUSH1 0xE5 SHL DUP2 MSTORE PUSH1 0x20 PUSH1 0x4 DUP3 ADD MSTORE PUSH1 0x10 PUSH1 0x24 DUP3 ADD MSTORE PUSH16 0x20B63932B0B23C9030B71030B236B4B7 PUSH1 0x81 SHL PUSH1 0x44 DUP3 ADD MSTORE PUSH1 0x64 SWAP1 REVERT JUMPDEST ISZERO PUSH2 0x38B8 JUMPI JUMP JUMPDEST PUSH1 0x40 MLOAD PUSH3 0x461BCD PUSH1 0xE5 SHL DUP2 MSTORE PUSH1 0x20 PUSH1 0x4 DUP3 ADD MSTORE PUSH1 0xF PUSH1 0x24 DUP3 ADD MSTORE PUSH15 0x496E76616C69642061646472657373 PUSH1 0x88 SHL PUSH1 0x44 DUP3 ADD MSTORE PUSH1 0x64 SWAP1 REVERT JUMPDEST ISZERO PUSH2 0x38F6 JUMPI JUMP JUMPDEST PUSH1 0x40 MLOAD PUSH3 0x461BCD PUSH1 0xE5 SHL DUP2 MSTORE PUSH1 0x20 PUSH1 0x4 DUP3 ADD MSTORE PUSH1 0x17 PUSH1 0x24 DUP3 ADD MSTORE PUSH32 0x41646472657373206E6F742077686974656C6973746564000000000000000000 PUSH1 0x44 DUP3 ADD MSTORE PUSH1 0x64 SWAP1 REVERT JUMPDEST ISZERO PUSH2 0x3942 JUMPI JUMP JUMPDEST PUSH1 0x40 MLOAD PUSH3 0x461BCD PUSH1 0xE5 SHL DUP2 MSTORE PUSH1 0x20 PUSH1 0x4 DUP3 ADD MSTORE PUSH1 0x22 PUSH1 0x24 DUP3 ADD MSTORE PUSH32 0x43616E6E6F742072656D6F7665206F776E65722066726F6D2077686974656C69 PUSH1 0x44 DUP3 ADD MSTORE PUSH2 0x1CDD PUSH1 0xF2 SHL PUSH1 0x64 DUP3 ADD MSTORE PUSH1 0x84 SWAP1 REVERT JUMPDEST DUP2 DUP2 LT PUSH2 0x399D JUMPI POP POP JUMP JUMPDEST PUSH1 0x0 DUP2 SSTORE PUSH1 0x1 ADD PUSH2 0x3992 JUMP JUMPDEST SWAP1 PUSH1 0x1F DUP3 GT PUSH2 0x39B6 JUMPI POP POP JUMP JUMPDEST PUSH2 0x823 SWAP2 PUSH1 0x2 PUSH1 0x0 MSTORE PUSH32 0x405787FA12A823E0F2B7631CC41B3BA8828B3321CA811111FA75CD3AA3BB5ACE SWAP1 PUSH1 0x20 PUSH1 0x1F DUP5 ADD PUSH1 0x5 SHR DUP4 ADD SWAP4 LT PUSH2 0x3A00 JUMPI JUMPDEST PUSH1 0x1F ADD PUSH1 0x5 SHR ADD SWAP1 PUSH2 0x3992 JUMP JUMPDEST SWAP1 SWAP2 POP DUP2 SWAP1 PUSH2 0x39F3 JUMP JUMPDEST SWAP2 SWAP1 PUSH1 0x1F DUP2 GT PUSH2 0x3A19 JUMPI POP POP POP JUMP JUMPDEST PUSH2 0x823 SWAP3 PUSH1 0x0 MSTORE PUSH1 0x20 PUSH1 0x0 KECCAK256 SWAP1 PUSH1 0x20 PUSH1 0x1F DUP5 ADD PUSH1 0x5 SHR DUP4 ADD SWAP4 LT PUSH2 0x3A00 JUMPI PUSH1 0x1F ADD PUSH1 0x5 SHR ADD SWAP1 PUSH2 0x3992 JUMP JUMPDEST SWAP2 SWAP1 SWAP2 DUP3 MLOAD PUSH1 0x1 PUSH1 0x1 PUSH1 0x40 SHL SUB DUP2 GT PUSH2 0x569 JUMPI PUSH2 0x3A6B DUP2 PUSH2 0x3A65 DUP5 SLOAD PUSH2 0x7AA JUMP JUMPDEST DUP5 PUSH2 0x3A0A JUMP JUMPDEST PUSH1 0x20 DUP1 PUSH1 0x1F DUP4 GT PUSH1 0x1 EQ PUSH2 0x3AA2 JUMPI POP DUP2 SWAP1 PUSH2 0x3A9E SWAP4 SWAP5 SWAP6 PUSH1 0x0 SWAP3 PUSH2 0x6D6 JUMPI POP POP DUP2 PUSH1 0x1 SHL SWAP2 PUSH1 0x0 NOT SWAP1 PUSH1 0x3 SHL SHR NOT AND OR SWAP1 JUMP JUMPDEST SWAP1 SSTORE JUMP JUMPDEST SWAP1 PUSH1 0x1F NOT DUP4 AND SWAP6 PUSH2 0x3AB8 DUP6 PUSH1 0x0 MSTORE PUSH1 0x20 PUSH1 0x0 KECCAK256 SWAP1 JUMP JUMPDEST SWAP3 PUSH1 0x0 SWAP1 JUMPDEST DUP9 DUP3 LT PUSH2 0x3AF5 JUMPI POP POP DUP4 PUSH1 0x1 SWAP6 SWAP7 SWAP8 LT PUSH2 0x3ADC JUMPI JUMPDEST POP POP POP DUP2 SHL ADD SWAP1 SSTORE JUMP JUMPDEST ADD MLOAD PUSH1 0x0 NOT PUSH1 0xF8 DUP5 PUSH1 0x3 SHL AND SHR NOT AND SWAP1 SSTORE CODESIZE DUP1 DUP1 PUSH2 0x3AD2 JUMP JUMPDEST DUP1 PUSH1 0x1 DUP6 SWAP7 DUP3 SWAP5 SWAP7 DUP7 ADD MLOAD DUP2 SSTORE ADD SWAP6 ADD SWAP4 ADD SWAP1 PUSH2 0x3ABD JUMP JUMPDEST SWAP2 PUSH2 0x3B36 SWAP1 PUSH2 0x3B28 PUSH2 0x9A6 SWAP6 SWAP4 PUSH1 0x60 DUP7 MSTORE PUSH1 0x60 DUP7 ADD SWAP1 PUSH2 0x970 JUMP JUMPDEST SWAP1 DUP5 DUP3 SUB PUSH1 0x20 DUP7 ADD MSTORE PUSH2 0x970 JUMP JUMPDEST SWAP2 PUSH1 0x40 DUP2 DUP5 SUB SWAP2 ADD MSTORE PUSH2 0x970 JUMP JUMPDEST SWAP4 PUSH2 0x3CF4 PUSH32 0x4DDC8815460A355E3D190E794EC142559A99D61AE53CF57DF333C9286E76C548 SWAP4 SWAP7 SWAP3 SWAP7 PUSH2 0x3B75 PUSH2 0x45EB JUMP JUMPDEST PUSH2 0x3B7D PUSH2 0x4609 JUMP JUMPDEST PUSH1 0xFF PUSH1 0xF SLOAD AND PUSH2 0x3D19 JUMPI JUMPDEST PUSH2 0x3B93 DUP5 ISZERO ISZERO PUSH2 0x3D54 JUMP JUMPDEST PUSH2 0x3B9F DUP8 MLOAD ISZERO ISZERO PUSH2 0x3DAA JUMP JUMPDEST PUSH2 0x3BAB DUP2 MLOAD ISZERO ISZERO PUSH2 0x3DEE JUMP JUMPDEST PUSH2 0x3BBA PUSH2 0x4000 DUP3 MLOAD GT ISZERO PUSH2 0x3E3A JUMP JUMPDEST PUSH2 0x3BC6 DUP7 MLOAD ISZERO ISZERO PUSH2 0x3E86 JUMP JUMPDEST PUSH2 0x3BD7 PUSH2 0x3BD2 DUP8 PUSH2 0x47A2 JUMP JUMPDEST PUSH2 0x3ED2 JUMP JUMPDEST PUSH2 0x3BEA PUSH2 0x3BE5 PUSH1 0xE SLOAD PUSH2 0x3F13 JUMP JUMPDEST PUSH1 0xE SSTORE JUMP JUMPDEST PUSH2 0x3C5D PUSH1 0xE SLOAD SWAP9 DUP10 SWAP8 PUSH2 0x3BFB PUSH2 0x5C5 JUMP JUMPDEST DUP10 DUP2 MSTORE CALLER PUSH1 0x20 DUP3 ADD MSTORE SWAP2 DUP11 PUSH1 0x40 DUP5 ADD MSTORE PUSH1 0x60 DUP4 ADD MSTORE DUP4 PUSH1 0x80 DUP4 ADD MSTORE PUSH1 0xA0 DUP3 ADD MSTORE DUP5 PUSH1 0xC0 DUP3 ADD MSTORE DUP6 PUSH1 0xE0 DUP3 ADD MSTORE PUSH1 0x0 PUSH2 0x100 DUP3 ADD MSTORE PUSH2 0x3C3D PUSH2 0x120 DUP3 ADD PUSH1 0x1 SWAP1 MSTORE JUMP JUMPDEST TIMESTAMP PUSH2 0x140 DUP3 ADD MSTORE PUSH2 0x3C58 DUP9 PUSH1 0x0 MSTORE PUSH1 0x17 PUSH1 0x20 MSTORE PUSH1 0x40 PUSH1 0x0 KECCAK256 SWAP1 JUMP JUMPDEST PUSH2 0x3FC7 JUMP JUMPDEST PUSH2 0x3C94 CALLER PUSH2 0x3C75 DUP9 PUSH1 0x0 MSTORE PUSH1 0x18 PUSH1 0x20 MSTORE PUSH1 0x40 PUSH1 0x0 KECCAK256 SWAP1 JUMP JUMPDEST DUP1 SLOAD PUSH1 0x1 PUSH1 0x1 PUSH1 0xA0 SHL SUB NOT AND PUSH1 0x1 PUSH1 0x1 PUSH1 0xA0 SHL SUB SWAP1 SWAP3 AND SWAP2 SWAP1 SWAP2 OR SWAP1 SSTORE JUMP JUMPDEST CALLER PUSH1 0x0 SWAP1 DUP2 MSTORE PUSH1 0x19 PUSH1 0x20 MSTORE PUSH1 0x40 SWAP1 KECCAK256 PUSH2 0x3CAE SWAP1 DUP8 SWAP1 PUSH2 0x36DE JUMP JUMPDEST CALLER PUSH1 0x0 SWAP1 DUP2 MSTORE PUSH1 0x16 PUSH1 0x20 MSTORE PUSH1 0x40 SWAP1 KECCAK256 PUSH1 0x3 SWAP1 PUSH1 0x5 DUP2 ADD PUSH2 0x3CD2 PUSH2 0x1A92 DUP3 SLOAD PUSH1 0xFF AND SWAP1 JUMP JUMPDEST PUSH2 0x3D01 JUMPI JUMPDEST POP ADD PUSH2 0x3CE3 DUP2 SLOAD PUSH2 0x3F13 JUMP JUMPDEST SWAP1 SSTORE MLOAD PUSH1 0x40 MLOAD SWAP4 DUP5 SWAP4 CALLER SWAP9 DUP6 PUSH2 0x4089 JUMP JUMPDEST SUB SWAP1 LOG3 PUSH2 0x9A6 PUSH1 0x1 PUSH1 0x6 SSTORE JUMP JUMPDEST DUP1 SLOAD PUSH1 0xFF NOT AND PUSH1 0x1 OR SWAP1 SSTORE PUSH1 0x0 PUSH1 0x4 DUP3 ADD SSTORE CODESIZE PUSH2 0x3CD7 JUMP JUMPDEST CALLER PUSH1 0x0 MSTORE PUSH1 0x11 PUSH1 0x20 MSTORE PUSH1 0xFF PUSH1 0x40 PUSH1 0x0 KECCAK256 SLOAD AND DUP1 ISZERO PUSH2 0x3D40 JUMPI JUMPDEST PUSH2 0x3D3B SWAP1 PUSH2 0x3569 JUMP JUMPDEST PUSH2 0x3B88 JUMP JUMPDEST POP PUSH1 0x5 SLOAD PUSH1 0x1 PUSH1 0x1 PUSH1 0xA0 SHL SUB AND CALLER EQ PUSH2 0x3D32 JUMP JUMPDEST ISZERO PUSH2 0x3D5B JUMPI JUMP JUMPDEST PUSH1 0x40 MLOAD PUSH3 0x461BCD PUSH1 0xE5 SHL DUP2 MSTORE PUSH1 0x20 PUSH1 0x4 DUP3 ADD MSTORE PUSH1 0x21 PUSH1 0x24 DUP3 ADD MSTORE PUSH32 0x4D617820737570706C79206D7573742062652067726561746572207468616E20 PUSH1 0x44 DUP3 ADD MSTORE PUSH1 0x3 PUSH1 0xFC SHL PUSH1 0x64 DUP3 ADD MSTORE PUSH1 0x84 SWAP1 REVERT JUMPDEST ISZERO PUSH2 0x3DB1 JUMPI JUMP JUMPDEST PUSH1 0x40 MLOAD PUSH3 0x461BCD PUSH1 0xE5 SHL DUP2 MSTORE PUSH1 0x20 PUSH1 0x4 DUP3 ADD MSTORE PUSH1 0x15 PUSH1 0x24 DUP3 ADD MSTORE PUSH21 0x5469746C652063616E6E6F7420626520656D707479 PUSH1 0x58 SHL PUSH1 0x44 DUP3 ADD MSTORE PUSH1 0x64 SWAP1 REVERT JUMPDEST ISZERO PUSH2 0x3DF5 JUMPI JUMP JUMPDEST PUSH1 0x40 MLOAD PUSH3 0x461BCD PUSH1 0xE5 SHL DUP2 MSTORE PUSH1 0x20 PUSH1 0x4 DUP3 ADD MSTORE PUSH1 0x1A PUSH1 0x24 DUP3 ADD MSTORE PUSH32 0x496D61676520646174612063616E6E6F7420626520656D707479000000000000 PUSH1 0x44 DUP3 ADD MSTORE PUSH1 0x64 SWAP1 REVERT JUMPDEST ISZERO PUSH2 0x3E41 JUMPI JUMP JUMPDEST PUSH1 0x40 MLOAD PUSH3 0x461BCD PUSH1 0xE5 SHL DUP2 MSTORE PUSH1 0x20 PUSH1 0x4 DUP3 ADD MSTORE PUSH1 0x1A PUSH1 0x24 DUP3 ADD MSTORE PUSH32 0x496D61676520746F6F206C61726765202831364B42206D617829000000000000 PUSH1 0x44 DUP3 ADD MSTORE PUSH1 0x64 SWAP1 REVERT JUMPDEST ISZERO PUSH2 0x3E8D JUMPI JUMP JUMPDEST PUSH1 0x40 MLOAD PUSH3 0x461BCD PUSH1 0xE5 SHL DUP2 MSTORE PUSH1 0x20 PUSH1 0x4 DUP3 ADD MSTORE PUSH1 0x1A PUSH1 0x24 DUP3 ADD MSTORE PUSH32 0x496D61676520747970652063616E6E6F7420626520656D707479000000000000 PUSH1 0x44 DUP3 ADD MSTORE PUSH1 0x64 SWAP1 REVERT JUMPDEST ISZERO PUSH2 0x3ED9 JUMPI JUMP JUMPDEST PUSH1 0x40 MLOAD PUSH3 0x461BCD PUSH1 0xE5 SHL DUP2 MSTORE PUSH1 0x20 PUSH1 0x4 DUP3 ADD MSTORE PUSH1 0x12 PUSH1 0x24 DUP3 ADD MSTORE PUSH18 0x496E76616C696420696D6167652074797065 PUSH1 0x70 SHL PUSH1 0x44 DUP3 ADD MSTORE PUSH1 0x64 SWAP1 REVERT JUMPDEST PUSH1 0x0 NOT DUP2 EQ PUSH2 0xBD9 JUMPI PUSH1 0x1 ADD SWAP1 JUMP JUMPDEST SWAP2 SWAP1 SWAP2 DUP3 MLOAD PUSH1 0x1 PUSH1 0x1 PUSH1 0x40 SHL SUB DUP2 GT PUSH2 0x569 JUMPI PUSH2 0x3F43 DUP2 PUSH2 0x3A65 DUP5 SLOAD PUSH2 0x7AA JUMP JUMPDEST PUSH1 0x20 DUP1 PUSH1 0x1F DUP4 GT PUSH1 0x1 EQ PUSH2 0x3F76 JUMPI POP DUP2 SWAP1 PUSH2 0x3A9E SWAP4 SWAP5 SWAP6 PUSH1 0x0 SWAP3 PUSH2 0x6D6 JUMPI POP POP DUP2 PUSH1 0x1 SHL SWAP2 PUSH1 0x0 NOT SWAP1 PUSH1 0x3 SHL SHR NOT AND OR SWAP1 JUMP JUMPDEST SWAP1 PUSH1 0x1F NOT DUP4 AND SWAP6 PUSH2 0x3F8C DUP6 PUSH1 0x0 MSTORE PUSH1 0x20 PUSH1 0x0 KECCAK256 SWAP1 JUMP JUMPDEST SWAP3 PUSH1 0x0 SWAP1 JUMPDEST DUP9 DUP3 LT PUSH2 0x3FAF JUMPI POP POP DUP4 PUSH1 0x1 SWAP6 SWAP7 SWAP8 LT PUSH2 0x3ADC JUMPI POP POP POP DUP2 SHL ADD SWAP1 SSTORE JUMP JUMPDEST DUP1 PUSH1 0x1 DUP6 SWAP7 DUP3 SWAP5 SWAP7 DUP7 ADD MLOAD DUP2 SSTORE ADD SWAP6 ADD SWAP4 ADD SWAP1 PUSH2 0x3F91 JUMP JUMPDEST DUP2 MLOAD DUP2 SSTORE PUSH1 0x20 DUP3 ADD MLOAD PUSH1 0x1 DUP3 ADD DUP1 SLOAD PUSH1 0x1 PUSH1 0x1 PUSH1 0xA0 SHL SUB NOT AND PUSH1 0x1 PUSH1 0x1 PUSH1 0xA0 SHL SUB SWAP1 SWAP3 AND SWAP2 SWAP1 SWAP2 OR SWAP1 SSTORE SWAP1 PUSH1 0xA SWAP1 PUSH2 0x140 SWAP1 PUSH2 0x400A PUSH1 0x40 DUP3 ADD MLOAD PUSH1 0x2 DUP7 ADD PUSH2 0x3A44 JUMP JUMPDEST PUSH2 0x401B PUSH1 0x60 DUP3 ADD MLOAD PUSH1 0x3 DUP7 ADD PUSH2 0x3A44 JUMP JUMPDEST PUSH2 0x402C PUSH1 0x80 DUP3 ADD MLOAD PUSH1 0x4 DUP7 ADD PUSH2 0x3F22 JUMP JUMPDEST PUSH2 0x403D PUSH1 0xA0 DUP3 ADD MLOAD PUSH1 0x5 DUP7 ADD PUSH2 0x3A44 JUMP JUMPDEST PUSH1 0xC0 DUP2 ADD MLOAD PUSH1 0x6 DUP6 ADD SSTORE PUSH1 0xE0 DUP2 ADD MLOAD PUSH1 0x7 DUP6 ADD SSTORE PUSH2 0x100 DUP2 ADD MLOAD PUSH1 0x8 DUP6 ADD SSTORE PUSH2 0x4082 PUSH2 0x406D PUSH2 0x120 DUP4 ADD MLOAD ISZERO ISZERO SWAP1 JUMP JUMPDEST PUSH1 0x9 DUP7 ADD SWAP1 PUSH1 0xFF DUP1 NOT DUP4 SLOAD AND SWAP2 ISZERO ISZERO AND OR SWAP1 SSTORE JUMP JUMPDEST ADD MLOAD SWAP2 ADD SSTORE JUMP JUMPDEST SWAP1 SWAP3 PUSH2 0x40A2 PUSH1 0x60 SWAP4 SWAP7 SWAP6 SWAP5 PUSH1 0x80 DUP5 MSTORE PUSH1 0x80 DUP5 ADD SWAP1 PUSH2 0x970 JUMP JUMPDEST SWAP6 PUSH1 0x20 DUP4 ADD MSTORE PUSH1 0x40 DUP3 ADD MSTORE ADD MSTORE JUMP JUMPDEST ISZERO PUSH2 0x40B8 JUMPI JUMP JUMPDEST PUSH1 0x40 MLOAD PUSH3 0x461BCD PUSH1 0xE5 SHL DUP2 MSTORE PUSH1 0x20 PUSH1 0x4 DUP3 ADD MSTORE PUSH1 0x16 PUSH1 0x24 DUP3 ADD MSTORE PUSH22 0x1059191C995CDCC81B9BDD081A5B9D195C995CDD1959 PUSH1 0x52 SHL PUSH1 0x44 DUP3 ADD MSTORE PUSH1 0x64 SWAP1 REVERT JUMPDEST ISZERO PUSH2 0x40FD JUMPI JUMP JUMPDEST PUSH1 0x40 MLOAD PUSH3 0x461BCD PUSH1 0xE5 SHL DUP2 MSTORE PUSH1 0x20 PUSH1 0x4 DUP3 ADD MSTORE PUSH1 0x1B PUSH1 0x24 DUP3 ADD MSTORE PUSH32 0x4164647265737320616C72656164792077686974656C69737465640000000000 PUSH1 0x44 DUP3 ADD MSTORE PUSH1 0x64 SWAP1 REVERT JUMPDEST PUSH1 0x5 SLOAD PUSH1 0x1 PUSH1 0x1 PUSH1 0xA0 SHL SUB AND CALLER SUB PUSH2 0x4156 JUMPI JUMP JUMPDEST PUSH1 0x40 MLOAD PUSH4 0x118CDAA7 PUSH1 0xE0 SHL DUP2 MSTORE CALLER PUSH1 0x4 DUP3 ADD MSTORE PUSH1 0x24 SWAP1 REVERT JUMPDEST SWAP1 PUSH2 0x4181 PUSH1 0x20 SWAP3 DUP3 DUP2 MLOAD SWAP5 DUP6 SWAP3 ADD PUSH2 0x94D JUMP JUMPDEST ADD SWAP1 JUMP JUMPDEST PUSH2 0x4199 DUP2 PUSH1 0x0 MSTORE PUSH1 0x17 PUSH1 0x20 MSTORE PUSH1 0x40 PUSH1 0x0 KECCAK256 SWAP1 JUMP JUMPDEST PUSH2 0x41A2 SWAP1 PUSH2 0x3008 JUMP JUMPDEST PUSH1 0xA0 DUP2 ADD SWAP2 DUP3 MLOAD PUSH1 0x80 DUP4 ADD SWAP3 DUP4 MLOAD PUSH2 0x41B9 SWAP1 PUSH2 0x4962 JUMP JUMPDEST PUSH1 0x40 MLOAD PUSH11 0x646174613A696D6167652F PUSH1 0xA8 SHL PUSH1 0x20 DUP3 ADD MSTORE SWAP3 DUP4 SWAP2 SWAP1 PUSH1 0x2B DUP4 ADD PUSH2 0x41E1 SWAP2 PUSH2 0x416E JUMP JUMPDEST PUSH8 0xED8985CD94D8D0B PUSH1 0xC2 SHL DUP2 MSTORE PUSH1 0x8 ADD PUSH2 0x41FB SWAP2 PUSH2 0x416E JUMP JUMPDEST SUB SWAP5 PUSH1 0x1F NOT SWAP6 DUP7 DUP2 ADD DUP5 MSTORE PUSH2 0x4210 SWAP1 DUP5 PUSH2 0x5A4 JUMP JUMPDEST PUSH1 0x40 DUP3 ADD MLOAD SWAP4 PUSH2 0x421F SWAP1 PUSH2 0x4B59 JUMP JUMPDEST SWAP5 PUSH1 0x60 DUP4 ADD MLOAD SWAP4 PUSH1 0xE0 DUP5 ADD MLOAD PUSH2 0x4234 SWAP1 PUSH2 0x4B59 JUMP JUMPDEST PUSH2 0x100 DUP6 ADD MLOAD PUSH2 0x4243 SWAP1 PUSH2 0x4B59 JUMP JUMPDEST SWAP2 PUSH1 0xC0 DUP7 ADD MLOAD PUSH2 0x4252 SWAP1 PUSH2 0x4B59 JUMP JUMPDEST SWAP4 MLOAD MLOAD PUSH2 0x425E SWAP1 PUSH2 0x4B59 JUMP JUMPDEST SWAP5 MLOAD PUSH1 0x20 SWAP1 SWAP7 ADD MLOAD PUSH1 0x1 PUSH1 0x1 PUSH1 0xA0 SHL SUB AND PUSH2 0x4278 SWAP1 PUSH2 0x4C25 JUMP JUMPDEST PUSH1 0x40 MLOAD PUSH9 0x3D913730B6B2911D11 PUSH1 0xB9 SHL PUSH1 0x20 DUP3 ADD MSTORE SWAP10 DUP11 SWAP10 SWAP2 SWAP9 SWAP2 PUSH1 0x29 DUP12 ADD PUSH2 0x42A0 SWAP2 PUSH2 0x416E JUMP JUMPDEST PUSH2 0x2023 PUSH1 0xF0 SHL DUP2 MSTORE PUSH1 0x2 ADD PUSH2 0x42B4 SWAP2 PUSH2 0x416E JUMP JUMPDEST PUSH2 0x88B PUSH1 0xF2 SHL DUP2 MSTORE PUSH1 0x2 ADD PUSH15 0x113232B9B1B934B83A34B7B7111D11 PUSH1 0x89 SHL DUP2 MSTORE PUSH1 0xF ADD PUSH2 0x42E0 SWAP2 PUSH2 0x416E JUMP JUMPDEST PUSH2 0x88B PUSH1 0xF2 SHL DUP2 MSTORE PUSH1 0x2 ADD PUSH9 0x1134B6B0B3B2911D11 PUSH1 0xB9 SHL DUP2 MSTORE PUSH1 0x9 ADD PUSH2 0x4306 SWAP2 PUSH2 0x416E JUMP JUMPDEST PUSH2 0x88B PUSH1 0xF2 SHL DUP2 MSTORE PUSH1 0x2 ADD PUSH14 0x2261747472696275746573223A5B PUSH1 0x90 SHL DUP2 MSTORE PUSH1 0xE ADD PUSH32 0x7B2274726169745F74797065223A22546F6B656E205374616E64617264222C22 DUP2 MSTORE PUSH19 0x1D985B1D59488E88915490CB4C4C4D4D489F4B PUSH1 0x6A SHL PUSH1 0x20 DUP3 ADD MSTORE PUSH1 0x33 ADD PUSH32 0x7B2274726169745F74797065223A2253746F72616765222C2276616C7565223A DUP2 MSTORE PUSH12 0x893DB8B58DA185A5B889F4B PUSH1 0xA2 SHL PUSH1 0x20 DUP3 ADD MSTORE PUSH1 0x2C ADD PUSH32 0x7B2274726169745F74797065223A224D617820537570706C79222C2276616C75 DUP2 MSTORE PUSH3 0x32911D PUSH1 0xE9 SHL PUSH1 0x20 DUP3 ADD MSTORE PUSH1 0x23 ADD PUSH2 0x43E0 SWAP2 PUSH2 0x416E JUMP JUMPDEST PUSH2 0x1F4B PUSH1 0xF2 SHL DUP2 MSTORE PUSH1 0x2 ADD PUSH32 0x7B2274726169745F74797065223A2243757272656E7420537570706C79222C22 DUP2 MSTORE PUSH7 0x3B30B63AB2911D PUSH1 0xC9 SHL PUSH1 0x20 DUP3 ADD MSTORE PUSH1 0x27 ADD PUSH2 0x442A SWAP2 PUSH2 0x416E JUMP JUMPDEST PUSH2 0x1F4B PUSH1 0xF2 SHL DUP2 MSTORE PUSH1 0x2 ADD PUSH32 0x7B2274726169745F74797065223A225072696365202857656929222C2276616C DUP2 MSTORE PUSH4 0x3AB2911D PUSH1 0xE1 SHL PUSH1 0x20 DUP3 ADD MSTORE PUSH1 0x24 ADD PUSH2 0x4471 SWAP2 PUSH2 0x416E JUMP JUMPDEST PUSH2 0x1F4B PUSH1 0xF2 SHL DUP2 MSTORE PUSH1 0x2 ADD PUSH32 0x7B2274726169745F74797065223A2246696C652053697A65222C2276616C7565 DUP2 MSTORE PUSH2 0x111D PUSH1 0xF1 SHL PUSH1 0x20 DUP3 ADD MSTORE PUSH1 0x22 ADD PUSH2 0x44B6 SWAP2 PUSH2 0x416E JUMP JUMPDEST PUSH2 0x1F4B PUSH1 0xF2 SHL DUP2 MSTORE PUSH1 0x2 ADD PUSH32 0x7B2274726169745F74797065223A2246696C652054797065222C2276616C7565 DUP2 MSTORE PUSH3 0x111D11 PUSH1 0xE9 SHL PUSH1 0x20 DUP3 ADD MSTORE PUSH1 0x23 ADD PUSH2 0x44FC SWAP2 PUSH2 0x416E JUMP JUMPDEST PUSH3 0x89F4B PUSH1 0xEA SHL DUP2 MSTORE PUSH1 0x3 ADD PUSH32 0x7B2274726169745F74797065223A2243726561746F72222C2276616C7565223A DUP2 MSTORE PUSH1 0x11 PUSH1 0xF9 SHL PUSH1 0x20 DUP3 ADD MSTORE PUSH1 0x21 ADD PUSH2 0x4541 SWAP2 PUSH2 0x416E JUMP JUMPDEST PUSH2 0x227D PUSH1 0xF0 SHL DUP2 MSTORE PUSH1 0x2 ADD PUSH2 0x174B PUSH1 0xF2 SHL DUP2 MSTORE PUSH1 0x2 ADD PUSH32 0x2270726F70657274696573223A7B2263617465676F7279223A22696D61676522 DUP2 MSTORE PUSH2 0x7D7D PUSH1 0xF0 SHL PUSH1 0x20 DUP3 ADD MSTORE PUSH1 0x22 ADD SUB DUP3 DUP2 ADD DUP3 MSTORE PUSH2 0x4598 SWAP1 DUP3 PUSH2 0x5A4 JUMP JUMPDEST PUSH2 0x45A1 SWAP1 PUSH2 0x4962 JUMP JUMPDEST PUSH1 0x40 MLOAD PUSH32 0x646174613A6170706C69636174696F6E2F6A736F6E3B6261736536342C000000 PUSH1 0x20 DUP3 ADD MSTORE SWAP2 SWAP1 DUP3 SWAP1 PUSH1 0x3D DUP3 ADD PUSH2 0x45DB SWAP2 PUSH2 0x416E JUMP JUMPDEST SUB SWAP1 DUP2 ADD DUP3 MSTORE PUSH2 0x9A6 SWAP1 DUP3 PUSH2 0x5A4 JUMP JUMPDEST PUSH1 0xFF PUSH1 0x7 SLOAD AND PUSH2 0x45F7 JUMPI JUMP JUMPDEST PUSH1 0x40 MLOAD PUSH4 0xD93C0665 PUSH1 0xE0 SHL DUP2 MSTORE PUSH1 0x4 SWAP1 REVERT JUMPDEST PUSH1 0x2 PUSH1 0x6 SLOAD EQ PUSH2 0x461A JUMPI PUSH1 0x2 PUSH1 0x6 SSTORE JUMP JUMPDEST PUSH1 0x40 MLOAD PUSH4 0x3EE5AEB5 PUSH1 0xE0 SHL DUP2 MSTORE PUSH1 0x4 SWAP1 REVERT JUMPDEST SWAP4 SWAP2 PUSH1 0x1 PUSH1 0x1 PUSH1 0xA0 SHL SUB DUP6 AND ISZERO PUSH2 0x2F17 JUMPI PUSH2 0x4664 PUSH1 0x40 MLOAD SWAP3 PUSH1 0x1 DUP5 MSTORE PUSH1 0x20 DUP5 ADD MSTORE PUSH1 0x40 DUP4 ADD SWAP2 PUSH1 0x1 DUP4 MSTORE PUSH1 0x60 DUP5 ADD MSTORE PUSH1 0x80 DUP4 ADD PUSH1 0x40 MSTORE JUMP JUMPDEST SWAP1 SWAP2 PUSH2 0x4671 DUP3 DUP5 DUP8 PUSH2 0x51D6 JUMP JUMPDEST PUSH1 0x0 SWAP5 DUP6 JUMPDEST DUP5 MLOAD DUP8 LT ISZERO PUSH2 0x46C4 JUMPI PUSH2 0x46BC PUSH1 0x1 SWAP2 DUP9 PUSH1 0x5 SHL SWAP1 PUSH2 0x46AA PUSH1 0x20 DUP1 DUP5 DUP11 ADD ADD MLOAD SWAP4 DUP11 ADD ADD MLOAD PUSH1 0x0 MSTORE PUSH1 0x3 PUSH1 0x20 MSTORE PUSH1 0x40 PUSH1 0x0 KECCAK256 SWAP1 JUMP JUMPDEST PUSH2 0x46B5 DUP4 DUP3 SLOAD PUSH2 0x3206 JUMP JUMPDEST SWAP1 SSTORE PUSH2 0x3206 JUMP JUMPDEST SWAP7 ADD SWAP6 PUSH2 0x4676 JUMP JUMPDEST PUSH2 0x46DE SWAP2 SWAP6 SWAP5 SWAP3 SWAP7 POP PUSH2 0x46D9 SWAP1 PUSH1 0x4 SLOAD PUSH2 0x3206 JUMP JUMPDEST PUSH1 0x4 SSTORE JUMP JUMPDEST DUP1 MLOAD PUSH1 0x1 SUB PUSH2 0x46FC JUMPI SWAP1 PUSH1 0x20 DUP1 PUSH2 0x823 SWAP6 SWAP4 ADD MLOAD SWAP2 ADD MLOAD SWAP2 CALLER PUSH2 0x5145 JUMP JUMPDEST PUSH2 0x823 SWAP4 CALLER PUSH2 0x4F4B JUMP JUMPDEST PUSH1 0x40 MLOAD SWAP1 PUSH2 0x4713 DUP3 PUSH2 0x56E JUMP JUMPDEST PUSH1 0x3 DUP3 MSTORE PUSH3 0x706E67 PUSH1 0xE8 SHL PUSH1 0x20 DUP4 ADD MSTORE JUMP JUMPDEST PUSH1 0x40 MLOAD SWAP1 PUSH2 0x4732 DUP3 PUSH2 0x56E JUMP JUMPDEST PUSH1 0x3 DUP3 MSTORE PUSH3 0x33B4B3 PUSH1 0xE9 SHL PUSH1 0x20 DUP4 ADD MSTORE JUMP JUMPDEST PUSH1 0x40 MLOAD SWAP1 PUSH2 0x4751 DUP3 PUSH2 0x56E JUMP JUMPDEST PUSH1 0x4 DUP3 MSTORE PUSH4 0x7765627 PUSH1 0xE4 SHL PUSH1 0x20 DUP4 ADD MSTORE JUMP JUMPDEST PUSH1 0x40 MLOAD SWAP1 PUSH2 0x4771 DUP3 PUSH2 0x56E JUMP JUMPDEST PUSH1 0x3 DUP3 MSTORE PUSH3 0x737667 PUSH1 0xE8 SHL PUSH1 0x20 DUP4 ADD MSTORE JUMP JUMPDEST PUSH1 0x40 MLOAD SWAP1 PUSH2 0x4790 DUP3 PUSH2 0x56E JUMP JUMPDEST PUSH1 0x3 DUP3 MSTORE PUSH3 0x7A697 PUSH1 0xEC SHL PUSH1 0x20 DUP4 ADD MSTORE JUMP JUMPDEST PUSH2 0x47C8 PUSH1 0x40 MLOAD PUSH2 0x47B1 DUP2 PUSH2 0x56E JUMP JUMPDEST PUSH1 0x4 DUP2 MSTORE PUSH4 0x6A706567 PUSH1 0xE0 SHL PUSH1 0x20 DUP3 ADD MSTORE DUP3 PUSH2 0x4E34 JUMP JUMPDEST SWAP1 DUP2 ISZERO PUSH2 0x485B JUMPI JUMPDEST DUP2 ISZERO PUSH2 0x4848 JUMPI JUMPDEST DUP2 ISZERO PUSH2 0x4835 JUMPI JUMPDEST DUP2 ISZERO PUSH2 0x4822 JUMPI JUMPDEST DUP2 ISZERO PUSH2 0x4809 JUMPI JUMPDEST DUP2 ISZERO PUSH2 0x47F6 JUMPI POP SWAP1 JUMP JUMPDEST PUSH2 0x9A6 SWAP2 POP PUSH2 0x4803 PUSH2 0x4783 JUMP JUMPDEST SWAP1 PUSH2 0x4E34 JUMP JUMPDEST SWAP1 POP PUSH2 0x481C PUSH2 0x4816 PUSH2 0x4764 JUMP JUMPDEST DUP3 PUSH2 0x4E34 JUMP JUMPDEST SWAP1 PUSH2 0x47EC JUMP JUMPDEST SWAP1 POP PUSH2 0x482F PUSH2 0x4816 PUSH2 0x4744 JUMP JUMPDEST SWAP1 PUSH2 0x47E5 JUMP JUMPDEST SWAP1 POP PUSH2 0x4842 PUSH2 0x4816 PUSH2 0x4725 JUMP JUMPDEST SWAP1 PUSH2 0x47DE JUMP JUMPDEST SWAP1 POP PUSH2 0x4855 PUSH2 0x4816 PUSH2 0x4706 JUMP JUMPDEST SWAP1 PUSH2 0x47D7 JUMP JUMPDEST SWAP1 POP PUSH2 0x4882 PUSH1 0x40 MLOAD PUSH2 0x486C DUP2 PUSH2 0x56E JUMP JUMPDEST PUSH1 0x3 DUP2 MSTORE PUSH3 0x6A7067 PUSH1 0xE8 SHL PUSH1 0x20 DUP3 ADD MSTORE DUP3 PUSH2 0x4E34 JUMP JUMPDEST SWAP1 PUSH2 0x47D0 JUMP JUMPDEST PUSH1 0x40 MLOAD SWAP1 PUSH2 0x4895 DUP3 PUSH2 0x589 JUMP JUMPDEST PUSH1 0x40 DUP3 MSTORE PUSH32 0x6768696A6B6C6D6E6F707172737475767778797A303132333435363738392B2F PUSH1 0x40 DUP4 PUSH32 0x4142434445464748494A4B4C4D4E4F505152535455565758595A616263646566 PUSH1 0x20 DUP3 ADD MSTORE ADD MSTORE JUMP JUMPDEST PUSH1 0x40 MLOAD SWAP1 PUSH2 0x48F4 DUP3 PUSH2 0x589 JUMP JUMPDEST PUSH1 0x2A DUP3 MSTORE PUSH1 0x40 CALLDATASIZE PUSH1 0x20 DUP5 ADD CALLDATACOPY JUMP JUMPDEST SWAP1 PUSH2 0x490C DUP3 PUSH2 0x5E5 JUMP JUMPDEST PUSH2 0x4919 PUSH1 0x40 MLOAD SWAP2 DUP3 PUSH2 0x5A4 JUMP JUMPDEST DUP3 DUP2 MSTORE DUP1 SWAP3 PUSH2 0x492A PUSH1 0x1F NOT SWAP2 PUSH2 0x5E5 JUMP JUMPDEST ADD SWAP1 PUSH1 0x20 CALLDATASIZE SWAP2 ADD CALLDATACOPY JUMP JUMPDEST DUP1 MLOAD ISZERO PUSH2 0x18E3 JUMPI PUSH1 0x20 ADD SWAP1 JUMP JUMPDEST DUP1 MLOAD PUSH1 0x1 LT ISZERO PUSH2 0x18E3 JUMPI PUSH1 0x21 ADD SWAP1 JUMP JUMPDEST SWAP1 DUP2 MLOAD DUP2 LT ISZERO PUSH2 0x18E3 JUMPI ADD PUSH1 0x20 ADD SWAP1 JUMP JUMPDEST DUP1 MLOAD ISZERO PUSH2 0x4B50 JUMPI PUSH2 0x4971 PUSH2 0x4888 JUMP JUMPDEST SWAP1 PUSH2 0x498E PUSH2 0x4989 PUSH2 0x4982 DUP4 MLOAD PUSH2 0x31A4 JUMP JUMPDEST PUSH1 0x3 SWAP1 DIV SWAP1 JUMP JUMPDEST PUSH2 0x3418 JUMP JUMPDEST SWAP2 PUSH2 0x4998 DUP4 PUSH2 0x4902 JUMP JUMPDEST SWAP2 PUSH1 0x0 SWAP5 DUP6 JUMPDEST DUP3 MLOAD DUP2 LT ISZERO PUSH2 0x4AF3 JUMPI DUP1 PUSH2 0x4AC4 PUSH2 0x49C4 PUSH2 0x49DE PUSH2 0x49D8 PUSH2 0x49D2 PUSH2 0x49C4 PUSH2 0x4AE2 SWAP8 DUP11 PUSH2 0x4951 JUMP JUMPDEST MLOAD PUSH1 0x1 PUSH1 0x1 PUSH1 0xF8 SHL SUB NOT AND SWAP1 JUMP JUMPDEST PUSH1 0xF8 SHR SWAP1 JUMP JUMPDEST PUSH1 0xFF AND SWAP1 JUMP JUMPDEST PUSH2 0x49E7 DUP5 PUSH2 0x31C0 JUMP JUMPDEST DUP8 MLOAD GT PUSH1 0x0 SWAP1 PUSH1 0x0 EQ PUSH2 0x4AED JUMPI POP PUSH2 0x4A10 PUSH2 0x49D8 PUSH2 0x49D2 PUSH2 0x49C4 PUSH2 0x4A0A DUP9 PUSH2 0x31C0 JUMP JUMPDEST DUP12 PUSH2 0x4951 JUMP JUMPDEST SWAP1 JUMPDEST PUSH2 0x4A1B DUP6 PUSH2 0x31A4 JUMP JUMPDEST DUP9 MLOAD GT PUSH1 0x0 SWAP1 PUSH1 0x0 EQ PUSH2 0x4AE7 JUMPI POP PUSH2 0x4A44 PUSH2 0x49D8 PUSH2 0x49D2 PUSH2 0x49C4 PUSH2 0x4A3E DUP10 PUSH2 0x31A4 JUMP JUMPDEST DUP13 PUSH2 0x4951 JUMP JUMPDEST SWAP2 JUMPDEST PUSH1 0x8 SHL SWAP1 PUSH1 0x10 SHL OR OR PUSH1 0x3F SWAP1 PUSH2 0x4A64 PUSH2 0x49C4 DUP4 DUP4 PUSH1 0x12 SHR AND DUP12 PUSH2 0x4951 JUMP JUMPDEST SWAP12 PUSH2 0x4A7C PUSH2 0x4A71 DUP3 PUSH2 0x3F13 JUMP JUMPDEST SWAP14 PUSH1 0x0 BYTE SWAP2 DUP13 PUSH2 0x4951 JUMP JUMPDEST MSTORE8 PUSH2 0x4A8F PUSH2 0x49C4 DUP4 DUP4 PUSH1 0xC SHR AND DUP12 PUSH2 0x4951 JUMP JUMPDEST SWAP12 PUSH2 0x4A9C PUSH2 0x4A71 DUP3 PUSH2 0x3F13 JUMP JUMPDEST MSTORE8 PUSH2 0x4AAF PUSH2 0x49C4 DUP4 DUP4 PUSH1 0x6 SHR AND DUP12 PUSH2 0x4951 JUMP JUMPDEST SWAP12 PUSH2 0x4ABC PUSH2 0x4A71 DUP3 PUSH2 0x3F13 JUMP JUMPDEST MSTORE8 AND DUP8 PUSH2 0x4951 JUMP JUMPDEST SWAP8 PUSH2 0x4ADC PUSH2 0x4AD1 DUP3 PUSH2 0x3F13 JUMP JUMPDEST SWAP10 PUSH1 0x0 BYTE SWAP2 DUP9 PUSH2 0x4951 JUMP JUMPDEST MSTORE8 PUSH2 0x31B2 JUMP JUMPDEST PUSH2 0x499E JUMP JUMPDEST SWAP2 PUSH2 0x4A46 JUMP JUMPDEST SWAP1 PUSH2 0x4A12 JUMP JUMPDEST POP SWAP5 POP PUSH1 0x3 SWAP2 POP SWAP3 SWAP2 SWAP3 MLOAD MOD PUSH1 0x1 DUP2 EQ PUSH1 0x0 EQ PUSH2 0x4B37 JUMPI POP PUSH2 0x4B33 PUSH2 0x4B2D DUP3 PUSH1 0x3D PUSH2 0x4B27 PUSH2 0x4B21 DUP3 SWAP7 PUSH2 0x332F JUMP JUMPDEST DUP8 PUSH2 0x4951 JUMP JUMPDEST MSTORE8 PUSH2 0x333E JUMP JUMPDEST DUP4 PUSH2 0x4951 JUMP JUMPDEST MSTORE8 SWAP1 JUMP JUMPDEST PUSH1 0x2 EQ PUSH2 0x4B42 JUMPI POP SWAP1 JUMP JUMPDEST PUSH2 0x4B33 PUSH2 0x4B2D PUSH1 0x3D SWAP3 PUSH2 0x332F JUMP JUMPDEST POP PUSH2 0x9A6 PUSH2 0x36BB JUMP JUMPDEST DUP1 ISZERO PUSH2 0x4BDB JUMPI PUSH1 0x0 DUP2 DUP2 DUP2 DUP1 JUMPDEST PUSH2 0x4BC3 JUMPI POP PUSH2 0x4B74 DUP2 PUSH2 0x4902 JUMP JUMPDEST SWAP4 JUMPDEST PUSH2 0x4B80 JUMPI POP POP POP SWAP1 JUMP JUMPDEST PUSH2 0x4B89 SWAP1 PUSH2 0x332F JUMP JUMPDEST SWAP1 PUSH1 0xA SWAP1 PUSH2 0x4BAE PUSH2 0x4B9E PUSH2 0x49D8 DUP5 DUP5 MOD PUSH2 0x31CE JUMP JUMPDEST PUSH1 0xF8 SHL PUSH1 0x1 PUSH1 0x1 PUSH1 0xF8 SHL SUB NOT AND SWAP1 JUMP JUMPDEST DUP5 BYTE PUSH2 0x4BBA DUP5 DUP8 PUSH2 0x4951 JUMP JUMPDEST MSTORE8 DIV SWAP1 DUP2 PUSH2 0x4B76 JUMP JUMPDEST SWAP2 POP PUSH2 0x4BD0 PUSH1 0xA SWAP2 PUSH2 0x3F13 JUMP JUMPDEST SWAP2 DIV DUP1 DUP5 SWAP3 SWAP2 PUSH2 0x4B66 JUMP JUMPDEST POP PUSH1 0x40 MLOAD PUSH2 0x4BE8 DUP2 PUSH2 0x56E JUMP JUMPDEST PUSH1 0x1 DUP2 MSTORE PUSH1 0x3 PUSH1 0xFC SHL PUSH1 0x20 DUP3 ADD MSTORE SWAP1 JUMP JUMPDEST PUSH1 0x40 MLOAD SWAP1 PUSH2 0x4C06 DUP3 PUSH2 0x56E JUMP JUMPDEST PUSH1 0x10 DUP3 MSTORE PUSH16 0x181899199A1A9B1B9C1CB0B131B232B3 PUSH1 0x81 SHL PUSH1 0x20 DUP4 ADD MSTORE JUMP JUMPDEST PUSH1 0x1 PUSH1 0x1 PUSH1 0xA0 SHL SUB AND PUSH2 0x4C36 PUSH2 0x4BF9 JUMP JUMPDEST PUSH2 0x4C3E PUSH2 0x48E7 JUMP JUMPDEST SWAP2 PUSH1 0x30 PUSH2 0x4C4A DUP5 PUSH2 0x4934 JUMP JUMPDEST MSTORE8 PUSH1 0x78 PUSH2 0x4C56 DUP5 PUSH2 0x4941 JUMP JUMPDEST MSTORE8 PUSH1 0x0 SWAP1 PUSH1 0x0 JUMPDEST PUSH1 0x14 DUP2 LT PUSH2 0x4C6C JUMPI POP POP POP POP SWAP1 JUMP JUMPDEST PUSH2 0x4C75 DUP2 PUSH2 0x31DC JUMP JUMPDEST SWAP1 PUSH1 0x20 SWAP2 DUP3 DUP2 LT ISZERO PUSH2 0x18E3 JUMPI PUSH2 0x4C99 PUSH2 0x49C4 DUP6 SWAP3 PUSH1 0xF SWAP4 DUP5 SWAP2 BYTE PUSH1 0x4 SHR AND DUP9 PUSH2 0x4951 JUMP JUMPDEST PUSH2 0x4CB7 PUSH2 0x4CAD PUSH2 0x4CA8 DUP6 PUSH2 0x3430 JUMP JUMPDEST PUSH2 0x31EA JUMP JUMPDEST SWAP2 DUP8 BYTE SWAP2 DUP10 PUSH2 0x4951 JUMP JUMPDEST MSTORE8 PUSH2 0x4CC1 DUP3 PUSH2 0x31DC JUMP JUMPDEST SWAP3 DUP4 LT ISZERO PUSH2 0x18E3 JUMPI PUSH2 0x49C4 PUSH2 0x4CDC SWAP2 DUP6 PUSH1 0x1 SWAP6 BYTE AND DUP8 PUSH2 0x4951 JUMP JUMPDEST PUSH2 0x4CFA PUSH2 0x4CF0 PUSH2 0x4CEB DUP5 PUSH2 0x3430 JUMP JUMPDEST PUSH2 0x31F8 JUMP JUMPDEST SWAP2 DUP7 BYTE SWAP2 DUP9 PUSH2 0x4951 JUMP JUMPDEST MSTORE8 ADD PUSH2 0x4C5D JUMP JUMPDEST SWAP2 SWAP4 SWAP3 SWAP1 PUSH2 0x4D11 DUP3 DUP7 DUP4 DUP7 PUSH2 0x5308 JUMP JUMPDEST PUSH1 0x1 PUSH1 0x1 PUSH1 0xA0 SHL SUB DUP4 DUP2 AND ISZERO PUSH2 0x4DD0 JUMPI JUMPDEST DUP2 AND ISZERO DUP1 PUSH2 0x4D6F JUMPI JUMPDEST ISZERO PUSH2 0x4D38 JUMPI JUMPDEST POP POP POP POP POP JUMP JUMPDEST DUP5 MLOAD PUSH1 0x1 SUB PUSH2 0x4D5E JUMPI PUSH1 0x20 DUP1 PUSH2 0x4D54 SWAP7 ADD MLOAD SWAP3 ADD MLOAD SWAP3 CALLER PUSH2 0x517A JUMP JUMPDEST CODESIZE DUP1 DUP1 DUP1 DUP1 PUSH2 0x4D31 JUMP JUMPDEST PUSH2 0x4D6A SWAP5 SWAP2 SWAP3 CALLER PUSH2 0x5046 JUMP JUMPDEST PUSH2 0x4D54 JUMP JUMPDEST SWAP5 SWAP4 PUSH1 0x0 SWAP4 SWAP1 SWAP2 DUP5 JUMPDEST DUP7 MLOAD DUP7 LT ISZERO PUSH2 0x4DB8 JUMPI PUSH1 0x1 SWAP1 DUP7 PUSH1 0x5 SHL SWAP1 PUSH2 0x4DA9 PUSH1 0x20 DUP1 DUP5 DUP11 ADD ADD MLOAD SWAP4 DUP12 ADD ADD MLOAD PUSH1 0x0 MSTORE PUSH1 0x3 PUSH1 0x20 MSTORE PUSH1 0x40 PUSH1 0x0 KECCAK256 SWAP1 JUMP JUMPDEST DUP3 DUP2 SLOAD SUB SWAP1 SSTORE ADD SWAP6 ADD SWAP5 PUSH2 0x4D78 JUMP JUMPDEST PUSH2 0x4DCB SWAP2 SWAP4 SWAP7 SWAP8 SWAP3 SWAP6 POP PUSH1 0x4 SLOAD SUB PUSH1 0x4 SSTORE JUMP JUMPDEST PUSH2 0x4D2B JUMP JUMPDEST SWAP6 SWAP2 SWAP3 PUSH1 0x0 SWAP5 SWAP2 PUSH1 0x0 SWAP6 JUMPDEST DUP8 MLOAD DUP8 LT ISZERO PUSH2 0x4E17 JUMPI PUSH2 0x4E0F PUSH1 0x1 SWAP2 DUP9 PUSH1 0x5 SHL SWAP1 PUSH2 0x46AA PUSH1 0x20 DUP1 DUP5 DUP13 ADD ADD MLOAD SWAP4 DUP14 ADD ADD MLOAD PUSH1 0x0 MSTORE PUSH1 0x3 PUSH1 0x20 MSTORE PUSH1 0x40 PUSH1 0x0 KECCAK256 SWAP1 JUMP JUMPDEST SWAP7 ADD SWAP6 PUSH2 0x4DDB JUMP JUMPDEST PUSH2 0x4E2F SWAP2 SWAP4 SWAP7 POP PUSH2 0x46D9 SWAP1 SWAP9 SWAP3 SWAP6 SWAP5 SWAP9 PUSH1 0x4 SLOAD PUSH2 0x3206 JUMP JUMPDEST PUSH2 0x4D22 JUMP JUMPDEST SWAP1 PUSH1 0x40 MLOAD SWAP2 PUSH1 0x20 SWAP3 PUSH2 0x4E62 DUP5 DUP3 DUP2 PUSH2 0x4E55 DUP2 DUP4 ADD SWAP7 DUP8 DUP2 MLOAD SWAP4 DUP5 SWAP3 ADD PUSH2 0x94D JUMP JUMPDEST DUP2 ADD SUB DUP1 DUP5 MSTORE ADD DUP3 PUSH2 0x5A4 JUMP JUMPDEST MLOAD SWAP1 KECCAK256 SWAP2 PUSH2 0x4E82 PUSH1 0x40 MLOAD SWAP2 DUP3 DUP2 PUSH2 0x4E55 DUP2 DUP4 ADD SWAP7 DUP8 DUP2 MLOAD SWAP4 DUP5 SWAP3 ADD PUSH2 0x94D JUMP JUMPDEST MLOAD SWAP1 KECCAK256 EQ SWAP1 JUMP JUMPDEST SWAP1 DUP2 PUSH1 0x20 SWAP2 SUB SLT PUSH2 0x448 JUMPI MLOAD PUSH2 0x9A6 DUP2 PUSH2 0x49E JUMP JUMPDEST SWAP3 PUSH2 0x4ECD PUSH2 0x9A6 SWAP6 SWAP4 PUSH2 0x4EDB SWAP4 PUSH1 0x1 DUP1 PUSH1 0xA0 SHL SUB AND DUP7 MSTORE PUSH1 0x0 PUSH1 0x20 DUP8 ADD MSTORE PUSH1 0xA0 PUSH1 0x40 DUP8 ADD MSTORE PUSH1 0xA0 DUP7 ADD SWAP1 PUSH2 0x172E JUMP JUMPDEST SWAP1 DUP5 DUP3 SUB PUSH1 0x60 DUP7 ADD MSTORE PUSH2 0x172E JUMP JUMPDEST SWAP2 PUSH1 0x80 DUP2 DUP5 SUB SWAP2 ADD MSTORE PUSH2 0x970 JUMP JUMPDEST SWAP4 SWAP1 PUSH2 0x9A6 SWAP6 SWAP4 PUSH2 0x4ECD SWAP2 PUSH2 0x4EDB SWAP5 PUSH1 0x1 DUP1 PUSH1 0xA0 SHL SUB DUP1 SWAP3 AND DUP9 MSTORE AND PUSH1 0x20 DUP8 ADD MSTORE PUSH1 0xA0 PUSH1 0x40 DUP8 ADD MSTORE PUSH1 0xA0 DUP7 ADD SWAP1 PUSH2 0x172E JUMP JUMPDEST RETURNDATASIZE ISZERO PUSH2 0x4F46 JUMPI RETURNDATASIZE SWAP1 PUSH2 0x4F2C DUP3 PUSH2 0x5E5 JUMP JUMPDEST SWAP2 PUSH2 0x4F3A PUSH1 0x40 MLOAD SWAP4 DUP5 PUSH2 0x5A4 JUMP JUMPDEST DUP3 MSTORE RETURNDATASIZE PUSH1 0x0 PUSH1 0x20 DUP5 ADD RETURNDATACOPY JUMP JUMPDEST PUSH1 0x60 SWAP1 JUMP JUMPDEST SWAP3 SWAP4 SWAP2 SWAP1 SWAP4 DUP5 EXTCODESIZE PUSH2 0x4F5D JUMPI POP POP POP POP POP JUMP JUMPDEST PUSH1 0x20 SWAP2 PUSH2 0x4F80 PUSH1 0x40 MLOAD SWAP5 DUP6 SWAP4 DUP5 SWAP4 PUSH4 0xBC197C81 PUSH1 0xE0 SHL SWAP9 DUP10 DUP7 MSTORE PUSH1 0x4 DUP7 ADD PUSH2 0x4E9E JUMP JUMPDEST SUB DUP2 PUSH1 0x0 PUSH1 0x1 PUSH1 0x1 PUSH1 0xA0 SHL SUB DUP9 AND GAS CALL PUSH1 0x0 SWAP2 DUP2 PUSH2 0x5015 JUMPI JUMPDEST POP PUSH2 0x4FD8 JUMPI DUP3 PUSH2 0x4FA7 PUSH2 0x4F1B JUMP JUMPDEST DUP1 MLOAD SWAP2 SWAP1 DUP3 PUSH2 0x4FD1 JUMPI PUSH1 0x40 MLOAD PUSH4 0x2BFA23E7 PUSH1 0xE1 SHL DUP2 MSTORE PUSH1 0x1 PUSH1 0x1 PUSH1 0xA0 SHL SUB DUP4 AND PUSH1 0x4 DUP3 ADD MSTORE PUSH1 0x24 SWAP1 REVERT JUMPDEST SWAP1 POP PUSH1 0x20 ADD REVERT JUMPDEST PUSH1 0x1 PUSH1 0x1 PUSH1 0xE0 SHL SUB NOT AND SUB PUSH2 0x4FF2 JUMPI POP CODESIZE DUP1 DUP1 DUP1 DUP1 PUSH2 0x4D31 JUMP JUMPDEST PUSH1 0x40 MLOAD PUSH4 0x2BFA23E7 PUSH1 0xE1 SHL DUP2 MSTORE PUSH1 0x1 PUSH1 0x1 PUSH1 0xA0 SHL SUB SWAP2 SWAP1 SWAP2 AND PUSH1 0x4 DUP3 ADD MSTORE PUSH1 0x24 SWAP1 REVERT JUMPDEST PUSH2 0x5038 SWAP2 SWAP3 POP PUSH1 0x20 RETURNDATASIZE PUSH1 0x20 GT PUSH2 0x503F JUMPI JUMPDEST PUSH2 0x5030 DUP2 DUP4 PUSH2 0x5A4 JUMP JUMPDEST DUP2 ADD SWAP1 PUSH2 0x4E89 JUMP JUMPDEST SWAP1 CODESIZE PUSH2 0x4F99 JUMP JUMPDEST POP RETURNDATASIZE PUSH2 0x5026 JUMP JUMPDEST SWAP4 SWAP3 SWAP1 SWAP5 SWAP2 SWAP5 DUP6 EXTCODESIZE PUSH2 0x505B JUMPI JUMPDEST POP POP POP POP POP POP JUMP JUMPDEST PUSH2 0x507E PUSH1 0x20 SWAP4 PUSH1 0x40 MLOAD SWAP6 DUP7 SWAP5 DUP6 SWAP5 PUSH4 0xBC197C81 PUSH1 0xE0 SHL SWAP10 DUP11 DUP8 MSTORE PUSH1 0x4 DUP8 ADD PUSH2 0x4EE9 JUMP JUMPDEST SUB DUP2 PUSH1 0x0 PUSH1 0x1 PUSH1 0x1 PUSH1 0xA0 SHL SUB DUP9 AND GAS CALL PUSH1 0x0 SWAP2 DUP2 PUSH2 0x50C0 JUMPI JUMPDEST POP PUSH2 0x50A5 JUMPI DUP3 PUSH2 0x4FA7 PUSH2 0x4F1B JUMP JUMPDEST PUSH1 0x1 PUSH1 0x1 PUSH1 0xE0 SHL SUB NOT AND SUB PUSH2 0x4FF2 JUMPI POP CODESIZE DUP1 DUP1 DUP1 DUP1 DUP1 PUSH2 0x5053 JUMP JUMPDEST PUSH2 0x50DA SWAP2 SWAP3 POP PUSH1 0x20 RETURNDATASIZE PUSH1 0x20 GT PUSH2 0x503F JUMPI PUSH2 0x5030 DUP2 DUP4 PUSH2 0x5A4 JUMP JUMPDEST SWAP1 CODESIZE PUSH2 0x5097 JUMP JUMPDEST SWAP1 SWAP3 PUSH1 0xA0 SWAP3 PUSH2 0x9A6 SWAP6 SWAP5 PUSH1 0x1 DUP1 DUP7 SHL SUB AND DUP4 MSTORE PUSH1 0x0 PUSH1 0x20 DUP5 ADD MSTORE PUSH1 0x40 DUP4 ADD MSTORE PUSH1 0x60 DUP3 ADD MSTORE DUP2 PUSH1 0x80 DUP3 ADD MSTORE ADD SWAP1 PUSH2 0x970 JUMP JUMPDEST SWAP2 SWAP3 PUSH2 0x9A6 SWAP6 SWAP5 SWAP2 PUSH1 0xA0 SWAP5 PUSH1 0x1 DUP1 DUP8 SHL SUB DUP1 SWAP3 AND DUP6 MSTORE AND PUSH1 0x20 DUP5 ADD MSTORE PUSH1 0x40 DUP4 ADD MSTORE PUSH1 0x60 DUP3 ADD MSTORE DUP2 PUSH1 0x80 DUP3 ADD MSTORE ADD SWAP1 PUSH2 0x970 JUMP JUMPDEST SWAP3 SWAP4 SWAP2 SWAP1 SWAP4 DUP5 EXTCODESIZE PUSH2 0x5157 JUMPI POP POP POP POP POP JUMP JUMPDEST PUSH1 0x20 SWAP2 PUSH2 0x4F80 PUSH1 0x40 MLOAD SWAP5 DUP6 SWAP4 DUP5 SWAP4 PUSH4 0xF23A6E61 PUSH1 0xE0 SHL SWAP9 DUP10 DUP7 MSTORE PUSH1 0x4 DUP7 ADD PUSH2 0x50E1 JUMP JUMPDEST SWAP4 SWAP3 SWAP1 SWAP5 SWAP2 SWAP5 DUP6 EXTCODESIZE PUSH2 0x518E JUMPI POP POP POP POP POP POP JUMP JUMPDEST PUSH2 0x507E PUSH1 0x20 SWAP4 PUSH1 0x40 MLOAD SWAP6 DUP7 SWAP5 DUP6 SWAP5 PUSH4 0xF23A6E61 PUSH1 0xE0 SHL SWAP10 DUP11 DUP8 MSTORE PUSH1 0x4 DUP8 ADD PUSH2 0x5112 JUMP JUMPDEST SWAP1 SWAP2 PUSH2 0x51C8 PUSH2 0x9A6 SWAP4 PUSH1 0x40 DUP5 MSTORE PUSH1 0x40 DUP5 ADD SWAP1 PUSH2 0x172E JUMP JUMPDEST SWAP2 PUSH1 0x20 DUP2 DUP5 SUB SWAP2 ADD MSTORE PUSH2 0x172E JUMP JUMPDEST SWAP2 SWAP1 SWAP2 DUP3 MLOAD DUP3 MLOAD SWAP1 DUP2 DUP2 SUB PUSH2 0x350A JUMPI POP POP PUSH1 0x0 JUMPDEST DUP4 MLOAD DUP2 LT ISZERO PUSH2 0x5268 JUMPI PUSH1 0x5 DUP2 SWAP1 SHL DUP5 DUP2 ADD PUSH1 0x20 SWAP1 DUP2 ADD MLOAD SWAP2 DUP6 ADD ADD MLOAD PUSH1 0x1 SWAP3 SWAP2 DUP5 SWAP1 PUSH1 0x1 PUSH1 0x1 PUSH1 0xA0 SHL SUB DUP3 AND PUSH2 0x5224 JUMPI JUMPDEST POP POP POP ADD PUSH2 0x51EA JUMP JUMPDEST PUSH2 0x525E SWAP2 PUSH2 0x523F PUSH2 0x5256 SWAP3 PUSH1 0x0 MSTORE PUSH1 0x0 PUSH1 0x20 MSTORE PUSH1 0x40 PUSH1 0x0 KECCAK256 SWAP1 JUMP JUMPDEST SWAP1 PUSH1 0x1 DUP1 PUSH1 0xA0 SHL SUB AND PUSH1 0x0 MSTORE PUSH1 0x20 MSTORE PUSH1 0x40 PUSH1 0x0 KECCAK256 SWAP1 JUMP JUMPDEST SWAP2 DUP3 SLOAD PUSH2 0x3206 JUMP JUMPDEST SWAP1 SSTORE CODESIZE DUP4 DUP2 PUSH2 0x521B JUMP JUMPDEST POP SWAP2 PUSH1 0x1 DUP2 MLOAD EQ PUSH1 0x0 EQ PUSH2 0x52C9 JUMPI PUSH1 0x20 SWAP1 DUP2 ADD MLOAD SWAP2 DUP2 ADD MLOAD PUSH1 0x40 DUP1 MLOAD SWAP4 DUP5 MSTORE SWAP2 DUP4 ADD MSTORE PUSH1 0x1 PUSH1 0x1 PUSH1 0xA0 SHL SUB SWAP1 SWAP3 AND SWAP2 PUSH1 0x0 SWAP2 CALLER SWAP2 PUSH32 0xC3D58168C5AE7397731D063D5BBF3D657854427343F4C083240F7AACAA2D0F62 SWAP2 SWAP1 DUP2 SWAP1 DUP2 ADD JUMPDEST SUB SWAP1 LOG4 JUMP JUMPDEST PUSH32 0x4A39DC06D4C0DBC64B70AF90FD698A233A518AA5D07E595D983B8C0526C8F7FB PUSH2 0x52C4 PUSH1 0x0 SWAP4 SWAP5 PUSH1 0x40 MLOAD SWAP2 DUP3 SWAP2 PUSH1 0x1 DUP1 PUSH1 0xA0 SHL SUB AND SWAP7 CALLER SWAP6 DUP4 PUSH2 0x51B1 JUMP JUMPDEST SWAP4 SWAP3 SWAP2 DUP1 MLOAD DUP4 MLOAD SWAP1 DUP2 DUP2 SUB PUSH2 0x350A JUMPI POP POP PUSH1 0x0 JUMPDEST DUP2 MLOAD DUP2 LT ISZERO PUSH2 0x540A JUMPI PUSH1 0x5 DUP2 SWAP1 SHL DUP3 DUP2 ADD PUSH1 0x20 SWAP1 DUP2 ADD MLOAD SWAP2 DUP7 ADD ADD MLOAD PUSH1 0x1 PUSH1 0x1 PUSH1 0xA0 SHL SUB SWAP3 SWAP2 DUP6 SWAP1 DUP10 DUP6 AND PUSH2 0x5384 JUMPI JUMPDEST PUSH1 0x1 SWAP5 DUP3 AND PUSH2 0x535F JUMPI JUMPDEST POP POP POP ADD PUSH2 0x531C JUMP JUMPDEST PUSH2 0x537A SWAP2 PUSH2 0x523F PUSH2 0x5256 SWAP3 PUSH1 0x0 MSTORE PUSH1 0x0 PUSH1 0x20 MSTORE PUSH1 0x40 PUSH1 0x0 KECCAK256 SWAP1 JUMP JUMPDEST SWAP1 SSTORE CODESIZE DUP5 DUP2 PUSH2 0x5356 JUMP JUMPDEST SWAP2 SWAP3 SWAP4 SWAP1 POP PUSH2 0x53A1 DUP10 PUSH2 0x523F DUP5 PUSH1 0x0 MSTORE PUSH1 0x0 PUSH1 0x20 MSTORE PUSH1 0x40 PUSH1 0x0 KECCAK256 SWAP1 JUMP JUMPDEST SLOAD DUP4 DUP2 LT PUSH2 0x53D3 JUMPI SWAP2 DUP7 SWAP2 DUP5 PUSH1 0x1 SWAP7 SWAP6 SWAP5 SUB PUSH2 0x53CB DUP13 PUSH2 0x523F DUP6 PUSH1 0x0 MSTORE PUSH1 0x0 PUSH1 0x20 MSTORE PUSH1 0x40 PUSH1 0x0 KECCAK256 SWAP1 JUMP JUMPDEST SSTORE SWAP5 POP PUSH2 0x534C JUMP JUMPDEST PUSH1 0x40 MLOAD PUSH4 0x3DEE4C5 PUSH1 0xE0 SHL DUP2 MSTORE PUSH1 0x1 PUSH1 0x1 PUSH1 0xA0 SHL SUB DUP12 AND PUSH1 0x4 DUP3 ADD MSTORE PUSH1 0x24 DUP2 ADD SWAP2 SWAP1 SWAP2 MSTORE PUSH1 0x44 DUP2 ADD DUP5 SWAP1 MSTORE PUSH1 0x64 DUP2 ADD DUP4 SWAP1 MSTORE PUSH1 0x84 SWAP1 REVERT JUMPDEST POP DUP1 MLOAD SWAP4 SWAP5 SWAP4 SWAP2 SWAP3 SWAP2 PUSH1 0x1 SUB PUSH2 0x546C JUMPI PUSH1 0x20 SWAP1 DUP2 ADD MLOAD SWAP2 DUP2 ADD MLOAD PUSH1 0x40 DUP1 MLOAD SWAP4 DUP5 MSTORE SWAP2 DUP4 ADD MSTORE PUSH1 0x1 PUSH1 0x1 PUSH1 0xA0 SHL SUB SWAP3 DUP4 AND SWAP4 SWAP1 SWAP3 AND SWAP2 CALLER SWAP2 PUSH32 0xC3D58168C5AE7397731D063D5BBF3D657854427343F4C083240F7AACAA2D0F62 SWAP2 DUP2 SWAP1 DUP2 ADD PUSH2 0x52C4 JUMP JUMPDEST PUSH1 0x40 MLOAD PUSH1 0x1 PUSH1 0x1 PUSH1 0xA0 SHL SUB SWAP4 DUP5 AND SWAP5 SWAP1 SWAP4 AND SWAP3 CALLER SWAP3 PUSH32 0x4A39DC06D4C0DBC64B70AF90FD698A233A518AA5D07E595D983B8C0526C8F7FB SWAP3 DUP3 SWAP2 PUSH2 0x52C4 SWAP2 DUP4 PUSH2 0x51B1 JUMP INVALID SSTORE DELEGATECALL BASEFEE REVERT 0xEA SWAP9 0xC4 0xD2 SWAP15 0xB3 BLOCKHASH PUSH22 0x7EF0A66CD03DBB9538908A6A81D96026B71EC475CE6D PUSH28 0x5282BD9A3661AE061FEED1DBDA4E52AB073B1F9285BE6E155D9C38D4 0xEC LOG2 PUSH5 0x6970667358 0x22 SLT KECCAK256 PUSH9 0x200BD2CCC3D442AF85 0xA6 0xB1 DUP7 PUSH4 0xD7FA13C6 0xB5 TIMESTAMP BASEFEE DUP16 0x28 SWAP16 0xD2 0xAC 0xC8 0x2D BLOBHASH EXP PUSH5 0x7664736F6C PUSH4 0x43000818 STOP CALLER "},"methodIdentifiers":{"MAX_PLATFORM_FEE()":"3998a681","addAdmin(address)":"70480275","adminAddressList(uint256)":"6e977223","adminAddresses(address)":"4ed38faf","approveAddresses(address[])":"f0f4d0cb","artistProfiles(address)":"171212d5","artistTokens(address,uint256)":"92a05fe7","artworks(uint256)":"4b602673","balanceOf(address,uint256)":"00fdd58e","balanceOfBatch(address[],uint256[])":"4e1273f4","collectorTokens(address,uint256)":"5024fd8c","exists(uint256)":"4f558e79","getAdminAddresses()":"64ddfa29","getArtistProfile(address)":"b3b30640","getArtistTokens(address)":"cc0ad6e7","getArtwork(uint256)":"167ddf6e","getArtworkImageData(uint256)":"3b5221e2","getCollectorTokens(address)":"e0f8b313","getCurrentTokenId()":"56189236","getInterestedAddresses()":"8dc8b4da","getSecondaryFees(uint256,uint256)":"b7195763","getWhitelistedAddresses()":"6d028027","interestedAddressList(uint256)":"e084ffda","interestedAddresses(address)":"4bf56fd1","isAdmin(address)":"24d7806c","isApprovedForAll(address,address)":"e985e9c5","isInterested(address)":"62afcf00","isWhitelistEnabled()":"184d69ab","isWhitelisted(address)":"3af32abf","mintArtwork(string,string,bytes,string,uint256,uint256)":"c71959b4","name()":"06fdde03","owner()":"8da5cb5b","pause()":"8456cb59","paused()":"5c975abb","platformFeePercentage()":"cdd78cfc","purchaseArtwork(uint256,uint256)":"552906ce","registerInterest()":"5f5fff4d","removeAdmin(address)":"1785f53c","removeFromWhitelist(address)":"8ab1d681","renounceOwnership()":"715018a6","royaltyInfo(uint256,uint256)":"2a55205a","safeBatchTransferFrom(address,address,uint256[],uint256[],bytes)":"2eb2c2d6","safeTransferFrom(address,address,uint256,uint256,bytes)":"f242432a","secondaryArtistRoyalty()":"ecceec82","secondaryPlatformFee()":"489b3711","setApprovalForAll(address,bool)":"a22cb465","setPlatformFee(uint256)":"12e8e2c3","setSecondaryFees(uint256,uint256)":"1447ba1c","setTreasuryAddress(address)":"6605bfda","setURI(string)":"02fe5305","supportsInterface(bytes4)":"01ffc9a7","symbol()":"95d89b41","toggleArtworkStatus(uint256)":"5b42a8fe","toggleWhitelist()":"7e15144b","tokenToArtist(uint256)":"35c2aab9","totalSupply()":"18160ddd","totalSupply(uint256)":"bd85b039","transferOwnership(address)":"f2fde38b","treasuryAddress()":"c5f956af","unpause()":"3f4ba83a","updateArtistProfile(string,string,string)":"b23cd1a6","updateArtworkPrice(uint256,uint256)":"5001257e","uri(uint256)":"0e89341c","whitelistEnabled()":"51fb012d","whitelistedAddressList(uint256)":"63c770d8","whitelistedAddresses(address)":"06c933d8","withdrawPlatformFees()":"d0b7830b"}}}}}