{
  "_format": "hh-sol-artifact-1",
  "contractName": "PermalinkMarketplace",
  "sourceName": "contracts/PermalinkMarketplace.sol",
  "abi": [
    {
      "inputs": [
        {
          "internalType": "address",
          "name": "_permalinkNFT",
          "type": "address"
        },
        {
          "internalType": "address",
          "name": "_permalinkContract",
          "type": "address"
        },
        {
          "internalType": "address",
          "name": "_platformTreasury",
          "type": "address"
        },
        {
          "internalType": "address",
          "name": "initialOwner",
          "type": "address"
        }
      ],
      "stateMutability": "nonpayable",
      "type": "constructor"
    },
    {
      "inputs": [],
      "name": "EnforcedPause",
      "type": "error"
    },
    {
      "inputs": [],
      "name": "ExpectedPause",
      "type": "error"
    },
    {
      "inputs": [
        {
          "internalType": "address",
          "name": "owner",
          "type": "address"
        }
      ],
      "name": "OwnableInvalidOwner",
      "type": "error"
    },
    {
      "inputs": [
        {
          "internalType": "address",
          "name": "account",
          "type": "address"
        }
      ],
      "name": "OwnableUnauthorizedAccount",
      "type": "error"
    },
    {
      "inputs": [],
      "name": "ReentrancyGuardReentrantCall",
      "type": "error"
    },
    {
      "anonymous": false,
      "inputs": [
        {
          "indexed": true,
          "internalType": "bytes32",
          "name": "listingId",
          "type": "bytes32"
        },
        {
          "indexed": true,
          "internalType": "uint256",
          "name": "tokenId",
          "type": "uint256"
        },
        {
          "indexed": true,
          "internalType": "address",
          "name": "seller",
          "type": "address"
        },
        {
          "indexed": false,
          "internalType": "uint256",
          "name": "amount",
          "type": "uint256"
        },
        {
          "indexed": false,
          "internalType": "uint256",
          "name": "pricePerToken",
          "type": "uint256"
        }
      ],
      "name": "Listed",
      "type": "event"
    },
    {
      "anonymous": false,
      "inputs": [
        {
          "indexed": true,
          "internalType": "bytes32",
          "name": "offerId",
          "type": "bytes32"
        },
        {
          "indexed": true,
          "internalType": "uint256",
          "name": "tokenId",
          "type": "uint256"
        },
        {
          "indexed": true,
          "internalType": "address",
          "name": "seller",
          "type": "address"
        },
        {
          "indexed": false,
          "internalType": "address",
          "name": "buyer",
          "type": "address"
        },
        {
          "indexed": false,
          "internalType": "uint256",
          "name": "amount",
          "type": "uint256"
        },
        {
          "indexed": false,
          "internalType": "uint256",
          "name": "totalPrice",
          "type": "uint256"
        }
      ],
      "name": "OfferAccepted",
      "type": "event"
    },
    {
      "anonymous": false,
      "inputs": [
        {
          "indexed": true,
          "internalType": "bytes32",
          "name": "offerId",
          "type": "bytes32"
        },
        {
          "indexed": true,
          "internalType": "address",
          "name": "buyer",
          "type": "address"
        }
      ],
      "name": "OfferCancelled",
      "type": "event"
    },
    {
      "anonymous": false,
      "inputs": [
        {
          "indexed": true,
          "internalType": "bytes32",
          "name": "offerId",
          "type": "bytes32"
        },
        {
          "indexed": true,
          "internalType": "uint256",
          "name": "tokenId",
          "type": "uint256"
        },
        {
          "indexed": true,
          "internalType": "address",
          "name": "buyer",
          "type": "address"
        },
        {
          "indexed": false,
          "internalType": "uint256",
          "name": "amount",
          "type": "uint256"
        },
        {
          "indexed": false,
          "internalType": "uint256",
          "name": "pricePerToken",
          "type": "uint256"
        },
        {
          "indexed": false,
          "internalType": "uint256",
          "name": "expiresAt",
          "type": "uint256"
        }
      ],
      "name": "OfferMade",
      "type": "event"
    },
    {
      "anonymous": false,
      "inputs": [
        {
          "indexed": true,
          "internalType": "address",
          "name": "previousOwner",
          "type": "address"
        },
        {
          "indexed": true,
          "internalType": "address",
          "name": "newOwner",
          "type": "address"
        }
      ],
      "name": "OwnershipTransferred",
      "type": "event"
    },
    {
      "anonymous": false,
      "inputs": [
        {
          "indexed": false,
          "internalType": "address",
          "name": "account",
          "type": "address"
        }
      ],
      "name": "Paused",
      "type": "event"
    },
    {
      "anonymous": false,
      "inputs": [
        {
          "indexed": true,
          "internalType": "bytes32",
          "name": "listingId",
          "type": "bytes32"
        },
        {
          "indexed": true,
          "internalType": "uint256",
          "name": "tokenId",
          "type": "uint256"
        },
        {
          "indexed": true,
          "internalType": "address",
          "name": "seller",
          "type": "address"
        },
        {
          "indexed": false,
          "internalType": "address",
          "name": "buyer",
          "type": "address"
        },
        {
          "indexed": false,
          "internalType": "uint256",
          "name": "amount",
          "type": "uint256"
        },
        {
          "indexed": false,
          "internalType": "uint256",
          "name": "totalPrice",
          "type": "uint256"
        },
        {
          "indexed": false,
          "internalType": "uint256",
          "name": "artistRoyalty",
          "type": "uint256"
        },
        {
          "indexed": false,
          "internalType": "uint256",
          "name": "platformRoyalty",
          "type": "uint256"
        },
        {
          "indexed": false,
          "internalType": "uint256",
          "name": "marketplaceFee",
          "type": "uint256"
        }
      ],
      "name": "Sale",
      "type": "event"
    },
    {
      "anonymous": false,
      "inputs": [
        {
          "indexed": true,
          "internalType": "bytes32",
          "name": "listingId",
          "type": "bytes32"
        },
        {
          "indexed": true,
          "internalType": "address",
          "name": "seller",
          "type": "address"
        }
      ],
      "name": "Unlisted",
      "type": "event"
    },
    {
      "anonymous": false,
      "inputs": [
        {
          "indexed": false,
          "internalType": "address",
          "name": "account",
          "type": "address"
        }
      ],
      "name": "Unpaused",
      "type": "event"
    },
    {
      "inputs": [],
      "name": "MAX_MARKETPLACE_FEE",
      "outputs": [
        {
          "internalType": "uint256",
          "name": "",
          "type": "uint256"
        }
      ],
      "stateMutability": "view",
      "type": "function"
    },
    {
      "inputs": [
        {
          "internalType": "bytes32",
          "name": "offerId",
          "type": "bytes32"
        },
        {
          "internalType": "uint256",
          "name": "amount",
          "type": "uint256"
        }
      ],
      "name": "acceptOffer",
      "outputs": [],
      "stateMutability": "nonpayable",
      "type": "function"
    },
    {
      "inputs": [
        {
          "internalType": "bytes32",
          "name": "listingId",
          "type": "bytes32"
        },
        {
          "internalType": "uint256",
          "name": "amount",
          "type": "uint256"
        }
      ],
      "name": "buyFromListing",
      "outputs": [],
      "stateMutability": "payable",
      "type": "function"
    },
    {
      "inputs": [
        {
          "internalType": "bytes32",
          "name": "listingId",
          "type": "bytes32"
        }
      ],
      "name": "cancelListing",
      "outputs": [],
      "stateMutability": "nonpayable",
      "type": "function"
    },
    {
      "inputs": [
        {
          "internalType": "bytes32",
          "name": "offerId",
          "type": "bytes32"
        }
      ],
      "name": "cancelOffer",
      "outputs": [],
      "stateMutability": "nonpayable",
      "type": "function"
    },
    {
      "inputs": [
        {
          "internalType": "uint256",
          "name": "tokenId",
          "type": "uint256"
        },
        {
          "internalType": "uint256",
          "name": "amount",
          "type": "uint256"
        },
        {
          "internalType": "uint256",
          "name": "pricePerToken",
          "type": "uint256"
        }
      ],
      "name": "createListing",
      "outputs": [
        {
          "internalType": "bytes32",
          "name": "",
          "type": "bytes32"
        }
      ],
      "stateMutability": "nonpayable",
      "type": "function"
    },
    {
      "inputs": [],
      "name": "emergencyWithdraw",
      "outputs": [],
      "stateMutability": "nonpayable",
      "type": "function"
    },
    {
      "inputs": [
        {
          "internalType": "uint256",
          "name": "tokenId",
          "type": "uint256"
        }
      ],
      "name": "getTokenListings",
      "outputs": [
        {
          "internalType": "bytes32[]",
          "name": "",
          "type": "bytes32[]"
        }
      ],
      "stateMutability": "view",
      "type": "function"
    },
    {
      "inputs": [
        {
          "internalType": "uint256",
          "name": "tokenId",
          "type": "uint256"
        }
      ],
      "name": "getTokenOffers",
      "outputs": [
        {
          "internalType": "bytes32[]",
          "name": "",
          "type": "bytes32[]"
        }
      ],
      "stateMutability": "view",
      "type": "function"
    },
    {
      "inputs": [
        {
          "internalType": "address",
          "name": "user",
          "type": "address"
        }
      ],
      "name": "getUserListings",
      "outputs": [
        {
          "internalType": "bytes32[]",
          "name": "",
          "type": "bytes32[]"
        }
      ],
      "stateMutability": "view",
      "type": "function"
    },
    {
      "inputs": [
        {
          "internalType": "address",
          "name": "user",
          "type": "address"
        }
      ],
      "name": "getUserOffers",
      "outputs": [
        {
          "internalType": "bytes32[]",
          "name": "",
          "type": "bytes32[]"
        }
      ],
      "stateMutability": "view",
      "type": "function"
    },
    {
      "inputs": [
        {
          "internalType": "bytes32",
          "name": "",
          "type": "bytes32"
        }
      ],
      "name": "listings",
      "outputs": [
        {
          "internalType": "uint256",
          "name": "tokenId",
          "type": "uint256"
        },
        {
          "internalType": "uint256",
          "name": "amount",
          "type": "uint256"
        },
        {
          "internalType": "uint256",
          "name": "pricePerToken",
          "type": "uint256"
        },
        {
          "internalType": "address",
          "name": "seller",
          "type": "address"
        },
        {
          "internalType": "uint256",
          "name": "listedAt",
          "type": "uint256"
        },
        {
          "internalType": "bool",
          "name": "isActive",
          "type": "bool"
        }
      ],
      "stateMutability": "view",
      "type": "function"
    },
    {
      "inputs": [
        {
          "internalType": "uint256",
          "name": "tokenId",
          "type": "uint256"
        },
        {
          "internalType": "uint256",
          "name": "amount",
          "type": "uint256"
        },
        {
          "internalType": "uint256",
          "name": "pricePerToken",
          "type": "uint256"
        },
        {
          "internalType": "uint256",
          "name": "duration",
          "type": "uint256"
        }
      ],
      "name": "makeOffer",
      "outputs": [
        {
          "internalType": "bytes32",
          "name": "",
          "type": "bytes32"
        }
      ],
      "stateMutability": "payable",
      "type": "function"
    },
    {
      "inputs": [],
      "name": "marketplaceFee",
      "outputs": [
        {
          "internalType": "uint256",
          "name": "",
          "type": "uint256"
        }
      ],
      "stateMutability": "view",
      "type": "function"
    },
    {
      "inputs": [
        {
          "internalType": "bytes32",
          "name": "",
          "type": "bytes32"
        }
      ],
      "name": "offers",
      "outputs": [
        {
          "internalType": "uint256",
          "name": "tokenId",
          "type": "uint256"
        },
        {
          "internalType": "uint256",
          "name": "amount",
          "type": "uint256"
        },
        {
          "internalType": "uint256",
          "name": "pricePerToken",
          "type": "uint256"
        },
        {
          "internalType": "address",
          "name": "buyer",
          "type": "address"
        },
        {
          "internalType": "uint256",
          "name": "expiresAt",
          "type": "uint256"
        },
        {
          "internalType": "bool",
          "name": "isActive",
          "type": "bool"
        }
      ],
      "stateMutability": "view",
      "type": "function"
    },
    {
      "inputs": [
        {
          "internalType": "address",
          "name": "",
          "type": "address"
        },
        {
          "internalType": "address",
          "name": "",
          "type": "address"
        },
        {
          "internalType": "uint256[]",
          "name": "",
          "type": "uint256[]"
        },
        {
          "internalType": "uint256[]",
          "name": "",
          "type": "uint256[]"
        },
        {
          "internalType": "bytes",
          "name": "",
          "type": "bytes"
        }
      ],
      "name": "onERC1155BatchReceived",
      "outputs": [
        {
          "internalType": "bytes4",
          "name": "",
          "type": "bytes4"
        }
      ],
      "stateMutability": "nonpayable",
      "type": "function"
    },
    {
      "inputs": [
        {
          "internalType": "address",
          "name": "",
          "type": "address"
        },
        {
          "internalType": "address",
          "name": "",
          "type": "address"
        },
        {
          "internalType": "uint256",
          "name": "",
          "type": "uint256"
        },
        {
          "internalType": "uint256",
          "name": "",
          "type": "uint256"
        },
        {
          "internalType": "bytes",
          "name": "",
          "type": "bytes"
        }
      ],
      "name": "onERC1155Received",
      "outputs": [
        {
          "internalType": "bytes4",
          "name": "",
          "type": "bytes4"
        }
      ],
      "stateMutability": "nonpayable",
      "type": "function"
    },
    {
      "inputs": [],
      "name": "owner",
      "outputs": [
        {
          "internalType": "address",
          "name": "",
          "type": "address"
        }
      ],
      "stateMutability": "view",
      "type": "function"
    },
    {
      "inputs": [],
      "name": "pause",
      "outputs": [],
      "stateMutability": "nonpayable",
      "type": "function"
    },
    {
      "inputs": [],
      "name": "paused",
      "outputs": [
        {
          "internalType": "bool",
          "name": "",
          "type": "bool"
        }
      ],
      "stateMutability": "view",
      "type": "function"
    },
    {
      "inputs": [],
      "name": "permalinkContract",
      "outputs": [
        {
          "internalType": "contract IPermalink",
          "name": "",
          "type": "address"
        }
      ],
      "stateMutability": "view",
      "type": "function"
    },
    {
      "inputs": [],
      "name": "permalinkNFT",
      "outputs": [
        {
          "internalType": "contract IERC1155",
          "name": "",
          "type": "address"
        }
      ],
      "stateMutability": "view",
      "type": "function"
    },
    {
      "inputs": [],
      "name": "platformTreasury",
      "outputs": [
        {
          "internalType": "address",
          "name": "",
          "type": "address"
        }
      ],
      "stateMutability": "view",
      "type": "function"
    },
    {
      "inputs": [],
      "name": "renounceOwnership",
      "outputs": [],
      "stateMutability": "nonpayable",
      "type": "function"
    },
    {
      "inputs": [
        {
          "internalType": "uint256",
          "name": "_fee",
          "type": "uint256"
        }
      ],
      "name": "setMarketplaceFee",
      "outputs": [],
      "stateMutability": "nonpayable",
      "type": "function"
    },
    {
      "inputs": [
        {
          "internalType": "bytes4",
          "name": "interfaceId",
          "type": "bytes4"
        }
      ],
      "name": "supportsInterface",
      "outputs": [
        {
          "internalType": "bool",
          "name": "",
          "type": "bool"
        }
      ],
      "stateMutability": "view",
      "type": "function"
    },
    {
      "inputs": [
        {
          "internalType": "uint256",
          "name": "",
          "type": "uint256"
        },
        {
          "internalType": "uint256",
          "name": "",
          "type": "uint256"
        }
      ],
      "name": "tokenListings",
      "outputs": [
        {
          "internalType": "bytes32",
          "name": "",
          "type": "bytes32"
        }
      ],
      "stateMutability": "view",
      "type": "function"
    },
    {
      "inputs": [
        {
          "internalType": "uint256",
          "name": "",
          "type": "uint256"
        },
        {
          "internalType": "uint256",
          "name": "",
          "type": "uint256"
        }
      ],
      "name": "tokenOffers",
      "outputs": [
        {
          "internalType": "bytes32",
          "name": "",
          "type": "bytes32"
        }
      ],
      "stateMutability": "view",
      "type": "function"
    },
    {
      "inputs": [
        {
          "internalType": "address",
          "name": "newOwner",
          "type": "address"
        }
      ],
      "name": "transferOwnership",
      "outputs": [],
      "stateMutability": "nonpayable",
      "type": "function"
    },
    {
      "inputs": [],
      "name": "unpause",
      "outputs": [],
      "stateMutability": "nonpayable",
      "type": "function"
    },
    {
      "inputs": [
        {
          "internalType": "address",
          "name": "",
          "type": "address"
        },
        {
          "internalType": "uint256",
          "name": "",
          "type": "uint256"
        }
      ],
      "name": "userListings",
      "outputs": [
        {
          "internalType": "bytes32",
          "name": "",
          "type": "bytes32"
        }
      ],
      "stateMutability": "view",
      "type": "function"
    },
    {
      "inputs": [
        {
          "internalType": "address",
          "name": "",
          "type": "address"
        },
        {
          "internalType": "uint256",
          "name": "",
          "type": "uint256"
        }
      ],
      "name": "userOffers",
      "outputs": [
        {
          "internalType": "bytes32",
          "name": "",
          "type": "bytes32"
        }
      ],
      "stateMutability": "view",
      "type": "function"
    }
  ],
  "bytecode": "0x60e0346200016c57601f6200212838819003918201601f19168301916001600160401b0383118484101762000171578084926080946040528339810103126200016c576200004d8162000187565b906200005c6020820162000187565b620000786060620000706040850162000187565b930162000187565b60016000556001600160a01b039081169390919084156200015357600180546001600160a01b0319811687179091556040519584929183167f8be0079c531659141344cd1fd0a4f28419497f9722a3daafe3b4186f6b6457e0600080a36064600255166080521660a05260c052611f8b90816200019d823960805181818161065e01528181610f9901528181610ffe015281816110e70152818161115901528181611470015261159e015260a051818181610a960152818161107d015261154f015260c051818181610405015281816112b8015261174b0152f35b604051631e4fbdf760e01b815260006004820152602490fd5b600080fd5b634e487b7160e01b600052604160045260246000fd5b51906001600160a01b03821682036200016c5756fe608080604052600436101561001357600080fd5b600090813560e01c90816301388d37146119975750806301ffc9a71461194057806311fc9fed146118d85780631dfed09f1461149f578063230dc2781461145a5780633e314b5a14610f115780633f4ba83a14610e9e57806340cfece214610e6c578063474d3ff014610df45780635c975abb14610dce57806364e574c214610bb7578063661d2c2c14610b415780636a16696414610b23578063715018a614610ac5578063827898f314610a805780638456cb5914610a1d57806386cfa7d3146109d55780638da5cb5b146109ac5780639299e552146108ff5780639407ea981461089f578063944985f51461086d578063b03053b6146105f8578063bc197c811461056a578063bd5fec6514610514578063c18b8db4146104a1578063ca28ae8414610484578063db2e21bc14610434578063e138818c146103ef578063eb18a9d814610369578063f23a6e611461030e578063f2fde38b1461027e5763f952279e1461018157600080fd5b3461027b57602036600319011261027b5760043561019d611f06565b80825260046020526040822060058101908154906101bd60ff8316611cb5565b60038101546001600160a01b0316330361024657846101f3819492829493839460ff191690556001600282015491015490611c4d565b81811561023d575b3390f1156102305733907f71452125ef8fc453ad578ac435d03568465f10677a9b0edfa96a5da9c5cd26198380a36001815580f35b50604051903d90823e3d90fd5b506108fc6101fb565b60405162461bcd60e51b815260206004820152600d60248201526c2737ba103a343290313abcb2b960991b6044820152606490fd5b80fd5b503461027b57602036600319011261027b57610298611a7d565b6102a0611f29565b6001600160a01b039081169081156102f557600154826bffffffffffffffffffffffff60a01b821617600155167f8be0079c531659141344cd1fd0a4f28419497f9722a3daafe3b4186f6b6457e0600080a380f35b604051631e4fbdf760e01b815260048101849052602490fd5b503461027b5760a036600319011261027b57610328611a7d565b50610331611a93565b5060843567ffffffffffffffff811161036557610352903690600401611b78565b5060405163f23a6e6160e01b8152602090f35b5080fd5b503461027b57602080600319360112610365576001600160a01b0361038c611a7d565b1682526007602052604082209160405180926020855492838152019483526020832092905b8282106103d8576103d4856103c881890382611aef565b604051918291826119fd565b0390f35b8354865294850194600193840193909101906103b1565b503461027b578060031936011261027b576040517f00000000000000000000000000000000000000000000000000000000000000006001600160a01b03168152602090f35b503461027b578060031936011261027b5761044d611f29565b8080808060018060a01b0360015416479082821561047b575bf11561046f5780f35b604051903d90823e3d90fd5b506108fc610466565b503461027b578060031936011261027b5760206040516101f48152f35b503461027b57602036600319011261027b57600480358252600360208181526040938490208054600182015460028301549483015495830154600590930154875192835293820152948501929092526001600160a01b039092166060840152608083015260ff16151560a082015260c090f35b503461027b57604036600319011261027b5761052e611a7d565b6001600160a01b031681526008602052604081208054602435929083101561027b57602061055c8484611a4f565b90546040519160031b1c8152f35b503461027b5760a036600319011261027b57610584611a7d565b5061058d611a93565b5067ffffffffffffffff6044358181116105f4576105af903690600401611b11565b506064358181116105f4576105c8903690600401611b11565b50608435908111610365576105e1903690600401611b78565b5060405163bc197c8160e01b8152602090f35b8280fd5b503461027b57606036600319011261027b57600435602435916044359061061d611ee5565b610625611f06565b610630841515611da4565b61063b821515611df0565b604051627eeac760e11b8152336004820152602481018490526001600160a01b037f00000000000000000000000000000000000000000000000000000000000000001694602094909185816044818a5afa8015610862578390859061082c575b6106a792501015611cf4565b60405163e985e9c560e01b8152336004820152306024820152958590879060449082905afa9586156108215760019495966106e99185916107f4575b50611d58565b6106f4600954611e3c565b60098190556040513360601b6bffffffffffffffffffffffff1916888201908152601481018490526034810185905260548101889052426074820152609481019290925261074f8160b484015b03601f198101835282611aef565b5190209461079260405161076281611ad3565b83815284898201528260408201523360608201524260808201528660a08201528786526003895260408620611e4b565b818452600587526107a68660408620611eab565b338452600787526107ba8660408620611eab565b60405192835286830152847f5d450af7246f78f4dee2907141631b6f63628a5027655205c154ad687dbdb51f60403394a455604051908152f35b6108149150883d8a1161081a575b61080c8183611aef565b810190611d40565b386106e3565b503d610802565b6040513d85823e3d90fd5b50508581813d831161085b575b6108438183611aef565b8101031261085657826106a7915161069b565b600080fd5b503d610839565b6040513d86823e3d90fd5b503461027b5761087c36611a39565b9190815260066020526040812090815483101561027b57602061055c8484611a4f565b503461027b57602036600319011261027b576004356108bc611f29565b6101f481116108cb5760025580f35b60405162461bcd60e51b815260206004820152600c60248201526b08ccaca40e8dede40d0d2ced60a31b6044820152606490fd5b503461027b57602036600319011261027b57600435808252600360205260408220600581019081549061093460ff8316611bcf565b600301546001600160a01b031633036109765760ff1916905533907fd79d80f6ec1a88062761ea9e96514b31f6c3429ac7764829d8770cd9cc32cf238380a380f35b60405162461bcd60e51b815260206004820152600e60248201526d2737ba103a34329039b2b63632b960911b6044820152606490fd5b503461027b578060031936011261027b576001546040516001600160a01b039091168152602090f35b503461027b57604036600319011261027b576109ef611a7d565b6001600160a01b031681526007602052604081208054602435929083101561027b57602061055c8484611a4f565b503461027b578060031936011261027b57610a36611f29565b610a3e611ee5565b6001805460ff60a01b1916600160a01b1790556040513381527f62e78cea01bee320cd4e420270b5ea74000d11b0c9f74754ebdbfc544b05a25890602090a180f35b503461027b578060031936011261027b576040517f00000000000000000000000000000000000000000000000000000000000000006001600160a01b03168152602090f35b503461027b578060031936011261027b57610ade611f29565b600180546001600160a01b031981169091556000906001600160a01b03167f8be0079c531659141344cd1fd0a4f28419497f9722a3daafe3b4186f6b6457e08280a380f35b503461027b578060031936011261027b576020600254604051908152f35b503461027b57602080600319360112610365576001600160a01b03610b64611a7d565b1682526008602052604082209160405180926020855492838152019483526020832092905b828210610ba0576103d4856103c881890382611aef565b835486529485019460019384019390910190610b89565b50608036600319011261027b576004356024356044359260643591610bda611ee5565b610be2611f06565b610bed811515611da4565b610bf8851515611df0565b82151580610dc1575b15610d8957610c108186611c4d565b3410610d4457610c21600a54611e3c565b600a8190556040513360601b6bffffffffffffffffffffffff1916602080830191825260348301889052605483018590526074830189905242609484015260b483019390935291959190610c788160d48101610741565b519020934201804211610d30576001949596610cc9604051610c9981611ad3565b848152858a8201528260408201523360608201528360808201528760a082015288875260048a5260408720611e4b565b82855260068852610cdd8760408720611eab565b33855260088852610cf18760408720611eab565b604051938452878401526040830152847f32894aac4345dfc3041155cb3f366b2e2831ce2f2b8f4d7054b2b704dbe470f060603394a455604051908152f35b634e487b7160e01b84526011600452602484fd5b60405162461bcd60e51b815260206004820152601e60248201527f496e73756666696369656e74207061796d656e7420666f72206f6666657200006044820152606490fd5b60405162461bcd60e51b815260206004820152601060248201526f24b73b30b634b210323ab930ba34b7b760811b6044820152606490fd5b5062278d00831115610c01565b503461027b578060031936011261027b57602060ff60015460a01c166040519015158152f35b503461027b57602036600319011261027b576004803582526020818152604092839020805460018201546002830154600384015495840154600590940154875193845294830191909152948101949094526001600160a01b039092166060840152608083019190915260ff16151560a082015260c090f35b503461027b57610e7b36611a39565b9190815260056020526040812090815483101561027b57602061055c8484611a4f565b503461027b578060031936011261027b57610eb7611f29565b60015460ff8160a01c1615610eff5760ff60a01b19166001556040513381527f5db9ee0a495bf2e6ff9c91a7834c1ba4fdd244a5e8aa4e537bd38aeae4b073aa90602090a180f35b604051638dfc202b60e01b8152600490fd5b503461027b57610f2036611a39565b610f28611ee5565b610f30611f06565b818352602091600483526040842091610f4f60ff600585015416611cb5565b600483015442116114255780151580611417575b610f6c90611c10565b8254604051627eeac760e11b81523360048201526024810182905290919085816044816001600160a01b037f0000000000000000000000000000000000000000000000000000000000000000165afa801561138957829088906113e6575b610fd692501015611cf4565b60405163e985e9c560e01b815233600482015230602482015285816044816001600160a01b037f0000000000000000000000000000000000000000000000000000000000000000165afa8015611389576110369188916113cf5750611d58565b85611045826002870154611c4d565b9261271061105560025486611c4d565b60405163b719576360e01b8152600481018490526024810187905292919004906080836044817f00000000000000000000000000000000000000000000000000000000000000006001600160a01b03165afa90811561086257849385908693611398575b506110d1836110cc836110cc888d611ca8565b611ca8565b60038b01549095906001600160a01b03908116907f0000000000000000000000000000000000000000000000000000000000000000163b1561139457604051637921219560e11b81523360048201526001600160a01b03909116602482015260448101939093526064830188905260a06084840152600060a484015286838060c481010381837f00000000000000000000000000000000000000000000000000000000000000006001600160a01b03165af192831561138957879361136d575b5060018b01956111a2898854611ca8565b8088551561135c575b80158015611333575b50508115908115611303575b50505090801580156112aa575b505090801590811561127a575b5050505480611232575b5050835493600360018060a01b03910154169460405195865285015260408401527ff59fa8d7e2b3e47e4dcfbc241ade86eafe2766f3b623a79c2032cf1110fa041060603394a46001815580f35b8180611243819360028a0154611c4d565b60038901546001600160a01b0316828215611271575bf1156112665785386111e4565b6040513d87823e3d90fd5b506108fc611259565b82809291819260018060a01b03600154169083906112a1575bf115610230578138806111da565b506108fc611293565b828092819282906112fa575b7f00000000000000000000000000000000000000000000000000000000000000006001600160a01b031690f1156112ef578238806111cd565b6040513d84823e3d90fd5b506108fc6112b6565b8392839283928391611329575b6001600160a01b031690f11561082157833880806111c0565b6108fc9150611310565b93808093959281938290611353575b3390f11561126657859138806111b4565b506108fc611342565b60058c01805460ff191690556111ab565b61137990939193611aa9565b61138557859138611191565b8580fd5b6040513d89823e3d90fd5b8780fd5b919450506113be915060803d6080116113c8575b6113b68183611aef565b810190611c76565b50919390386110b9565b503d6113ac565b6108149150873d891161081a5761080c8183611aef565b50508581813d8311611410575b6113fd8183611aef565b810103126108565781610fd69151610fca565b503d6113f3565b506001830154811115610f63565b60405162461bcd60e51b815260048101859052600d60248201526c13d999995c88195e1c1a5c9959609a1b6044820152606490fd5b503461027b578060031936011261027b576040517f00000000000000000000000000000000000000000000000000000000000000006001600160a01b03168152602090f35b506114a936611a39565b6114b1611ee5565b6114b9611f06565b8183526003602052604083209160058301926114d860ff855416611bcf565b821515806118ca575b6114ea90611c10565b600381019260018060a01b0391828554169533871461188557611511836002840154611c4d565b96873410611849576127106115286002548a611c4d565b049280546040519263b719576360e01b84528160048501528a60248501526080846044818b7f0000000000000000000000000000000000000000000000000000000000000000165afa94851561183e578b928d8881958298839a611807575b506110cc896110cc61159a948d94611ca8565b938b7f000000000000000000000000000000000000000000000000000000000000000016803b156105f457604051637921219560e11b81526001600160a01b039290921660048301523360248301526044820193909352606481018b905260a06084820152600060a482015291829060c490829084905af180156117fa576117e3575b508c92918391600186016116328b8254611ca8565b809155156117d5575b50898c82159283156117ac575b5050915050841591858315611783575b505050508315801561173a575b508415858115611710575b5050508834116116d1575b907f377cd647ca6bd9ac9f1b2d44f261bead781f65b9fe47f5736b66cf695947aa0f9560c095949392549854169860405194338652602086015260408501526060840152608083015260a0820152a46001815580f35b93929190898080806116e38d34611ca8565b818115611707575b3390f1156116fc579091929361167b565b6040513d8b823e3d90fd5b506108fc6116eb565b8280929181928b60015416908390611731575bf1156116fc57893885611670565b506108fc611723565b848291611779575b8280929181928b7f00000000000000000000000000000000000000000000000000000000000000001690f1156116fc578938611665565b6108fc9150611742565b84938493849384926117a2575b1690f1156116fc578938878185611658565b6108fc9250611790565b84938493849354169083906117cc575bf115610230578138898c82611648565b506108fc6117bc565b805460ff191690553861163b565b6117f1909d9193929d611aa9565b9b90913861161d565b8e604051903d90823e3d90fd5b61159a929a506110cc99506110cc975061182f9060803d6080116113c8576113b68183611aef565b509b909a509097909250611587565b6040513d8e823e3d90fd5b60405162461bcd60e51b8152602060048201526014602482015273125b9cdd59999a58da595b9d081c185e5b595b9d60621b6044820152606490fd5b60405162461bcd60e51b815260206004820152601860248201527f43616e6e6f74206275792066726f6d20796f757273656c6600000000000000006044820152606490fd5b5060018101548311156114e1565b503461027b576020806003193601126103655760043582526005602052604082209160405180926020855492838152019483526020832092905b828210611929576103d4856103c881890382611aef565b835486529485019460019384019390910190611912565b503461027b57602036600319011261027b5760043563ffffffff60e01b811680910361036557602090630271189760e51b8114908115611986575b506040519015158152f35b6301ffc9a760e01b1490508261197b565b905034610365576020806003193601126105f45791600435815260066020526040812092835490818452602084019483526020832092905b8282106119e6576103d4856103c881890382611aef565b8354865294850194600193840193909101906119cf565b602090602060408183019282815285518094520193019160005b828110611a25575050505090565b835185529381019392810192600101611a17565b6040906003190112610856576004359060243590565b8054821015611a675760005260206000200190600090565b634e487b7160e01b600052603260045260246000fd5b600435906001600160a01b038216820361085657565b602435906001600160a01b038216820361085657565b67ffffffffffffffff8111611abd57604052565b634e487b7160e01b600052604160045260246000fd5b60c0810190811067ffffffffffffffff821117611abd57604052565b90601f8019910116810190811067ffffffffffffffff821117611abd57604052565b81601f820112156108565780359160209167ffffffffffffffff8411611abd578360051b9060405194611b4685840187611aef565b85528380860192820101928311610856578301905b828210611b69575050505090565b81358152908301908301611b5b565b81601f820112156108565780359067ffffffffffffffff8211611abd5760405192611bad601f8401601f191660200185611aef565b8284526020838301011161085657816000926020809301838601378301015290565b15611bd657565b60405162461bcd60e51b81526020600482015260126024820152714c697374696e67206e6f742061637469766560701b6044820152606490fd5b15611c1757565b60405162461bcd60e51b815260206004820152600e60248201526d125b9d985b1a5908185b5bdd5b9d60921b6044820152606490fd5b81810292918115918404141715611c6057565b634e487b7160e01b600052601160045260246000fd5b91908260809103126108565781516001600160a01b038116810361085657916020810151916060604083015192015190565b91908203918211611c6057565b15611cbc57565b60405162461bcd60e51b815260206004820152601060248201526f4f66666572206e6f742061637469766560801b6044820152606490fd5b15611cfb57565b60405162461bcd60e51b815260206004820152601a60248201527f496e73756666696369656e7420746f6b656e2062616c616e63650000000000006044820152606490fd5b90816020910312610856575180151581036108565790565b15611d5f57565b60405162461bcd60e51b815260206004820152601860248201527f4d61726b6574706c616365206e6f7420617070726f76656400000000000000006044820152606490fd5b15611dab57565b60405162461bcd60e51b815260206004820152601d60248201527f416d6f756e74206d7573742062652067726561746572207468616e20300000006044820152606490fd5b15611df757565b60405162461bcd60e51b815260206004820152601c60248201527f5072696365206d7573742062652067726561746572207468616e2030000000006044820152606490fd5b6000198114611c605760010190565b600560a09183518155602084015160018201556040840151600282015560038101600180851b036060860151166bffffffffffffffffffffffff851b8254161790556080840151600482015501910151151560ff80198354169116179055565b805468010000000000000000811015611abd57611ecd91600182018155611a4f565b819291549060031b91821b91600019901b1916179055565b60ff60015460a01c16611ef457565b60405163d93c066560e01b8152600490fd5b600260005414611f17576002600055565b604051633ee5aeb560e01b8152600490fd5b6001546001600160a01b03163303611f3d57565b60405163118cdaa760e01b8152336004820152602490fdfea2646970667358221220496913c459e4dd79386d275800fbc97b75f092d1578f22466c3843397d17c83e64736f6c63430008180033",
  "linkReferences": {},
  "deployedLinkReferences": {}
}