{
  "_format": "hh-sol-artifact-1",
  "contractName": "Permalink",
  "sourceName": "contracts/Permalink.sol",
  "abi": [
    {
      "inputs": [
        {
          "internalType": "address",
          "name": "initialOwner",
          "type": "address"
        }
      ],
      "stateMutability": "nonpayable",
      "type": "constructor"
    },
    {
      "inputs": [
        {
          "internalType": "address",
          "name": "sender",
          "type": "address"
        },
        {
          "internalType": "uint256",
          "name": "balance",
          "type": "uint256"
        },
        {
          "internalType": "uint256",
          "name": "needed",
          "type": "uint256"
        },
        {
          "internalType": "uint256",
          "name": "tokenId",
          "type": "uint256"
        }
      ],
      "name": "ERC1155InsufficientBalance",
      "type": "error"
    },
    {
      "inputs": [
        {
          "internalType": "address",
          "name": "approver",
          "type": "address"
        }
      ],
      "name": "ERC1155InvalidApprover",
      "type": "error"
    },
    {
      "inputs": [
        {
          "internalType": "uint256",
          "name": "idsLength",
          "type": "uint256"
        },
        {
          "internalType": "uint256",
          "name": "valuesLength",
          "type": "uint256"
        }
      ],
      "name": "ERC1155InvalidArrayLength",
      "type": "error"
    },
    {
      "inputs": [
        {
          "internalType": "address",
          "name": "operator",
          "type": "address"
        }
      ],
      "name": "ERC1155InvalidOperator",
      "type": "error"
    },
    {
      "inputs": [
        {
          "internalType": "address",
          "name": "receiver",
          "type": "address"
        }
      ],
      "name": "ERC1155InvalidReceiver",
      "type": "error"
    },
    {
      "inputs": [
        {
          "internalType": "address",
          "name": "sender",
          "type": "address"
        }
      ],
      "name": "ERC1155InvalidSender",
      "type": "error"
    },
    {
      "inputs": [
        {
          "internalType": "address",
          "name": "operator",
          "type": "address"
        },
        {
          "internalType": "address",
          "name": "owner",
          "type": "address"
        }
      ],
      "name": "ERC1155MissingApprovalForAll",
      "type": "error"
    },
    {
      "inputs": [],
      "name": "EnforcedPause",
      "type": "error"
    },
    {
      "inputs": [],
      "name": "ExpectedPause",
      "type": "error"
    },
    {
      "inputs": [
        {
          "internalType": "address",
          "name": "owner",
          "type": "address"
        }
      ],
      "name": "OwnableInvalidOwner",
      "type": "error"
    },
    {
      "inputs": [
        {
          "internalType": "address",
          "name": "account",
          "type": "address"
        }
      ],
      "name": "OwnableUnauthorizedAccount",
      "type": "error"
    },
    {
      "inputs": [],
      "name": "ReentrancyGuardReentrantCall",
      "type": "error"
    },
    {
      "anonymous": false,
      "inputs": [
        {
          "indexed": true,
          "internalType": "address",
          "name": "account",
          "type": "address"
        },
        {
          "indexed": true,
          "internalType": "address",
          "name": "operator",
          "type": "address"
        },
        {
          "indexed": false,
          "internalType": "bool",
          "name": "approved",
          "type": "bool"
        }
      ],
      "name": "ApprovalForAll",
      "type": "event"
    },
    {
      "anonymous": false,
      "inputs": [
        {
          "indexed": true,
          "internalType": "address",
          "name": "artist",
          "type": "address"
        },
        {
          "indexed": false,
          "internalType": "string",
          "name": "name",
          "type": "string"
        },
        {
          "indexed": false,
          "internalType": "string",
          "name": "bio",
          "type": "string"
        },
        {
          "indexed": false,
          "internalType": "string",
          "name": "avatarURI",
          "type": "string"
        }
      ],
      "name": "ArtistProfileUpdated",
      "type": "event"
    },
    {
      "anonymous": false,
      "inputs": [
        {
          "indexed": true,
          "internalType": "uint256",
          "name": "tokenId",
          "type": "uint256"
        },
        {
          "indexed": true,
          "internalType": "address",
          "name": "artist",
          "type": "address"
        },
        {
          "indexed": false,
          "internalType": "string",
          "name": "title",
          "type": "string"
        },
        {
          "indexed": false,
          "internalType": "uint256",
          "name": "price",
          "type": "uint256"
        },
        {
          "indexed": false,
          "internalType": "uint256",
          "name": "maxSupply",
          "type": "uint256"
        },
        {
          "indexed": false,
          "internalType": "uint256",
          "name": "imageSize",
          "type": "uint256"
        }
      ],
      "name": "ArtworkMinted",
      "type": "event"
    },
    {
      "anonymous": false,
      "inputs": [
        {
          "indexed": true,
          "internalType": "uint256",
          "name": "tokenId",
          "type": "uint256"
        },
        {
          "indexed": true,
          "internalType": "address",
          "name": "buyer",
          "type": "address"
        },
        {
          "indexed": true,
          "internalType": "address",
          "name": "artist",
          "type": "address"
        },
        {
          "indexed": false,
          "internalType": "uint256",
          "name": "amount",
          "type": "uint256"
        },
        {
          "indexed": false,
          "internalType": "uint256",
          "name": "price",
          "type": "uint256"
        }
      ],
      "name": "ArtworkPurchased",
      "type": "event"
    },
    {
      "anonymous": false,
      "inputs": [
        {
          "indexed": true,
          "internalType": "address",
          "name": "previousOwner",
          "type": "address"
        },
        {
          "indexed": true,
          "internalType": "address",
          "name": "newOwner",
          "type": "address"
        }
      ],
      "name": "OwnershipTransferred",
      "type": "event"
    },
    {
      "anonymous": false,
      "inputs": [
        {
          "indexed": false,
          "internalType": "address",
          "name": "account",
          "type": "address"
        }
      ],
      "name": "Paused",
      "type": "event"
    },
    {
      "anonymous": false,
      "inputs": [
        {
          "indexed": false,
          "internalType": "uint256",
          "name": "oldFee",
          "type": "uint256"
        },
        {
          "indexed": false,
          "internalType": "uint256",
          "name": "newFee",
          "type": "uint256"
        }
      ],
      "name": "PlatformFeeUpdated",
      "type": "event"
    },
    {
      "anonymous": false,
      "inputs": [
        {
          "indexed": true,
          "internalType": "address",
          "name": "operator",
          "type": "address"
        },
        {
          "indexed": true,
          "internalType": "address",
          "name": "from",
          "type": "address"
        },
        {
          "indexed": true,
          "internalType": "address",
          "name": "to",
          "type": "address"
        },
        {
          "indexed": false,
          "internalType": "uint256[]",
          "name": "ids",
          "type": "uint256[]"
        },
        {
          "indexed": false,
          "internalType": "uint256[]",
          "name": "values",
          "type": "uint256[]"
        }
      ],
      "name": "TransferBatch",
      "type": "event"
    },
    {
      "anonymous": false,
      "inputs": [
        {
          "indexed": true,
          "internalType": "address",
          "name": "operator",
          "type": "address"
        },
        {
          "indexed": true,
          "internalType": "address",
          "name": "from",
          "type": "address"
        },
        {
          "indexed": true,
          "internalType": "address",
          "name": "to",
          "type": "address"
        },
        {
          "indexed": false,
          "internalType": "uint256",
          "name": "id",
          "type": "uint256"
        },
        {
          "indexed": false,
          "internalType": "uint256",
          "name": "value",
          "type": "uint256"
        }
      ],
      "name": "TransferSingle",
      "type": "event"
    },
    {
      "anonymous": false,
      "inputs": [
        {
          "indexed": false,
          "internalType": "string",
          "name": "value",
          "type": "string"
        },
        {
          "indexed": true,
          "internalType": "uint256",
          "name": "id",
          "type": "uint256"
        }
      ],
      "name": "URI",
      "type": "event"
    },
    {
      "anonymous": false,
      "inputs": [
        {
          "indexed": false,
          "internalType": "address",
          "name": "account",
          "type": "address"
        }
      ],
      "name": "Unpaused",
      "type": "event"
    },
    {
      "inputs": [],
      "name": "ARTIST_ROYALTY_PERCENTAGE",
      "outputs": [
        {
          "internalType": "uint256",
          "name": "",
          "type": "uint256"
        }
      ],
      "stateMutability": "view",
      "type": "function"
    },
    {
      "inputs": [],
      "name": "MAX_PLATFORM_FEE",
      "outputs": [
        {
          "internalType": "uint256",
          "name": "",
          "type": "uint256"
        }
      ],
      "stateMutability": "view",
      "type": "function"
    },
    {
      "inputs": [
        {
          "internalType": "address",
          "name": "",
          "type": "address"
        }
      ],
      "name": "artistProfiles",
      "outputs": [
        {
          "internalType": "string",
          "name": "name",
          "type": "string"
        },
        {
          "internalType": "string",
          "name": "bio",
          "type": "string"
        },
        {
          "internalType": "string",
          "name": "avatarURI",
          "type": "string"
        },
        {
          "internalType": "uint256",
          "name": "totalCreated",
          "type": "uint256"
        },
        {
          "internalType": "uint256",
          "name": "totalCollected",
          "type": "uint256"
        },
        {
          "internalType": "bool",
          "name": "isRegistered",
          "type": "bool"
        }
      ],
      "stateMutability": "view",
      "type": "function"
    },
    {
      "inputs": [
        {
          "internalType": "address",
          "name": "",
          "type": "address"
        },
        {
          "internalType": "uint256",
          "name": "",
          "type": "uint256"
        }
      ],
      "name": "artistTokens",
      "outputs": [
        {
          "internalType": "uint256",
          "name": "",
          "type": "uint256"
        }
      ],
      "stateMutability": "view",
      "type": "function"
    },
    {
      "inputs": [
        {
          "internalType": "uint256",
          "name": "",
          "type": "uint256"
        }
      ],
      "name": "artworks",
      "outputs": [
        {
          "internalType": "uint256",
          "name": "tokenId",
          "type": "uint256"
        },
        {
          "internalType": "address",
          "name": "artist",
          "type": "address"
        },
        {
          "internalType": "string",
          "name": "title",
          "type": "string"
        },
        {
          "internalType": "string",
          "name": "description",
          "type": "string"
        },
        {
          "internalType": "bytes",
          "name": "imageData",
          "type": "bytes"
        },
        {
          "internalType": "string",
          "name": "imageType",
          "type": "string"
        },
        {
          "internalType": "uint256",
          "name": "price",
          "type": "uint256"
        },
        {
          "internalType": "uint256",
          "name": "maxSupply",
          "type": "uint256"
        },
        {
          "internalType": "uint256",
          "name": "currentSupply",
          "type": "uint256"
        },
        {
          "internalType": "bool",
          "name": "isActive",
          "type": "bool"
        },
        {
          "internalType": "uint256",
          "name": "createdAt",
          "type": "uint256"
        }
      ],
      "stateMutability": "view",
      "type": "function"
    },
    {
      "inputs": [
        {
          "internalType": "address",
          "name": "account",
          "type": "address"
        },
        {
          "internalType": "uint256",
          "name": "id",
          "type": "uint256"
        }
      ],
      "name": "balanceOf",
      "outputs": [
        {
          "internalType": "uint256",
          "name": "",
          "type": "uint256"
        }
      ],
      "stateMutability": "view",
      "type": "function"
    },
    {
      "inputs": [
        {
          "internalType": "address[]",
          "name": "accounts",
          "type": "address[]"
        },
        {
          "internalType": "uint256[]",
          "name": "ids",
          "type": "uint256[]"
        }
      ],
      "name": "balanceOfBatch",
      "outputs": [
        {
          "internalType": "uint256[]",
          "name": "",
          "type": "uint256[]"
        }
      ],
      "stateMutability": "view",
      "type": "function"
    },
    {
      "inputs": [
        {
          "internalType": "address",
          "name": "",
          "type": "address"
        },
        {
          "internalType": "uint256",
          "name": "",
          "type": "uint256"
        }
      ],
      "name": "collectorTokens",
      "outputs": [
        {
          "internalType": "uint256",
          "name": "",
          "type": "uint256"
        }
      ],
      "stateMutability": "view",
      "type": "function"
    },
    {
      "inputs": [
        {
          "internalType": "uint256",
          "name": "id",
          "type": "uint256"
        }
      ],
      "name": "exists",
      "outputs": [
        {
          "internalType": "bool",
          "name": "",
          "type": "bool"
        }
      ],
      "stateMutability": "view",
      "type": "function"
    },
    {
      "inputs": [
        {
          "internalType": "address",
          "name": "artist",
          "type": "address"
        }
      ],
      "name": "getArtistProfile",
      "outputs": [
        {
          "internalType": "string",
          "name": "artistName",
          "type": "string"
        },
        {
          "internalType": "string",
          "name": "bio",
          "type": "string"
        },
        {
          "internalType": "string",
          "name": "avatarURI",
          "type": "string"
        },
        {
          "internalType": "uint256",
          "name": "totalCreated",
          "type": "uint256"
        },
        {
          "internalType": "uint256",
          "name": "totalCollected",
          "type": "uint256"
        },
        {
          "internalType": "bool",
          "name": "isRegistered",
          "type": "bool"
        }
      ],
      "stateMutability": "view",
      "type": "function"
    },
    {
      "inputs": [
        {
          "internalType": "address",
          "name": "artist",
          "type": "address"
        }
      ],
      "name": "getArtistTokens",
      "outputs": [
        {
          "internalType": "uint256[]",
          "name": "",
          "type": "uint256[]"
        }
      ],
      "stateMutability": "view",
      "type": "function"
    },
    {
      "inputs": [
        {
          "internalType": "uint256",
          "name": "tokenId",
          "type": "uint256"
        }
      ],
      "name": "getArtwork",
      "outputs": [
        {
          "internalType": "address",
          "name": "artist",
          "type": "address"
        },
        {
          "internalType": "string",
          "name": "title",
          "type": "string"
        },
        {
          "internalType": "string",
          "name": "description",
          "type": "string"
        },
        {
          "internalType": "string",
          "name": "imageType",
          "type": "string"
        },
        {
          "internalType": "uint256",
          "name": "imageSize",
          "type": "uint256"
        },
        {
          "internalType": "uint256",
          "name": "price",
          "type": "uint256"
        },
        {
          "internalType": "uint256",
          "name": "maxSupply",
          "type": "uint256"
        },
        {
          "internalType": "uint256",
          "name": "currentSupply",
          "type": "uint256"
        },
        {
          "internalType": "bool",
          "name": "isActive",
          "type": "bool"
        },
        {
          "internalType": "uint256",
          "name": "createdAt",
          "type": "uint256"
        }
      ],
      "stateMutability": "view",
      "type": "function"
    },
    {
      "inputs": [
        {
          "internalType": "uint256",
          "name": "tokenId",
          "type": "uint256"
        }
      ],
      "name": "getArtworkImageData",
      "outputs": [
        {
          "internalType": "bytes",
          "name": "imageData",
          "type": "bytes"
        },
        {
          "internalType": "string",
          "name": "imageType",
          "type": "string"
        }
      ],
      "stateMutability": "view",
      "type": "function"
    },
    {
      "inputs": [
        {
          "internalType": "address",
          "name": "collector",
          "type": "address"
        }
      ],
      "name": "getCollectorTokens",
      "outputs": [
        {
          "internalType": "uint256[]",
          "name": "",
          "type": "uint256[]"
        }
      ],
      "stateMutability": "view",
      "type": "function"
    },
    {
      "inputs": [],
      "name": "getCurrentTokenId",
      "outputs": [
        {
          "internalType": "uint256",
          "name": "",
          "type": "uint256"
        }
      ],
      "stateMutability": "view",
      "type": "function"
    },
    {
      "inputs": [
        {
          "internalType": "address",
          "name": "account",
          "type": "address"
        },
        {
          "internalType": "address",
          "name": "operator",
          "type": "address"
        }
      ],
      "name": "isApprovedForAll",
      "outputs": [
        {
          "internalType": "bool",
          "name": "",
          "type": "bool"
        }
      ],
      "stateMutability": "view",
      "type": "function"
    },
    {
      "inputs": [
        {
          "internalType": "string",
          "name": "_title",
          "type": "string"
        },
        {
          "internalType": "string",
          "name": "_description",
          "type": "string"
        },
        {
          "internalType": "bytes",
          "name": "_imageData",
          "type": "bytes"
        },
        {
          "internalType": "string",
          "name": "_imageType",
          "type": "string"
        },
        {
          "internalType": "uint256",
          "name": "_price",
          "type": "uint256"
        },
        {
          "internalType": "uint256",
          "name": "_maxSupply",
          "type": "uint256"
        }
      ],
      "name": "mintArtwork",
      "outputs": [
        {
          "internalType": "uint256",
          "name": "",
          "type": "uint256"
        }
      ],
      "stateMutability": "nonpayable",
      "type": "function"
    },
    {
      "inputs": [],
      "name": "name",
      "outputs": [
        {
          "internalType": "string",
          "name": "",
          "type": "string"
        }
      ],
      "stateMutability": "view",
      "type": "function"
    },
    {
      "inputs": [],
      "name": "owner",
      "outputs": [
        {
          "internalType": "address",
          "name": "",
          "type": "address"
        }
      ],
      "stateMutability": "view",
      "type": "function"
    },
    {
      "inputs": [],
      "name": "pause",
      "outputs": [],
      "stateMutability": "nonpayable",
      "type": "function"
    },
    {
      "inputs": [],
      "name": "paused",
      "outputs": [
        {
          "internalType": "bool",
          "name": "",
          "type": "bool"
        }
      ],
      "stateMutability": "view",
      "type": "function"
    },
    {
      "inputs": [],
      "name": "platformFeePercentage",
      "outputs": [
        {
          "internalType": "uint256",
          "name": "",
          "type": "uint256"
        }
      ],
      "stateMutability": "view",
      "type": "function"
    },
    {
      "inputs": [
        {
          "internalType": "uint256",
          "name": "tokenId",
          "type": "uint256"
        },
        {
          "internalType": "uint256",
          "name": "amount",
          "type": "uint256"
        }
      ],
      "name": "purchaseArtwork",
      "outputs": [],
      "stateMutability": "payable",
      "type": "function"
    },
    {
      "inputs": [],
      "name": "renounceOwnership",
      "outputs": [],
      "stateMutability": "nonpayable",
      "type": "function"
    },
    {
      "inputs": [
        {
          "internalType": "address",
          "name": "from",
          "type": "address"
        },
        {
          "internalType": "address",
          "name": "to",
          "type": "address"
        },
        {
          "internalType": "uint256[]",
          "name": "ids",
          "type": "uint256[]"
        },
        {
          "internalType": "uint256[]",
          "name": "values",
          "type": "uint256[]"
        },
        {
          "internalType": "bytes",
          "name": "data",
          "type": "bytes"
        }
      ],
      "name": "safeBatchTransferFrom",
      "outputs": [],
      "stateMutability": "nonpayable",
      "type": "function"
    },
    {
      "inputs": [
        {
          "internalType": "address",
          "name": "from",
          "type": "address"
        },
        {
          "internalType": "address",
          "name": "to",
          "type": "address"
        },
        {
          "internalType": "uint256",
          "name": "id",
          "type": "uint256"
        },
        {
          "internalType": "uint256",
          "name": "value",
          "type": "uint256"
        },
        {
          "internalType": "bytes",
          "name": "data",
          "type": "bytes"
        }
      ],
      "name": "safeTransferFrom",
      "outputs": [],
      "stateMutability": "nonpayable",
      "type": "function"
    },
    {
      "inputs": [
        {
          "internalType": "address",
          "name": "operator",
          "type": "address"
        },
        {
          "internalType": "bool",
          "name": "approved",
          "type": "bool"
        }
      ],
      "name": "setApprovalForAll",
      "outputs": [],
      "stateMutability": "nonpayable",
      "type": "function"
    },
    {
      "inputs": [
        {
          "internalType": "uint256",
          "name": "_platformFeePercentage",
          "type": "uint256"
        }
      ],
      "name": "setPlatformFee",
      "outputs": [],
      "stateMutability": "nonpayable",
      "type": "function"
    },
    {
      "inputs": [
        {
          "internalType": "string",
          "name": "newURI",
          "type": "string"
        }
      ],
      "name": "setURI",
      "outputs": [],
      "stateMutability": "nonpayable",
      "type": "function"
    },
    {
      "inputs": [
        {
          "internalType": "bytes4",
          "name": "interfaceId",
          "type": "bytes4"
        }
      ],
      "name": "supportsInterface",
      "outputs": [
        {
          "internalType": "bool",
          "name": "",
          "type": "bool"
        }
      ],
      "stateMutability": "view",
      "type": "function"
    },
    {
      "inputs": [],
      "name": "symbol",
      "outputs": [
        {
          "internalType": "string",
          "name": "",
          "type": "string"
        }
      ],
      "stateMutability": "view",
      "type": "function"
    },
    {
      "inputs": [
        {
          "internalType": "uint256",
          "name": "tokenId",
          "type": "uint256"
        }
      ],
      "name": "toggleArtworkStatus",
      "outputs": [],
      "stateMutability": "nonpayable",
      "type": "function"
    },
    {
      "inputs": [
        {
          "internalType": "uint256",
          "name": "",
          "type": "uint256"
        }
      ],
      "name": "tokenToArtist",
      "outputs": [
        {
          "internalType": "address",
          "name": "",
          "type": "address"
        }
      ],
      "stateMutability": "view",
      "type": "function"
    },
    {
      "inputs": [],
      "name": "totalSupply",
      "outputs": [
        {
          "internalType": "uint256",
          "name": "",
          "type": "uint256"
        }
      ],
      "stateMutability": "view",
      "type": "function"
    },
    {
      "inputs": [
        {
          "internalType": "uint256",
          "name": "id",
          "type": "uint256"
        }
      ],
      "name": "totalSupply",
      "outputs": [
        {
          "internalType": "uint256",
          "name": "",
          "type": "uint256"
        }
      ],
      "stateMutability": "view",
      "type": "function"
    },
    {
      "inputs": [
        {
          "internalType": "address",
          "name": "newOwner",
          "type": "address"
        }
      ],
      "name": "transferOwnership",
      "outputs": [],
      "stateMutability": "nonpayable",
      "type": "function"
    },
    {
      "inputs": [],
      "name": "unpause",
      "outputs": [],
      "stateMutability": "nonpayable",
      "type": "function"
    },
    {
      "inputs": [
        {
          "internalType": "string",
          "name": "_name",
          "type": "string"
        },
        {
          "internalType": "string",
          "name": "_bio",
          "type": "string"
        },
        {
          "internalType": "string",
          "name": "_avatarURI",
          "type": "string"
        }
      ],
      "name": "updateArtistProfile",
      "outputs": [],
      "stateMutability": "nonpayable",
      "type": "function"
    },
    {
      "inputs": [
        {
          "internalType": "uint256",
          "name": "tokenId",
          "type": "uint256"
        },
        {
          "internalType": "uint256",
          "name": "newPrice",
          "type": "uint256"
        }
      ],
      "name": "updateArtworkPrice",
      "outputs": [],
      "stateMutability": "nonpayable",
      "type": "function"
    },
    {
      "inputs": [
        {
          "internalType": "uint256",
          "name": "tokenId",
          "type": "uint256"
        }
      ],
      "name": "uri",
      "outputs": [
        {
          "internalType": "string",
          "name": "",
          "type": "string"
        }
      ],
      "stateMutability": "view",
      "type": "function"
    },
    {
      "inputs": [],
      "name": "withdrawPlatformFees",
      "outputs": [],
      "stateMutability": "nonpayable",
      "type": "function"
    }
  ],
  "bytecode": "0x60803462000267576001600160401b0390601f6200432838819003918201601f1916830192919084841183851017620002515781602092849260409687528339810103126200026757516001600160a01b03929083811690819003620002675782519360208501858110848211176200025157845262000084600095868152620002c2565b81156200023957600580546001600160a01b031981168417909155167f8be0079c531659141344cd1fd0a4f28419497f9722a3daafe3b4186f6b6457e08580a36001600655620000d66008546200026c565b601f8111620001f8575b507f5065726d616c696e6b000000000000000000000000000000000000000000001260085560095462000113906200026c565b601f8111620001b7575b50600a64504c494e4b60d81b0160095560fa600a55600b8390558151906060820190811182821017620001a3578252602c81527f68747470733a2f2f6170692e7065726d616c696e6b2e6172742f6d657461646160208201526b3a3097bdb4b23e973539b7b760a11b828201526200019590620002c2565b51613f319081620003f78239f35b634e487b7160e01b84526041600452602484fd5b60098452620001f190601f0160051c7f6e1540171b6c0c960b71a7020d9f60077f6af931a8bbf590da0223dacf75c7af90810190620002a9565b386200011d565b600884526200023290601f0160051c7ff3f7a9fe364faab93b216da50a3214154f22a0a2b415b23a84c8169e8b636ee390810190620002a9565b38620000e0565b8351631e4fbdf760e01b815260048101869052602490fd5b634e487b7160e01b600052604160045260246000fd5b600080fd5b90600182811c921680156200029e575b60208310146200028857565b634e487b7160e01b600052602260045260246000fd5b91607f16916200027c565b818110620002b5575050565b60008155600101620002a9565b80519091906001600160401b0381116200025157620002e36002546200026c565b601f811162000397575b50602080601f83116001146200032d575081929360009262000321575b50508160011b916000199060031b1c191617600255565b0151905038806200030a565b90601f1983169460026000526020600020926000905b8782106200037e57505083600195961062000364575b505050811b01600255565b015160001960f88460031b161c1916905538808062000359565b8060018596829496860151815501950193019062000343565b6002600052620003e4907f405787fa12a823e0f2b7631cc41b3ba8828b3321ca811111fa75cd3aa3bb5ace601f840160051c81019160208510620003eb575b601f0160051c0190620002a9565b38620002ed565b9091508190620003d656fe6080604052600436101561001257600080fd5b60003560e01c8062fdd58e146102a157806301ffc9a71461029c57806302fe53051461029757806306fdde03146102925780630e89341c1461028d57806312e8e2c314610288578063167ddf6e14610283578063171212d51461027e57806318160ddd146102795780632eb2c2d61461027457806335c2aab91461026f5780633998a6811461025b5780633b5221e21461026a5780633f4ba83a146102655780634b602673146102605780634cf4bb061461025b5780634e1273f4146102565780634f558e79146102515780635001257e1461024c5780635024fd8c14610247578063552906ce14610242578063561892361461023d5780635b42a8fe146102385780635c975abb14610233578063715018a61461022e5780638456cb59146102295780638da5cb5b1461022457806392a05fe71461021f57806395d89b411461021a578063a22cb46514610215578063b23cd1a614610210578063b3b306401461020b578063bd85b03914610206578063c71959b414610201578063cc0ad6e7146101fc578063cdd78cfc146101f7578063d0b7830b146101f2578063e0f8b313146101ed578063e985e9c5146101e8578063f242432a146101e35763f2fde38b146101de57600080fd5b611ec8565b611dab565b611d4e565b611cd3565b611c50565b611c32565b611bb7565b611b17565b611aeb565b611a44565b61194b565b61188f565b6117e7565b61179d565b611774565b61171a565b6116bc565b611699565b611640565b611622565b611351565b6112f9565b61127b565b61124d565b611193565b610df9565b6110ba565b610f4a565b610e3b565b610dc5565b610c9d565b610c08565b610b94565b610a0a565b610903565b6108d0565b6107e7565b6104c7565b61034a565b6102eb565b600435906001600160a01b03821682036102bc57565b600080fd5b602435906001600160a01b03821682036102bc57565b35906001600160a01b03821682036102bc57565b346102bc5760403660031901126102bc57602061032f6103096102a6565b6024356000526000835260406000209060018060a01b0316600052602052604060002090565b54604051908152f35b6001600160e01b03198116036102bc57565b346102bc5760203660031901126102bc57602060043561036981610338565b63ffffffff60e01b16636cdb3d1360e11b81149081156103a7575b8115610396575b506040519015158152f35b6301ffc9a760e01b1490503861038b565b6303a24d0760e21b81149150610384565b634e487b7160e01b600052604160045260246000fd5b60c081019081106001600160401b038211176103e957604052565b6103b8565b604081019081106001600160401b038211176103e957604052565b606081019081106001600160401b038211176103e957604052565b90601f801991011681019081106001600160401b038211176103e957604052565b6040519061016082018281106001600160401b038211176103e957604052565b6001600160401b0381116103e957601f01601f191660200190565b81601f820112156102bc5780359061049782610465565b926104a56040519485610424565b828452602083830101116102bc57816000926020809301838601378301015290565b346102bc576020806003193601126102bc576001600160401b036004358181116102bc576104f9903690600401610480565b91610502612b8e565b82519182116103e95761051f8261051a6002546105e8565b6124cc565b602090601f83116001146105615750819061055193600092610556575b50508160011b916000199060031b1c19161790565b600255005b01519050388061053c565b90601f1983169361059460026000527f405787fa12a823e0f2b7631cc41b3ba8828b3321ca811111fa75cd3aa3bb5ace90565b926000905b8682106105d057505083600195106105b7575b505050811b01600255005b015160001960f88460031b161c191690553880806105ac565b80600185968294968601518155019501930190610599565b90600182811c92168015610618575b602083101461060257565b634e487b7160e01b600052602260045260246000fd5b91607f16916105f7565b6040519060008260025491610636836105e8565b808352926020906001908181169081156106c45750600114610663575b505061066192500383610424565b565b91509260026000527f405787fa12a823e0f2b7631cc41b3ba8828b3321ca811111fa75cd3aa3bb5ace936000925b8284106106ac57506106619450505081016020013880610653565b85548885018301529485019487945092810192610691565b9150506020925061066194915060ff191682840152151560051b8201013880610653565b906040519182600082546106fb816105e8565b90818452602094600191600181169081600014610769575060011461072a575b50505061066192500383610424565b600090815285812095935091905b818310610751575050610661935082010138808061071b565b85548884018501529485019487945091830191610738565b9250505061066194925060ff191682840152151560051b82010138808061071b565b60005b83811061079e5750506000910152565b818101518382015260200161078e565b906020916107c78151809281855285808601910161078b565b601f01601f1916010190565b9060206107e49281815201906107ae565b90565b346102bc576000806003193601126108cd5760405190806008549061080b826105e8565b808552916020916001918281169081156108a05750600114610848575b6108448661083881880382610424565b604051918291826107d3565b0390f35b9350600884527ff3f7a9fe364faab93b216da50a3214154f22a0a2b415b23a84c8169e8b636ee35b83851061088d575050505081016020016108388261084438610828565b8054868601840152938201938101610870565b90508695506108449693506020925061083894915060ff191682840152151560051b820101929338610828565b80fd5b346102bc5760203660031901126102bc576108446108ef600435611ff7565b6040519182916020835260208301906107ae565b346102bc5760203660031901126102bc5760043561091f612b8e565b6103e8811161096557600a8054908290556040805191825260208201929092527fd347e206f25a89b917fc9482f1a2d294d749baa4dc9bde7fb495ee11fe4916439190a1005b60405162461bcd60e51b815260206004820152600c60248201526b08ccaca40e8dede40d0d2ced60a31b6044820152606490fd5b96939061012098959b9a9996936109cd6109e9946109db936101409060018060a01b03168c528060208d01528b01906107ae565b9089820360408b01526107ae565b9087820360608901526107ae565b98608086015260a085015260c084015260e083015215156101008201520152565b346102bc5760203660031901126102bc57600435600b5481111580610b3c575b610a33906120dc565b600052600d6020526040600020610a48610445565b8154815260018201546001600160a01b0316602082019081529091906108449061014090610a78600285016106e8565b9360408601948552610a8c600382016106e8565b9560608101968752610aa060048301610fb4565b9260808201938452610ab4600584016106e8565b9360a0830194855260068401549060c08401918252610b2f610b1960078701549460e087019586526008880154966101008101978852600a610afa60098b015460ff1690565b151561012083019081529901549a018a9052516001600160a01b031690565b99519a5196519151519251935194519551151590565b956040519a8b9a8b610999565b50801515610a2a565b949192610b7460a095989794610b66610b829460c08a5260c08a01906107ae565b9088820360208a01526107ae565b9086820360408801526107ae565b95606085015260808401521515910152565b346102bc5760203660031901126102bc576001600160a01b03610bb56102a6565b16600052600c6020526040600020610bcc816106e8565b610844610bdb600184016106e8565b92610be8600282016106e8565b90600381015460ff60056004840154930154169260405196879687610b45565b346102bc5760003660031901126102bc576020600454604051908152f35b6001600160401b0381116103e95760051b60200190565b9080601f830112156102bc576020908235610c5781610c26565b93610c656040519586610424565b81855260208086019260051b8201019283116102bc57602001905b828210610c8e575050505090565b81358152908301908301610c80565b346102bc5760a03660031901126102bc57610cb66102a6565b610cbe6102c1565b90604435916001600160401b03908184116102bc57610ce260049436908601610c3d565b906064358381116102bc57610cfa9036908701610c3d565b926084359081116102bc57610d129036908701610480565b936001600160a01b03808216903382141580610da1575b610d7457831615610d5c5715610d4557610d43955061374d565b005b604051626a0d4560e21b8152600081880152602490fd5b604051632bfa23e760e11b8152600081890152602490fd5b6040805163711bec9160e11b815233818b019081526001600160a01b038616602082015290918291010390fd5b50600082815260016020908152604080832033845290915290205460ff1615610d29565b346102bc5760203660031901126102bc57600435600052600e602052602060018060a01b0360406000205416604051908152f35b346102bc5760003660031901126102bc5760206040516103e88152f35b9091610e2d6107e4936040845260408401906107ae565b9160208184039101526107ae565b346102bc5760203660031901126102bc57600435600b5481111580610f41575b610e64906120dc565b600052600d6020526040600020610e79610445565b815481526001820154610ea0906001600160a01b03165b6001600160a01b03166020830152565b610eac600283016106e8565b6040820152610ebd600383016106e8565b6060820152610ece60048301610fb4565b9060808101918252610140600a610ee7600586016106e8565b9460a08401958652600681015460c0850152600781015460e08501526008810154610100850152610f29610f1f600983015460ff1690565b1515610120860152565b01549101525190519061084460405192839283610e16565b50801515610e5b565b346102bc5760003660031901126102bc57610f63612b8e565b60075460ff811615610fa25760ff19166007557f5db9ee0a495bf2e6ff9c91a7834c1ba4fdd244a5e8aa4e537bd38aeae4b073aa6020604051338152a1005b604051638dfc202b60e01b8152600490fd5b90604051918260008254610fc7816105e8565b908184526020946001916001811690816000146107695750600114610ff55750505061066192500383610424565b600090815285812095935091905b81831061101c575050610661935082010138808061071b565b85548884018501529485019487945091830191611003565b97949061109d946110736101409b9895999e9d9c9961108f956110819460408e610160938493825260018060a01b0316602082015201528c01906107ae565b908a820360608c01526107ae565b9088820360808a01526107ae565b9086820360a08801526107ae565b9760c085015260e084015261010083015215156101208201520152565b346102bc5760203660031901126102bc576004356000908152600d60205260409020805460018201546001600160a01b031691610844906110fd600282016106e8565b9061110a600382016106e8565b61111660048301610fb4565b611122600584016106e8565b600684015490600785015492600886015494600a60ff600989015416970154976040519b8c9b8c611034565b90815180825260208080930193019160005b82811061116e575050505090565b835185529381019392810192600101611160565b9060206107e492818152019061114e565b346102bc5760403660031901126102bc576004356001600160401b038082116102bc57366023830112156102bc5781600401356111cf81610c26565b926111dd6040519485610424565b8184526020916024602086019160051b830101913683116102bc57602401905b82821061123657856024358681116102bc576108449161122461122a923690600401610c3d565b9061212f565b60405191829182611182565b838091611242846102d7565b8152019101906111fd565b346102bc5760203660031901126102bc57600435600052600360205260206040600020541515604051908152f35b346102bc5760403660031901126102bc57600435600090808252600e6020526112b160018060a01b0360408420541633146121ee565b8152600d602052602435600660408320015580f35b634e487b7160e01b600052603260045260246000fd5b80548210156112f45760005260206000200190600090565b6112c6565b346102bc5760403660031901126102bc576113126102a6565b6001600160a01b03166000908152601060205260409020805460243591908210156102bc57602091611343916112dc565b90546040519160031b1c8152f35b60403660031901126102bc5760243560043561136b613037565b611373613055565b600b5481111580611619575b611388906120dc565b61139c81600052600d602052604060002090565b916113b36113ae600985015460ff1690565b61222b565b6113be81151561226f565b60088301916113dd6113d1838554612338565b60078601541015612345565b60068401936113ed8386546123cb565b6113f9813410156123de565b61142e61141361140b600a54846123cb565b612710900490565b61142961142261140b85612386565b918461243f565b61243f565b9461144261143a61244c565b868633613078565b61144d858254612338565b9055336000908152600c6020526040902060049060058101611477611473825460ff1690565b1590565b6115fb575b5001611489858254612338565b905560009460005b336000908152601060205260409020548110156115f05733600090815260106020526040902085906114d2906114c89084906112dc565b90549060031b1c90565b146114df57600101611491565b5090919293945060015b156115d1575b80158015611587575b5050803411611554575b506001015492546040805193845260208401919091526001600160a01b039093169233927f465c604f8dcf4d2dba83e76f95c4cb5876f0976ec008a9326b6d4b209142bb459190a4610d436001600655565b6000808061156381943461243f565b81811561157e575b3390f1156115795738611502565b6124a9565b506108fc61156b565b600080809381936115b36115a76115a760018b015460018060a01b031690565b6001600160a01b031690565b9083906115c8575bf1156115795738806114f8565b506108fc6115bb565b3360009081526010602052604090206115eb90859061246f565b6114ef565b5090919293946114e9565b805460ff19166001179055600060038201556000828201553861147c565b5080151561137f565b346102bc5760003660031901126102bc576020600b54604051908152f35b346102bc5760203660031901126102bc57600435600090808252600e60205261167660018060a01b0360408420541633146121ee565b8152600d60205260408120600901805460ff818116151660ff1990911617905580f35b346102bc5760003660031901126102bc57602060ff600754166040519015158152f35b346102bc576000806003193601126108cd576116d6612b8e565b600580546001600160a01b0319811690915581906001600160a01b03167f8be0079c531659141344cd1fd0a4f28419497f9722a3daafe3b4186f6b6457e08280a380f35b346102bc5760003660031901126102bc57611733612b8e565b61173b613037565b600160ff1960075416176007557f62e78cea01bee320cd4e420270b5ea74000d11b0c9f74754ebdbfc544b05a2586020604051338152a1005b346102bc5760003660031901126102bc576005546040516001600160a01b039091168152602090f35b346102bc5760403660031901126102bc576117b66102a6565b6001600160a01b03166000908152600f60205260409020805460243591908210156102bc57602091611343916112dc565b346102bc576000806003193601126108cd5760405190806009549061180b826105e8565b808552916020916001918281169081156108a05750600114611837576108448661083881880382610424565b9350600984527f6e1540171b6c0c960b71a7020d9f60077f6af931a8bbf590da0223dacf75c7af5b83851061187c575050505081016020016108388261084438610828565b805486860184015293820193810161185f565b346102bc5760403660031901126102bc576118a86102a6565b60243590811515908183036102bc576001600160a01b038116928315611933576118f46119059233600052600160205260406000209060018060a01b0316600052602052604060002090565b9060ff801983541691151516179055565b6040519081527f17307eab39ab6107e8899845ad3d59bd9653f200f220920489ca2b5937696c3160203392a3005b60405162ced3e160e81b815260006004820152602490fd5b346102bc5760603660031901126102bc576001600160401b036004358181116102bc5761197c903690600401610480565b6024358281116102bc57611994903690600401610480565b916044359081116102bc576119ce7f39dfee1413bb413ba51702fe3cd693cd3b02628fbac61358818d502b7af50095913690600401610480565b600093338552600c602052611a10826002604088206005810160ff81541615611a27575b506119fd8882612567565b611a0a8560018301612567565b01612567565b611a21604051928392339684612630565b0390a280f35b805460ff19166001179055886003820155886004820155386119f2565b346102bc5760203660031901126102bc576001600160a01b03611a656102a6565b16600052600c6020526040600020604051611a7f816103ce565b611a88826106e8565b8152610844611a99600184016106e8565b9160208101928352611aad600285016106e8565b93846040830152600381015480606084015260ff60056004840154938460808701520154161515928360a08201525194519560405196879687610b45565b346102bc5760203660031901126102bc5760043560005260036020526020604060002054604051908152f35b346102bc5760c03660031901126102bc576001600160401b036004358181116102bc57611b48903690600401610480565b906024358181116102bc57611b61903690600401610480565b6044358281116102bc57611b79903690600401610480565b926064359283116102bc5761084493611b99611ba7943690600401610480565b9060a4359360843593612667565b6040519081529081906020820190565b346102bc576020806003193601126102bc576001600160a01b03611bd96102a6565b16600052600f6020526040600020906040519081602084549182815201936000526020600020916000905b828210611c1b576108448561122a81890382610424565b835486529485019460019384019390910190611c04565b346102bc5760003660031901126102bc576020600a54604051908152f35b346102bc576000806003193601126108cd57611c6a612b8e565b478015611c98576005548291829182918291611c8e906001600160a01b03166115a7565b82f1156115795780f35b60405162461bcd60e51b81526020600482015260136024820152724e6f206665657320746f20776974686472617760681b6044820152606490fd5b346102bc576020806003193601126102bc576001600160a01b03611cf56102a6565b1660005260106020526040600020906040519081602084549182815201936000526020600020916000905b828210611d37576108448561122a81890382610424565b835486529485019460019384019390910190611d20565b346102bc5760403660031901126102bc57602060ff611d9f611d6e6102a6565b611d766102c1565b6001600160a01b0391821660009081526001865260408082209290931681526020919091522090565b54166040519015158152f35b346102bc5760a03660031901126102bc57611dc46102a6565b611dcc6102c1565b6084356001600160401b0381116102bc57611deb903690600401610480565b906001600160a01b03838116903382141580611ea4575b611e7d57821615611e645715611e4c57610d4392611e446064356044359160405192600184526020840152604083019160018352606084015260808301604052565b92909161374d565b604051626a0d4560e21b815260006004820152602490fd5b604051632bfa23e760e11b815260006004820152602490fd5b60405163711bec9160e11b81523360048201526001600160a01b0386166024820152604490fd5b50600082815260016020908152604080832033845290915290205460ff1615611e02565b346102bc5760203660031901126102bc57611ee16102a6565b611ee9612b8e565b6001600160a01b03908116908115611f3d57600554826bffffffffffffffffffffffff60a01b821617600555167f8be0079c531659141344cd1fd0a4f28419497f9722a3daafe3b4186f6b6457e0600080a3005b604051631e4fbdf760e01b815260006004820152602490fd5b90600a611f61610445565b8354815260018401546001600160a01b0316602082015292611f85600282016106e8565b6040850152611f96600382016106e8565b6060850152611fa760048201610fb4565b6080850152611fb8600582016106e8565b60a0850152600681015460c0850152600781015460e08501526008810154610100850152611fed610f1f600983015460ff1690565b0154610140830152565b600b54811115806120d3575b612011575b506107e4610622565b80600052600d6020526040600020612027610445565b815481526001820154612042906001600160a01b0316610e90565b61204e600283016106e8565b604082015261205f600383016106e8565b6060820152610140600a61207560048501610fb4565b9360808401948552612089600582016106e8565b60a0850152600681015460c0850152600781015460e085015260088101546101008501526120be610f1f600983015460ff1690565b0154910152515115612008576107e490612bd1565b50801515612003565b156120e357565b60405162461bcd60e51b815260206004820152601060248201526f125b9d985b1a59081d1bdad95b88125160821b6044820152606490fd5b80518210156112f45760209160051b010190565b919091805183518082036121cc57505080519061216461214e83610c26565b9261215c6040519485610424565b808452610c26565b60209190601f1901368484013760005b81518110156121c457600581901b8281018401519087018401516000908152602081815260408083206001600160a01b0390941683529290522054600191906121bd828761211b565b5201612174565b509193505050565b604051635b05999160e01b815260048101919091526024810191909152604490fd5b156121f557565b60405162461bcd60e51b815260206004820152600e60248201526d139bdd081d1a1948185c9d1a5cdd60921b6044820152606490fd5b1561223257565b60405162461bcd60e51b8152602060048201526015602482015274417274776f726b206973206e6f742061637469766560581b6044820152606490fd5b1561227657565b60405162461bcd60e51b815260206004820152601d60248201527f416d6f756e74206d7573742062652067726561746572207468616e20300000006044820152606490fd5b634e487b7160e01b600052601160045260246000fd5b90600282018092116122df57565b6122bb565b90600382018092116122df57565b90600182018092116122df57565b60300190816030116122df57565b90600c82018092116122df57565b60020190816002116122df57565b60030190816003116122df57565b919082018092116122df57565b1561234c57565b60405162461bcd60e51b815260206004820152601260248201527145786365656473206d617820737570706c7960701b6044820152606490fd5b906103e8918281029281840414901517156122df57565b600281901b91906001600160fe1b038116036122df57565b908160011b91808304600214901517156122df57565b818102929181159184041417156122df57565b156123e557565b60405162461bcd60e51b8152602060048201526014602482015273125b9cdd59999a58da595b9d081c185e5b595b9d60621b6044820152606490fd5b6000198101919082116122df57565b6001198101919082116122df57565b919082039182116122df57565b60405190602082018281106001600160401b038211176103e95760405260008252565b8054680100000000000000008110156103e957612491916001820181556112dc565b819291549060031b91821b91600019901b1916179055565b6040513d6000823e3d90fd5b8181106124c0575050565b600081556001016124b5565b90601f82116124d9575050565b6106619160026000527f405787fa12a823e0f2b7631cc41b3ba8828b3321ca811111fa75cd3aa3bb5ace906020601f840160051c83019310612523575b601f0160051c01906124b5565b9091508190612516565b9190601f811161253c57505050565b610661926000526020600020906020601f840160051c8301931061252357601f0160051c01906124b5565b91909182516001600160401b0381116103e95761258e8161258884546105e8565b8461252d565b602080601f83116001146125c5575081906125c19394956000926105565750508160011b916000199060031b1c19161790565b9055565b90601f198316956125db85600052602060002090565b926000905b888210612618575050836001959697106125ff575b505050811b019055565b015160001960f88460031b161c191690553880806125f5565b806001859682949686015181550195019301906125e0565b916126599061264b6107e495936060865260608601906107ae565b9084820360208601526107ae565b9160408184039101526107ae565b9361280c7f4ddc8815460a355e3d190e794ec142559a99d61ae53cf57df333c9286e76c54893969296612698613037565b6126a0613055565b6126ab841515612831565b6126b787511515612887565b6126c3815115156128cb565b6126d261400082511115612917565b6126de86511515612963565b6126ef6126ea876131ee565b6129af565b6127026126fd600b546129f0565b600b55565b612775600b54988997612713610445565b898152336020820152918a6040840152606083015283608083015260a08201528460c08201528560e08201526000610100820152612755610120820160019052565b4261014082015261277088600052600d602052604060002090565b612aa4565b6127ac3361278d88600052600e602052604060002090565b80546001600160a01b0319166001600160a01b03909216919091179055565b336000908152600f602052604090206127c690879061246f565b336000908152600c60205260409020600390600581016127ea611473825460ff1690565b612819575b50016127fb81546129f0565b905551604051938493339885612b66565b0390a36107e46001600655565b805460ff1916600117905560006004820155386127ef565b1561283857565b60405162461bcd60e51b815260206004820152602160248201527f4d617820737570706c79206d7573742062652067726561746572207468616e206044820152600360fc1b6064820152608490fd5b1561288e57565b60405162461bcd60e51b81526020600482015260156024820152745469746c652063616e6e6f7420626520656d70747960581b6044820152606490fd5b156128d257565b60405162461bcd60e51b815260206004820152601a60248201527f496d61676520646174612063616e6e6f7420626520656d7074790000000000006044820152606490fd5b1561291e57565b60405162461bcd60e51b815260206004820152601a60248201527f496d61676520746f6f206c61726765202831364b42206d6178290000000000006044820152606490fd5b1561296a57565b60405162461bcd60e51b815260206004820152601a60248201527f496d61676520747970652063616e6e6f7420626520656d7074790000000000006044820152606490fd5b156129b657565b60405162461bcd60e51b8152602060048201526012602482015271496e76616c696420696d616765207479706560701b6044820152606490fd5b60001981146122df5760010190565b91909182516001600160401b0381116103e957612a208161258884546105e8565b602080601f8311600114612a53575081906125c19394956000926105565750508160011b916000199060031b1c19161790565b90601f19831695612a6985600052602060002090565b926000905b888210612a8c575050836001959697106125ff57505050811b019055565b80600185968294968601518155019501930190612a6e565b8151815560208201516001820180546001600160a01b0319166001600160a01b0390921691909117905590600a9061014090612ae7604082015160028601612567565b612af8606082015160038601612567565b612b096080820151600486016129ff565b612b1a60a082015160058601612567565b60c0810151600685015560e081015160078501556101008101516008850155612b5f612b4a610120830151151590565b600986019060ff801983541691151516179055565b0151910155565b9092612b7f6060939695946080845260808401906107ae565b95602083015260408201520152565b6005546001600160a01b03163303612ba257565b60405163118cdaa760e01b8152336004820152602490fd5b90612bcd6020928281519485920161078b565b0190565b612be581600052600d602052604060002090565b612bee90611f56565b60a0810191825160808301928351612c05906133ae565b6040516a646174613a696d6167652f60a81b602082015292839190602b8301612c2d91612bba565b670ed8985cd94d8d0b60c21b8152600801612c4791612bba565b0394601f19958681018452612c5c9084610424565b604082015193612c6b906135a5565b9460608301519360e0840151612c80906135a5565b610100850151612c8f906135a5565b9160c0860151612c9e906135a5565b935151612caa906135a5565b94516020909601516001600160a01b0316612cc490613671565b604051683d913730b6b2911d1160b91b6020820152998a9991989160298b01612cec91612bba565b61202360f01b8152600201612d0091612bba565b61088b60f21b81526002016e113232b9b1b934b83a34b7b7111d1160891b8152600f01612d2c91612bba565b61088b60f21b8152600201681134b6b0b3b2911d1160b91b8152600901612d5291612bba565b61088b60f21b81526002016d2261747472696275746573223a5b60901b8152600e017f7b2274726169745f74797065223a22546f6b656e205374616e64617264222c228152721d985b1d59488e88915490cb4c4c4d4d489f4b606a1b60208201526033017f7b2274726169745f74797065223a2253746f72616765222c2276616c7565223a81526b0893db8b58da185a5b889f4b60a21b6020820152602c017f7b2274726169745f74797065223a224d617820537570706c79222c2276616c7581526232911d60e91b6020820152602301612e2c91612bba565b611f4b60f21b81526002017f7b2274726169745f74797065223a2243757272656e7420537570706c79222c228152663b30b63ab2911d60c91b6020820152602701612e7691612bba565b611f4b60f21b81526002017f7b2274726169745f74797065223a225072696365202857656929222c2276616c8152633ab2911d60e11b6020820152602401612ebd91612bba565b611f4b60f21b81526002017f7b2274726169745f74797065223a2246696c652053697a65222c2276616c7565815261111d60f11b6020820152602201612f0291612bba565b611f4b60f21b81526002017f7b2274726169745f74797065223a2246696c652054797065222c2276616c7565815262111d1160e91b6020820152602301612f4891612bba565b62089f4b60ea1b81526003017f7b2274726169745f74797065223a2243726561746f72222c2276616c7565223a8152601160f91b6020820152602101612f8d91612bba565b61227d60f01b815260020161174b60f21b81526002017f2270726f70657274696573223a7b2263617465676f7279223a22696d616765228152617d7d60f01b6020820152602201038281018252612fe49082610424565b612fed906133ae565b6040517f646174613a6170706c69636174696f6e2f6a736f6e3b6261736536342c000000602082015291908290603d820161302791612bba565b0390810182526107e49082610424565b60ff6007541661304357565b60405163d93c066560e01b8152600490fd5b600260065414613066576002600655565b604051633ee5aeb560e01b8152600490fd5b93916001600160a01b03851615611e64576130b060405192600184526020840152604083019160018352606084015260808301604052565b90916130bd828487613c22565b600094855b8451871015613110576131086001918860051b906130f6602080848a010151938a0101516000526003602052604060002090565b613101838254612338565b9055612338565b9601956130c2565b61312a91959492965061312590600454612338565b600455565b80516001036131485790602080610661959301519101519133613b91565b6106619333613997565b6040519061315f826103ee565b6003825262706e6760e81b6020830152565b6040519061317e826103ee565b600382526233b4b360e91b6020830152565b6040519061319d826103ee565b60048252630776562760e41b6020830152565b604051906131bd826103ee565b600382526273766760e81b6020830152565b604051906131dc826103ee565b600382526207a69760ec1b6020830152565b6132146040516131fd816103ee565b60048152636a70656760e01b602082015282613880565b9081156132a7575b8115613294575b8115613281575b811561326e575b8115613255575b8115613242575090565b6107e4915061324f6131cf565b90613880565b90506132686132626131b0565b82613880565b90613238565b905061327b613262613190565b90613231565b905061328e613262613171565b9061322a565b90506132a1613262613152565b90613223565b90506132ce6040516132b8816103ee565b60038152626a706760e81b602082015282613880565b9061321c565b604051906132e182610409565b604082527f6768696a6b6c6d6e6f707172737475767778797a303132333435363738392b2f6040837f4142434445464748494a4b4c4d4e4f505152535455565758595a61626364656660208201520152565b6040519061334082610409565b602a82526040366020840137565b9061335882610465565b6133656040519182610424565b8281528092613376601f1991610465565b0190602036910137565b8051156112f45760200190565b8051600110156112f45760210190565b9081518110156112f4570160200190565b80511561359c576133bd6132d4565b906133da6133d56133ce83516122d1565b6003900490565b61239d565b916133e48361334e565b91600094855b825181101561353f578061351061341061342a61342461341e61341061352e978a61339d565b516001600160f81b03191690565b60f81c90565b60ff1690565b613433846122f2565b875111600090600014613539575061345c61342461341e613410613456886122f2565b8b61339d565b905b613467856122d1565b885111600090600014613533575061349061342461341e61341061348a896122d1565b8c61339d565b915b60081b9060101b1717603f906134b0613410838360121c168b61339d565b9b6134c86134bd826129f0565b9d60001a918c61339d565b536134db6134108383600c1c168b61339d565b9b6134e86134bd826129f0565b536134fb613410838360061c168b61339d565b9b6135086134bd826129f0565b53168761339d565b9761352861351d826129f0565b9960001a918861339d565b536122e4565b6133ea565b91613492565b9061345e565b50945060039150929192510660018114600014613583575061357f61357982603d61357361356d8296612421565b8761339d565b53612430565b8361339d565b5390565b60021461358e575090565b61357f613579603d92612421565b506107e461244c565b8015613627576000818181805b61360f57506135c08161334e565b935b6135cc5750505090565b6135d590612421565b90600a906135fa6135ea613424848406612300565b60f81b6001600160f81b03191690565b841a613606848761339d565b530490816135c2565b915061361c600a916129f0565b9104808492916135b2565b50604051613634816103ee565b60018152600360fc1b602082015290565b60405190613652826103ee565b601082526f181899199a1a9b1b9c1cb0b131b232b360811b6020830152565b6001600160a01b0316613682613645565b61368a613333565b91603061369684613380565b5360786136a28461338d565b5360009060005b601481106136b8575050505090565b6136c18161230e565b90602091828110156112f4576136e56134108592600f9384911a60041c168861339d565b6137036136f96136f4856123b5565b61231c565b91871a918961339d565b5361370d8261230e565b928310156112f45761341061372891856001951a168761339d565b61374661373c613737846123b5565b61232a565b91861a918861339d565b53016136a9565b9193929061375d82868386613d54565b6001600160a01b038381161561381c575b811615806137bb575b15613784575b5050505050565b84516001036137aa576020806137a09601519201519233613bc6565b388080808061377d565b6137b694919233613a92565b6137a0565b94936000939091845b8651861015613804576001908660051b906137f5602080848a010151938b0101516000526003602052604060002090565b828154039055019501946137c4565b6138179193969792955060045403600455565b613777565b959192600094916000955b87518710156138635761385b6001918860051b906130f6602080848c010151938d0101516000526003602052604060002090565b960195613827565b61387b91939650613125909892959498600454612338565b61376e565b90604051916020926138ae8482816138a1818301968781519384920161078b565b8101038084520182610424565b519020916138ce6040519182816138a1818301968781519384920161078b565b5190201490565b908160209103126102bc57516107e481610338565b926139196107e495936139279360018060a01b031686526000602087015260a0604087015260a086019061114e565b90848203606086015261114e565b9160808184039101526107ae565b93906107e49593613919916139279460018060a01b03809216885216602087015260a0604087015260a086019061114e565b3d15613992573d9061397882610465565b916139866040519384610424565b82523d6000602084013e565b606090565b9293919093843b6139a9575050505050565b6020916139cc604051948593849363bc197c8160e01b98898652600486016138ea565b038160006001600160a01b0388165af160009181613a61575b50613a2457826139f3613967565b8051919082613a1d57604051632bfa23e760e11b81526001600160a01b0383166004820152602490fd5b9050602001fd5b6001600160e01b03191603613a3e5750388080808061377d565b604051632bfa23e760e11b81526001600160a01b03919091166004820152602490fd5b613a8491925060203d602011613a8b575b613a7c8183610424565b8101906138d5565b90386139e5565b503d613a72565b939290949194853b613aa7575b505050505050565b613aca602093604051958694859463bc197c8160e01b998a875260048701613935565b038160006001600160a01b0388165af160009181613b0c575b50613af157826139f3613967565b6001600160e01b03191603613a3e5750388080808080613a9f565b613b2691925060203d602011613a8b57613a7c8183610424565b9038613ae3565b909260a0926107e49594600180861b03168352600060208401526040830152606082015281608082015201906107ae565b91926107e495949160a094600180871b0380921685521660208401526040830152606082015281608082015201906107ae565b9293919093843b613ba3575050505050565b6020916139cc604051948593849363f23a6e6160e01b9889865260048601613b2d565b939290949194853b613bda57505050505050565b613aca602093604051958694859463f23a6e6160e01b998a875260048701613b5e565b9091613c146107e49360408452604084019061114e565b91602081840391015261114e565b91909182518251908181036121cc57505060005b8351811015613cb457600581901b84810160209081015191850101516001929184906001600160a01b038216613c70575b50505001613c36565b613caa91613c8b613ca2926000526000602052604060002090565b9060018060a01b0316600052602052604060002090565b918254612338565b9055388381613c67565b50916001815114600014613d15576020908101519181015160408051938452918301526001600160a01b039092169160009133917fc3d58168c5ae7397731d063d5bbf3d657854427343f4c083240f7aacaa2d0f629190819081015b0390a4565b7f4a39dc06d4c0dbc64b70af90fd698a233a518aa5d07e595d983b8c0526c8f7fb613d106000939460405191829160018060a01b031696339583613bfd565b93929180518351908181036121cc57505060005b8151811015613e5657600581901b82810160209081015191860101516001600160a01b0392918590898516613dd0575b6001948216613dab575b50505001613d68565b613dc691613c8b613ca2926000526000602052604060002090565b9055388481613da2565b9192939050613ded89613c8b846000526000602052604060002090565b54838110613e1f5791869184600196959403613e178c613c8b856000526000602052604060002090565b559450613d98565b6040516303dee4c560e01b81526001600160a01b038b16600482015260248101919091526044810184905260648101839052608490fd5b508051939493919291600103613eb8576020908101519181015160408051938452918301526001600160a01b03928316939092169133917fc3d58168c5ae7397731d063d5bbf3d657854427343f4c083240f7aacaa2d0f629181908101613d10565b6040516001600160a01b03938416949093169233927f4a39dc06d4c0dbc64b70af90fd698a233a518aa5d07e595d983b8c0526c8f7fb928291613d109183613bfd56fea2646970667358221220da0a54eef1d5f3d31a3600fdd1f77155b18921bd804168d4d66c2d9d5e42b0a964736f6c63430008180033",
  "linkReferences": {},
  "deployedLinkReferences": {}
}