{
  "_format": "hh-sol-artifact-1",
  "contractName": "Permalink",
  "sourceName": "contracts/Permalink.sol",
  "abi": [
    {
      "inputs": [
        {
          "internalType": "address",
          "name": "initialOwner",
          "type": "address"
        }
      ],
      "stateMutability": "nonpayable",
      "type": "constructor"
    },
    {
      "inputs": [
        {
          "internalType": "address",
          "name": "sender",
          "type": "address"
        },
        {
          "internalType": "uint256",
          "name": "balance",
          "type": "uint256"
        },
        {
          "internalType": "uint256",
          "name": "needed",
          "type": "uint256"
        },
        {
          "internalType": "uint256",
          "name": "tokenId",
          "type": "uint256"
        }
      ],
      "name": "ERC1155InsufficientBalance",
      "type": "error"
    },
    {
      "inputs": [
        {
          "internalType": "address",
          "name": "approver",
          "type": "address"
        }
      ],
      "name": "ERC1155InvalidApprover",
      "type": "error"
    },
    {
      "inputs": [
        {
          "internalType": "uint256",
          "name": "idsLength",
          "type": "uint256"
        },
        {
          "internalType": "uint256",
          "name": "valuesLength",
          "type": "uint256"
        }
      ],
      "name": "ERC1155InvalidArrayLength",
      "type": "error"
    },
    {
      "inputs": [
        {
          "internalType": "address",
          "name": "operator",
          "type": "address"
        }
      ],
      "name": "ERC1155InvalidOperator",
      "type": "error"
    },
    {
      "inputs": [
        {
          "internalType": "address",
          "name": "receiver",
          "type": "address"
        }
      ],
      "name": "ERC1155InvalidReceiver",
      "type": "error"
    },
    {
      "inputs": [
        {
          "internalType": "address",
          "name": "sender",
          "type": "address"
        }
      ],
      "name": "ERC1155InvalidSender",
      "type": "error"
    },
    {
      "inputs": [
        {
          "internalType": "address",
          "name": "operator",
          "type": "address"
        },
        {
          "internalType": "address",
          "name": "owner",
          "type": "address"
        }
      ],
      "name": "ERC1155MissingApprovalForAll",
      "type": "error"
    },
    {
      "inputs": [],
      "name": "EnforcedPause",
      "type": "error"
    },
    {
      "inputs": [],
      "name": "ExpectedPause",
      "type": "error"
    },
    {
      "inputs": [
        {
          "internalType": "address",
          "name": "owner",
          "type": "address"
        }
      ],
      "name": "OwnableInvalidOwner",
      "type": "error"
    },
    {
      "inputs": [
        {
          "internalType": "address",
          "name": "account",
          "type": "address"
        }
      ],
      "name": "OwnableUnauthorizedAccount",
      "type": "error"
    },
    {
      "inputs": [],
      "name": "ReentrancyGuardReentrantCall",
      "type": "error"
    },
    {
      "anonymous": false,
      "inputs": [
        {
          "indexed": true,
          "internalType": "address",
          "name": "addr",
          "type": "address"
        }
      ],
      "name": "AddressRegisteredInterest",
      "type": "event"
    },
    {
      "anonymous": false,
      "inputs": [
        {
          "indexed": true,
          "internalType": "address",
          "name": "addr",
          "type": "address"
        }
      ],
      "name": "AddressRemovedFromWhitelist",
      "type": "event"
    },
    {
      "anonymous": false,
      "inputs": [
        {
          "indexed": true,
          "internalType": "address",
          "name": "addr",
          "type": "address"
        }
      ],
      "name": "AddressWhitelisted",
      "type": "event"
    },
    {
      "anonymous": false,
      "inputs": [
        {
          "indexed": true,
          "internalType": "address",
          "name": "admin",
          "type": "address"
        },
        {
          "indexed": true,
          "internalType": "address",
          "name": "addedBy",
          "type": "address"
        }
      ],
      "name": "AdminAdded",
      "type": "event"
    },
    {
      "anonymous": false,
      "inputs": [
        {
          "indexed": true,
          "internalType": "address",
          "name": "admin",
          "type": "address"
        },
        {
          "indexed": true,
          "internalType": "address",
          "name": "removedBy",
          "type": "address"
        }
      ],
      "name": "AdminRemoved",
      "type": "event"
    },
    {
      "anonymous": false,
      "inputs": [
        {
          "indexed": true,
          "internalType": "address",
          "name": "account",
          "type": "address"
        },
        {
          "indexed": true,
          "internalType": "address",
          "name": "operator",
          "type": "address"
        },
        {
          "indexed": false,
          "internalType": "bool",
          "name": "approved",
          "type": "bool"
        }
      ],
      "name": "ApprovalForAll",
      "type": "event"
    },
    {
      "anonymous": false,
      "inputs": [
        {
          "indexed": true,
          "internalType": "address",
          "name": "artist",
          "type": "address"
        },
        {
          "indexed": false,
          "internalType": "string",
          "name": "name",
          "type": "string"
        },
        {
          "indexed": false,
          "internalType": "string",
          "name": "bio",
          "type": "string"
        },
        {
          "indexed": false,
          "internalType": "string",
          "name": "avatarURI",
          "type": "string"
        }
      ],
      "name": "ArtistProfileUpdated",
      "type": "event"
    },
    {
      "anonymous": false,
      "inputs": [
        {
          "indexed": true,
          "internalType": "uint256",
          "name": "tokenId",
          "type": "uint256"
        },
        {
          "indexed": true,
          "internalType": "address",
          "name": "artist",
          "type": "address"
        },
        {
          "indexed": false,
          "internalType": "string",
          "name": "title",
          "type": "string"
        },
        {
          "indexed": false,
          "internalType": "uint256",
          "name": "price",
          "type": "uint256"
        },
        {
          "indexed": false,
          "internalType": "uint256",
          "name": "maxSupply",
          "type": "uint256"
        },
        {
          "indexed": false,
          "internalType": "uint256",
          "name": "imageSize",
          "type": "uint256"
        }
      ],
      "name": "ArtworkMinted",
      "type": "event"
    },
    {
      "anonymous": false,
      "inputs": [
        {
          "indexed": true,
          "internalType": "uint256",
          "name": "tokenId",
          "type": "uint256"
        },
        {
          "indexed": true,
          "internalType": "address",
          "name": "buyer",
          "type": "address"
        },
        {
          "indexed": true,
          "internalType": "address",
          "name": "artist",
          "type": "address"
        },
        {
          "indexed": false,
          "internalType": "uint256",
          "name": "amount",
          "type": "uint256"
        },
        {
          "indexed": false,
          "internalType": "uint256",
          "name": "price",
          "type": "uint256"
        }
      ],
      "name": "ArtworkPurchased",
      "type": "event"
    },
    {
      "anonymous": false,
      "inputs": [
        {
          "indexed": true,
          "internalType": "address",
          "name": "previousOwner",
          "type": "address"
        },
        {
          "indexed": true,
          "internalType": "address",
          "name": "newOwner",
          "type": "address"
        }
      ],
      "name": "OwnershipTransferred",
      "type": "event"
    },
    {
      "anonymous": false,
      "inputs": [
        {
          "indexed": false,
          "internalType": "address",
          "name": "account",
          "type": "address"
        }
      ],
      "name": "Paused",
      "type": "event"
    },
    {
      "anonymous": false,
      "inputs": [
        {
          "indexed": false,
          "internalType": "uint256",
          "name": "oldFee",
          "type": "uint256"
        },
        {
          "indexed": false,
          "internalType": "uint256",
          "name": "newFee",
          "type": "uint256"
        }
      ],
      "name": "PlatformFeeUpdated",
      "type": "event"
    },
    {
      "anonymous": false,
      "inputs": [
        {
          "indexed": true,
          "internalType": "address",
          "name": "operator",
          "type": "address"
        },
        {
          "indexed": true,
          "internalType": "address",
          "name": "from",
          "type": "address"
        },
        {
          "indexed": true,
          "internalType": "address",
          "name": "to",
          "type": "address"
        },
        {
          "indexed": false,
          "internalType": "uint256[]",
          "name": "ids",
          "type": "uint256[]"
        },
        {
          "indexed": false,
          "internalType": "uint256[]",
          "name": "values",
          "type": "uint256[]"
        }
      ],
      "name": "TransferBatch",
      "type": "event"
    },
    {
      "anonymous": false,
      "inputs": [
        {
          "indexed": true,
          "internalType": "address",
          "name": "operator",
          "type": "address"
        },
        {
          "indexed": true,
          "internalType": "address",
          "name": "from",
          "type": "address"
        },
        {
          "indexed": true,
          "internalType": "address",
          "name": "to",
          "type": "address"
        },
        {
          "indexed": false,
          "internalType": "uint256",
          "name": "id",
          "type": "uint256"
        },
        {
          "indexed": false,
          "internalType": "uint256",
          "name": "value",
          "type": "uint256"
        }
      ],
      "name": "TransferSingle",
      "type": "event"
    },
    {
      "anonymous": false,
      "inputs": [
        {
          "indexed": false,
          "internalType": "string",
          "name": "value",
          "type": "string"
        },
        {
          "indexed": true,
          "internalType": "uint256",
          "name": "id",
          "type": "uint256"
        }
      ],
      "name": "URI",
      "type": "event"
    },
    {
      "anonymous": false,
      "inputs": [
        {
          "indexed": false,
          "internalType": "address",
          "name": "account",
          "type": "address"
        }
      ],
      "name": "Unpaused",
      "type": "event"
    },
    {
      "anonymous": false,
      "inputs": [
        {
          "indexed": false,
          "internalType": "bool",
          "name": "enabled",
          "type": "bool"
        },
        {
          "indexed": true,
          "internalType": "address",
          "name": "toggledBy",
          "type": "address"
        }
      ],
      "name": "WhitelistToggled",
      "type": "event"
    },
    {
      "inputs": [],
      "name": "ARTIST_ROYALTY_PERCENTAGE",
      "outputs": [
        {
          "internalType": "uint256",
          "name": "",
          "type": "uint256"
        }
      ],
      "stateMutability": "view",
      "type": "function"
    },
    {
      "inputs": [],
      "name": "MAX_PLATFORM_FEE",
      "outputs": [
        {
          "internalType": "uint256",
          "name": "",
          "type": "uint256"
        }
      ],
      "stateMutability": "view",
      "type": "function"
    },
    {
      "inputs": [
        {
          "internalType": "address",
          "name": "addr",
          "type": "address"
        }
      ],
      "name": "addAdmin",
      "outputs": [],
      "stateMutability": "nonpayable",
      "type": "function"
    },
    {
      "inputs": [
        {
          "internalType": "uint256",
          "name": "",
          "type": "uint256"
        }
      ],
      "name": "adminAddressList",
      "outputs": [
        {
          "internalType": "address",
          "name": "",
          "type": "address"
        }
      ],
      "stateMutability": "view",
      "type": "function"
    },
    {
      "inputs": [
        {
          "internalType": "address",
          "name": "",
          "type": "address"
        }
      ],
      "name": "adminAddresses",
      "outputs": [
        {
          "internalType": "bool",
          "name": "",
          "type": "bool"
        }
      ],
      "stateMutability": "view",
      "type": "function"
    },
    {
      "inputs": [
        {
          "internalType": "address[]",
          "name": "addresses",
          "type": "address[]"
        }
      ],
      "name": "approveAddresses",
      "outputs": [],
      "stateMutability": "nonpayable",
      "type": "function"
    },
    {
      "inputs": [
        {
          "internalType": "address",
          "name": "",
          "type": "address"
        }
      ],
      "name": "artistProfiles",
      "outputs": [
        {
          "internalType": "string",
          "name": "name",
          "type": "string"
        },
        {
          "internalType": "string",
          "name": "bio",
          "type": "string"
        },
        {
          "internalType": "string",
          "name": "avatarURI",
          "type": "string"
        },
        {
          "internalType": "uint256",
          "name": "totalCreated",
          "type": "uint256"
        },
        {
          "internalType": "uint256",
          "name": "totalCollected",
          "type": "uint256"
        },
        {
          "internalType": "bool",
          "name": "isRegistered",
          "type": "bool"
        }
      ],
      "stateMutability": "view",
      "type": "function"
    },
    {
      "inputs": [
        {
          "internalType": "address",
          "name": "",
          "type": "address"
        },
        {
          "internalType": "uint256",
          "name": "",
          "type": "uint256"
        }
      ],
      "name": "artistTokens",
      "outputs": [
        {
          "internalType": "uint256",
          "name": "",
          "type": "uint256"
        }
      ],
      "stateMutability": "view",
      "type": "function"
    },
    {
      "inputs": [
        {
          "internalType": "uint256",
          "name": "",
          "type": "uint256"
        }
      ],
      "name": "artworks",
      "outputs": [
        {
          "internalType": "uint256",
          "name": "tokenId",
          "type": "uint256"
        },
        {
          "internalType": "address",
          "name": "artist",
          "type": "address"
        },
        {
          "internalType": "string",
          "name": "title",
          "type": "string"
        },
        {
          "internalType": "string",
          "name": "description",
          "type": "string"
        },
        {
          "internalType": "bytes",
          "name": "imageData",
          "type": "bytes"
        },
        {
          "internalType": "string",
          "name": "imageType",
          "type": "string"
        },
        {
          "internalType": "uint256",
          "name": "price",
          "type": "uint256"
        },
        {
          "internalType": "uint256",
          "name": "maxSupply",
          "type": "uint256"
        },
        {
          "internalType": "uint256",
          "name": "currentSupply",
          "type": "uint256"
        },
        {
          "internalType": "bool",
          "name": "isActive",
          "type": "bool"
        },
        {
          "internalType": "uint256",
          "name": "createdAt",
          "type": "uint256"
        }
      ],
      "stateMutability": "view",
      "type": "function"
    },
    {
      "inputs": [
        {
          "internalType": "address",
          "name": "account",
          "type": "address"
        },
        {
          "internalType": "uint256",
          "name": "id",
          "type": "uint256"
        }
      ],
      "name": "balanceOf",
      "outputs": [
        {
          "internalType": "uint256",
          "name": "",
          "type": "uint256"
        }
      ],
      "stateMutability": "view",
      "type": "function"
    },
    {
      "inputs": [
        {
          "internalType": "address[]",
          "name": "accounts",
          "type": "address[]"
        },
        {
          "internalType": "uint256[]",
          "name": "ids",
          "type": "uint256[]"
        }
      ],
      "name": "balanceOfBatch",
      "outputs": [
        {
          "internalType": "uint256[]",
          "name": "",
          "type": "uint256[]"
        }
      ],
      "stateMutability": "view",
      "type": "function"
    },
    {
      "inputs": [
        {
          "internalType": "address",
          "name": "",
          "type": "address"
        },
        {
          "internalType": "uint256",
          "name": "",
          "type": "uint256"
        }
      ],
      "name": "collectorTokens",
      "outputs": [
        {
          "internalType": "uint256",
          "name": "",
          "type": "uint256"
        }
      ],
      "stateMutability": "view",
      "type": "function"
    },
    {
      "inputs": [
        {
          "internalType": "uint256",
          "name": "id",
          "type": "uint256"
        }
      ],
      "name": "exists",
      "outputs": [
        {
          "internalType": "bool",
          "name": "",
          "type": "bool"
        }
      ],
      "stateMutability": "view",
      "type": "function"
    },
    {
      "inputs": [],
      "name": "getAdminAddresses",
      "outputs": [
        {
          "internalType": "address[]",
          "name": "",
          "type": "address[]"
        }
      ],
      "stateMutability": "view",
      "type": "function"
    },
    {
      "inputs": [
        {
          "internalType": "address",
          "name": "artist",
          "type": "address"
        }
      ],
      "name": "getArtistProfile",
      "outputs": [
        {
          "internalType": "string",
          "name": "artistName",
          "type": "string"
        },
        {
          "internalType": "string",
          "name": "bio",
          "type": "string"
        },
        {
          "internalType": "string",
          "name": "avatarURI",
          "type": "string"
        },
        {
          "internalType": "uint256",
          "name": "totalCreated",
          "type": "uint256"
        },
        {
          "internalType": "uint256",
          "name": "totalCollected",
          "type": "uint256"
        },
        {
          "internalType": "bool",
          "name": "isRegistered",
          "type": "bool"
        }
      ],
      "stateMutability": "view",
      "type": "function"
    },
    {
      "inputs": [
        {
          "internalType": "address",
          "name": "artist",
          "type": "address"
        }
      ],
      "name": "getArtistTokens",
      "outputs": [
        {
          "internalType": "uint256[]",
          "name": "",
          "type": "uint256[]"
        }
      ],
      "stateMutability": "view",
      "type": "function"
    },
    {
      "inputs": [
        {
          "internalType": "uint256",
          "name": "tokenId",
          "type": "uint256"
        }
      ],
      "name": "getArtwork",
      "outputs": [
        {
          "internalType": "address",
          "name": "artist",
          "type": "address"
        },
        {
          "internalType": "string",
          "name": "title",
          "type": "string"
        },
        {
          "internalType": "string",
          "name": "description",
          "type": "string"
        },
        {
          "internalType": "string",
          "name": "imageType",
          "type": "string"
        },
        {
          "internalType": "uint256",
          "name": "imageSize",
          "type": "uint256"
        },
        {
          "internalType": "uint256",
          "name": "price",
          "type": "uint256"
        },
        {
          "internalType": "uint256",
          "name": "maxSupply",
          "type": "uint256"
        },
        {
          "internalType": "uint256",
          "name": "currentSupply",
          "type": "uint256"
        },
        {
          "internalType": "bool",
          "name": "isActive",
          "type": "bool"
        },
        {
          "internalType": "uint256",
          "name": "createdAt",
          "type": "uint256"
        }
      ],
      "stateMutability": "view",
      "type": "function"
    },
    {
      "inputs": [
        {
          "internalType": "uint256",
          "name": "tokenId",
          "type": "uint256"
        }
      ],
      "name": "getArtworkImageData",
      "outputs": [
        {
          "internalType": "bytes",
          "name": "imageData",
          "type": "bytes"
        },
        {
          "internalType": "string",
          "name": "imageType",
          "type": "string"
        }
      ],
      "stateMutability": "view",
      "type": "function"
    },
    {
      "inputs": [
        {
          "internalType": "address",
          "name": "collector",
          "type": "address"
        }
      ],
      "name": "getCollectorTokens",
      "outputs": [
        {
          "internalType": "uint256[]",
          "name": "",
          "type": "uint256[]"
        }
      ],
      "stateMutability": "view",
      "type": "function"
    },
    {
      "inputs": [],
      "name": "getCurrentTokenId",
      "outputs": [
        {
          "internalType": "uint256",
          "name": "",
          "type": "uint256"
        }
      ],
      "stateMutability": "view",
      "type": "function"
    },
    {
      "inputs": [],
      "name": "getInterestedAddresses",
      "outputs": [
        {
          "internalType": "address[]",
          "name": "",
          "type": "address[]"
        }
      ],
      "stateMutability": "view",
      "type": "function"
    },
    {
      "inputs": [],
      "name": "getWhitelistedAddresses",
      "outputs": [
        {
          "internalType": "address[]",
          "name": "",
          "type": "address[]"
        }
      ],
      "stateMutability": "view",
      "type": "function"
    },
    {
      "inputs": [
        {
          "internalType": "uint256",
          "name": "",
          "type": "uint256"
        }
      ],
      "name": "interestedAddressList",
      "outputs": [
        {
          "internalType": "address",
          "name": "",
          "type": "address"
        }
      ],
      "stateMutability": "view",
      "type": "function"
    },
    {
      "inputs": [
        {
          "internalType": "address",
          "name": "",
          "type": "address"
        }
      ],
      "name": "interestedAddresses",
      "outputs": [
        {
          "internalType": "bool",
          "name": "",
          "type": "bool"
        }
      ],
      "stateMutability": "view",
      "type": "function"
    },
    {
      "inputs": [
        {
          "internalType": "address",
          "name": "addr",
          "type": "address"
        }
      ],
      "name": "isAdmin",
      "outputs": [
        {
          "internalType": "bool",
          "name": "",
          "type": "bool"
        }
      ],
      "stateMutability": "view",
      "type": "function"
    },
    {
      "inputs": [
        {
          "internalType": "address",
          "name": "account",
          "type": "address"
        },
        {
          "internalType": "address",
          "name": "operator",
          "type": "address"
        }
      ],
      "name": "isApprovedForAll",
      "outputs": [
        {
          "internalType": "bool",
          "name": "",
          "type": "bool"
        }
      ],
      "stateMutability": "view",
      "type": "function"
    },
    {
      "inputs": [
        {
          "internalType": "address",
          "name": "addr",
          "type": "address"
        }
      ],
      "name": "isInterested",
      "outputs": [
        {
          "internalType": "bool",
          "name": "",
          "type": "bool"
        }
      ],
      "stateMutability": "view",
      "type": "function"
    },
    {
      "inputs": [],
      "name": "isWhitelistEnabled",
      "outputs": [
        {
          "internalType": "bool",
          "name": "",
          "type": "bool"
        }
      ],
      "stateMutability": "view",
      "type": "function"
    },
    {
      "inputs": [
        {
          "internalType": "address",
          "name": "addr",
          "type": "address"
        }
      ],
      "name": "isWhitelisted",
      "outputs": [
        {
          "internalType": "bool",
          "name": "",
          "type": "bool"
        }
      ],
      "stateMutability": "view",
      "type": "function"
    },
    {
      "inputs": [
        {
          "internalType": "string",
          "name": "_title",
          "type": "string"
        },
        {
          "internalType": "string",
          "name": "_description",
          "type": "string"
        },
        {
          "internalType": "bytes",
          "name": "_imageData",
          "type": "bytes"
        },
        {
          "internalType": "string",
          "name": "_imageType",
          "type": "string"
        },
        {
          "internalType": "uint256",
          "name": "_price",
          "type": "uint256"
        },
        {
          "internalType": "uint256",
          "name": "_maxSupply",
          "type": "uint256"
        }
      ],
      "name": "mintArtwork",
      "outputs": [
        {
          "internalType": "uint256",
          "name": "",
          "type": "uint256"
        }
      ],
      "stateMutability": "nonpayable",
      "type": "function"
    },
    {
      "inputs": [],
      "name": "name",
      "outputs": [
        {
          "internalType": "string",
          "name": "",
          "type": "string"
        }
      ],
      "stateMutability": "view",
      "type": "function"
    },
    {
      "inputs": [],
      "name": "owner",
      "outputs": [
        {
          "internalType": "address",
          "name": "",
          "type": "address"
        }
      ],
      "stateMutability": "view",
      "type": "function"
    },
    {
      "inputs": [],
      "name": "pause",
      "outputs": [],
      "stateMutability": "nonpayable",
      "type": "function"
    },
    {
      "inputs": [],
      "name": "paused",
      "outputs": [
        {
          "internalType": "bool",
          "name": "",
          "type": "bool"
        }
      ],
      "stateMutability": "view",
      "type": "function"
    },
    {
      "inputs": [],
      "name": "platformFeePercentage",
      "outputs": [
        {
          "internalType": "uint256",
          "name": "",
          "type": "uint256"
        }
      ],
      "stateMutability": "view",
      "type": "function"
    },
    {
      "inputs": [
        {
          "internalType": "uint256",
          "name": "tokenId",
          "type": "uint256"
        },
        {
          "internalType": "uint256",
          "name": "amount",
          "type": "uint256"
        }
      ],
      "name": "purchaseArtwork",
      "outputs": [],
      "stateMutability": "payable",
      "type": "function"
    },
    {
      "inputs": [],
      "name": "registerInterest",
      "outputs": [],
      "stateMutability": "nonpayable",
      "type": "function"
    },
    {
      "inputs": [
        {
          "internalType": "address",
          "name": "addr",
          "type": "address"
        }
      ],
      "name": "removeAdmin",
      "outputs": [],
      "stateMutability": "nonpayable",
      "type": "function"
    },
    {
      "inputs": [
        {
          "internalType": "address",
          "name": "addr",
          "type": "address"
        }
      ],
      "name": "removeFromWhitelist",
      "outputs": [],
      "stateMutability": "nonpayable",
      "type": "function"
    },
    {
      "inputs": [],
      "name": "renounceOwnership",
      "outputs": [],
      "stateMutability": "nonpayable",
      "type": "function"
    },
    {
      "inputs": [
        {
          "internalType": "address",
          "name": "from",
          "type": "address"
        },
        {
          "internalType": "address",
          "name": "to",
          "type": "address"
        },
        {
          "internalType": "uint256[]",
          "name": "ids",
          "type": "uint256[]"
        },
        {
          "internalType": "uint256[]",
          "name": "values",
          "type": "uint256[]"
        },
        {
          "internalType": "bytes",
          "name": "data",
          "type": "bytes"
        }
      ],
      "name": "safeBatchTransferFrom",
      "outputs": [],
      "stateMutability": "nonpayable",
      "type": "function"
    },
    {
      "inputs": [
        {
          "internalType": "address",
          "name": "from",
          "type": "address"
        },
        {
          "internalType": "address",
          "name": "to",
          "type": "address"
        },
        {
          "internalType": "uint256",
          "name": "id",
          "type": "uint256"
        },
        {
          "internalType": "uint256",
          "name": "value",
          "type": "uint256"
        },
        {
          "internalType": "bytes",
          "name": "data",
          "type": "bytes"
        }
      ],
      "name": "safeTransferFrom",
      "outputs": [],
      "stateMutability": "nonpayable",
      "type": "function"
    },
    {
      "inputs": [
        {
          "internalType": "address",
          "name": "operator",
          "type": "address"
        },
        {
          "internalType": "bool",
          "name": "approved",
          "type": "bool"
        }
      ],
      "name": "setApprovalForAll",
      "outputs": [],
      "stateMutability": "nonpayable",
      "type": "function"
    },
    {
      "inputs": [
        {
          "internalType": "uint256",
          "name": "_platformFeePercentage",
          "type": "uint256"
        }
      ],
      "name": "setPlatformFee",
      "outputs": [],
      "stateMutability": "nonpayable",
      "type": "function"
    },
    {
      "inputs": [
        {
          "internalType": "string",
          "name": "newURI",
          "type": "string"
        }
      ],
      "name": "setURI",
      "outputs": [],
      "stateMutability": "nonpayable",
      "type": "function"
    },
    {
      "inputs": [
        {
          "internalType": "bytes4",
          "name": "interfaceId",
          "type": "bytes4"
        }
      ],
      "name": "supportsInterface",
      "outputs": [
        {
          "internalType": "bool",
          "name": "",
          "type": "bool"
        }
      ],
      "stateMutability": "view",
      "type": "function"
    },
    {
      "inputs": [],
      "name": "symbol",
      "outputs": [
        {
          "internalType": "string",
          "name": "",
          "type": "string"
        }
      ],
      "stateMutability": "view",
      "type": "function"
    },
    {
      "inputs": [
        {
          "internalType": "uint256",
          "name": "tokenId",
          "type": "uint256"
        }
      ],
      "name": "toggleArtworkStatus",
      "outputs": [],
      "stateMutability": "nonpayable",
      "type": "function"
    },
    {
      "inputs": [],
      "name": "toggleWhitelist",
      "outputs": [],
      "stateMutability": "nonpayable",
      "type": "function"
    },
    {
      "inputs": [
        {
          "internalType": "uint256",
          "name": "",
          "type": "uint256"
        }
      ],
      "name": "tokenToArtist",
      "outputs": [
        {
          "internalType": "address",
          "name": "",
          "type": "address"
        }
      ],
      "stateMutability": "view",
      "type": "function"
    },
    {
      "inputs": [],
      "name": "totalSupply",
      "outputs": [
        {
          "internalType": "uint256",
          "name": "",
          "type": "uint256"
        }
      ],
      "stateMutability": "view",
      "type": "function"
    },
    {
      "inputs": [
        {
          "internalType": "uint256",
          "name": "id",
          "type": "uint256"
        }
      ],
      "name": "totalSupply",
      "outputs": [
        {
          "internalType": "uint256",
          "name": "",
          "type": "uint256"
        }
      ],
      "stateMutability": "view",
      "type": "function"
    },
    {
      "inputs": [
        {
          "internalType": "address",
          "name": "newOwner",
          "type": "address"
        }
      ],
      "name": "transferOwnership",
      "outputs": [],
      "stateMutability": "nonpayable",
      "type": "function"
    },
    {
      "inputs": [],
      "name": "unpause",
      "outputs": [],
      "stateMutability": "nonpayable",
      "type": "function"
    },
    {
      "inputs": [
        {
          "internalType": "string",
          "name": "_name",
          "type": "string"
        },
        {
          "internalType": "string",
          "name": "_bio",
          "type": "string"
        },
        {
          "internalType": "string",
          "name": "_avatarURI",
          "type": "string"
        }
      ],
      "name": "updateArtistProfile",
      "outputs": [],
      "stateMutability": "nonpayable",
      "type": "function"
    },
    {
      "inputs": [
        {
          "internalType": "uint256",
          "name": "tokenId",
          "type": "uint256"
        },
        {
          "internalType": "uint256",
          "name": "newPrice",
          "type": "uint256"
        }
      ],
      "name": "updateArtworkPrice",
      "outputs": [],
      "stateMutability": "nonpayable",
      "type": "function"
    },
    {
      "inputs": [
        {
          "internalType": "uint256",
          "name": "tokenId",
          "type": "uint256"
        }
      ],
      "name": "uri",
      "outputs": [
        {
          "internalType": "string",
          "name": "",
          "type": "string"
        }
      ],
      "stateMutability": "view",
      "type": "function"
    },
    {
      "inputs": [],
      "name": "whitelistEnabled",
      "outputs": [
        {
          "internalType": "bool",
          "name": "",
          "type": "bool"
        }
      ],
      "stateMutability": "view",
      "type": "function"
    },
    {
      "inputs": [
        {
          "internalType": "uint256",
          "name": "",
          "type": "uint256"
        }
      ],
      "name": "whitelistedAddressList",
      "outputs": [
        {
          "internalType": "address",
          "name": "",
          "type": "address"
        }
      ],
      "stateMutability": "view",
      "type": "function"
    },
    {
      "inputs": [
        {
          "internalType": "address",
          "name": "",
          "type": "address"
        }
      ],
      "name": "whitelistedAddresses",
      "outputs": [
        {
          "internalType": "bool",
          "name": "",
          "type": "bool"
        }
      ],
      "stateMutability": "view",
      "type": "function"
    },
    {
      "inputs": [],
      "name": "withdrawPlatformFees",
      "outputs": [],
      "stateMutability": "nonpayable",
      "type": "function"
    }
  ],
  "bytecode": "0x6080346200030b57601f620054ba38819003918201601f1916830192916001600160401b03919082851184861017620002f557808492604096875283396020938491810103126200030b57516001600160a01b039283821692918390036200030b57845181810181811084821117620002f55786526200008460009182815262000366565b8315620002de57600580546001600160a01b0319808216871790925590958591167f8be0079c531659141344cd1fd0a4f28419497f9722a3daafe3b4186f6b6457e08380a360019283600655620000dd60085462000310565b601f8111620002bc575b507f5065726d616c696e6b00000000000000000000000000000000000000000000126008556009546200011a9062000310565b601f81116200029a575b50600a64504c494e4b60d81b0160095560fa600a5581600b5560ff19908482600c541617600c5587519060608201908282109082111762000286578852602c81527f68747470733a2f2f6170692e7065726d616c696e6b2e6172742f6d6574616461848201526b3a3097bdb4b23e973539b7b760a11b88820152620001a99062000366565b848252600f83528682208482825416179055600e83528387832091825416179055601254926801000000000000000093848110156200027257818101806012558110156200025e5760128352838320018587825416179055601154938410156200024a578301806011558310156200023657601181522001918254161790555161501f90816200049b8239f35b634e487b7160e01b81526032600452602490fd5b634e487b7160e01b82526041600452602482fd5b634e487b7160e01b83526032600452602483fd5b634e487b7160e01b83526041600452602483fd5b634e487b7160e01b84526041600452602484fd5b60098352838320620002b591601f0160051c8101906200034d565b3862000124565b60088352838320620002d791601f0160051c8101906200034d565b38620000e7565b602490865190631e4fbdf760e01b82526004820152fd5b634e487b7160e01b600052604160045260246000fd5b600080fd5b90600182811c9216801562000342575b60208310146200032c57565b634e487b7160e01b600052602260045260246000fd5b91607f169162000320565b81811062000359575050565b600081556001016200034d565b80519091906001600160401b038111620002f5576200038760025462000310565b601f81116200043b575b50602080601f8311600114620003d15750819293600092620003c5575b50508160011b916000199060031b1c191617600255565b015190503880620003ae565b90601f1983169460026000526020600020926000905b8782106200042257505083600195961062000408575b505050811b01600255565b015160001960f88460031b161c19169055388080620003fd565b80600185968294968601518155019501930190620003e7565b600260005262000488907f405787fa12a823e0f2b7631cc41b3ba8828b3321ca811111fa75cd3aa3bb5ace601f840160051c810191602085106200048f575b601f0160051c01906200034d565b3862000391565b90915081906200047a56fe6080604052600436101561001257600080fd5b60003560e01c8062fdd58e146103cd57806301ffc9a7146103c857806302fe5305146103c357806306c933d81461039157806306fdde03146103be5780630e89341c146103b957806312e8e2c3146103b4578063167ddf6e146103af578063171212d5146103aa5780631785f53c146103a557806318160ddd146103a0578063184d69ab1461035f57806324d7806c146103735780632eb2c2d61461039b57806335c2aab9146103965780633998a6811461037d5780633af32abf146103915780633b5221e21461038c5780633f4ba83a146103875780634b602673146103825780634bf56fd1146103415780634cf4bb061461037d5780634e1273f4146103785780634ed38faf146103735780634f558e791461036e5780635001257e146103695780635024fd8c1461036457806351fb012d1461035f578063552906ce1461035a57806356189236146103555780635b42a8fe146103505780635c975abb1461034b5780635f5fff4d1461034657806362afcf001461034157806363c770d81461033c57806364ddfa29146103375780636d028027146103325780636e9772231461032d5780637048027514610328578063715018a6146103235780637e15144b1461031e5780638456cb59146103195780638ab1d681146103145780638da5cb5b1461030f5780638dc8b4da1461030a57806392a05fe71461030557806395d89b4114610300578063a22cb465146102fb578063b23cd1a6146102f6578063b3b30640146102f1578063bd85b039146102ec578063c71959b4146102e7578063cc0ad6e7146102e2578063cdd78cfc146102dd578063d0b7830b146102d8578063e084ffda146102d3578063e0f8b313146102ce578063e985e9c5146102c9578063f0f4d0cb146102c4578063f242432a146102bf5763f2fde38b146102ba57600080fd5b612a59565b612934565b6127df565b612777565b6126fc565b6126a1565b61261e565b612600565b612585565b6124e5565b6124b9565b61240f565b612316565b612256565b6121ae565b612160565b6120dc565b6120b3565b611f74565b611f1a565b611e8f565b611e31565b611cfc565b611cb3565b611c41565b611bc3565b611b35565b611419565b611a53565b611a30565b6119d7565b6119b9565b6116ae565b610f07565b611652565b61158a565b61155c565b610f2a565b6114a0565b611144565b611385565b611295565b611186565b6106e9565b611110565b610fe3565b610ee9565b610d50565b610cd7565b610b4d565b610a46565b610a13565b61092a565b6105c8565b61044b565b6103e8565b6001600160a01b038116036103e357565b600080fd5b346103e35760403660031901126103e357602061043060043561040a816103d2565b6024356000526000835260406000209060018060a01b0316600052602052604060002090565b54604051908152f35b6001600160e01b03198116036103e357565b346103e35760203660031901126103e357602060043561046a81610439565b63ffffffff60e01b16636cdb3d1360e11b81149081156104a8575b8115610497575b506040519015158152f35b6301ffc9a760e01b1490503861048c565b6303a24d0760e21b81149150610485565b634e487b7160e01b600052604160045260246000fd5b60c081019081106001600160401b038211176104ea57604052565b6104b9565b604081019081106001600160401b038211176104ea57604052565b606081019081106001600160401b038211176104ea57604052565b90601f801991011681019081106001600160401b038211176104ea57604052565b6040519061016082018281106001600160401b038211176104ea57604052565b6001600160401b0381116104ea57601f01601f191660200190565b81601f820112156103e35780359061059882610566565b926105a66040519485610525565b828452602083830101116103e357816000926020809301838601378301015290565b346103e3576020806003193601126103e3576001600160401b036004358181116103e3576105fa903690600401610581565b91610603613c3c565b82519182116104ea576106208261061b60025461072b565b6134a3565b602090601f83116001146106625750819061065293600092610657575b50508160011b916000199060031b1c19161790565b600255005b01519050388061063d565b90601f1983169361069560026000527f405787fa12a823e0f2b7631cc41b3ba8828b3321ca811111fa75cd3aa3bb5ace90565b926000905b8682106106d157505083600195106106b8575b505050811b01600255005b015160001960f88460031b161c191690553880806106ad565b8060018596829496860151815501950193019061069a565b346103e35760203660031901126103e357600435610706816103d2565b60018060a01b0316600052600e602052602060ff604060002054166040519015158152f35b90600182811c9216801561075b575b602083101461074557565b634e487b7160e01b600052602260045260246000fd5b91607f169161073a565b60405190600082600254916107798361072b565b8083529260209060019081811690811561080757506001146107a6575b50506107a492500383610525565b565b91509260026000527f405787fa12a823e0f2b7631cc41b3ba8828b3321ca811111fa75cd3aa3bb5ace936000925b8284106107ef57506107a49450505081016020013880610796565b855488850183015294850194879450928101926107d4565b915050602092506107a494915060ff191682840152151560051b8201013880610796565b9060405191826000825461083e8161072b565b908184526020946001916001811690816000146108ac575060011461086d575b5050506107a492500383610525565b600090815285812095935091905b8183106108945750506107a4935082010138808061085e565b8554888401850152948501948794509183019161087b565b925050506107a494925060ff191682840152151560051b82010138808061085e565b60005b8381106108e15750506000910152565b81810151838201526020016108d1565b9060209161090a815180928185528580860191016108ce565b601f01601f1916010190565b9060206109279281815201906108f1565b90565b346103e357600080600319360112610a105760405190806008549061094e8261072b565b808552916020916001918281169081156109e3575060011461098b575b6109878661097b81880382610525565b60405191829182610916565b0390f35b9350600884527ff3f7a9fe364faab93b216da50a3214154f22a0a2b415b23a84c8169e8b636ee35b8385106109d05750505050810160200161097b826109873861096b565b80548686018401529382019381016109b3565b90508695506109879693506020925061097b94915060ff191682840152151560051b82010192933861096b565b80fd5b346103e35760203660031901126103e357610987610a32600435612b87565b6040519182916020835260208301906108f1565b346103e35760203660031901126103e357600435610a62613c3c565b6103e88111610aa857600a8054908290556040805191825260208201929092527fd347e206f25a89b917fc9482f1a2d294d749baa4dc9bde7fb495ee11fe4916439190a1005b60405162461bcd60e51b815260206004820152600c60248201526b08ccaca40e8dede40d0d2ced60a31b6044820152606490fd5b96939061012098959b9a999693610b10610b2c94610b1e936101409060018060a01b03168c528060208d01528b01906108f1565b9089820360408b01526108f1565b9087820360608901526108f1565b98608086015260a085015260c084015260e083015215156101008201520152565b346103e35760203660031901126103e357600435600b5481111580610c7f575b610b7690612c6c565b60005260146020526040600020610b8b610546565b8154815260018201546001600160a01b0316602082019081529091906109879061014090610bbb6002850161082b565b9360408601948552610bcf6003820161082b565b9560608101968752610be36004830161082b565b9260808201938452610bf76005840161082b565b9360a0830194855260068401549060c08401918252610c72610c5c60078701549460e087019586526008880154966101008101978852600a610c3d60098b015460ff1690565b151561012083019081529901549a018a9052516001600160a01b031690565b99519a5196519151519251935194519551151590565b956040519a8b9a8b610adc565b50801515610b6d565b949192610cb760a095989794610ca9610cc59460c08a5260c08a01906108f1565b9088820360208a01526108f1565b9086820360408801526108f1565b95606085015260808401521515910152565b346103e35760203660031901126103e357600435610cf4816103d2565b6001600160a01b03166000908152601360205260409020610d148161082b565b610987610d236001840161082b565b92610d306002820161082b565b90600381015460ff60056004840154930154169260405196879687610c88565b346103e35760203660031901126103e357600435610d6d816103d2565b600090338252600f60205260ff6040832054168015610ed5575b610d9090612cab565b6001600160a01b0381166000908152600f60205260409020610dbd90610db8905b5460ff1690565b612cab565b6005546001600160a01b0382811692610e1192610e0792610de19116851415612ce6565b610ded33851415612d32565b6001600160a01b03166000908152600f6020526040902090565b805460ff19169055565b815b6012549081811015610ece5782610e50610e44610e2f846115eb565b905460039190911b1c6001600160a01b031690565b6001600160a01b031690565b14610e5f576001915001610e13565b610e7f610e79610e2f610e74610e9d95612d9e565b6115eb565b916115eb565b90919060018060a01b038084549260031b9316831b921b1916179055565b610ea5612dce565b33907fdb9d5d31320daf5bc7181d565b6da4d12e30f0f4d5aa324a992426c14a1d19ce8380a380f35b5050610ea5565b506005546001600160a01b03163314610d87565b346103e35760003660031901126103e3576020600454604051908152f35b346103e35760003660031901126103e357602060ff600c54166040519015158152f35b346103e35760203660031901126103e357600435610f47816103d2565b60018060a01b0316600052600f602052602060ff604060002054166040519015158152f35b6001600160401b0381116104ea5760051b60200190565b9080601f830112156103e3576020908235610f9d81610f6c565b93610fab6040519586610525565b81855260208086019260051b8201019283116103e357602001905b828210610fd4575050505090565b81358152908301908301610fc6565b346103e35760a03660031901126103e35760048035611001816103d2565b60243561100d816103d2565b6001600160401b03906044358281116103e35761102d9036908601610f83565b906064358381116103e3576110459036908701610f83565b926084359081116103e35761105d9036908701610581565b936001600160a01b038082169033821415806110ec575b6110bf578316156110a757156110905761108e95506147fb565b005b604051626a0d4560e21b8152600081880152602490fd5b604051632bfa23e760e11b8152600081890152602490fd5b6040805163711bec9160e11b815233818b019081526001600160a01b038616602082015290918291010390fd5b50600082815260016020908152604080832033845290915290205460ff1615611074565b346103e35760203660031901126103e3576004356000526015602052602060018060a01b0360406000205416604051908152f35b346103e35760003660031901126103e35760206040516103e88152f35b9091611178610927936040845260408401906108f1565b9160208184039101526108f1565b346103e35760203660031901126103e357600435600b548111158061128c575b6111af90612c6c565b600052601460205260406000206111c4610546565b8154815260018201546111eb906001600160a01b03165b6001600160a01b03166020830152565b6111f76002830161082b565b60408201526112086003830161082b565b60608201526112196004830161082b565b9060808101918252610140600a6112326005860161082b565b9460a08401958652600681015460c0850152600781015460e0850152600881015461010085015261127461126a600983015460ff1690565b1515610120860152565b01549101525190519061098760405192839283611161565b508015156111a6565b346103e35760003660031901126103e3576112ae613c3c565b60075460ff8116156112ed5760ff19166007557f5db9ee0a495bf2e6ff9c91a7834c1ba4fdd244a5e8aa4e537bd38aeae4b073aa6020604051338152a1005b604051638dfc202b60e01b8152600490fd5b9794906113689461133e6101409b9895999e9d9c9961135a9561134c9460408e610160938493825260018060a01b0316602082015201528c01906108f1565b908a820360608c01526108f1565b9088820360808a01526108f1565b9086820360a08801526108f1565b9760c085015260e084015261010083015215156101208201520152565b346103e35760203660031901126103e3576004356000908152601460205260409020805460018201546001600160a01b031691610987906113c86002820161082b565b906113d56003820161082b565b6113e16004830161082b565b6113ed6005840161082b565b600684015490600785015492600886015494600a60ff600989015416970154976040519b8c9b8c6112ff565b346103e35760203660031901126103e357600435611436816103d2565b60018060a01b0316600052600d602052602060ff604060002054166040519015158152f35b90815180825260208080930193019160005b82811061147b575050505090565b83518552938101939281019260010161146d565b90602061092792818152019061145b565b346103e35760403660031901126103e3576004356001600160401b038082116103e357366023830112156103e35781600401356114dc81610f6c565b926114ea6040519485610525565b8184526020916024602086019160051b830101913683116103e357602401905b82821061154357856024358681116103e35761098791611531611537923690600401610f83565b90612ea0565b6040519182918261148f565b8380918335611551816103d2565b81520191019061150a565b346103e35760203660031901126103e357600435600052600360205260206040600020541515604051908152f35b346103e35760403660031901126103e35760043560009080825260156020526115c060018060a01b036040842054163314612f5f565b81526014602052602435600660408320015580f35b634e487b7160e01b600052603260045260246000fd5b601254811015611610576012600052600080516020614faa8339815191520190600090565b6115d5565b601154811015611610576011600052600080516020614fca8339815191520190600090565b80548210156116105760005260206000200190600090565b346103e35760403660031901126103e35760043561166f816103d2565b6001600160a01b03166000908152601760205260409020805460243591908210156103e3576020916116a09161163a565b90546040519160031b1c8152f35b60403660031901126103e3576024356004356116c86140e5565b6116d0614103565b60ff600c541661197e575b600b5481111580611975575b6116f090612c6c565b611704816000526014602052604060002090565b9161171b611716600985015460ff1690565b612fda565b61172681151561301e565b60088301916117456117398385546130cc565b600786015410156130d9565b600684019361175583865461315f565b61176181341015613172565b61179661177b611773600a548461315f565b612710900490565b61179161178a6117738561311a565b9184612dc1565b612dc1565b946117aa6117a26131b5565b868633614126565b6117b58582546130cc565b9055336000908152601360205260409020600490600581016117df6117db825460ff1690565b1590565b611957575b50016117f18582546130cc565b905560009460005b3360009081526017602052604090205481101561194c57336000908152601760205260409020859061183a9061183090849061163a565b90549060031b1c90565b14611847576001016117f9565b5090919293945060015b1561192d575b801580156118ef575b50508034116118bc575b506001015492546040805193845260208401919091526001600160a01b039093169233927f465c604f8dcf4d2dba83e76f95c4cb5876f0976ec008a9326b6d4b209142bb459190a461108e6001600655565b600080806118cb819434612dc1565b8181156118e6575b3390f1156118e1573861186a565b61320d565b506108fc6118d3565b6000808093819361190f610e44610e4460018b015460018060a01b031690565b908390611924575bf1156118e1573880611860565b506108fc611917565b3360009081526017602052604090206119479085906131d8565b611857565b509091929394611851565b805460ff1916600117905560006003820155600082820155386117e4565b508015156116e7565b33600052600e60205260ff6040600020541680156119a5575b6119a090612f9c565b6116db565b506005546001600160a01b03163314611997565b346103e35760003660031901126103e3576020600b54604051908152f35b346103e35760203660031901126103e3576004356000908082526015602052611a0d60018060a01b036040842054163314612f5f565b8152601460205260408120600901805460ff818116151660ff1990911617905580f35b346103e35760003660031901126103e357602060ff600754166040519015158152f35b346103e357600080600319360112610a1057338152600d60205260ff604082205416611af057336000908152600e60205260409020611a9e90611a99906117db90610db1565b613219565b336000908152600d60205260409020611abf905b805460ff19166001179055565b611ac83361325b565b337fd01371a65bc20da9af65aaf8149474fd747e562e207a3687cf65a809766a205a8280a280f35b60405162461bcd60e51b815260206004820152601b60248201527f416c7265616479207265676973746572656420696e74657265737400000000006044820152606490fd5b346103e35760203660031901126103e3576004356011548110156103e3576011600052600080516020614fca83398151915201546040516001600160a01b039091168152602090f35b602090602060408183019282815285518094520193019160005b828110611ba6575050505090565b83516001600160a01b031685529381019392810192600101611b98565b346103e35760003660031901126103e35760405180601254918281526020809101926012600052600080516020614faa833981519152916000905b828210611c215761098785611c1581890382610525565b60405191829182611b7e565b83546001600160a01b031686529485019460019384019390910190611bfe565b346103e35760003660031901126103e35760405180601154918281526020809101926011600052600080516020614fca833981519152916000905b828210611c935761098785611c1581890382610525565b83546001600160a01b031686529485019460019384019390910190611c7c565b346103e35760203660031901126103e3576004356012548110156103e3576012600052600080516020614faa83398151915201546040516001600160a01b039091168152602090f35b346103e35760203660031901126103e357600435611d19816103d2565b600090338252600f60205260ff6040832054168015611e1d575b611d3c90612cab565b6001600160a01b038116808352600f6020526040832054909190611d639060ff161561336c565b611d6e8215156133ab565b6001600160a01b0381166000908152600f60205260409020611d8f90611ab2565b611d98816132c2565b6001600160a01b0381166000908152600e60205260409020611dbd906117db90610db1565b611dec575b5033907fbf3f493c772c8c283fd124432c2d0f539ab343faa04258fe88e52912d36b102b8380a380f35b6001600160a01b0381166000908152600e60205260409020611e179190611e1290611ab2565b613317565b38611dc2565b506005546001600160a01b03163314611d33565b346103e357600080600319360112610a1057611e4b613c3c565b600580546001600160a01b0319811690915581906001600160a01b03167f8be0079c531659141344cd1fd0a4f28419497f9722a3daafe3b4186f6b6457e08280a380f35b346103e357600080600319360112610a1057338152600f60205260ff6040822054168015611f06575b611ec190612cab565b600c5460ff8082161516809160ff191617600c5560405190151581527f5f2930093a8ed3d18a75ec1318aa404a4cb74a9d542350560a7709642f444b5860203392a280f35b506005546001600160a01b03163314611eb8565b346103e35760003660031901126103e357611f33613c3c565b611f3b6140e5565b600160ff1960075416176007557f62e78cea01bee320cd4e420270b5ea74000d11b0c9f74754ebdbfc544b05a2586020604051338152a1005b346103e35760203660031901126103e357600435611f91816103d2565b600090338252600f60205260ff604083205416801561209f575b611fb490612cab565b6001600160a01b0381166000908152600e60205260409020611fde90611fd990610db1565b6133e9565b6005546001600160a01b038281169261201c92610e07926120029116851415613435565b6001600160a01b03166000908152600e6020526040902090565b815b6011549081811015612098578261203a610e44610e2f84611615565b1461204957600191500161201e565b610e7f612063610e2f61205e61206995612d9e565b611615565b91611615565b612071612e38565b7f535611fb62fa2a833988f283b779e417e996813e44046f521d76c17b5943b08c8280a280f35b5050612071565b506005546001600160a01b03163314611fab565b346103e35760003660031901126103e3576005546040516001600160a01b039091168152602090f35b346103e35760003660031901126103e357604051806010549182815260208091019260106000527f1b6847dc741a1b0cd08d278845f9d819d87b734759afb55fe2de5cb82a9ae672916000905b8282106121405761098785611c1581890382610525565b83546001600160a01b031686529485019460019384019390910190612129565b346103e35760403660031901126103e35760043561217d816103d2565b6001600160a01b03166000908152601660205260409020805460243591908210156103e3576020916116a09161163a565b346103e357600080600319360112610a10576040519080600954906121d28261072b565b808552916020916001918281169081156109e357506001146121fe576109878661097b81880382610525565b9350600984527f6e1540171b6c0c960b71a7020d9f60077f6af931a8bbf590da0223dacf75c7af5b8385106122435750505050810160200161097b826109873861096b565b8054868601840152938201938101612226565b346103e35760403660031901126103e357600435612273816103d2565b60243590811515908183036103e3576001600160a01b0381169283156122fe576122bf6122d09233600052600160205260406000209060018060a01b0316600052602052604060002090565b9060ff801983541691151516179055565b6040519081527f17307eab39ab6107e8899845ad3d59bd9653f200f220920489ca2b5937696c3160203392a3005b60405162ced3e160e81b815260006004820152602490fd5b346103e35760603660031901126103e3576001600160401b036004358181116103e357612347903690600401610581565b6024358281116103e35761235f903690600401610581565b916044359081116103e3576123997f39dfee1413bb413ba51702fe3cd693cd3b02628fbac61358818d502b7af50095913690600401610581565b60009333855260136020526123db826002604088206005810160ff815416156123f2575b506123c8888261353e565b6123d5856001830161353e565b0161353e565b6123ec604051928392339684613607565b0390a280f35b805460ff19166001179055886003820155886004820155386123bd565b346103e35760203660031901126103e35760043561242c816103d2565b60018060a01b03166000526013602052604060002060405161244d816104cf565b6124568261082b565b81526109876124676001840161082b565b916020810192835261247b6002850161082b565b93846040830152600381015480606084015260ff60056004840154938460808701520154161515928360a08201525194519560405196879687610c88565b346103e35760203660031901126103e35760043560005260036020526020604060002054604051908152f35b346103e35760c03660031901126103e3576001600160401b036004358181116103e357612516903690600401610581565b906024358181116103e35761252f903690600401610581565b6044358281116103e357612547903690600401610581565b926064359283116103e35761098793612567612575943690600401610581565b9060a435936084359361363e565b6040519081529081906020820190565b346103e3576020806003193601126103e3576004356125a3816103d2565b6001600160a01b0316600090815260166020908152604080832090518154808252918452828420928101949093905b8282106125e9576109878561153781890382610525565b8354865294850194600193840193909101906125d2565b346103e35760003660031901126103e3576020600a54604051908152f35b346103e357600080600319360112610a1057612638613c3c565b47801561266657600554829182918291829161265c906001600160a01b0316610e44565b82f1156118e15780f35b60405162461bcd60e51b81526020600482015260136024820152724e6f206665657320746f20776974686472617760681b6044820152606490fd5b346103e35760203660031901126103e3576004356010548110156103e35760106000527f1b6847dc741a1b0cd08d278845f9d819d87b734759afb55fe2de5cb82a9ae67201546040516001600160a01b039091168152602090f35b346103e3576020806003193601126103e35760043561271a816103d2565b6001600160a01b0316600090815260176020908152604080832090518154808252918452828420928101949093905b828210612760576109878561153781890382610525565b835486529485019460019384019390910190612749565b346103e35760403660031901126103e357602060ff6127d360043561279b816103d2565b602435906127a8826103d2565b60018060a01b03166000526001845260406000209060018060a01b0316600052602052604060002090565b54166040519015158152f35b346103e35760203660031901126103e3576004356001600160401b038082116103e357366023830112156103e35781600401359081116103e35760246005923660248460051b830101116103e357600093338552600f60205260ff6040862054168015612920575b61285090612cab565b845b84811061285d578580f35b8084600192841b85010135612871816103d2565b6001600160a01b0381166000908152600d6020526040902061289b9061289690610db1565b613bab565b6128c56128c06117db610db18460018060a01b0316600052600e602052604060002090565b613bf0565b6001600160a01b0381166000908152600e602052604090206128e690611ab2565b6128ef81613317565b828060a01b03167f4f783c179409b4127238bc9c990bc99b9a651666a0d20b51d6c42849eb88466d8880a201612852565b506005546001600160a01b03163314612847565b346103e35760a03660031901126103e357600435612951816103d2565b60243561295d816103d2565b6084356001600160401b0381116103e35761297c903690600401610581565b906001600160a01b03838116903382141580612a35575b612a0e578216156129f557156129dd5761108e926129d56064356044359160405192600184526020840152604083019160018352606084015260808301604052565b9290916147fb565b604051626a0d4560e21b815260006004820152602490fd5b604051632bfa23e760e11b815260006004820152602490fd5b60405163711bec9160e11b81523360048201526001600160a01b0386166024820152604490fd5b50600082815260016020908152604080832033845290915290205460ff1615612993565b346103e35760203660031901126103e357600435612a76816103d2565b612a7e613c3c565b6001600160a01b03908116908115612acd57600554826001600160601b0360a01b821617600555167f8be0079c531659141344cd1fd0a4f28419497f9722a3daafe3b4186f6b6457e0600080a3005b604051631e4fbdf760e01b815260006004820152602490fd5b90600a612af1610546565b8354815260018401546001600160a01b0316602082015292612b156002820161082b565b6040850152612b266003820161082b565b6060850152612b376004820161082b565b6080850152612b486005820161082b565b60a0850152600681015460c0850152600781015460e08501526008810154610100850152612b7d61126a600983015460ff1690565b0154610140830152565b600b5481111580612c63575b612ba1575b50610927610765565b8060005260146020526040600020612bb7610546565b815481526001820154612bd2906001600160a01b03166111db565b612bde6002830161082b565b6040820152612bef6003830161082b565b6060820152610140600a612c056004850161082b565b9360808401948552612c196005820161082b565b60a0850152600681015460c0850152600781015460e08501526008810154610100850152612c4e61126a600983015460ff1690565b0154910152515115612b985761092790613c7f565b50801515612b93565b15612c7357565b60405162461bcd60e51b815260206004820152601060248201526f125b9d985b1a59081d1bdad95b88125160821b6044820152606490fd5b15612cb257565b60405162461bcd60e51b815260206004820152600c60248201526b2737ba1030b71030b236b4b760a11b6044820152606490fd5b15612ced57565b60405162461bcd60e51b815260206004820152601e60248201527f43616e6e6f742072656d6f7665206f776e65722066726f6d2061646d696e00006044820152606490fd5b15612d3957565b60405162461bcd60e51b815260206004820152602160248201527f43616e6e6f742072656d6f766520796f757273656c662066726f6d2061646d696044820152603760f91b6064820152608490fd5b634e487b7160e01b600052601160045260246000fd5b600019810191908211612dad57565b612d88565b600119810191908211612dad57565b91908203918211612dad57565b6012548015612e225760001981019080821015611610577fbb8a6a4669ba250d26cd7a459eca9d215f8307e33aebe50379bc5a3617ec3443906012600052016001600160601b0360a01b8154169055601255565b634e487b7160e01b600052603160045260246000fd5b6011548015612e225760001981019080821015611610577f31ecc21a745e3968a04e9570e4425bc18fa8019c68028196b546d1669c200c67906011600052016001600160601b0360a01b8154169055601155565b80518210156116105760209160051b010190565b91909180518351808203612f3d575050805190612ed5612ebf83610f6c565b92612ecd6040519485610525565b808452610f6c565b60209190601f1901368484013760005b8151811015612f3557600581901b8281018401519087018401516000908152602081815260408083206001600160a01b039094168352929052205460019190612f2e8287612e8c565b5201612ee5565b509193505050565b604051635b05999160e01b815260048101919091526024810191909152604490fd5b15612f6657565b60405162461bcd60e51b815260206004820152600e60248201526d139bdd081d1a1948185c9d1a5cdd60921b6044820152606490fd5b15612fa357565b60405162461bcd60e51b815260206004820152600f60248201526e139bdd081dda1a5d195b1a5cdd1959608a1b6044820152606490fd5b15612fe157565b60405162461bcd60e51b8152602060048201526015602482015274417274776f726b206973206e6f742061637469766560581b6044820152606490fd5b1561302557565b60405162461bcd60e51b815260206004820152601d60248201527f416d6f756e74206d7573742062652067726561746572207468616e20300000006044820152606490fd5b9060028201809211612dad57565b9060038201809211612dad57565b9060018201809211612dad57565b6030019081603011612dad57565b90600c8201809211612dad57565b6002019081600211612dad57565b6003019081600311612dad57565b91908201809211612dad57565b156130e057565b60405162461bcd60e51b815260206004820152601260248201527145786365656473206d617820737570706c7960701b6044820152606490fd5b906103e891828102928184041490151715612dad57565b600281901b91906001600160fe1b03811603612dad57565b908160011b9180830460021490151715612dad57565b81810292918115918404141715612dad57565b1561317957565b60405162461bcd60e51b8152602060048201526014602482015273125b9cdd59999a58da595b9d081c185e5b595b9d60621b6044820152606490fd5b60405190602082018281106001600160401b038211176104ea5760405260008252565b8054600160401b8110156104ea576131f59160018201815561163a565b819291549060031b91821b91600019901b1916179055565b6040513d6000823e3d90fd5b1561322057565b60405162461bcd60e51b8152602060048201526013602482015272105b1c9958591e481dda1a5d195b1a5cdd1959606a1b6044820152606490fd5b60105490600160401b8210156104ea5760018201806010558210156116105760106000527f1b6847dc741a1b0cd08d278845f9d819d87b734759afb55fe2de5cb82a9ae67290910180546001600160a01b0319166001600160a01b03909216919091179055565b60125490600160401b8210156104ea576001820180601255821015611610576012600052600080516020614faa83398151915290910180546001600160a01b0319166001600160a01b03909216919091179055565b60115490600160401b8210156104ea576001820180601155821015611610576011600052600080516020614fca83398151915290910180546001600160a01b0319166001600160a01b03909216919091179055565b1561337357565b60405162461bcd60e51b815260206004820152601060248201526f20b63932b0b23c9030b71030b236b4b760811b6044820152606490fd5b156133b257565b60405162461bcd60e51b815260206004820152600f60248201526e496e76616c6964206164647265737360881b6044820152606490fd5b156133f057565b60405162461bcd60e51b815260206004820152601760248201527f41646472657373206e6f742077686974656c69737465640000000000000000006044820152606490fd5b1561343c57565b60405162461bcd60e51b815260206004820152602260248201527f43616e6e6f742072656d6f7665206f776e65722066726f6d2077686974656c696044820152611cdd60f21b6064820152608490fd5b818110613497575050565b6000815560010161348c565b90601f82116134b0575050565b6107a49160026000527f405787fa12a823e0f2b7631cc41b3ba8828b3321ca811111fa75cd3aa3bb5ace906020601f840160051c830193106134fa575b601f0160051c019061348c565b90915081906134ed565b9190601f811161351357505050565b6107a4926000526020600020906020601f840160051c830193106134fa57601f0160051c019061348c565b91909182516001600160401b0381116104ea576135658161355f845461072b565b84613504565b602080601f831160011461359c575081906135989394956000926106575750508160011b916000199060031b1c19161790565b9055565b90601f198316956135b285600052602060002090565b926000905b8882106135ef575050836001959697106135d6575b505050811b019055565b015160001960f88460031b161c191690553880806135cc565b806001859682949686015181550195019301906135b7565b916136309061362261092795936060865260608601906108f1565b9084820360208601526108f1565b9160408184039101526108f1565b936137ee7f4ddc8815460a355e3d190e794ec142559a99d61ae53cf57df333c9286e76c5489396929661366f6140e5565b613677614103565b60ff600c5416613813575b61368d84151561384e565b613699875115156138a4565b6136a5815115156138e8565b6136b461400082511115613934565b6136c086511515613980565b6136d16136cc8761429c565b6139cc565b6136e46136df600b54613a0d565b600b55565b613757600b549889976136f5610546565b898152336020820152918a6040840152606083015283608083015260a08201528460c08201528560e08201526000610100820152613737610120820160019052565b42610140820152613752886000526014602052604060002090565b613ac1565b61378e3361376f886000526015602052604060002090565b80546001600160a01b0319166001600160a01b03909216919091179055565b3360009081526016602052604090206137a89087906131d8565b336000908152601360205260409020600390600581016137cc6117db825460ff1690565b6137fb575b50016137dd8154613a0d565b905551604051938493339885613b83565b0390a36109276001600655565b805460ff1916600117905560006004820155386137d1565b33600052600e60205260ff60406000205416801561383a575b61383590612f9c565b613682565b506005546001600160a01b0316331461382c565b1561385557565b60405162461bcd60e51b815260206004820152602160248201527f4d617820737570706c79206d7573742062652067726561746572207468616e206044820152600360fc1b6064820152608490fd5b156138ab57565b60405162461bcd60e51b81526020600482015260156024820152745469746c652063616e6e6f7420626520656d70747960581b6044820152606490fd5b156138ef57565b60405162461bcd60e51b815260206004820152601a60248201527f496d61676520646174612063616e6e6f7420626520656d7074790000000000006044820152606490fd5b1561393b57565b60405162461bcd60e51b815260206004820152601a60248201527f496d61676520746f6f206c61726765202831364b42206d6178290000000000006044820152606490fd5b1561398757565b60405162461bcd60e51b815260206004820152601a60248201527f496d61676520747970652063616e6e6f7420626520656d7074790000000000006044820152606490fd5b156139d357565b60405162461bcd60e51b8152602060048201526012602482015271496e76616c696420696d616765207479706560701b6044820152606490fd5b6000198114612dad5760010190565b91909182516001600160401b0381116104ea57613a3d8161355f845461072b565b602080601f8311600114613a70575081906135989394956000926106575750508160011b916000199060031b1c19161790565b90601f19831695613a8685600052602060002090565b926000905b888210613aa9575050836001959697106135d657505050811b019055565b80600185968294968601518155019501930190613a8b565b8151815560208201516001820180546001600160a01b0319166001600160a01b0390921691909117905590600a9061014090613b0460408201516002860161353e565b613b1560608201516003860161353e565b613b26608082015160048601613a1c565b613b3760a08201516005860161353e565b60c0810151600685015560e081015160078501556101008101516008850155613b7c613b67610120830151151590565b600986019060ff801983541691151516179055565b0151910155565b9092613b9c6060939695946080845260808401906108f1565b95602083015260408201520152565b15613bb257565b60405162461bcd60e51b81526020600482015260166024820152751059191c995cdcc81b9bdd081a5b9d195c995cdd195960521b6044820152606490fd5b15613bf757565b60405162461bcd60e51b815260206004820152601b60248201527f4164647265737320616c72656164792077686974656c697374656400000000006044820152606490fd5b6005546001600160a01b03163303613c5057565b60405163118cdaa760e01b8152336004820152602490fd5b90613c7b602092828151948592016108ce565b0190565b613c93816000526014602052604060002090565b613c9c90612ae6565b60a0810191825160808301928351613cb39061445c565b6040516a646174613a696d6167652f60a81b602082015292839190602b8301613cdb91613c68565b670ed8985cd94d8d0b60c21b8152600801613cf591613c68565b0394601f19958681018452613d0a9084610525565b604082015193613d1990614653565b9460608301519360e0840151613d2e90614653565b610100850151613d3d90614653565b9160c0860151613d4c90614653565b935151613d5890614653565b94516020909601516001600160a01b0316613d729061471f565b604051683d913730b6b2911d1160b91b6020820152998a9991989160298b01613d9a91613c68565b61202360f01b8152600201613dae91613c68565b61088b60f21b81526002016e113232b9b1b934b83a34b7b7111d1160891b8152600f01613dda91613c68565b61088b60f21b8152600201681134b6b0b3b2911d1160b91b8152600901613e0091613c68565b61088b60f21b81526002016d2261747472696275746573223a5b60901b8152600e017f7b2274726169745f74797065223a22546f6b656e205374616e64617264222c228152721d985b1d59488e88915490cb4c4c4d4d489f4b606a1b60208201526033017f7b2274726169745f74797065223a2253746f72616765222c2276616c7565223a81526b0893db8b58da185a5b889f4b60a21b6020820152602c017f7b2274726169745f74797065223a224d617820537570706c79222c2276616c7581526232911d60e91b6020820152602301613eda91613c68565b611f4b60f21b81526002017f7b2274726169745f74797065223a2243757272656e7420537570706c79222c228152663b30b63ab2911d60c91b6020820152602701613f2491613c68565b611f4b60f21b81526002017f7b2274726169745f74797065223a225072696365202857656929222c2276616c8152633ab2911d60e11b6020820152602401613f6b91613c68565b611f4b60f21b81526002017f7b2274726169745f74797065223a2246696c652053697a65222c2276616c7565815261111d60f11b6020820152602201613fb091613c68565b611f4b60f21b81526002017f7b2274726169745f74797065223a2246696c652054797065222c2276616c7565815262111d1160e91b6020820152602301613ff691613c68565b62089f4b60ea1b81526003017f7b2274726169745f74797065223a2243726561746f72222c2276616c7565223a8152601160f91b602082015260210161403b91613c68565b61227d60f01b815260020161174b60f21b81526002017f2270726f70657274696573223a7b2263617465676f7279223a22696d616765228152617d7d60f01b60208201526022010382810182526140929082610525565b61409b9061445c565b6040517f646174613a6170706c69636174696f6e2f6a736f6e3b6261736536342c000000602082015291908290603d82016140d591613c68565b0390810182526109279082610525565b60ff600754166140f157565b60405163d93c066560e01b8152600490fd5b600260065414614114576002600655565b604051633ee5aeb560e01b8152600490fd5b93916001600160a01b038516156129f55761415e60405192600184526020840152604083019160018352606084015260808301604052565b909161416b828487614cd0565b600094855b84518710156141be576141b66001918860051b906141a4602080848a010151938a0101516000526003602052604060002090565b6141af8382546130cc565b90556130cc565b960195614170565b6141d89195949296506141d3906004546130cc565b600455565b80516001036141f657906020806107a4959301519101519133614c3f565b6107a49333614a45565b6040519061420d826104ef565b6003825262706e6760e81b6020830152565b6040519061422c826104ef565b600382526233b4b360e91b6020830152565b6040519061424b826104ef565b60048252630776562760e41b6020830152565b6040519061426b826104ef565b600382526273766760e81b6020830152565b6040519061428a826104ef565b600382526207a69760ec1b6020830152565b6142c26040516142ab816104ef565b60048152636a70656760e01b60208201528261492e565b908115614355575b8115614342575b811561432f575b811561431c575b8115614303575b81156142f0575090565b61092791506142fd61427d565b9061492e565b905061431661431061425e565b8261492e565b906142e6565b905061432961431061423e565b906142df565b905061433c61431061421f565b906142d8565b905061434f614310614200565b906142d1565b905061437c604051614366816104ef565b60038152626a706760e81b60208201528261492e565b906142ca565b6040519061438f8261050a565b604082527f6768696a6b6c6d6e6f707172737475767778797a303132333435363738392b2f6040837f4142434445464748494a4b4c4d4e4f505152535455565758595a61626364656660208201520152565b604051906143ee8261050a565b602a82526040366020840137565b9061440682610566565b6144136040519182610525565b8281528092614424601f1991610566565b0190602036910137565b8051156116105760200190565b8051600110156116105760210190565b908151811015611610570160200190565b80511561464a5761446b614382565b9061448861448361447c835161306a565b6003900490565b613131565b91614492836143fc565b91600094855b82518110156145ed57806145be6144be6144d86144d26144cc6144be6145dc978a61444b565b516001600160f81b03191690565b60f81c90565b60ff1690565b6144e184613086565b8751116000906000146145e7575061450a6144d26144cc6144be61450488613086565b8b61444b565b905b6145158561306a565b8851116000906000146145e1575061453e6144d26144cc6144be6145388961306a565b8c61444b565b915b60081b9060101b1717603f9061455e6144be838360121c168b61444b565b9b61457661456b82613a0d565b9d60001a918c61444b565b536145896144be8383600c1c168b61444b565b9b61459661456b82613a0d565b536145a96144be838360061c168b61444b565b9b6145b661456b82613a0d565b53168761444b565b976145d66145cb82613a0d565b9960001a918861444b565b53613078565b614498565b91614540565b9061450c565b50945060039150929192510660018114600014614631575061462d61462782603d61462161461b8296612d9e565b8761444b565b53612db2565b8361444b565b5390565b60021461463c575090565b61462d614627603d92612d9e565b506109276131b5565b80156146d5576000818181805b6146bd575061466e816143fc565b935b61467a5750505090565b61468390612d9e565b90600a906146a86146986144d2848406613094565b60f81b6001600160f81b03191690565b841a6146b4848761444b565b53049081614670565b91506146ca600a91613a0d565b910480849291614660565b506040516146e2816104ef565b60018152600360fc1b602082015290565b60405190614700826104ef565b601082526f181899199a1a9b1b9c1cb0b131b232b360811b6020830152565b6001600160a01b03166147306146f3565b6147386143e1565b9160306147448461442e565b5360786147508461443b565b5360009060005b60148110614766575050505090565b61476f816130a2565b9060209182811015611610576147936144be8592600f9384911a60041c168861444b565b6147b16147a76147a285613149565b6130b0565b91871a918961444b565b536147bb826130a2565b92831015611610576144be6147d691856001951a168761444b565b6147f46147ea6147e584613149565b6130be565b91861a918861444b565b5301614757565b9193929061480b82868386614e02565b6001600160a01b03838116156148ca575b81161580614869575b15614832575b5050505050565b84516001036148585760208061484e9601519201519233614c74565b388080808061482b565b61486494919233614b40565b61484e565b94936000939091845b86518610156148b2576001908660051b906148a3602080848a010151938b0101516000526003602052604060002090565b82815403905501950194614872565b6148c59193969792955060045403600455565b614825565b959192600094916000955b8751871015614911576149096001918860051b906141a4602080848c010151938d0101516000526003602052604060002090565b9601956148d5565b614929919396506141d39098929594986004546130cc565b61481c565b906040519160209261495c84828161494f81830196878151938492016108ce565b8101038084520182610525565b5190209161497c60405191828161494f81830196878151938492016108ce565b5190201490565b908160209103126103e3575161092781610439565b926149c761092795936149d59360018060a01b031686526000602087015260a0604087015260a086019061145b565b90848203606086015261145b565b9160808184039101526108f1565b939061092795936149c7916149d59460018060a01b03809216885216602087015260a0604087015260a086019061145b565b3d15614a40573d90614a2682610566565b91614a346040519384610525565b82523d6000602084013e565b606090565b9293919093843b614a57575050505050565b602091614a7a604051948593849363bc197c8160e01b9889865260048601614998565b038160006001600160a01b0388165af160009181614b0f575b50614ad25782614aa1614a15565b8051919082614acb57604051632bfa23e760e11b81526001600160a01b0383166004820152602490fd5b9050602001fd5b6001600160e01b03191603614aec5750388080808061482b565b604051632bfa23e760e11b81526001600160a01b03919091166004820152602490fd5b614b3291925060203d602011614b39575b614b2a8183610525565b810190614983565b9038614a93565b503d614b20565b939290949194853b614b55575b505050505050565b614b78602093604051958694859463bc197c8160e01b998a8752600487016149e3565b038160006001600160a01b0388165af160009181614bba575b50614b9f5782614aa1614a15565b6001600160e01b03191603614aec5750388080808080614b4d565b614bd491925060203d602011614b3957614b2a8183610525565b9038614b91565b909260a0926109279594600180861b03168352600060208401526040830152606082015281608082015201906108f1565b919261092795949160a094600180871b0380921685521660208401526040830152606082015281608082015201906108f1565b9293919093843b614c51575050505050565b602091614a7a604051948593849363f23a6e6160e01b9889865260048601614bdb565b939290949194853b614c8857505050505050565b614b78602093604051958694859463f23a6e6160e01b998a875260048701614c0c565b9091614cc26109279360408452604084019061145b565b91602081840391015261145b565b9190918251825190818103612f3d57505060005b8351811015614d6257600581901b84810160209081015191850101516001929184906001600160a01b038216614d1e575b50505001614ce4565b614d5891614d39614d50926000526000602052604060002090565b9060018060a01b0316600052602052604060002090565b9182546130cc565b9055388381614d15565b50916001815114600014614dc3576020908101519181015160408051938452918301526001600160a01b039092169160009133917fc3d58168c5ae7397731d063d5bbf3d657854427343f4c083240f7aacaa2d0f629190819081015b0390a4565b7f4a39dc06d4c0dbc64b70af90fd698a233a518aa5d07e595d983b8c0526c8f7fb614dbe6000939460405191829160018060a01b031696339583614cab565b9392918051835190818103612f3d57505060005b8151811015614f0457600581901b82810160209081015191860101516001600160a01b0392918590898516614e7e575b6001948216614e59575b50505001614e16565b614e7491614d39614d50926000526000602052604060002090565b9055388481614e50565b9192939050614e9b89614d39846000526000602052604060002090565b54838110614ecd5791869184600196959403614ec58c614d39856000526000602052604060002090565b559450614e46565b6040516303dee4c560e01b81526001600160a01b038b16600482015260248101919091526044810184905260648101839052608490fd5b508051939493919291600103614f66576020908101519181015160408051938452918301526001600160a01b03928316939092169133917fc3d58168c5ae7397731d063d5bbf3d657854427343f4c083240f7aacaa2d0f629181908101614dbe565b6040516001600160a01b03938416949093169233927f4a39dc06d4c0dbc64b70af90fd698a233a518aa5d07e595d983b8c0526c8f7fb928291614dbe9183614cab56febb8a6a4669ba250d26cd7a459eca9d215f8307e33aebe50379bc5a3617ec344431ecc21a745e3968a04e9570e4425bc18fa8019c68028196b546d1669c200c68a2646970667358221220e82de3225bfa9bfec618e58590581b8acbf27172597229bf6a8199079532ba0764736f6c63430008180033",
  "linkReferences": {},
  "deployedLinkReferences": {}
}